:020000040800F2
:1000000000200020E1440008DDE00108DDE00108F7
:1000100025260208DDE00108DDE00108DDE0010839
:10002000DDE00108DDE00108DDE00108DDE00108B8
:10003000DDE00108DDE00108DDE00108DDE00108A8
:10004000DDE00108DDE00108DDE00108DDE0010898
:100050001D660008DDE00108DDE00108DDE00108C3
:10006000DDE00108DDE00108DDE00108693B000892
:10007000593B0008DDE00108DDE00108DDE0010892
:10008000DDE00108DDE00108DDE00108DDE0010858
:10009000DDE00108DDE0010859500008DDE001085D
:1000A000DDE00108DDE00108FD4B0008D54B00084C
:1000B000DDE00108DDE0010821B20108CDBC010846
:1000C0003B5702083757020881B40108515702080C
:1000D0003F5702089DBC01084357020831BD010883
:1000E00069BD0108DDE00108DDE00108F1CD00088F
:1000F000DDE00108BB150208DDE00108DDE00108D4
:10010000DDE00108DDE00108DDE00108DDE00108D7
:10011000DDE00108DDE00108DDE00108DDE00108C7
:10012000DDE00108DDE00108DDE00108DDE00108B7
:10013000DDE00108DDE00108DDE00108DDE00108A7
:10014000DDE00108DDE00108DDE00108DDE0010897
:10015000DDE00108DDE00108A97802080D9701083B
:10016000DDE00108DDE00108D5560208DB56020893
:10018000194A5AB3194BDB6913F0040F29D110B483
:100190000AE003EA00048C4210D0013AB2B1134BDA
:1001A000DB6913F0040F14D110F0010FF1D1104CE2
:1001B0001C40002CEDD06FF001000CE00C4A1A40FE
:1001C0000AB9002007E06FF0010004E06FF00200C0
:1001D00001E04FF0FF305DF8044B70476FF0020014
:1001E00070474FF0FF307047809698000000035032
:1001F000020001000D4BDB6913F4803F12D170B592
:100200000A4B03F580560124F46003F500552C6475
:100210004FF480721A6100212046FFF7B1FF346469
:10022000EC6070BD6FF00100704700BF000003502C
:1002300010B5124B4FF480329A6603F51C33DC691B
:10024000144041F67132DA6303F580520121D16026
:10025000586102221A6100212120FFF791FF40B16D
:10026000074B0122DA601CB1A3F500530022DA63C8
:1002700010BD00212120FFF783FFF1E7009000501F
:100280000020035038B51A4B5861DB6913F0040F96
:100290002AD10C4654F8041B154B9961151F06E032
:1002A000214651F8042B124B9A61043D0C465DB176
:1002B00008210846FFF764FF03460028F0D00C4AE7
:1002C00004211161184638BD094B04221A6100212E
:1002D0002120FFF755FF03460028F3D100212120FC
:1002E000FFF74EFF0346EDE74FF0FF33EAE700BFAD
:1002F000000003502DE9F0410F46164605461A4B03
:100300004FF480329A6603F51C33DA6902F48038C0
:1003100041F67132DA6303F580530122DA6000237B
:1003200002E025442744361B8EB105F5005424F421
:10033000FF5424F01F04641BB44228BF34462246F5
:1003400039462846FFF79EFF03460028E9D0074AB2
:100350000121D160B8F1000F03D0A2F500520021B5
:10036000D1631846BDE8F081009000500020035092
:10037000000000000000000000000000000000007D
:10038000013800D0FCE770472DE9F04F2DED028BCE
:1003900093B082460C4693461D4657EC106B8DED8C
:1003A000080B32463B46304639461CF0B1F900286E
:1003B00000F009814FF0FF32B14B304639461CF056
:1003C000CFF9002840F0FF804FF0FF326FF4801328
:1003D000304639461CF0A6F9002840F0F48000228F
:1003E0000023DDE90867304639461CF09BF90028F8
:1003F00040F0FC809DED087B8DED067B209B13F487
:100400008063119301D106231E93DDE906010246A4
:10041000C1F30A50C1F31303904643F07F5949F4E6
:100420004019A0F2FF301BF0A1FE83A3D3E9002303
:100430001BF006FF82A3D3E900231BF04BFD064609
:100440000F4600228F4B404649461BF041FD7EA3DC
:10045000D3E900231BF0F4FE02460B463046394632
:100460001BF038FD1CF086F906461BF07FFE804627
:10047000894677A3D3E900231BF0E2FE0022824BDA
:100480001BF028FD1CF076F9074673A3D3E900237F
:10049000404649461BF0D4FE8046894638461BF04C
:1004A00065FE6FA3D3E900231BF0CAFE02460B468C
:1004B000404649461BF00CFD8046894602460B46E5
:1004C0001BF0BEFECDE90C0107F2FF370021002230
:1004D000CDE90A123B050B9300230A9342464B4693
:1004E000404649461BF0F6FCCDE90E0142464B461C
:1004F00000204FF080411BF0EBFC80468946002233
:10050000624BDDE90C011BF0C5FF0022604B1BF0C4
:10051000E1FC02460B46DDE90C011BF0BBFF0022AB
:100520005C4B1BF0D7FC02460B46DDE90C011BF0CF
:10053000B1FF02460B46404649461BF0CBFC024643
:100540000B46DDE90E011BF0A5FF0022524B1BF00C
:10055000C1FCDDE90A231BF073FE8046894649ECA5
:10056000188BDDE906231CF0FBF840B1013E0022A8
:10057000474B404649461BF08DFF41EC180B06F1F6
:100580006303C62B3BD80427209B13F4006F40D095
:1005900035A3D3E90023DDE90689404649461CF02E
:1005A000D5F800283BD032A3D3E900234046494682
:1005B0001CF0B8F8002832D01E9BB34221DD9E1BF0
:1005C000731E1E931FE0209B02931F9B01931E9B93
:1005D00000939DED080B2B465A462146504600F0ED
:1005E000CBF813B0BDEC028BBDE8F08F9FED227B02
:1005F0008DED067B069607F100430793FEE605277F
:10060000C2E700231E93209B43F4806320930027BE
:100610003E461F9B9F4241D2A3EB070840E01E9B32
:10062000002BF6D0119B002BF3D01E9B013B1E9399
:10063000EFE700BFAFF30080FB799F501344D33F37
:10064000B3C8608B288AC63F61436F63A787D23FD8
:1006500071A379094F930A401655B5BBB16B02409F
:10066000EF39FAFE422EE63F2D431CEBE2361A3FED
:100670000000000080842E41000000000000000007
:10068000FFFFEF7F0000F83F0000E03F00002C403C
:1006900000002440000018400000F03F4FF0000828
:1006A000209B13F0020902D00FB14FF000083EB1B9
:1006B00053EC182BDDE906011BF0ECFECDE9060139
:1006C00000220023DDE908011CF02CF800283BD1B2
:1006D000209B23F400630293CDF804801E9B0093BB
:1006E0009DED060B2B465A462146504600F044F835
:1006F000002F3FF476AF209B13F0200F2CD04FF04B
:10070000450C00F101082B46024621466046D047C1
:1007100086EAE672A2EBE67205230593013F049791
:10072000002303930A230293F30F019300922B46B5
:1007300042462146504623F0F4FBB9F1000F3FF446
:1007400050AF02461F9F10E0DDE90601024601F1AD
:100750000043CDE90623BBE74FF0650CD1E7561CFB
:100760002B4621462020D0473246A2EB0B03BB424A
:10077000F5D3104635E700BF2DE9F04F2DED028B84
:1007800093B00590089192469B4659EC108B1E9DA4
:1007900042464B46404649461BF0BAFF002840D02F
:1007A0004FF0FF326FF48013404649461BF0BAFF0A
:1007B000002845D14FF0FF32B14B404649461BF06F
:1007C000CFFF00284BD1AAA3D3E9002340464946D6
:1007D0001BF0C6FF00285AD1A7A3D3E90023404647
:1007E00049461BF09FFF002851D1002200234046BC
:1007F00049461BF097FF002857D100230993209BFF
:1008000013F4806F5CD000241F2C5BD8092D59D9BC
:1008100004F148036B44302203F8202C013D0134DD
:10082000F2E7209B03931F9B029303230193954BB5
:1008300000935B4652460899059823F098FA10E118
:10084000209B03931F9B0293042301938E4B0093E1
:100850005B4652460899059823F089FA01E1209BEE
:1008600013F004030FD0894A7BB10423209903912C
:100870001F990291019300925B4652460899059890
:1008800023F075FAEDE0824AEEE70323EEE7209BC2
:1008900002931F9B0193009549EC108B5B465246D7
:1008A00008990598FFF770FDDBE042464B460020B3
:1008B00000211BF00DFB80468946012309939EE72A
:1008C0000625A0E7404649461BF054FF06461BF0AC
:1008D0004DFC02460B46404649461BF0F9FA6D4B6B
:1008E00003EBC50393ED008B53EC182B1BF0A8FC16
:1008F00002460B46CDE906231BF064FF07461BF0BA
:1009000025FC02460B46DDE906011BF0E1FA024632
:100910000B46CDE9062300225F4B1BF021FF50B3AD
:10092000013738461BF012FC02460B4651EC180BFF
:100930001BF002FF08B10136002755BB30461BF003
:1009400015FC02460B46404649461BF0C1FA80465C
:1009500089460022504B1BF0E5FE38B100224E4B79
:10096000404649461BF0FCFE002842D016F0010F1D
:100970003FD001363DE00022474BDDE906011BF088
:10098000D1FE0028D9D117B117F0010FD5D001370A
:10099000D3E71F2C17D8013D404BA3FB0723DB08EF
:1009A000194603EB8303A7EB4303621C303304F1C6
:1009B00048000DEB000404F8203C092F02D90F4633
:1009C0001446E6E714461F2C0AD86B1E45B104F105
:1009D00048026A44302102F8201C1D460134F2E727
:1009E0001F2C06D804F148036B442E2203F8202C58
:1009F00001341F2C17D82A4A82FB0632F317C3EBA7
:100A0000A2031A4603EB8303A6EB4303611C3033B6
:100A100004F148000DEB000404F8203C16460AB12E
:100A20000C46E6E70C46209B03F00303012B39D06C
:100A30001F2C09D8099B002B51D004F148036B44AB
:100A40002D2203F8202C0134209B03931F9B02933B
:100A500001940AAB00935B4652460899059823F02F
:100A600086F913B0BDEC028BBDE8F08FAFF30080C8
:100A70000000000065CDCD410000000065CDCDC176
:100A8000FFFFEF7F40950208449502083495020865
:100A90003C950208509502080000E03FCDCCCCCC3C
:100AA000676666661F9BB3B1099B1BB9209B13F059
:100AB0000C0F12D01F9B013B1F93194606E004F157
:100AC00048036B44302203F8202C01348C42AFD20F
:100AD0001F2CF4D9ACE71F99F8E71F99F6E7209B84
:100AE00013F0040F07D004F148036B442B2203F8E2
:100AF000202C0134A8E7209B13F0080FA4D004F1A8
:100B000048036B44202203F8202C01349CE700BFEB
:100B100038B50D46044626F0FBFB064A13889BB207
:100B20002DB123431380BDE8384026F0ECBB23EA07
:100B30000403F7E7644B00200022034B01214FF42C
:100B400080709A70E4E700BF644B00207FB54E6868
:100B500002A9044624F07FF89DF808300C2B19D127
:100B6000134BB3F90050134B9E4218D808F00AF803
:100B700003460068694600909B882046ADF8043023
:100B800024F056F870B140F25F620B490B480EF04A
:100B90009FF8FEE7204613F09DFE0546E3E71FF0B1
:100BA00078FCE5E72946204624F028F804B070BD1B
:100BB0003A510020FFC99A3BF9970208C4950208F0
:100BC000002330B5134C85B0CDE90133039323786E
:100BD0008DF8043026F09CFBA288E38805469A42F3
:100BE0000DD0E188A06801AAA18023F0BDFE58B114
:100BF00040F2DA62084909480EF06AF8FEE7A06898
:100C000023F08BFE0128ECD0284626F07CFB05B0B3
:100C100030BD00BF60550020F9970208C495020856
:100C200038B50F4C656835B940F2C7720D490E48AA
:100C30000EF04EF8FEE723F049FA284410F098FF32
:100C400000F00700032809D164680921204623F039
:100C500059FB205C031F5842584138BD0020FCE777
:100C6000644B0020F9970208C495020808B5114B9F
:100C70009A78042A06D040F28E520F490F480EF09F
:100C800027F8FEE71B881B0706D440F28F520A495B
:100C90000A480EF01DF8FEE700210820FFF738FF94
:100CA0000222074B98681A7313F0CEFBBDE8084088
:100CB00021F014BE644B0020F9970208C495020885
:100CC0006055002010B5084CA06813F0BDFBA0686B
:100CD00023F023FE012806D00122A0681146BDE8BA
:100CE000104023F01CBE10BD6055002038B5194DD2
:100CF000AB7833B140F22B72174918480DF0E8FF7A
:100D0000FEE726F005FB2988044611F0060109D00C
:100D100001214FF48070FFF7FBFE2046BDE838400C
:100D200026F0F1BA4FF48070FFF7F2FE12F0DEFC0D
:100D3000012805D010F0FD0F05D1FFF741FFECE7CA
:100D4000FFF7C0FFE9E740F24172034903480DF0A5
:100D5000BFFFFEE7644B0020F9970208C495020824
:100D600070B50446064D95F90860FFF7BFFF12F015
:100D7000BBFB314620466A68BDE8704012F0ECB912
:100D8000644B002008B50A4B1B88DB0606D440F2F2
:100D9000A752084908480DF09BFFFEE700211020EC
:100DA000FFF7B6FE12F01EFDBDE8084021F096BD2B
:100DB000644B0020F9970208C49502080D4B10B54A
:100DC0001B8804469B0713D500210220FFF7A0FED5
:100DD000094B5A7BFF2A06D040F2E54207490848F2
:100DE0000DF076FFFEE75C73BDE8104021F076BDA4
:100DF00010BD00BF644B002060550020F997020829
:100E0000C49502087047704707B5ADF80610014653
:100E100030B94FF4B572104910480DF059FFFEE794
:100E2000BDF8063033B940F26B120B490B480DF098
:100E30004FFFFEE70A4B0DF10602986823F0C2FF50
:100E400030B140F26D12044904480DF041FFFEE755
:100E500003B05DF804FB00BFF9970208C4950208CF
:100E60006055002010B50E4CA37833B14FF4EA72F0
:100E70000C490D480DF02CFFFEE7606019B1A17B15
:100E8000003918BF01212020FFF742FE074B084818
:100E90009B7B23760223A370BDE8104010F034BD85
:100EA000644B0020F9970208C495020860550020A1
:100EB000804B002008B50CF039FA80F00100C0B278
:100EC00008BD0A4B9A780AB1062A0CD11B8803F494
:100ED0008B7343B9064B5A7BFF2A04D1187BFF382A
:100EE00018BF012070470120704700BF644B0020ED
:100EF0006055002008B50CF009FA0028FBD108BDA8
:100F00000C4B42889A8142789A730278DA7382880D
:100F10001A82C2885A82C2685A61017A064A91735B
:100F2000028A998C914204D001214FF400709A8476
:100F3000EEE57047644B002060550020094B9A890C
:100F400042809A7B4270DA7B02701A8A82805A8AC7
:100F5000C2805A699B8CC260034A0382927B0272F0
:100F6000704700BF644B0020605500204B1E012BD2
:100F700070B50C4606D940F2B7221A491A480DF04E
:100F8000A7FEFEE7194D0A460146A86823F044FF74
:100F900030B140F2B922134913480DF099FEFEE733
:100FA000AE6810F025FC22460146304623F02EFFA5
:100FB00030B140F2BD220B490B480DF089FEFEE72F
:100FC000AD6810F021FC22460146284623F02AFF96
:100FD00030B140F2C122034903480DF079FEFEE72B
:100FE00070BD00BFF9970208C49502086055002043
:100FF000054BDB7B1B0913F00E0003D0052B8CBFC8
:1010000000200120704700BF60550020044BDB7BAF
:101010001B0913F00E0F0CBF01200020704700BF0A
:10102000605500202DE9F04F15469A0580461F4671
:101030008FB003D501218020FFF76AFDEB014FF04F
:10104000000955D5984C23889E0751D5974E737B40
:10105000FF2B06D040F2AF42954996480DF038FE7E
:10106000FEE7636833B94FF49662914991480DF0F9
:101070002FFEFEE749460220FFF74AFDA37886F8D7
:101080000D90042B03D101210820FFF741FD00231F
:10109000B06808A98DF82C3023F0DFFD30B140F2A4
:1010A000BA42834983480DF013FEFEE7FFF7A0FF25
:1010B000B0B923F00BF88146606823F012F808A954
:1010C0008144B068ADF8249023F0CAFD30B140F2FD
:1010D000C242774977480DF0FBFDFEE7089BA3620B
:1010E000A378032B02D1B06813F0AEF921F0F6FB20
:1010F000B80702D50120FFF761FE15F0A84F02D016
:101100000220FFF75BFEA90220D50021402003AC9E
:10111000FFF7FEFC2146404623F09CFEB0B99DF847
:10112000143008AA022B22D18DF82830BDF80C30DB
:10113000ADF82030104612F0E1F938B1404623F006
:1011400087FE18B901214020FFF7E2FC2A0753D59A
:10115000564E0321B06803AA23F036FE814688B9B3
:1011600040F2FE42524953480DF0B2FDFEE7032B18
:1011700005BF8DF82830D4E900018DF82800C2E9B8
:101180000001D7E79DF80C30B068072B40F01F81B5
:10119000494608AA23F01AFE30B140F201524449F0
:1011A00044480DF095FDFEE7FFF722FFBDF80E2045
:1011B000A0B9FFF72BFF78B1043292B2B06808A94A
:1011C000ADF8242023F004FE40B140F21252384919
:1011D00038480DF07DFDFEE70232EEE7BDF80E0067
:1011E0000121073080B225F0BFFF8246002842D19E
:1011F00001210C2013F0BCF8A90705D52A4B1B8848
:101200001A0701D5FFF732FDAB010BD500210420F1
:10121000FFF77EFC244B9B78012B03D1234B98686E
:1012200013F012F915F0284F03D000210420FFF726
:101230006FFC7E060CD51C4C23881D0701D5FFF7DB
:1012400015FD2388580703D500210420FFF760FC13
:10125000F90540F1D88003A9404608AA23F05BFBBA
:101260000146002800F0BA8040F2D25210491148DD
:101270000DF02EFDFEE74FF0000B25F0F9FECDF846
:1012800000B00246BDF80E3004464946B06823F06F
:10129000A3FDBDF80E3083420ED040F22252044925
:1012A00004480DF015FDFEE7644B0020605500205A
:1012B000F9970208C495020822F008FF204410F0B4
:1012C00057FC00F007000228DFF8589124D199F864
:1012D0000230042B90D122F0F9FE504B204482784A
:1012E0001B789A4288D159460820FFF711FC22F05A
:1012F000EDFE204410F03CFC9DF82E30C0F30010B1
:10130000307389F80830FFF78BFC00287FF474AF46
:10131000B06813F099F86FE722F0D8FE204410F07F
:1013200027FC83064AD522F0D1FE204410F020FC91
:1013300000F0070003280BD10921204622F0E2FF2C
:1013400014F800B0ABF1040CDCF1000B4BEB0C0B10
:1013500001210420FFF7DCFBB06823F050FDC9F841
:101360002C00BBF1000F30D0B9F8003058062CD556
:1013700000214020FFF7CCFB0126BDF80E309DF880
:101380002E200120E254BDF80E309DF82F2023447A
:101390009A71BDF80E10089A0131214410F0F6FB45
:1013A000BDF80E3050461C44667125F035FF1C4BCD
:1013B000187810F0AFFB21F091FA1DE799F8023090
:1013C000012B02D1B06813F03FF80026D5E723F0D7
:1013D000DFFC4946B06823F0FDFC0DE79DF80C30BA
:1013E00003F0BF02032A01D0022B0FD10D4C23883A
:1013F0005A0702D50420FFF78BFB23889B0702D5F1
:101400000120FFF7DBFC0FB0BDE8F08F4FF4BF62A7
:10141000054906480DF05CFCFEE700BFD14B0020FB
:10142000F44A0020644B0020F9970208C495020892
:1014300008B50246FFF7DCFD30B1072A06D80020C8
:10144000034B83F8302008BD7020FCE70220FAE748
:10145000644B002008B50246FFF7CAFD28B1002002
:10146000034B93F83030137008BD7020FCE700BFC9
:10147000644B002008B5074B01460022986823F012
:10148000CBFC30B140F2EB22034904480DF020FCC4
:10149000FEE708BD60550020F9970208C4950208D0
:1014A00008B5074B01460022986823F0AFFC30B125
:1014B00040F2F122034904480DF00AFCFEE708BDA2
:1014C00060550020F9970208C495020808B5074B3B
:1014D0000146986823F0ACFC30B140F2F722044991
:1014E00004480DF0F5FBFEE708BD00BF6055002085
:1014F000F9970208C495020808B5074B9B7833B1E9
:1015000040F20132054906480DF0E2FBFEE7BDE876
:101510000840FFF7EBBB00BF644B0020F9970208BF
:10152000C495020808B5054B0146986823F066FB90
:10153000002814BF8B20002008BD00BF605500208C
:10154000014B986813F0C6B960550020014BD8884C
:10155000704700BF605500207FB50123ADF80E3005
:101560004FF6FE7309480093806800230DF10E02C8
:1015700004A923F0D0FA212800D020B9BDF810002A
:1015800007B05DF804FB4FF6FF70F9E760550020E7
:1015900008B5044B0146986823F071FAB0FA80F060
:1015A000400908BD6055002038B50B4D0446AB78A6
:1015B000012B0DD8FFF7ECFF60B1084BDC80AB7856
:1015C0001BB9FFF793FB002038BDFFF7F9FAFAE7E4
:1015D0003E20F9E78A20F7E7644B002060550020A1
:1015E000024B9B780BB9FFF781BB7047644B00201F
:1015F000014BD873704700BF644B002008B5064B01
:101600004FF0FF31986823F0B3F90028B8BF0330DA
:1016100040F3870008BD00BF6055002008B5044BAB
:10162000986823F028FA034BB3FBF0F080B208BDB2
:101630006055002040420F0030B58DB02C2204468A
:10164000002101A824F011F901234FF002328DF896
:1016500008306423CDE9032306930B238DF82C3047
:10166000214B9B8CADF80A30FFF7C2FCA8B140F2C9
:10167000F23307934FF47A7305930CB9FFF722FB0B
:101680001A4D01A9A86813F0F9F9C0B140F2AC6293
:10169000174918480DF01CFBFEE7FFF7BFFF0C23AE
:1016A0004343902B0793A3F10A02D8BF91230592DD
:1016B000D8BF0793059B8B2BDFD88C23DCE7FFF784
:1016C000A5FC60B10122A868114623F0BFFB30B130
:1016D00040F2AF62064907480DF0FAFAFEE70CB98E
:1016E000FFF704FB0DB030BD644B002060550020B7
:1016F000F9970208C4950208F8B525F009FE554C83
:1017000006462388D90503D5A37843BBFFF7EEFA35
:10171000514D6B7BFF2B13D06B7B03F0FF0723BB7B
:10172000FF236B73A378032B0AD100233046A370E9
:1017300025F0E9FD3846FFF713FB25F0E9FD0646E5
:10174000A378042B08D12B7BFF2B05D02B7B022BFE
:1017500014D1424810F0D8F8FF232B7327E0002162
:101760004FF48070FFF7D4F9D2E76B7B012B4FF079
:10177000FF0314BF89278D276B73D6E72B7B13B12B
:101780002B7B012B1ED1FFF74BFA0022FF212B7B75
:101790000746DBB222772973002847D0012B0AD1F4
:1017A00064212E48A37010F0BAF8FFF709FA30460A
:1017B00025F0A9FD06E03046A27025F0A4FD3120F9
:1017C000FFF7CEFA23881A0608D500218020FFF7FC
:1017D0009FF9A86823F07DFA11F0E5FF23889B05A7
:1017E00007D54FF400700021FFF792F90020FFF7B2
:1017F00023FF0BF08BFD608620B325F039FC01211F
:101800000546002012F0B4FDA678012E14D1002662
:101810002677A670FFF76AFA284611F0BFFBA37877
:1018200066867BB9BDE8F84011F05EBEA070304618
:1018300025F069FD3846C3E72EB1284611F0AEFB0E
:1018400000236386F8BDFFF751FA284611F0A6FB86
:101850006686F7E7644B002060550020804B00202F
:101860008B4BF0B51B888B4C8B4D63848B4B85B0B9
:101870001B68E3628A4B1B8823848A4B1B68A36224
:101880002B88DB0700F1FC8001210846FFF740F9B7
:101890000523854A04F1100104F10800AB7012F031
:1018A00095FD28B1F522814981480DF011FAFEE736
:1018B000A3682BB9F7227D497D480DF009FAFEE7B0
:1018C0007C4823F070F870A3D3E90023CDE900230E
:1018D0004FF0FF324FF0FF33A06823F013F94FF4BD
:1018E0008811A06813F06EF8014630B140F20F1273
:1018F0006E496F480DF0ECF9FEE76F4B1B78012B3A
:101900000ED16E4AA06812F02FFEA06813F0E4F822
:10191000E0B140F21B12654965480DF0D9F9FEE7C8
:10192000674E316831B94FF48F72604960480DF0ED
:10193000CFF9FEE7614AA06812F016FE33689B6893
:1019400023B1DB6913B15B7803B1E373FFF704FEE6
:101950000146E080A06812F083FF064630B140F2F5
:101960002D12524952480DF0B3F9FEE7554B0120B4
:101970001B78C3EB431203EB8203DB00AB84FFF75E
:101980005BFEA7680FF040FF32460146384623F061
:1019900049FA064630B140F23312444944480DF04A
:1019A00097F9FEE740F203530427AB81464BAF7330
:1019B0001B78EB73FFF732FE00EB80039B002B825A
:1019C000FFF72CFEC00068823946A0686E6123F0E4
:1019D00041F830B14FF4A172344935480DF078F92F
:1019E000FEE73A46A06803A923F0C7F8042806D00A
:1019F0004FF4A3722D492E480DF06AF9FEE703A9B2
:101A0000012010F0D1F80BF007FA08224FF0FF3157
:101A1000A06823F088F830B140F24F1223492448DF
:101A20000DF056F9FEE713F0D7F930B140F2551238
:101A30001E491F480DF04CF9FEE7FFF7D9FA68B1CF
:101A40001EF029FD0146A06823F0F2F830B140F203
:101A50005912164916480DF03BF9FEE7A468FFF746
:101A60007BFD1A4B014603F10C02204622F07EFF5B
:101A700030B14FF4B0720D490D480DF029F9FEE771
:101A800005B0F0BDAFF300800A0020FF4203000064
:101A9000F09A020860550020644B0020F49A020876
:101AA000F29A0208F89A0208390B0008F99702081E
:101AB000C4950208690345ECB54B00204D0B0008A6
:101AC0008454002005570020045700202498020861
:101AD00008B5044B986822F0D0FF034BB3FBF0F03D
:101AE00080B208BD6055002040420F002DE9F04350
:101AF0008C4D87B02B889B0706D440F24C728A49E4
:101B00008A480DF0E5F8FEE7AB78033B012B06D9D8
:101B100040F24E72844985480DF0DAF8FEE76A68B3
:101B200032B940F25172804980480DF0D1F8FEE799
:101B30007F4E2C88F77B14F0200418BF4FF47A7482
:101B40004FEA1718FFF754FA00287DD0B8F1020FBA
:101B50000AD0A8F10303022B74D940F265727249CE
:101B600072480DF0B5F8FEE7032795F8303008EB22
:101B7000C80898446F4B104603EB4803B3F81C8029
:101B800022F0AFFA4FF4FA534343B3FBF8F3782251
:101B90007733B3FBF2F31F44C7EB0717AB78FF00B3
:101BA000BFB204F5347417FA84F4042BA4B203D141
:101BB00007F6E8072744BCB2D5F8048022F086FA7D
:101BC0000746686822F08DFA074422F0A5FABFB2F2
:101BD0003F1A22F07BFA40440FF0CAFF7378C0F33B
:101BE00040198DF80C30544BBFB2CDE904340024B9
:101BF00022F09EFA009402463B464146B06823F02C
:101C0000C9F8287EB278737812FB00F29342C4BF01
:101C10009B1ADCB22B88F18813F0200FB068B180DA
:101C20008DF80C4003AB76D000934A46434B22F02C
:101C300092FE002873D040F224723B493B480DF0DD
:101C400047F8FEE7062790E7FFF7E0F9002846D0BF
:101C5000384B07F00F0708EBC801394403EB410389
:101C60001046B3F81C9022F03CFAB8F1000F2CD0CB
:101C7000B8F1010F2CD14FF00408400080B2F319E5
:101C800093F834304BB14FF4FA52023303444344D7
:101C90009BB25343B3FBF9F39CB2AB78042B8BD1CB
:101CA000FFF7BCFC374497F834308146053398443D
:101CB000FFF70EFF0C2308FB00F003FB09F909EB0B
:101CC000C009A1441FFA89F476E74FF00208D6E76D
:101CD00040F28672144915480CF0FAFFFEE7FFF750
:101CE000F7FE0746686822F0FCF909307843AB78C4
:101CF00004EBC000042B84B27FF45EAFFFF78EFCD0
:101D00000746FFF7E5FE602358430C2303FB07005B
:101D1000204484B250E74A4622F01BFE89E707B010
:101D2000BDE8F083644B0020F9970208C4950208CF
:101D3000605500202498020820A10700704B002065
:101D4000F8B5494C258815F0020506D040F2751209
:101D5000464947480CF0BCFFFEE7257725F0D8FA46
:101D6000238806465A070CD5424B986823F047F85B
:101D7000E36AC01AA38C984203D929460420FEF7CF
:101D8000C7FE304625F0BFFAA778022F37D125F0DD
:101D9000BFFA2388064613F0040507D036480FF033
:101DA000B3FD3046BDE8F84025F0ADBA25F0ABFAFA
:101DB000606811F0D3FB20B1A570BDE8F840FEF7D4
:101DC000CFBF25F0A5FA6668054622F07FF93044BA
:101DD0000FF0CEFE10F0200F0CBF032304230121CF
:101DE0003846A370FEF794FEFFF780FE284625F0E4
:101DF0008AFA01210846BDE8F84012F0B9BA042F6A
:101E000027D11C4B1B7BFF2B2DD1237EF3B125F05B
:101E10007FFA238805465B0704D517480FF074FD49
:101E20002846BFE725F06FFA237E013B237625F095
:101E30006FFA044601210220FEF76AFEFFF756FE04
:101E4000204625F060FA01210820D4E74020A37045
:101E5000B3E7012F07D10023A370064B986812F057
:101E6000F3FA3120A9E7F8BD644B0020F997020886
:101E7000C495020860550020804B002038B5012130
:101E800004461020FEF744FE064B9D68FFF7C6FB94
:101E9000012200FB04F1044B284622F045FD0020FE
:101EA00038BD00BF60550020850D000808B50A4BFD
:101EB0001B88DB0606D44FF46172084908480CF011
:101EC00007FFFEE710200021FEF722FE054B986871
:101ED000BDE8084022F036BD644B0020F9970208A7
:101EE000C49502086055002038B50E4D688E30B993
:101EF00040F291320C490D480CF0EAFEFEE725F065
:101F0000B7F80446688E25F0D1F8811F21440120DE
:101F10000FF04AFE064B0446986822F070FF001B43
:101F200038BD00BF644B0020F9970208C495020831
:101F30006055002010B5084C636833B94FF46872DF
:101F4000064907480CF0C4FEFEE7064B986822F0ED
:101F500056FFA36AC01A10BD644B0020F99702080F
:101F6000C49502086055002038B50A4D688E30B916
:101F700040F2AA32084909480CF0AAFEFEE725F013
:101F800077F80446688E25F091F8044414F8020CA2
:101F900038BD00BF644B0020F9970208C4950208C1
:101FA00038B50A4D688E30B940F2B932084909484F
:101FB0000CF08EFEFEE725F05BF80446688E25F0F7
:101FC00075F8044414F9070C38BD00BF644B0020B9
:101FD000F9970208C495020838B50A4D688E30B9E1
:101FE0004FF47272084909480CF072FEFEE725F0C2
:101FF0003FF80446688E25F059F8044414F9010CA2
:1020000038BD00BF644B0020F9970208C495020850
:10201000024B1888C0F3C010704700BF644B00200B
:1020200030B585B005466C460D4B0FCB84E80F00EC
:102030000DB12B6800930B4B21460022986812F0DB
:102040005FFC044630B140F2E632074907480CF025
:102050003FFEFEE7FEF7B4FD204605B030BD00BFF1
:10206000AC98020860550020F9970208C495020850
:1020700030B5154D87B004460DF10701A86822F070
:1020800043FD30B140F2F732104911480CF020FE08
:10209000FEE79DF80720531EDBB2FD2B0FD90294FB
:1020A000FF2A00D10394A86802A922F015FE40B1CE
:1020B00040F20442054906480CF00AFEFEE7012AF8
:1020C000EFE707B030BD00BF60550020F997020868
:1020D000C495020808B5064B986822F00CFE30B192
:1020E0004FF48262034904480CF0F2FDFEE708BD9C
:1020F00060550020F9970208C49502080122024B9E
:102100001146986822F00BBC605500207047F8B566
:10211000064604200D4621F0BBFF030622D5124FD0
:10212000BC78FCB926B1012E17D002242046F8BD98
:1021300001262846FFF72CFA0028F6D00B4800238A
:1021400032462946806822F008FC40B14FF48A628A
:10215000074908480CF0BCFDFEE72646E9E70623E0
:10216000BB70E3E77024E1E7644B0020605500207A
:10217000F9970208C4950208042010B521F088FFE1
:10218000030611D5094CA378062B0DD1084B98688E
:1021900022F0E5FB30B140F26A42064906480CF0F5
:1021A00097FDFEE7A07010BD7020FCE7644B002097
:1021B00060550020F9970208C49502081FB504462F
:1021C00001A812F065FB9DF80D3053B14CB1064BE0
:1021D0002078617818700020A27859709A7004B045
:1021E00010BD0220FBE700BF605500201FB504466C
:1021F00001A812F04DFB9DF80D3053B14CB10020F9
:10220000054B1A7822705A789B786270A37004B0DC
:1022100010BD0220FBE700BF60550020FFF7CEBFD6
:10222000FFF7E4BF0348044B834202D0034B03B1E2
:10223000184770471C5700201C5700200000000062
:10224000064B0749C91A891048BF0131491003D00C
:10225000044B0BB101481847704700BF1C570020C2
:102260001C5700200000000010B5064C237843B92D
:10227000FFF7D8FF044B13B10448AFF300800123EC
:10228000237010BDF45100200000000098D4020813
:1022900008B5054B1BB105490548AFF30080BDE803
:1022A0000840FFF7CDBF00BF00000000A0220020C3
:1022B00098D40208A3F5803A704700BF174B002B53
:1022C00008BF134B9D46FFF7F5FF00218B460F46D5
:1022D0001348144A121A23F0C8FA0E4B002B00D0F0
:1022E00098470D4B002B00D0984700200021040098
:1022F0000D000D48002802D00C48AFF300801AF002
:10230000A9FF2000290001F0D7FA1AF029FC00BF2C
:102310000000080000000000000000000020002075
:10232000002000206052002000000000000000009B
:1023300000B583B0074B0122DA60064B5B6913F0EE
:10234000400FFAD1034968461DF009FF009803B019
:102350005DF804FB0040005910B582B004461BF044
:1023600066FB08B902B010BD00230093ADF804303D
:10237000074B1B88ADF80230ADF8044040F2FF1364
:10238000ADF800306946042020F03BFBEAE700BFCF
:102390003051002008B513460A460146044800683B
:1023A00003F0E2FD00B908BD02480CF091FCFAE729
:1023B00018550020287A02080A2800D9704730B53D
:1023C00083B004460D466B4601AA014610480068DA
:1023D00003F030FD08B9019B23B10E480CF078FCE6
:1023E00003B030BD009B2A4621460948006803F02F
:1023F00061FC40B9214608480CF06AFC29460748B0
:102400000CF066FCECE7214605480CF061FCE7E7C0
:1024100018550020307A0208547A0208707A0208AF
:10242000787A02080A2800D9704710B50446014698
:10243000064B186803F066FE20B9214604480CF0EC
:1024400047FC10BD03480CF043FCFAE71855002088
:102450009C7A0208B87A020838B51B4C63780222CD
:1024600062F383036370DBB26FF300036370DBB26C
:1024700062F387136370DBB2012565F305136370A4
:10248000A3786FF30713A370DBB265F38303A37024
:10249000DBB243F00303A370E0700C4B4FF4FA720D
:1024A0001A80002128461BF05DFC2A4600212846A0
:1024B00001F0C2FB20681BF0E5FA41F28831044BC1
:1024C00018680FF02CFA38BDBC22002032510020D1
:1024D0004423002008B5294B1B78012B29D0022B5F
:1024E00039D003B108BD264B1B78264A1278B3EBCE
:1024F000420F05DA244A127C02F01802102A0DD18C
:102500001F4B00221A70204B197CC1F340111F4849
:102510001BF024FC1E4824F061FAE3E70133184A5B
:102520001370194B197CC1F3401118481BF006FCBD
:10253000D8E7134B1B78134A1278B3EB420F03DA38
:1025400001330F4A1370CDE70D4B00221A7010486B
:1025500024F044FAC6E70A4B1B780A4A1278B3EB18
:10256000420F03DA0133064A1370BBE7044B002223
:102570001A70074824F032FAB4E700BFF551002082
:10258000F7510020F651002010230020C48C0208CF
:10259000C0220020037823BB70470133022B22DCCA
:1025A00003EB4302104911F82220002AF5D100B5AF
:1025B0000A4603EB430102EB810C4FF0000E8CF84E
:1025C00001E04FF0010C02F821C002EB8103016829
:1025D0004268C3F80210C3F8062002895A815DF8E8
:1025E00004FB0023DAE77047E022002000B583B047
:1025F0008C461146074B1870074B83F800C0012327
:10260000019300230093054A054825F0C9F803B05B
:102610005DF804FBF5510020F6510020D524000898
:10262000C022002010B50024094B1C80094B197CE6
:10263000C1F3401108481BF091FB1BF060FA2146E2
:1026400001201BF09DFB054B1B681C7010BD00BFDB
:102650003251002010230020C48C020844230020A3
:1026600008B5002105481BF066FA1BF0D7F9044BAA
:102670001880044B1B6800221A7008BD0423002038
:10268000B82200204023002008B501280FD00228DE
:1026900019D000B108BD124B197CC1F3401111488B
:1026A0001BF05CFB002101201BF06AFBF2E70C4BE6
:1026B000197CC1F340110B481BF050FB0021012095
:1026C0001BF06AFBE6E7064B197CC1F34011054895
:1026D0001BF044FB002101201BF05EFBDAE700BF8A
:1026E00010230020C48C020870B5754B1A78292A73
:1026F00074D02B2A2FD0282A04D0724B1B680022BA
:102700001A7070BD1C469A725B78A27843EA022365
:10271000E27843EA0243227943EA0263214641F820
:10272000143F04220520FFF735FE237C012666F3C3
:10273000C403254605F8103F3046FFF7A5FF324693
:1027400029460020FFF726FE0023E3725E4B18683F
:102750000FF0DAF8D1E75A498B78C87843EA0023BA
:10276000087943EA0043487943EA0063496999429A
:10277000C3D1534B9A725A785A77012A1AD0002A39
:10278000BBD14F4C207CC0F3C100FFF77DFF4F4B06
:102790001B6800201870C8220221FFF727FF0122C2
:1027A00004F11D010A20FFF7F5FD474B18680FF0F3
:1027B000ABF8A2E71C46D87BFFF74EFEC8220121EA
:1027C0000020FFF713FF012204F11D010A20FFF78B
:1027D000E1FD3D4B18680FF097F88EE7384B9A7281
:1027E0005A7B022161F383025A73D2B26FF3000263
:1027F0005A73D2B261F387125A73D2B2012161F3D4
:1028000005125A739A7B6FF307129A73D2B261F36F
:1028100083029A73D2B242F003029A735878D87343
:1028200099781A7C61F3C4021A74D3B203F01803C6
:10283000102B3BD0224BD9781A7C61F345121A74C5
:102840001F4B1B7C13F0180F36D01D4C2079204DE8
:1028500028701BF0FAF81F4B4FF4FA721A8000210F
:1028600001201BF07FFA01220021104601F0E4F95B
:10287000E0681BF007F9012204F110010020FFF7C6
:1028800089FD012204F10F011046FFF783FD0122AB
:1028900029460220FFF77EFD642202210020FFF777
:1028A000A5FE094B18680FF02FF826E7044BD2B2AB
:1028B0006FF345121A74C3E7FFF7CEFDC5E700BFFB
:1028C000102300204C23002050230020442300200C
:1028D000FB5100203251002030B583B02A4B5B7F82
:1028E00023B9294B1B7C13F0180F41D10021012083
:1028F0001BF052FA244C227F9DF8043062F301034E
:102900008DF80430627F9DF8043062F382038DF805
:1029100004301E4816230370042242729DF80420DE
:1029200042701B4D2A88110A8170C270A372002167
:102930001BF001F94FF4FA71164B18680EF0EFFF17
:102940001BF06CF82880217CC1F3401112481BF069
:10295000FDF9124BC8221A804FF4FA61104B186827
:102960000EF0DDFF0F4B1B6800221A7003B030BD64
:102970000C4B1B6800221A70034B187CC0F3C1007B
:10298000FFF782FEF2E700BF10230020042300209F
:10299000B822002040230020C48C020832510020BD
:1029A000442300204823002070B908B5074B1B883A
:1029B0009BB203B108BD002101201BF0EDF9044BCF
:1029C00018680EF0A1FFF5E7704700BF32510020F4
:1029D0004823002008B5044A1BF03DF8034B186853
:1029E0000EF092FF08BD00BF102300204C230020F2
:1029F00038B5044620F011F8A04201D8012038BDB6
:102A00000546032001F0FEFA0028F8D01BF0EFF98C
:102A10001BF0EEF92B4622460349044800681EF0DD
:102A200032FE0020EBE700BFD07A02087C270020AE
:102A300030B583B004468368C26853F822301D88DD
:102A40002846FFF7D5FF08B903B030BD0023009337
:102A5000ADF80430164B1B88ADF80230ADF80450C9
:102A60006368E2689B1A012B1DDDA368013253F8ED
:102A700022301B88ADF800301FF0BFFF69460320ED
:102A80001FF0BFFF0446032001F0BCFA0028DBD092
:102A90001BF0ADF91BF0ACF922460649064B18684D
:102AA0001EF0F1FDD0E740F2FF13ADF80030E3E790
:102AB00034510020087B02087C27002030B583B009
:102AC00004468368C26853F822301D882846FFF701
:102AD0008FFF08B903B030BD00230093ADF8043078
:102AE000154B1B88ADF80230ADF804506368E268FE
:102AF0009B1A012B1BDDA368013253F822301B887F
:102B0000ADF80030694604201FF07BFF0446032027
:102B100001F078FA0028DDD01BF069F91BF068F9A4
:102B200022460649064B18681EF0ADFDD2E740F27A
:102B3000FF13ADF80030E5E734510020287B020890
:102B40007C27002030B583B004468368C26853F800
:102B500022301D882846FFF74BFF08B903B030BD6F
:102B600000230093ADF80430154B1B88ADF80230FC
:102B7000ADF804506368E2689B1A012B1BDDA36863
:102B8000013253F822301B88ADF80030694602202C
:102B90001FF037FF0446032001F034FA0028DDD08F
:102BA0001BF025F91BF024F922460649064B18684C
:102BB0001EF069FDD2E740F2FF13ADF80030E5E703
:102BC000345100203C7B02087C27002030B583B0C4
:102BD0008368C26853F822301C780023019343684D
:102BE0009B1A012B19DD01AA01211EF019F80146DB
:102BF0009DF804001FF0FDFE054680B1022001F0A3
:102C000001FA60B11BF0F3F81BF0F2F82A4606490E
:102C1000064B18681EF037FD01E01FF0EEFE20465F
:102C20001FF0F3FE03B030BD587B02087C27002064
:102C300010B503468168C26851F82200B0F900005F
:102C40001A4C20805B689B1A012B0FDD013251F872
:102C5000223093F90010003918BF01211FF07EFEC9
:102C6000A0B9032001F0CEF910B910BD0021F5E79D
:102C70001BF0BDF81BF0BCF80D4B1C681FF072FE7A
:102C800002460C4920461EF0FEFCEEE7012001F052
:102C9000B9F90028E9D01BF0AAF81BF0A9F80649F9
:102CA000034B18681EF0EFFCDFE700BF3451002033
:102CB0007C270020BC7B0208D07B020808B51FF0EF
:102CC00041FE032001F09EF900B908BD1BF08FF80A
:102CD0001BF08EF80249034B18681EF0D4FCF4E791
:102CE000E87B02087C27002008B58368C26853F897
:102CF00022301A88094B1A80032001F083F900B9A9
:102D000008BD1BF074F81BF073F8044B1A880449D3
:102D1000044B18681EF0B7FCF2E700BF8056002095
:102D2000087C02087C27002008B5024B18680EF0CA
:102D3000EBFD08BD502300202DE9F04186B01FF0C7
:102D40001DFE0446894B1B7813F0020F2CD0884ED1
:102D500013F0010F2AD0864F13F0040F28D0DFF8AC
:102D60001082032001F04EF928BB032001F04AF93C
:102D700058BB032001F046F9002835D1032001F0AB
:102D800041F900283ED1032001F03CF9002847D149
:102D9000032001F037F900285ED1032001F032F959
:102DA000002867D1002471E0724ED1E7714FD3E75C
:102DB000DFF8C081D5E71BF01AF81BF019F86E494F
:102DC0006E4B18681EF05FFCCFE71BF010F81BF08D
:102DD0000FF86A4B1D6805F0A5FB02460B466849D3
:102DE00028461EF050FCC4E71BF001F81BF000F869
:102DF000624B1D681FF09AFD0246624928461EF08C
:102E000042FCBBE71AF0F3FF1AF0F2FF5B4B1D68C0
:102E10001FF0C0FD02465C4928461EF034FCB2E7B4
:102E20001AF0E5FF1AF0E4FFE279A37961792079DD
:102E3000E57894F802C094F801E024780594CDF880
:102E400010E0CDF80CC00295019000914F494B481D
:102E500000681EF018FC9BE71AF0C9FF1AF0C8FFC3
:102E6000464B1C681FF08EFD0246494920461EF065
:102E70000AFC92E71AF0BBFF1AF0BAFF45493F4B34
:102E800018681EF000FC8DE70134E4B2072C12D85C
:102E9000032001F0B7F80028F6D01AF0A8FF1AF0C6
:102EA000A7FF364B1D681FF069FD025D3A492846B1
:102EB0001EF0E9FBE8E7032001F0A4F898B903202D
:102EC00001F0A0F8C8B9032001F09CF818BB03205A
:102ED00001F098F868BB032001F094F8002836D17F
:102EE00006B0BDE8F0811AF082FF1AF081FF2B498D
:102EF000224B18681EF0C7FBE1E71AF078FF1AF0C2
:102F000077FF1E4B1C681FF041FD024624492046F6
:102F10001EF0B9FBD7E71AF06AFF1AF069FF174BEA
:102F20001C681FF017FD02461E4920461EF0ABFB31
:102F3000CDE71AF05CFF1AF05BFF104B1C681FF026
:102F400011FD0246184920461EF09DFBC3E71AF00A
:102F50004EFF1AF04DFFCDF800803B463246134934
:102F6000064800681EF08FFBBAE700BFF656002047
:102F7000707B0208787B0208247C02087C270020F2
:102F80002C7C0208487C0208647C0208807C0208D1
:102F9000A47C0208C07C0208D47C02086C7A020877
:102FA000DC7C0208F87C0208107D0208287D0208FB
:102FB00030B583B08368C26853F822301C7801A909
:102FC00020461FF0C3FC88B9032001F01BF808B9A4
:102FD00003B030BD1AF00BFF1AF00AFF019B224626
:102FE0000B490C4800681EF04EFBF1E70546012036
:102FF00001F008F80028EBD01AF0F9FE1AF0F8FEFC
:103000002A460549034B18681EF03DFBE0E700BF68
:10301000607D02087C2700207C7D020870B58268F4
:10302000C36852F823100C88013352F823301D78FE
:10303000294620461FF0D9FC80B9032000F0E2FFAA
:1030400000B970BD1AF0D3FE1AF0D2FE2B4622460C
:103050000B490C4800681EF016FBF2E706460120FB
:1030600000F0D0FF0028ECD01AF0C1FE1AF0C0FE2C
:1030700032460549034B18681EF005FBE1E700BF27
:10308000A07D02087C270020D07D020870B582B0A8
:103090008368C26853F822301B78134A137013F008
:1030A000020F0ED0114C13F0010F0CD00F4D13F086
:1030B000040F0AD00D4E032000F0A4FF38B902B06F
:1030C00070BD0B4CEFE70A4DF1E7094EF3E71AF03C
:1030D0008EFE1AF08DFE00962B46224605490648C4
:1030E00000681EF0D0FAEAE7F6560020707B02086E
:1030F000787B0208847B02087C27002030B58FB0E3
:1031000004460D4668461AF035FD0DF1200EEC46DA
:10311000BCE80F00AEE80F009CE803008EE8030057
:1031200008A9464B186820F06EFA10F1880F46D1B6
:1031300068461AF01FFD0DF1200EEC46BCE80F00AA
:10314000AEE80F009CE803008EE803004FF4105334
:10315000ADF820308023ADF822304FF44073079350
:1031600007A81AF017FD079B0A93354B0B93334BB7
:103170001A68099B0D9213F0FF0F04D123F0FF038F
:1031800043F001030993012309932C4B2A4621465E
:1031900008A820F055FA044610BB032000F032FFC7
:1031A00090B9264B18681FF0C9FB0546002831D19D
:1031B000032000F027FF044610BB01242FE01F4B23
:1031C000186820F0F7F9B3E71AF011FE1AF010FEB4
:1031D0001A4B1A681B491C4B18681EF054FAE0E79A
:1031E000032000F00FFF0028DBD01AF000FE1AF0D9
:1031F000FFFD22461549144B18681EF044FAD0E72B
:103200001AF0F5FD1AF0F4FD11490F4B18681EF085
:103210003AFA04E0032000F0F5FE044610B9204617
:103220000FB030BD1AF0E3FD1AF0E2FD2A4609495D
:10323000054B18681EF027FA0024F0E73023002021
:1032400000014405007E02087C270020307E020831
:10325000547E0208747E020800B583B000210191FB
:1032600001AA1DF0DDFC019910290ED0032000F009
:10327000C9FE60B11AF0BBFD1AF0BAFD1022054973
:10328000054B18681EF0FFF901E0FFF737FF03B0A8
:103290005DF804FB947E02087C270020022900D000
:1032A000704708B5024B186808B119F073FC08BDE7
:1032B000A84B002070B588B0012009F045FD434CB3
:1032C0007823E373237C43F020032374DBB26FF392
:1032D000C40323743E4E962333700225257704F1F0
:1032E00010010020FFF768F804F10F010120FFF73B
:1032F00063F831462846FFF75FF804F11C0103200C
:10330000FFF75AF804F11D010A20FFF755F804F100
:1033100014010520FFF750F80323237720F08FFADC
:103320002C492D4809F016FC2C492D4809F012FCB7
:103330002C492D4809F00EFC2C492D4809F00AFCB7
:103340002C492D4809F006FC01242C4B1C6002A8D6
:103350001AF037FC02A9204620F055F910F1880F29
:103360000FD0264B18681FF0E9FA1FF03AFB2449EA
:10337000244808F03FFD184B18680EF0C5FA08B055
:1033800070BD1E4B1A68039B079213F0FF0F03D109
:1033900023F0FF03234303931B4B05934FF4407328
:1033A000019301A81AF01DFC019B04934FF41053E4
:1033B000ADF808308023ADF80A30012303930F4B9A
:1033C0001022124902A820F03BF9CAE7102300207E
:1033D000FB510020ED34000850230020E9260008AE
:1033E0004C230020D9280008482300202526000867
:1033F00044230020612600084023002030230020C1
:103400007C54002034230020000144056C5400202B
:1034100070B50020FFF706F80120FFF703F802203F
:10342000FFF700F80320FEF7FDFF0A20FEF7FAFF82
:10343000194C7820E073237C43F020032374DBB223
:103440006FF3C4032374FFF707F8144E962030700F
:103450001AF0FBFA002525776577012204F11C019B
:103460000320FEF797FF012204F11D010A20FEF759
:1034700091FF012204F110012846FEF78BFF012283
:1034800031460220FEF786FF012204F10F011046AB
:10349000FEF780FF70BD00BF10230020FB5100200D
:1034A00008B5022912D80E4B1B7F13B1022B07D08F
:1034B00008BD0020FEF750FF0A481AF085FFF7E725
:1034C000C82202210020FFF791F8F1E7064B1B68A4
:1034D00000221A70FFF79CFF1AF0B3FAE8E700BF6A
:1034E00010230020C48C02084423002010B582B0B1
:1034F0001AF094FA82B25A4B1A805A4B1B7F022B55
:103500002ED0032B7CD09BB1002157481AF013FB1F
:103510004FF4FA71554B18680EF001FA1AF07EFA62
:103520004F4B1880524B1B6800221A7002B010BD1E
:103530009DF80430012262F304038DF804309DF8F5
:1035400004306FF346138DF80430474B15221A7080
:10355000022159729DF804105970424B9A72D3E7B8
:103560009DF8001063F301018DF800103D4C617F60
:103570009DF8003061F382038DF80030237CC3F3A3
:10358000C10C9DF800106CF3C4018DF80010C3F35A
:1035900040119DF8003061F345138DF80030A37A97
:1035A000282B15D02B2B1FD0292BADD12E4B292109
:1035B0001970062159729DF800105970120A9A70FC
:1035C000D870284AD27B1A712A4A12785A719BE71E
:1035D000254928240C7004244C72224CE47A4C7047
:1035E000140A8C70C870DDE71F492B240C70062468
:1035F0004C729DF800404C70140A8C70C870D3E770
:103600001D4B1B78BBB1174B02221A77154B5B7F02
:10361000012B14D0134B5B7F002B7FF475AF114B44
:103620001B7C13F0180F12D00E4B187CC0F3C10096
:10363000FFF72AF868E70B4B00221A77E6E7094CF8
:10364000E0681AF01FFAE07BFEF706FFE2E7054CA0
:10365000E0681AF017FAE07BFEF7FEFE54E700BFC1
:10366000B822002010230020042300204023002043
:1036700050230020FB510020F8510020014B187806
:10368000704700BFFA510020F8B506460D468B681A
:103690001B78152B01D0002436E0334B1B7F002B09
:1036A000F9D10028F7D1304C207CC0F3C100FEF7DF
:1036B000EBFF0223237701276777237C6FF3C40393
:1036C00023743A4604F11C010320FEF763FE3A46D8
:1036D00004F11D010A20FEF75DFE3A4604F11001D7
:1036E0000020FEF757FED6E704EB44021F4B03EB26
:1036F00082035B780A2B1DD11C49900001EB8203E9
:1037000000220A545A700134022C21DCAB6819786B
:1037100004EB4402154B03EB82039B789942F2D1F0
:10372000002EE1D11149900001EB820300220A54DE
:103730005A70E8E70D4A04EB440C02EB8C000121BF
:1037400002F82C100B44437002301AF0F4F9DAE757
:10375000054B9A7AAB681B789A4200D0F8BD044BAF
:103760001B6800221A70F9E710230020E0220020D5
:103770004023002010B59038062846D8DFE800F036
:103780000426304545373E000124234B1C70C822D7
:1037900002210020FEF72AFF204B1C70204B1B7FCC
:1037A0006BB11F4B1B7F022B19D11D4B03221A77C4
:1037B0004FF4FA711B4B18680EF0B1F80FE01A4B7A
:1037C0001988184B18680EF0AAF8EAE70020124B87
:1037D0001870124B187064220521FEF707FF10BD08
:1037E0004FF47A7202210020FEF700FFF7E74FF452
:1037F0007A7202210020FEF7F9FEF0E74FF47A72A8
:1038000002210020FEF7F2FEE9E74FF47A7202216E
:103810000020FEF7EBFEE2E7F8510020FA5100200D
:1038200010230020502300208056002008B523F0EC
:10383000ABFF074B1B782BB1064B1B68C01A064B1E
:10384000984200D808BD05481AF0BEFDFAE700BF4F
:10385000F95100203C230020A0860100C48C0208FE
:1038600010B582B0002304220121084604F072FA48
:10387000012304220621002004F06CFA0023012217
:103880001946104604F066FA0120019000240094C5
:1038900003462246214604F0F3F90649204601F08A
:1038A00017FC1B2007F03AFC1B201DF097FE02B00E
:1038B00010BD00BF17DC010808B51EF0E3FE00F0E4
:1038C00017FA00F051FDFFF7CBFF1AF0A0F9074BF4
:1038D00018781AF0BAF800F067F91EF0C5FE1EF06D
:1038E000FAFE1EF0C2FE22F043FDF8E7FB51002075
:1038F00008B5024B1B6803B1984708BD842300201C
:1039000008B5024B5B6803B1984708BD84230020CB
:1039100008B5024B9B6803B1984708BD842300207B
:1039200008B5024BDB6803B1984708BD842300202B
:1039300008B5024B1B6903B1984708BD84230020DA
:1039400008B5024B5B6903B1984708BD842300208A
:1039500000B585B0094B1868094B1860094B0A4A35
:1039600013600A4A01920A4A12680292039301A95B
:103970001DF078F905B05DF804FB00BFA0540020ED
:10398000C831002094540020C43100208C8C0208DF
:103990005826002008B5024B18681DF077F908BDBD
:1039A000A054002038B507F0EFFB0446064D2B6805
:1039B000D3F8B00207F0DCFB28681DF081F920463F
:1039C00007F0D6FB38BD00BFA0540020002306201E
:1039D00073B1704754B224B9013353B15DF8044B4D
:1039E00070470228F8D008680A4908601046F3E7D3
:1039F00010B4094A52F823100A7A022AEAD9032A93
:103A0000EAD1441EE4B2012CE6D9086801490860F5
:103A10001046E1E758260020A454002010B5A2B0BB
:103A20002024224600211AA821F01FFF304B1A93B0
:103A30004FF4E1331C9302238DF8753003238DF886
:103A400076302C4B1E9306238DF87E3009238DF89B
:103A500080300021159116911791189119914FF40A
:103A600080131593244B1993109111911291139176
:103A70001491224B1093224B14933C2201A821F065
:103A8000F4FE0DF1040E0DF1540CBCE80F00AEE88D
:103A90000F00DCF80030CEF800300DF1180E0DF1FB
:103AA000400CBCE80F00AEE80F00DCF80030CEF8A8
:103AB0000030144B0B930C9401238DF834308DF8A7
:103AC0003530114B0F93114B1AAA01A9104807F07A
:103AD00007FC04469DF837303BB100214FF4E1303C
:103AE0001AF0EAFA204622B010BD0321F6E700BF23
:103AF00068900208589002083C00015B0100100029
:103B00004400015B5C260020B85400207C26002085
:103B10003827002008B531B9084B1868036823B16D
:103B200007F0F4FF01E0012900D908BD034B186834
:103B30000368002BF9D01EF088F8F6E7CC5400207B
:103B400008B50349034808F055F9FFF767FF08BDBA
:103B5000D05400206027002008B502481DF0D9FD90
:103B600008BD00BF3827002008B502481DF0D1FD70
:103B700008BD00BF3827002008B5024B5A6A1868F4
:103B8000904708BD3827002008B502481AF018FBF6
:103B900008BD00BFAC8C020808B502481AF00FFC43
:103BA00008BD00BFC48C020870B590B001212A2066
:103BB00003F0D6F800250D950E950F951B4E2A465D
:103BC0001B49304604F050F98DF839000DF10C0C0A
:103BD000184C0FCCACE80F000FCCACE80F0094E809
:103BE00003008CE803004FF4966306930195029559
:103BF00003238DF806308DF8065001238DF8003030
:103C00008DF801508DF802508DF8035010238DF877
:103C1000013003AA0DA9304604F066F96A4601A9ED
:103C200030461CF05DFA10B070BD00BF0040005976
:103C300040420F00DC8C020842B9C0B201228A4027
:103C400000EB40000001074B1A507047012A00D0DA
:103C50007047C0B201228A4000EB40000001024BD5
:103C60001A50F5E740E0035040D0035000B583B050
:103C70000B460549097801910092002201211EF0AE
:103C8000A1FE03B05DF804FBF656002070B50446B3
:103C900006790568FA2022F085FF854205D2134B8C
:103CA00003EBC60300221A7170BD25684FF47A70C9
:103CB00022F078FF854205D20C4B03EBC6030122AC
:103CC0001A71F1E7246840F6B83022F06BFF8442A5
:103CD00005D2064B03EBC60302221A71E4E7034B3D
:103CE00003EBC60303221A71DEE700BF742700202E
:103CF00038B5114B18681AF041F9054698B90024F7
:103D000008E00E4B53F824001AF061FA01280CD099
:103D10000134E4B2002CF4D0094B00221A70064B97
:103D200018681AF03BF9284638BD23F02DFD054BE5
:103D300043F83400ECE700BF70270020D85400207F
:103D4000F75600207427002000B9704730B583B0C3
:103D50000446104D104928681DF095FC1AF047F8EC
:103D60001AF046F80D4B00934FF48D730C4A0D4931
:103D700028681DF088FC23460B4A0C4928681DF072
:103D800082FC204600F086F9094928681DF07BFC7A
:103D900000BEFDE77C2700206C7A0208B48D020883
:103DA000048D0208748D0208808D0208888D020837
:103DB000A08D020800B589B000230BB1002312E0EA
:103DC0000022244941F823202349CA540133DBB29D
:103DD000F3E7224A02EBC30104200871002142F8F4
:103DE00033100133DBB2002BF3D000230193029395
:103DF000039304930593069307939DF8043043F0CF
:103E000001038DF80430DBB243F008038DF8043071
:103E1000DBB243F020038DF80430114B0293114BB9
:103E2000039302238DF810304FF48063059305232C
:103E3000ADF818300423ADF81A30082307930A4967
:103E400001A800F045F910B909B05DF804FBFFF7CF
:103E50007BFFF9E76C2700206827002074270020EB
:103E60006D3E0008C1DD01087027002010B584B048
:103E700001AA02A9124B18681AF0D2F8E0B902A8F8
:103E8000FFF704FF00242CB10D4B18681AF086F8D8
:103E900004B010BD0B4B03EBC4031979042902D104
:103EA0000134E4B2EFE72046FFF7FAFA054B03EBE3
:103EB000C40304221A71F3E7FFF746FFE8E700BFE7
:103EC00070270020742700201D4B1B78002B36D153
:103ED00070B582B000240CB102B070BD194B53F81C
:103EE0002430834202D00134E4B2F4E71AF06FF9CF
:103EF00001281ED023F048FC134B53F83460861B76
:103F000000968DF80440282022F04CFE864205D809
:103F10000D4B03EBC4031B79052BDDD10822694649
:103F20000A4B18681AF04AF80028D5D0FFF70CFFA2
:103F3000D2E723F029FC044B43F83400CCE7704768
:103F4000F7560020D8540020742700207027002046
:103F500010B58368C26853F822301C7804B100247D
:103F6000064B1B5D03B110BD23F00EFC044B43F860
:103F70002400024B01221A55F5E700BF68270020F4
:103F80006C27002038B58368C26853F822301C784B
:103F900004B10024194B1B5D012B00D038BD23F068
:103FA000F3FB174B53F82450451B144B00221A55B2
:103FB000FA2022F0F7FDA84204D900212046FFF79D
:103FC0006FFAEBE74FF47A7022F0ECFDA84204D9C7
:103FD00001212046FFF764FAE0E740F6B83022F00E
:103FE000E1FDA84204D902212046FFF759FAD5E79E
:103FF00003212046FFF754FAD0E700BF68270020CE
:104000006C27002003460B4A107828B10A4A127820
:104010009A4202D2002000E00120084A12783AB108
:10402000074A127842FA03F313F0010F00D100207F
:10403000704700BFFA560020F9560020FD510020BD
:10404000F856002008B5084B01221A70074B0022D1
:104050001A70074B04221A70064B1F221A7007F0C1
:1040600093F8054B186008BDFA560020FD5100205A
:10407000F9560020F85600207C27002008B5034997
:10408000034B18681DF0FFFA08BD00BFCC8D020875
:104090007C27002070B506460A4C0B4920681DF0AD
:1040A000F2FA07F071F80546206807F061F830462B
:1040B000FFF7E4FF284607F05BF8044920681DF08D
:1040C000E2FA70BD7C270020D08D0208D48D020852
:1040D000F8B500284FD00D46044600294DD003788E
:1040E00013F0030F36D04268002A48D013F0080FAF
:1040F00002D0A28A002A44D013F0200F05D0E38A10
:10410000002B40D0A369002B3FD02C201DF0F7FEE0
:10411000064600283BD02C22002121F0A6FB216876
:104120006268A368E0687160B260F3603061216921
:104130006269A3697161B261F361237813F0040FBE
:104140000ED000272E60636843B13146114819F044
:10415000D7FF03E04268002AC8D021273846F8BDBF
:104160000121304619F0D6FE07460028EAD0304635
:104170001DF0A4FFF2E72227F0E72227EEE7212730
:10418000ECE72127EAE72127E8E72127E6E71927D7
:10419000E4E700BF8027002008B5034819F0A9FF15
:1041A00019F03DFD08BD00BF8027002010B50B4B66
:1041B0001C6802E023F094F8246864B123F095F8B9
:1041C00094F82030002BF5D0A36A002BF2D023F016
:1041D00087F8002000E0012010BD00BF80270020EC
:1041E00010B50B4B1C6802E023F07AF8246864B128
:1041F00023F07BF894F82030002BF5D0A36A002B35
:10420000F2D023F06DF8042000E0012010BD00BFC3
:104210008027002010B50C4B1C6802E023F060F8EA
:1042200024687CB123F061F894F82030002BF5D09D
:10423000A36A002BF2D0013BA36223F051F8A368DC
:104240009847EDE710BD00BF8027002008B504485F
:1042500023F020F919F005FD00F086F808BD00BF35
:104260005090020808B5024823F014F908BD00BFB9
:10427000509002082DE9F04180460F4601F10905F2
:104280000026344604E05B21082000F093FA013454
:10429000AC4233D2052C1BD801A353F824F000BF45
:1042A00087420008B9420008ED420008C1420008F8
:1042B000C5420008C9420008FBB20433D9B2E3E7A3
:1042C0008021E1E70021DFE7731C3146DEB2DBE746
:1042D000BB1DA3420CD0FB1DA3420BD007F108036A
:1042E000A34209D0A31F18F80310CDE7D121CBE7D3
:1042F0005A21C9E75A21C7E75D21C5E70020BDE87B
:10430000F08100BF00B583B000220092019202212B
:104310008DF80010054819F0B9FE01900821684693
:10432000FFF7A8FF03B05DF804FB00BF006A1800A8
:1043300000B583B0044B1B88ADF8043001A800F031
:1043400015FB03B05DF804FBD88D020800B583B0FF
:10435000044B1B88ADF8043001A800F0D7FA03B075
:104360005DF804FBD88D02082DE9F04F97B04D4D54
:1043700009AC2E1D0FCE0FC43368236001AC05F1CC
:1043800018060FCE0FC496E80F0084E80F004648C9
:1043900023F080F8454823F07DF801268DF8096068
:1043A00000248DF80840424B0B9301AB0D93414F15
:1043B00009A938461BF045FEB5F838B0ADF838B05D
:1043C000324604210EA800F065FAB5F83CA0ADF81D
:1043D0003CA0224631460FA800F05CFAB5F84090A8
:1043E000ADF840903246042110A800F053FAB5F819
:1043F0000080ADF844803246042111A800F04AFA4A
:104400002D4D2E4BC5F8F8344FF00213C5F8F43497
:10441000A3F58033C5F8FC341C23C5F8E4344FF40D
:10442000487008F035FBFFF783FF142008F030FBDD
:10443000FFF78CFF232008F02BFBFFF779FFB92152
:1044400038461BF0E6FDFFF781FFADF848B0224685
:10445000214612A800F01EFAADF84CA022462146D3
:1044600013A800F017FAADF850903246214614A870
:1044700000F010FAADF854803246214615A800F03D
:1044800009FA384603F086F9C5F8E444C5F8F8445B
:10449000C5F8F444C5F8FC44044823F000F817B00C
:1044A000BDE8F08FD88D02085090020854900208A1
:1044B000E070720000000A5000C0035002000300C8
:1044C00008B50448044A121A9210044919F007FE6C
:1044D00008BD00BF80010008800300086052002072
:1044E00008B5154B83F30A8800F030F8FFF7E8FFB2
:1044F000124A0AE01068516850F8230041F823007E
:10450000013391688B42F5D30C320D4B9A4201D2A4
:104510000023F6E70B4A08E01168002041F8230069
:10452000013351688B42F7D30832074B9A4201D2CC
:104530000023F6E7FDF7C2FE00000020A0D4020829
:10454000ACD40208ACD40208ACD4020870B5134B4A
:10455000134A9A60D3F8882042F47002C3F8882086
:10456000104A4FF4804191660F4D05F500544FF00D
:10457000FF3222660D4A62660222C3F8D020BFF3E2
:104580004F8FBFF36F8F002006F0C8FD4FF4403609
:10459000E66000201DF022F82E6170BD00ED00E005
:1045A0000000000800900050008000447FFF7F0161
:1045B000014B1860704700BFEC54002008B5064B53
:1045C0001860064B1B6F03F00703032B00D008BDD8
:1045D00021F0D2FBFBE700BFF45400200080005024
:1045E000BFF34F8F0549CA6802F4E062044B1343DE
:1045F000CB60BFF34F8F00BFFDE700BF00ED00E0D1
:104600000400FA05F0B18446F1B110B409E004F1F8
:1046100020000FE02033C01A18D1BCB10CF1010CFE
:1046200001319CF800400B4B1B5D03F00303012B91
:10463000EDD020460B78074AD25C02F00302012A33
:10464000E9D1E7E701207047012070475DF8044B8E
:10465000704700BF65D3020830B587B005460468CF
:1046600023798DF80C3063798DF80D301A4822F0DB
:1046700011FF0022012103A800F00CF90DF10B013C
:1046800003A819F065FE9DF80B302370A379022B67
:1046900002D0002007B030BD4FF0FF3305930493E4
:1046A00000950E4B012205A903A800F02FFA059BE7
:1046B000B3F1FF3F07D00095084B022204A903A8DD
:1046C00000F084F9E5E70095044B042204A903A84F
:1046D00000F07CF9DDE700BF50900208DDE1010841
:1046E00010B582B0002401942A4822F0D3FE8DF840
:1046F000004003238DF8013001220421684600F0B8
:10470000C9F8254B0122C3F8442401A9052022F051
:10471000BAFE00283BD1214BD3F8F02042F0010231
:10472000C3F8F020D3F8FC2042F08072C3F8FC20DC
:10473000A3F55D431A4A1A60019B03F5D52303F2E2
:10474000FC43DB08174AA2FB03239B0A013B164AE2
:1047500013610223C2F8F0304FF48073C2F80433BF
:104760004FF06043114AC3F8B02F114AC3F8802EAE
:10477000D3F8002E42F48072C3F8002EFF2283F893
:104780002020D3F8002E22F48072C3F8002E02B04D
:1047900010BD00BF5090020800D0035000ED00E0B3
:1047A000FF03004017916502000004E055CEACC540
:1047B000090001004FF06043D3F8803E13F0010F71
:1047C00001D1112070470E4AD2F8FC3043F08073BB
:1047D000C2F8FC304FF06043D3F8002E4FF0010CCC
:1047E0000CFA00FC42EA0C02C3F8002E53F8203009
:1047F000002BE8D04FF0604303F8201000207047F2
:1048000000ED00E010B504460FE00123834024EAE8
:1048100003040F2814D800EB40020E4B03EB820375
:104820005A6812B19968C0B2904794B123460020EB
:104830001F28EAD813F0010FE7D101305B08F7E732
:10484000103800EB40039B00B033024A134404339A
:10485000E6E710BD8427002008B50D4822F01AFEB7
:104860001A2006F04BFC28B91B2006F047FC40B983
:10487000002008BD1A2006F051FC1A201CF0AEFEE4
:10488000F2E71B2006F04AFC1B201CF0A7FEEFE716
:10489000509002082DE9F04170B30C4617460546CA
:1048A0000F292BD803784BB1022B20D0032B21D01A
:1048B000012B01D0002303E07F2301E040F2FF73CE
:1048C0006A78D34013F0010F1AD00F4BD3F810635E
:1048D000C6B922F01DFD80463A462146284603F01F
:1048E00067FE404622F00FFD3046BDE8F08140F201
:1048F000FF33E5E73F23E3E72226F5E72126F3E749
:104900002126F1E70226EFE700C0035040B310B5BF
:10491000044603784BB1022B1DD0032B1ED0012B74
:1049200001D0002303E07F2301E040F2FF736278AF
:10493000D34013F0010F15D022F0EAFC23786278FF
:104940000121914003EB43031B01074AD15022F0A0
:10495000DAFC002010BD40F2FF33E8E73F23E6E732
:10496000222070472120F5E740D0035040B310B516
:10497000044603784BB1022B1DD0032B1ED0012B14
:1049800001D0002303E07F2301E040F2FF7362784F
:10499000D34013F0010F15D022F0BAFC23786278CF
:1049A0000121914003EB43031B01074AD15022F040
:1049B000AAFC002010BD40F2FF33E8E73F23E6E702
:1049C000222070472120F5E740E00350002866D000
:1049D0002DE9F0410C4615461F460646002960D0D9
:1049E00002784AB1022A3ED0032A3FD0012A01D0E0
:1049F000002303E07F2301E040F2FF737178CB4096
:104A000013F0010F01D1FF2A4DD1022D01D9042D40
:104A10004BD122F07DFC80463378FF2B28D12368D0
:104A2000B3F1FF3F2BD02268B2F1FF3F32D0204BD1
:104A300002EB420203EB82025760226802EB420261
:104A400003EB8203069A9A603378FF2B05D0226825
:104A500001239340174AC2F82434404622F053FC05
:104A60000020BDE8F08140F2FF33C7E73F23C5E7F0
:104A70002A462168304603F005FE2060CFE73378F0
:104A8000FF2BD0D10C4BD3F8241470781BF0A8FC6A
:104A90002060C8E7404622F036FC2D20E1E72220C6
:104AA00070472220DDE72120DBE72120D9E700BF86
:104AB0008427002000D0035000C00350B0F1FF3F16
:104AC0001AD038B504460F2818DC002818DB22F06D
:104AD0001FFC0123A3400B4AC2F82034C2F824343F
:104AE000094B04EB440203EB8202002555609560FC
:104AF00022F009FC284638BD212070472120FAE722
:104B00002120F8E700E0035084270020002856D039
:104B10002DE9F0410C4617461E460546002950D0A7
:104B2000017849B1022939D003293AD0012901D0AD
:104B3000002303E07F2301E040F2FF736A78D34053
:104B400013F0010F01D1FF293DD122F0E1FB804696
:104B50002B78FF2B27D12268B2F1FF3F2AD01B4BC5
:104B600002EB420203EB8202C2F8B860226802EB59
:104B7000420203EB8203069AC3F8BC202B78FF2B7A
:104B800006D02268103201239340114AC2F824341F
:104B9000404622F0B8FB0020BDE8F08140F2FF3330
:104BA000CCE73F23CAE73A462168284603F00AFECD
:104BB0002060D0E7404622F0A6FB2D20ECE7222023
:104BC00070472220E8E72120E6E700BF8427002085
:104BD00000D0035008B5084BD3F82404D3F82024A0
:104BE000104000F0553020F0502003F50053C3F87A
:104BF0002004FFF707FE08BD00C0035008B5084BAE
:104C0000D3F82404D3F82024104000F0AA3020F078
:104C1000A02003F50053C3F82004FFF7F3FD08BDFF
:104C200000C0035010B582B004460A4822F032FC9E
:104C300023788DF8043063788DF80530A278B2FAC5
:104C400082F2520904210DEB0100FFF723FE002040
:104C500002B010BD50900208F0B585B00C469446E5
:104C60009DF83410664A1278002A00F0BD8005468F
:104C7000BCF1070F00F2BA800A9A002A00F0B8804F
:104C80000B9A002A00F0B6800E9AB2F5006F00F37E
:104C9000B38001285BD05B4A02EB0C12127B002A26
:104CA00000F0AC8000220092019202920392564AD8
:104CB00002EB4C1E002C4FD14FEA4C1600209051B5
:104CC000CEF80400CEF80800CEF80C009EF80200E2
:104CD00040F010008EF802009EF8030040F0300013
:104CE0008EF8030021B9C1B241F003018EF8031020
:104CF00000930E9B013B444A4FEA4C1002EB4C11CF
:104D0000165A63F30E1616520A9B8B600B9B4B6070
:104D1000CB789DF83C2062F38303CB70012D36D015
:104D2000109B002B56D0374A4FEA0C1102EB0C13A4
:104D300010985050119A5A6000249C605D7372461E
:104D40006946604603F0F6FA204605B0F0BD0C9ABD
:104D5000002AA0D12D48F8E72B4F4FEA4C1607EB5D
:104D60004C120020B85150609060D060907840F0B4
:104D700010009070D07840F00300D0700029B7D1B7
:104D800007EB4C12C1B241F03001D170B0E70E46D2
:104D90000A7B42F001020A73D2B242F002020A73A5
:104DA000CA68042161F39F02F26006F1100796E8D9
:104DB0000F0087E80F00F2696FF0030161F39F02B3
:104DC000F2610C9B7361012CAAD10B9AB2610C9A0F
:104DD0007260A5E7002DA6D10B4B03EB4C139A781C
:104DE0006FF304129A709EE70948AEE70748ACE7F4
:104DF0000648AAE70548A8E70448A6E70548A4E747
:104E0000FE510020EC290020EC280020018000F059
:104E1000028000F0078000F0134B1B78FBB110B547
:104E20000446F0B122F074FA0023072B13D80F4A7E
:104E300002EB0312127B0AB10133F6E723600B4A3F
:104E4000190102EB031301241C730024545022F0B7
:104E50005AFA204602E022F056FA054810BD0548ED
:104E600070470548FAE700BFFE510020EC290020FA
:104E7000048000F0028000F0018000F038B522F0DC
:104E800047FA04460023072B06DC0C4A02EB031208
:104E9000127B12B90133F6E7002222B1204622F03C
:104EA00032FA074838BD03F0F1F90025054B1D70B3
:104EB000204622F028FA2846F4E700BFEC2900201B
:104EC000058000F0FE5100200F4B1B78BBB110B5E0
:104ED0000446072815D822F01BFA0C4B03EB0413E9
:104EE0001B7B1BB922F00FFA09480BE0074B03EBC1
:104EF000041300241C7322F006FA204602E0054841
:104F00007047054810BD00BFFE510020EC2900206D
:104F1000068000F0028000F0018000F000B583B050
:104F2000134B1B68019300238DF8043022F0F0F935
:104F3000104B1B7833B90F4B01221A7022F0E3F9A2
:104F4000002309E022F0DFF90B480EE00B4A02EBE8
:104F50000312002111730133072BF7DD08238DF8AD
:104F6000073001A803F0B6F9002003B05DF804FB98
:104F70001C8E0208FE510020038000F0EC29002066
:104F800010B5104C2478BCB1072817DC0E4C04EB8C
:104F90000014247BA4B10C4C4FEA001E04EB001C4F
:104FA00044F80E30029BCCF804300024CCF80840C2
:104FB00003F0C0F9204610BD0448FCE70448FAE7B6
:104FC0000448F8E7FE510020EC290020028000F0A0
:104FD000018000F0078000F008B50A4B1B785BB138
:104FE00007280BD8084B03EB00131B7B43B10021B0
:104FF00003F062F9002008BD0448FCE70448FAE722
:105000000448F8E7FE510020EC290020028000F05F
:10501000018000F0078000F008B50A4B1B785BB1F7
:1050200007280BD8084B03EB00131B7B43B101216E
:1050300003F042F9002008BD0448FCE70448FAE701
:105040000448F8E7FE510020EC290020028000F01F
:10505000018000F0078000F0F8B5194B1F6D5B6D03
:105060001F4002D40125002402E0FEE701346D0058
:10507000072C24D83D42F9D0124B1D652301124A5A
:10508000D358002BF2D002EB0416B1680131B160A5
:1050900072682046984780F00100C0B2737B012BF4
:1050A000E4D10028E2D0094B03EB44131A7B6FF3E1
:1050B00041021A731A7F6FF341021A77D6E7F8BDDF
:1050C0000000045000200450EC290020EC280020AF
:1050D00000B585B0FF238DF80C308DF80D300290AF
:1050E0000F2809DC0091094B002202A903A8FFF751
:1050F0006DFC05B05DF804FB103802900091034B85
:10510000002202A903A8FFF701FDF2E7B7E40108B6
:105110002DE9F04F89B005460E4614469846C36BFC
:105120005B69012207A960689847EB6B5B69012204
:1051300006A93046984707A81AF0A0FB48B10027F7
:10514000A77567754FF0FF33A360384609B0BDE817
:10515000F08F074606A81AF0A1FB0123A375237E52
:10516000033304EBC3035E6000221A816368B34219
:105170002AD02368834201D00023A37506A81AF021
:10518000B2FB237D984201D00023A37506A81AF034
:1051900089FB814607A81AF085FB814501D00023D1
:1051A000A37506A81AF086FB814607A81AF082FBB1
:1051B000814501D00023A375237D043BDBB2022B84
:1051C0000BD80023A375C0E7206006A81AF08BFB5C
:1051D00020754FF0FF33A360EEE706A81AF062FBDC
:1051E00080B1EB6B5B69022204A93046984704A8A2
:1051F0001AF06BFB0346207D032868D8DFE800F037
:10520000615B070D06A81AF060FB0346F3E7237EF7
:10521000033304EBC303CC221A811AF074FB129BF4
:10522000187094F8189006A81AF02FFB09F10309DA
:1052300004EBC90989F80A00237E033304EBC30396
:10524000B3F808A093F80AB006A81AF02BFB814621
:1052500006A81AF02FFB0390B9F1000F3DD0EB6BBD
:105260005B69022204A93046984704A81AF0E9FABB
:105270006075637D03B9A375A37DA3B1BAF1000F77
:1052800011D0039BF1186B6C5B4286EA01021A4253
:1052900001D00023A3756B6C5A1E0A409B1A9A45D5
:1052A00001D90023A375A37D002B40D0BBF1000FD3
:1052B00018D1E77D3CE0227E033204EBC202138169
:1052C000ABE7227E033204EBC2021381A5E7227E04
:1052D000033204EBC20213819FE706A81AF09AFA80
:1052E0006075C6E70122E275627EBAB9BBF1010FB3
:1052F00008D095F83470DFB9EA6AB2F1FF3F05D003
:105300001F4615E001216176174611E0BBF1030F3E
:1053100001D01F460CE00122A27609E0BBF1010F8B
:1053200037D0BBF1030F03D10122A27600E01F4664
:1053300053B117B1BBF1010F06D95346039A314659
:10534000284619F0DEFBA060A37D13B12369534406
:105350002361237E114A127893421CD201332376B3
:10536000B8F1000F13D0A37D8BB1E37D7BB177B98A
:10537000BBF1030F0BD0A168B1F1FF3F07D0129B27
:105380000093012322462846FFF7C2FEA075A77DA1
:10539000DBE61746CCE70023A375E1E7408E020861
:1053A0002DE9F04F89B005460F4692469B460023F3
:1053B0008DF80B304FF0FF31104600F0EFFFB7F5DE
:1053C000801F1DD30023009317F1020F07D0009B0D
:1053D000002B40F09E802B7C002B00F08C80EB6A31
:1053E000B3F1FF3F2CD02A689B1A6A6CB3FBF2F929
:1053F00017F1020818BF4FF00108002301935DE088
:105400000DF10A02394605F1080000F017FF0146C8
:10541000B0F1FF3F11D0504600F0C0FF0DF10B037B
:1054200001225146284619F0EBFB00900028CBD012
:105430009DF80B308BF80030C6E700230093C3E7DC
:10544000696A284619F07EFA8146D1E70123019363
:1054500037E09DF80B308BF80030324B1A68324938
:10546000504620F029FA00942F4B9968B1F1FF3F84
:105470001BD06B6C5B4281EA06021A4215D12A4CA2
:10548000204600F08BFF0DF10B03424621462846D3
:1054900019F0B6FB04460028E6D017F1020FD8D069
:1054A000214B1B68BB42DFD1D3E74946284619F0A0
:1054B00049FA8146019BCBB9009BBBB96B6A4B454E
:1054C000C4D02C686B6C03FB0944EB6B5B69052251
:1054D00003A92046984703A81AF0ACFA1AF0D1FAAB
:1054E00020461AF0DAFA06460146BFE7009BA3B150
:1054F000B7F5801F03D3009B8BB100200AE09BF817
:105500000030DAF80420394605F1080000F0B4FE56
:10551000F1E7002009B0BDE8F08F2D20FAE72D203B
:10552000F8E700BF3C8E0208E030002070B582B082
:1055300004464FF0FF33C3620DF107031A4A6FF0C0
:105540000101FFF72DFF20BB174B9B68E362E56A63
:105550002946204618F0E7FF2063E8B12946204697
:1055600019F0BFFA0546A36AAB421BD02946204674
:1055700018F0D9FF0646236B0344236329462046CF
:1055800019F0AFFA0546002EEDD100232363E06247
:10559000E9E7A36AE362DAE7E16A204619F0A1FAD3
:1055A000E062DBE702B070BD0C31002030B583B0A3
:1055B0001C46032A14BF002201221B7E9A4202D0FD
:1055C000012003B030BD0D46096823689942F7D326
:1055D00063689942F4D80DF10703114AFFF7E0FE22
:1055E0000028EDD10E4B5A686B689A42E8D19DF8BD
:1055F0000730032B14BF00230123227E9342DFD107
:105600006369013363612369E2689342D8D2A26877
:10561000296842F82310236901332361D0E700BFD2
:105620000C3100202DE9F04182B004460E46904630
:105630001F46816A06E01A4B9968B1F1FF3F1FD0FF
:10564000012E23D0E06A884217D0B1F1FF3F14D079
:10565000134D284600F0A2FE0DF107030122294652
:10566000204619F0CDFA0028E5D03B469DF80720EA
:1056700029462046C0470028DDD102B0BDE8F081B0
:105680005968204619F02DFA0146D9E7044B5A68AB
:10569000636C5B424A401A42D4D04FF0FF31D1E7ED
:1056A000B430002010B50446083000F08DFD002312
:1056B000024A19462046FFF7B5FF10BDEFEB01087F
:1056C00038B50446037C0BBB02461349083000F092
:1056D0001DFE616A204619F057F9421C616A204696
:1056E00019F0A8F8054620B9236B626C1344143BEB
:1056F0002363A16A204619F0F4F9A0622368C01A56
:10570000636CB0FBF3F06062284638BD0023034AA7
:105710000121FFF787FFDCE787EF010855EF01085C
:10572000F0B589B080B30F4616461D46044690F882
:1057300034301BB90025284609B0F0BD012119F00D
:105740004EF801950E9B0293039704960023059350
:1057500006939DF83C308DF81C30237C5BB901AA80
:105760000A4904F1080000F0D1FD5EB9069D20460B
:1057700019F0D7FADFE701AB054A00212046FFF711
:1057800051FFF2E7059DF2E70025D4E7A3E7010802
:10579000AD550008F0B58BB004460D46406AE36B8A
:1057A0005B69052205A92668676C07FB00609847BE
:1057B00005A81AF03FF9012836D000940023019380
:1057C0008DF80850039301238DF81030A16AE36A25
:1057D00099420FD0237CBBB96A46144904F10800F2
:1057E00000F094FD019B13B99DF810309BB901980E
:1057F0000BB0F0BD204619F074F9E062236B626CC7
:105800009B1A14332363EDE76B46094A01212046B6
:10581000FFF708FFE6E7626A2368616C01FB02316B
:10582000E06B1AF0B9F8E2E70020E1E7395A000826
:10583000B95900082DE9F04F89B004468A469146CF
:105840001D46002307930969026BCB1D406C143879
:10585000B3FBF0F3013301EBC301914200F2A780E7
:105860004E4677E03D2840F092800490BB46059676
:105870001EE04FF000092368616C01FB0631E06B0C
:105880001AF076F8204618F0B4FF204619F050F9C7
:105890002063B9F1000F76D0DAF81020D31D616CC7
:1058A0001439B3FBF1F3013302EBC30290423AD354
:1058B0002368ABEB0309606CB9FBF0F909FB00301E
:1058C0001AF0EBF88046E16A204619F00AF9A36A5B
:1058D00083422CD0E062374B9A68616C4B1E1340B8
:1058E000226B5B1A13442363ABEB08072368079E04
:1058F000F61AB6FBF1F6B145BBD197B1E36B9B69E4
:10590000BA08414698478146E36A3B44E362236B09
:10591000A8EB0B084344236304F1080000F054FC97
:10592000A9E7B946A7E7DDF810B0059E02E0DDF86B
:1059300010B0059EBBF1000F29D0DAF81000226BE1
:10594000C31D616C1439B3FBF1F3013300EBC300E9
:1059500082421CD3E76ADFF85C803946404600F09B
:105960001DFD07AB0293019500963B46424651460A
:10597000204619F001FC834600287FF473AFD8F865
:105980000830E362D6E7DDF810B0059ED2E75F4647
:105990001FB1384609B0BDE8F08F2B46054A526862
:1059A000DAF8001004F1080000F066FCF1E71C27AB
:1059B000EFE700BFE0300020F0B583B01C46032ABB
:1059C00005D1237A012B33D0012003B0F0BD064668
:1059D0000F4615460DF10703164A0968FFF7E0FC6C
:1059E00060600028EDD19DF80730032BE9D0114B02
:1059F0005A687B689A42E4D1237A012B08D13B692B
:105A0000E26813447269934202D900232374D8E7F1
:105A1000E3683A6913440833E3602B4601223946B0
:105A20003046FFF707FF60600028CAD00020CCE7AF
:105A3000207CCAE70C310020F0B583B0089C2668B2
:105A4000032A05D1237A012B4DD0012003B0F0BDEC
:105A500015460DF10703254A3046FFF7A1FC6060AB
:105A60000028EFD12168214B5A688B6A486CC0F13D
:105A7000000C5A4012EA0C0FE4D1227A012A19D004
:105A80000F68DB1BB3FBF0F3CA6AD21BB2FBF0F268
:105A90009A4219D0E36815490A6913440833E36050
:105AA0002B4601222068FFF7C5FE60600028C9D0A0
:105AB0000020CBE70D4A1269E7683A447769BA4299
:105AC000DED900232374BDE7726CF16A531E0B40CC
:105AD000316B9B1A0B4433632668B16A304619F068
:105AE00000F8F062D6E7207CB0E700BF0C31002060
