S01500004956505F4C525F436F6E6E6563742E733337CA
S3150800000000200020FD3D000829D7010829D701084E
S31508000010751C020829D7010829D7010829D701081C
S3150800002029D7010829D7010829D7010829D701089E
S3150800003029D7010829D7010829D7010829D701088E
S3150800004029D7010829D7010829D7010829D701087E
S315080000503D5F000829D7010829D7010829D70108D3
S3150800006029D7010829D7010829D70108CD39000859
S31508000070BD39000829D7010829D7010829D7010859
S3150800008029D7010829D7010829D7010829D701083E
S3150800009029D7010829D701087949000829D701086D
S315080000A029D7010829D701081D450008F544000885
S315080000B029D7010829D7010841AB0108EDB5010880
S315080000C0934D02088F4D0208A1AD0108A94D0208FB
S315080000D0974D0208BDB501089B4D020851B60108A7
S315080000E089B6010829D7010829D7010811C70008C8
S315080000F029D701080B0C020829D7010829D70108B6
S3150800010029D7010829D7010829D7010829D70108BD
S3150800011029D7010829D7010829D7010829D70108AD
S3150800012029D7010829D7010829D7010829D701089D
S3150800013029D7010829D7010829D7010829D701088D
S3150800014029D7010829D7010829D7010829D701087D
S3150800015029D7010829D70108BB6E02082D90010886
S3150800016029D7010829D701082D4D0208334D020861
S31508000180194A5AB3194BDB6913F0040F29D110B475
S315080001900AE003EA00048C4210D0013AB2B1134BCC
S315080001A0DB6913F0040F14D110F0010FF1D1104CD4
S315080001B01C40002CEDD06FF001000CE00C4A1A40F0
S315080001C00AB9002007E06FF0010004E06FF00200B2
S315080001D001E04FF0FF305DF8044B70476FF0020006
S315080001E070474FF0FF307047809698000000035024
S315080001F0020001000D4BDB6913F4803F12D170B584
S315080002000A4B03F580560124F46003F500552C6467
S315080002104FF480721A6100212046FFF7B1FF34645B
S31508000220EC6070BD6FF00100704700BF000003501E
S3150800023010B5124B4FF480329A6603F51C33DC690D
S31508000240144041F67132DA6303F580520121D16018
S31508000250586102221A6100212120FFF791FF40B15F
S31508000260074B0122DA601CB1A3F500530022DA63BA
S3150800027010BD00212120FFF783FFF1E70090005011
S315080002800020035038B51A4B5861DB6913F0040F88
S315080002902AD10C4654F8041B154B9961151F06E024
S315080002A0214651F8042B124B9A61043D0C465DB168
S315080002B008210846FFF764FF03460028F0D00C4AD9
S315080002C004211161184638BD094B04221A61002120
S315080002D02120FFF755FF03460028F3D100212120EE
S315080002E0FFF74EFF0346EDE74FF0FF33EAE700BF9F
S315080002F0000003502DE9F0410F46164605461A4BF5
S315080003004FF480329A6603F51C33DA6902F48038B2
S3150800031041F67132DA6303F580530122DA6000236D
S3150800032002E025442744361B8EB105F5005424F413
S31508000330FF5424F01F04641BB44228BF34462246E7
S3150800034039462846FFF79EFF03460028E9D0074AA4
S315080003500121D160B8F1000F03D0A2F500520021A7
S31508000360D1631846BDE8F081009000500020035084
S31508000370000000000000000000000000000000006F
S31508000380013800D0FCE770472DE9F04F2DED028BC0
S3150800039093B082460C4693461D4657EC106B8DED7E
S315080003A0080B32463B46304639461BF041FE0028CC
S315080003B000F009814FF0FF32B14B304639461BF049
S315080003C05FFE002840F0FF804FF0FF326FF4801385
S315080003D0304639461BF036FE002840F0F4800022ED
S315080003E00023DDE90867304639461BF02BFE002856
S315080003F040F0FC809DED087B8DED067B209B13F479
S315080004008063119301D106231E93DDE90601024696
S31508000410C1F30A50C1F31303904643F07F5949F4D8
S315080004204019A0F2FF301BF031FB83A3D3E9002368
S315080004301BF096FB82A3D3E900231BF0DBF90646E3
S315080004400F4600228F4B404649461BF0D1F97EA342
S31508000450D3E900231BF084FB02460B463046394697
S315080004601BF0C8F91BF016FE06461BF00FFB80466C
S31508000470894677A3D3E900231BF072FB0022824B3F
S315080004801BF0B8F91BF006FE074673A3D3E9002351
S31508000490404649461BF064FB8046894638461BF0B1
S315080004A0F5FA6FA3D3E900231BF05AFB02460B4665
S315080004B0404649461BF09CF98046894602460B464B
S315080004C01BF04EFBCDE90C0107F2FF370021002295
S315080004D0CDE90A123B050B9300230A9342464B4685
S315080004E0404649461BF086F9CDE90E0142464B4681
S315080004F000204FF080411BF07BF980468946002298
S31508000500624BDDE90C011BF055FC0022604B1BF029
S3150800051071F902460B46DDE90C011BF04BFC002283
S315080005205C4B1BF067F902460B46DDE90C011BF034
S3150800053041FC02460B46404649461BF05BF902461B
S315080005400B46DDE90E011BF035FC0022524B1BF071
S3150800055051F9DDE90A231BF003FB8046894649EC7D
S31508000560188BDDE906231BF08BFD40B1013E002206
S31508000570474B404649461BF01DFC41EC180B06F15B
S315080005806303C62B3BD80427209B13F4006F40D087
S3150800059035A3D3E90023DDE90689404649461BF021
S315080005A065FD00283BD032A3D3E9002340464946DF
S315080005B01BF048FD002832D01E9BB34221DD9E1B4E
S315080005C0731E1E931FE0209B02931F9B01931E9B85
S315080005D000939DED080B2B465A462146504600F0DF
S315080005E0CBF813B0BDEC028BBDE8F08F9FED227BF4
S315080005F08DED067B069607F100430793FEE6052771
S31508000600C2E700231E93209B43F4806320930027B0
S315080006103E461F9B9F4241D2A3EB070840E01E9B24
S31508000620002BF6D0119B002BF3D01E9B013B1E938B
S31508000630EFE700BFAFF30080FB799F501344D33F29
S31508000640B3C8608B288AC63F61436F63A787D23FCA
S3150800065071A379094F930A401655B5BBB16B024091
S31508000660EF39FAFE422EE63F2D431CEBE2361A3FDF
S315080006700000000080842E410000000000000000F9
S31508000680FFFFEF7F0000F83F0000E03F00002C402E
S3150800069000002440000018400000F03F4FF000081A
S315080006A0209B13F0020902D00FB14FF000083EB1AB
S315080006B053EC182BDDE906011BF07CFBCDE906019E
S315080006C000220023DDE908011BF0BCFC00283BD111
S315080006D0209B23F400630293CDF804801E9B0093AD
S315080006E09DED060B2B465A462146504600F044F827
S315080006F0002F3FF476AF209B13F0200F2CD04FF03D
S31508000700450C00F101082B46024621466046D047B3
S3150800071086EAE672A2EBE67205230593013F049783
S31508000720002303930A230293F30F019300922B46A7
S3150800073042462146504622F020FFB9F1000F3FF409
S3150800074050AF02461F9F10E0DDE90601024601F19F
S315080007500043CDE90623BBE74FF0650CD1E7561CED
S315080007602B4621462020D0473246A2EB0B03BB423C
S31508000770F5D3104635E700BF2DE9F04F2DED028B76
S3150800078093B00590089192469B4659EC108B1E9D96
S3150800079042464B46404649461BF04AFC002840D094
S315080007A04FF0FF326FF48013404649461BF04AFC6F
S315080007B0002845D14FF0FF32B14B404649461BF061
S315080007C05FFC00284BD1AAA3D3E90023404649463B
S315080007D01BF056FC00285AD1A7A3D3E900234046AC
S315080007E049461BF02FFC002851D100220023404621
S315080007F049461BF027FC002857D100230993209B64
S3150800080013F4806F5CD000241F2C5BD8092D59D9AE
S3150800081004F148036B44302203F8202C013D0134CF
S31508000820F2E7209B03931F9B029303230193954BA7
S3150800083000935B4652460899059822F0C4FD10E1DC
S31508000840209B03931F9B0293042301938E4B0093D3
S315080008505B4652460899059822F0B5FD01E1209BB2
S3150800086013F004030FD0894A7BB10423209903911E
S315080008701F990291019300925B4652460899059882
S3150800088022F0A1FDEDE0824AEEE70323EEE7209B86
S3150800089002931F9B0193009549EC108B5B465246C9
S315080008A008990598FFF770FDDBE042464B460020A5
S315080008B000211AF09DFF80468946012309939EE789
S315080008C00625A0E7404649461BF0E4FB06461BF012
S315080008D0DDF802460B46404649461AF089FF6D4B3D
S315080008E003EBC50393ED008B53EC182B1BF038F97B
S315080008F002460B46CDE906231BF0F4FB07461BF020
S31508000900B5F802460B46DDE906011AF071FF024604
S315080009100B46CDE9062300225F4B1BF0B1FB50B313
S31508000920013738461BF0A2F802460B4651EC180B65
S315080009301BF092FB08B10136002755BB30461BF069
S31508000940A5F802460B46404649461AF051FF80462E
S3150800095089460022504B1BF075FB38B100224E4BDE
S31508000960404649461BF08CFB002842D016F0010F82
S315080009703FD001363DE00022474BDDE906011BF07A
S3150800098061FB0028D9D117B117F0010FD5D001376F
S31508000990D3E71F2C17D8013D404BA3FB0723DB08E1
S315080009A0194603EB8303A7EB4303621C303304F1B8
S315080009B048000DEB000404F8203C092F02D90F4625
S315080009C01446E6E714461F2C0AD86B1E45B104F1F7
S315080009D048026A44302102F8201C1D460134F2E719
S315080009E01F2C06D804F148036B442E2203F8202C4A
S315080009F001341F2C17D82A4A82FB0632F317C3EB99
S31508000A00A2031A4603EB8303A6EB4303611C3033A8
S31508000A1004F148000DEB000404F8203C16460AB120
S31508000A200C46E6E70C46209B03F00303012B39D05E
S31508000A301F2C09D8099B002B51D004F148036B449D
S31508000A402D2203F8202C0134209B03931F9B02932D
S31508000A5001940AAB00935B4652460899059822F022
S31508000A60B2FC13B0BDEC028BBDE8F08FAFF300808B
S31508000A700000000065CDCD410000000065CDCDC168
S31508000A80FFFFEF7F688802086C8802085C88020806
S31508000A9064880208788802080000E03FCDCCCCCCF8
S31508000AA0676666661F9BB3B1099B1BB9209B13F04B
S31508000AB00C0F12D01F9B013B1F93194606E004F149
S31508000AC048036B44302203F8202C01348C42AFD201
S31508000AD01F2CF4D9ACE71F99F8E71F99F6E7209B76
S31508000AE013F0040F07D004F148036B442B2203F8D4
S31508000AF0202C0134A8E7209B13F0080FA4D004F19A
S31508000B0048036B44202203F8202C01349CE700BFDD
S31508000B1038B50D46044625F004FF064A13889BB2ED
S31508000B202DB123431380BDE8384025F0F5BE23EAEE
S31508000B300403F7E7204B00200022034B01214FF462
S31508000B4080709A70E4E700BF204B00207FB54E689E
S31508000B5002A9044623F0ABFB9DF808300C2B19D1EB
S31508000B60134BB3F90050134B9E4218D807F09AFC62
S31508000B7003460068694600909B882046ADF8043015
S31508000B8023F082FB70B140F25F620B490B480DF00F
S31508000B902FFDFEE7204613F02DFB0546E3E71EF082
S31508000BA0A0FFE5E72946204623F054FB04B070BDB4
S31508000BB0F6500020FFC99A3B218B0208EC880208F0
S31508000BC0002330B5134C85B0CDE901330393237860
S31508000BD08DF8043025F0A5FEA288E38805469A42DA
S31508000BE00DD0E188A06801AAA18023F0E9F958B1DF
S31508000BF040F2DA62084909480DF0FAFCFEE7A068F7
S31508000C0023F0B7F90128ECD0284625F085FE05B073
S31508000C1030BD00BF1C550020218B0208EC88020855
S31508000C2038B50F4C656835B940F2C7720D490E489C
S31508000C300DF0DEFCFEE722F075FD284410F028FCD6
S31508000C4000F00700032809D164680921204622F02C
S31508000C5085FE205C031F5842584138BD0020FCE73A
S31508000C60204B0020218B0208EC88020808B5114B9E
S31508000C709A78042A06D040F28E520F490F480DF092
S31508000C80B7FCFEE71B881B0706D440F28F520A49B9
S31508000C900A480DF0ADFCFEE700210820FFF738FFF3
S31508000CA00222074B98681A7313F05EF8BDE80840ED
S31508000CB021F03CB9204B0020218B0208EC88020861
S31508000CC01C55002010B5084CA06813F04DF8A06814
S31508000CD023F04FF9012806D00122A0681146BDE885
S31508000CE0104023F048B910BD1C55002038B5194DE1
S31508000CF0AB7833B140F22B72174918480DF078FCDF
S31508000D00FEE725F00EFE2988044611F0060109D0F3
S31508000D1001214FF48070FFF7FBFE2046BDE83840FE
S31508000D2025F0FABD4FF48070FFF7F2FE12F06EF967
S31508000D30012805D010F0FD0F05D1FFF741FFECE7BC
S31508000D40FFF7C0FFE9E740F24172034903480DF097
S31508000D504FFCFEE7204B0020218B0208EC88020896
S31508000D6070B50446064D95F90860FFF7BFFF12F007
S31508000D704BF8314620466A68BDE8704011F07CBEE3
S31508000D80204B002008B50A4B1B88DB0606D440F228
S31508000D90A752084908480DF02BFCFEE70021102051
S31508000DA0FFF7B6FE12F0AEF9BDE8084021F0BEB86E
S31508000DB0204B0020218B0208EC8802080D4B10B549
S31508000DC01B8804469B0713D500210220FFF7A0FEC7
S31508000DD0094B5A7BFF2A06D040F2E54207490848E4
S31508000DE00DF006FCFEE75C73BDE8104021F09EB8E6
S31508000DF010BD00BF204B00201C550020218B020887
S31508000E00EC8802087047704707B5ADF8061001462A
S31508000E1030B94FF4B572104910480DF0E9FBFEE7FA
S31508000E20BDF8063033B940F26B120B490B480DF08A
S31508000E30DFFBFEE70A4B0DF10602986823F0EEFA8F
S31508000E4030B140F26D12044904480DF0D1FBFEE7BB
S31508000E5003B05DF804FB00BF218B0208EC8802088A
S31508000E601C55002010B50E4CA37833B14FF4EA7226
S31508000E700C490D480DF0BCFBFEE7606019B1A17B7B
S31508000E80003918BF01212020FFF742FE074B08480A
S31508000E909B7B23760223A370BDE8104010F0C4B9EB
S31508000EA0204B0020218B0208EC8802081C550020E4
S31508000EB03C4B002008B50BF0C9FE80F00100C0B21B
S31508000EC008BD0A4B9A780AB1062A0CD11B8803F486
S31508000ED08B7343B9064B5A7BFF2A04D1187BFF381C
S31508000EE018BF012070470120704700BF204B002023
S31508000EF01C55002008B50BF099FE0028FBD108BD4B
S31508000F000C4B42889A8142789A730278DA738288FF
S31508000F101A82C2885A82C2685A61017A064A91734D
S31508000F20028A998C914204D001214FF400709A8468
S31508000F30EEE57047204B00201C550020094B9A8986
S31508000F4042809A7B4270DA7B02701A8A82805A8AB9
S31508000F50C2805A699B8CC260034A0382927B0272E2
S31508000F60704700BF204B00201C5500204B1E012B4C
S31508000F7070B50C4606D940F2B7221A491A480DF040
S31508000F8037FBFEE7194D0A460146A86823F070FAB2
S31508000F9030B140F2B922134913480DF029FBFEE798
S31508000FA0AE6810F0B5F822460146304623F05AFAE4
S31508000FB030B140F2BD220B490B480DF019FBFEE794
S31508000FC0AD6810F0B1F822460146284623F056FAD5
S31508000FD030B140F2C122034903480DF009FBFEE790
S31508000FE070BD00BF218B0208EC8802081C55002042
S31508000FF0054BDB7B1B0913F00E0003D0052B8CBFBA
S3150800100000200120704700BF1C550020044BDB7BE5
S315080010101B0913F00E0F0CBF01200020704700BFFC
S315080010201C5500202DE9F04F15469A0580461F46A7
S315080010308FB003D501218020FFF76AFDEB014FF041
S31508001040000955D5984C23889E0751D5974E737B32
S31508001050FF2B06D040F2AF42954996480DF0C8FAE4
S31508001060FEE7636833B94FF49662914991480DF0EB
S31508001070BFFAFEE749460220FFF74AFDA37886F83D
S315080010800D90042B03D101210820FFF741FD002311
S31508001090B06808A98DF82C3023F00BF930B140F26E
S315080010A0BA42834983480DF0A3FAFEE7FFF7A0FF8B
S315080010B0B0B922F037FB8146606822F03EFB08A9EA
S315080010C08144B068ADF8249023F0F6F830B140F2C8
S315080010D0C242774977480DF08BFAFEE7089BA36270
S315080010E0A378032B02D1B06812F03EFE20F01EFF53
S315080010F0B80702D50120FFF761FE15F0A84F02D008
S315080011000220FFF75BFEA90220D50021402003AC90
S31508001110FFF7FEFC2146404623F0C8F9B0B99DF812
S31508001120143008AA022B22D18DF82830BDF80C30CD
S31508001130ADF82030104611F071FE38B1404623F064
S31508001140B3F918B901214020FFF7E2FC2A0753D565
S31508001150564E0321B06803AA23F062F9814688B97E
S3150800116040F2FE42524953480DF042FAFEE7032B7D
S3150800117005BF8DF82830D4E900018DF82800C2E9AA
S315080011800001D7E79DF80C30B068072B40F01F81A7
S31508001190494608AA23F046F930B140F201524449BB
S315080011A044480DF025FAFEE7FFF722FFBDF80E20AA
S315080011B0A0B9FFF72BFF78B1043292B2B06808A93C
S315080011C0ADF8242023F030F940B140F212523849E4
S315080011D038480DF00DFAFEE70232EEE7BDF80E00CC
S315080011E00121073080B225F0D7FA8246002842D17D
S315080011F001210C2012F04CFDA90705D52A4B1B88A6
S315080012001A0701D5FFF732FDAB010BD500210420E3
S31508001210FFF77EFC244B9B78012B03D1234B986860
S3150800122012F0A2FD15F0284F03D000210420FFF785
S315080012306FFC7E060CD51C4C23881D0701D5FFF7CD
S3150800124015FD2388580703D500210420FFF760FC05
S31508001250F90540F1D88003A9404608AA22F087FE7E
S315080012600146002800F0BA8040F2D25210491148CF
S315080012700DF0BEF9FEE74FF0000B25F011FACDF898
S3150800128000B00246BDF80E3004464946B06823F061
S31508001290CFF8BDF80E3083420ED040F222520449F0
S315080012A004480DF0A5F9FEE7204B00201C55002048
S315080012B0218B0208EC88020822F034FA204410F048
S315080012C0E7F800F007000228DFF8589124D199F8CA
S315080012D00230042B90D122F025FA504B2044827814
S315080012E01B789A4288D159460820FFF711FC22F04C
S315080012F019FA204410F0CCF89DF82E30C0F30010EF
S31508001300307389F80830FFF78BFC00287FF474AF38
S31508001310B06812F029FD6FE722F004FA204410F0B5
S31508001320B7F883064AD522F0FDF9204410F0B0F844
S3150800133000F0070003280BD10921204622F00EFBF6
S3150800134014F800B0ABF1040CDCF1000B4BEB0C0B02
S3150800135001210420FFF7DCFBB06823F07CF8C9F80C
S315080013602C00BBF1000F30D0B9F8003058062CD548
S3150800137000214020FFF7CCFB0126BDF80E309DF872
S315080013802E200120E254BDF80E309DF82F2023446C
S315080013909A71BDF80E10089A0131214410F086F8AA
S315080013A0BDF80E3050461C44667125F04DFA1C4BAC
S315080013B0187810F03FF820F0B9FD1DE799F80230CB
S315080013C0012B02D1B06812F0CFFC0026D5E723F036
S315080013D00BF84946B06823F029F80DE79DF80C305C
S315080013E003F0BF02032A01D0022B0FD10D4C23882C
S315080013F05A0702D50420FFF78BFB23889B0702D5E3
S315080014000120FFF7DBFC0FB0BDE8F08F4FF4BF6299
S31508001410054906480DF0ECF8FEE700BF8D4B0020A5
S31508001420B04A0020204B0020218B0208EC880208D5
S3150800143008B50246FFF7DCFD30B1072A06D80020BA
S31508001440034B83F8302008BD7020FCE70220FAE73A
S31508001450204B002008B50246FFF7CAFD28B1002038
S31508001460034B93F83030137008BD7020FCE700BFBB
S31508001470204B002008B5074B01460022986822F049
S31508001480F7FF30B140F2EB22034904480DF0B0F8FB
S31508001490FEE708BD1C550020218B0208EC880208CF
S315080014A008B5074B01460022986822F0DBFF30B1E9
S315080014B040F2F122034904480DF09AF8FEE708BD08
S315080014C01C550020218B0208EC88020808B5074B3A
S315080014D00146986822F0D8FF30B140F2F722044955
S315080014E004480DF085F8FEE708BD00BF1C5500202E
S315080014F0218B0208EC88020808B5074B9B7833B1A4
S3150800150040F20132054906480DF072F8FEE7BDE8DB
S315080015100840FFF7EBBB00BF204B0020218B0208D9
S31508001520EC88020808B5054B0146986822F092FE39
S31508001530002814BF8B20002008BD00BF1C550020C2
S31508001540014B986812F056BE1C550020014BD888EE
S31508001550704700BF1C5500207FB50123ADF80E303B
S315080015604FF6FE7309480093806800230DF10E02BA
S3150800157004A922F0FCFD212800D020B9BDF81000EE
S3150800158007B05DF804FB4FF6FF70F9E71C5500201D
S3150800159008B5044B0146986822F09DFDB0FA80F024
S315080015A0400908BD1C55002038B50B4D0446AB78DC
S315080015B0012B0DD8FFF7ECFF60B1084BDC80AB7848
S315080015C01BB9FFF793FB002038BDFFF7F9FAFAE7D6
S315080015D03E20F9E78A20F7E7204B00201C5500201B
S315080015E0024B9B780BB9FFF781BB7047204B002055
S315080015F0014BD873704700BF204B002008B5064B37
S315080016004FF0FF31986822F0DFFC0028B8BF03309E
S3150800161040F3870008BD00BF1C55002008B5044BE1
S31508001620986822F054FD034BB3FBF0F080B208BD76
S315080016301C55002040420F0030B58DB02C220446C0
S31508001640002101A823F03DFC01234FF002328DF85A
S3150800165008306423CDE9032306930B238DF82C3039
S31508001660214B9B8CADF80A30FFF7C2FCA8B140F2BB
S31508001670F23307934FF47A7305930CB9FFF722FBFD
S315080016801A4D01A9A86812F089FEC0B140F2AC62F1
S31508001690174918480CF0ACFFFEE7FFF7BFFF0C230D
S315080016A04343902B0793A3F10A02D8BF91230592CF
S315080016B0D8BF0793059B8B2BDFD88C23DCE7FFF776
S315080016C0A5FC60B10122A868114622F0EBFE30B1F4
S315080016D040F2AF62064907480CF08AFFFEE70CB9EC
S315080016E0FFF704FB0DB030BD204B00201C55002031
S315080016F0218B0208EC880208F8B525F012F9554C3A
S3150800170006462388D90503D5A37843BBFFF7EEFA27
S31508001710514D6B7BFF2B13D06B7B03F0FF0723BB6D
S31508001720FF236B73A378032B0AD100233046A370DB
S3150800173025F0F2F83846FFF713FB25F0F2F80646CF
S31508001740A378042B08D12B7BFF2B05D02B7B022BF0
S3150800175014D142480FF068FDFF232B7327E00021C0
S315080017604FF48070FFF7D4F9D2E76B7B012B4FF06B
S31508001770FF0314BF89278D276B73D6E72B7B13B11D
S315080017802B7B012B1ED1FFF74BFA0022FF212B7B67
S315080017900746DBB222772973002847D0012B0AD1E6
S315080017A064212E48A3700FF04AFDFFF709FA304668
S315080017B025F0B2F806E03046A27025F0ADF83120E3
S315080017C0FFF7CEFA23881A0608D500218020FFF7EE
S315080017D09FF9A86822F0A9FD11F075FC23889B05DE
S315080017E007D54FF400700021FFF792F90020FFF7A4
S315080017F023FF0BF01BFA608620B324F051FF01216A
S315080018000546002012F044FAA678012E14D10026C7
S315080018102677A670FFF76AFA284611F04FF8A378DC
S3150800182066867BB9BDE8F84011F0EEBAA07030467E
S3150800183025F072F83846C3E72EB1284611F03EF86F
S3150800184000236386F8BDFFF751FA284611F036F8EB
S315080018506686F7E7204B00201C5500203C4B0020ED
S315080018608B4BF0B51B888B4C8B4D63848B4B85B0AB
S315080018701B68E3628A4B1B8823848A4B1B68A36216
S315080018802B88DB0700F1FC8001210846FFF740F9A9
S315080018900523854A04F1100104F10800AB7012F023
S315080018A025FA28B1F522814981480CF0A1FEFEE708
S315080018B0A3682BB9F7227D497D480CF099FEFEE70F
S315080018C07C4822F09CFB70A3D3E90023CDE90023D2
S315080018D04FF0FF324FF0FF33A06822F03FFC4FF481
S315080018E08811A06812F0FEFC014630B140F20F12D2
S315080018F06E496F480CF07CFEFEE76F4B1B78012B98
S315080019000ED16E4AA06812F0BFFAA06812F074FDF4
S31508001910E0B140F21B12654965480CF069FEFEE726
S31508001920674E316831B94FF48F72604960480CF0E0
S315080019305FFEFEE7614AA06812F0A6FA33689B6864
S3150800194023B1DB6913B15B7803B1E373FFF704FED8
S315080019500146E080A06812F013FC064630B140F25A
S315080019602D12524952480CF043FEFEE7554B012012
S315080019701B78C3EB431203EB8203DB00AB84FFF750
S315080019805BFEA7680FF0D0FB32460146384622F0C8
S3150800199075FD064630B140F23312444944480CF00E
S315080019A027FEFEE740F203530427AB81464BAF738D
S315080019B01B78EB73FFF732FE00EB80039B002B824C
S315080019C0FFF72CFEC00068823946A0686E6122F0D7
S315080019D06DFB30B14FF4A172344935480CF008FE5E
S315080019E0FEE73A46A06803A922F0F3FB042806D0CE
S315080019F04FF4A3722D492E480CF0FAFDFEE703A911
S31508001A0001200FF061FD0AF097FE08224FF0FF3122
S31508001A10A06822F0B4FB30B140F24F1223492448A3
S31508001A200CF0E6FDFEE712F067FE30B140F2551203
S31508001A301E491F480CF0DCFDFEE7FFF7D9FA68B12E
S31508001A401EF051F80146A06822F01EFC30B140F2A3
S31508001A505912164916480CF0CBFDFEE7A468FFF7A5
S31508001A607BFD1A4B014603F10C02204622F0AAFA26
S31508001A7030B14FF4B0720D490D480CF0B9FDFEE7D0
S31508001A8005B0F0BDAFF300800A0020FF4203000056
S31508001A90188E02081C550020204B00201C8E0208B8
S31508001AA01A8E0208208E0208390B0008218B0208BC
S31508001AB0EC880208690345EC714B00204D0B0008C1
S31508001AC044540020C0560020BF5600204C8B020804
S31508001AD008B5044B986822F0FCFA034BB3FBF0F008
S31508001AE080B208BD1C55002040420F002DE9F04386
S31508001AF08C4D87B02B889B0706D440F24C728A49D6
S31508001B008A480CF075FDFEE7AB78033B012B06D936
S31508001B1040F24E72844985480CF06AFDFEE76A6811
S31508001B2032B940F25172804980480CF061FDFEE7F7
S31508001B307F4E2C88F77B14F0200418BF4FF47A7474
S31508001B404FEA1718FFF754FA00287DD0B8F1020FAC
S31508001B500AD0A8F10303022B74D940F265727249C0
S31508001B6072480CF045FDFEE7032795F8303008EB80
S31508001B70C80898446F4B104603EB4803B3F81C801B
S31508001B8021F0DBFD4FF4FA534343B3FBF8F3782215
S31508001B907733B3FBF2F31F44C7EB0717AB78FF00A5
S31508001BA0BFB204F5347417FA84F4042BA4B203D133
S31508001BB007F6E8072744BCB2D5F8048021F0B2FD41
S31508001BC00746686821F0B9FD074421F0D1FDBFB288
S31508001BD03F1A21F0A7FD40440FF05AFC7378C0F372
S31508001BE040198DF80C30544BBFB2CDE904340024AB
S31508001BF021F0CAFD009402463B464146B06822F0F1
S31508001C00F5FB287EB278737812FB00F29342C4BFC4
S31508001C109B1ADCB22B88F18813F0200FB068B180CC
S31508001C208DF80C4003AB76D000934A46434B22F01E
S31508001C30BEF9002873D040F224723B493B480CF0A9
S31508001C40D7FCFEE7062790E7FFF7E0F9002846D01D
S31508001C50384B07F00F0708EBC801394403EB41037B
S31508001C601046B3F81C9021F068FDB8F1000F2CD08F
S31508001C70B8F1010F2CD14FF00408400080B2F319D7
S31508001C8093F834304BB14FF4FA52023303444344C9
S31508001C909BB25343B3FBF9F39CB2AB78042B8BD1BD
S31508001CA0FFF7BCFC374497F834308146053398442F
S31508001CB0FFF70EFF0C2308FB00F003FB09F909EBFD
S31508001CC0C009A1441FFA89F476E74FF00208D6E75F
S31508001CD040F28672144915480CF08AFCFEE7FFF7B5
S31508001CE0F7FE0746686821F028FD09307843AB7887
S31508001CF004EBC000042B84B27FF45EAFFFF78EFCC2
S31508001D000746FFF7E5FE602358430C2303FB07004D
S31508001D10204484B250E74A4622F047F989E707B0DB
S31508001D20BDE8F083204B0020218B0208EC880208CE
S31508001D301C5500204C8B020820A107002C4B0020C4
S31508001D40F8B5494C258815F0020506D040F27512FB
S31508001D50464947480CF04CFCFEE7257724F0E1FDA0
S31508001D60238806465A070CD5424B986822F073FB1F
S31508001D70E36AC01AA38C984203D929460420FEF7C1
S31508001D80C7FE304624F0C8FDA778022F37D124F0C5
S31508001D90C8FD2388064613F0040507D036480FF019
S31508001DA043FA3046BDE8F84024F0B6BD24F0B4FD49
S31508001DB0606811F063F820B1A570BDE8F840FEF739
S31508001DC0CFBF24F0AEFD6668054621F0ABFC304473
S31508001DD00FF05EFB10F0200F0CBF03230423012134
S31508001DE03846A370FEF794FEFFF780FE284624F0D7
S31508001DF093FD01210846BDE8F84011F049BF042FBC
S31508001E0027D11C4B1B7BFF2B2DD1237EF3B124F04E
S31508001E1088FD238805465B0704D517480FF004FAA2
S31508001E202846BFE724F078FD237E013B237624F07D
S31508001E3078FD044601210220FEF76AFEFFF756FEEA
S31508001E40204624F069FD01210820D4E74020A3702C
S31508001E50B3E7012F07D10023A370064B986811F04A
S31508001E6083FF3120A9E7F8BD204B0020218B02080B
S31508001E70EC8802081C5500203C4B002038B501218F
S31508001E8004461020FEF744FE064B9D68FFF7C6FB86
S31508001E90012200FB04F1044B284622F071F80020C9
S31508001EA038BD00BF1C550020850D000808B50A4B33
S31508001EB01B88DB0606D44FF46172084908480CF003
S31508001EC097FBFEE710200021FEF722FE054B9868D7
S31508001ED0BDE8084022F062B8204B0020218B02089A
S31508001EE0EC8802081C55002038B50E4D688E30B9AE
S31508001EF040F291320C490D480CF07AFBFEE724F0CB
S31508001F00CFFB0446688E24F0E9FB811F214401209B
S31508001F100FF0DAFA064B0446986822F09CFA001B82
S31508001F2038BD00BF204B0020218B0208EC88020830
S31508001F301C55002010B5084C636833B94FF4687215
S31508001F40064907480CF054FBFEE7064B986822F052
S31508001F5082FAA36AC01A10BD204B0020218B020802
S31508001F60EC8802081C55002038B50A4D688E30B931
S31508001F7040F2AA32084909480CF03AFBFEE724F079
S31508001F808FFB0446688E24F0A9FB044414F8020C5F
S31508001F9038BD00BF204B0020218B0208EC880208C0
S31508001FA038B50A4D688E30B940F2B9320849094841
S31508001FB00CF01EFBFEE724F073FB0446688E24F043
S31508001FC08DFB044414F9070C38BD00BF204B0020D4
S31508001FD0218B0208EC88020838B50A4D688E30B99C
S31508001FE04FF47272084909480CF002FBFEE724F028
S31508001FF057FB0446688E24F071FB044414F9010C5F
S3150800200038BD00BF204B0020218B0208EC8802084F
S31508002010024B1888C0F3C010704700BF204B002041
S3150800202030B585B005466C460D4B0FCB84E80F00DE
S315080020300DB12B6800930B4B21460022986812F0CD
S31508002040EFF8044630B140F2E632074907480CF08B
S31508002050CFFAFEE7FEF7B4FD204605B030BD00BF57
S31508002060D48B02081C550020218B0208EC88020834
S3150800207030B5154D87B004460DF10701A86822F062
S315080020806FF830B140F2F732104911480CF0B0FA47
S31508002090FEE79DF80720531EDBB2FD2B0FD90294ED
S315080020A0FF2A00D10394A86802A922F041F940B199
S315080020B040F20442054906480CF09AFAFEE7012A5E
S315080020C0EFE707B030BD00BF1C550020218B020882
S315080020D0EC88020808B5064B986822F038F930B142
S315080020E04FF48262034904480CF082FAFEE708BD01
S315080020F01C550020218B0208EC8802080122024B9D
S315080021001146986821F037BF1C5500207047F8B56E
S31508002110064604200D4621F0E7FA030622D5124F9B
S31508002120BC78FCB926B1012E17D002242046F8BD8A
S3150800213001262846FFF72CFA0028F6D00B4800237C
S3150800214032462946806821F034FF40B14FF48A624E
S31508002150074908480CF04CFAFEE72646E9E7062345
S31508002160BB70E3E77024E1E7204B00201C550020F4
S31508002170218B0208EC880208042010B521F0B4FA75
S31508002180030611D5094CA378062B0DD1084B986880
S3150800219021F011FF30B140F26A42064906480CF0B8
S315080021A027FAFEE7A07010BD7020FCE7204B002040
S315080021B01C550020218B0208EC8802081FB504462E
S315080021C001A811F0F5FF9DF80D3053B14CB1064B3F
S315080021D02078617818700020A27859709A7004B037
S315080021E010BD0220FBE700BF1C5500201FB50446A2
S315080021F001A811F0DDFF9DF80D3053B14CB1002058
S31508002200054B1A7822705A789B786270A37004B0CE
S3150800221010BD0220FBE700BF1C550020FFF7CEBF0C
S31508002220FFF7E4BF0348044B834202D0034B03B1D4
S3150800223018477047D8560020D856002000000000DE
S31508002240064B0749C91A891048BF0131491003D0FE
S31508002250044B0BB101481847704700BFD8560020F9
S31508002260D85600200000000010B5064C237843B964
S31508002270FFF7D8FF044B13B10448AFF300800123DE
S31508002280237010BDB051002000000000C0C702082E
S3150800229008B5054B1BB105490548AFF30080BDE8F5
S315080022A00840FFF7CDBF00BF00000000A0220020B5
S315080022B0C0C70208A3F5803A704700BF174B002B2A
S315080022C008BF134B9D46FFF7F5FF00218B460F46C7
S315080022D01348144A121A22F0F4FD0E4B002B00D0B4
S315080022E098470D4B002B00D098470020002104008A
S315080022F00D000D48002802D00C48AFF300801AF0F4
S3150800230039FC2000290001F00BFA1AF0B9F800BFD1
S315080023100000080000000000000000000020002067
S3150800232000200020205200200000000000000000CD
S3150800233000B583B0074B0122DA60064B5B6913F0E0
S31508002340400FFAD1034968461DF031FA009803B0E8
S315080023505DF804FB0040005910B582B004461AF037
S31508002360F6FF08B902B010BD00230093ADF804309B
S31508002370074B1B88ADF80230ADF8044040F2FF1356
S31508002380ADF80030694604201FF067FEEAE700BF93
S31508002390EC50002008B513460A4601460448006872
S315080023A003F072FA00B908BD02480CF021F9FAE701
S315080023B0D4540020287002080A2800D9704730B57E
S315080023C083B004460D466B4601AA014610480068CC
S315080023D003F0C0F908B9019B23B10E480CF008F9BF
S315080023E003B030BD009B2A4621460948006803F021
S315080023F0F1F840B9214608480CF0FAF8294607488A
S315080024000CF0F6F8ECE7214605480CF0F1F8E7E79A
S31508002410D454002030700208547002087070020804
S31508002420787002080A2800D9704710B50446014694
S31508002430064B186803F0F6FA20B9214604480CF052
S31508002440D7F810BD03480CF0D3F8FAE7D4540020A7
S315080024509C700208B870020838B51B4C63780222D3
S3150800246062F383036370DBB26FF300036370DBB25E
S3150800247062F387136370DBB2012565F30513637096
S31508002480A3786FF30713A370DBB265F38303A37016
S31508002490DBB243F00303A370E0700C4B4FF4FA72FF
S315080024A01A80002128461BF0DEF82A460021284615
S315080024B001F0F4FA20681AF077FF41F28831044BEC
S315080024C018680EF0BCFE38BDBC220020EE50002075
S315080024D01823002008B5294B1B78012B29D0022B7D
S315080024E039D003B108BD264B1B78264A1278B3EBC0
S315080024F0420F05DA244A127C02F01802102A0DD17E
S315080025001F4B00221A70204B197CC1F340111F483B
S315080025101BF0A5F81E4823F08DFDE3E70133184AA2
S315080025201370194B197CC1F3401118481BF087F832
S31508002530D8E7134B1B78134A1278B3EB420F03DA2A
S3150800254001330F4A1370CDE70D4B00221A7010485D
S3150800255023F070FDC6E70A4B1B780A4A1278B3EBDC
S31508002560420F03DA0133064A1370BBE7044B002215
S315080025701A70074823F05EFDB4E700BFB15100208A
S31508002580B3510020B2510020EC220020C08002087E
S31508002590C022002000B583B08C461146074B187040
S315080025A0074B83F800C00123019300230093054AD3
S315080025B0054824F0FEFB03B05DF804FBB15100208A
S315080025C0B2510020D5240008C022002010B50024EE
S315080025D0094B1C80094B197CC1F3401108481BF0B4
S315080025E03EF81AF01EFF214601201BF04AF8054B5B
S315080025F01B681C7010BD00BFEE500020EC220020A6
S31508002600C08002081823002008B506481AF025FFDE
S315080026101AF094FE044B1880044B1B6800221A70AB
S3150800262008BD00BFE0220020B822002014230020A5
S3150800263008B501280FD0022819D000B108BD124BE1
S31508002640197CC1F3401111481BF009F8002101203B
S315080026501BF017F8F2E70C4B197CC1F340110B4835
S315080026601AF0FDFF002101201BF017F8E6E7064BDC
S31508002670197CC1F3401105481AF0F1FF0021012029
S315080026801BF00BF8DAE700BFEC220020C080020836
S3150800269038B5534B1A78172A31D0192A0AD15978DE
S315080026A059759A7259B1012916D001224D4904204B
S315080026B0FFF770FE4C4B1B6800221A7038BDD87B9A
S315080026C0FFF7CAFEC82201210020FFF763FF474B28
S315080026D018680EF0A9FDE8E7414B187CC0F3C10065
S315080026E0FFF7A6FF424B1B6800201870C82202217C
S315080026F0FFF750FF3D4B18680EF096FDD5E7384BAF
S315080027009A725A7B022161F383025A73D2B26FF32B
S3150800271000025A73D2B261F387125A73D2B20121F8
S3150800272061F305125A739A7B6FF307129A73D2B242
S3150800273061F383029A73D2B242F003029A7358780D
S31508002740D87399781A7C61F3C4021A74D3B203F069
S315080027501803102B3BD0224BD9781A7C61F345120B
S315080027601A741F4B1B7C13F0180F36D01C4C20799B
S31508002770204D28701AF0FBFD642202210020FFF785
S3150800278009FF1D4B4FF4FA721A80002101201AF036
S315080027906AFF01220021104601F080F9E0681AF06C
S315080027A003FE012204F110010020FFF7F3FD0122C8
S315080027B004F10F011046FFF7EDFD0122294602201C
S315080027C0FFF7E8FD094B18680EF02EFD72E7044B7B
S315080027D0D2B26FF345121A74C3E7FFF73DFEC5E799
S315080027E0EC2200200123002020230020242300209F
S315080027F018230020B7510020EE50002030B583B0D2
S315080028002A4B5B7D012B04D1284B1B7C13F0180F38
S3150800281040D1002101201AF040FF244C227D9DF86A
S31508002820043062F301038DF80430627D9DF80430AC
S3150800283062F382038DF804301D48162303700422C0
S3150800284042729DF8042042701A4D2A88110A817036
S31508002850C270A3721AF001FE4FF4FA71164B18688B
S315080028600EF0EDFC1AF06AFD2880217CC1F34011B8
S3150800287012481AF0ECFE124BC8221A804FF4FA617D
S31508002880104B18680EF0DBFC0F4B1B6800221A7001
S3150800289003B030BD0C4B1B6800221A70034B187C22
S315080028A0C0F3C100FFF7C4FEF2E700BFEC22002028
S315080028B0E0220020B822002014230020C08002084D
S315080028C0EE500020182300201C23002070B908B5FC
S315080028D0074B1B889BB203B108BD002101201AF0E3
S315080028E0DCFE044B18680EF09FFCF5E7704700BF46
S315080028F0EE5000201C23002008B5044A1AF03DFDBE
S31508002900034B18680EF090FC08BD00BFEC220020AF
S315080029102023002038B504461FF0ABFBA04201D89F
S31508002920012038BD0546032001F0E2F80028F8D05A
S315080029301AF0C7FE1AF0C6FE2B462246034904487B
S3150800294000681EF0C8F90020EBE700BFD070020847
S315080029503C27002030B583B004468368C26853F824
S3150800296022301D882846FFF7D5FF08B903B030BDC9
S3150800297000230093ADF80430164B1B88ADF80230DF
S31508002980ADF804506368E2689B1A012B1DDDA36845
S31508002990013253F822301B88ADF800301FF059FB7E
S315080029A0694603201FF059FB0446032001F0A0F8EE
S315080029B00028DBD01AF085FE1AF084FE2246064966
S315080029C0064B18681EF087F9D0E740F2FF13ADF8FA
S315080029D00030E3E7F0500020087102083C27002089
S315080029E030B583B004468368C26853F822301D8820
S315080029F02846FFF78FFF08B903B030BD00230093C0
S31508002A00ADF80430154B1B88ADF80230ADF804500C
S31508002A106368E2689B1A012B1BDDA368013253F831
S31508002A2022301B88ADF80030694604201FF015FBDC
S31508002A300446032001F05CF80028DDD01AF041FEB8
S31508002A401AF040FE22460649064B18681EF043F95E
S31508002A50D2E740F2FF13ADF80030E5E7F05000206A
S31508002A60287102083C27002030B583B004468368E5
S31508002A70C26853F822301D882846FFF74BFF08B96D
S31508002A8003B030BD00230093ADF80430154B1B8806
S31508002A90ADF80230ADF804506368E2689B1A012B62
S31508002AA01BDDA368013253F822301B88ADF80030CD
S31508002AB0694602201FF0D1FA0446032001F018F8EF
S31508002AC00028DDD01AF0FDFD1AF0FCFD2246064965
S31508002AD0064B18681EF0FFF8D2E740F2FF13ADF870
S31508002AE00030E5E7F05000203C7102083C27002042
S31508002AF030B583B08368C26853F822301C78002347
S31508002B00019343689B1A012B19DD01AA01211DF0C7
S31508002B10AFFB01469DF804001FF097FA054680B101
S31508002B20022000F0E5FF60B11AF0CBFD1AF0CAFDED
S31508002B302A460649064B18681EF0CDF801E01FF034
S31508002B4088FA20461FF08DFA03B030BD5871020886
S31508002B503C27002010B503468168C26851F8220058
S31508002B60B0F900001A4C20805B689B1A012B0FDD18
S31508002B70013251F8223093F90010003918BF0121AB
S31508002B801FF014FAA0B9032000F0B2FF10B910BD67
S31508002B900021F5E71AF095FD1AF094FD0D4B1C6817
S31508002BA01FF008FA02460C4920461EF094F8EEE794
S31508002BB0012000F09DFF0028E9D01AF082FD1AF0E6
S31508002BC081FD0649034B18681EF085F8DFE700BF4C
S31508002BD0F05000203C270020BC710208D071020882
S31508002BE008B51FF0D7F9032000F082FF00B908BD29
S31508002BF01AF067FD1AF066FD0249034B18681EF0C5
S31508002C006AF8F4E7E87102083C27002008B58368EB
S31508002C10C26853F822301A88094B1A80032000F03C
S31508002C2067FF00B908BD1AF04CFD1AF04BFD044BBE
S31508002C301A880449044B18681EF04DF8F2E700BFDD
S31508002C403C560020087202083C27002008B5024BB3
S31508002C5018680EF0E9FA08BD242300202DE9F04192
S31508002C6086B01FF0B3F90446894B1B7813F0020FA0
S31508002C702CD0884E13F0010F2AD0864F13F0040F7C
S31508002C8028D0DFF81082032000F032FF28BB03208B
S31508002C9000F02EFF58BB032000F02AFF002835D18C
S31508002CA0032000F025FF00283ED1032000F020FF76
S31508002CB0002847D1032000F01BFF00285ED103201F
S31508002CC000F016FF002867D1002471E0724ED1E7A4
S31508002CD0714FD3E7DFF8C081D5E71AF0F2FC1AF096
S31508002CE0F1FC6E496E4B18681DF0F5FFCFE71AF038
S31508002CF0E8FC1AF0E7FC6A4B1D6805F0A3F80246E3
S31508002D000B46684928461DF0E6FFC4E71AF0D9FCC9
S31508002D101AF0D8FC624B1D681FF030F9024662496A
S31508002D2028461DF0D8FFBBE71AF0CBFC1AF0CAFC00
S31508002D305B4B1D681FF056F902465C4928461DF094
S31508002D40CAFFB2E71AF0BDFC1AF0BCFCE279A37917
S31508002D5061792079E57894F802C094F801E024783E
S31508002D600594CDF810E0CDF80CC0029501900091BD
S31508002D704F494B4800681DF0AEFF9BE71AF0A1FCCF
S31508002D801AF0A0FC464B1C681FF024F90246494974
S31508002D9020461DF0A0FF92E71AF093FC1AF092FC69
S31508002DA045493F4B18681DF096FF8DE70134E4B29C
S31508002DB0072C12D8032000F09BFE0028F6D01AF044
S31508002DC080FC1AF07FFC364B1D681FF0FFF8025D89
S31508002DD03A4928461DF07FFFE8E7032000F088FE01
S31508002DE098B9032000F084FEC8B9032000F080FEDD
S31508002DF018BB032000F07CFE68BB032000F078FEB9
S31508002E00002836D106B0BDE8F0811AF05AFC1AF04F
S31508002E1059FC2B49224B18681DF05DFFE1E71AF0B3
S31508002E2050FC1AF04FFC1E4B1C681FF0D7F80246E0
S31508002E30244920461DF04FFFD7E71AF042FC1AF046
S31508002E4041FC174B1C681FF0ADF802461E49204688
S31508002E501DF041FFCDE71AF034FC1AF033FC104B95
S31508002E601C681FF0A7F80246184920461DF033FFD4
S31508002E70C3E71AF026FC1AF025FCCDF800803B467D
S31508002E8032461349064800681DF025FFBAE700BF19
S31508002E90B25600207071020878710208247202087E
S31508002EA03C2700202C720208487202086472020845
S31508002EB080720208A4720208C0720208D47202085C
S31508002EC06C700208DC720208F872020810730208B5
S31508002ED02873020830B583B08368C26853F8223075
S31508002EE01C7801A920461FF059F888B9032000F07C
S31508002EF0FFFD08B903B030BD1AF0E3FB1AF0E2FB98
S31508002F00019B22460B490C4800681DF0E4FEF1E7D8
S31508002F100546012000F0ECFD0028EBD01AF0D1FBA5
S31508002F201AF0D0FB2A460549034B18681DF0D3FE54
S31508002F30E0E700BF607302083C2700207C730208A4
S31508002F4070B58268C36852F823100C88013352F8AA
S31508002F5023301D78294620461FF073F880B90320D0
S31508002F6000F0C6FD00B970BD1AF0ABFB1AF0AAFB5B
S31508002F702B4622460B490C4800681DF0ACFEF2E7CA
S31508002F800646012000F0B4FD0028ECD01AF099FBA3
S31508002F901AF098FB32460549034B18681DF09BFE4C
S31508002FA0E1E700BFA07302083C270020D07302089F
S31508002FB070B582B08368C26853F822301B78134A0A
S31508002FC0137013F0020F0ED0114C13F0010F0CD032
S31508002FD00F4D13F0040F0AD00D4E032000F088FDA4
S31508002FE038B902B070BD0B4CEFE70A4DF1E7094E50
S31508002FF0F3E71AF066FB1AF065FB00962B462246A5
S315080030000549064800681DF066FEEAE7B256002044
S315080030107071020878710208847102083C27002042
S3150800302030B58FB004460D4668461AF031FA0DF1F0
S31508003030200EEC46BCE80F00AEE80F009CE8030043
S315080030408EE8030008A9464B18681FF008FE10F121
S31508003050880F46D168461AF01BFA0DF1200EEC4689
S31508003060BCE80F00AEE80F009CE803008EE80300FA
S315080030704FF41053ADF820308023ADF822304FF4CA
S315080030804073079307A81AF013FA079B0A93354B60
S315080030900B93334B1A68099B0D9213F0FF0F04D15B
S315080030A023F0FF0343F001030993012309932C4BF3
S315080030B02A46214608A81FF0EFFD044610BB032048
S315080030C000F016FD90B9264B18681EF05FFF0546FE
S315080030D0002831D1032000F00BFD044610BB012463
S315080030E02FE01F4B18681FF091FDB3E71AF0E9FAB5
S315080030F01AF0E8FA1A4B1A681B491C4B18681DF097
S31508003100EAFDE0E7032000F0F3FC0028DBD01AF024
S31508003110D8FA1AF0D7FA22461549144B18681DF042
S31508003120DAFDD0E71AF0CDFA1AF0CCFA11490F4BAE
S3150800313018681DF0D0FD04E0032000F0D9FC044611
S3150800314010B920460FB030BD1AF0BBFA1AF0BAFA19
S315080031502A460949054B18681DF0BDFD0024F0E70D
S315080031600423002000014405007402083C270020BF
S3150800317030740208547402087474020800B583B0E7
S315080031800021019101AA1DF073F8019910290ED0AA
S31508003190032000F0ADFC60B11AF093FA1AF092FA27
S315080031A010220549054B18681DF095FD01E0FFF74B
S315080031B037FF03B05DF804FB947402083C2700202F
S315080031C0022900D0704708B5024B186808B119F0F3
S315080031D071F908BD644B002070B588B0012009F06C
S315080031E043FA414C7823E373237C43F0200323748A
S315080031F0DBB2012565F3C40323743C4E002030700E
S315080032002075657504F11001FFF7D6F804F10F0172
S315080032102846FFF7D1F831460220FFF7CDF804F12A
S3150800322014010320FFF7C8F804F115010420FFF77D
S31508003230C3F81FF030FE2E492E4809F01BF92E4917
S315080032402E4809F017F92E492E4809F013F92E4988
S315080032502E4809F00FF92E492E4809F00BF92E4B86
S315080032601D6002A81AF03BF902A928461FF0F7FCD0
S3150800327010F1880F0DD0284B18681EF087FE1EF037
S31508003280DCFE04462549264808F044FA34B308B05B
S3150800329070BD214B1A68039B079213F0FF0F03D1E9
S315080032A023F0FF032B4303931E4B05934FF4407300
S315080032B0019301A81AF023F9019B04934FF41053C4
S315080032C0ADF808308023ADF80A3001230393124B7A
S315080032D01022154902A81FF0DFFCCCE7054B186839
S315080032E00DF0A2FFD3E700BFEC220020B751002063
S315080032F019340008242300209126000820230020E2
S31508003300FD2700081C230020CD25000818230020CF
S315080033100926000814230020042300203C5400201A
S3150800332008230020000144052C54002008B500207D
S31508003330FFF778F80120FFF775F80220FFF772F813
S315080033400320FFF76FF80420FFF76CF8064B782286
S31508003350DA731A7C42F020021A74002203490A60C2
S315080033601A7501225A7508BDEC220020B7510020B3
S3150800337010B504461AF051FA10B9204B9C4205D0F4
S3150800338020461AF04AFA012808D010BD23F005FD98
S315080033901B4B18601B4B01221A70F1E723F0FDFC4A
S315080033A0184B00221A70164B1B68C01A164B984207
S315080033B00ED84CF24F339842E7D8144B1B7DB3B165
S315080033C0022BE2D1C82202210020FFF7E3F8DCE74E
S315080033D0114601201AF061F90D4B1B6800221A707C
S315080033E0FFF7A4FF19F0BDFF1EF03FFECDE7002052
S315080033F0FEF7B2FF07481AF00FFBC6E7A8800208D7
S3150800340010230020B5510020A0860100EC220020E0
S3150800341018230020C080020800B583B019F08EFF7B
S31508003420474B1B7D022B2ED0032B6AD09BB14548F8
S315080034301AF013F84FF4FA71434B18680DF0FFFEB3
S3150800344019F07CFF414B1880414B1B6800221A700B
S3150800345003B05DF804FB9DF80430012262F304030F
S315080034608DF804309DF804306FF346138DF8043058
S31508003470344B15221A70022159729DF8041059709E
S315080034802F4B9A72D3E72E4A927A192A31D0172AE5
S3150800349033D09DF8002063F301028DF800202849F7
S315080034A04A7D9DF8003062F382038DF800300B7C6C
S315080034B0C3F3C1009DF8002060F3C4028DF8002014
S315080034C0C3F340129DF8003062F345138DF80030BF
S315080034D01C4B06225A729DF800205A701B4A128805
S315080034E0100A9870DA70CA7B1A711A4A12685A71E9
S315080034F09DE7144919200870C9E7124A1721117067
S31508003500C7E70F4B02221A755B7D7BB10C4B5B7DBF
S31508003510012B8CD10A4B1B7C13F0180F0BD0084BD0
S31508003520187CC0F3C100FFF783F880E7044BD87B0B
S31508003530FEF792FFEAE7024BD87BFEF78DFF76E7A8
S31508003540EC220020E022002014230020B8220020CC
S3150800355024230020B7510020014B1878704700BF7C
S31508003560B651002070B50C468B681B78152B06D013
S31508003570184B9A7AA3681B789A4225D070BD154BCA
S315080035801B7D002BF4D1134D287CC0F3C100FFF737
S315080035904FF802232B7501266E752B7C66F3C40340
S315080035A02B74324605F114010320FEF7F3FE32466A
S315080035B005F115010420FEF7EDFE324605F110016E
S315080035C00020FEF7E7FED3E7034B1B6800221A70BC
S315080035D0D4E700BFEC2200201423002010B5903851
S315080035E0062846D8DFE800F00426304545373E0071
S315080035F00124234B1C70C82202210020FEF7CAFFB3
S31508003600204B1C70204B1B7D6BB11F4B1B7D022B67
S3150800361019D11D4B03221A754FF4FA711B4B186802
S315080036200DF00DFE0FE01A4B1988184B18680DF0AF
S3150800363006FEEAE70020124B1870124B1870642237
S315080036400521FEF7A7FF10BD4FF47A72022100206C
S31508003650FEF7A0FFF7E74FF47A7202210020FEF783
S3150800366099FFF0E74FF47A7202210020FEF792FFE5
S31508003670E9E74FF47A7202210020FEF78BFFE2E7B2
S31508003680B4510020B6510020EC220020242300204B
S315080036903C56002008B523F080FB074B1B782BB15E
S315080036A0064B1B68C01A064B984200D808BD054849
S315080036B01AF0B2F9FAE700BFB5510020102300202E
S315080036C0A0860100C080020810B582B0002304223B
S315080036D00121084603F0CEFF01230422062100201B
S315080036E003F0C8FF002301221946104603F0C2FF63
S315080036F0012001900024009403462246214603F047
S315080037004FFF0649204601F073F91B2007F096F98A
S315080037101B201DF08BFA02B010BD00BF35D501087D
S3150800372008B51EF0D7FA00F0ADFAFFF7CDFF19F08D
S31508003730FDFE074B187819F01AFE00F067F91EF01F
S31508003740BBFA1EF0F0FA1EF0B8FA22F03DF9F8E7D7
S31508003750B751002008B5024B1B6803B1984708BD4E
S315080037605823002008B5024B5B6803B1984708BD8B
S315080037705823002008B5024B9B6803B1984708BD3B
S315080037805823002008B5024BDB6803B1984708BDEB
S315080037905823002008B5024B1B6903B1984708BD9A
S315080037A05823002008B5024B5B6903B1984708BD4A
S315080037B05823002000B585B0094B1868094B1860D6
S315080037C0094B0A4A13600A4A01920A4A1268029287
S315080037D0039301A91CF06EFD05B05DF804FB00BF5C
S315080037E06054002084310020545400208031002089
S315080037F0888002082C26002008B5024B18681CF0A1
S315080038006DFD08BD6054002038B507F04DF9044633
S31508003810064D2B68D3F8B00207F03AF928681CF071
S3150800382077FD204607F034F938BD00BF6054002004
S315080038300023062073B1704754B224B9013353B13B
S315080038405DF8044B70470228F8D008680A490860F2
S315080038501046F3E710B4094A52F823100A7A022AE6
S31508003860EAD9032AEAD1441EE4B2012CE6D908684B
S31508003870014908601046E1E72C2600206454002020
S3150800388010B5A2B02024224600211AA821F019FB5F
S31508003890304B1A934FF4E1331C9302238DF875309D
S315080038A003238DF876302C4B1E9306238DF87E3035
S315080038B009238DF8803000211591169117911891DA
S315080038C019914FF480131593244B19931091119164
S315080038D0129113911491224B1093224B14933C226C
S315080038E001A821F0EEFA0DF1040E0DF1540CBCE816
S315080038F00F00AEE80F00DCF80030CEF800300DF10E
S31508003900180E0DF1400CBCE80F00AEE80F00DCF80D
S315080039100030CEF80030144B0B930C9401238DF82D
S3150800392034308DF83530114B0F93114B1AAA01A973
S31508003930104807F065F904469DF837303BB1002179
S315080039404FF4E13019F0DEFE204622B010BD032107
S31508003950F6E700BF90830208808302083C00015BFB
S31508003960010010004400015B302600207854002036
S31508003970502600200C27002008B531B9084B1868D6
S31508003980036823B107F052FD01E0012900D908BDFB
S31508003990034B18680368002BF9D01DF07EFCF6E788
S315080039A08C54002008B50349034807F0B3FEFFF717
S315080039B067FF08BD905400203427002008B5024848
S315080039C01DF0CFF908BD00BF0C27002008B5024836
S315080039D01DF0C7F908BD00BF0C27002008B5024B2B
S315080039E05A6A1868904708BD0C27002008B502488F
S315080039F019F00CFF08BD00BFA880020808B50248E8
S31508003A001AF005F808BD00BFC080020870B590B06E
S31508003A1001212A2002F034FE00250D950E950F95FA
S31508003A201B4E2A461B49304603F0AEFE8DF8390078
S31508003A300DF10C0C184C0FCCACE80F000FCCACE811
S31508003A400F0094E803008CE803004FF4966306938E
S31508003A500195029503238DF806308DF8065001234B
S31508003A608DF800308DF801508DF802508DF803500E
S31508003A7010238DF8013003AA0DA9304603F0C4FEC1
S31508003A806A4601A930461BF053FE10B070BD00BF50
S31508003A900040005940420F00D880020842B9C0B21F
S31508003AA001228A4000EB40000001074B1A5070477C
S31508003AB0012A00D07047C0B201228A4000EB4000BC
S31508003AC00001024B1A50F5E740E0035040D003507E
S31508003AD000B583B00B46054909780191009200228A
S31508003AE001211EF097FA03B05DF804FBB2560020D8
S31508003AF003460B4A107828B10A4A12789A4202D22B
S31508003B00002000E00120084A12783AB1074A1278E4
S31508003B1042FA03F313F0010F00D10020704700BFEB
S31508003B20B5560020B4560020B9510020B3560020DF
S31508003B3008B5084B01221A70074B00221A70074B6A
S31508003B4004221A70064B1F221A7006F0ADFF054BA9
S31508003B50186008BDB5560020B9510020B45600209B
S31508003B60B35600203C27002008B5044822F09BFFE6
S31508003B7019F000FD00F086F808BD00BF788302083A
S31508003B8008B5024822F08FFF08BD00BF78830208F7
S31508003B902DE9F04180460F4601F109050026344615
S31508003BA004E05B21082000F095FA0134AC4233D2D8
S31508003BB0052C1BD801A353F824F000BFA33B00082B
S31508003BC0D53B0008093C0008DD3B0008E13B00083E
S31508003BD0E53B0008FBB20433D9B2E3E78021E1E70D
S31508003BE00021DFE7731C3146DEB2DBE7BB1DA342CB
S31508003BF00CD0FB1DA3420BD007F10803A34209D042
S31508003C00A31F18F80310CDE7D121CBE75A21C9E73E
S31508003C105A21C7E75D21C5E70020BDE8F08100BF4E
S31508003C2000B583B000220092019202218DF800109F
S31508003C30054819F051FD019008216846FFF7A8FFCD
S31508003C4003B05DF804FB00BF006A180000B583B036
S31508003C50044B1B88ADF8043001A800F017FB03B02D
S31508003C605DF804FB0081020800B583B0044B1B888D
S31508003C70ADF8043001A800F0D9FA03B05DF804FBEA
S31508003C80008102082DE9F04F97B04D4D09AC2E1D65
S31508003C900FCE0FC43368236001AC05F118060FCEAA
S31508003CA00FC496E80F0084E80F00464822F0FBFE92
S31508003CB0454822F0F8FE01268DF8096000248DF8A3
S31508003CC00840424B0B9301AB0D93414F09A9384667
S31508003CD01BF0DFFCB5F838B0ADF838B03246042131
S31508003CE00EA800F067FAB5F83CA0ADF83CA022464D
S31508003CF031460FA800F05EFAB5F84090ADF840904E
S31508003D003246042110A800F055FAB5F80080ADF83F
S31508003D1044803246042111A800F04CFA2D4D2E4B52
S31508003D20C5F8F8344FF00213C5F8F434A3F5803318
S31508003D30C5F8FC341C23C5F8E4344FF4487008F081
S31508003D4037FBFFF783FF142008F032FBFFF78CFFE1
S31508003D50232008F02DFBFFF779FFB92138461BF021
S31508003D6080FCFFF781FFADF848B02246214612A82D
S31508003D7000F020FAADF84CA02246214613A800F020
S31508003D8019FAADF850903246214614A800F012FAF6
S31508003D90ADF854803246214615A800F00BFA38468D
S31508003DA003F088F9C5F8E444C5F8F844C5F8F444BE
S31508003DB0C5F8FC44044822F07BFE17B0BDE8F08F36
S31508003DC000810208788302087C830208E07072008A
S31508003DD000000A5000C003500200030008B504485A
S31508003DE0044A121A9210044919F09FFC08BD00BF34
S31508003DF080010008800300082052002008B5154BF2
S31508003E0083F30A8800F030F8FFF7E8FF124A0AE061
S31508003E101068516850F8230041F82300013391686F
S31508003E208B42F5D30C320D4B9A4201D20023F6E7AA
S31508003E300B4A08E01168002041F823000133516855
S31508003E408B42F7D30832074B9A4201D20023F6E792
S31508003E50FEF734FA00000020C8C70208D4C70208D3
S31508003E60D4C70208D4C7020870B5134B134A9A6020
S31508003E70D3F8882042F47002C3F88820104A4FF419
S31508003E80804191660F4D05F500544FF0FF322266CA
S31508003E900D4A62660222C3F8D020BFF34F8FBFF3E4
S31508003EA06F8F002006F0CAFD4FF44036E66000200A
S31508003EB01CF0BCFE2E6170BD00ED00E0000000089D
S31508003EC000900050008000447FFF7F01014B18607E
S31508003ED0704700BFA854002008B5064B1860064B6B
S31508003EE01B6F03F00703032B00D008BD21F070FAFF
S31508003EF0FBE700BFB054002000800050BFF34F8F8F
S31508003F000549CA6802F4E062044B1343CB60BFF369
S31508003F104F8F00BFFDE700BF00ED00E00400FA0583
S31508003F20F0B18446F1B110B409E004F120000FE0C5
S31508003F302033C01A18D1BCB10CF1010C01319CF820
S31508003F4000400B4B1B5D03F00303012BEDD020460D
S31508003F500B78074AD25C02F00302012AE9D1E7E7A7
S31508003F6001207047012070475DF8044B704700BF79
S31508003F708DC6020830B587B00546046823798DF8E2
S31508003F800C3063798DF80D301B4822F08CFD002229
S31508003F90012103A800F00EF90DF10B0103A819F091
S31508003FA0FFFC9DF80B3083F001032370A379022BE5
S31508003FB002D0002007B030BD4FF0FF3305930493BD
S31508003FC000950E4B002205A903A800F02FFA059BC1
S31508003FD0B3F1FF3F07D00095084B012204A903A8B7
S31508003FE000F084F9E5E70095044B042204A903A828
S31508003FF000F07CF9DDE700BF7883020829D80108BC
S3150800400010B582B0002401942A4822F04CFD8DF8A0
S31508004010004003238DF8013001220421684600F090
S31508004020C9F8254B0122C3F8442401A9052022F02A
S3150800403033FD00283BD1214BD3F8F02042F0010292
S31508004040C3F8F020D3F8FC2042F08072C3F8FC20B5
S31508004050A3F55D431A4A1A60019B03F5D52303F2BB
S31508004060FC43DB08174AA2FB03239B0A013B164ABB
S3150800407013610223C2F8F0304FF48073C2F8043398
S315080040804FF06043114AC3F8B02F114AC3F8802E87
S31508004090D3F8002E42F48072C3F8002EFF2283F86C
S315080040A02020D3F8002E22F48072C3F8002E02B026
S315080040B010BD00BF7883020800D0035000ED00E071
S315080040C0FF03004017916502000004E055CEACC519
S315080040D0090001004FF06043D3F8803E13F0010F4A
S315080040E001D1112070470E4AD2F8FC3043F0807394
S315080040F0C2F8FC304FF06043D3F8002E4FF0010CA5
S315080041000CFA00FC42EA0C02C3F8002E53F82030E1
S31508004110002BE8D04FF0604303F8201000207047CA
S3150800412000ED00E010B504460FE00123834024EAC1
S3150800413003040F2814D800EB40020E4B03EB82034E
S315080041405A6812B19968C0B2904794B123460020C4
S315080041501F28EAD813F0010FE7D101305B08F7E70B
S31508004160103800EB40039B00B033024A1344043373
S31508004170E6E710BD4027002008B50D4822F093FC5D
S315080041801A2006F04BFC28B91B2006F047FC40B95C
S31508004190002008BD1A2006F051FC1A201CF046FD26
S315080041A0F2E71B2006F04AFC1B201CF03FFDEFE758
S315080041B0788302082DE9F04170B30C461746054688
S315080041C00F292BD803784BB1022B20D0032B21D0F3
S315080041D0012B01D0002303E07F2301E040F2FF73A7
S315080041E06A78D34013F0010F1AD00F4BD3F8106337
S315080041F0C6B922F096FB80463A462146284603F081
S3150800420067FE404622F088FB3046BDE8F08140F262
S31508004210FF33E5E73F23E3E72226F5E72126F3E721
S315080042202126F1E70226EFE700C0035040B310B598
S31508004230044603784BB1022B1DD0032B1ED0012B4D
S3150800424001D0002303E07F2301E040F2FF73627888
S31508004250D34013F0010F15D022F063FB2378627860
S315080042600121914003EB43031B01074AD15022F079
S3150800427053FB002010BD40F2FF33E8E73F23E6E793
S31508004280222070472120F5E740D0035040B310B5EF
S31508004290044603784BB1022B1DD0032B1ED0012BED
S315080042A001D0002303E07F2301E040F2FF73627828
S315080042B0D34013F0010F15D022F033FB2378627830
S315080042C00121914003EB43031B01074AD15022F019
S315080042D023FB002010BD40F2FF33E8E73F23E6E763
S315080042E0222070472120F5E740E00350002866D0D9
S315080042F02DE9F0410C4615461F460646002960D0B2
S3150800430002784AB1022A3ED0032A3FD0012A01D0B8
S31508004310002303E07F2301E040F2FF737178CB406E
S3150800432013F0010F01D1FF2A4DD1022D01D9042D19
S315080043304BD122F0F6FA80463378FF2B28D1236832
S31508004340B3F1FF3F2BD02268B2F1FF3F32D0204BAA
S3150800435002EB420203EB82025760226802EB42023A
S3150800436003EB8203069A9A603378FF2B05D02268FE
S3150800437001239340174AC2F82434404622F0CCFA67
S315080043800020BDE8F08140F2FF33C7E73F23C5E7C9
S315080043902A462168304603F005FE2060CFE73378C9
S315080043A0FF2BD0D10C4BD3F8241470781BF040FBAC
S315080043B02060C8E7404622F0AFFA2D20E1E7222028
S315080043C070472220DDE72120DBE72120D9E700BF5F
S315080043D04027002000D0035000C00350B0F1FF3F33
S315080043E01AD038B504460F2818DC002818DB22F046
S315080043F098FA0123A3400B4AC2F82034C2F82434A1
S31508004400094B04EB440203EB8202002555609560D4
S3150800441022F082FA284638BD212070472120FAE783
S315080044202120F8E700E0035040270020002856D056
S315080044302DE9F0410C4617461E460546002950D080
S31508004440017849B1022939D003293AD0012901D086
S31508004450002303E07F2301E040F2FF736A78D3402C
S3150800446013F0010F01D1FF293DD122F05AFA8046F7
S315080044702B78FF2B27D12268B2F1FF3F2AD01B4B9E
S3150800448002EB420203EB8202C2F8B860226802EB32
S31508004490420203EB8203069AC3F8BC202B78FF2B53
S315080044A006D02268103201239340114AC2F82434F8
S315080044B0404622F031FA0020BDE8F08140F2FF3391
S315080044C0CCE73F23CAE73A462168284603F00AFEA6
S315080044D02060D0E7404622F01FFA2D20ECE7222084
S315080044E070472220E8E72120E6E700BF40270020A2
S315080044F000D0035008B5084BD3F82404D3F8202479
S31508004500104000F0553020F0502003F50053C3F852
S315080045102004FFF707FE08BD00C0035008B5084B86
S31508004520D3F82404D3F82024104000F0AA3020F051
S31508004530A02003F50053C3F82004FFF7F3FD08BDD8
S3150800454000C0035010B582B004460A4822F0ABFA00
S3150800455023788DF8043063788DF80530A278B2FA9E
S3150800456082F2520904210DEB0100FFF723FE002019
S3150800457002B010BD78830208F0B585B00C469446A3
S315080045809DF83410664A1278002A00F0BD80054668
S31508004590BCF1070F00F2BA800A9A002A00F0B88028
S315080045A00B9A002A00F0B6800E9AB2F5006F00F357
S315080045B0B38001285BD05B4A02EB0C12127B002AFF
S315080045C000F0AC8000220092019202920392564AB1
S315080045D002EB4C1E002C4FD14FEA4C16002090518E
S315080045E0CEF80400CEF80800CEF80C009EF80200BB
S315080045F040F010008EF802009EF8030040F03000EC
S315080046008EF8030021B9C1B241F003018EF80310F8
S3150800461000930E9B013B444A4FEA4C1002EB4C11A7
S31508004620165A63F30E1616520A9B8B600B9B4B6049
S31508004630CB789DF83C2062F38303CB70012D36D0EE
S31508004640109B002B56D0374A4FEA0C1102EB0C137D
S3150800465010985050119A5A6000249C605D737246F7
S315080046606946604603F0F6FA204605B0F0BD0C9A96
S31508004670002AA0D12D48F8E72B4F4FEA4C1607EB36
S315080046804C120020B85150609060D060907840F08D
S3150800469010009070D07840F00300D0700029B7D190
S315080046A007EB4C12C1B241F03001D170B0E70E46AB
S315080046B00A7B42F001020A73D2B242F002020A737E
S315080046C0CA68042161F39F02F26006F1100796E8B2
S315080046D00F0087E80F00F2696FF0030161F39F028C
S315080046E0F2610C9B7361012CAAD10B9AB2610C9AE8
S315080046F07260A5E7002DA6D10B4B03EB4C139A78F5
S315080047006FF304129A709EE70948AEE70748ACE7CC
S315080047100648AAE70548A8E70448A6E70548A4E71F
S31508004720BA510020A8290020A8280020018000F0FE
S31508004730028000F0078000F0134B1B78FBB110B520
S315080047400446F0B122F0EDF80023072B13D80F4AE0
S3150800475002EB0312127B0AB10133F6E723600B4A18
S31508004760190102EB031301241C730024545022F090
S31508004770D3F8204602E022F0CFF8054810BD0548D8
S3150800478070470548FAE700BFBA510020A82900205B
S31508004790048000F0028000F0018000F038B522F0B5
S315080047A0C0F804460023072B06DC0C4A02EB03126A
S315080047B0127B12B90133F6E7002222B1204622F015
S315080047C0ABF8074838BD03F0F1F90025054B1D7015
S315080047D0204622F0A1F82846F4E700BFA8290020C1
S315080047E0058000F0BA5100200F4B1B78BBB110B5FD
S315080047F00446072815D822F094F80C4B03EB04134B
S315080048001B7B1BB922F088F809480BE0074B03EB22
S31508004810041300241C7322F07FF8204602E00548A2
S315080048207047054810BD00BFBA510020A8290020CE
S31508004830068000F0028000F0018000F000B583B029
S31508004840134B1B68019300238DF8043022F069F896
S31508004850104B1B7833B90F4B01221A7022F05CF803
S31508004860002309E022F058F80B480EE00B4A02EB49
S315080048700312002111730133072BF7DD08238DF886
S31508004880073001A803F0B6F9002003B05DF804FB71
S3150800489044810208BA510020038000F0A8290020AC
S315080048A010B5104C2478BCB1072817DC0E4C04EB65
S315080048B00014247BA4B10C4C4FEA001E04EB001C28
S315080048C044F80E30029BCCF804300024CCF808409B
S315080048D003F0C0F9204610BD0448FCE70448FAE78F
S315080048E00448F8E7BA510020A8290020028000F001
S315080048F0018000F0078000F008B50A4B1B785BB111
S3150800490007280BD8084B03EB00131B7B43B1002188
S3150800491003F062F9002008BD0448FCE70448FAE7FA
S315080049200448F8E7BA510020A8290020028000F0C0
S31508004930018000F0078000F008B50A4B1B785BB1D0
S3150800494007280BD8084B03EB00131B7B43B1012147
S3150800495003F042F9002008BD0448FCE70448FAE7DA
S315080049600448F8E7BA510020A8290020028000F080
S31508004970018000F0078000F0F8B5194B1F6D5B6DDC
S315080049801F4002D40125002402E0FEE701346D0031
S31508004990072C24D83D42F9D0124B1D652301124A33
S315080049A0D358002BF2D002EB0416B1680131B1607E
S315080049B072682046984780F00100C0B2737B012BCD
S315080049C0E4D10028E2D0094B03EB44131A7B6FF3BA
S315080049D041021A731A7F6FF341021A77D6E7F8BDB8
S315080049E00000045000200450A8290020A828002010
S315080049F000B585B0FF238DF80C308DF80D30029088
S31508004A000F2809DC0091094B002202A903A8FFF729
S31508004A106DFC05B05DF804FB103802900091034B5D
S31508004A20002202A903A8FFF701FDF2E707DB010848
S31508004A302DE9F04F89B005460E4614469846C36BD5
S31508004A405B69012207A960689847EB6B5B690122DD
S31508004A5006A93046984707A81AF038FA48B1002739
S31508004A60A77567754FF0FF33A360384609B0BDE8F0
S31508004A70F08F074606A81AF039FA0123A375237E94
S31508004A80033304EBC3035E6000221A816368B342F2
S31508004A902AD02368834201D00023A37506A81AF0FA
S31508004AA04AFA237D984201D00023A37506A81AF076
S31508004AB021FA814607A81AF01DFA814501D000237C
S31508004AC0A37506A81AF01EFA814607A81AF01AFA5C
S31508004AD0814501D00023A375237D043BDBB2022B5D
S31508004AE00BD80023A375C0E7206006A81AF023FA9E
S31508004AF020754FF0FF33A360EEE706A81AF0FAF91F
S31508004B0080B1EB6B5B69022204A93046984704A87A
S31508004B101AF003FA0346207D032868D8DFE800F078
S31508004B20615B070D06A81AF0F8F90346F3E7237E3A
S31508004B30033304EBC303CC221A811AF00CFA129B36
S31508004B40187094F8189006A81AF0C7F909F103091D
S31508004B5004EBC90989F80A00237E033304EBC3036F
S31508004B60B3F808A093F80AB006A81AF0C3F9814664
S31508004B7006A81AF0C7F90390B9F1000F3DD0EB6B00
S31508004B805B69022204A93046984704A81AF081F9FD
S31508004B906075637D03B9A375A37DA3B1BAF1000F50
S31508004BA011D0039BF1186B6C5B4286EA01021A422C
S31508004BB001D00023A3756B6C5A1E0A409B1A9A45AE
S31508004BC001D90023A375A37D002B40D0BBF1000FAC
S31508004BD018D1E77D3CE0227E033204EBC202138142
S31508004BE0ABE7227E033204EBC2021381A5E7227EDD
S31508004BF0033204EBC20213819FE706A81AF032F9C2
S31508004C006075C6E70122E275627EBAB9BBF1010F8B
S31508004C1008D095F83470DFB9EA6AB2F1FF3F05D0DB
S31508004C201F4615E001216176174611E0BBF1030F17
S31508004C3001D01F460CE00122A27609E0BBF1010F64
S31508004C4037D0BBF1030F03D10122A27600E01F463D
S31508004C5053B117B1BBF1010F06D95346039A314632
S31508004C60284619F076FAA060A37D13B12369534448
S31508004C702361237E114A127893421CD2013323768C
S31508004C80B8F1000F13D0A37D8BB1E37D7BB177B963
S31508004C90BBF1030F0BD0A168B1F1FF3F07D0129B00
S31508004CA00093012322462846FFF7C2FEA075A77D7A
S31508004CB0DBE61746CCE70023A375E1E7688102081F
S31508004CC02DE9F04F89B005460F4692469B460023CC
S31508004CD08DF80B304FF0FF31104600F0EFFFB7F5B7
S31508004CE0801F1DD30023009317F1020F07D0009BE6
S31508004CF0002B40F09E802B7C002B00F08C80EB6A0A
S31508004D00B3F1FF3F2CD02A689B1A6A6CB3FBF2F901
S31508004D1017F1020818BF4FF00108002301935DE060
S31508004D200DF10A02394605F1080000F017FF0146A1
S31508004D30B0F1FF3F11D0504600F0C0FF0DF10B0354
S31508004D4001225146284619F083FA00900028CBD054
S31508004D509DF80B308BF80030C6E700230093C3E7B5
S31508004D60696A284619F016F98146D1E701230193A5
S31508004D7037E09DF80B308BF80030324B1A68324911
S31508004D80504620F0C5F800942F4B9968B1F1FF3FC3
S31508004D901BD06B6C5B4281EA06021A4215D12A4C7B
S31508004DA0204600F08BFF0DF10B03424621462846AC
S31508004DB019F04EFA04460028E6D017F1020FD8D0AB
S31508004DC0214B1B68BB42DFD1D3E74946284619F079
S31508004DD0E1F88146019BCBB9009BBBB96B6A4B4591
S31508004DE0C4D02C686B6C03FB0944EB6B5B6905222A
S31508004DF003A92046984703A81AF044F91AF069F956
S31508004E0020461AF072F906460146BFE7009BA3B191
S31508004E10B7F5801F03D3009B8BB100200AE09BF8EF
S31508004E200030DAF80420394605F1080000F0B4FE2F
S31508004E30F1E7002009B0BDE8F08F2D20FAE72D2014
S31508004E40F8E700BF648102089C30002070B582B084
S31508004E5004464FF0FF33C3620DF107031A4A6FF099
S31508004E600101FFF72DFF20BB174B9B68E362E56A3C
S31508004E702946204618F07FFE2063E8B129462046D9
S31508004E8019F057F90546A36AAB421BD029462046B6
S31508004E9018F071FE0646236B034423632946204611
S31508004EA019F047F90546002EEDD100232363E06289
S31508004EB0E9E7A36AE362DAE7E16A204619F039F915
S31508004EC0E062DBE702B070BDC830002030B583B0C1
S31508004ED01C46032A14BF002201221B7E9A4202D0D6
S31508004EE0012003B030BD0D46096823689942F7D3FF
S31508004EF063689942F4D80DF10703114AFFF7E0FEFB
S31508004F000028EDD10E4B5A686B689A42E8D19DF895
S31508004F100730032B14BF00230123227E9342DFD1DF
S31508004F206369013363612369E2689342D8D2A26850
S31508004F30296842F82310236901332361D0E700BFAB
S31508004F40C83000202DE9F04182B004460E4690464E
S31508004F501F46816A06E01A4B9968B1F1FF3F1FD0D8
S31508004F60012E23D0E06A884217D0B1F1FF3F14D052
S31508004F70134D284600F0A2FE0DF10703012229462B
S31508004F80204619F065F90028E5D03B469DF807202C
S31508004F9029462046C0470028DDD102B0BDE8F08189
S31508004FA05968204619F0C5F80146D9E7044B5A68EE
S31508004FB0636C5B424A401A42D4D04FF0FF31D1E7C6
S31508004FC07030002010B50446083000F08DFD00232F
S31508004FD0024A19462046FFF7B5FF10BD3FE2010811
S31508004FE038B50446037C0BBB02461349083000F06B
S31508004FF01DFE616A204618F0EFFF421C616A2046D2
S3150800500018F040FF054620B9236B626C1344143B25
S315080050102363A16A204619F08CF8A0622368C01A97
S31508005020636CB0FBF3F06062284638BD0023034A80
S315080050300121FFF787FFDCE7D7E50108A5E50108A9
S31508005040F0B589B080B30F4616461D46044690F85B
S3150800505034301BB90025284609B0F0BD012118F0E7
S31508005060E6FE01950E9B029303970496002305938B
S3150800507006939DF83C308DF81C30237C5BB901AA59
S315080050800A4904F1080000F0D1FD5EB9069D2046E4
S3150800509019F06FF9DFE701AB054A00212046FFF753
S315080050A051FFF2E7059DF2E70025D4E7F3DD010895
S315080050B0CD4E0008F0B58BB004460D46406AE36B4A
S315080050C05B69052205A92668676C07FB0060984797
S315080050D005A819F0D7FF012836D0009400230193BC
S315080050E08DF80850039301238DF81030A16AE36AFE
S315080050F099420FD0237CBBB96A46144904F10800CB
S3150800510000F094FD019B13B99DF810309BB90198E6
S315080051100BB0F0BD204619F00CF8E062236B626C08
S315080051209B1A14332363EDE76B46094A012120468F
S31508005130FFF708FFE6E7626A2368616C01FB023144
S31508005140E06B19F051FFE2E70020E1E75953000848
S31508005150D95200082DE9F04F89B004468A4691468F
S315080051601D46002307930969026BCB1D406C143852
S31508005170B3FBF0F3013301EBC301914200F2A780C0
S315080051804E4677E03D2840F092800490BB4605964F
S315080051901EE04FF000092368616C01FB0631E06BE5
S315080051A019F00EFF204618F04CFE204618F0E8FFCE
S315080051B02063B9F1000F76D0DAF81020D31D616CA0
S315080051C01439B3FBF1F3013302EBC30290423AD32D
S315080051D02368ABEB0309606CB9FBF0F909FB0030F7
S315080051E019F083FF8046E16A204618F0A2FFA36AF9
S315080051F083422CD0E062374B9A68616C4B1E134091
S31508005200226B5B1A13442363ABEB08072368079EDC
S31508005210F61AB6FBF1F6B145BBD197B1E36B9B69BC
S31508005220BA08414698478146E36A3B44E362236BE2
S31508005230A8EB0B084344236304F1080000F054FC70
S31508005240A9E7B946A7E7DDF810B0059E02E0DDF844
S3150800525010B0059EBBF1000F29D0DAF81000226BBA
S31508005260C31D616C1439B3FBF1F3013300EBC300C2
S3150800527082421CD3E76ADFF85C803946404600F074
S315080052801DFD07AB0293019500963B4642465146E3
S31508005290204619F099FA834600287FF473AFD8F8A8
S315080052A00830E362D6E7DDF810B0059ED2E75F4620
S315080052B01FB1384609B0BDE8F08F2B46054A52683B
S315080052C0DAF8001004F1080000F066FCF1E71C2784
S315080052D0EFE700BF9C300020F0B583B01C46032AD8
S315080052E005D1237A012B33D0012003B0F0BD064641
S315080052F00F4615460DF10703164A0968FFF7E0FC45
S3150800530060600028EDD19DF80730032BE9D0114BDA
S315080053105A687B689A42E4D1237A012B08D13B6903
S31508005320E26813447269934202D900232374D8E7CA
S31508005330E3683A6913440833E3602B460122394689
S315080053403046FFF707FF60600028CAD00020CCE788
S31508005350207CCAE7C8300020F0B583B0089C2668D0
S31508005360032A05D1237A012B4DD0012003B0F0BDC5
S3150800537015460DF10703254A3046FFF7A1FC606084
S315080053800028EFD12168214B5A688B6A486CC0F116
S31508005390000C5A4012EA0C0FE4D1227A012A19D0DD
S315080053A00F68DB1BB3FBF0F3CA6AD21BB2FBF0F241
S315080053B09A4219D0E36815490A6913440833E36029
S315080053C02B4601222068FFF7C5FE60600028C9D079
S315080053D00020CBE70D4A1269E7683A447769BA4272
S315080053E0DED900232374BDE7726CF16A531E0B40A5
S315080053F0316B9B1A0B4433632668B16A304618F042
S3150800540098FEF062D6E7207CB0E700BFC8300020DF
S31508005410F8B56E4B1E6800221A60002800F0B680A8
S315080054200D46044690F8343013B30A6803689A4266
S3150800543040F0AE804A6843689A4240F0AC808A6879
S3150800544083689A4240F0A980CA68C3689A4240F0C5
S31508005450A6800A6943699A4240F0A3808A69C36BA9
S315080054609A4201D05D2594E04B698361002590E05E
S31508005470876B682200211FF024FDA7632B68236031
S315080054806B6863602B6963616B69A361EA68A968E5
S3150800549004F1080000F03AFBAB69E3639B6804F18A
S315080054A04000984730B9636C23B16268B2FBF3F2E7
S315080054B0E26101E00023E36194F84330002B72D0E7
S315080054C000232366656C002D6FD0E369002B6ED030
S315080054D02368B3FBF5F205FB1233002B69D1676825
S315080054E0B7FBF5F305FB1373002B64D1204618F0C0
S315080054F032FBA369034404339F425ED36369B3F561
S31508005500805F5CD8CB2B5CD9B5F5805F5BD3032174
