:020000040800F2
:1000000000200020D9440008D5E00108D5E001080F
:100010001D260208D5E00108D5E00108D5E0010859
:10002000D5E00108D5E00108D5E00108D5E00108D8
:10003000D5E00108D5E00108D5E00108D5E00108C8
:10004000D5E00108D5E00108D5E00108D5E00108B8
:1000500015660008D5E00108D5E00108D5E00108E3
:10006000D5E00108D5E00108D5E00108613B0008B2
:10007000513B0008D5E00108D5E00108D5E00108B2
:10008000D5E00108D5E00108D5E00108D5E0010878
:10009000D5E00108D5E0010851500008D5E001087D
:1000A000D5E00108D5E00108F54B0008CD4B00086C
:1000B000D5E00108D5E0010819B20108C5BC010866
:1000C000335702082F57020879B40108495702082C
:1000D0003757020895BC01083B57020829BD0108A3
:1000E00061BD0108D5E00108D5E00108E9CD0008AF
:1000F000D5E00108B3150208D5E00108D5E00108F4
:10010000D5E00108D5E00108D5E00108D5E00108F7
:10011000D5E00108D5E00108D5E00108D5E00108E7
:10012000D5E00108D5E00108D5E00108D5E00108D7
:10013000D5E00108D5E00108D5E00108D5E00108C7
:10014000D5E00108D5E00108D5E00108D5E00108B7
:10015000D5E00108D5E00108A1780208059701085B
:10016000D5E00108D5E00108CD560208D3560208B3
:10018000194A5AB3194BDB6913F0040F29D110B483
:100190000AE003EA00048C4210D0013AB2B1134BDA
:1001A000DB6913F0040F14D110F0010FF1D1104CE2
:1001B0001C40002CEDD06FF001000CE00C4A1A40FE
:1001C0000AB9002007E06FF0010004E06FF00200C0
:1001D00001E04FF0FF305DF8044B70476FF0020014
:1001E00070474FF0FF307047809698000000035032
:1001F000020001000D4BDB6913F4803F12D170B592
:100200000A4B03F580560124F46003F500552C6475
:100210004FF480721A6100212046FFF7B1FF346469
:10022000EC6070BD6FF00100704700BF000003502C
:1002300010B5124B4FF480329A6603F51C33DC691B
:10024000144041F67132DA6303F580520121D16026
:10025000586102221A6100212120FFF791FF40B16D
:10026000074B0122DA601CB1A3F500530022DA63C8
:1002700010BD00212120FFF783FFF1E7009000501F
:100280000020035038B51A4B5861DB6913F0040F96
:100290002AD10C4654F8041B154B9961151F06E032
:1002A000214651F8042B124B9A61043D0C465DB176
:1002B00008210846FFF764FF03460028F0D00C4AE7
:1002C00004211161184638BD094B04221A6100212E
:1002D0002120FFF755FF03460028F3D100212120FC
:1002E000FFF74EFF0346EDE74FF0FF33EAE700BFAD
:1002F000000003502DE9F0410F46164605461A4B03
:100300004FF480329A6603F51C33DA6902F48038C0
:1003100041F67132DA6303F580530122DA6000237B
:1003200002E025442744361B8EB105F5005424F421
:10033000FF5424F01F04641BB44228BF34462246F5
:1003400039462846FFF79EFF03460028E9D0074AB2
:100350000121D160B8F1000F03D0A2F500520021B5
:10036000D1631846BDE8F081009000500020035092
:10037000000000000000000000000000000000007D
:10038000013800D0FCE770472DE9F04F2DED028BCE
:1003900093B082460C4693461D4657EC106B8DED8C
:1003A000080B32463B46304639461CF0ADF9002872
:1003B00000F009814FF0FF32B14B304639461CF056
:1003C000CBF9002840F0FF804FF0FF326FF480132C
:1003D000304639461CF0A2F9002840F0F480002293
:1003E0000023DDE90867304639461CF097F90028FC
:1003F00040F0FC809DED087B8DED067B209B13F487
:100400008063119301D106231E93DDE906010246A4
:10041000C1F30A50C1F31303904643F07F5949F4E6
:100420004019A0F2FF301BF09DFE83A3D3E9002307
:100430001BF002FF82A3D3E900231BF047FD064611
:100440000F4600228F4B404649461BF03DFD7EA3E0
:10045000D3E900231BF0F0FE02460B463046394636
:100460001BF034FD1CF082F906461BF07BFE804633
:10047000894677A3D3E900231BF0DEFE0022824BDE
:100480001BF024FD1CF072F9074673A3D3E9002387
:10049000404649461BF0D0FE8046894638461BF050
:1004A00061FE6FA3D3E900231BF0C6FE02460B4694
:1004B000404649461BF008FD8046894602460B46E9
:1004C0001BF0BAFECDE90C0107F2FF370021002234
:1004D000CDE90A123B050B9300230A9342464B4693
:1004E000404649461BF0F2FCCDE90E0142464B4620
:1004F00000204FF080411BF0E7FC80468946002237
:10050000624BDDE90C011BF0C1FF0022604B1BF0C8
:10051000DDFC02460B46DDE90C011BF0B7FF0022B3
:100520005C4B1BF0D3FC02460B46DDE90C011BF0D3
:10053000ADFF02460B46404649461BF0C7FC02464B
:100540000B46DDE90E011BF0A1FF0022524B1BF010
:10055000BDFCDDE90A231BF06FFE8046894649ECAD
:10056000188BDDE906231CF0F7F840B1013E0022AC
:10057000474B404649461BF089FF41EC180B06F1FA
:100580006303C62B3BD80427209B13F4006F40D095
:1005900035A3D3E90023DDE90689404649461CF02E
:1005A000D1F800283BD032A3D3E900234046494686
:1005B0001CF0B4F8002832D01E9BB34221DD9E1BF4
:1005C000731E1E931FE0209B02931F9B01931E9B93
:1005D00000939DED080B2B465A462146504600F0ED
:1005E000CBF813B0BDEC028BBDE8F08F9FED227B02
:1005F0008DED067B069607F100430793FEE605277F
:10060000C2E700231E93209B43F4806320930027BE
:100610003E461F9B9F4241D2A3EB070840E01E9B32
:10062000002BF6D0119B002BF3D01E9B013B1E9399
:10063000EFE700BFAFF30080FB799F501344D33F37
:10064000B3C8608B288AC63F61436F63A787D23FD8
:1006500071A379094F930A401655B5BBB16B02409F
:10066000EF39FAFE422EE63F2D431CEBE2361A3FED
:100670000000000080842E41000000000000000007
:10068000FFFFEF7F0000F83F0000E03F00002C403C
:1006900000002440000018400000F03F4FF0000828
:1006A000209B13F0020902D00FB14FF000083EB1B9
:1006B00053EC182BDDE906011BF0E8FECDE906013D
:1006C00000220023DDE908011CF028F800283BD1B6
:1006D000209B23F400630293CDF804801E9B0093BB
:1006E0009DED060B2B465A462146504600F044F835
:1006F000002F3FF476AF209B13F0200F2CD04FF04B
:10070000450C00F101082B46024621466046D047C1
:1007100086EAE672A2EBE67205230593013F049791
:10072000002303930A230293F30F019300922B46B5
:1007300042462146504623F0F0FBB9F1000F3FF44A
:1007400050AF02461F9F10E0DDE90601024601F1AD
:100750000043CDE90623BBE74FF0650CD1E7561CFB
:100760002B4621462020D0473246A2EB0B03BB424A
:10077000F5D3104635E700BF2DE9F04F2DED028B84
:1007800093B00590089192469B4659EC108B1E9DA4
:1007900042464B46404649461BF0B6FF002840D033
:1007A0004FF0FF326FF48013404649461BF0B6FF0E
:1007B000002845D14FF0FF32B14B404649461BF06F
:1007C000CBFF00284BD1AAA3D3E9002340464946DA
:1007D0001BF0C2FF00285AD1A7A3D3E9002340464B
:1007E00049461BF09BFF002851D1002200234046C0
:1007F00049461BF093FF002857D100230993209B03
:1008000013F4806F5CD000241F2C5BD8092D59D9BC
:1008100004F148036B44302203F8202C013D0134DD
:10082000F2E7209B03931F9B029303230193954BB5
:1008300000935B4652460899059823F094FA10E11C
:10084000209B03931F9B0293042301938E4B0093E1
:100850005B4652460899059823F085FA01E1209BF2
:1008600013F004030FD0894A7BB10423209903912C
:100870001F990291019300925B4652460899059890
:1008800023F071FAEDE0824AEEE70323EEE7209BC6
:1008900002931F9B0193009549EC108B5B465246D7
:1008A00008990598FFF770FDDBE042464B460020B3
:1008B00000211BF009FB80468946012309939EE72E
:1008C0000625A0E7404649461BF050FF06461BF0B0
:1008D00049FC02460B46404649461BF0F5FA6D4B73
:1008E00003EBC50393ED008B53EC182B1BF0A4FC1A
:1008F00002460B46CDE906231BF060FF07461BF0BE
:1009000021FC02460B46DDE906011BF0DDFA02463A
:100910000B46CDE9062300225F4B1BF01DFF50B3B1
:10092000013738461BF00EFC02460B4651EC180B03
:100930001BF0FEFE08B10136002755BB30461BF008
:1009400011FC02460B46404649461BF0BDFA804664
:1009500089460022504B1BF0E1FE38B100224E4B7D
:10096000404649461BF0F8FE002842D016F0010F21
:100970003FD001363DE00022474BDDE906011BF088
:10098000CDFE0028D9D117B117F0010FD5D001370E
:10099000D3E71F2C17D8013D404BA3FB0723DB08EF
:1009A000194603EB8303A7EB4303621C303304F1C6
:1009B00048000DEB000404F8203C092F02D90F4633
:1009C0001446E6E714461F2C0AD86B1E45B104F105
:1009D00048026A44302102F8201C1D460134F2E727
:1009E0001F2C06D804F148036B442E2203F8202C58
:1009F00001341F2C17D82A4A82FB0632F317C3EBA7
:100A0000A2031A4603EB8303A6EB4303611C3033B6
:100A100004F148000DEB000404F8203C16460AB12E
:100A20000C46E6E70C46209B03F00303012B39D06C
:100A30001F2C09D8099B002B51D004F148036B44AB
:100A40002D2203F8202C0134209B03931F9B02933B
:100A500001940AAB00935B4652460899059823F02F
:100A600082F913B0BDEC028BBDE8F08FAFF30080CC
:100A70000000000065CDCD410000000065CDCDC176
:100A8000FFFFEF7F209502082495020814950208C5
:100A90001C950208309502080000E03FCDCCCCCC7C
:100AA000676666661F9BB3B1099B1BB9209B13F059
:100AB0000C0F12D01F9B013B1F93194606E004F157
:100AC00048036B44302203F8202C01348C42AFD20F
:100AD0001F2CF4D9ACE71F99F8E71F99F6E7209B84
:100AE00013F0040F07D004F148036B442B2203F8E2
:100AF000202C0134A8E7209B13F0080FA4D004F1A8
:100B000048036B44202203F8202C01349CE700BFEB
:100B100038B50D46044626F0F7FB064A13889BB20B
:100B20002DB123431380BDE8384026F0E8BB23EA0B
:100B30000403F7E7644B00200022034B01214FF42C
:100B400080709A70E4E700BF644B00207FB54E6868
:100B500002A9044624F07BF89DF808300C2B19D12B
:100B6000134BB3F90050134B9E4218D808F006F807
:100B700003460068694600909B882046ADF8043023
:100B800024F052F870B140F25F620B490B480EF04E
:100B90009BF8FEE7204613F099FE0546E3E71FF0B9
:100BA00074FCE5E72946204624F024F804B070BD23
:100BB0003A510020FFC99A3BD9970208A495020830
:100BC000002330B5134C85B0CDE90133039323786E
:100BD0008DF8043026F098FBA288E38805469A42F7
:100BE0000DD0E188A06801AAA18023F0B9FE58B118
:100BF00040F2DA62084909480EF066F8FEE7A0689C
:100C000023F087FE0128ECD0284626F078FB05B0BB
:100C100030BD00BF60550020D9970208A495020896
:100C200038B50F4C656835B940F2C7720D490E48AA
:100C30000EF04AF8FEE723F045FA284410F094FF3E
:100C400000F00700032809D164680921204623F039
:100C500055FB205C031F5842584138BD0020FCE77B
:100C6000644B0020D9970208A495020808B5114BDF
:100C70009A78042A06D040F28E520F490F480EF09F
:100C800023F8FEE71B881B0706D440F28F520A495F
:100C90000A480EF019F8FEE700210820FFF738FF98
:100CA0000222074B98681A7313F0CAFBBDE808408C
:100CB00021F010BE644B0020D9970208A4950208C9
:100CC0006055002010B5084CA06813F0B9FBA0686F
:100CD00023F01FFE012806D00122A0681146BDE8BE
:100CE000104023F018BE10BD6055002038B5194DD6
:100CF000AB7833B140F22B72174918480DF0E4FF7E
:100D0000FEE726F001FB2988044611F0060109D010
:100D100001214FF48070FFF7FBFE2046BDE838400C
:100D200026F0EDBA4FF48070FFF7F2FE12F0DAFC15
:100D3000012805D010F0FD0F05D1FFF741FFECE7CA
:100D4000FFF7C0FFE9E740F24172034903480DF0A5
:100D5000BBFFFEE7644B0020D9970208A495020868
:100D600070B50446064D95F90860FFF7BFFF12F015
:100D7000B7FB314620466A68BDE8704012F0E8B91A
:100D8000644B002008B50A4B1B88DB0606D440F2F2
:100D9000A752084908480DF097FFFEE700211020F0
:100DA000FFF7B6FE12F01AFDBDE8084021F092BD33
:100DB000644B0020D9970208A49502080D4B10B58A
:100DC0001B8804469B0713D500210220FFF7A0FED5
:100DD000094B5A7BFF2A06D040F2E54207490848F2
:100DE0000DF072FFFEE75C73BDE8104021F072BDAC
:100DF00010BD00BF644B002060550020D997020849
:100E0000A49502087047704707B5ADF80610014673
:100E100030B94FF4B572104910480DF055FFFEE798
:100E2000BDF8063033B940F26B120B490B480DF098
:100E30004BFFFEE70A4B0DF10602986823F0BEFF58
:100E400030B140F26D12044904480DF03DFFFEE759
:100E500003B05DF804FB00BFD9970208A49502080F
:100E60006055002010B50E4CA37833B14FF4EA72F0
:100E70000C490D480DF028FFFEE7606019B1A17B19
:100E8000003918BF01212020FFF742FE074B084818
:100E90009B7B23760223A370BDE8104010F030BD89
:100EA000644B0020D9970208A495020860550020E1
:100EB000804B002008B50CF035FA80F00100C0B27C
:100EC00008BD0A4B9A780AB1062A0CD11B8803F494
:100ED0008B7343B9064B5A7BFF2A04D1187BFF382A
:100EE00018BF012070470120704700BF644B0020ED
:100EF0006055002008B50CF005FA0028FBD108BDAC
:100F00000C4B42889A8142789A730278DA7382880D
:100F10001A82C2885A82C2685A61017A064A91735B
:100F2000028A998C914204D001214FF400709A8476
:100F3000EEE57047644B002060550020094B9A890C
:100F400042809A7B4270DA7B02701A8A82805A8AC7
:100F5000C2805A699B8CC260034A0382927B0272F0
:100F6000704700BF644B0020605500204B1E012BD2
:100F700070B50C4606D940F2B7221A491A480DF04E
:100F8000A3FEFEE7194D0A460146A86823F040FF7C
:100F900030B140F2B922134913480DF095FEFEE737
:100FA000AE6810F021FC22460146304623F02AFFAD
:100FB00030B140F2BD220B490B480DF085FEFEE733
:100FC000AD6810F01DFC22460146284623F026FF9E
:100FD00030B140F2C122034903480DF075FEFEE72F
:100FE00070BD00BFD9970208A49502086055002083
:100FF000054BDB7B1B0913F00E0003D0052B8CBFC8
:1010000000200120704700BF60550020044BDB7BAF
:101010001B0913F00E0F0CBF01200020704700BF0A
:10102000605500202DE9F04F15469A0580461F4671
:101030008FB003D501218020FFF76AFDEB014FF04F
:10104000000955D5984C23889E0751D5974E737B40
:10105000FF2B06D040F2AF42954996480DF034FE82
:10106000FEE7636833B94FF49662914991480DF0F9
:101070002BFEFEE749460220FFF74AFDA37886F8DB
:101080000D90042B03D101210820FFF741FD00231F
:10109000B06808A98DF82C3023F0DBFD30B140F2A8
:1010A000BA42834983480DF00FFEFEE7FFF7A0FF29
:1010B000B0B923F007F88146606823F00EF808A95C
:1010C0008144B068ADF8249023F0C6FD30B140F201
:1010D000C242774977480DF0F7FDFEE7089BA3620F
:1010E000A378032B02D1B06813F0AAF921F0F2FB28
:1010F000B80702D50120FFF761FE15F0A84F02D016
:101100000220FFF75BFEA90220D50021402003AC9E
:10111000FFF7FEFC2146404623F098FEB0B99DF84B
:10112000143008AA022B22D18DF82830BDF80C30DB
:10113000ADF82030104612F0DDF938B1404623F00A
:1011400083FE18B901214020FFF7E2FC2A0753D59E
:10115000564E0321B06803AA23F032FE814688B9B7
:1011600040F2FE42524953480DF0AEFDFEE7032B1C
:1011700005BF8DF82830D4E900018DF82800C2E9B8
:101180000001D7E79DF80C30B068072B40F01F81B5
:10119000494608AA23F016FE30B140F201524449F4
:1011A00044480DF091FDFEE7FFF722FFBDF80E2049
:1011B000A0B9FFF72BFF78B1043292B2B06808A94A
:1011C000ADF8242023F000FE40B140F2125238491D
:1011D00038480DF079FDFEE70232EEE7BDF80E006B
:1011E0000121073080B225F0BBFF8246002842D1A2
:1011F00001210C2013F0B8F8A90705D52A4B1B884C
:101200001A0701D5FFF732FDAB010BD500210420F1
:10121000FFF77EFC244B9B78012B03D1234B98686E
:1012200013F00EF915F0284F03D000210420FFF72A
:101230006FFC7E060CD51C4C23881D0701D5FFF7DB
:1012400015FD2388580703D500210420FFF760FC13
:10125000F90540F1D88003A9404608AA23F057FBBE
:101260000146002800F0BA8040F2D25210491148DD
:101270000DF02AFDFEE74FF0000B25F0F5FECDF84E
:1012800000B00246BDF80E3004464946B06823F06F
:101290009FFDBDF80E3083420ED040F22252044929
:1012A00004480DF011FDFEE7644B0020605500205E
:1012B000D9970208A495020822F004FF204410F0F8
:1012C00053FC00F007000228DFF8589124D199F868
:1012D0000230042B90D122F0F5FE504B204482784E
:1012E0001B789A4288D159460820FFF711FC22F05A
:1012F000E9FE204410F038FC9DF82E30C0F30010B9
:10130000307389F80830FFF78BFC00287FF474AF46
:10131000B06813F095F86FE722F0D4FE204410F087
:1013200023FC83064AD522F0CDFE204410F01CFC9D
:1013300000F0070003280BD10921204622F0DEFF30
:1013400014F800B0ABF1040CDCF1000B4BEB0C0B10
:1013500001210420FFF7DCFBB06823F04CFDC9F845
:101360002C00BBF1000F30D0B9F8003058062CD556
:1013700000214020FFF7CCFB0126BDF80E309DF880
:101380002E200120E254BDF80E309DF82F2023447A
:101390009A71BDF80E10089A0131214410F0F2FB49
:1013A000BDF80E3050461C44667125F031FF1C4BD1
:1013B000187810F0ABFB21F08DFA1DE799F8023098
:1013C000012B02D1B06813F03BF80026D5E723F0DB
:1013D000DBFC4946B06823F0F9FC0DE79DF80C30C2
:1013E00003F0BF02032A01D0022B0FD10D4C23883A
:1013F0005A0702D50420FFF78BFB23889B0702D5F1
:101400000120FFF7DBFC0FB0BDE8F08F4FF4BF62A7
:10141000054906480DF058FCFEE700BFD14B0020FF
:10142000F44A0020644B0020D9970208A4950208D2
:1014300008B50246FFF7DCFD30B1072A06D80020C8
:10144000034B83F8302008BD7020FCE70220FAE748
:10145000644B002008B50246FFF7CAFD28B1002002
:10146000034B93F83030137008BD7020FCE700BFC9
:10147000644B002008B5074B01460022986823F012
:10148000C7FC30B140F2EB22034904480DF01CFCCC
:10149000FEE708BD60550020D9970208A495020810
:1014A00008B5074B01460022986823F0ABFC30B129
:1014B00040F2F122034904480DF006FCFEE708BDA6
:1014C00060550020D9970208A495020808B5074B7B
:1014D0000146986823F0A8FC30B140F2F722044995
:1014E00004480DF0F1FBFEE708BD00BF6055002089
:1014F000D9970208A495020808B5074B9B7833B129
:1015000040F20132054906480DF0DEFBFEE7BDE87A
:101510000840FFF7EBBB00BF644B0020D9970208DF
:10152000A495020808B5054B0146986823F062FBB4
:10153000002814BF8B20002008BD00BF605500208C
:10154000014B986813F0C2B960550020014BD88850
:10155000704700BF605500207FB50123ADF80E3005
:101560004FF6FE7309480093806800230DF10E02C8
:1015700004A923F0CCFA212800D020B9BDF810002E
:1015800007B05DF804FB4FF6FF70F9E760550020E7
:1015900008B5044B0146986823F06DFAB0FA80F064
:1015A000400908BD6055002038B50B4D0446AB78A6
:1015B000012B0DD8FFF7ECFF60B1084BDC80AB7856
:1015C0001BB9FFF793FB002038BDFFF7F9FAFAE7E4
:1015D0003E20F9E78A20F7E7644B002060550020A1
:1015E000024B9B780BB9FFF781BB7047644B00201F
:1015F000014BD873704700BF644B002008B5064B01
:101600004FF0FF31986823F0AFF90028B8BF0330DE
:1016100040F3870008BD00BF6055002008B5044BAB
:10162000986823F024FA034BB3FBF0F080B208BDB6
:101630006055002040420F0030B58DB02C2204468A
:10164000002101A824F00DF901234FF002328DF89A
:1016500008306423CDE9032306930B238DF82C3047
:10166000214B9B8CADF80A30FFF7C2FCA8B140F2C9
:10167000F23307934FF47A7305930CB9FFF722FB0B
:101680001A4D01A9A86813F0F5F9C0B140F2AC6297
:10169000174918480DF018FBFEE7FFF7BFFF0C23B2
:1016A0004343902B0793A3F10A02D8BF91230592DD
:1016B000D8BF0793059B8B2BDFD88C23DCE7FFF784
:1016C000A5FC60B10122A868114623F0BBFB30B134
:1016D00040F2AF62064907480DF0F6FAFEE70CB992
:1016E000FFF704FB0DB030BD644B002060550020B7
:1016F000D9970208A4950208F8B525F005FE554CC7
:1017000006462388D90503D5A37843BBFFF7EEFA35
:10171000514D6B7BFF2B13D06B7B03F0FF0723BB7B
:10172000FF236B73A378032B0AD100233046A370E9
:1017300025F0E5FD3846FFF713FB25F0E5FD0646ED
:10174000A378042B08D12B7BFF2B05D02B7B022BFE
:1017500014D1424810F0D4F8FF232B7327E0002166
:101760004FF48070FFF7D4F9D2E76B7B012B4FF079
:10177000FF0314BF89278D276B73D6E72B7B13B12B
:101780002B7B012B1ED1FFF74BFA0022FF212B7B75
:101790000746DBB222772973002847D0012B0AD1F4
:1017A00064212E48A37010F0B6F8FFF709FA30460E
:1017B00025F0A5FD06E03046A27025F0A0FD312001
:1017C000FFF7CEFA23881A0608D500218020FFF7FC
:1017D0009FF9A86823F079FA11F0E1FF23889B05AF
:1017E00007D54FF400700021FFF792F90020FFF7B2
:1017F00023FF0BF087FD608620B325F035FC012127
:101800000546002012F0B0FDA678012E14D1002666
:101810002677A670FFF76AFA284611F0BBFBA3787B
:1018200066867BB9BDE8F84011F05ABEA07030461C
:1018300025F065FD3846C3E72EB1284611F0AAFB16
:1018400000236386F8BDFFF751FA284611F0A2FB8A
:101850006686F7E7644B002060550020804B00202F
:101860008B4BF0B51B888B4C8B4D63848B4B85B0B9
:101870001B68E3628A4B1B8823848A4B1B68A36224
:101880002B88DB0700F1FC8001210846FFF740F9B7
:101890000523854A04F1100104F10800AB7012F031
:1018A00091FD28B1F522814981480DF00DFAFEE73E
:1018B000A3682BB9F7227D497D480DF005FAFEE7B4
:1018C0007C4823F06CF870A3D3E90023CDE9002312
:1018D0004FF0FF324FF0FF33A06823F00FF94FF4C1
:1018E0008811A06813F06AF8014630B140F20F1277
:1018F0006E496F480DF0E8F9FEE76F4B1B78012B3E
:101900000ED16E4AA06812F02BFEA06813F0E0F82A
:10191000E0B140F21B12654965480DF0D5F9FEE7CC
:10192000674E316831B94FF48F72604960480DF0ED
:10193000CBF9FEE7614AA06812F012FE33689B689B
:1019400023B1DB6913B15B7803B1E373FFF704FEE6
:101950000146E080A06812F07FFF064630B140F2F9
:101960002D12524952480DF0AFF9FEE7554B0120B8
:101970001B78C3EB431203EB8203DB00AB84FFF75E
:101980005BFEA7680FF03CFF32460146384623F065
:1019900045FA064630B140F23312444944480DF04E
:1019A00093F9FEE740F203530427AB81464BAF7334
:1019B0001B78EB73FFF732FE00EB80039B002B825A
:1019C000FFF72CFEC00068823946A0686E6123F0E4
:1019D0003DF830B14FF4A172344935480DF074F937
:1019E000FEE73A46A06803A923F0C3F8042806D00E
:1019F0004FF4A3722D492E480DF066F9FEE703A9B6
:101A0000012010F0CDF80BF003FA08224FF0FF315F
:101A1000A06823F084F830B140F24F1223492448E3
:101A20000DF052F9FEE713F0D3F930B140F2551240
:101A30001E491F480DF048F9FEE7FFF7D9FA68B1D3
:101A40001EF025FD0146A06823F0EEF830B140F20B
:101A50005912164916480DF037F9FEE7A468FFF74A
:101A60007BFD1A4B014603F10C02204622F07AFF5F
:101A700030B14FF4B0720D490D480DF025F9FEE775
:101A800005B0F0BDAFF300800A0020FF4203000064
:101A9000D09A020860550020644B0020D49A0208B6
:101AA000D29A0208D89A0208390B0008D99702087E
:101AB000A4950208690345ECB54B00204D0B0008C6
:101AC0008454002005570020045700200498020881
:101AD00008B5044B986822F0CCFF034BB3FBF0F041
:101AE00080B208BD6055002040420F002DE9F04350
:101AF0008C4D87B02B889B0706D440F24C728A49E4
:101B00008A480DF0E1F8FEE7AB78033B012B06D9DC
:101B100040F24E72844985480DF0D6F8FEE76A68B7
:101B200032B940F25172804980480DF0CDF8FEE79D
:101B30007F4E2C88F77B14F0200418BF4FF47A7482
:101B40004FEA1718FFF754FA00287DD0B8F1020FBA
:101B50000AD0A8F10303022B74D940F265727249CE
:101B600072480DF0B1F8FEE7032795F8303008EB26
:101B7000C80898446F4B104603EB4803B3F81C8029
:101B800022F0ABFA4FF4FA534343B3FBF8F3782255
:101B90007733B3FBF2F31F44C7EB0717AB78FF00B3
:101BA000BFB204F5347417FA84F4042BA4B203D141
:101BB00007F6E8072744BCB2D5F8048022F082FA81
:101BC0000746686822F089FA074422F0A1FABFB2FA
:101BD0003F1A22F077FA40440FF0C6FF7378C0F343
:101BE00040198DF80C30544BBFB2CDE904340024B9
:101BF00022F09AFA009402463B464146B06823F030
:101C0000C5F8287EB278737812FB00F29342C4BF05
:101C10009B1ADCB22B88F18813F0200FB068B180DA
:101C20008DF80C4003AB76D000934A46434B22F02C
:101C30008EFE002873D040F224723B493B480DF0E1
:101C400043F8FEE7062790E7FFF7E0F9002846D0C3
:101C5000384B07F00F0708EBC801394403EB410389
:101C60001046B3F81C9022F038FAB8F1000F2CD0CF
:101C7000B8F1010F2CD14FF00408400080B2F319E5
:101C800093F834304BB14FF4FA52023303444344D7
:101C90009BB25343B3FBF9F39CB2AB78042B8BD1CB
:101CA000FFF7BCFC374497F834308146053398443D
:101CB000FFF70EFF0C2308FB00F003FB09F909EB0B
:101CC000C009A1441FFA89F476E74FF00208D6E76D
:101CD00040F28672144915480CF0F6FFFEE7FFF754
:101CE000F7FE0746686822F0F8F909307843AB78C8
:101CF00004EBC000042B84B27FF45EAFFFF78EFCD0
:101D00000746FFF7E5FE602358430C2303FB07005B
:101D1000204484B250E74A4622F017FE89E707B014
:101D2000BDE8F083644B0020D9970208A49502080F
:101D3000605500200498020820A10700704B002085
:101D4000F8B5494C258815F0020506D040F2751209
:101D5000464947480CF0B8FFFEE7257725F0D4FA4E
:101D6000238806465A070CD5424B986823F043F85F
:101D7000E36AC01AA38C984203D929460420FEF7CF
:101D8000C7FE304625F0BBFAA778022F37D125F0E1
:101D9000BBFA2388064613F0040507D036480FF037
:101DA000AFFD3046BDE8F84025F0A9BA25F0A7FA06
:101DB000606811F0CFFB20B1A570BDE8F840FEF7D8
:101DC000CFBF25F0A1FA6668054622F07BF93044C2
:101DD0000FF0CAFE10F0200F0CBF032304230121D3
:101DE0003846A370FEF794FEFFF780FE284625F0E4
:101DF00086FA01210846BDE8F84012F0B5BA042F72
:101E000027D11C4B1B7BFF2B2DD1237EF3B125F05B
:101E10007BFA238805465B0704D517480FF070FD51
:101E20002846BFE725F06BFA237E013B237625F099
:101E30006BFA044601210220FEF76AFEFFF756FE08
:101E4000204625F05CFA01210820D4E74020A37049
:101E5000B3E7012F07D10023A370064B986812F057
:101E6000EFFA3120A9E7F8BD644B0020D9970208AA
:101E7000A495020860550020804B002038B5012150
:101E800004461020FEF744FE064B9D68FFF7C6FB94
:101E9000012200FB04F1044B284622F041FD002002
:101EA00038BD00BF60550020850D000808B50A4BFD
:101EB0001B88DB0606D44FF46172084908480CF011
:101EC00003FFFEE710200021FEF722FE054B986875
:101ED000BDE8084022F032BD644B0020D9970208CB
:101EE000A49502086055002038B50E4D688E30B9B3
:101EF00040F291320C490D480CF0E6FEFEE725F069
:101F0000B3F80446688E25F0CDF8811F21440120E6
:101F10000FF046FE064B0446986822F06CFF001B4B
:101F200038BD00BF644B0020D9970208A495020871
:101F30006055002010B5084C636833B94FF46872DF
:101F4000064907480CF0C0FEFEE7064B986822F0F1
:101F500052FFA36AC01A10BD644B0020D997020833
:101F6000A49502086055002038B50A4D688E30B936
:101F700040F2AA32084909480CF0A6FEFEE725F017
:101F800073F80446688E25F08DF8044414F8020CAA
:101F900038BD00BF644B0020D9970208A495020801
:101FA00038B50A4D688E30B940F2B932084909484F
:101FB0000CF08AFEFEE725F057F80446688E25F0FF
:101FC00071F8044414F9070C38BD00BF644B0020BD
:101FD000D9970208A495020838B50A4D688E30B921
:101FE0004FF47272084909480CF06EFEFEE725F0C6
:101FF0003BF80446688E25F055F8044414F9010CAA
:1020000038BD00BF644B0020D9970208A495020890
:10201000024B1888C0F3C010704700BF644B00200B
:1020200030B585B005466C460D4B0FCB84E80F00EC
:102030000DB12B6800930B4B21460022986812F0DB
:102040005BFC044630B140F2E632074907480CF029
:102050003BFEFEE7FEF7B4FD204605B030BD00BFF5
:102060008C98020860550020D9970208A4950208B0
:1020700030B5154D87B004460DF10701A86822F070
:102080003FFD30B140F2F732104911480CF01CFE10
:10209000FEE79DF80720531EDBB2FD2B0FD90294FB
:1020A000FF2A00D10394A86802A922F011FE40B1D2
:1020B00040F20442054906480CF006FEFEE7012AFC
:1020C000EFE707B030BD00BF60550020D997020888
:1020D000A495020808B5064B986822F008FE30B1B6
:1020E0004FF48262034904480CF0EEFDFEE708BDA0
:1020F00060550020D9970208A49502080122024BDE
:102100001146986822F007BC605500207047F8B56A
:10211000064604200D4621F0B7FF030622D5124FD4
:10212000BC78FCB926B1012E17D002242046F8BD98
:1021300001262846FFF72CFA0028F6D00B4800238A
:1021400032462946806822F004FC40B14FF48A628E
:10215000074908480CF0B8FDFEE72646E9E70623E4
:10216000BB70E3E77024E1E7644B0020605500207A
:10217000D9970208A4950208042010B521F084FF25
:10218000030611D5094CA378062B0DD1084B98688E
:1021900022F0E1FB30B140F26A42064906480CF0F9
:1021A00093FDFEE7A07010BD7020FCE7644B00209B
:1021B00060550020D9970208A49502081FB504466F
:1021C00001A812F061FB9DF80D3053B14CB1064BE4
:1021D0002078617818700020A27859709A7004B045
:1021E00010BD0220FBE700BF605500201FB504466C
:1021F00001A812F049FB9DF80D3053B14CB10020FD
:10220000054B1A7822705A789B786270A37004B0DC
:1022100010BD0220FBE700BF60550020FFF7CEBFD6
:10222000FFF7E4BF0348044B834202D0034B03B1E2
:10223000184770471C5700201C5700200000000062
:10224000064B0749C91A891048BF0131491003D00C
:10225000044B0BB101481847704700BF1C570020C2
:102260001C5700200000000010B5064C237843B92D
:10227000FFF7D8FF044B13B10448AFF300800123EC
:10228000237010BDF45100200000000078D4020833
:1022900008B5054B1BB105490548AFF30080BDE803
:1022A0000840FFF7CDBF00BF00000000A0220020C3
:1022B00078D40208A3F5803A704700BF174B002B73
:1022C00008BF134B9D46FFF7F5FF00218B460F46D5
:1022D0001348144A121A23F0C4FA0E4B002B00D0F4
:1022E00098470D4B002B00D0984700200021040098
:1022F0000D000D48002802D00C48AFF300801AF002
:10230000A5FF2000290001F0D3FA1AF025FC00BF38
:102310000000080000000000000000000020002075
:10232000002000206052002000000000000000009B
:1023300000B583B0074B0122DA60064B5B6913F0EE
:10234000400FFAD1034968461DF005FF009803B01D
:102350005DF804FB0040005910B582B004461BF044
:1023600062FB08B902B010BD00230093ADF8043041
:10237000074B1B88ADF80230ADF8044040F2FF1364
:10238000ADF800306946042020F037FBEAE700BFD3
:102390003051002008B513460A460146044800683B
:1023A00003F0DEFD00B908BD02480CF08DFCFAE731
:1023B00018550020087A02080A2800D9704730B55D
:1023C00083B004460D466B4601AA014610480068DA
:1023D00003F02CFD08B9019B23B10E480CF074FCEE
:1023E00003B030BD009B2A4621460948006803F02F
:1023F0005DFC40B9214608480CF066FC29460748B8
:102400000CF062FCECE7214605480CF05DFCE7E7C8
:1024100018550020107A0208347A0208507A02080F
:10242000587A02080A2800D9704710B504460146B8
:10243000064B186803F062FE20B9214604480CF0F0
:1024400043FC10BD03480CF03FFCFAE71855002090
:102450007C7A0208987A020838B51B4C637802220D
:1024600062F383036370DBB26FF300036370DBB26C
:1024700062F387136370DBB2012565F305136370A4
:10248000A3786FF30713A370DBB265F38303A37024
:10249000DBB243F00303A370E0700C4B4FF4FA720D
:1024A0001A80002128461BF059FC2A4600212846A4
:1024B00001F0BEFB20681BF0E1FA41F28831044BC9
:1024C00018680FF028FA38BDBC22002032510020D5
:1024D0004423002008B5294B1B78012B29D0022B5F
:1024E00039D003B108BD264B1B78264A1278B3EBCE
:1024F000420F05DA244A127C02F01802102A0DD18C
:102500001F4B00221A70204B197CC1F340111F4849
:102510001BF020FC1E4824F05DFAE3E70133184A63
:102520001370194B197CC1F3401118481BF002FCC1
:10253000D8E7134B1B78134A1278B3EB420F03DA38
:1025400001330F4A1370CDE70D4B00221A7010486B
:1025500024F040FAC6E70A4B1B780A4A1278B3EB1C
:10256000420F03DA0133064A1370BBE7044B002223
:102570001A70074824F02EFAB4E700BFF551002086
:10258000F7510020F651002010230020A48C0208EF
:10259000C0220020037823BB70470133022B22DCCA
:1025A00003EB4302104911F82220002AF5D100B5AF
:1025B0000A4603EB430102EB810C4FF0000E8CF84E
:1025C00001E04FF0010C02F821C002EB8103016829
:1025D0004268C3F80210C3F8062002895A815DF8E8
:1025E00004FB0023DAE77047E022002000B583B047
:1025F0008C461146074B1870074B83F800C0012327
:10260000019300230093054A054825F0C5F803B05F
:102610005DF804FBF5510020F6510020D524000898
:10262000C022002010B50024094B1C80094B197CE6
:10263000C1F3401108481BF08DFB1BF05CFA2146EA
:1026400001201BF099FB054B1B681C7010BD00BFDF
:102650003251002010230020A48C020844230020C3
:1026600008B5002105481BF062FA1BF0D3F9044BB2
:102670001880044B1B6800221A7008BD0423002038
:10268000B82200204023002008B501280FD00228DE
:1026900019D000B108BD124B197CC1F3401111488B
:1026A0001BF058FB002101201BF066FBF2E70C4BEE
:1026B000197CC1F340110B481BF04CFB0021012099
:1026C0001BF066FBE6E7064B197CC1F34011054899
:1026D0001BF040FB002101201BF05AFBDAE700BF92
:1026E00010230020A48C020870B5754B1A78292A93
:1026F00074D02B2A2FD0282A04D0724B1B680022BA
:102700001A7070BD1C469A725B78A27843EA022365
:10271000E27843EA0243227943EA0263214641F820
:10272000143F04220520FFF735FE237C012666F3C3
:10273000C403254605F8103F3046FFF7A5FF324693
:1027400029460020FFF726FE0023E3725E4B18683F
:102750000FF0D6F8D1E75A498B78C87843EA0023BE
:10276000087943EA0043487943EA0063496999429A
:10277000C3D1534B9A725A785A77012A1AD0002A39
:10278000BBD14F4C207CC0F3C100FFF77DFF4F4B06
:102790001B6800201870C8220221FFF727FF0122C2
:1027A00004F11D010A20FFF7F5FD474B18680FF0F3
:1027B000A7F8A2E71C46D87BFFF74EFEC8220121EE
:1027C0000020FFF713FF012204F11D010A20FFF78B
:1027D000E1FD3D4B18680FF093F88EE7384B9A7285
:1027E0005A7B022161F383025A73D2B26FF3000263
:1027F0005A73D2B261F387125A73D2B2012161F3D4
:1028000005125A739A7B6FF307129A73D2B261F36F
:1028100083029A73D2B242F003029A735878D87343
:1028200099781A7C61F3C4021A74D3B203F01803C6
:10283000102B3BD0224BD9781A7C61F345121A74C5
:102840001F4B1B7C13F0180F36D01D4C2079204DE8
:1028500028701BF0F6F81F4B4FF4FA721A80002113
:1028600001201BF07BFA01220021104601F0E0F963
:10287000E0681BF003F9012204F110010020FFF7CA
:1028800089FD012204F10F011046FFF783FD0122AB
:1028900029460220FFF77EFD642202210020FFF777
:1028A000A5FE094B18680FF02BF826E7044BD2B2AF
:1028B0006FF345121A74C3E7FFF7CEFDC5E700BFFB
:1028C000102300204C23002050230020442300200C
:1028D000FB5100203251002070B582B0294B5B7F44
:1028E00023B9284B1B7C13F0180F3FD10021012086
:1028F0001BF04EFA234C227F9DF8043062F3010353
:102900008DF80430627F9DF8043062F382038DF805
:1029100004301D48162202700423437200254570BE
:102920001A4E338883701B0AC370A27229461BF0AB
:10293000FEF84FF4FA71164B18680EF0ECFF1BF01E
:1029400069F83080217CC1F3401112481BF0FAF97C
:10295000114BC8221A804FF4FA61104B18680EF020
:10296000DAFF0F4B1B681D7002B070BD0C4B1B686B
:1029700000221A70034B187CC0F3C100FFF784FEDD
:10298000F2E700BF1023002004230020B82200201B
:1029900040230020A48C0208325100204423002050
:1029A0004823002070B908B5074B1B889BB203B1C0
:1029B00008BD002101201BF0EBF9044B18680EF054
:1029C0009FFFF5E7704700BF3251002048230020E9
:1029D00008B5044A1BF03BF8034B18680EF090FF53
:1029E00008BD00BF102300204C23002038B504464A
:1029F00020F00FF8A04201D8012038BD0546032081
:102A000001F0FCFA0028F8D01BF0EDF91BF0ECF90E
:102A10002B4622460349044800681EF030FE002081
:102A2000EBE700BFB07A02087C27002030B583B006
:102A300004468368C26853F822301D882846FFF791
:102A4000D5FF08B903B030BD00230093ADF80430C2
:102A5000164B1B88ADF80230ADF804506368E2688D
:102A60009B1A012B1DDDA368013253F822301B880D
:102A7000ADF800301FF0BDFF694603201FF0BDFF19
:102A80000446032001F0BAFA0028DBD01BF0ABF9B2
:102A90001BF0AAF922460649064B18681EF0EFFD06
:102AA000D0E740F2FF13ADF80030E3E734510020E7
:102AB000E87A02087C27002030B583B0044683689A
:102AC000C26853F822301D882846FFF78FFF08B9E7
:102AD00003B030BD00230093ADF80430154B1B88C4
:102AE000ADF80230ADF804506368E2689B1A012B20
:102AF0001BDDA368013253F822301B88ADF800308B
:102B0000694604201FF079FF0446032001F076FA9D
:102B10000028DDD01BF067F91BF066F92246064954
:102B2000064B18681EF0ABFDD2E740F2FF13ADF87C
:102B30000030E5E734510020087B02087C270020A4
:102B400030B583B004468368C26853F822301D88CC
:102B50002846FFF74BFF08B903B030BD00230093B0
:102B6000ADF80430154B1B88ADF80230ADF80450B9
:102B70006368E2689B1A012B1BDDA368013253F8DE
:102B800022301B88ADF80030694602201FF035FF67
:102B90000446032001F032FA0028DDD01BF023F9AF
:102BA0001BF022F922460649064B18681EF067FD05
:102BB000D2E740F2FF13ADF80030E5E734510020D2
:102BC0001C7B02087C27002030B583B08368C26874
:102BD00053F822301C780023019343689B1A012B81
:102BE00019DD01AA01211EF017F801469DF8040025
:102BF0001FF0FBFE054680B1022001F0FFF960B135
:102C00001BF0F1F81BF0F0F82A460649064B18684D
:102C10001EF035FD01E01FF0ECFE20461FF0F1FE36
:102C200003B030BD387B02087C27002010B5034676
:102C30008168C26851F82200B0F900001A4C208067
:102C40005B689B1A012B0FDD013251F8223093F99A
:102C50000010003918BF01211FF07CFEA0B903202D
:102C600001F0CCF910B910BD0021F5E71BF0BBF85D
:102C70001BF0BAF80D4B1C681FF070FE02460C49A1
:102C800020461EF0FCFCEEE7012001F0B7F9002819
:102C9000E9D01BF0A8F81BF0A7F80649034B186809
:102CA0001EF0EDFCDFE700BF345100207C27002040
:102CB0009C7B0208B07B020808B51FF03FFE032092
:102CC00001F09CF900B908BD1BF08DF81BF08CF8E1
:102CD0000249034B18681EF0D2FCF4E7C87B0208D7
:102CE0007C27002008B58368C26853F822301A8810
:102CF000094B1A80032001F081F900B908BD1BF0CF
:102D000072F81BF071F8044B1A880449044B1868D8
:102D10001EF0B5FCF2E700BF80560020E87B0208F9
:102D20007C27002008B5024B18680EF0E9FD08BDAD
:102D3000502300202DE9F04186B01FF01BFE044611
:102D4000894B1B7813F0020F2CD0884E13F0010F23
:102D50002AD0864F13F0040F28D0DFF8108203200A
:102D600001F04CF928BB032001F048F958BB0320BF
:102D700001F044F9002835D1032001F03FF9002883
:102D80003ED1032001F03AF9002847D1032001F099
:102D900035F900285ED1032001F030F9002867D111
:102DA000002471E0724ED1E7714FD3E7DFF8C081A4
:102DB000D5E71BF018F81BF017F86E496E4B186832
:102DC0001EF05DFCCFE71BF00EF81BF00DF86A4B10
:102DD0001D6805F0A3FB02460B46684928461EF015
:102DE0004EFCC4E71AF0FFFF1AF0FEFF624B1D68AD
:102DF0001FF098FD0246624928461EF040FCBBE7E2
:102E00001AF0F1FF1AF0F0FF5B4B1D681FF0BEFDDA
:102E100002465C4928461EF032FCB2E71AF0E3FF96
:102E20001AF0E2FFE279A37961792079E57894F8E4
:102E300002C094F801E024780594CDF810E0CDF8B4
:102E40000CC00295019000914F494B4800681EF05C
:102E500016FC9BE71AF0C7FF1AF0C6FF464B1C682A
:102E60001FF08CFD0246494920461EF008FC92E7FF
:102E70001AF0B9FF1AF0B8FF45493F4B18681EF029
:102E8000FEFB8DE70134E4B2072C12D8032001F0D9
:102E9000B5F80028F6D01AF0A6FF1AF0A5FF364BB9
:102EA0001D681FF067FD025D3A4928461EF0E7FBEA
:102EB000E8E7032001F0A2F898B9032001F09EF89A
:102EC000C8B9032001F09AF818BB032001F096F866
:102ED00068BB032001F092F8002836D106B0BDE8A7
:102EE000F0811AF080FF1AF07FFF2B49224B1868FF
:102EF0001EF0C5FBE1E71AF076FF1AF075FF1E4BD6
:102F00001C681FF03FFD0246244920461EF0B7FB17
:102F1000D7E71AF068FF1AF067FF174B1C681FF01D
:102F200015FD02461E4920461EF0A9FBCDE71AF00A
:102F30005AFF1AF059FF104B1C681FF00FFD024694
:102F4000184920461EF09BFBC3E71AF04CFF1AF00D
:102F50004BFFCDF800803B463246134906480068D7
:102F60001EF08DFBBAE700BFF6560020507B02082A
:102F7000587B0208047C02087C2700200C7C020895
:102F8000287C0208447C0208607C0208847C0208D9
:102F9000A07C0208B47C02084C7A0208BC7C0208BF
:102FA000D87C0208F07C0208087D020830B583B0A6
:102FB0008368C26853F822301C7801A920461FF0AC
:102FC000C1FC88B9032001F019F808B903B030BD7D
:102FD0001AF009FF1AF008FF019B22460B490C4822
:102FE00000681EF04CFBF1E70546012001F006F8F1
:102FF0000028EBD01AF0F7FE1AF0F6FE2A46054933
:10300000034B18681EF03BFBE0E700BF407D020861
:103010007C2700205C7D020870B58268C36852F886
:1030200023100C88013352F823301D78294620469E
:103030001FF0D7FC80B9032000F0E0FF00B970BD9D
:103040001AF0D1FE1AF0D0FE2B4622460B490C484E
:1030500000681EF014FBF2E70646012000F0CEFFE8
:103060000028ECD01AF0BFFE1AF0BEFE3246054929
:10307000034B18681EF003FBE1E700BF807D0208E8
:103080007C270020B07D020870B582B08368C268DA
:1030900053F822301B78134A137013F0020F0ED02E
:1030A000114C13F0010F0CD00F4D13F0040F0AD088
:1030B0000D4E032000F0A2FF38B902B070BD0B4CDA
:1030C000EFE70A4DF1E7094EF3E71AF08CFE1AF02C
:1030D0008BFE00962B4622460549064800681EF0E6
:1030E000CEFAEAE7F6560020507B0208587B020829
:1030F000647B02087C27002030B58FB004460D4663
:1031000068461AF033FD0DF1200EEC46BCE80F00C6
:10311000AEE80F009CE803008EE8030008A9464BC8
:10312000186820F06CFA10F1880F46D168461AF042
:103130001DFD0DF1200EEC46BCE80F00AEE80F00BF
:103140009CE803008EE803004FF41053ADF82030E4
:103150008023ADF822304FF44073079307A81AF08C
:1031600015FD079B0A93354B0B93334B1A68099B4C
:103170000D9213F0FF0F04D123F0FF0343F001037E
:103180000993012309932C4B2A46214608A820F0D5
:1031900053FA044610BB032000F030FF90B9264BD1
:1031A00018681FF0C7FB0546002831D1032000F046
:1031B00025FF044610BB01242FE01F4B186820F0A8
:1031C000F5F9B3E71AF00FFE1AF00EFE1A4B1A6863
:1031D0001B491C4B18681EF052FAE0E7032000F070
:1031E0000DFF0028DBD01AF0FEFD1AF0FDFD22468F
:1031F0001549144B18681EF042FAD0E71AF0F3FD97
:103200001AF0F2FD11490F4B18681EF038FA04E06D
:10321000032000F0F3FE044610B920460FB030BD85
:103220001AF0E1FD1AF0E0FD2A460949054B18683D
:103230001EF025FA0024F0E73023002000014405A9
:10324000E07D02087C270020107E0208347E020800
:10325000547E020800B583B00021019101AA1DF03F
:10326000DBFC019910290ED0032000F0C7FE60B1ED
:103270001AF0B9FD1AF0B8FD10220549054B18687F
:103280001EF0FDF901E0FFF737FF03B05DF804FB26
:10329000747E02087C270020022900D0704708B500
:1032A000024B186808B119F071FC08BDA84B00204A
:1032B00070B588B0012009F043FD434C7823E373D7
:1032C000237C43F020032374DBB26FF3C403237425
:1032D0003E4E962333700225257704F1100100201D
:1032E000FFF76AF804F10F010120FFF765F8314696
:1032F0002846FFF761F804F11C010320FFF75CF892
:1033000004F11D010A20FFF757F804F1140105200C
:10331000FFF752F80323237720F08DFA2C492D482C
:1033200009F014FC2C492D4809F010FC2C492D48BB
:1033300009F00CFC2C492D4809F008FC2C492D48BB
:1033400009F004FC01242C4B1C6002A81AF035FC87
:1033500002A9204620F053F910F1880F0FD0264B18
:1033600018681FF0E7FA1FF038FB2449244808F0DA
:103370003DFD184B18680EF0C3FA08B070BD1E4B27
:103380001A68039B079213F0FF0F03D123F0FF038A
:10339000234303931B4B05934FF44073019301A800
:1033A0001AF01BFC019B04934FF41053ADF8083046
:1033B0008023ADF80A30012303930F4B10221249EA
:1033C00002A820F039F9CAE710230020FB510020A1
:1033D000E934000850230020E92600084C2300208F
:1033E000D92800084823002025260008442300206F
:1033F0006126000840230020302300207C54002058
:1034000034230020000144056C54002070B50020D6
:10341000FFF708F80120FFF705F80220FFF702F890
:103420000320FEF7FFFF0A20FEF7FCFF194C78206F
:10343000E073237C43F020032374DBB26FF3C403F7
:103440002374FFF709F8144E962030701AF0F9FA39
:10345000002525776577012204F11C010320FEF782
:1034600099FF012204F11D010A20FEF793FF0122BA
:1034700004F110012846FEF78DFF0122314602209B
:10348000FEF788FF012204F10F011046FEF782FFCC
:1034900070BD00BF10230020FB51002008B5022999
:1034A00012D80E4B1B7F13B1022B07D008BD002092
:1034B000FEF752FF0A481AF083FFF7E7C8220221FD
:1034C0000020FFF793F8F1E7064B1B6800221A7003
:1034D000FFF79CFF1AF0B1FAE8E700BF10230020C5
:1034E000A48C02084423002010B582B01AF092FA8E
:1034F00082B2594B1A80594B1B7F022B2ED0032BC3
:103500007BD09BB1002156481AF011FB4FF4FA71A1
:10351000544B18680EF0FFF91AF07CFA4E4B1880E5
:10352000514B1B6800221A7002B010BD9DF8043088
:10353000012262F304038DF804309DF804306FF328
:1035400046138DF80430464B15221A700221597229
:103550009DF804105970414B9A72D3E79DF8001002
:1035600063F301018DF800103C4C617F9DF8003041
:1035700061F382038DF80030237CC3F3C10C9DF806
:1035800000106CF3C4018DF80010C3F340119DF8D6
:10359000003061F345138DF80030A37A282B15D045
:1035A0002B2B1FD0292BADD12D4B29211970062192
:1035B00059729DF8001059709870120ADA70274AF3
:1035C000D27B1A71294A12785A719BE72449282420
:1035D0000C7004244C72214CE47A4C708870140AEC
:1035E000CC70DDE71E492B240C7004244C7200249F
:1035F0004C708870140ACC70D4E71D4B1B78BBB19B
:10360000164B02221A77154B5B7F012B14D0134BFC
:103610005B7F002B7FF476AF104B1B7C13F0180FF1
:1036200012D00E4B187CC0F3C100FFF72DF869E7EC
:103630000A4B00221A77E6E7084CE0681AF01EFAF7
:10364000E07BFEF709FFE2E7044CE0681AF016FAA7
:10365000E07BFEF701FF55E7B82200201023002091
:10366000042300204023002050230020FB51002091
:10367000F8510020014B1878704700BFFA51002024
:10368000F8B506460D468B681B78152B01D0002433
:1036900036E0334B1B7F002BF9D10028F7D1304C9B
:1036A000207CC0F3C100FEF7EFFF02232377012740
:1036B0006777237C6FF3C40323743A4604F11C013B
:1036C0000320FEF767FE3A4604F11D010A20FEF7CB
:1036D00061FE3A4604F110010020FEF75BFED6E7DA
:1036E00004EB44021F4B03EB82035B780A2B1DD1D2
:1036F0001C49900001EB820300220A545A700134E5
:10370000022C21DCAB68197804EB4402154B03EB67
:1037100082039B789942F2D1002EE1D111499000A9
:1037200001EB820300220A545A70E8E70D4A04EBC9
:10373000440C02EB8C00012102F82C100B44437066
:1037400002301AF0F4F9DAE7054B9A7AAB681B7885
:103750009A4200D0F8BD044B1B6800221A70F9E7AA
:1037600010230020E02200204023002010B59038D4
:10377000062846D8DFE800F00426304545373E00ED
:103780000124234B1C70C82202210020FEF72EFFCB
:10379000204B1C70204B1B7F6BB11F4B1B7F022BE0
:1037A00019D11D4B03221A774FF4FA711B4B18687D
:1037B0000EF0B1F80FE01A4B1988184B18680EF08C
:1037C000AAF8EAE70020124B1870124B1870642216
:1037D0000521FEF70BFF10BD4FF47A720221002085
:1037E000FEF704FFF7E74FF47A7202210020FEF79C
:1037F000FDFEF0E74FF47A7202210020FEF7F6FE9C
:10380000E9E74FF47A7202210020FEF7EFFEE2E7CB
:10381000F8510020FA5100201023002050230020EE
:103820008056002008B523F0ABFF074B1B782BB167
:10383000064B1B68C01A064B984200D808BD0548C5
:103840001AF0BEFDFAE700BFF95100203C2300202A
:10385000A0860100A48C020810B582B000230422C7
:103860000121084604F072FA0123042206210020F7
:1038700004F06CFA002301221946104604F066FA9F
:10388000012001900024009403462246214604F0C2
:10389000F3F90649204601F017FC1B2007F03AFC1B
:1038A0001B201DF097FE02B010BD00BF0FDC010809
:1038B00008B51EF0E3FE00F017FA00F051FDFFF727
:1038C000CBFF1AF0A0F9074B18781AF0BAF800F0FD
:1038D00067F91EF0C5FE1EF0FAFE1EF0C2FE22F0D1
:1038E00043FDF8E7FB51002008B5024B1B6803B10C
:1038F000984708BD8423002008B5024B5B6803B1DC
:10390000984708BD8423002008B5024B9B6803B18B
:10391000984708BD8423002008B5024BDB6803B13B
:10392000984708BD8423002008B5024B1B6903B1EA
:10393000984708BD8423002008B5024B5B6903B19A
:10394000984708BD8423002000B585B0094B18684E
:10395000094B1860094B0A4A13600A4A01920A4A45
:1039600012680292039301A91DF078F905B05DF881
:1039700004FB00BFA0540020C83100209454002054
:10398000C43100206C8C02085826002008B5024B78
:1039900018681DF077F908BDA054002038B507F06D
:1039A000EFFB0446064D2B68D3F8B00207F0DCFBB2
:1039B00028681DF081F9204607F0D6FB38BD00BF0E
:1039C000A05400200023062073B1704754B224B9DC
:1039D000013353B15DF8044B70470228F8D00868F2
:1039E0000A4908601046F3E710B4094A52F8231058
:1039F0000A7A022AEAD9032AEAD1441EE4B2012C47
:103A0000E6D90868014908601046E1E75826002019
:103A1000A454002010B5A2B02024224600211AA8E8
:103A200021F01FFF304B1A934FF4E1331C93022314
:103A30008DF8753003238DF876302C4B1E930623BA
:103A40008DF87E3009238DF8803000211591169174
:103A50001791189119914FF480131593244B1993D2
:103A600010911191129113911491224B1093224BAA
:103A700014933C2201A821F0F4FE0DF1040E0DF187
:103A8000540CBCE80F00AEE80F00DCF80030CEF8B4
:103A900000300DF1180E0DF1400CBCE80F00AEE83F
:103AA0000F00DCF80030CEF80030144B0B930C9470
:103AB00001238DF834308DF83530114B0F93114BB5
:103AC0001AAA01A9104807F007FC04469DF83730F0
:103AD0003BB100214FF4E1301AF0EAFA204622B05F
:103AE00010BD0321F6E700BF489002083890020895
:103AF0003C00015B010010004400015B5C260020DB
:103B0000B85400207C2600203827002008B531B9A1
:103B1000084B1868036823B107F0F4FF01E001299E
:103B200000D908BD034B18680368002BF9D01EF0BC
:103B300088F8F6E7CC54002008B50349034808F09C
:103B400055F9FFF767FF08BDD0540020602700201B
:103B500008B502481DF0D9FD08BD00BF3827002078
:103B600008B502481DF0D1FD08BD00BF3827002070
:103B700008B5024B5A6A1868904708BD38270020DC
:103B800008B502481AF018FB08BD00BF8C8C02086B
:103B900008B502481AF00FFC08BD00BFA48C02084B
:103BA00070B590B001212A2003F0D6F800250D95BC
:103BB0000E950F951B4E2A461B49304604F050F9CE
:103BC0008DF839000DF10C0C184C0FCCACE80F003F
:103BD0000FCCACE80F0094E803008CE803004FF42E
:103BE000966306930195029503238DF806308DF8B0
:103BF000065001238DF800308DF801508DF80250E9
:103C00008DF8035010238DF8013003AA0DA930461A
:103C100004F066F96A4601A930461CF05DFA10B05E
:103C200070BD00BF0040005940420F00BC8C02082C
:103C300042B9C0B201228A4000EB40000001074BAC
:103C40001A507047012A00D07047C0B201228A4042
:103C500000EB40000001024B1A50F5E740E0035032
:103C600040D0035000B583B00B4605490978019157
:103C70000092002201211EF0A1FE03B05DF804FBBA
:103C8000F656002070B5044606790568FA2022F041
:103C900085FF854205D2134B03EBC60300221A7140
:103CA00070BD25684FF47A7022F078FF854205D206
:103CB0000C4B03EBC60301221A71F1E7246840F6AE
:103CC000B83022F06BFF844205D2064B03EBC603EB
:103CD00002221A71E4E7034B03EBC60303221A71B5
:103CE000DEE700BF7427002038B5114B18681AF0C2
:103CF00041F9054698B9002408E00E4B53F824001A
:103D00001AF061FA01280CD00134E4B2002CF4D08E
:103D1000094B00221A70064B18681AF03BF9284626
:103D200038BD23F02DFD054B43F83400ECE700BF10
:103D300070270020D8540020F75600207427002058
:103D400000B9704730B583B00446104D104928685B
:103D50001DF095FC1AF047F81AF046F80D4B009349
:103D60004FF48D730C4A0D4928681DF088FC2346DA
:103D70000B4A0C4928681DF082FC204600F086F9A9
:103D8000094928681DF07BFC00BEFDE77C27002068
:103D90004C7A0208948D0208E48C0208548D0208C3
:103DA000608D0208688D0208808D020800B589B018
:103DB00000230BB1002312E00022244941F8232004
:103DC0002349CA540133DBB2F3E7224A02EBC301B1
:103DD00004200871002142F833100133DBB2002BBC
:103DE000F3D0002301930293039304930593069366
:103DF00007939DF8043043F001038DF80430DBB2E3
:103E000043F008038DF80430DBB243F020038DF853
:103E10000430114B0293114B039302238DF81030A1
:103E20004FF4806305930523ADF818300423ADF8F3
:103E30001A30082307930A4901A800F045F910B980
:103E400009B05DF804FBFFF77BFFF9E76C27002062
:103E50006827002074270020653E0008B9DD0108AE
:103E60007027002010B584B001AA02A9124B18686F
:103E70001AF0D2F8E0B902A8FFF704FF00242CB131
:103E80000D4B18681AF086F804B010BD0B4B03EB0D
:103E9000C4031979042902D10134E4B2EFE72046C2
:103EA000FFF7FCFA054B03EBC40304221A71F3E796
:103EB000FFF746FFE8E700BF7027002074270020C7
:103EC0001D4B1B78002B36D170B582B000240CB18D
:103ED00002B070BD194B53F82430834202D0013434
:103EE000E4B2F4E71AF06FF901281ED023F048FC81
:103EF000134B53F83460861B00968DF8044028203D
:103F000022F04CFE864205D80D4B03EBC4031B790F
:103F1000052BDDD1082269460A4B18681AF04AF8C9
:103F20000028D5D0FFF70CFFD2E723F029FC044B83
:103F300043F83400CCE77047F7560020D8540020EF
:103F4000742700207027002010B58368C26853F8DA
:103F500022301C7804B10024064B1B5D03B110BD58
:103F600023F00EFC044B43F82400024B01221A55A7
:103F7000F5E700BF682700206C27002038B583686C
:103F8000C26853F822301C7804B10024194B1B5D21
:103F9000012B00D038BD23F0F3FB174B53F824500E
:103FA000451B144B00221A55FA2022F0F7FDA842B7
:103FB00004D900212046FFF771FAEBE74FF47A703D
:103FC00022F0ECFDA84204D901212046FFF766FA51
:103FD000E0E740F6B83022F0E1FDA84204D9022122
:103FE0002046FFF75BFAD5E703212046FFF756FA94
:103FF000D0E700BF682700206C27002003460B4A4B
:10400000107828B10A4A12789A4202D2002000E0C1
:104010000120084A12783AB1074A127842FA03F3AB
:1040200013F0010F00D10020704700BFFA560020A6
:10403000F9560020FD510020F856002008B5084B25
:1040400001221A70074B00221A70074B04221A70C3
:10405000064B1F221A7007F093F8054B186008BD35
:10406000FA560020FD510020F9560020F856002095
:104070007C27002008B50349034B18681DF0FFFAA0
:1040800008BD00BFAC8D02087C27002070B5064635
:104090000A4C0B4920681DF0F2FA07F071F805464A
:1040A000206807F061F83046FFF7E4FF284607F084
:1040B0005BF8044920681DF0E2FA70BD7C270020FF
:1040C000B08D0208B48D0208F8B500284FD00D4617
:1040D000044600294DD0037813F0030F36D0426810
:1040E000002A48D013F0080F02D0A28A002A44D038
:1040F00013F0200F05D0E38A002B40D0A369002BDA
:104100003FD02C201DF0F7FE064600283BD02C2285
:10411000002121F0A6FB21686268A368E068716055
:10412000B260F360306121696269A3697161B26153
:10413000F361237813F0040F0ED000272E6063681C
:1041400043B13146114819F0D7FF03E04268002A15
:10415000C8D021273846F8BD0121304619F0D6FED7
:1041600007460028EAD030461DF0A4FFF2E72227D8
:10417000F0E72227EEE72127ECE72127EAE72127CE
:10418000E8E72127E6E71927E4E700BF80270020BA
:1041900008B5034819F0A9FF19F03DFD08BD00BF9F
:1041A0008027002010B50B4B1C6802E023F094F828
:1041B000246864B123F095F894F82030002BF5D0F2
:1041C000A36A002BF2D023F087F8002000E0012042
:1041D00010BD00BF8027002010B50B4B1C6802E00B
:1041E00023F07AF8246864B123F07BF894F8203047
:1041F000002BF5D0A36A002BF2D023F06DF8042039
:1042000000E0012010BD00BF8027002010B50C4B3E
:104210001C6802E023F060F824687CB123F061F8A8
:1042200094F82030002BF5D0A36A002BF2D0013B8C
:10423000A36223F051F8A3689847EDE710BD00BFD3
:104240008027002008B5044823F020F919F005FD67
:1042500000F086F808BD00BF3090020808B502489B
:1042600023F014F908BD00BF309002082DE9F04199
:1042700080460F4601F109050026344604E05B2123
:10428000082000F093FA0134AC4233D2052C1BD83D
:1042900001A353F824F000BF7F420008B142000898
:1042A000E5420008B9420008BD420008C1420008CA
:1042B000FBB20433D9B2E3E78021E1E70021DFE775
:1042C000731C3146DEB2DBE7BB1DA3420CD0FB1DE5
:1042D000A3420BD007F10803A34209D0A31F18F88B
:1042E0000310CDE7D121CBE75A21C9E75A21C7E70F
:1042F0005D21C5E70020BDE8F08100BF00B583B0B7
:1043000000220092019202218DF80010054819F058
:10431000B9FE019008216846FFF7A8FF03B05DF8D9
:1043200004FB00BF006A180000B583B0044B1B8873
:10433000ADF8043001A800F015FB03B05DF804FBF4
:10434000B88D020800B583B0044B1B88ADF804306B
:1043500001A800F0D7FA03B05DF804FBB88D02089D
:104360002DE9F04F97B04D4D09AC2E1D0FCE0FC467
:104370003368236001AC05F118060FCE0FC496E830
:104380000F0084E80F00464823F080F8454823F0EA
:104390007DF801268DF8096000248DF80840424B15
:1043A0000B9301AB0D93414F09A938461BF045FE15
:1043B000B5F838B0ADF838B0324604210EA800F098
:1043C00065FAB5F83CA0ADF83CA0224631460FA8EE
:1043D00000F05CFAB5F84090ADF840903246042108
:1043E00010A800F053FAB5F80080ADF844803246CA
:1043F000042111A800F04AFA2D4D2E4BC5F8F834CF
:104400004FF00213C5F8F434A3F58033C5F8FC343B
:104410001C23C5F8E4344FF4487008F035FBFFF76F
:1044200083FF142008F030FBFFF78CFF232008F0F7
:104430002BFBFFF779FFB92138461BF0E6FDFFF7AC
:1044400081FFADF848B02246214612A800F01EFABE
:10445000ADF84CA02246214613A800F017FAADF89B
:1044600050903246214614A800F010FAADF854805E
:104470003246214615A800F009FA384603F086F9BD
:10448000C5F8E444C5F8F844C5F8F444C5F8FC445C
:10449000044823F000F817B0BDE8F08FB88D02088B
:1044A0003090020834900208E070720000000A5058
:1044B00000C003500200030008B50448044A121A61
:1044C0009210044919F007FE08BD00BF80010008E2
:1044D000800300086052002008B5154B83F30A885A
:1044E00000F030F8FFF7E8FF124A0AE01068516860
:1044F00050F8230041F82300013391688B42F5D333
:104500000C320D4B9A4201D20023F6E70B4A08E029
:104510001168002041F82300013351688B42F7D322
:104520000832074B9A4201D20023F6E7FDF7C6FE98
:104530000000002080D402088CD402088CD4020829
:104540008CD4020870B5134B134A9A60D3F88820B4
:1045500042F47002C3F88820104A4FF480419166FB
:104560000F4D05F500544FF0FF3222660D4A62668A
:104570000222C3F8D020BFF34F8FBFF36F8F00200C
:1045800006F0C8FD4FF44036E66000201DF022F82A
:104590002E6170BD00ED00E00000000800900050AA
:1045A000008000447FFF7F01014B1860704700BF0F
:1045B000EC54002008B5064B1860064B1B6F03F047
:1045C0000703032B00D008BD21F0D2FBFBE700BF9F
:1045D000F454002000800050BFF34F8F0549CA6893
:1045E00002F4E062044B1343CB60BFF34F8F00BF74
:1045F000FDE700BF00ED00E00400FA05F0B18446DD
:10460000F1B110B409E004F120000FE02033C01A2A
:1046100018D1BCB10CF1010C01319CF800400B4BDE
:104620001B5D03F00303012BEDD020460B78074AF6
:10463000D25C02F00302012AE9D1E7E701207047CA
:10464000012070475DF8044B704700BF45D3020856
:1046500030B587B00546046823798DF80C3063794E
:104660008DF80D301A4822F011FF0022012103A815
:1046700000F00CF90DF10B0103A819F065FE9DF88F
:104680000B302370A379022B02D0002007B030BD7D
:104690004FF0FF330593049300950E4B012205A9BB
:1046A00003A800F02FFA059BB3F1FF3F07D0009558
:1046B000084B022204A903A800F084F9E5E700955D
:1046C000044B042204A903A800F07CF9DDE700BF35
:1046D00030900208D5E1010810B582B000240194A1
:1046E0002A4822F0D3FE8DF8004003238DF80130D4
:1046F00001220421684600F0C9F8254B0122C3F8C5
:10470000442401A9052022F0BAFE00283BD1214B08
:10471000D3F8F02042F00102C3F8F020D3F8FC20D7
:1047200042F08072C3F8FC20A3F55D431A4A1A6078
:10473000019B03F5D52303F2FC43DB08174AA2FBD8
:1047400003239B0A013B164A13610223C2F8F0308F
:104750004FF48073C2F804334FF06043114AC3F83A
:10476000B02F114AC3F8802ED3F8002E42F4807285
:10477000C3F8002EFF2283F82020D3F8002E22F465
:104780008072C3F8002E02B010BD00BF3090020846
:1047900000D0035000ED00E0FF03004017916502D8
:1047A000000004E055CEACC5090001004FF06043A5
:1047B000D3F8803E13F0010F01D1112070470E4A4B
:1047C000D2F8FC3043F08073C2F8FC304FF0604305
:1047D000D3F8002E4FF0010C0CFA00FC42EA0C0258
:1047E000C3F8002E53F82030002BE8D04FF0604380
:1047F00003F820100020704700ED00E010B50446DB
:104800000FE00123834024EA03040F2814D800EBAF
:1048100040020E4B03EB82035A6812B19968C0B292
:10482000904794B1234600201F28EAD813F0010FC7
:10483000E7D101305B08F7E7103800EB40039B003D
:10484000B033024A13440433E6E710BD8427002046
:1048500008B50D4822F01AFE1A2006F04BFC28B9C4
:104860001B2006F047FC40B9002008BD1A2006F0C6
:1048700051FC1A201CF0AEFEF2E71B2006F04AFCA9
:104880001B201CF0A7FEEFE7309002082DE9F04155
:1048900070B30C46174605460F292BD803784BB149
:1048A000022B20D0032B21D0012B01D0002303E0C9
:1048B0007F2301E040F2FF736A78D34013F0010FC9
:1048C0001AD00F4BD3F81063C6B922F01DFD8046F5
:1048D0003A462146284603F067FE404622F00FFD87
:1048E0003046BDE8F08140F2FF33E5E73F23E3E7E0
:1048F0002226F5E72126F3E72126F1E70226EFE756
:1049000000C0035040B310B5044603784BB1022BEE
:104910001DD0032B1ED0012B01D0002303E07F23E9
:1049200001E040F2FF736278D34013F0010F15D01D
:1049300022F0EAFC237862780121914003EB4303E3
:104940001B01074AD15022F0DAFC002010BD40F2D2
:10495000FF33E8E73F23E6E7222070472120F5E711
:1049600040D0035040B310B5044603784BB1022B3E
:104970001DD0032B1ED0012B01D0002303E07F2389
:1049800001E040F2FF736278D34013F0010F15D0BD
:1049900022F0BAFC237862780121914003EB4303B3
:1049A0001B01074AD15022F0AAFC002010BD40F2A2
:1049B000FF33E8E73F23E6E7222070472120F5E7B1
:1049C00040E00350002866D02DE9F0410C46154622
:1049D0001F460646002960D002784AB1022A3ED01E
:1049E000032A3FD0012A01D0002303E07F2301E006
:1049F00040F2FF737178CB4013F0010F01D1FF2A11
:104A00004DD1022D01D9042D4BD122F07DFC8046E1
:104A10003378FF2B28D12368B3F1FF3F2BD02268D6
:104A2000B2F1FF3F32D0204B02EB420203EB820295
:104A30005760226802EB420203EB8203069A9A60F7
:104A40003378FF2B05D0226801239340174AC2F820
:104A50002434404622F053FC0020BDE8F08140F2AF
:104A6000FF33C7E73F23C5E72A462168304603F0F6
:104A700005FE2060CFE73378FF2BD0D10C4BD3F865
:104A8000241470781BF0A8FC2060C8E7404622F090
:104A900036FC2D20E1E7222070472220DDE721208F
:104AA000DBE72120D9E700BF8427002000D0035096
:104AB00000C00350B0F1FF3F1AD038B504460F28AC
:104AC00018DC002818DB22F01FFC0123A3400B4A4E
:104AD000C2F82034C2F82434094B04EB440203EB3F
:104AE000820200255560956022F009FC284638BDF9
:104AF000212070472120FAE72120F8E700E0035049
:104B000084270020002856D02DE9F0410C46174696
:104B10001E460546002950D0017849B1022939D0F6
:104B200003293AD0012901D0002303E07F2301E0CB
:104B300040F2FF736A78D34013F0010F01D1FF29CF
:104B40003DD122F0E1FB80462B78FF2B27D1226854
:104B5000B2F1FF3F2AD01B4B02EB420203EB820271
:104B6000C2F8B860226802EB420203EB8203069AA5
:104B7000C3F8BC202B78FF2B06D02268103201230B
:104B80009340114AC2F82434404622F0B8FB00207A
:104B9000BDE8F08140F2FF33CCE73F23CAE73A4655
:104BA0002168284603F00AFE2060D0E7404622F044
:104BB000A6FB2D20ECE7222070472220E8E72120E9
:104BC000E6E700BF8427002000D0035008B5084B5B
:104BD000D3F82404D3F82024104000F0553020F0FE
:104BE000502003F50053C3F82004FFF707FE08BD6B
:104BF00000C0035008B5084BD3F82404D3F8202490
:104C0000104000F0AA3020F0A02003F50053C3F8B4
:104C10002004FFF7F3FD08BD00C0035010B582B0BB
:104C200004460A4822F032FC23788DF80430637879
:104C30008DF80530A278B2FA82F2520904210DEB08
:104C40000100FFF723FE002002B010BD30900208E3
:104C5000F0B585B00C4694469DF83410664A12783B
:104C6000002A00F0BD800546BCF1070F00F2BA80B3
:104C70000A9A002A00F0B8800B9A002A00F0B68049
:104C80000E9AB2F5006F00F3B38001285BD05B4A47
:104C900002EB0C12127B002A00F0AC800022009282
:104CA000019202920392564A02EB4C1E002C4FD105
:104CB0004FEA4C1600209051CEF80400CEF80800C0
:104CC000CEF80C009EF8020040F010008EF80200B2
:104CD0009EF8030040F030008EF8030021B9C1B205
:104CE00041F003018EF8031000930E9B013B444AF0
:104CF0004FEA4C1002EB4C11165A63F30E16165283
:104D00000A9B8B600B9B4B60CB789DF83C2062F339
:104D10008303CB70012D36D0109B002B56D0374A21
:104D20004FEA0C1102EB0C1310985050119A5A6074
:104D300000249C605D7372466946604603F0F6FA93
:104D4000204605B0F0BD0C9A002AA0D12D48F8E706
:104D50002B4F4FEA4C1607EB4C120020B851506015
:104D60009060D060907840F010009070D07840F063
:104D70000300D0700029B7D107EB4C12C1B241F04B
:104D80003001D170B0E70E460A7B42F001020A738F
:104D9000D2B242F002020A73CA68042161F39F0290
:104DA000F26006F1100796E80F0087E80F00F2693D
:104DB0006FF0030161F39F02F2610C9B7361012CA0
:104DC000AAD10B9AB2610C9A7260A5E7002DA6D108
:104DD0000B4B03EB4C139A786FF304129A709EE717
:104DE0000948AEE70748ACE70648AAE70548A8E740
:104DF0000448A6E70548A4E7FE510020EC2900205E
:104E0000EC280020018000F0028000F0078000F014
:104E1000134B1B78FBB110B50446F0B122F074FAC5
:104E20000023072B13D80F4A02EB0312127B0AB19F
:104E30000133F6E723600B4A190102EB0313012447
:104E40001C730024545022F05AFA204602E022F04B
:104E500056FA054810BD054870470548FAE700BFF7
:104E6000FE510020EC290020048000F0028000F0B8
:104E7000018000F038B522F047FA04460023072BE2
:104E800006DC0C4A02EB0312127B12B90133F6E77F
:104E9000002222B1204622F032FA074838BD03F042
:104EA000F1F90025054B1D70204622F028FA28460E
:104EB000F4E700BFEC290020058000F0FE5100203F
:104EC0000F4B1B78BBB110B50446072815D822F04C
:104ED0001BFA0C4B03EB04131B7B1BB922F00FFADC
:104EE00009480BE0074B03EB041300241C7322F06A
:104EF00006FA204602E005487047054810BD00BF8D
:104F0000FE510020EC290020068000F0028000F015
:104F1000018000F000B583B0134B1B6801930023A0
:104F20008DF8043022F0F0F9104B1B7833B90F4B99
:104F300001221A7022F0E3F9002309E022F0DFF9E0
:104F40000B480EE00B4A02EB0312002111730133F0
:104F5000072BF7DD08238DF8073001A803F0B6F919
:104F6000002003B05DF804FBFC8D0208FE51002018
:104F7000038000F0EC29002010B5104C2478BCB15F
:104F8000072817DC0E4C04EB0014247BA4B10C4C56
:104F90004FEA001E04EB001C44F80E30029BCCF8D4
:104FA00004300024CCF8084003F0C0F9204610BDBE
:104FB0000448FCE70448FAE70448F8E7FE510020FB
:104FC000EC290020028000F0018000F0078000F052
:104FD00008B50A4B1B785BB107280BD8084B03EBCD
:104FE00000131B7B43B1002103F062F9002008BDD0
:104FF0000448FCE70448FAE70448F8E7FE510020BB
:10500000EC290020028000F0018000F0078000F011
:1050100008B50A4B1B785BB107280BD8084B03EB8C
:1050200000131B7B43B1012103F042F9002008BDAE
:105030000448FCE70448FAE70448F8E7FE5100207A
:10504000EC290020028000F0018000F0078000F0D1
:10505000F8B5194B1F6D5B6D1F4002D4012500246C
:1050600002E0FEE701346D00072C24D83D42F9D060
:10507000124B1D652301124AD358002BF2D002EBCC
:105080000416B1680131B16072682046984780F01B
:105090000100C0B2737B012BE4D10028E2D0094BA0
:1050A00003EB44131A7B6FF341021A731A7F6FF3F9
:1050B00041021A77D6E7F8BD0000045000200450E2
:1050C000EC290020EC28002000B585B0FF238DF8E6
:1050D0000C308DF80D3002900F2809DC0091094B3F
:1050E000002202A903A8FFF76DFC05B05DF804FBE0
:1050F000103802900091034B002202A903A8FFF789
:1051000001FDF2E7AFE401082DE9F04F89B0054653
:105110000E4614469846C36B5B69012207A9606876
:105120009847EB6B5B69012206A93046984707A8B0
:105130001AF0A0FB48B10027A77567754FF0FF3341
:10514000A360384609B0BDE8F08F074606A81AF0FC
:10515000A1FB0123A375237E033304EBC3035E602D
:1051600000221A816368B3422AD02368834201D0A7
:105170000023A37506A81AF0B2FB237D984201D044
:105180000023A37506A81AF089FB814607A81AF028
:1051900085FB814501D00023A37506A81AF086FB84
:1051A000814607A81AF082FB814501D00023A37530
:1051B000237D043BDBB2022B0BD80023A375C0E791
:1051C000206006A81AF08BFB20754FF0FF33A36018
:1051D000EEE706A81AF062FB80B1EB6B5B69022276
:1051E00004A93046984704A81AF06BFB0346207DBB
:1051F000032868D8DFE800F0615B070D06A81AF005
:1052000060FB0346F3E7237E033304EBC303CC22A6
:105210001A811AF074FB129B187094F8189006A863
:105220001AF02FFB09F1030904EBC90989F80A00F8
:10523000237E033304EBC303B3F808A093F80AB04A
:1052400006A81AF02BFB814606A81AF02FFB039044
:10525000B9F1000F3DD0EB6B5B69022204A9304627
:10526000984704A81AF0E9FA6075637D03B9A3753D
:10527000A37DA3B1BAF1000F11D0039BF1186B6CA1
:105280005B4286EA01021A4201D00023A3756B6CCF
:105290005A1E0A409B1A9A4501D90023A375A37D83
:1052A000002B40D0BBF1000F18D1E77D3CE0227EFF
:1052B000033204EBC2021381ABE7227E033204EB1C
:1052C000C2021381A5E7227E033204EBC2021381DE
:1052D0009FE706A81AF09AFA6075C6E70122E27500
:1052E000627EBAB9BBF1010F08D095F83470DFB90E
:1052F000EA6AB2F1FF3F05D01F4615E00121617651
:10530000174611E0BBF1030F01D01F460CE001224C
:10531000A27609E0BBF1010F37D0BBF1030F03D137
:105320000122A27600E01F4653B117B1BBF1010F75
:1053300006D95346039A3146284619F0DEFBA06091
:10534000A37D13B1236953442361237E114A12784C
:1053500093421CD201332376B8F1000F13D0A37D02
:105360008BB1E37D7BB177B9BBF1030F0BD0A168A3
:10537000B1F1FF3F07D0129B00930123224628463C
:10538000FFF7C2FEA075A77DDBE61746CCE700233A
:10539000A375E1E7208E02082DE9F04F89B005469C
:1053A0000F4692469B4600238DF80B304FF0FF319D
:1053B000104600F0EFFFB7F5801F1DD300230093C8
:1053C00017F1020F07D0009B002B40F09E802B7C32
:1053D000002B00F08C80EB6AB3F1FF3F2CD02A68E1
:1053E0009B1A6A6CB3FBF2F917F1020818BF4FF071
:1053F0000108002301935DE00DF10A02394605F131
:10540000080000F017FF0146B0F1FF3F11D05046F1
:1054100000F0C0FF0DF10B0301225146284619F0A0
:10542000EBFB00900028CBD09DF80B308BF80030C0
:10543000C6E700230093C3E7696A284619F07EFA9D
:105440008146D1E70123019337E09DF80B308BF8BB
:105450000030324B1A683249504620F029FA009445
:105460002F4B9968B1F1FF3F1BD06B6C5B4281EA17
:1054700006021A4215D12A4C204600F08BFF0DF18E
:105480000B0342462146284619F0B6FB0446002885
:10549000E6D017F1020FD8D0214B1B68BB42DFD1F9
:1054A000D3E74946284619F049FA8146019BCBB912
:1054B000009BBBB96B6A4B45C4D02C686B6C03FB7B
:1054C0000944EB6B5B69052203A92046984703A8B2
:1054D0001AF0ACFA1AF0D1FA20461AF0DAFA0646B7
:1054E0000146BFE7009BA3B1B7F5801F03D3009B24
:1054F0008BB100200AE09BF80030DAF8042039462E
:1055000005F1080000F0B4FEF1E7002009B0BDE8A5
:10551000F08F2D20FAE72D20F8E700BF1C8E02083F
:10552000E030002070B582B004464FF0FF33C36214
:105530000DF107031A4A6FF00101FFF72DFF20BBA1
:10554000174B9B68E362E56A2946204618F0E7FF9F
:105550002063E8B12946204619F0BFFA0546A36A40
:10556000AB421BD02946204618F0D9FF0646236BD4
:10557000034423632946204619F0AFFA0546002E5E
:10558000EDD100232363E062E9E7A36AE362DAE78F
:10559000E16A204619F0A1FAE062DBE702B070BDD3
:1055A0000C31002030B583B01C46032A14BF002202
:1055B00001221B7E9A4202D0012003B030BD0D466D
:1055C000096823689942F7D363689942F4D80DF1CA
:1055D0000703114AFFF7E0FE0028EDD10E4B5A6891
:1055E0006B689A42E8D19DF80730032B14BF002363
:1055F0000123227E9342DFD1636901336361236912
:10560000E2689342D8D2A268296842F8231023693D
:1056100001332361D0E700BF0C3100202DE9F041B8
:1056200082B004460E4690461F46816A06E01A4B39
:105630009968B1F1FF3F1FD0012E23D0E06A884264
:1056400017D0B1F1FF3F14D0134D284600F0A2FE51
:105650000DF1070301222946204619F0CDFA002852
:10566000E5D03B469DF8072029462046C047002844
:10567000DDD102B0BDE8F0815968204619F02DFA5D
:105680000146D9E7044B5A68636C5B424A401A42B0
:10569000D4D04FF0FF31D1E7B430002010B504462C
:1056A000083000F08DFD0023024A19462046FFF71E
:1056B000B5FF10BDE7EB010838B50446037C0BBB12
:1056C00002461349083000F01DFE616A204619F0B9
:1056D00057F9421C616A204619F0A8F8054620B91E
:1056E000236B626C1344143B2363A16A204619F0B8
:1056F000F4F9A0622368C01A636CB0FBF3F0606237
:10570000284638BD0023034A0121FFF787FFDCE765
:105710007FEF01084DEF0108F0B589B080B30F4667
:1057200016461D46044690F834301BB9002528461D
:1057300009B0F0BD012119F04EF801950E9B0293BE
:10574000039704960023059306939DF83C308DF84B
:105750001C30237C5BB901AA0A4904F1080000F05F
:10576000D1FD5EB9069D204619F0D7FADFE701ABFF
:10577000054A00212046FFF751FFF2E7059DF2E7B9
:105780000025D4E79BE70108A5550008F0B58BB0CC
:1057900004460D46406AE36B5B69052205A926684D
:1057A000676C07FB0060984705A81AF03FF90128CD
:1057B00036D00094002301938DF808500393012301
:1057C0008DF81030A16AE36A99420FD0237CBBB9EF
:1057D0006A46144904F1080000F094FD019B13B9D6
:1057E0009DF810309BB901980BB0F0BD204619F020
:1057F00074F9E062236B626C9B1A14332363EDE748
:105800006B46094A01212046FFF708FFE6E7626A76
:105810002368616C01FB0231E06B1AF0B9F8E2E732
:105820000020E1E7315A0008B15900082DE9F04F96
:1058300089B004468A4691461D46002307930969AC
:10584000026BCB1D406C1438B3FBF0F3013301EB5A
:10585000C301914200F2A7804E4677E03D2840F018
:1058600092800490BB4605961EE04FF00009236825
:10587000616C01FB0631E06B1AF076F8204618F0F7
:10588000B4FF204619F050F92063B9F1000F76D02B
:10589000DAF81020D31D616C1439B3FBF1F3013336
:1058A00002EBC30290423AD32368ABEB0309606C6E
:1058B000B9FBF0F909FB00301AF0EBF88046E16A19
:1058C000204619F00AF9A36A83422CD0E062374BD4
:1058D0009A68616C4B1E1340226B5B1A134423635E
:1058E000ABEB08072368079EF61AB6FBF1F6B14545
:1058F000BBD197B1E36B9B69BA0841469847814693
:10590000E36A3B44E362236BA8EB0B084344236345
:1059100004F1080000F054FCA9E7B946A7E7DDF858
:1059200010B0059E02E0DDF810B0059EBBF1000F3F
:1059300029D0DAF81000226BC31D616C1439B3FB57
:10594000F1F3013300EBC30082421CD3E76ADFF8B6
:105950005C803946404600F01DFD07AB029301957F
:1059600000963B4642465146204619F001FC8346CC
:1059700000287FF473AFD8F80830E362D6E7DDF88B
:1059800010B0059ED2E75F461FB1384609B0BDE8AA
:10599000F08F2B46054A5268DAF8001004F108002F
:1059A00000F066FCF1E71C27EFE700BFE0300020C5
:1059B000F0B583B01C46032A05D1237A012B33D0DE
:1059C000012003B0F0BD06460F4615460DF1070352
:1059D000164A0968FFF7E0FC60600028EDD19DF8E9
:1059E0000730032BE9D0114B5A687B689A42E4D107
:1059F000237A012B08D13B69E26813447269934210
:105A000002D900232374D8E7E3683A6913440833C2
:105A1000E3602B46012239463046FFF707FF6060FE
:105A20000028CAD00020CCE7207CCAE70C31002037
:105A3000F0B583B0089C2668032A05D1237A012B90
:105A40004DD0012003B0F0BD15460DF10703254AE6
:105A50003046FFF7A1FC60600028EFD12168214BA0
:105A60005A688B6A486CC0F1000C5A4012EA0C0F5D
:105A7000E4D1227A012A19D00F68DB1BB3FBF0F3C3
:105A8000CA6AD21BB2FBF0F29A4219D0E3681549F8
:105A90000A6913440833E3602B4601222068FFF7AC
:105AA000C5FE60600028C9D00020CBE70D4A12690E
:105AB000E7683A447769BA42DED900232374BDE728
:105AC000726CF16A531E0B40316B9B1A0B443363AB
:105AD0002668B16A304619F000F8F062D6E7207CFB
:105AE000B0E700BF0C310020F8B56E4B1E680022F5
