S01500004956505F4C525F436F6E6E6563742E733337CA
S3150800000000200020293C000863D7010863D70108AF
S31508000010DF1C020863D7010863D7010863D7010804
S3150800002063D7010863D7010863D7010863D70108B6
S3150800003063D7010863D7010863D7010863D70108A6
S3150800004063D7010863D7010863D7010863D7010896
S31508000050495E000863D7010863D7010863D701081A
S3150800006063D7010863D7010863D70108DD3700089D
S31508000070CD37000863D7010863D7010863D701089D
S3150800008063D7010863D7010863D7010863D7010856
S3150800009063D7010863D701088548000863D70108B4
S315080000A063D7010863D701084943000821430008BC
S315080000B063D7010863D7010809AB0108B5B501087C
S315080000C0FD4D0208F94D020869AD0108134E0208F4
S315080000D0014E020885B50108054E020819B6010841
S315080000E051B6010863D7010863D70108D9C60008C5
S315080000F063D70108750C020863D7010863D701089E
S3150800010063D7010863D7010863D7010863D70108D5
S3150800011063D7010863D7010863D7010863D70108C5
S3150800012063D7010863D7010863D7010863D70108B5
S3150800013063D7010863D7010863D7010863D70108A5
S3150800014063D7010863D7010863D7010863D7010895
S3150800015063D7010863D70108236F0208F58F0108E2
S3150800016063D7010863D70108974D02089D4D020819
S31508000180194A5AB3194BDB6913F0040F29D110B475
S315080001900AE003EA00048C4210D0013AB2B1134BCC
S315080001A0DB6913F0040F14D110F0010FF1D1104CD4
S315080001B01C40002CEDD06FF001000CE00C4A1A40F0
S315080001C00AB9002007E06FF0010004E06FF00200B2
S315080001D001E04FF0FF305DF8044B70476FF0020006
S315080001E070474FF0FF307047809698000000035024
S315080001F0020001000D4BDB6913F4803F12D170B584
S315080002000A4B03F580560124F46003F500552C6467
S315080002104FF480721A6100212046FFF7B1FF34645B
S31508000220EC6070BD6FF00100704700BF000003501E
S3150800023010B5124B4FF480329A6603F51C33DC690D
S31508000240144041F67132DA6303F580520121D16018
S31508000250586102221A6100212120FFF791FF40B15F
S31508000260074B0122DA601CB1A3F500530022DA63BA
S3150800027010BD00212120FFF783FFF1E70090005011
S315080002800020035038B51A4B5861DB6913F0040F88
S315080002902AD10C4654F8041B154B9961151F06E024
S315080002A0214651F8042B124B9A61043D0C465DB168
S315080002B008210846FFF764FF03460028F0D00C4AD9
S315080002C004211161184638BD094B04221A61002120
S315080002D02120FFF755FF03460028F3D100212120EE
S315080002E0FFF74EFF0346EDE74FF0FF33EAE700BF9F
S315080002F0000003502DE9F0410F46164605461A4BF5
S315080003004FF480329A6603F51C33DA6902F48038B2
S3150800031041F67132DA6303F580530122DA6000236D
S3150800032002E025442744361B8EB105F5005424F413
S31508000330FF5424F01F04641BB44228BF34462246E7
S3150800034039462846FFF79EFF03460028E9D0074AA4
S315080003500121D160B8F1000F03D0A2F500520021A7
S31508000360D1631846BDE8F081009000500020035084
S31508000370000000000000000000000000000000006F
S31508000380013800D0FCE770472DE9F04F2DED028BC0
S3150800039093B082460C4693461D4657EC106B8DED7E
S315080003A0080B32463B46304639461BF025FE0028E8
S315080003B000F009814FF0FF32B14B304639461BF049
S315080003C043FE002840F0FF804FF0FF326FF48013A1
S315080003D0304639461BF01AFE002840F0F480002209
S315080003E00023DDE90867304639461BF00FFE002872
S315080003F040F0FC809DED087B8DED067B209B13F479
S315080004008063119301D106231E93DDE90601024696
S31508000410C1F30A50C1F31303904643F07F5949F4D8
S315080004204019A0F2FF301BF015FB83A3D3E9002384
S315080004301BF07AFB82A3D3E900231BF0BFF906461B
S315080004400F4600228F4B404649461BF0B5F97EA35E
S31508000450D3E900231BF068FB02460B4630463946B3
S315080004601BF0ACF91BF0FAFD06461BF0F3FA8046C2
S31508000470894677A3D3E900231BF056FB0022824B5B
S315080004801BF09CF91BF0EAFD074673A3D3E900238A
S31508000490404649461BF048FB8046894638461BF0CD
S315080004A0D9FA6FA3D3E900231BF03EFB02460B469D
S315080004B0404649461BF080F98046894602460B4667
S315080004C01BF032FBCDE90C0107F2FF3700210022B1
S315080004D0CDE90A123B050B9300230A9342464B4685
S315080004E0404649461BF06AF9CDE90E0142464B469D
S315080004F000204FF080411BF05FF9804689460022B4
S31508000500624BDDE90C011BF039FC0022604B1BF045
S3150800051055F902460B46DDE90C011BF02FFC0022BB
S315080005205C4B1BF04BF902460B46DDE90C011BF050
S3150800053025FC02460B46404649461BF03FF9024653
S315080005400B46DDE90E011BF019FC0022524B1BF08D
S3150800055035F9DDE90A231BF0E7FA8046894649ECB6
S31508000560188BDDE906231BF06FFD40B1013E002222
S31508000570474B404649461BF001FC41EC180B06F177
S315080005806303C62B3BD80427209B13F4006F40D087
S3150800059035A3D3E90023DDE90689404649461BF021
S315080005A049FD00283BD032A3D3E9002340464946FB
S315080005B01BF02CFD002832D01E9BB34221DD9E1B6A
S315080005C0731E1E931FE0209B02931F9B01931E9B85
S315080005D000939DED080B2B465A462146504600F0DF
S315080005E0CBF813B0BDEC028BBDE8F08F9FED227BF4
S315080005F08DED067B069607F100430793FEE6052771
S31508000600C2E700231E93209B43F4806320930027B0
S315080006103E461F9B9F4241D2A3EB070840E01E9B24
S31508000620002BF6D0119B002BF3D01E9B013B1E938B
S31508000630EFE700BFAFF30080FB799F501344D33F29
S31508000640B3C8608B288AC63F61436F63A787D23FCA
S3150800065071A379094F930A401655B5BBB16B024091
S31508000660EF39FAFE422EE63F2D431CEBE2361A3FDF
S315080006700000000080842E410000000000000000F9
S31508000680FFFFEF7F0000F83F0000E03F00002C402E
S3150800069000002440000018400000F03F4FF000081A
S315080006A0209B13F0020902D00FB14FF000083EB1AB
S315080006B053EC182BDDE906011BF060FBCDE90601BA
S315080006C000220023DDE908011BF0A0FC00283BD12D
S315080006D0209B23F400630293CDF804801E9B0093AD
S315080006E09DED060B2B465A462146504600F044F827
S315080006F0002F3FF476AF209B13F0200F2CD04FF03D
S31508000700450C00F101082B46024621466046D047B3
S3150800071086EAE672A2EBE67205230593013F049783
S31508000720002303930A230293F30F019300922B46A7
S3150800073042462146504622F055FFB9F1000F3FF4D4
S3150800074050AF02461F9F10E0DDE90601024601F19F
S315080007500043CDE90623BBE74FF0650CD1E7561CED
S315080007602B4621462020D0473246A2EB0B03BB423C
S31508000770F5D3104635E700BF2DE9F04F2DED028B76
S3150800078093B00590089192469B4659EC108B1E9D96
S3150800079042464B46404649461BF02EFC002840D0B0
S315080007A04FF0FF326FF48013404649461BF02EFC8B
S315080007B0002845D14FF0FF32B14B404649461BF061
S315080007C043FC00284BD1AAA3D3E900234046494657
S315080007D01BF03AFC00285AD1A7A3D3E900234046C8
S315080007E049461BF013FC002851D10022002340463D
S315080007F049461BF00BFC002857D100230993209B80
S3150800080013F4806F5CD000241F2C5BD8092D59D9AE
S3150800081004F148036B44302203F8202C013D0134CF
S31508000820F2E7209B03931F9B029303230193954BA7
S3150800083000935B4652460899059822F0F9FD10E1A7
S31508000840209B03931F9B0293042301938E4B0093D3
S315080008505B4652460899059822F0EAFD01E1209B7D
S3150800086013F004030FD0894A7BB10423209903911E
S315080008701F990291019300925B4652460899059882
S3150800088022F0D6FDEDE0824AEEE70323EEE7209B51
S3150800089002931F9B0193009549EC108B5B465246C9
S315080008A008990598FFF770FDDBE042464B460020A5
S315080008B000211AF081FF80468946012309939EE7A5
S315080008C00625A0E7404649461BF0C8FB06461BF02E
S315080008D0C1F802460B46404649461AF06DFF6D4B75
S315080008E003EBC50393ED008B53EC182B1BF01CF997
S315080008F002460B46CDE906231BF0D8FB07461BF03C
S3150800090099F802460B46DDE906011AF055FF02463C
S315080009100B46CDE9062300225F4B1BF095FB50B32F
S31508000920013738461BF086F802460B4651EC180B81
S315080009301BF076FB08B10136002755BB30461BF085
S3150800094089F802460B46404649461AF035FF804666
S3150800095089460022504B1BF059FB38B100224E4BFA
S31508000960404649461BF070FB002842D016F0010F9E
S315080009703FD001363DE00022474BDDE906011BF07A
S3150800098045FB0028D9D117B117F0010FD5D001378B
S31508000990D3E71F2C17D8013D404BA3FB0723DB08E1
S315080009A0194603EB8303A7EB4303621C303304F1B8
S315080009B048000DEB000404F8203C092F02D90F4625
S315080009C01446E6E714461F2C0AD86B1E45B104F1F7
S315080009D048026A44302102F8201C1D460134F2E719
S315080009E01F2C06D804F148036B442E2203F8202C4A
S315080009F001341F2C17D82A4A82FB0632F317C3EB99
S31508000A00A2031A4603EB8303A6EB4303611C3033A8
S31508000A1004F148000DEB000404F8203C16460AB120
S31508000A200C46E6E70C46209B03F00303012B39D05E
S31508000A301F2C09D8099B002B51D004F148036B449D
S31508000A402D2203F8202C0134209B03931F9B02932D
S31508000A5001940AAB00935B4652460899059822F022
S31508000A60E7FC13B0BDEC028BBDE8F08FAFF3008056
S31508000A700000000065CDCD410000000065CDCDC168
S31508000A80FFFFEF7F5C88020860880208508802082A
S31508000A9058880208688802080000E03FCDCCCCCC14
S31508000AA0676666661F9BB3B1099B1BB9209B13F04B
S31508000AB00C0F12D01F9B013B1F93194606E004F149
S31508000AC048036B44302203F8202C01348C42AFD201
S31508000AD01F2CF4D9ACE71F99F8E71F99F6E7209B76
S31508000AE013F0040F07D004F148036B442B2203F8D4
S31508000AF0202C0134A8E7209B13F0080FA4D004F19A
S31508000B0048036B44202203F8202C01349CE700BFDD
S31508000B1038B50D46044625F038FF064A13889BB2B9
S31508000B202DB123431380BDE8384025F029BF23EAB9
S31508000B300403F7E7204B00200022034B01214FF462
S31508000B4080709A70E4E700BF204B00207FB54E689E
S31508000B5002A9044623F0E0FB9DF808300C2B19D1B6
S31508000B60134BB3F90050134B9E4218D807F07EFC7E
S31508000B7003460068694600909B882046ADF8043015
S31508000B8023F0B7FB70B140F25F620B490B480DF0DA
S31508000B9013FDFEE7204613F011FB0546E3E71EF0BA
S31508000BA0D5FFE5E72946204623F089FB04B070BD4A
S31508000BB0F6500020FFC99A3B118B0208DC88020810
S31508000BC0002330B5134C85B0CDE901330393237860
S31508000BD08DF8043025F0D9FEA288E38805469A42A6
S31508000BE00DD0E188A06801AAA18023F01EFA58B1A9
S31508000BF040F2DA62084909480DF0DEFCFEE7A06813
S31508000C0023F0ECF90128ECD0284625F0B9FE05B00A
S31508000C1030BD00BF38550020118B0208DC88020859
S31508000C2038B50F4C656835B940F2C7720D490E489C
S31508000C300DF0C2FCFEE722F0AAFD284410F00CFCD9
S31508000C4000F00700032809D164680921204622F02C
S31508000C50BAFE205C031F5842584138BD0020FCE705
S31508000C60204B0020118B0208DC88020808B5114BBE
S31508000C709A78042A06D040F28E520F490F480DF092
S31508000C809BFCFEE71B881B0706D440F28F520A49D5
S31508000C900A480DF091FCFEE700210820FFF738FF0F
S31508000CA00222074B98681A7313F042F8BDE8084009
S31508000CB021F071B9204B0020118B0208DC8802084C
S31508000CC03855002010B5084CA06813F031F8A06814
S31508000CD023F084F9012806D00122A0681146BDE850
S31508000CE0104023F07DB910BD3855002038B5194D90
S31508000CF0AB7833B140F22B72174918480DF05CFCFB
S31508000D00FEE725F042FE2988044611F0060109D0BF
S31508000D1001214FF48070FFF7FBFE2046BDE83840FE
S31508000D2025F02EBE4FF48070FFF7F2FE12F052F94E
S31508000D30012805D010F0FD0F05D1FFF741FFECE7BC
S31508000D40FFF7C0FFE9E740F24172034903480DF097
S31508000D5033FCFEE7204B0020118B0208DC880208D2
S31508000D6070B50446064D95F90860FFF7BFFF12F007
S31508000D702FF8314620466A68BDE8704011F060BE1B
S31508000D80204B002008B50A4B1B88DB0606D440F228
S31508000D90A752084908480DF00FFCFEE7002110206D
S31508000DA0FFF7B6FE12F092F9BDE8084021F0F3B855
S31508000DB0204B0020118B0208DC8802080D4B10B569
S31508000DC01B8804469B0713D500210220FFF7A0FEC7
S31508000DD0094B5A7BFF2A06D040F2E54207490848E4
S31508000DE00DF0EAFBFEE75C73BDE8104021F0D3B8CE
S31508000DF010BD00BF204B002038550020118B02087B
S31508000E00DC8802087047704707B5ADF8061001463A
S31508000E1030B94FF4B572104910480DF0CDFBFEE716
S31508000E20BDF8063033B940F26B120B490B480DF08A
S31508000E30C3FBFEE70A4B0DF10602986823F023FB75
S31508000E4030B140F26D12044904480DF0B5FBFEE7D7
S31508000E5003B05DF804FB00BF118B0208DC880208AA
S31508000E603855002010B50E4CA37833B14FF4EA720A
S31508000E700C490D480DF0A0FBFEE7606019B1A17B97
S31508000E80003918BF01212020FFF742FE074B08480A
S31508000E909B7B23760223A370BDE8104010F0A8B907
S31508000EA0204B0020118B0208DC88020838550020E8
S31508000EB03C4B002008B50BF0ADFE80F00100C0B237
S31508000EC008BD0A4B9A780AB1062A0CD11B8803F486
S31508000ED08B7343B9064B5A7BFF2A04D1187BFF381C
S31508000EE018BF012070470120704700BF204B002023
S31508000EF03855002008B50BF07DFE0028FBD108BD4B
S31508000F000C4B42889A8142789A730278DA738288FF
S31508000F101A82C2885A82C2685A61017A064A91734D
S31508000F20028A998C914204D001214FF400709A8468
S31508000F30EEE57047204B002038550020094B9A896A
S31508000F4042809A7B4270DA7B02701A8A82805A8AB9
S31508000F50C2805A699B8CC260034A0382927B0272E2
S31508000F60704700BF204B0020385500204B1E012B30
S31508000F7070B50C4606D940F2B7221A491A480DF040
S31508000F801BFBFEE7194D0A460146A86823F0A5FA99
S31508000F9030B140F2B922134913480DF00DFBFEE7B4
S31508000FA0AE6810F099F822460146304623F08FFACB
S31508000FB030B140F2BD220B490B480DF0FDFAFEE7B1
S31508000FC0AD6810F095F822460146284623F08BFABC
S31508000FD030B140F2C122034903480DF0EDFAFEE7AD
S31508000FE070BD00BF118B0208DC8802083855002046
S31508000FF0054BDB7B1B0913F00E0003D0052B8CBFBA
S3150800100000200120704700BF38550020044BDB7BC9
S315080010101B0913F00E0F0CBF01200020704700BFFC
S31508001020385500202DE9F04F15469A0580461F468B
S315080010308FB003D501218020FFF76AFDEB014FF041
S31508001040000955D5984C23889E0751D5974E737B32
S31508001050FF2B06D040F2AF42954996480DF0ACFA00
S31508001060FEE7636833B94FF49662914991480DF0EB
S31508001070A3FAFEE749460220FFF74AFDA37886F859
S315080010800D90042B03D101210820FFF741FD002311
S31508001090B06808A98DF82C3023F040F930B140F239
S315080010A0BA42834983480DF087FAFEE7FFF7A0FFA7
S315080010B0B0B922F06CFB8146606822F073FB08A980
S315080010C08144B068ADF8249023F02BF930B140F292
S315080010D0C242774977480DF06FFAFEE7089BA3628C
S315080010E0A378032B02D1B06812F022FE20F053FF3A
S315080010F0B80702D50120FFF761FE15F0A84F02D008
S315080011000220FFF75BFEA90220D50021402003AC90
S31508001110FFF7FEFC2146404623F0FDF9B0B99DF8DD
S31508001120143008AA022B22D18DF82830BDF80C30CD
S31508001130ADF82030104611F055FE38B1404623F080
S31508001140E8F918B901214020FFF7E2FC2A0753D530
S31508001150564E0321B06803AA23F097F9814688B949
S3150800116040F2FE42524953480DF026FAFEE7032B99
S3150800117005BF8DF82830D4E900018DF82800C2E9AA
S315080011800001D7E79DF80C30B068072B40F01F81A7
S31508001190494608AA23F07BF930B140F20152444986
S315080011A044480DF009FAFEE7FFF722FFBDF80E20C6
S315080011B0A0B9FFF72BFF78B1043292B2B06808A93C
S315080011C0ADF8242023F065F940B140F212523849AF
S315080011D038480DF0F1F9FEE70232EEE7BDF80E00E9
S315080011E00121073080B225F00BFB8246002842D148
S315080011F001210C2012F030FDA90705D52A4B1B88C2
S315080012001A0701D5FFF732FDAB010BD500210420E3
S31508001210FFF77EFC244B9B78012B03D1234B986860
S3150800122012F086FD15F0284F03D000210420FFF7A1
S315080012306FFC7E060CD51C4C23881D0701D5FFF7CD
S3150800124015FD2388580703D500210420FFF760FC05
S31508001250F90540F1D88003A9404608AA22F0BCFE49
S315080012600146002800F0BA8040F2D25210491148CF
S315080012700DF0A2F9FEE74FF0000B25F045FACDF880
S3150800128000B00246BDF80E3004464946B06823F061
S3150800129004F9BDF80E3083420ED040F222520449BA
S315080012A004480DF089F9FEE7204B00203855002048
S315080012B0118B0208DC88020822F069FA204410F033
S315080012C0CBF800F007000228DFF8589124D199F8E6
S315080012D00230042B90D122F05AFA504B20448278DF
S315080012E01B789A4288D159460820FFF711FC22F04C
S315080012F04EFA204410F0B0F89DF82E30C0F30010D6
S31508001300307389F80830FFF78BFC00287FF474AF38
S31508001310B06812F00DFD6FE722F039FA204410F09C
S315080013209BF883064AD522F032FA204410F094F846
S3150800133000F0070003280BD10921204622F043FBC1
S3150800134014F800B0ABF1040CDCF1000B4BEB0C0B02
S3150800135001210420FFF7DCFBB06823F0B1F8C9F8D7
S315080013602C00BBF1000F30D0B9F8003058062CD548
S3150800137000214020FFF7CCFB0126BDF80E309DF872
S315080013802E200120E254BDF80E309DF82F2023446C
S315080013909A71BDF80E10089A0131214410F06AF8C6
S315080013A0BDF80E3050461C44667125F081FA1C4B78
S315080013B0187810F023F820F0EEFD1DE799F80230B2
S315080013C0012B02D1B06812F0B3FC0026D5E723F052
S315080013D040F84946B06823F05EF80DE79DF80C30F2
S315080013E003F0BF02032A01D0022B0FD10D4C23882C
S315080013F05A0702D50420FFF78BFB23889B0702D5E3
S315080014000120FFF7DBFC0FB0BDE8F08F4FF4BF6299
S31508001410054906480DF0D0F8FEE700BF8D4B0020C1
S31508001420B04A0020204B0020118B0208DC880208F5
S3150800143008B50246FFF7DCFD30B1072A06D80020BA
S31508001440034B83F8302008BD7020FCE70220FAE73A
S31508001450204B002008B50246FFF7CAFD28B1002038
S31508001460034B93F83030137008BD7020FCE700BFBB
S31508001470204B002008B5074B01460022986823F048
S315080014802CF830B140F2EB22034904480DF094F8E9
S31508001490FEE708BD38550020118B0208DC880208D3
S315080014A008B5074B01460022986823F010F830B1BA
S315080014B040F2F122034904480DF07EF8FEE708BD24
S315080014C038550020118B0208DC88020808B5074B3E
S315080014D00146986823F00DF830B140F2F722044926
S315080014E004480DF069F8FEE708BD00BF385500202E
S315080014F0118B0208DC88020808B5074B9B7833B1C4
S3150800150040F20132054906480DF056F8FEE7BDE8F7
S315080015100840FFF7EBBB00BF204B0020118B0208E9
S31508001520DC88020808B5054B0146986822F0C7FE14
S31508001530002814BF8B20002008BD00BF38550020A6
S31508001540014B986812F03ABE38550020014BD888EE
S31508001550704700BF385500207FB50123ADF80E301F
S315080015604FF6FE7309480093806800230DF10E02BA
S3150800157004A922F031FE212800D020B9BDF81000B8
S3150800158007B05DF804FB4FF6FF70F9E73855002001
S3150800159008B5044B0146986822F0D2FDB0FA80F0EF
S315080015A0400908BD3855002038B50B4D0446AB78C0
S315080015B0012B0DD8FFF7ECFF60B1084BDC80AB7848
S315080015C01BB9FFF793FB002038BDFFF7F9FAFAE7D6
S315080015D03E20F9E78A20F7E7204B002038550020FF
S315080015E0024B9B780BB9FFF781BB7047204B002055
S315080015F0014BD873704700BF204B002008B5064B37
S315080016004FF0FF31986822F014FD0028B8BF033068
S3150800161040F3870008BD00BF3855002008B5044BC5
S31508001620986822F089FD034BB3FBF0F080B208BD41
S315080016303855002040420F0030B58DB02C220446A4
S31508001640002101A823F072FC01234FF002328DF825
S3150800165008306423CDE9032306930B238DF82C3039
S31508001660214B9B8CADF80A30FFF7C2FCA8B140F2BB
S31508001670F23307934FF47A7305930CB9FFF722FBFD
S315080016801A4D01A9A86812F06DFEC0B140F2AC620D
S31508001690174918480CF090FFFEE7FFF7BFFF0C2329
S315080016A04343902B0793A3F10A02D8BF91230592CF
S315080016B0D8BF0793059B8B2BDFD88C23DCE7FFF776
S315080016C0A5FC60B10122A868114622F020FF30B1BE
S315080016D040F2AF62064907480CF06EFFFEE70CB908
S315080016E0FFF704FB0DB030BD204B00203855002015
S315080016F0118B0208DC880208F8B525F046F9554C26
S3150800170006462388D90503D5A37843BBFFF7EEFA27
S31508001710514D6B7BFF2B13D06B7B03F0FF0723BB6D
S31508001720FF236B73A378032B0AD100233046A370DB
S3150800173025F026F93846FFF713FB25F026F9064665
S31508001740A378042B08D12B7BFF2B05D02B7B022BF0
S3150800175014D142480FF04CFDFF232B7327E00021DC
S315080017604FF48070FFF7D4F9D2E76B7B012B4FF06B
S31508001770FF0314BF89278D276B73D6E72B7B13B11D
S315080017802B7B012B1ED1FFF74BFA0022FF212B7B67
S315080017900746DBB222772973002847D0012B0AD1E6
S315080017A064212E48A3700FF02EFDFFF709FA304684
S315080017B025F0E6F806E03046A27025F0E1F831207B
S315080017C0FFF7CEFA23881A0608D500218020FFF7EE
S315080017D09FF9A86822F0DEFD11F059FC23889B05C5
S315080017E007D54FF400700021FFF792F90020FFF7A4
S315080017F023FF0BF0FFF9608620B324F085FF012153
S315080018000546002012F028FAA678012E14D10026E3
S315080018102677A670FFF76AFA284611F033F8A378F8
S3150800182066867BB9BDE8F84011F0D2BAA07030469A
S3150800183025F0A6F83846C3E72EB1284611F022F857
S3150800184000236386F8BDFFF751FA284611F01AF807
S315080018506686F7E7204B0020385500203C4B0020D1
S315080018608B4BF0B51B888B4C8B4D63848B4B85B0AB
S315080018701B68E3628A4B1B8823848A4B1B68A36216
S315080018802B88DB0700F1FC8001210846FFF740F9A9
S315080018900523854A04F1100104F10800AB7012F023
S315080018A009FA28B1F522814981480CF085FEFEE740
S315080018B0A3682BB9F7227D497D480CF07DFEFEE72B
S315080018C07C4822F0D1FB70A3D3E90023CDE900239D
S315080018D04FF0FF324FF0FF33A06822F074FC4FF44C
S315080018E08811A06812F0E2FC014630B140F20F12EE
S315080018F06E496F480CF060FEFEE76F4B1B78012BB4
S315080019000ED16E4AA06812F0A3FAA06812F058FD2C
S31508001910E0B140F21B12654965480CF04DFEFEE742
S31508001920674E316831B94FF48F72604960480CF0E0
S3150800193043FEFEE7614AA06812F08AFA33689B689C
S3150800194023B1DB6913B15B7803B1E373FFF704FED8
S315080019500146E080A06812F0F7FB064630B140F277
S315080019602D12524952480CF027FEFEE7554B01202E
S315080019701B78C3EB431203EB8203DB00AB84FFF750
S315080019805BFEA7680FF0B4FB32460146384622F0E4
S31508001990AAFD064630B140F23312444944480CF0D9
S315080019A00BFEFEE740F203530427AB81464BAF73A9
S315080019B01B78EB73FFF732FE00EB80039B002B824C
S315080019C0FFF72CFEC00068823946A0686E6122F0D7
S315080019D0A2FB30B14FF4A172344935480CF0ECFD46
S315080019E0FEE73A46A06803A922F028FC042806D098
S315080019F04FF4A3722D492E480CF0DEFDFEE703A92D
S31508001A0001200FF045FD0AF07BFE08224FF0FF315A
S31508001A10A06822F0E9FB30B140F24F12234924486E
S31508001A200CF0CAFDFEE712F04BFE30B140F255123B
S31508001A301E491F480CF0C0FDFEE7FFF7D9FA68B14A
S31508001A401EF086F80146A06822F053FC30B140F239
S31508001A505912164916480CF0AFFDFEE7A468FFF7C1
S31508001A607BFD1A4B014603F10C02204622F0DFFAF1
S31508001A7030B14FF4B0720D490D480CF09DFDFEE7EC
S31508001A8005B0F0BDAFF300800A0020FF4203000056
S31508001A90088E020838550020204B00200C8E0208BC
S31508001AA00A8E0208108E0208390B0008118B0208EC
S31508001AB0DC880208690345EC714B00204D0B0008D1
S31508001AC044540020DC560020DB5600203C8B0208DC
S31508001AD008B5044B986822F031FB034BB3FBF0F0D2
S31508001AE080B208BD3855002040420F002DE9F0436A
S31508001AF08C4D87B02B889B0706D440F24C728A49D6
S31508001B008A480CF059FDFEE7AB78033B012B06D952
S31508001B1040F24E72844985480CF04EFDFEE76A682D
S31508001B2032B940F25172804980480CF045FDFEE713
S31508001B307F4E2C88F77B14F0200418BF4FF47A7474
S31508001B404FEA1718FFF754FA00287DD0B8F1020FAC
S31508001B500AD0A8F10303022B74D940F265727249C0
S31508001B6072480CF029FDFEE7032795F8303008EB9C
S31508001B70C80898446F4B104603EB4803B3F81C801B
S31508001B8021F010FE4FF4FA534343B3FBF8F37822DF
S31508001B907733B3FBF2F31F44C7EB0717AB78FF00A5
S31508001BA0BFB204F5347417FA84F4042BA4B203D133
S31508001BB007F6E8072744BCB2D5F8048021F0E7FD0C
S31508001BC00746686821F0EEFD074421F006FEBFB21D
S31508001BD03F1A21F0DCFD40440FF03EFC7378C0F359
S31508001BE040198DF80C30544BBFB2CDE904340024AB
S31508001BF021F0FFFD009402463B464146B06822F0BC
S31508001C002AFC287EB278737812FB00F29342C4BF8E
S31508001C109B1ADCB22B88F18813F0200FB068B180CC
S31508001C208DF80C4003AB76D000934A46434B22F01E
S31508001C30F3F9002873D040F224723B493B480CF074
S31508001C40BBFCFEE7062790E7FFF7E0F9002846D039
S31508001C50384B07F00F0708EBC801394403EB41037B
S31508001C601046B3F81C9021F09DFDB8F1000F2CD05A
S31508001C70B8F1010F2CD14FF00408400080B2F319D7
S31508001C8093F834304BB14FF4FA52023303444344C9
S31508001C909BB25343B3FBF9F39CB2AB78042B8BD1BD
S31508001CA0FFF7BCFC374497F834308146053398442F
S31508001CB0FFF70EFF0C2308FB00F003FB09F909EBFD
S31508001CC0C009A1441FFA89F476E74FF00208D6E75F
S31508001CD040F28672144915480CF06EFCFEE7FFF7D1
S31508001CE0F7FE0746686821F05DFD09307843AB7852
S31508001CF004EBC000042B84B27FF45EAFFFF78EFCC2
S31508001D000746FFF7E5FE602358430C2303FB07004D
S31508001D10204484B250E74A4622F07CF989E707B0A6
S31508001D20BDE8F083204B0020118B0208DC880208EE
S31508001D30385500203C8B020820A107002C4B0020B8
S31508001D40F8B5494C258815F0020506D040F27512FB
S31508001D50464947480CF030FCFEE7257724F015FE87
S31508001D60238806465A070CD5424B986822F0A8FBEA
S31508001D70E36AC01AA38C984203D929460420FEF7C1
S31508001D80C7FE304624F0FCFDA778022F37D124F091
S31508001D90FCFD2388064613F0040507D036480FF0E5
S31508001DA027FA3046BDE8F84024F0EABD24F0E8FDFD
S31508001DB0606811F047F820B1A570BDE8F840FEF755
S31508001DC0CFBF24F0E2FD6668054621F0E0FC30440A
S31508001DD00FF042FB10F0200F0CBF03230423012150
S31508001DE03846A370FEF794FEFFF780FE284624F0D7
S31508001DF0C7FD01210846BDE8F84011F02DBF042FA4
S31508001E0027D11C4B1B7BFF2B2DD1237EF3B124F04E
S31508001E10BCFD238805465B0704D517480FF0E8F98B
S31508001E202846BFE724F0ACFD237E013B237624F049
S31508001E30ACFD044601210220FEF76AFEFFF756FEB6
S31508001E40204624F09DFD01210820D4E74020A370F8
S31508001E50B3E7012F07D10023A370064B986811F04A
S31508001E6067FF3120A9E7F8BD204B0020118B020837
S31508001E70DC880208385500203C4B002038B5012183
S31508001E8004461020FEF744FE064B9D68FFF7C6FB86
S31508001E90012200FB04F1044B284622F0A6F8002094
S31508001EA038BD00BF38550020850D000808B50A4B17
S31508001EB01B88DB0606D44FF46172084908480CF003
S31508001EC07BFBFEE710200021FEF722FE054B9868F3
S31508001ED0BDE8084022F097B8204B0020118B020875
S31508001EE0DC8802083855002038B50E4D688E30B9A2
S31508001EF040F291320C490D480CF05EFBFEE724F0E7
S31508001F0003FC0446688E24F01DFC811F2144012031
S31508001F100FF0BEFA064B0446986822F0D1FA001B69
S31508001F2038BD00BF204B0020118B0208DC88020850
S31508001F303855002010B5084C636833B94FF46872F9
S31508001F40064907480CF038FBFEE7064B986822F06E
S31508001F50B7FAA36AC01A10BD204B0020118B0208DD
S31508001F60DC8802083855002038B50A4D688E30B925
S31508001F7040F2AA32084909480CF01EFBFEE724F095
S31508001F80C3FB0446688E24F0DDFB044414F8020CF7
S31508001F9038BD00BF204B0020118B0208DC880208E0
S31508001FA038B50A4D688E30B940F2B9320849094841
S31508001FB00CF002FBFEE724F0A7FB0446688E24F02B
S31508001FC0C1FB044414F9070C38BD00BF204B0020A0
S31508001FD0118B0208DC88020838B50A4D688E30B9BC
S31508001FE04FF47272084909480CF0E6FAFEE724F045
S31508001FF08BFB0446688E24F0A5FB044414F9010CF7
S3150800200038BD00BF204B0020118B0208DC8802086F
S31508002010024B1888C0F3C010704700BF204B002041
S3150800202030B585B005466C460D4B0FCB84E80F00DE
S315080020300DB12B6800930B4B21460022986812F0CD
S31508002040D3F8044630B140F2E632074907480CF0A7
S31508002050B3FAFEE7FEF7B4FD204605B030BD00BF73
S31508002060C48B020838550020118B0208DC88020848
S3150800207030B5154D87B004460DF10701A86822F062
S31508002080A4F830B140F2F732104911480CF094FA2E
S31508002090FEE79DF80720531EDBB2FD2B0FD90294ED
S315080020A0FF2A00D10394A86802A922F076F940B164
S315080020B040F20442054906480CF07EFAFEE7012A7A
S315080020C0EFE707B030BD00BF38550020118B020876
S315080020D0DC88020808B5064B986822F06DF930B11D
S315080020E04FF48262034904480CF066FAFEE708BD1D
S315080020F038550020118B0208DC8802080122024BA1
S315080021001146986821F06CBF385500207047F8B51D
S31508002110064604200D4621F01CFB030622D5124F65
S31508002120BC78FCB926B1012E17D002242046F8BD8A
S3150800213001262846FFF72CFA0028F6D00B4800237C
S3150800214032462946806821F069FF40B14FF48A6219
S31508002150074908480CF030FAFEE72646E9E7062361
S31508002160BB70E3E77024E1E7204B002038550020D8
S31508002170118B0208DC880208042010B521F0E9FA60
S31508002180030611D5094CA378062B0DD1084B986880
S3150800219021F046FF30B140F26A42064906480CF083
S315080021A00BFAFEE7A07010BD7020FCE7204B00205C
S315080021B038550020118B0208DC8802081FB5044632
S315080021C001A811F0D9FF9DF80D3053B14CB1064B5B
S315080021D02078617818700020A27859709A7004B037
S315080021E010BD0220FBE700BF385500201FB5044686
S315080021F001A811F0C1FF9DF80D3053B14CB1002074
S31508002200054B1A7822705A789B786270A37004B0CE
S3150800221010BD0220FBE700BF38550020FFF7CEBFF0
S31508002220FFF7E4BF0348044B834202D0034B03B1D4
S3150800223018477047F4560020F456002000000000A6
S31508002240064B0749C91A891048BF0131491003D0FE
S31508002250044B0BB101481847704700BFF4560020DD
S31508002260F45600200000000010B5064C237843B948
S31508002270FFF7D8FF044B13B10448AFF300800123DE
S31508002280237010BDB051002000000000B0C702083E
S3150800229008B5054B1BB105490548AFF30080BDE8F5
S315080022A00840FFF7CDBF00BF00000000A0220020B5
S315080022B0B0C70208A3F5803A704700BF174B002B3A
S315080022C008BF134B9D46FFF7F5FF00218B460F46C7
S315080022D01348144A121A22F029FE0E4B002B00D07E
S315080022E098470D4B002B00D098470020002104008A
S315080022F00D000D48002802D00C48AFF300801AF0F4
S315080023001DFC2000290001F007F91AF09DF800BF0E
S315080023100000080000000000000000000020002067
S3150800232000200020205200200000000000000000CD
S3150800233000B583B0074B0122DA60064B5B6913F0E0
S31508002340400FFAD1034968461DF066FA009803B0B3
S315080023505DF804FB0040005910B582B004461AF037
S31508002360DAFF08B902B010BD00230093ADF80430B7
S31508002370074B1B88ADF80230ADF8044040F2FF1356
S31508002380ADF80030694604201FF09CFEEAE700BF5E
S31508002390EC50002038B51B4C6378022262F38303A5
S315080023A06370DBB26FF300036370DBB262F387130B
S315080023B06370DBB2012565F305136370A3786FF3C9
S315080023C00713A370DBB265F38303A370DBB243F094
S315080023D00303A370E0700C4B4FF4FA721A800021C5
S315080023E028461BF026F92A460021284601F06AFAF3
S315080023F020681AF0BDFF41F28831044B18680EF0C8
S3150800240002FF38BDBC220020EE5000201823002011
S3150800241008B5344B1B78012B23D0022B41D003B1CE
S3150800242008BD314B1B78314A1278B3EB420F0ADAF2
S3150800243001332D4A13702E4B197CC1F340112D48D8
S315080024401BF0E3F8ECE7284B00221A70284B197C9E
S31508002450C1F3401127481BF0E8F8274823F01EFE71
S31508002460DEE7214B1B78214A1278B3EB420F0ADAD2
S3150800247001331D4A13701E4B197CC1F340111F48C6
S315080024801BF0C3F8CCE7184B00221A70184B197CBE
S31508002490C1F3401119481BF0C8F8174823F0FEFD90
S315080024A0BEE7114B1B78114A1278B3EB420F0ADAD2
S315080024B001330D4A13700E4B197CC1F340111048B5
S315080024C01BF0A3F8ACE7084B00221A70084B197CDE
S315080024D0C1F340110A481BF0A8F8074823F0DEFDAF
S315080024E09EE700BFB1510020B3510020B251002031
S315080024F0EC22002078800208C02200209080020882
S31508002500A880020800B583B08C461146074B1870A0
S31508002510074B83F800C00123019300230093054A63
S31508002520054824F07AFC03B05DF804FBB15100209D
S31508002530B251002011240008C022002010B5002442
S31508002540094B1C80094B197CC1F3401108481BF044
S315080025506CF81AF04AFF214601201BF078F8054B63
S315080025601B681C7010BD00BFEE500020EC22002036
S31508002570788002081823002030B583B00021012096
S315080025801BF071F81E4C227D9DF8043062F301039E
S315080025908DF80430627D9DF8043062F382038DF86D
S315080025A00430184816230370042242729DF804204A
S315080025B04270154D2A88110A8170C270A3721AF0EA
S315080025C030FF4FF4FA71114B18680EF01CFE1AF022
S315080025D099FE2880217CC1F340110D481BF01DF897
S315080025E00C4BC8221A804FF4FA610B4B18680EF090
S315080025F00AFE0A4B1B6800221A7003B030BD00BFE2
S31508002600EC220020E0220020B8220020142300201B
S3150800261078800208EE500020182300201C23002092
S3150800262008B506481AF0FDFE1AF06CFE044B188031
S31508002630044B1B6800221A7008BD00BFE022002068
S31508002640B82200201423002008B501280FD002283C
S3150800265019D000B108BD124B197CC1F340111148BD
S315080026601AF0E3FF002101201AF0F1FFF2E70C4B04
S31508002670197CC1F340110B481AF0D7FF002101203D
S315080026801AF0F1FFE6E7064B197CC1F3401105483D
S315080026901AF0CBFF002101201AF0E5FFDAE700BFA8
S315080026A0EC2200207880020810B5454B1A78172AC4
S315080026B02AD0192A79D1597859759A72A1B101295E
S315080026C073D13F4B187CC0F3C100FFF7BDFF3D4BEC
S315080026D01B6800201870C8220221FFF713FF3A4B27
S315080026E018680EF085FD60E01C46D87BFFF752FEA1
S315080026F002232375C82201210020FFF703FF324B6E
S3150800270018680EF075FD50E02D4B9A725A7B02211F
S3150800271061F383025A73D2B26FF300025A73D2B2CC
S3150800272061F387125A73D2B2012161F305125A7303
S315080027309A7B6FF307129A73D2B261F383029A7384
S31508002740D2B242F003029A735A78DA7399781A7CED
S3150800275061F3C4021A74D3B203F01803102B29D0FC
S31508002760174BD9781A7C61F345121A74144C2079E0
S31508002770164B18601AF0DFFD642202210020FFF7CD
S31508002780C1FE134B4FF4FA721A80002101201AF089
S3150800279050FF01220021104601F094F8E0681AF073
S315080027A0E7FD094B18680EF023FD0A4B1B6800224B
S315080027B01A7010BD024BD2B26FF345121A74D5E7E0
S315080027C0EC2200201823002024230020B7510020E3
S315080027D0EE5000202023002070B908B5074B1B884F
S315080027E09BB203B108BD002101201AF03CFF044B3F
S315080027F018680EF0FDFCF5E7704700BFEE500020A4
S315080028001C23002008B5044A1AF09BFD034B1868E0
S315080028100EF0EEFC08BD00BFEC22002020230020AD
S3150800282038B504461FF05AFCA04201D8012038BD2D
S315080028300546032001F070F80028F8D01AF027FFA3
S315080028401AF026FF2B4622460349044800681EF064
S3150800285077FA0020EBE700BF887002083C270020C3
S3150800286030B583B004468368C26853F822301D88A1
S315080028702846FFF7D5FF08B903B030BD00230093FB
S31508002880ADF80430164B1B88ADF80230ADF804508D
S315080028906368E2689B1A012B1DDDA368013253F8B1
S315080028A022301B88ADF800301FF008FC694603206B
S315080028B01FF008FC0446032001F02EF80028DBD0A0
S315080028C01AF0E5FE1AF0E4FE22460649064B186899
S315080028D01EF036FAD0E740F2FF13ADF80030E3E712
S315080028E0F0500020C07002083C27002030B583B0A5
S315080028F004468368C26853F822301D882846FFF7C5
S315080029008FFF08B903B030BD00230093ADF804303B
S31508002910154B1B88ADF80230ADF804506368E268C1
S315080029209B1A012B1BDDA368013253F822301B8842
S31508002930ADF80030694604201FF0C4FB04460320A6
S3150800294000F0EAFF0028DDD01AF0A1FE1AF0A0FE7A
S3150800295022460649064B18681EF0F2F9D2E740F2FD
S31508002960FF13ADF80030E5E7F0500020E0700208EC
S315080029703C27002030B583B004468368C26853F804
S3150800298022301D882846FFF74BFF08B903B030BD33
S3150800299000230093ADF80430154B1B88ADF80230C0
S315080029A0ADF804506368E2689B1A012B1BDDA36827
S315080029B0013253F822301B88ADF8003069460220F0
S315080029C01FF080FB0446032000F0A6FF0028DDD098
S315080029D01AF05DFE1AF05CFE22460649064B186898
S315080029E01EF0AEF9D2E740F2FF13ADF80030E5E786
S315080029F0F0500020F47002083C27002030B583B060
S31508002A008368C26853F822301C7800230193436810
S31508002A109B1A012B19DD01AA01211DF05EFC014656
S31508002A209DF804001FF046FB054680B1022000F021
S31508002A3073FF60B11AF02BFE1AF02AFE2A460649E1
S31508002A40064B18681EF07CF901E01FF037FB20469C
S31508002A501FF03CFB03B030BD107102083C27002074
S31508002A6010B503468168C26851F82200B0F9000023
S31508002A701A4C20805B689B1A012B0FDD013251F836
S31508002A80223093F90010003918BF01211FF0C3FA4C
S31508002A90A0B9032000F040FF10B910BD0021F5E7EA
S31508002AA01AF0F5FD1AF0F4FD0D4B1C681FF0B7FA85
S31508002AB002460C4920461EF043F9EEE7012000F0D5
S31508002AC02BFF0028E9D01AF0E2FD1AF0E1FD0649CD
S31508002AD0034B18681EF034F9DFE700BFF0500020FA
S31508002AE03C270020747102088871020808B51FF097
S31508002AF086FA032000F010FF00B908BD1AF0C7FDDA
S31508002B001AF0C6FD0249034B18681EF019F9F4E7D6
S31508002B10A07102083C27002008B58368C26853F8EC
S31508002B2022301A88094B1A80032000F0F5FE00B9F6
S31508002B3008BD1AF0ACFD1AF0ABFD044B1A8804491F
S31508002B40044B18681EF0FCF8F2E700BF5856002040
S31508002B50C07102083C27002008B5024B18680EF021
S31508002B6047FB08BD242300202DE9F04186B01FF05D
S31508002B7062FA0446894B1B7813F0020F2CD0884E54
S31508002B8013F0010F2AD0864F13F0040F28D0DFF870
S31508002B901082032000F0C0FE28BB032000F0BCFE14
S31508002BA058BB032000F0B8FE002835D1032000F0FA
S31508002BB0B3FE00283ED1032000F0AEFE002847D120
S31508002BC0032000F0A9FE00285ED1032000F0A4FE31
S31508002BD0002867D1002471E0724ED1E7714FD3E720
S31508002BE0DFF8C081D5E71AF052FD1AF051FD6E499B
S31508002BF06E4B18681EF0A4F8CFE71AF048FD1AF0D5
S31508002C0047FD6A4B1D6805F001F902460B466849FF
S31508002C1028461EF095F8C4E71AF039FD1AF038FD73
S31508002C20624B1D681FF0DFF90246624928461EF00E
S31508002C3087F8BBE71AF02BFD1AF02AFD5B4B1D68D7
S31508002C401FF005FA02465C4928461EF079F8B2E7F5
S31508002C501AF01DFD1AF01CFDE279A3796179207935
S31508002C60E57894F802C094F801E024780594CDF844
S31508002C7010E0CDF80CC00295019000914F494B48E1
S31508002C8000681EF05DF89BE71AF001FD1AF000FDDA
S31508002C90464B1C681FF0D3F90246494920461EF0E8
S31508002CA04FF892E71AF0F3FC1AF0F2FC45493F4B4D
S31508002CB018681EF045F88DE70134E4B2072C12D8DF
S31508002CC0032000F029FE0028F6D01AF0E0FC1AF0DE
S31508002CD0DFFC364B1D681FF0AEF9025D3A492846FF
S31508002CE01EF02EF8E8E7032000F016FE98B9032038
S31508002CF000F012FEC8B9032000F00EFE18BB032030
S31508002D0000F00AFE68BB032000F006FE002836D154
S31508002D1006B0BDE8F0811AF0BAFC1AF0B9FC2B49E6
S31508002D20224B18681EF00CF8E1E71AF0B0FC1AF00E
S31508002D30AFFC1E4B1C681FF086F902462449204644
S31508002D401DF0FEFFD7E71AF0A2FC1AF0A1FC174BFC
S31508002D501C681FF05CF902461E4920461DF0F0FF6C
S31508002D60CDE71AF094FC1AF093FC104B1C681FF080
S31508002D7056F90246184920461DF0E2FFC3E71AF045
S31508002D8086FC1AF085FCCDF800803B46324613498E
S31508002D90064800681DF0D4FFBAE700BFCE560020EB
S31508002DA02871020830710208DC7102083C270020ED
S31508002DB0E4710208007202081C72020838720208DE
S31508002DC05C720208787202088C72020894860208FD
S31508002DD094720208B0720208C8720208E072020809
S31508002DE030B583B08368C26853F822301C7801A9CD
S31508002DF020461FF008F988B9032000F08DFD08B9B0
S31508002E0003B030BD1AF043FC1AF042FC019B22467F
S31508002E100B490C4800681DF093FFF1E705460120B1
S31508002E2000F07AFD0028EBD01AF031FC1AF030FCDD
S31508002E302A460549034B18681DF082FFE0E700BFE4
S31508002E40187302083C2700203473020870B582689C
S31508002E50C36852F823100C88013352F823301D78C2
S31508002E60294620461FF022F980B9032000F054FDB8
S31508002E7000B970BD1AF00BFC1AF00AFC2B46224664
S31508002E800B490C4800681DF05BFFF2E70646012077
S31508002E9000F042FD0028ECD01AF0F9FB1AF0F8FB16
S31508002EA032460549034B18681DF04AFFE1E700BFA3
S31508002EB0587302083C2700208873020870B582B050
S31508002EC08368C26853F822301B78134A137013F0CC
S31508002ED0020F0ED0114C13F0010F0CD00F4D13F04A
S31508002EE0040F0AD00D4E032000F016FD38B902B0C3
S31508002EF070BD0B4CEFE70A4DF1E7094EF3E71AF000
S31508002F00C6FB1AF0C5FB00962B462246054906481D
S31508002F1000681DF015FFEAE7CE5600202871020862
S31508002F20307102083C7102083C27002030B58FB08A
S31508002F3004460D4668461AF08FFA0DF1200EEC4647
S31508002F40BCE80F00AEE80F009CE803008EE803001B
S31508002F5008A9464B18681FF0B7FE10F1880F46D12E
S31508002F6068461AF079FA0DF1200EEC46BCE80F0017
S31508002F70AEE80F009CE803008EE803004FF41053F8
S31508002F80ADF820308023ADF822304FF44073079314
S31508002F9007A81AF071FA079B0A93354B0B93334B24
S31508002FA01A68099B0D9213F0FF0F04D123F0FF0353
S31508002FB043F001030993012309932C4B2A46214622
S31508002FC008A81FF09EFE044610BB032000F0A4FCD0
S31508002FD090B9264B18681FF00EF80546002831D11F
S31508002FE0032000F099FC044610BB01242FE01F4B78
S31508002FF018681FF040FEB3E71AF049FB1AF048FBC1
S315080030001A4B1A681B491C4B18681DF099FEE0E715
S31508003010032000F081FC0028DBD01AF038FB1AF0F8
S3150800302037FB22461549144B18681DF089FED0E770
S315080030301AF02DFB1AF02CFB11490F4B18681DF0DE
S315080030407FFE04E0032000F067FC044610B9204622
S315080030500FB030BD1AF01BFB1AF01AFB2A460949B5
S31508003060054B18681DF06CFE0024F0E704230020C9
S3150800307000014405B87302083C270020E8730208DB
S315080030800C7402082C74020800B583B00021019163
S3150800309001AA1DF022F9019910290ED0032000F08B
S315080030A03BFC60B11AF0F3FA1AF0F2FA102205495D
S315080030B0054B18681DF044FE01E0FFF737FF03B023
S315080030C05DF804FB4C7402083C270020022900D056
S315080030D0704708B5024B186808B119F0CFF908BD52
S315080030E0644B002010B588B0012009F0A1FA314BD5
S315080030F06422DA731A7C42F020021A741FF000FF69
S315080031002D492E4809F09AF92D492E4809F096F9C5
S315080031102D492E4809F092F92D492E4809F08EF9C5
S315080031202D492E4809F08AF901242D4B1C6002A866
S315080031301AF0B9F902A920461FF0C6FD10F1880F4A
S315080031400DD0274B18681EF056FF1EF0ABFF04463D
S315080031502449254808F0C2FA34B308B010BD204BFC
S315080031601A68039B079213F0FF0F03D123F0FF039E
S31508003170234303931D4B05934FF44073019301A812
S315080031801AF0A1F9019B04934FF41053ADF80830D7
S315080031908023ADF80A3001230393114B10221449FA
S315080031A002A81FF0AEFDCCE7044B18680EF020F815
S315080031B0D3E700BFEC2200209D320008242300201C
S315080031C0A926000820230020792500081C230020B2
S315080031D03D25000818230020212600081423002076
S315080031E0042300203C540020082300200001440545
S315080031F02C54002010B504461AF02CFB10B91F4BAE
S315080032009C4205D020461AF025FB012808D010BD9F
S3150800321023F0F7FD1A4B18601A4B01221A70F1E7D2
S3150800322023F0EFFD174B00221A70154B1B68C01AC6
S31508003230154B98420DD84CF24F339842E7D8134BAA
S315080032401B78ABB90020FFF787F811481AF001FC84
S31508003250DDE7114601201AF006FA0E4B1A6800231C
S3150800326013700D4A13751AF060F81EF033FFCEE797
S31508003270C82202210020FFF745F9C8E76080020846
S3150800328010230020B5510020A0860100B45100206B
S315080032907880020818230020EC22002000B583B0AD
S315080032A01AF030F8394B1B7DD3B1022B30D0384891
S315080032B01AF0B7F84FF4FA71364B18680DF0A3FFF9
S315080032C01AF020F8344B1880344A137883F0010337
S315080032D01370334B1B6800221A7003B05DF804FBA9
S315080032E09DF80430012262F304038DF804309DF83A
S315080032F004306FF346138DF80430254B15221A70E7
S31508003300022159729DF804105970204B9A72CEE723
S315080033101E4A927A192A31D0172A33D09DF80020EE
S3150800332063F301028DF8002018494A7D9DF80030A4
S3150800333062F382038DF800300B7CC3F3C1009DF85D
S31508003340002060F3C4028DF80020C3F340129DF8F4
S31508003350003062F345138DF800300D4B06225A7281
S315080033609DF800205A700C4A1288100A9870DA7074
S31508003370CA7B1A710B4A12685A7198E704491920D0
S315080033800870C9E7024A17211170C7E7EC22002026
S31508003390E022002014230020B8220020B651002085
S315080033A024230020B7510020014B1878704700BF2E
S315080033B0B651002070B50C468B681B78152B06D0C5
S315080033C00E4B9A7AA3681B789A4211D070BD0B4BA4
S315080033D01B7D002BF4D1094D2B7C012666F3C40313
S315080033E02B743046FFF730F902232B756E75E7E725
S315080033F0034B1B6800221A70E8E700BFEC22002086
S315080034001423002008B59038062831D8DFE800F0E4
S3150800341004131B3030222900194B01221A70C822C6
S3150800342002210020FFF76EF8164B1988164B18680C
S315080034300DF0E9FE08BD0020114B18706422052125
S31508003440FFF760F8F6E74FF47A7202210020FFF7DB
S3150800345059F8EFE74FF47A7202210020FFF752F885
S31508003460E8E74FF47A7202210020FFF74BF8E1E70C
S315080034704FF47A7202210020FFF744F8DAE700BF1A
S31508003480B4510020585600202423002008B523F004
S31508003490B8FC074B1B782BB1064B1B68C01A064BAA
S315080034A0984200D808BD05481AF0D3FAFAE700BFD3
S315080034B0B551002010230020A0860100788002085C
S315080034C010B582B0002304220121084604F058F8FA
S315080034D0012304220621002004F052F800230122C9
S315080034E01946104604F04CF8012001900024009477
S315080034F003462246214603F0D9FF0649204601F035
S31508003500FDF91B2007F07EFA1B201DF0C4FB02B054
S3150800351010BD00BFFDD4010808B51EF010FCFFF76A
S31508003520CFFF19F0E7FF074B187819F004FF00F0F2
S315080035307FF91EF0F6FB1EF02BFC1EF0F3FB22F0C3
S3150800354077FAF8E7B751002008B5024B1B6803B1B4
S31508003550984708BD5823002008B5024B5B6803B19D
S31508003560984708BD5823002008B5024B9B6803B14D
S31508003570984708BD5823002008B5024BDB6803B1FD
S31508003580984708BD5823002008B5024B1B6903B1AC
S31508003590984708BD5823002008B5024B5B6903B15C
S315080035A0984708BD5823002000B585B0094B186810
S315080035B0094B1860094B0A4A13600A4A01920A4ADB
S315080035C012680292039301A91CF0A9FE05B05DF8E2
S315080035D004FB00BF605400208431002054540020AE
S315080035E080310020408002082C26002008B5024BB6
S315080035F018681CF0A8FE08BD6054002038B507F00E
S3150800360037FA0446064D2B68D3F8B00207F024FAB9
S3150800361028681CF0B2FE204607F01EFA38BD00BF27
S315080036206054002008B5034823F071FA024800F0F8
S315080036309FFE08BD6C830208645400200023062000
S3150800364073B1704754B224B9013353B15DF8044BD2
S3150800365070470228F8D008680A4908601046F3E758
S3150800366010B4094A52F823100A7A022AEAD9032A18
S31508003670EAD1441EE4B2012CE6D90868014908607B
S315080036801046E1E72C2600207854002010B5A2B099
S315080036902024224600211AA821F048FC314B1A930F
S315080036A04FF4E1331C9302238DF8753003238DF80C
S315080036B076302D4B1E9306238DF87E3009238DF820
S315080036C080300021159116911791189119914FF490
S315080036D080131593254B19931091119112911391FB
S315080036E01491234B1093234B14933C2201A821F0E9
S315080036F01DFC0DF1040E0DF1540CBCE80F00AEE8EC
S315080037000F00DCF80030CEF800300DF1180E0DF180
S31508003710400CBCE80F00AEE80F00DCF80030CEF82D
S315080037200030154B0B930C9401238DF834308DF82B
S3150800373035308DF83630114B0F93114B1AAA01A963
S31508003740104807F041FA04469DF837303BB100218E
S315080037504FF4E13019F0F3FF204622B010BD0321E3
S31508003760F6E700BF84830208748302083C00015B05
S31508003770010010004400015B302600208C54002014
S31508003780502600200C27002008B531B9084B1868C8
S31508003790036823B107F02EFE01E0012900D908BD10
S315080037A0034B18680368002BF9D01DF0ABFDF6E74C
S315080037B0A054002008B50349034807F08FFFFFF718
S315080037C065FF08BDA45400203427002008B5024828
S315080037D01DF0FCFA08BD00BF0C27002008B50248FA
S315080037E01DF0F4FA08BD00BF0C27002008B5024BEF
S315080037F05A6A1868904708BD0C27002008B5024881
S315080038001AF021F808BD00BF6080020808B505480F
S315080038101AF01AF904481AF017F904481AF014F9B4
S3150800382008BD00BFA88002089080020878800208B8
S3150800383070B590B001212A2002F0A8FE00250D954A
S315080038400E950F9502238DF837301B4E2A461B49D5
S31508003850304603F07DFF8DF839000DF10C0C184C3D
S315080038600FCCACE80F000FCCACE80F0094E80300CF
S315080038708CE803004FF4966306930195029503239B
S315080038808DF806308DF8065001238DF800308DF836
S3150800389001508DF802508DF8035010238DF8013031
S315080038A003AA0DA9304603F093FF6A4601A93046DC
S315080038B01BF073FF10B070BD0040005940420F0066
S315080038C0C080020842B9C0B201228A4000EB40001B
S315080038D00001074B1A507047012A00D07047C0B242
S315080038E001228A4000EB40000001024B1A50F5E71E
S315080038F040E0035040D0035000B583B00B4605495D
S31508003900097801910092002201211EF0B8FB03B04C
S315080039105DF804FBCE56002003460B4A107828B102
S315080039200A4A12789A4202D2002000E00120084A88
S3150800393012783AB1074A127842FA03F313F0010FE4
S3150800394000D10020704700BFD1560020D056002075
S31508003950B9510020CF56002008B5084B01221A702D
S31508003960074B00221A70074B04221A70064B1F22B7
S315080039701A7007F07DF8054B186008BDD15600206F
S31508003980B9510020D0560020CF5600203C270020F1
S3150800399008B5054823F0BBF819F0D0FD012019F049
S315080039A09DFE00F085F808BD6C83020808B502483C
S315080039B023F0ADF808BD00BF6C8302082DE9F0417D
S315080039C080460F4601F109050026344604E05B21CE
S315080039D0082000F095FA0134AC4233D2052C1BD8E6
S315080039E001A353F824F000BFCF390008013A0008B4
S315080039F0353A0008093A00080D3A0008113A000855
S31508003A00FBB20433D9B2E3E78021E1E70021DFE71F
S31508003A10731C3146DEB2DBE7BB1DA3420CD0FB1D8F
S31508003A20A3420BD007F10803A34209D0A31F18F835
S31508003A300310CDE7D121CBE75A21C9E75A21C7E7B9
S31508003A405D21C5E70020BDE8F08100BF00B583B061
S31508003A5000220092019202218DF80010054819F003
S31508003A6058FE019008216846FFF7A8FF03B05DF8E5
S31508003A7004FB00BF006A180000B583B0044B1B881E
S31508003A80ADF8043001A800F017FB03B05DF804FB9D
S31508003A90E880020800B583B0044B1B88ADF80430F3
S31508003AA001A800F0D9FA03B05DF804FBE880020823
S31508003AB02DE9F04F97B04D4D09AC2E1D0FCE0FC412
S31508003AC03368236001AC05F118060FCE0FC496E8DB
S31508003AD00F0084E80F00464823F019F8454823F0FC
S31508003AE016F801268DF8096000248DF80840424B27
S31508003AF00B9301AB0D93414F09A938461BF0E6FD20
S31508003B00B5F838B0ADF838B0324604210EA800F042
S31508003B1067FAB5F83CA0ADF83CA0224631460FA896
S31508003B2000F05EFAB5F84090ADF8409032460421B0
S31508003B3010A800F055FAB5F80080ADF84480324672
S31508003B40042111A800F04CFA2D4D2E4BC5F8F83477
S31508003B504FF00213C5F8F434A3F58033C5F8FC34E6
S31508003B601C23C5F8E4344FF4487008F005FCFFF749
S31508003B7083FF142008F000FCFFF78CFF232008F0D1
S31508003B80FBFBFFF779FFB92138461BF087FDFFF7E6
S31508003B9081FFADF848B02246214612A800F020FA67
S31508003BA0ADF84CA02246214613A800F019FAADF844
S31508003BB050903246214614A800F012FAADF8548007
S31508003BC03246214615A800F00BFA384603F0F8F9F4
S31508003BD0C5F8E444C5F8F844C5F8F444C5F8FC4407
S31508003BE0044822F099FF17B0BDE8F08FE880020874
S31508003BF06C83020870830208E070720000000A50A5
S31508003C0000C003500200030008B50448044A121A0B
S31508003C109210044919F0A6FD08BD00BF80010008EE
S31508003C20800300082052002008B5154B83F30A8844
S31508003C3000F030F8FFF7E8FF124A0AE0106851680A
S31508003C4050F8230041F82300013391688B42F5D3DD
S31508003C500C320D4B9A4201D20023F6E70B4A08E0D4
S31508003C601168002041F82300013351688B42F7D3CD
S31508003C700832074B9A4201D20023F6E7FEF71EFBED
S31508003C8000000020B8C70208C4C70208C4C7020853
S31508003C90C4C7020870B5134B134A9A60D3F8882034
S31508003CA042F47002C3F88820104A4FF480419166A6
S31508003CB00F4D05F500544FF0FF3222660D4A626635
S31508003CC00222C3F8D020BFF34F8FBFF36F8F0020B7
S31508003CD006F098FE4FF44036E66000201CF0DBFF45
S31508003CE02E6170BD00ED00E0000000080090005055
S31508003CF0008000447FFF7F01014B1860704700BFBA
S31508003D00C454002008B5064B1860064B1B6F03F019
S31508003D100703032B00D008BD21F08EFBFBE700BF8D
S31508003D20CC54002000800050BFF34F8F0549CA6865
S31508003D3002F4E062044B1343CB60BFF34F8F00BF1E
S31508003D40FDE700BF00ED00E00400FA05F0B1844687
S31508003D50F1B110B409E004F120000FE02033C01AD5
S31508003D6018D1BCB10CF1010C01319CF800400B4B89
S31508003D701B5D03F00303012BEDD020460B78074AA1
S31508003D80D25C02F00302012AE9D1E7E70120704775
S31508003D90012070475DF8044B704700BF7DC60208D6
S31508003DA030B587B00546046823798DF80C306379F9
S31508003DB08DF80D301B4822F0AAFE0022012103A827
S31508003DC000F00EF90DF10B0103A819F006FE9DF897
S31508003DD00B3083F001032370A379022B02D0002055
S31508003DE007B030BD4FF0FF330593049300950E4B93
S31508003DF0002205A903A800F02FFA059BB3F1FF3F9F
S31508003E0007D00095084B012204A903A800F084F9FD
S31508003E10E5E70095044B042204A903A800F07CF901
S31508003E20DDE700BF6C83020863D8010810B582B0CD
S31508003E30002401942A4822F06AFE8DF800400323E4
S31508003E408DF8013001220421684600F0C9F8254B97
S31508003E500122C3F8442401A9052022F051FE0028B6
S31508003E603BD1214BD3F8F02042F00102C3F8F020F1
S31508003E70D3F8FC2042F08072C3F8FC20A3F55D431A
S31508003E801A4A1A60019B03F5D52303F2FC43DB08A3
S31508003E90174AA2FB03239B0A013B164A1361022316
S31508003EA0C2F8F0304FF48073C2F804334FF0604321
S31508003EB0114AC3F8B02F114AC3F8802ED3F8002E42
S31508003EC042F48072C3F8002EFF2283F82020D3F82C
S31508003ED0002E22F48072C3F8002E02B010BD00BF77
S31508003EE06C83020800D0035000ED00E0FF03004099
S31508003EF017916502000004E055CEACC50900010023
S31508003F004FF06043D3F8803E13F0010F01D1112022
S31508003F1070470E4AD2F8FC3043F08073C2F8FC3082
S31508003F204FF06043D3F8002E4FF0010C0CFA00FC5A
S31508003F3042EA0C02C3F8002E53F82030002BE8D0D2
S31508003F404FF0604303F820100020704700ED00E0B2
S31508003F5010B504460FE00123834024EA03040F2822
S31508003F6014D800EB40020E4B03EB82035A6812B1D9
S31508003F709968C0B2904794B1234600201F28EAD812
S31508003F8013F0010FE7D101305B08F7E7103800EBB3
S31508003F9040039B00B033024A13440433E6E710BDDE
S31508003FA04027002008B50D4822F0B1FD1A2006F07A
S31508003FB019FD28B91B2006F015FD40B9002008BDDB
S31508003FC01A2006F01FFD1A201CF065FEF2E71B20DA
S31508003FD006F018FD1B201CF05EFEEFE76C83020856
S31508003FE02DE9F04170B30C46174605460F292BD824
S31508003FF003784BB1022B20D0032B21D0012B01D003
S31508004000002303E07F2301E040F2FF736A78D34080
S3150800401013F0010F1AD00F4BD3F81063C6B922F06C
S31508004020B4FC80463A462146284603F035FF40460A
S3150800403022F0A6FC3046BDE8F08140F2FF33E5E702
S315080040403F23E3E72226F5E72126F3E72126F1E7D2
S315080040500226EFE700C0035040B310B504460378C4
S315080040604BB1022B1DD0032B1ED0012B01D00023F0
S3150800407003E07F2301E040F2FF736278D34013F038
S31508004080010F15D022F081FC237862780121914036
S3150800409003EB43031B01074AD15022F071FC0020B1
S315080040A010BD40F2FF33E8E73F23E6E722207047DA
S315080040B02120F5E740D0035040B310B504460378F5
S315080040C04BB1022B1DD0032B1ED0012B01D0002390
S315080040D003E07F2301E040F2FF736278D34013F0D8
S315080040E0010F15D022F051FC237862780121914006
S315080040F003EB43031B01074AD15022F041FC002081
S3150800410010BD40F2FF33E8E73F23E6E72220704779
S315080041102120F5E740E00350002866D02DE9F0415C
S315080041200C4615461F460646002960D002784AB155
S31508004130022A3ED0032A3FD0012A01D0002303E0F9
S315080041407F2301E040F2FF737178CB4013F0010F33
S3150800415001D1FF2A4DD1022D01D9042D4BD122F0D0
S3150800416014FC80463378FF2B28D12368B3F1FF3F30
S315080041702BD02268B2F1FF3F32D0204B02EB42022D
S3150800418003EB82025760226802EB420203EB8203CA
S31508004190069A9A603378FF2B05D02268012393404C
S315080041A0174AC2F82434404622F0EAFB0020BDE84C
S315080041B0F08140F2FF33C7E73F23C5E72A46216867
S315080041C0304603F0D3FE2060CFE73378FF2BD0D1FB
S315080041D00C4BD3F8241470781BF05FFC2060C8E7FA
S315080041E0404622F0CDFB2D20E1E722207047222011
S315080041F0DDE72120DBE72120D9E700BF40270020A3
S3150800420000D0035000C00350B0F1FF3F1AD038B5B4
S3150800421004460F2818DC002818DB22F0B6FB012319
S31508004220A3400B4AC2F82034C2F82434094B04EBE5
S31508004230440203EB820200255560956022F0A0FB3C
S31508004240284638BD212070472120FAE72120F8E7C3
S3150800425000E0035040270020002856D02DE9F04101
S315080042600C4617461E460546002950D0017849B126
S31508004270022939D003293AD0012901D0002303E0C5
S315080042807F2301E040F2FF736A78D34013F0010FF1
S3150800429001D1FF293DD122F078FB80462B78FF2BF0
S315080042A027D12268B2F1FF3F2AD01B4B02EB42020C
S315080042B003EB8202C2F8B860226802EB420203EB03
S315080042C08203069AC3F8BC202B78FF2B06D02268F7
S315080042D0103201239340114AC2F82434404622F092
S315080042E04FFB0020BDE8F08140F2FF33CCE73F23C7
S315080042F0CAE73A462168284603F0D8FE2060D0E788
S31508004300404622F03DFB2D20ECE722207047222074
S31508004310E8E72120E6E700BF4027002000D0035049
S3150800432008B5084BD3F82404D3F82024104000F02D
S31508004330553020F0502003F50053C3F82004FFF74A
S3150800434007FE08BD00C0035008B5084BD3F824047F
S31508004350D3F82024104000F0AA3020F0A02003F55E
S315080043600053C3F82004FFF7F3FD08BD00C003504F
S3150800437070B586B005460368B3F1B64F27D0304A04
S31508004380934222D04FF0FF36B3F1B64F21D02C4AD4
S31508004390934252D12B4822F0BAFB2B798DF8043080
S315080043A06B798DF80530AB798DF80030EB798DF89F
S315080043B0013001220A2101A8FFF712FE01220A2173
S315080043C06846FFF70DFE002412E00126DCE700260A
S315080043D0DAE71D48DFE701A8FFF76EFE642007F05D
S315080043E0CBFF01A8FFF738FE642007F0C5FF0134AC
S315080043F0092CF0DD154A02EB06110323C1F83835FE
S3150800440068792B7943EA0043C1F83C35E979AB79F9
S3150800441043EA014354363601935101238DF8083097
S315080044208DF80930EB680493AB6803932B7C8DF801
S31508004430143002A9286803F02FF906B070BD00BF32
S3150800444000800650648302086883020800C003508F
S3150800445010B582B004460A4822F059FB23788DF835
S31508004460043063788DF80530A278B2FA82F25209E0
S3150800447004210DEB0100FFF7B3FD002002B010BDCB
S315080044806C830208F0B585B00C4694469DF8341046
S31508004490664A1278002A00F0BD800546BCF1070F6F
S315080044A000F2BA800A9A002A00F0B8800B9A002A0D
S315080044B000F0B6800E9AB2F5006F00F3B3800128BB
S315080044C05BD05B4A02EB0C12127B002A00F0AC8030
S315080044D000220092019202920392564A02EB4C1E67
S315080044E0002C4FD14FEA4C1600209051CEF804000C
S315080044F0CEF80800CEF80C009EF8020040F0100036
S315080045008EF802009EF8030040F030008EF8030093
S3150800451021B9C1B241F003018EF8031000930E9B36
S31508004520013B444A4FEA4C1002EB4C11165A63F30E
S315080045300E1616520A9B8B600B9B4B60CB789DF828
S315080045403C2062F38303CB70012D36D0109B002BE1
S3150800455056D0374A4FEA0C1102EB0C1310985050FC
S31508004560119A5A6000249C605D73724669466046DB
S3150800457003F054FB204605B0F0BD0C9A002AA0D1E2
S315080045802D48F8E72B4F4FEA4C1607EB4C12002044
S31508004590B85150609060D060907840F010009070EC
S315080045A0D07840F00300D0700029B7D107EB4C1241
S315080045B0C1B241F03001D170B0E70E460A7B42F035
S315080045C001020A73D2B242F002020A73CA680421CF
S315080045D061F39F02F26006F1100796E80F0087E87C
S315080045E00F00F2696FF0030161F39F02F2610C9B01
S315080045F07361012CAAD10B9AB2610C9A7260A5E775
S31508004600002DA6D10B4B03EB4C139A786FF30412CB
S315080046109A709EE70948AEE70748ACE70648AAE756
S315080046200548A8E70448A6E70548A4E7BA510020C4
S31508004630A8290020A8280020018000F0028000F0A8
S31508004640078000F0134B1B78FBB110B50446F0B198
S3150800465022F09BF90023072B13D80F4A02EB03120B
S31508004660127B0AB10133F6E723600B4A190102EB04
S31508004670031301241C730024545022F081F92046A8
S3150800468002E022F07DF9054810BD05487047054847
S31508004690FAE700BFBA510020A8290020048000F0DC
S315080046A0028000F0018000F038B522F06EF9044669
S315080046B00023072B06DC0C4A02EB0312127B12B905
S315080046C00133F6E7002222B1204622F059F90748BD
S315080046D038BD03F04FFA0025054B1D70204622F021
S315080046E04FF92846F4E700BFA8290020058000F006
S315080046F0BA5100200F4B1B78BBB110B504460728EA
S3150800470015D822F042F90C4B03EB04131B7B1BB99B
S3150800471022F036F909480BE0074B03EB0413002493
S315080047201C7322F02DF9204602E00548704705481B
S3150800473010BD00BFBA510020A8290020068000F04D
S31508004740028000F0018000F000B583B0134B1B68AF
S31508004750019300238DF8043022F017F9104B1B78CB
S3150800476033B90F4B01221A7022F00AF9002309E027
S3150800477022F006F90B480EE00B4A02EB0312002161
S3150800478011730133072BF7DD08238DF8073001A8CD
S3150800479003F014FA002003B05DF804FB2C8102082C
S315080047A0BA510020038000F0A829002010B5104C4B
S315080047B02478BCB1072817DC0E4C04EB0014247BC4
S315080047C0A4B10C4C4FEA001E04EB001C44F80E3052
S315080047D0029BCCF804300024CCF8084003F01EFAFB
S315080047E0204610BD0448FCE70448FAE70448F8E701
S315080047F0BA510020A8290020028000F0018000F0AC
S31508004800078000F008B50A4B1B785BB107280BD860
S31508004810084B03EB00131B7B43B1002103F0C0F9DF
S31508004820002008BD0448FCE70448FAE70448F8E70E
S31508004830BA510020A8290020028000F0018000F06B
S31508004840078000F008B50A4B1B785BB107280BD820
S31508004850084B03EB00131B7B43B1012103F0A0F9BE
S31508004860002008BD0448FCE70448FAE70448F8E7CE
S31508004870BA510020A8290020028000F0018000F02B
S31508004880078000F0F8B5194B1F6D5B6D1F4002D409
S315080048900125002402E0FEE701346D00072C24D828
S315080048A03D42F9D0124B1D652301124AD358002BFD
S315080048B0F2D002EB0416B1680131B1607268204685
S315080048C0984780F00100C0B2737B012BE4D1002821
S315080048D0E2D0094B03EB44131A7B6FF341021A73B8
S315080048E01A7F6FF341021A77D6E7F8BD0000045025
S315080048F000200450A8290020A828002000B585B06B
S31508004900FF238DF80C308DF80D3002900F2809DC46
S315080049100091094B002202A903A8FFF7FDFB05B089
S315080049205DF804FB103802900091034B002202A99F
S3150800493003A8FFF791FCF2E741DB01082DE9F04FE8
S3150800494089B005460E4614469846C36B5B69012234
S3150800495007A960689847EB6B5B69012206A9304690
S31508004960984707A81AF0CFFA48B10027A7756775C0
S315080049704FF0FF33A360384609B0BDE8F08F07460D
S3150800498006A81AF0D0FA0123A375237E033304EB95
S31508004990C3035E6000221A816368B3422AD0236883
S315080049A0834201D00023A37506A81AF0E1FA237DF5
S315080049B0984201D00023A37506A81AF0B8FA8146D2
S315080049C007A81AF0B4FA814501D00023A37506A8F2
S315080049D01AF0B5FA814607A81AF0B1FA814501D04E
S315080049E00023A375237D043BDBB2022B0BD80023DF
S315080049F0A375C0E7206006A81AF0BAFA20754FF02A
S31508004A00FF33A360EEE706A81AF091FA80B1EB6BC4
S31508004A105B69022204A93046984704A81AF09AFA54
S31508004A200346207D032868D8DFE800F0615B070DA0
S31508004A3006A81AF08FFA0346F3E7237E033304EB3E
S31508004A40C303CC221A811AF0A3FA129B187094F8A1
S31508004A50189006A81AF05EFA09F1030904EBC909C9
S31508004A6089F80A00237E033304EBC303B3F808A0CE
S31508004A7093F80AB006A81AF05AFA814606A81AF058
S31508004A805EFA0390B9F1000F3DD0EB6B5B69022229
S31508004A9004A93046984704A81AF018FA6075637D89
S31508004AA003B9A375A37DA3B1BAF1000F11D0039B77
S31508004AB0F1186B6C5B4286EA01021A4201D00023A8
S31508004AC0A3756B6C5A1E0A409B1A9A4501D9002396
S31508004AD0A375A37D002B40D0BBF1000F18D1E77D4D
S31508004AE03CE0227E033204EBC2021381ABE7227E4E
S31508004AF0033204EBC2021381A5E7227E033204EBDC
S31508004B00C20213819FE706A81AF0C9F96075C6E7BD
S31508004B100122E275627EBAB9BBF1010F08D095F899
S31508004B203470DFB9EA6AB2F1FF3F05D01F4615E0D7
S31508004B3001216176174611E0BBF1030F01D01F462C
S31508004B400CE00122A27609E0BBF1010F37D0BBF1D8
S31508004B50030F03D10122A27600E01F4653B117B115
S31508004B60BBF1010F06D95346039A3146284619F078
S31508004B700DFBA060A37D13B1236953442361237EF3
S31508004B80114A127893421CD201332376B8F1000FEA
S31508004B9013D0A37D8BB1E37D7BB177B9BBF1030F4E
S31508004BA00BD0A168B1F1FF3F07D0129B00930123F8
S31508004BB022462846FFF7C2FEA075A77DDBE6174604
S31508004BC0CCE70023A375E1E7508102082DE9F04FF1
S31508004BD089B005460F4692469B4600238DF80B3052
S31508004BE04FF0FF31104600F0EFFFB7F5801F1DD3D9
S31508004BF00023009317F1020F07D0009B002B40F00B
S31508004C009E802B7C002B00F08C80EB6AB3F1FF3F73
S31508004C102CD02A689B1A6A6CB3FBF2F917F10208C2
S31508004C2018BF4FF00108002301935DE00DF10A0259
S31508004C30394605F1080000F017FF0146B0F1FF3FBD
S31508004C4011D0504600F0C0FF0DF10B03012251466A
S31508004C50284619F01AFB00900028CBD09DF80B3097
S31508004C608BF80030C6E700230093C3E7696A284635
S31508004C7019F0ADF98146D1E70123019337E09DF894
S31508004C800B308BF80030324B1A683249504620F008
S31508004C9074F900942F4B9968B1F1FF3F1BD06B6CE8
S31508004CA05B4281EA06021A4215D12A4C204600F0D8
S31508004CB08BFF0DF10B0342462146284619F0E5FA0B
S31508004CC004460028E6D017F1020FD8D0214B1B68FE
S31508004CD0BB42DFD1D3E74946284619F078F9814621
S31508004CE0019BCBB9009BBBB96B6A4B45C4D02C68FA
S31508004CF06B6C03FB0944EB6B5B69052203A9204631
S31508004D00984703A81AF0DBF91AF000FA20461AF0B9
S31508004D1009FA06460146BFE7009BA3B1B7F5801F0F
S31508004D2003D3009B8BB100200AE09BF80030DAF829
S31508004D300420394605F1080000F0B4FEF1E700202A
S31508004D4009B0BDE8F08F2D20FAE72D20F8E700BF5F
S31508004D504C8102089C30002070B582B004464FF0A2
S31508004D60FF33C3620DF107031A4A6FF00101FFF71B
S31508004D702DFF20BB174B9B68E362E56A2946204650
S31508004D8018F016FF2063E8B12946204619F0EEF917
S31508004D900546A36AAB421BD02946204618F008FFF1
S31508004DA00646236B034423632946204619F0DEF999
S31508004DB00546002EEDD100232363E062E9E7A36AE6
S31508004DC0E362DAE7E16A204619F0D0F9E062DBE748
S31508004DD002B070BDC830002030B583B01C46032A27
S31508004DE014BF002201221B7E9A4202D0012003B082
S31508004DF030BD0D46096823689942F7D3636899421E
S31508004E00F4D80DF10703114AFFF7E0FE0028EDD1AB
S31508004E100E4B5A686B689A42E8D19DF80730032B07
S31508004E2014BF00230123227E9342DFD16369013335
S31508004E3063612369E2689342D8D2A268296842F876
S31508004E402310236901332361D0E700BFC83000204F
S31508004E502DE9F04182B004460E4690461F46816A07
S31508004E6006E01A4B9968B1F1FF3F1FD0012E23D0F7
S31508004E70E06A884217D0B1F1FF3F14D0134D284697
S31508004E8000F0A2FE0DF1070301222946204619F07B
S31508004E90FCF90028E5D03B469DF807202946204620
S31508004EA0C0470028DDD102B0BDE8F0815968204628
S31508004EB019F05CF90146D9E7044B5A68636C5B4202
S31508004EC04A401A42D4D04FF0FF31D1E77030002063
S31508004ED010B50446083000F08DFD0023024A194635
S31508004EE02046FFF7B5FF10BD79E2010838B504463C
S31508004EF0037C0BBB02461349083000F01DFE616AAD
S31508004F00204619F086F8421C616A204618F0D7FF39
S31508004F10054620B9236B626C1344143B2363A16ACC
S31508004F20204619F023F9A0622368C01A636CB0FB07
S31508004F30F3F06062284638BD0023034A0121FFF7D3
S31508004F4087FFDCE711E60108DFE50108F0B589B05F
S31508004F5080B30F4616461D46044690F834301BB9F2
S31508004F600025284609B0F0BD012118F07DFF0195FE
S31508004F700E9B0293039704960023059306939DF8C8
S31508004F803C308DF81C30237C5BB901AA0A4904F130
S31508004F90080000F0D1FD5EB9069D204619F006FA14
S31508004FA0DFE701AB054A00212046FFF751FFF2E78C
S31508004FB0059DF2E70025D4E72DDE0108D94D000846
S31508004FC0F0B58BB004460D46406AE36B5B69052273
S31508004FD005A92668676C07FB0060984705A81AF0BC
S31508004FE06EF8012836D00094002301938DF80850F6
S31508004FF0039301238DF81030A16AE36A99420FD012
S31508005000237CBBB96A46144904F1080000F094FDF4
S31508005010019B13B99DF810309BB901980BB0F0BDF0
S31508005020204619F0A3F8E062236B626C9B1A1433CE
S315080050302363EDE76B46094A01212046FFF708FF7F
S31508005040E6E7626A2368616C01FB0231E06B19F0DE
S31508005050E8FFE2E70020E1E765520008E5510008AD
S315080050602DE9F04F89B004468A4691461D4600232D
S3150800507007930969026BCB1D406C1438B3FBF0F338
S31508005080013301EBC301914200F2A7804E4677E057
S315080050903D2840F092800490BB4605961EE04FF0EE
S315080050A000092368616C01FB0631E06B19F0A5FF66
S315080050B0204618F0E3FE204619F07FF82063B9F180
S315080050C0000F76D0DAF81020D31D616C1439B3FBC3
S315080050D0F1F3013302EBC30290423AD32368ABEBF8
S315080050E00309606CB9FBF0F909FB00301AF01AF8ED
S315080050F08046E16A204619F039F8A36A83422CD023
S31508005100E062374B9A68616C4B1E1340226B5B1A40
S3150800511013442363ABEB08072368079EF61AB6FB0E
S31508005120F1F6B145BBD197B1E36B9B69BA08414625
S3150800513098478146E36A3B44E362236BA8EB0B0876
S315080051404344236304F1080000F054FCA9E7B94678
S31508005150A7E7DDF810B0059E02E0DDF810B0059E61
S31508005160BBF1000F29D0DAF81000226BC31D616C61
S315080051701439B3FBF1F3013300EBC30082421CD3AD
S31508005180E76ADFF85C803946404600F01DFD07AB4C
S315080051900293019500963B4642465146204619F031
S315080051A030FB834600287FF473AFD8F80830E362F3
S315080051B0D6E7DDF810B0059ED2E75F461FB1384640
S315080051C009B0BDE8F08F2B46054A5268DAF8001098
S315080051D004F1080000F066FCF1E71C27EFE700BFC2
S315080051E09C300020F0B583B01C46032A05D1237AEB
S315080051F0012B33D0012003B0F0BD06460F461546F5
S315080052000DF10703164A0968FFF7E0FC60600028FD
S31508005210EDD19DF80730032BE9D0114B5A687B680E
S315080052209A42E4D1237A012B08D13B69E2681344F8
S315080052307269934202D900232374D8E7E3683A696E
S3150800524013440833E3602B46012239463046FFF7FC
S3150800525007FF60600028CAD00020CCE7207CCAE798
S31508005260C8300020F0B583B0089C2668032A05D10B
S31508005270237A012B4DD0012003B0F0BD15460DF160
S315080052800703254A3046FFF7A1FC60600028EFD1E6
S315080052902168214B5A688B6A486CC0F1000C5A4049
S315080052A012EA0C0FE4D1227A012A19D00F68DB1B07
S315080052B0B3FBF0F3CA6AD21BB2FBF0F29A4219D0DA
S315080052C0E36815490A6913440833E3602B4601224B
S315080052D02068FFF7C5FE60600028C9D00020CBE72C
S315080052E00D4A1269E7683A447769BA42DED900235B
S315080052F02374BDE7726CF16A531E0B40316B9B1A1F
S315080053000B4433632668B16A304618F02FFFF06203
S31508005310D6E7207CB0E700BFC8300020F8B56E4B52
S315080053201E6800221A60002800F0B6800D46044662
S3150800533090F8343013B30A6803689A4240F0AE8096
S315080053404A6843689A4240F0AC808A6883689A4201
S3150800535040F0A980CA68C3689A4240F0A6800A69E4
S3150800536043699A4240F0A3808A69C36B9A4201D086
S315080053705D2594E04B698361002590E0876B682280
S3150800538000211FF0D3FDA7632B6823606B68636059
S315080053902B6963616B69A361EA68A96804F108006F
S315080053A000F03AFBAB69E3639B6804F14000984759
S315080053B030B9636C23B16268B2FBF3F2E26101E0D3
S315080053C00023E36194F84330002B72D00023236650
S315080053D0656C002D6FD0E369002B6ED02368B3FB94
S315080053E0F5F205FB1233002B69D16768B7FBF5F3B5
S315080053F005FB1373002B64D1204618F0C9FBA3697B
S31508005400034404339F425ED36369B3F5805F5CD877
S31508005410CB2B5CD9B5F5805F5BD30321204618F00A
S3150800542023FDE36B1B686168206898470546E36BB4
S31508005430DB6802209847EDB1636C143B5DB9266AB8
S3150800544003FB06F6204618F0A3FBA36903440433BE
S315080054509E4200D25A25B5FA85F35B0984F83430A2
S315080054601BB11E4A13680133136085B1204618F034
S315080054709DFF14E03146204618F01BFF05466428B8
S31508005480DAD13146204618F014FF0546D4E761689C
S31508005490206819F0A7FCE9E7212500E05D252846E4
S315080054A0F8BD5D25FBE75D25F9E75D25F7E75D2591
S315080054B0F5E72125F3E75B25F1E75B25EFE75925B6
S315080054C0EDE75925EBE75A25E9E75F25E7E75F2585
S315080054D0E5E75B25E3E700BF2C2A0020282A002001
S315080054E0F0B585B0A8B30C4617461E46054690F893
S315080054F0343083B3B1F5801F2FD2012118F0B4FCE4
S315080055000DF10F03164A21462846FFF75FFB0446AE
