S01500004956505F4C525F436F6E6E6563742E733337CA
S31508000000002000208143000879DF010879DF010814
S31508000010C124020879DF010879DF010879DF0108C0
S3150800002079DF010879DF010879DF010879DF01083E
S3150800003079DF010879DF010879DF010879DF01082E
S3150800004079DF010879DF010879DF010879DF01081E
S31508000050BD64000879DF010879DF010879DF010846
S3150800006079DF010879DF010879DF0108093A000814
S31508000070F939000879DF010879DF010879DF010815
S3150800008079DF010879DF010879DF010879DF0108DE
S3150800009079DF010879DF0108F94E000879DF0108E0
S315080000A079DF010879DF01089D4A0008754A0008CA
S315080000B079DF010879DF0108C1B001086DBB0108C5
S315080000C0DF550208DB55020821B30108F555020879
S315080000D0E35502083DBB0108E7550208D1BB0108F4
S315080000E009BC010879DF010879DF010891CC00080D
S315080000F079DF01085714020879DF010879DF01085A
S3150800010079DF010879DF010879DF010879DF01085D
S3150800011079DF010879DF010879DF010879DF01084D
S3150800012079DF010879DF010879DF010879DF01083D
S3150800013079DF010879DF010879DF010879DF01082D
S3150800014079DF010879DF010879DF010879DF01081D
S3150800015079DF010879DF01084D770208AD950108B6
S3150800016079DF010879DF0108795502087F55020809
S31508000180194A5AB3194BDB6913F0040F29D110B475
S315080001900AE003EA00048C4210D0013AB2B1134BCC
S315080001A0DB6913F0040F14D110F0010FF1D1104CD4
S315080001B01C40002CEDD06FF001000CE00C4A1A40F0
S315080001C00AB9002007E06FF0010004E06FF00200B2
S315080001D001E04FF0FF305DF8044B70476FF0020006
S315080001E070474FF0FF307047809698000000035024
S315080001F0020001000D4BDB6913F4803F12D170B584
S315080002000A4B03F580560124F46003F500552C6467
S315080002104FF480721A6100212046FFF7B1FF34645B
S31508000220EC6070BD6FF00100704700BF000003501E
S3150800023010B5124B4FF480329A6603F51C33DC690D
S31508000240144041F67132DA6303F580520121D16018
S31508000250586102221A6100212120FFF791FF40B15F
S31508000260074B0122DA601CB1A3F500530022DA63BA
S3150800027010BD00212120FFF783FFF1E70090005011
S315080002800020035038B51A4B5861DB6913F0040F88
S315080002902AD10C4654F8041B154B9961151F06E024
S315080002A0214651F8042B124B9A61043D0C465DB168
S315080002B008210846FFF764FF03460028F0D00C4AD9
S315080002C004211161184638BD094B04221A61002120
S315080002D02120FFF755FF03460028F3D100212120EE
S315080002E0FFF74EFF0346EDE74FF0FF33EAE700BF9F
S315080002F0000003502DE9F0410F46164605461A4BF5
S315080003004FF480329A6603F51C33DA6902F48038B2
S3150800031041F67132DA6303F580530122DA6000236D
S3150800032002E025442744361B8EB105F5005424F413
S31508000330FF5424F01F04641BB44228BF34462246E7
S3150800034039462846FFF79EFF03460028E9D0074AA4
S315080003500121D160B8F1000F03D0A2F500520021A7
S31508000360D1631846BDE8F081009000500020035084
S31508000370000000000000000000000000000000006F
S31508000380013800D0FCE770472DE9F04F2DED028BC0
S3150800039093B082460C4693461D4657EC106B8DED7E
S315080003A0080B32463B46304639461CF001F9002810
S315080003B000F009814FF0FF32B14B304639461CF048
S315080003C01FF9002840F0FF804FF0FF326FF48013CA
S315080003D0304639461CF0F6F8002840F0F480002232
S315080003E00023DDE90867304639461CF0EBF800289B
S315080003F040F0FC809DED087B8DED067B209B13F479
S315080004008063119301D106231E93DDE90601024696
S31508000410C1F30A50C1F31303904643F07F5949F4D8
S315080004204019A0F2FF301BF0F1FD83A3D3E90023A6
S315080004301BF056FE82A3D3E900231BF09BFC06465D
S315080004400F4600228F4B404649461BF091FC7EA37F
S31508000450D3E900231BF044FE02460B4630463946D4
S315080004601BF088FC1CF0D6F806461BF0CFFD80462C
S31508000470894677A3D3E900231BF032FE0022824B7C
S315080004801BF078FC1CF0C6F8074673A3D3E90023D3
S31508000490404649461BF024FE8046894638461BF0EE
S315080004A0B5FD6FA3D3E900231BF01AFE02460B46DF
S315080004B0404649461BF05CFC8046894602460B4688
S315080004C01BF00EFECDE90C0107F2FF3700210022D2
S315080004D0CDE90A123B050B9300230A9342464B4685
S315080004E0404649461BF046FCCDE90E0142464B46BE
S315080004F000204FF080411BF03BFC804689460022D5
S31508000500624BDDE90C011BF015FF0022604B1BF066
S3150800051031FC02460B46DDE90C011BF00BFF0022FD
S315080005205C4B1BF027FC02460B46DDE90C011BF071
S3150800053001FF02460B46404649461BF01BFC024695
S315080005400B46DDE90E011BF0F5FE0022524B1BF0AF
S3150800055011FCDDE90A231BF0C3FD8046894649ECF8
S31508000560188BDDE906231CF04BF840B1013E00224A
S31508000570474B404649461BF0DDFE41EC180B06F199
S315080005806303C62B3BD80427209B13F4006F40D087
S3150800059035A3D3E90023DDE90689404649461CF020
S315080005A025F800283BD032A3D3E900234046494624
S315080005B01CF008F8002832D01E9BB34221DD9E1B92
S315080005C0731E1E931FE0209B02931F9B01931E9B85
S315080005D000939DED080B2B465A462146504600F0DF
S315080005E0CBF813B0BDEC028BBDE8F08F9FED227BF4
S315080005F08DED067B069607F100430793FEE6052771
S31508000600C2E700231E93209B43F4806320930027B0
S315080006103E461F9B9F4241D2A3EB070840E01E9B24
S31508000620002BF6D0119B002BF3D01E9B013B1E938B
S31508000630EFE700BFAFF30080FB799F501344D33F29
S31508000640B3C8608B288AC63F61436F63A787D23FCA
S3150800065071A379094F930A401655B5BBB16B024091
S31508000660EF39FAFE422EE63F2D431CEBE2361A3FDF
S315080006700000000080842E410000000000000000F9
S31508000680FFFFEF7F0000F83F0000E03F00002C402E
S3150800069000002440000018400000F03F4FF000081A
S315080006A0209B13F0020902D00FB14FF000083EB1AB
S315080006B053EC182BDDE906011BF03CFECDE90601DB
S315080006C000220023DDE908011BF07CFF00283BD14E
S315080006D0209B23F400630293CDF804801E9B0093AD
S315080006E09DED060B2B465A462146504600F044F827
S315080006F0002F3FF476AF209B13F0200F2CD04FF03D
S31508000700450C00F101082B46024621466046D047B3
S3150800071086EAE672A2EBE67205230593013F049783
S31508000720002303930A230293F30F019300922B46A7
S3150800073042462146504623F046FBB9F1000F3FF4E6
S3150800074050AF02461F9F10E0DDE90601024601F19F
S315080007500043CDE90623BBE74FF0650CD1E7561CED
S315080007602B4621462020D0473246A2EB0B03BB423C
S31508000770F5D3104635E700BF2DE9F04F2DED028B76
S3150800078093B00590089192469B4659EC108B1E9D96
S3150800079042464B46404649461BF00AFF002840D0D1
S315080007A04FF0FF326FF48013404649461BF00AFFAC
S315080007B0002845D14FF0FF32B14B404649461BF061
S315080007C01FFF00284BD1AAA3D3E900234046494678
S315080007D01BF016FF00285AD1A7A3D3E900234046E9
S315080007E049461BF0EFFE002851D10022002340465F
S315080007F049461BF0E7FE002857D100230993209BA2
S3150800080013F4806F5CD000241F2C5BD8092D59D9AE
S3150800081004F148036B44302203F8202C013D0134CF
S31508000820F2E7209B03931F9B029303230193954BA7
S3150800083000935B4652460899059823F0EAF910E1B9
S31508000840209B03931F9B0293042301938E4B0093D3
S315080008505B4652460899059823F0DBF901E1209B8F
S3150800086013F004030FD0894A7BB10423209903911E
S315080008701F990291019300925B4652460899059882
S3150800088023F0C7F9EDE0824AEEE70323EEE7209B63
S3150800089002931F9B0193009549EC108B5B465246C9
S315080008A008990598FFF770FDDBE042464B460020A5
S315080008B000211BF05DFA80468946012309939EE7CD
S315080008C00625A0E7404649461BF0A4FE06461BF04F
S315080008D09DFB02460B46404649461BF049FA6D4BBE
S315080008E003EBC50393ED008B53EC182B1BF0F8FBB9
S315080008F002460B46CDE906231BF0B4FE07461BF05D
S3150800090075FB02460B46DDE906011BF031FA024685
S315080009100B46CDE9062300225F4B1BF071FE50B350
S31508000920013738461BF062FB02460B4651EC180BA2
S315080009301BF052FE08B10136002755BB30461BF0A6
S3150800094065FB02460B46404649461BF011FA8046AF
S3150800095089460022504B1BF035FE38B100224E4B1B
S31508000960404649461BF04CFE002842D016F0010FBF
S315080009703FD001363DE00022474BDDE906011BF07A
S3150800098021FE0028D9D117B117F0010FD5D00137AC
S31508000990D3E71F2C17D8013D404BA3FB0723DB08E1
S315080009A0194603EB8303A7EB4303621C303304F1B8
S315080009B048000DEB000404F8203C092F02D90F4625
S315080009C01446E6E714461F2C0AD86B1E45B104F1F7
S315080009D048026A44302102F8201C1D460134F2E719
S315080009E01F2C06D804F148036B442E2203F8202C4A
S315080009F001341F2C17D82A4A82FB0632F317C3EB99
S31508000A00A2031A4603EB8303A6EB4303611C3033A8
S31508000A1004F148000DEB000404F8203C16460AB120
S31508000A200C46E6E70C46209B03F00303012B39D05E
S31508000A301F2C09D8099B002B51D004F148036B449D
S31508000A402D2203F8202C0134209B03931F9B02932D
S31508000A5001940AAB00935B4652460899059823F021
S31508000A60D8F813B0BDEC028BBDE8F08FAFF3008069
S31508000A700000000065CDCD410000000065CDCDC168
S31508000A80FFFFEF7FE0930208E4930208D49302087D
S31508000A90DC930208F09302080000E03FCDCCCCCCF2
S31508000AA0676666661F9BB3B1099B1BB9209B13F04B
S31508000AB00C0F12D01F9B013B1F93194606E004F149
S31508000AC048036B44302203F8202C01348C42AFD201
S31508000AD01F2CF4D9ACE71F99F8E71F99F6E7209B76
S31508000AE013F0040F07D004F148036B442B2203F8D4
S31508000AF0202C0134A8E7209B13F0080FA4D004F19A
S31508000B0048036B44202203F8202C01349CE700BFDD
S31508000B1038B50D46044626F04DFB064A13889BB2A7
S31508000B202DB123431380BDE8384026F03EBB23EAA7
S31508000B300403F7E73C4B00200022034B01214FF446
S31508000B4080709A70E4E700BF3C4B00207FB54E6882
S31508000B5002A9044623F0D1FF9DF808300C2B19D1C1
S31508000B60134BB3F90050134B9E4218D807F05AFF9F
S31508000B7003460068694600909B882046ADF8043015
S31508000B8023F0A8FF70B140F25F620B490B480DF0E5
S31508000B90EFFFFEE7204613F0EDFD0546E3E71FF0FD
S31508000BA0C6FBE5E72946204623F07AFF04B070BD68
S31508000BB012510020FFC99A3B9996020864940208CC
S31508000BC0002330B5134C85B0CDE901330393237860
S31508000BD08DF8043026F0EEFAA288E38805469A4294
S31508000BE00DD0E188A06801AAA18023F00FFE58B1B4
S31508000BF040F2DA62084909480DF0BAFFFEE7A06834
S31508000C0023F0DDFD0128ECD0284626F0CEFA05B003
S31508000C1030BD00BF4055002099960208649402082A
S31508000C2038B50F4C656835B940F2C7720D490E489C
S31508000C300DF09EFFFEE723F09BF9284410F0E8FE2E
S31508000C4000F00700032809D164680921204623F02B
S31508000C50ABFA205C031F5842584138BD0020FCE718
S31508000C603C4B0020999602086494020808B5114B7B
S31508000C709A78042A06D040F28E520F490F480DF092
S31508000C8077FFFEE71B881B0706D440F28F520A49F6
S31508000C900A480DF06DFFFEE700210820FFF738FF30
S31508000CA00222074B98681A7313F01EFBBDE808402A
S31508000CB021F062BD3C4B0020999602086494020814
S31508000CC04055002010B5084CA06813F00DFBA0682D
S31508000CD023F075FD012806D00122A0681146BDE85B
S31508000CE0104023F06EBD10BD4055002038B5194D93
S31508000CF0AB7833B140F22B72174918480DF038FF1C
S31508000D00FEE726F057FA2988044611F0060109D0AD
S31508000D1001214FF48070FFF7FBFE2046BDE83840FE
S31508000D2026F043BA4FF48070FFF7F2FE12F02EFC5D
S31508000D30012805D010F0FD0F05D1FFF741FFECE7BC
S31508000D40FFF7C0FFE9E740F24172034903480DF097
S31508000D500FFFFEE73C4B00209996020864940208B0
S31508000D6070B50446064D95F90860FFF7BFFF12F007
S31508000D700BFB314620466A68BDE8704012F03CB964
S31508000D803C4B002008B50A4B1B88DB0606D440F20C
S31508000D90A752084908480DF0EBFEFEE7002110208F
S31508000DA0FFF7B6FE12F06EFCBDE8084021F0E4BC81
S31508000DB03C4B002099960208649402080D4B10B526
S31508000DC01B8804469B0713D500210220FFF7A0FEC7
S31508000DD0094B5A7BFF2A06D040F2E54207490848E4
S31508000DE00DF0C6FEFEE75C73BDE8104021F0C4BCFA
S31508000DF010BD00BF3C4B00204055002099960208C4
S31508000E00649402087047704707B5ADF806100146A6
S31508000E1030B94FF4B572104910480DF0A9FEFEE737
S31508000E20BDF8063033B940F26B120B490B480DF08A
S31508000E309FFEFEE70A4B0DF10602986823F014FFA1
S31508000E4030B140F26D12044904480DF091FEFEE7F8
S31508000E5003B05DF804FB00BF999602086494020883
S31508000E604055002010B50E4CA37833B14FF4EA7202
S31508000E700C490D480DF07CFEFEE7606019B1A17BB8
S31508000E80003918BF01212020FFF742FE074B08480A
S31508000E909B7B23760223A370BDE8104010F084BC28
S31508000EA03C4B00209996020864940208405500209D
S31508000EB0584B002008B50CF089F980F00100C0B243
S31508000EC008BD0A4B9A780AB1062A0CD11B8803F486
S31508000ED08B7343B9064B5A7BFF2A04D1187BFF381C
S31508000EE018BF012070470120704700BF3C4B002007
S31508000EF04055002008B50CF059F90028FBD108BD6B
S31508000F000C4B42889A8142789A730278DA738288FF
S31508000F101A82C2885A82C2685A61017A064A91734D
S31508000F20028A998C914204D001214FF400709A8468
S31508000F30EEE570473C4B002040550020094B9A8946
S31508000F4042809A7B4270DA7B02701A8A82805A8AB9
S31508000F50C2805A699B8CC260034A0382927B0272E2
S31508000F60704700BF3C4B0020405500204B1E012B0C
S31508000F7070B50C4606D940F2B7221A491A480DF040
S31508000F80F7FDFEE7194D0A460146A86823F096FEC6
S31508000F9030B140F2B922134913480DF0E9FDFEE7D6
S31508000FA0AE6810F075FB22460146304623F080FEF7
S31508000FB030B140F2BD220B490B480DF0D9FDFEE7D2
S31508000FC0AD6810F071FB22460146284623F07CFEE8
S31508000FD030B140F2C122034903480DF0C9FDFEE7CE
S31508000FE070BD00BF99960208649402084055002017
S31508000FF0054BDB7B1B0913F00E0003D0052B8CBFBA
S3150800100000200120704700BF40550020044BDB7BC1
S315080010101B0913F00E0F0CBF01200020704700BFFC
S31508001020405500202DE9F04F15469A0580461F4683
S315080010308FB003D501218020FFF76AFDEB014FF041
S31508001040000955D5984C23889E0751D5974E737B32
S31508001050FF2B06D040F2AF42954996480DF088FD21
S31508001060FEE7636833B94FF49662914991480DF0EB
S315080010707FFDFEE749460220FFF74AFDA37886F87A
S315080010800D90042B03D101210820FFF741FD002311
S31508001090B06808A98DF82C3023F031FD30B140F244
S315080010A0BA42834983480DF063FDFEE7FFF7A0FFC8
S315080010B0B0B922F05DFF8146606822F064FF08A996
S315080010C08144B068ADF8249023F01CFD30B140F29D
S315080010D0C242774977480DF04BFDFEE7089BA362AD
S315080010E0A378032B02D1B06813F0FEF821F044FB75
S315080010F0B80702D50120FFF761FE15F0A84F02D008
S315080011000220FFF75BFEA90220D50021402003AC90
S31508001110FFF7FEFC2146404623F0EEFDB0B99DF8E8
S31508001120143008AA022B22D18DF82830BDF80C30CD
S31508001130ADF82030104612F031F938B1404623F0A8
S31508001140D9FD18B901214020FFF7E2FC2A0753D53B
S31508001150564E0321B06803AA23F088FD814688B954
S3150800116040F2FE42524953480DF002FDFEE7032BBA
S3150800117005BF8DF82830D4E900018DF82800C2E9AA
S315080011800001D7E79DF80C30B068072B40F01F81A7
S31508001190494608AA23F06CFD30B140F20152444991
S315080011A044480DF0E5FCFEE7FFF722FFBDF80E20E8
S315080011B0A0B9FFF72BFF78B1043292B2B06808A93C
S315080011C0ADF8242023F056FD40B140F212523849BA
S315080011D038480DF0CDFCFEE70232EEE7BDF80E000A
S315080011E00121073080B225F011FF8246002842D13E
S315080011F001210C2013F00CF8A90705D52A4B1B88EA
S315080012001A0701D5FFF732FDAB010BD500210420E3
S31508001210FFF77EFC244B9B78012B03D1234B986860
S3150800122013F062F815F0284F03D000210420FFF7C9
S315080012306FFC7E060CD51C4C23881D0701D5FFF7CD
S3150800124015FD2388580703D500210420FFF760FC05
S31508001250F90540F1D88003A9404608AA23F0ADFA5B
S315080012600146002800F0BA8040F2D25210491148CF
S315080012700DF07EFCFEE74FF0000B25F04BFECDF897
S3150800128000B00246BDF80E3004464946B06823F061
S31508001290F5FCBDF80E3083420ED040F222520449C6
S315080012A004480DF065FCFEE73C4B00204055002045
S315080012B0999602086494020822F05AFE204410F017
S315080012C0A7FB00F007000228DFF8589124D199F807
S315080012D00230042B90D122F04BFE504B20448278EA
S315080012E01B789A4288D159460820FFF711FC22F04C
S315080012F03FFE204410F08CFB9DF82E30C0F3001002
S31508001300307389F80830FFF78BFC00287FF474AF38
S31508001310B06812F0E9FF6FE722F02AFE204410F0C9
S3150800132077FB83064AD522F023FE204410F070FB93
S3150800133000F0070003280BD10921204622F034FFCC
S3150800134014F800B0ABF1040CDCF1000B4BEB0C0B02
S3150800135001210420FFF7DCFBB06823F0A2FCC9F8E2
S315080013602C00BBF1000F30D0B9F8003058062CD548
S3150800137000214020FFF7CCFB0126BDF80E309DF872
S315080013802E200120E254BDF80E309DF82F2023446C
S315080013909A71BDF80E10089A0131214410F046FBE7
S315080013A0BDF80E3050461C44667125F087FE1C4B6E
S315080013B0187810F0FFFA21F0DFF91DE799F80230E6
S315080013C0012B02D1B06812F08FFF0026D5E723F073
S315080013D031FC4946B06823F04FFC0DE79DF80C3008
S315080013E003F0BF02032A01D0022B0FD10D4C23882C
S315080013F05A0702D50420FFF78BFB23889B0702D5E3
S315080014000120FFF7DBFC0FB0BDE8F08F4FF4BF6299
S31508001410054906480DF0ACFBFEE700BFA94B0020C6
S31508001420CC4A00203C4B0020999602086494020896
S3150800143008B50246FFF7DCFD30B1072A06D80020BA
S31508001440034B83F8302008BD7020FCE70220FAE73A
S315080014503C4B002008B50246FFF7CAFD28B100201C
S31508001460034B93F83030137008BD7020FCE700BFBB
S315080014703C4B002008B5074B01460022986823F02C
S315080014801DFC30B140F2EB22034904480DF070FB15
S31508001490FEE708BD405500209996020864940208A4
S315080014A008B5074B01460022986823F001FC30B1C5
S315080014B040F2F122034904480DF05AFBFEE708BD45
S315080014C040550020999602086494020808B5074B0F
S315080014D00146986823F0FEFB30B140F2F722044932
S315080014E004480DF045FBFEE708BD00BF4055002047
S315080014F0999602086494020808B5074B9B7833B19D
S3150800150040F20132054906480DF032FBFEE7BDE818
S315080015100840FFF7EBBB00BF3C4B0020999602083A
S315080015206494020808B5054B0146986823F0B8FA92
S31508001530002814BF8B20002008BD00BF405500209E
S31508001540014B986813F016B940550020014BD8880E
S31508001550704700BF405500207FB50123ADF80E3017
S315080015604FF6FE7309480093806800230DF10E02BA
S3150800157004A923F022FA212800D020B9BDF81000CA
S3150800158007B05DF804FB4FF6FF70F9E740550020F9
S3150800159008B5044B0146986823F0C3F9B0FA80F001
S315080015A0400908BD4055002038B50B4D0446AB78B8
S315080015B0012B0DD8FFF7ECFF60B1084BDC80AB7848
S315080015C01BB9FFF793FB002038BDFFF7F9FAFAE7D6
S315080015D03E20F9E78A20F7E73C4B002040550020DB
S315080015E0024B9B780BB9FFF781BB70473C4B002039
S315080015F0014BD873704700BF3C4B002008B5064B1B
S315080016004FF0FF31986823F005F90028B8BF03307A
S3150800161040F3870008BD00BF4055002008B5044BBD
S31508001620986823F07AF9034BB3FBF0F080B208BD53
S315080016304055002040420F0030B58DB02C2204469C
S31508001640002101A824F063F801234FF002328DF837
S3150800165008306423CDE9032306930B238DF82C3039
S31508001660214B9B8CADF80A30FFF7C2FCA8B140F2BB
S31508001670F23307934FF47A7305930CB9FFF722FBFD
S315080016801A4D01A9A86813F049F9C0B140F2AC6235
S31508001690174918480DF06CFAFEE7FFF7BFFF0C2351
S315080016A04343902B0793A3F10A02D8BF91230592CF
S315080016B0D8BF0793059B8B2BDFD88C23DCE7FFF776
S315080016C0A5FC60B10122A868114623F011FB30B1D0
S315080016D040F2AF62064907480DF04AFAFEE70CB930
S315080016E0FFF704FB0DB030BD3C4B002040550020F1
S315080016F09996020864940208F8B525F05BFD554CE6
S3150800170006462388D90503D5A37843BBFFF7EEFA27
S31508001710514D6B7BFF2B13D06B7B03F0FF0723BB6D
S31508001720FF236B73A378032B0AD100233046A370DB
S3150800173025F03BFD3846FFF713FB25F03BFD064633
S31508001740A378042B08D12B7BFF2B05D02B7B022BF0
S3150800175014D1424810F028F8FF232B7327E0002104
S315080017604FF48070FFF7D4F9D2E76B7B012B4FF06B
S31508001770FF0314BF89278D276B73D6E72B7B13B11D
S315080017802B7B012B1ED1FFF74BFA0022FF212B7B67
S315080017900746DBB222772973002847D0012B0AD1E6
S315080017A064212E48A37010F00AF8FFF709FA3046AC
S315080017B025F0FBFC06E03046A27025F0F6FC312049
S315080017C0FFF7CEFA23881A0608D500218020FFF7EE
S315080017D09FF9A86823F0CFF911F035FF23889B05F8
S315080017E007D54FF400700021FFF792F90020FFF7A4
S315080017F023FF0BF0DBFC608620B325F08BFB012171
S315080018000546002012F004FDA678012E14D1002604
S315080018102677A670FFF76AFA284611F00FFBA37819
S3150800182066867BB9BDE8F84011F0AEBDA0703046BB
S3150800183025F0BBFC3846C3E72EB1284611F0FEFA60
S3150800184000236386F8BDFFF751FA284611F0F6FA29
S315080018506686F7E73C4B002040550020584B002091
S315080018608B4BF0B51B888B4C8B4D63848B4B85B0AB
S315080018701B68E3628A4B1B8823848A4B1B68A36216
S315080018802B88DB0700F1FC8001210846FFF740F9A9
S315080018900523854A04F1100104F10800AB7012F023
S315080018A0E5FC28B1F522814981480DF061F9FEE78A
S315080018B0A3682BB9F7227D497D480DF059F9FEE753
S315080018C07C4822F0C2FF70A3D3E90023CDE90023A8
S315080018D04FF0FF324FF0FF33A06823F065F84FF45E
S315080018E08811A06812F0BEFF014630B140F20F120F
S315080018F06E496F480DF03CF9FEE76F4B1B78012BDC
S315080019000ED16E4AA06812F07FFDA06813F034F875
S31508001910E0B140F21B12654965480DF029F9FEE76A
S31508001920674E316831B94FF48F72604960480DF0DF
S315080019301FF9FEE7614AA06812F066FD33689B68E6
S3150800194023B1DB6913B15B7803B1E373FFF704FED8
S315080019500146E080A06812F0D3FE064630B140F298
S315080019602D12524952480DF003F9FEE7554B012056
S315080019701B78C3EB431203EB8203DB00AB84FFF750
S315080019805BFEA7680FF090FE32460146384623F004
S315080019909BF9064630B140F23312444944480DF0EB
S315080019A0E7F8FEE740F203530427AB81464BAF73D3
S315080019B01B78EB73FFF732FE00EB80039B002B824C
S315080019C0FFF72CFEC00068823946A0686E6122F0D7
S315080019D093FF30B14FF4A172344935480DF0C8F879
S315080019E0FEE73A46A06803A923F019F8042806D0AA
S315080019F04FF4A3722D492E480DF0BAF8FEE703A955
S31508001A00012010F021F80BF057F908224FF0FF31AA
S31508001A10A06822F0DAFF30B140F24F122349244879
S31508001A200DF0A6F8FEE713F027F930B140F255128B
S31508001A301E491F480DF09CF8FEE7FFF7D9FA68B172
S31508001A401EF077FC0146A06823F044F830B140F256
S31508001A505912164916480DF08BF8FEE7A468FFF7E9
S31508001A607BFD1A4B014603F10C02204622F0D0FEFC
S31508001A7030B14FF4B0720D490D480DF079F8FEE714
S31508001A8005B0F0BDAFF300800A0020FF4203000056
S31508001A9090990208405500203C4B00209499020872
S31508001AA09299020898990208390B00089996020833
S31508001AB064940208690345EC8D4B00204D0B000821
S31508001AC064540020E5560020E4560020C496020817
S31508001AD008B5044B986822F022FF034BB3FBF0F0DD
S31508001AE080B208BD4055002040420F002DE9F04362
S31508001AF08C4D87B02B889B0706D440F24C728A49D6
S31508001B008A480DF035F8FEE7AB78033B012B06D97A
S31508001B1040F24E72844985480DF02AF8FEE76A6855
S31508001B2032B940F25172804980480DF021F8FEE73B
S31508001B307F4E2C88F77B14F0200418BF4FF47A7474
S31508001B404FEA1718FFF754FA00287DD0B8F1020FAC
S31508001B500AD0A8F10303022B74D940F265727249C0
S31508001B6072480DF005F8FEE7032795F8303008EBC4
S31508001B70C80898446F4B104603EB4803B3F81C801B
S31508001B8022F001FA4FF4FA534343B3FBF8F37822F1
S31508001B907733B3FBF2F31F44C7EB0717AB78FF00A5
S31508001BA0BFB204F5347417FA84F4042BA4B203D133
S31508001BB007F6E8072744BCB2D5F8048022F0D8F91E
S31508001BC00746686822F0DFF9074422F0F7F9BFB242
S31508001BD03F1A22F0CDF940440FF01AFF7378C0F38C
S31508001BE040198DF80C30544BBFB2CDE904340024AB
S31508001BF022F0F0F9009402463B464146B06823F0CD
S31508001C001BF8287EB278737812FB00F29342C4BFA1
S31508001C109B1ADCB22B88F18813F0200FB068B180CC
S31508001C208DF80C4003AB76D000934A46434B22F01E
S31508001C30E4FD002873D040F224723B493B480CF07F
S31508001C4097FFFEE7062790E7FFF7E0F9002846D05A
S31508001C50384B07F00F0708EBC801394403EB41037B
S31508001C601046B3F81C9022F08EF9B8F1000F2CD06C
S31508001C70B8F1010F2CD14FF00408400080B2F319D7
S31508001C8093F834304BB14FF4FA52023303444344C9
S31508001C909BB25343B3FBF9F39CB2AB78042B8BD1BD
S31508001CA0FFF7BCFC374497F834308146053398442F
S31508001CB0FFF70EFF0C2308FB00F003FB09F909EBFD
S31508001CC0C009A1441FFA89F476E74FF00208D6E75F
S31508001CD040F28672144915480CF04AFFFEE7FFF7F2
S31508001CE0F7FE0746686822F04EF909307843AB7864
S31508001CF004EBC000042B84B27FF45EAFFFF78EFCC2
S31508001D000746FFF7E5FE602358430C2303FB07004D
S31508001D10204484B250E74A4622F06DFD89E707B0B1
S31508001D20BDE8F0833C4B00209996020864940208AB
S31508001D3040550020C496020820A10700484B002001
S31508001D40F8B5494C258815F0020506D040F27512FB
S31508001D50464947480CF00CFFFEE7257725F02AFA96
S31508001D60238806465A070CD5424B986822F099FFF5
S31508001D70E36AC01AA38C984203D929460420FEF7C1
S31508001D80C7FE304625F011FAA778022F37D125F07D
S31508001D9011FA2388064613F0040507D036480FF0D3
S31508001DA003FD3046BDE8F84025F0FFB925F0FDF9FA
S31508001DB0606811F023FB20B1A570BDE8F840FEF776
S31508001DC0CFBF25F0F7F96668054622F0D1F830440A
S31508001DD00FF01EFE10F0200F0CBF03230423012171
S31508001DE03846A370FEF794FEFFF780FE284625F0D6
S31508001DF0DCF901210846BDE8F84012F009BA042FBB
S31508001E0027D11C4B1B7BFF2B2DD1237EF3B125F04D
S31508001E10D1F9238805465B0704D517480FF0C4FC9B
S31508001E202846BFE725F0C1F9237E013B237625F036
S31508001E30C1F9044601210220FEF76AFEFFF756FEA5
S31508001E40204625F0B2F901210820D4E74020A370E6
S31508001E50B3E7012F07D10023A370064B986812F049
S31508001E6043FA3120A9E7F8BD3C4B002099960208B1
S31508001E706494020840550020584B002038B50121CB
S31508001E8004461020FEF744FE064B9D68FFF7C6FB86
S31508001E90012200FB04F1044B284622F097FC00209F
S31508001EA038BD00BF40550020850D000808B50A4B0F
S31508001EB01B88DB0606D44FF46172084908480CF003
S31508001EC057FEFEE710200021FEF722FE054B986814
S31508001ED0BDE8084022F088BC3C4B002099960208D1
S31508001EE0649402084055002038B50E4D688E30B906
S31508001EF040F291320C490D480CF03AFEFEE725F007
S31508001F0009F80446688E25F023F8811F214401202C
S31508001F100FF09AFD064B0446986822F0C2FE001B95
S31508001F2038BD00BF3C4B002099960208649402080D
S31508001F304055002010B5084C636833B94FF46872F1
S31508001F40064907480CF014FEFEE7064B986822F08F
S31508001F50A8FEA36AC01A10BD3C4B00209996020839
S31508001F60649402084055002038B50A4D688E30B989
S31508001F7040F2AA32084909480CF0FAFDFEE724F0B7
S31508001F80C9FF0446688E24F0E3FF044414F8020CE3
S31508001F9038BD00BF3C4B002099960208649402089D
S31508001FA038B50A4D688E30B940F2B9320849094841
S31508001FB00CF0DEFDFEE724F0ADFF0446688E24F043
S31508001FC0C7FF044414F9070C38BD00BF3C4B00207A
S31508001FD0999602086494020838B50A4D688E30B995
S31508001FE04FF47272084909480CF0C2FDFEE724F066
S31508001FF091FF0446688E24F0ABFF044414F9010CE3
S3150800200038BD00BF3C4B002099960208649402082C
S31508002010024B1888C0F3C010704700BF3C4B002025
S3150800202030B585B005466C460D4B0FCB84E80F00DE
S315080020300DB12B6800930B4B21460022986812F0CD
S31508002040AFFB044630B140F2E632074907480CF0C8
S315080020508FFDFEE7FEF7B4FD204605B030BD00BF94
S315080020604C97020840550020999602086494020885
S3150800207030B5154D87B004460DF10701A86822F062
S3150800208095FC30B140F2F732104911480CF070FD5A
S31508002090FEE79DF80720531EDBB2FD2B0FD90294ED
S315080020A0FF2A00D10394A86802A922F067FD40B16F
S315080020B040F20442054906480CF05AFDFEE7012A9B
S315080020C0EFE707B030BD00BF4055002099960208DB
S315080020D06494020808B5064B986822F05EFD30B194
S315080020E04FF48262034904480CF042FDFEE708BD3E
S315080020F04055002099960208649402080122024B72
S315080021001146986822F05DBB405500207047F8B527
S31508002110064604200D4621F00DFF030622D5124F70
S31508002120BC78FCB926B1012E17D002242046F8BD8A
S3150800213001262846FFF72CFA0028F6D00B4800237C
S3150800214032462946806822F05AFB40B14FF48A622B
S31508002150074908480CF00CFDFEE72646E9E7062382
S31508002160BB70E3E77024E1E73C4B002040550020B4
S315080021709996020864940208042010B521F0DAFE44
S31508002180030611D5094CA378062B0DD1084B986880
S3150800219022F037FB30B140F26A42064906480CF095
S315080021A0E7FCFEE7A07010BD7020FCE73C4B002062
S315080021B04055002099960208649402081FB5044603
S315080021C001A812F0B5FA9DF80D3053B14CB1064B83
S315080021D02078617818700020A27859709A7004B037
S315080021E010BD0220FBE700BF405500201FB504467E
S315080021F001A812F09DFA9DF80D3053B14CB100209C
S31508002200054B1A7822705A789B786270A37004B0CE
S3150800221010BD0220FBE700BF40550020FFF7CEBFE8
S31508002220FFF7E4BF0348044B834202D0034B03B1D4
S3150800223018477047FC560020FC5600200000000096
S31508002240064B0749C91A891048BF0131491003D0FE
S31508002250044B0BB101481847704700BFFC560020D5
S31508002260FC5600200000000010B5064C237843B940
S31508002270FFF7D8FF044B13B10448AFF300800123DE
S31508002280237010BDCC5100200000000038D302088E
S3150800229008B5054B1BB105490548AFF30080BDE8F5
S315080022A00840FFF7CDBF00BF00000000A0220020B5
S315080022B038D30208A3F5803A704700BF174B002BA6
S315080022C008BF134B9D46FFF7F5FF00218B460F46C7
S315080022D01348144A121A23F01AFA0E4B002B00D090
S315080022E098470D4B002B00D098470020002104008A
S315080022F00D000D48002802D00C48AFF300801AF0F4
S31508002300F9FE2000290001F027FA1AF079FB00BF30
S315080023100000080000000000000000000020002067
S3150800232000200020405200200000000000000000AD
S3150800233000B583B0074B0122DA60064B5B6913F0E0
S31508002340400FFAD1034968461DF057FE009803B0BE
S315080023505DF804FB0040005910B582B004461BF036
S31508002360B6FA08B902B010BD00230093ADF80430E0
S31508002370074B1B88ADF80230ADF8044040F2FF1356
S31508002380ADF800306946042020F08DFAEAE700BF70
S315080023900851002008B513460A4601460448006855
S315080023A003F032FD00B908BD02480CF0E1FBFAE77C
S315080023B0F8540020C87802080A2800D9704730B5B2
S315080023C083B004460D466B4601AA014610480068CC
S315080023D003F080FC08B9019B23B10E480CF0C8FB3A
S315080023E003B030BD009B2A4621460948006803F021
S315080023F0B1FB40B9214608480CF0BAFB2946074804
S315080024000CF0B6FBECE7214605480CF0B1FBE7E714
S31508002410F8540020D0780208F478020810790208E7
S31508002420187902080A2800D9704710B504460146EB
S31508002430064B186803F0B6FD20B9214604480CF08F
S3150800244097FB10BD03480CF093FBFAE7F8540020FD
S315080024503C7902085879020838B51B4C6378022281
S3150800246062F383036370DBB26FF300036370DBB25E
S3150800247062F387136370DBB2012565F30513637096
S31508002480A3786FF30713A370DBB265F38303A37016
S31508002490DBB243F00303A370E0700C4B4FF4FA72FF
S315080024A01A80002128461BF0ABFB2A460021284645
S315080024B001F012FB20681BF037FA41F28831044B11
S315080024C018680FF07CF938BDBC2200200A5100209C
S315080024D01C23002008B5294B1B78012B29D0022B79
S315080024E039D003B108BD264B1B78264A1278B3EBC0
S315080024F0420F05DA244A127C02F01802102A0DD17E
S315080025001F4B00221A70204B197CC1F340111F483B
S315080025101BF072FB1E4824F0B3F9E3E70133184AAF
S315080025201370194B197CC1F3401118481BF054FB62
S31508002530D8E7134B1B78134A1278B3EB420F03DA2A
S3150800254001330F4A1370CDE70D4B00221A7010485D
S3150800255024F096F9C6E70A4B1B780A4A1278B3EBB9
S31508002560420F03DA0133064A1370BBE7044B002215
S315080025701A70074824F084F9B4E700BFCD5100204B
S31508002580CF510020CE510020EC220020648B020897
S31508002590C022002000B583B08C461146074B187040
S315080025A0074B83F800C00123019300230093054AD3
S315080025B0054825F047F803B05DF804FBCD51002027
S315080025C0CE510020D5240008C022002010B50024D2
S315080025D0094B1C80094B197CC1F3401108481BF0B4
S315080025E00BFB1BF0DEF9214601201BF017FB054B00
S315080025F01B681C7010BD00BF0A510020EC22002089
S31508002600648B02081C23002008B506481BF0E5F970
S315080026101BF054F9044B1880044B1B6800221A70EF
S3150800262008BD00BFE0220020B822002018230020A1
S3150800263008B501280FD0022819D000B108BD124BE1
S31508002640197CC1F3401111481BF0D6FA002101206C
S315080026501BF0E4FAF2E70C4B197CC1F340110B4866
S315080026601BF0CAFA002101201BF0E4FAE6E7064B44
S31508002670197CC1F3401105481BF0BEFA0021012060
S315080026801BF0D8FADAE700BFEC220020648B0208B8
S3150800269038B56A4B1A78292A5ED02B2A20D0282AE0
S315080026A004D0674B1B6800221A7038BD1C469A7204
S315080026B05B78A27843EA0223E27843EA0243227966
S315080026C043EA0263214641F8143F04220520FFF736
S315080026D061FE0023E3725B4B18680FF065F8E0E7CC
S315080026E0564B9A72597859769A78D87842EA0022DF
S315080026F0187942EA0042587942EA00625B699342D5
S3150800270005D0012250490420FFF744FEC9E70129F4
S3150800271014D00029F5D1494B187CC0F3C100FFF746
S3150800272087FF4A4B1B6800201870C8220221FFF752
S3150800273031FF444B18680FF037F8E2E73F4BD87B78
S31508002740FFF78AFEC82201210020FFF723FF3D4B31
S3150800275018680FF029F8D4E7384B9A725A7B022189
S3150800276061F383025A73D2B26FF300025A73D2B27C
S3150800277061F387125A73D2B2012161F305125A73B3
S315080027809A7B6FF307129A73D2B261F383029A7334
S31508002790D2B242F003029A735878D87399781A7CA1
S315080027A061F3C4021A74D3B203F01803102B3BD09A
S315080027B0224BD9781A7C61F345121A741F4B1B7C7D
S315080027C013F0180F36D01D4C2079214D28701BF0B8
S315080027D08EF8204B4FF4FA721A80002101201BF064
S315080027E00FFA01220021104601F076F9E0681BF085
S315080027F09BF8012204F110010020FFF7CBFD01220E
S3150800280004F10F011046FFF7C5FD012229460220F3
S31508002810FFF7C0FD642202210020FFF7BBFE094B2B
S3150800282018680EF0C1FF3CE7044BD2B26FF34512AD
S315080028301A74C3E7FFF710FEC5E700BFEC220020B5
S315080028402423002028230020052300201C23002001
S31508002850D35100200A51002030B583B0294B5B7E46
S3150800286023B9284B1B7C13F0180F40D100210120F7
S315080028701BF0E0F9234C227E9DF8043062F3010335
S315080028808DF80430627E9DF8043062F382038DF879
S3150800289004301D4816230370042242729DF8042052
S315080028A042701A4D2A88110A8170C270A3721BF0F1
S315080028B094F84FF4FA71164B18680EF080FF1AF068
S315080028C0FDFF2880217CC1F3401112481BF08CF9CA
S315080028D0114BC8221A804FF4FA61104B18680EF093
S315080028E06EFF0F4B1B6800221A7003B030BD0C4BED
S315080028F01B6800221A70034B187CC0F3C100FFF74F
S3150800290097FEF2E7EC220020E0220020B822002001
S3150800291018230020648B02080A5100201C2300207B
S315080029202023002070B908B5074B1B889BB203B15A
S3150800293008BD002101201BF07DF9044B18680EF034
S3150800294033FFF5E7704700BF0A5100202023002017
S3150800295008B5044A1AF0D1FF034B18680EF024FF95
S3150800296008BD00BFEC2200202423002038B5044609
S315080029701FF0A5FFA04201D8012038BD0546032057
S3150800298001F090FA0028F8D01BF07FF91BF07EF9C9
S315080029902B4622460349044800681EF0C2FD002063
S315080029A0EBE700BF707902085427002030B583B0E2
S315080029B004468368C26853F822301D882846FFF704
S315080029C0D5FF08B903B030BD00230093ADF8043035
S315080029D0164B1B88ADF80230ADF804506368E26800
S315080029E09B1A012B1DDDA368013253F822301B8880
S315080029F0ADF800301FF053FF694603201FF053FF60
S31508002A000446032001F04EFA0028DBD01BF03DF9FE
S31508002A101BF03CF922460649064B18681EF081FD54
S31508002A20D0E740F2FF13ADF80030E3E70C51002081
S31508002A30A87902085427002030B583B00446836875
S31508002A40C26853F822301D882846FFF78FFF08B959
S31508002A5003B030BD00230093ADF80430154B1B8836
S31508002A60ADF80230ADF804506368E2689B1A012B92
S31508002A701BDDA368013253F822301B88ADF80030FD
S31508002A80694604201FF00FFF0446032001F00AFAE6
S31508002A900028DDD01BF0F9F81BF0F8F822460649A5
S31508002AA0064B18681EF03DFDD2E740F2FF13ADF85D
S31508002AB00030E5E70C510020C879020854270020A9
S31508002AC030B583B004468368C26853F822301D883F
S31508002AD02846FFF74BFF08B903B030BD0023009323
S31508002AE0ADF80430154B1B88ADF80230ADF804502C
S31508002AF06368E2689B1A012B1BDDA368013253F851
S31508002B0022301B88ADF80030694602201FF0CBFE44
S31508002B100446032001F0C6F90028DDD01BF0B5F8FD
S31508002B201BF0B4F822460649064B18681EF0F9FC55
S31508002B30D2E740F2FF13ADF80030E5E70C5100206C
S31508002B40DC7902085427002030B583B08368C26850
S31508002B5053F822301C780023019343689B1A012BF3
S31508002B6019DD01AA01211DF0A9FF01469DF80400FF
S31508002B701FF091FE054680B1022001F093F960B17D
S31508002B801BF083F81BF082F82A460649064B18689C
S31508002B901EF0C7FC01E01FF082FE20461FF087FEEC
S31508002BA003B030BDF87902085427002010B5034653
S31508002BB08168C26851F82200B0F900001A4C2080DA
S31508002BC05B689B1A012B0FDD013251F8223093F90D
S31508002BD00010003918BF01211FF00EFEA0B903200E
S31508002BE001F060F910B910BD0021F5E71BF04DF8AA
S31508002BF01BF04CF80D4B1C681FF002FE02460C49F0
S31508002C0020461EF08EFCEEE7012001F04BF9002865
S31508002C10E9D01BF03AF81BF039F80649034B186857
S31508002C201EF07FFCDFE700BF0C5100205427002070
S31508002C305C7A0208707A020808B51FF0D1FD0320F5
S31508002C4001F030F900B908BD1BF01FF81BF01EF89B
S31508002C500249034B18681EF064FCF4E7887A0208F8
S31508002C605427002008B58368C26853F822301A88AA
S31508002C70094B1A80032001F015F900B908BD1BF0AD
S31508002C8004F81BF003F8044B1A880449044B186827
S31508002C901EF047FCF2E700BF60560020A87A02083B
S31508002CA05427002008B5024B18680EF07DFD08BDB4
S31508002CB0282300202DE9F04186B01FF0ADFD04461B
S31508002CC0894B1B7813F0020F2CD0884E13F0010F96
S31508002CD02AD0864F13F0040F28D0DFF8108203207D
S31508002CE001F0E0F828BB032001F0DCF858BB03200C
S31508002CF001F0D8F8002835D1032001F0D3F80028D0
S31508002D003ED1032001F0CEF8002847D1032001F078
S31508002D10C9F800285ED1032001F0C4F8002867D15D
S31508002D20002471E0724ED1E7714FD3E7DFF8C08116
S31508002D30D5E71AF0AAFF1AF0A9FF6E496E4B186874
S31508002D401EF0EFFBCFE71AF0A0FF1AF09FFF6A4BC1
S31508002D501D6805F037FB02460B46684928461EF0F3
S31508002D60E0FBC4E71AF091FF1AF090FF624B1D686A
S31508002D701FF02AFD0246624928461EF0D2FBBBE731
S31508002D801AF083FF1AF082FF5B4B1D681FF050FD97
S31508002D9002465C4928461EF0C4FBB2E71AF075FFE6
S31508002DA01AF074FFE279A37961792079E57894F8C5
S31508002DB002C094F801E024780594CDF810E0CDF827
S31508002DC00CC00295019000914F494B4800681EF0CF
S31508002DD0A8FB9BE71AF059FF1AF058FF464B1C68E8
S31508002DE01FF01EFD0246494920461EF09AFB92E74F
S31508002DF01AF04BFF1AF04AFF45493F4B18681EF078
S31508002E0090FB8DE70134E4B2072C12D8032001F0B9
S31508002E1049F80028F6D01AF038FF1AF037FF364B73
S31508002E201D681FF0F9FC025D3A4928461EF079FB39
S31508002E30E8E7032001F036F898B9032001F032F8E4
S31508002E40C8B9032001F02EF818BB032001F02AF8B0
S31508002E5068BB032001F026F8002836D106B0BDE885
S31508002E60F0811AF012FF1AF011FF2B49224B18684D
S31508002E701EF057FBE1E71AF008FF1AF007FF1E4B92
S31508002E801C681FF0D1FC0246244920461EF049FB67
S31508002E90D7E71AF0FAFE1AF0F9FE174B1C681FF06E
S31508002EA0A7FC02461E4920461EF03BFBCDE71AF05A
S31508002EB0ECFE1AF0EBFE104B1C681FF0A1FC024654
S31508002EC0184920461EF02DFBC3E71AF0DEFE1AF05D
S31508002ED0DDFECDF800803B463246134906480068B9
S31508002EE01EF01FFBBAE700BFD6560020107A02086C
S31508002EF0187A0208C47A020854270020CC7A0208F5
S31508002F00E87A0208047B0208207B0208447B020850
S31508002F10607B0208747B02080C7902087C7B020835
S31508002F20987B0208B07B0208C87B020830B583B0DC
S31508002F308368C26853F822301C7801A920461FF01E
S31508002F4053FC88B9032000F0ADFF08B903B030BDC3
S31508002F501AF09BFE1AF09AFE019B22460B490C4872
S31508002F6000681EF0DEFAF1E70546012000F09AFF38
S31508002F700028EBD01AF089FE1AF088FE2A46054981
S31508002F80034B18681EF0CDFAE0E700BF007C020884
S31508002F90542700201C7C020870B58268C36852F862
S31508002FA023100C88013352F823301D782946204611
S31508002FB01FF06DFC80B9032000F074FF00B970BDE6
S31508002FC01AF063FE1AF062FE2B4622460B490C489D
S31508002FD000681EF0A6FAF2E70646012000F062FF36
S31508002FE00028ECD01AF051FE1AF050FE3246054978
S31508002FF0034B18681EF095FAE1E700BF407C02080B
S3150800300054270020707C020870B582B08368C268B5
S3150800301053F822301B78134A137013F0020F0ED0A0
S31508003020114C13F0010F0CD00F4D13F0040F0AD0FA
S315080030300D4E032000F036FF38B902B070BD0B4CB8
S31508003040EFE70A4DF1E7094EF3E71AF01EFE1AF00C
S315080030501DFE00962B4622460549064800681EF0C6
S3150800306060FAEAE7D6560020107A0208187A0208AB
S31508003070247A02085427002030B58FB004460D463E
S3150800308068461AF0C5FC0DF1200EEC46BCE80F00A8
S31508003090AEE80F009CE803008EE8030008A9464B3B
S315080030A0186820F002FA10F1880F46D168461AF01F
S315080030B0AFFC0DF1200EEC46BCE80F00AEE80F00A1
S315080030C09CE803008EE803004FF41053ADF8203057
S315080030D08023ADF822304FF44073079307A81AF0FF
S315080030E0A7FC079B0A93354B0B93334B1A68099B2E
S315080030F00D9213F0FF0F04D123F0FF0343F00103F1
S315080031000993012309932C4B2A46214608A820F047
S31508003110E9F9044610BB032000F0C4FE90B9264B1B
S3150800312018681FF059FB0546002831D1032000F026
S31508003130B9FE044610BB01242FE01F4B186820F087
S315080031408BF9B3E71AF0A1FD1AF0A0FD1A4B1A681D
S315080031501B491C4B18681EF0E4F9E0E7032000F051
S31508003160A1FE0028DBD01AF090FD1AF08FFD22464A
S315080031701549144B18681EF0D4F9D0E71AF085FDE6
S315080031801AF084FD11490F4B18681EF0CAF904E0BD
S31508003190032000F087FE044610B920460FB030BD64
S315080031A01AF073FD1AF072FD2A460949054B18688C
S315080031B01EF0B7F90024F0E70823002000014405B3
S315080031C0A07C020854270020D07C0208F47C020860
S315080031D0147D020800B583B00021019101AA1DF0F3
S315080031E06DFC019910290ED0032000F05BFE60B13A
S315080031F01AF04BFD1AF04AFD10220549054B1868CE
S315080032001EF08FF901E0FFF737FF03B05DF804FB06
S31508003210347D020854270020022900D0704708B5DB
S31508003220024B186808B119F005FC08BD804B002050
S3150800323070B588B0012009F0D7FC434C7823E373B6
S31508003240237C43F020032374DBB2012565F3C40312
S3150800325023743E4E002030702076607604F110010B
S31508003260FFF7AAF804F10F012846FFF7A5F831463B
S315080032700220FFF7A1F804F118010320FFF79CF8D4
S3150800328004F119010420FFF797F804F11401052049
S31508003290FFF792F820F025FA2D492E4809F0AAFBE7
S315080032A02D492E4809F0A6FB2D492E4809F0A2FB08
S315080032B02D492E4809F09EFB2D492E4809F09AFB08
S315080032C02D4B1D6002A81AF0CAFB02A9284620F059
S315080032D0ECF810F1880F0DD0274B18681FF07CFA10
S315080032E01FF0D1FA04462549254808F0D3FC34B323
S315080032F008B070BD204B1A68039B079213F0FF0FA6
S3150800330003D123F0FF032B4303931E4B05934FF47E
S315080033104073019301A81AF0B2FB019B04934FF482
S315080033201053ADF808308023ADF80A300123039313
S31508003330114B1022144902A820F0D4F8CCE7054B0B
S3150800334018680EF031FAD3E7EC220020D35100209A
S31508003350253400082823002091260008242300206D
S315080033605928000820230020CD2500081C2300200A
S315080033700926000818230020082300205C54002092
S315080033800C230020000144054C54002008B50020F9
S31508003390FFF748F80120FFF745F80220FFF742F843
S315080033A00320FFF73FF80420FFF73CF8064B782286
S315080033B0DA731A7C42F020021A74002203490A7052
S315080033C01A765A7608BD00BFEC220020D351002099
S315080033D008B5022912D8104B1B7E13B1022B07D051
S315080033E008BD0020FEF7B8FF0C481AF03BFFF7E7C8
S315080033F0C82202210020FFF7CDF8F1E700210120BD
S315080034001AF018FC064B1B6800221A70FFF7BEFF5D
S315080034101AF067FAE4E700BFEC220020648B020882
S315080034201C23002010B582B01AF048FA82B2524B1B
S315080034301A80524B1B7E022B2DD0032B7BD093B1C7
S315080034404F481AF0CAFA4FF4FA714E4B18680EF044
S31508003450B6F91AF033FA484B18804B4B1B68002212
S315080034601A7002B010BD9DF80430012262F30403FD
S315080034708DF804309DF804306FF346138DF8043048
S315080034803F4B15221A70022159729DF80410597083
S315080034903A4B9A72D4E79DF8001063F301018DF850
S315080034A00010364C617E9DF8003061F382038DF87A
S315080034B00030237CC3F3C10C9DF800106CF3C401E3
S315080034C08DF80010C3F340119DF8003061F34513E1
S315080034D08DF80030A37A282B15D02B2B1FD0292B3B
S315080034E0AED1274B29211970062159729DF8001073
S315080034F05970120A9A70D870204AD27B1A71234AD8
S3150800350012785A719CE71E4928240C7004244C72C0
S315080035101A4CE47A4C70140A8C70C870DDE71849A6
S315080035202B240C7006244C729DF800404C70140A2B
S315080035308C70C870D3E7114B02221A765B7E012B7A
S3150800354010D00E4B5B7E002B7FF47AAF0B4B1B7CA7
S3150800355013F0180F0BD0094B187CC0F3C100FFF706
S3150800356067F86DE7054BD87BFEF776FFE9E7034B6F
S31508003570D87BFEF771FF63E7B8220020EC22002013
S31508003580E02200201823002028230020D351002001
S31508003590014B1878704700BFD2510020F8B50C4689
S315080035A08B681B78152B06D0184B9A7AA3681B785C
S315080035B09A4226D0F8BD154B1B7E002BF4D1134D2D
S315080035C0287CC0F3C100FFF733F802232B760027C7
S315080035D06F762B7C012666F3C4032B74324605F1FD
S315080035E018010320FEF7D6FE324605F1190104201C
S315080035F0FEF7D0FE324605F110013846FEF7CAFE40
S31508003600D2E7034B1B6800221A70D3E7EC2200208E
S315080036101823002010B59038062846D8DFE800F0B1
S315080036200426304545373E000124234B1C70C8222A
S3150800363002210020FEF7AEFF204B1C70204B1B7E9C
S315080036406BB11F4B1B7E022B19D11D4B03221A7619
S315080036504FF4FA711B4B18680EF0B1F80FE01A4BCD
S315080036601988184B18680EF0AAF8EAE70020124BDA
S315080036701870124B187064220521FEF78BFF10BDD7
S315080036804FF47A7202210020FEF784FFF7E74FF421
S315080036907A7202210020FEF77DFFF0E74FF47A7276
S315080036A002210020FEF776FFE9E74FF47A7202213D
S315080036B00020FEF76FFFE2E7D0510020D25100202C
S315080036C0EC220020282300206056002008B523F0AD
S315080036D0ADFF074B1B782BB1064B1B68C01A064B70
S315080036E0984200D808BD05481AF0BCFDFAE700BFA5
S315080036F0D151002014230020A0860100648B020803
S3150800370010B582B0002304220121084604F072FA9B
S31508003710012304220621002004F06CFA002301226A
S315080037201946104604F066FA012001900024009418
S3150800373003462246214604F0F3F90649204601F0DD
S3150800374017FC1B2007F03AFC1B201DF095FE02B063
S3150800375010BD00BFB5DA010808B51EF0E1FE00F09D
S3150800376017FA00F051FDFFF7CBFF1AF09FF9074B48
S3150800377018781AF0BCF800F067F91EF0C3FE1EF0C0
S31508003780F8FE1EF0C0FE22F045FDF8E7D3510020F2
S3150800379008B5024B1B6803B1984708BD5C23002097
S315080037A008B5024B5B6803B1984708BD5C23002047
S315080037B008B5024B9B6803B1984708BD5C230020F7
S315080037C008B5024BDB6803B1984708BD5C230020A7
S315080037D008B5024B1B6903B1984708BD5C23002056
S315080037E008B5024B5B6903B1984708BD5C23002006
S315080037F000B585B0094B1868094B1860094B0A4A89
S3150800380013600A4A01920A4A12680292039301A9AE
S315080038101DF076F905B05DF804FB00BF8054002062
S31508003820A0310020745400209C3100202C8B020803
S315080038303026002008B5024B18681DF075F908BD3A
S315080038408054002038B507F0EFFB0446064D2B6878
S31508003850D3F8B00207F0DCFB28681DF07FF9204694
S3150800386007F0D6FB38BD00BF805400200023062091
S3150800387073B1704754B224B9013353B15DF8044BA0
S3150800388070470228F8D008680A4908601046F3E726
S3150800389010B4094A52F823100A7A022AEAD9032AE6
S315080038A0EAD1441EE4B2012CE6D908680149086049
S315080038B01046E1E7302600208454002010B5A2B057
S315080038C02024224600211AA821F021FF304B1A9302
S315080038D04FF4E1331C9302238DF8753003238DF8DA
S315080038E076302C4B1E9306238DF87E3009238DF8EF
S315080038F080300021159116911791189119914FF45E
S3150800390080131593244B19931091119112911391C9
S315080039101491224B1093224B14933C2201A821F0B8
S31508003920F6FE0DF1040E0DF1540CBCE80F00AEE8DE
S315080039300F00DCF80030CEF800300DF1180E0DF14E
S31508003940400CBCE80F00AEE80F00DCF80030CEF8FB
S315080039500030144B0B930C9401238DF834308DF8FA
S315080039603530114B0F93114B1AAA01A9104807F0CD
S3150800397007FC04469DF837303BB100214FF4E1308F
S315080039801AF0E8FA204622B010BD0321F6E700BF78
S31508003990088F0208F88E02083C00015B010010003F
S315080039A04400015B34260020985400205426002049
S315080039B01027002008B531B9084B1868036823B1E9
S315080039C007F0F4FF01E0012900D908BD034B186888
S315080039D00368002BF9D01EF086F8F6E7AC540020F1
S315080039E008B50349034808F055F9FFF767FF08BD0E
S315080039F0B05400203827002008B502481DF0D7FD2E
S31508003A0008BD00BF1027002008B502481DF0CFFDED
S31508003A1008BD00BF1027002008B5024B5A6A18686F
S31508003A20904708BD1027002008B502481AF016FB73
S31508003A3008BD00BF4C8B020808B502481AF00DFCF9
S31508003A4008BD00BF648B020870B590B001212A201A
S31508003A5003F0D6F800250D950E950F951B4E2A46B0
S31508003A601B49304604F050F98DF839000DF10C0C5D
S31508003A70184C0FCCACE80F000FCCACE80F0094E85C
S31508003A8003008CE803004FF49663069301950295AC
S31508003A9003238DF806308DF8065001238DF8003083
S31508003AA08DF801508DF802508DF8035010238DF8CB
S31508003AB0013003AA0DA9304604F066F96A4601A941
S31508003AC030461CF05BFA10B070BD00BF00400059CC
S31508003AD040420F007C8B020842B9C0B201228A40DC
S31508003AE000EB40000001074B1A507047012A00D02E
S31508003AF07047C0B201228A4000EB40000001024B29
S31508003B001A50F5E740E0035040D0035000B583B0A3
S31508003B100B460549097801910092002201211EF001
S31508003B209FFE03B05DF804FBD656002070B5044628
S31508003B3006790568FA2022F087FF854205D2134BDD
S31508003B4003EBC60300221A7170BD25684FF47A701C
S31508003B5022F07AFF854205D20C4B03EBC6030122FD
S31508003B601A71F1E7246841F2883022F06DFF844229
S31508003B7005D2064B03EBC60302221A71E4E7034B90
S31508003B8003EBC60303221A71DEE700BF4C270020A9
S31508003B9038B5114B18681AF03FF9054698B900244C
S31508003BA008E00E4B53F824001AF05FFA01280CD0EF
S31508003BB00134E4B2002CF4D0094B00221A70064BEB
S31508003BC018681AF039F9284638BD23F02FFD054B39
S31508003BD043F83400ECE700BF48270020B85400201B
S31508003BE0D75600204C27002000B9704730B583B05F
S31508003BF00446104D104928681DF093FC1AF045F844
S31508003C001AF044F80D4B00934FF48D730C4A0D4986
S31508003C1028681DF086FC23460B4A0C4928681DF0C7
S31508003C2080FC204600F086F9094928681DF079FCD1
S31508003C3000BEFDE7542700200C790208548C0208C0
S31508003C40A48B0208148C0208208C0208288C02080F
S31508003C50408C020800B589B000230BB1002312E09E
S31508003C600022244941F823202349CA540133DBB2F0
S31508003C70F3E7224A02EBC30104200871002142F847
S31508003C8033100133DBB2002BF3D0002301930293E8
S31508003C90039304930593069307939DF8043043F022
S31508003CA001038DF80430DBB243F008038DF80430C5
S31508003CB0DBB243F020038DF80430114B0293114B0D
S31508003CC0039302238DF810304FF480630593052380
S31508003CD0ADF818300423ADF81A30082307930A49BB
S31508003CE001A800F045F910B909B05DF804FBFFF723
S31508003CF07BFFF9E744270020402700204C270020B7
S31508003D000D3D00085DDC01084827002010B584B089
S31508003D1001AA02A9124B18681AF0D0F8E0B902A84D
S31508003D20FFF704FF00242CB10D4B18681AF084F82D
S31508003D3004B010BD0B4B03EBC4031979042902D157
S31508003D400134E4B2EFE72046FFF742FB054B03EBED
S31508003D50C40304221A71F3E7FFF746FFE8E700BF3A
S31508003D60482700204C2700201D4B1B78002B36D1F6
S31508003D7070B582B000240CB102B070BD194B53F86F
S31508003D802430834202D00134E4B2F4E71AF06DF924
S31508003D9001281ED023F04AFC134B53F83460861BC7
S31508003DA000968DF80440282022F04EFE864205D85B
S31508003DB00D4B03EBC4031B79052BDDD1082269469D
S31508003DC00A4B18681AF048F80028D5D0FFF70CFFF8
S31508003DD0D2E723F02BFC044B43F83400CCE77047BA
S31508003DE0D7560020B85400204C270020482700202A
S31508003DF010B58368C26853F822301C7804B10024D1
S31508003E00064B1B5D03B110BD23F010FC044B43F8B1
S31508003E102400024B01221A55F5E700BF402700206F
S31508003E204427002038B58368C26853F822301C78C6
S31508003E3004B10024194B1B5D012B00D038BD23F0BB
S31508003E40F5FB174B53F82450451B144B00221A5503
S31508003E50FA2022F0F9FDA84204D900212046FFF7EE
S31508003E60B7FAEBE74FF47A7022F0EEFDA84204D9D0
S31508003E7001212046FFF7ACFAE0E741F2883022F04C
S31508003E80E3FDA84204D902212046FFF7A1FAD5E7A7
S31508003E9003212046FFF79CFAD0E700BF4027002001
S31508003EA04427002003460B4A107828B10A4A12789C
S31508003EB09A4202D2002000E00120084A12783AB15C
S31508003EC0074A127842FA03F313F0010F00D10020D3
S31508003ED0704700BFDA560020D9560020D551002079
S31508003EE0D856002008B5084B01221A70074B002245
S31508003EF01A70074B04221A70064B1F221A7007F015
S31508003F0093F8054B186008BDDA560020D5510020F5
S31508003F10D9560020D85600205427002008B5034952
S31508003F20034B18681DF0FDFA08BD00BF6C8C02082B
S31508003F305427002070B506460A4C0B4920681DF028
S31508003F40F0FA07F071F80546206807F061F8304680
S31508003F50FFF7E4FF284607F05BF8044920681DF0E0
S31508003F60E0FA70BD54270020708C0208748C020891
S31508003F70F8B500284FD00D46044600294DD00378E1
S31508003F8013F0030F36D04268002A48D013F0080F02
S31508003F9002D0A28A002A44D013F0200F05D0E38A63
S31508003FA0002B40D0A369002B3FD02C201DF0F5FE36
S31508003FB0064600283BD02C22002121F0A8FB2168C8
S31508003FC06268A368E0687160B260F3603061216975
S31508003FD06269A3697161B261F361237813F0040F12
S31508003FE00ED000272E60636843B13146114819F098
S31508003FF0D5FF03E04268002AC8D021273846F8BD15
S315080040000121304619F0D4FE07460028EAD030468A
S315080040101DF0A2FFF2E72227F0E72227EEE7212785
S31508004020ECE72127EAE72127E8E72127E6E719272A
S31508004030E4E700BF5827002008B5034819F0A7FF92
S3150800404019F03CFD08BD00BF5827002010B50B4BE2
S315080040501C6802E023F096F8246864B123F097F808
S3150800406094F82030002BF5D0A36A002BF2D023F069
S3150800407089F8002000E0012010BD00BF5827002065
S3150800408010B50B4B1C6802E023F07CF8246864B179
S3150800409023F07DF894F82030002BF5D0A36A002B86
S315080040A0F2D023F06FF8042000E0012010BD00BF15
S315080040B05827002010B50C4B1C6802E023F062F864
S315080040C024687CB123F063F894F82030002BF5D0EF
S315080040D0A36A002BF2D0013BA36223F053F8A3682E
S315080040E09847EDE710BD00BF5827002008B50448DB
S315080040F023F022F919F003FD00F086F808BD00BF89
S31508004100F08E020808B5024823F016F908BD00BF6C
S31508004110F08E02082DE9F04180460F4601F10905A7
S315080041200026344604E05B21082000F093FA0134A7
S31508004130AC4233D2052C1BD801A353F824F000BF98
S3150800414027410008594100088D41000861410008CF
S315080041506541000869410008FBB20433D9B2E3E7B8
S315080041608021E1E70021DFE7731C3146DEB2DBE799
S31508004170BB1DA3420CD0FB1DA3420BD007F10803BD
S31508004180A34209D0A31F18F80310CDE7D121CBE726
S315080041905A21C9E75A21C7E75D21C5E70020BDE8CE
S315080041A0F08100BF00B583B000220092019202217F
S315080041B08DF80010054819F0B7FE019008216846E9
S315080041C0FFF7A8FF03B05DF804FB00BF006A1800FC
S315080041D000B583B0044B1B88ADF8043001A800F085
S315080041E015FB03B05DF804FB788C020800B583B0B4
S315080041F0044B1B88ADF8043001A800F0D7FA03B0C9
S315080042005DF804FB788C02082DE9F04F97B04D4D08
S3150800421009AC2E1D0FCE0FC43368236001AC05F11F
S3150800422018060FCE0FC496E80F0084E80F0046481C
S3150800423023F082F8454823F07FF801268DF80960B7
S3150800424000248DF80840424B0B9301AB0D93414F68
S3150800425009A938461BF043FEB5F838B0ADF838B0B2
S31508004260324604210EA800F065FAB5F83CA0ADF870
S315080042703CA0224631460FA800F05CFAB5F84090FB
S31508004280ADF840903246042110A800F053FAB5F86C
S315080042900080ADF844803246042111A800F04AFA9D
S315080042A02D4D2E4BC5F8F8344FF00213C5F8F434EB
S315080042B0A3F58033C5F8FC341C23C5F8E4344FF461
S315080042C0487008F035FBFFF783FF142008F030FB31
S315080042D0FFF78CFF232008F02BFBFFF779FFB921A6
S315080042E038461BF0E4FDFFF781FFADF848B02246DB
S315080042F0214612A800F01EFAADF84CA02246214627
S3150800430013A800F017FAADF850903246214614A8C3
S3150800431000F010FAADF854803246214615A800F090
S3150800432009FA384603F086F9C5F8E444C5F8F844AE
S31508004330C5F8F444C5F8FC44044823F002F817B05D
S31508004340BDE8F08F788C0208F08E0208F48E020819
S31508004350E070720000000A5000C00350020003001B
S3150800436008B50448044A121A9210044919F005FEC1
S3150800437008BD00BF800100088003000840520020E5
S3150800438008B5154B83F30A8800F030F8FFF7E8FF05
S31508004390124A0AE01068516850F8230041F82300D1
S315080043A0013391688B42F5D30C320D4B9A4201D2F8
S315080043B00023F6E70B4A08E01168002041F82300BD
S315080043C0013351688B42F7D30832074B9A4201D220
S315080043D00023F6E7FDF772FF0000002040D302082D
S315080043E04CD302084CD302084CD3020870B5134BC1
S315080043F0134A9A60D3F8882042F47002C3F88820DA
S31508004400104A4FF4804191660F4D05F500544FF060
S31508004410FF3222660D4A62660222C3F8D020BFF335
S315080044204F8FBFF36F8F002006F0C8FD4FF440365C
S31508004430E66000201DF020F82E6170BD00ED00E05A
S315080044400000000800900050008000447FFF7F01B4
S31508004450014B1860704700BFCC54002008B5064BC6
S315080044601860064B1B6F03F00703032B00D008BD2B
S3150800447021F0D4FBFBE700BFD45400200080005095
S31508004480BFF34F8F0549CA6802F4E062044B134331
S31508004490CB60BFF34F8F00BFFDE700BF00ED00E024
S315080044A00400FA05F0B18446F1B110B409E004F14C
S315080044B020000FE02033C01A18D1BCB10CF1010C52
S315080044C001319CF800400B4B1B5D03F00303012BE5
S315080044D0EDD020460B78074AD25C02F00302012A87
S315080044E0E9D1E7E701207047012070475DF8044BE2
S315080044F0704700BF05D2020830B587B00546046884
S3150800450023798DF80C3063798DF80D301A4822F02E
S3150800451013FF0022012103A800F00CF90DF10B018D
S3150800452003A819F063FE9DF80B302370A379022BBC
S3150800453002D0002007B030BD4FF0FF330593049337
S3150800454000950E4B012205A903A800F02FFA059B3A
S31508004550B3F1FF3F07D00095084B022204A903A830
S3150800456000F084F9E5E70095044B042204A903A8A2
S3150800457000F07CF9DDE700BFF08E020879E001085B
S3150800458010B582B0002401942A4822F0D5FE8DF891
S31508004590004003238DF8013001220421684600F00B
S315080045A0C9F8254B0122C3F8442401A9052022F0A5
S315080045B0BCFE00283BD1214BD3F8F02042F0010283
S315080045C0C3F8F020D3F8FC2042F08072C3F8FC2030
S315080045D0A3F55D431A4A1A60019B03F5D52303F236
S315080045E0FC43DB08174AA2FB03239B0A013B164A36
S315080045F013610223C2F8F0304FF48073C2F8043313
S315080046004FF06043114AC3F8B02F114AC3F8802E01
S31508004610D3F8002E42F48072C3F8002EFF2283F8E6
S315080046202020D3F8002E22F48072C3F8002E02B0A0
S3150800463010BD00BFF08E020800D0035000ED00E068
S31508004640FF03004017916502000004E055CEACC593
S31508004650090001004FF06043D3F8803E13F0010FC4
S3150800466001D1112070470E4AD2F8FC3043F080730E
S31508004670C2F8FC304FF06043D3F8002E4FF0010C1F
S315080046800CFA00FC42EA0C02C3F8002E53F820305C
S31508004690002BE8D04FF0604303F820100020704745
S315080046A000ED00E010B504460FE00123834024EA3C
S315080046B003040F2814D800EB40020E4B03EB8203C9
S315080046C05A6812B19968C0B2904794B1234600203F
S315080046D01F28EAD813F0010FE7D101305B08F7E786
S315080046E0103800EB40039B00B033024A13440433EE
S315080046F0E6E710BD5C27002008B50D4822F01CFE31
S315080047001A2006F04BFC28B91B2006F047FC40B9D6
S31508004710002008BD1A2006F051FC1A201CF0ACFE39
S31508004720F2E71B2006F04AFC1B201CF0A5FEEFE76B
S31508004730F08E02082DE9F04170B30C46174605467F
S315080047400F292BD803784BB1022B20D0032B21D06D
S31508004750012B01D0002303E07F2301E040F2FF7321
S315080047606A78D34013F0010F1AD00F4BD3F81063B1
S31508004770C6B922F01FFD80463A462146284603F070
S3150800478067FE404622F011FD3046BDE8F08140F252
S31508004790FF33E5E73F23E3E72226F5E72126F3E79C
S315080047A02126F1E70226EFE700C0035040B310B513
S315080047B0044603784BB1022B1DD0032B1ED0012BC8
S315080047C001D0002303E07F2301E040F2FF73627803
S315080047D0D34013F0010F15D022F0ECFC2378627851
S315080047E00121914003EB43031B01074AD15022F0F4
S315080047F0DCFC002010BD40F2FF33E8E73F23E6E784
S31508004800222070472120F5E740D0035040B310B569
S31508004810044603784BB1022B1DD0032B1ED0012B67
S3150800482001D0002303E07F2301E040F2FF736278A2
S31508004830D34013F0010F15D022F0BCFC2378627820
S315080048400121914003EB43031B01074AD15022F093
S31508004850ACFC002010BD40F2FF33E8E73F23E6E753
S31508004860222070472120F5E740E00350002866D053
S315080048702DE9F0410C4615461F460646002960D02C
S3150800488002784AB1022A3ED0032A3FD0012A01D033
S31508004890002303E07F2301E040F2FF737178CB40E9
S315080048A013F0010F01D1FF2A4DD1022D01D9042D94
S315080048B04BD122F07FFC80463378FF2B28D1236822
S315080048C0B3F1FF3F2BD02268B2F1FF3F32D0204B25
S315080048D002EB420203EB82025760226802EB4202B5
S315080048E003EB8203069A9A603378FF2B05D0226879
S315080048F001239340174AC2F82434404622F055FC57
S315080049000020BDE8F08140F2FF33C7E73F23C5E743
S315080049102A462168304603F005FE2060CFE7337843
S31508004920FF2BD0D10C4BD3F8241470781BF0A6FCBF
S315080049302060C8E7404622F038FC2D20E1E7222017
S3150800494070472220DDE72120DBE72120D9E700BFD9
S315080049505C27002000D0035000C00350B0F1FF3F91
S315080049601AD038B504460F2818DC002818DB22F0C0
S3150800497021FC0123A3400B4AC2F82034C2F8243490
S31508004980094B04EB440203EB82020025556095604F
S3150800499022F00BFC284638BD212070472120FAE773
S315080049A02120F8E700E003505C270020002856D0B5
S315080049B02DE9F0410C4617461E460546002950D0FB
S315080049C0017849B1022939D003293AD0012901D001
S315080049D0002303E07F2301E040F2FF736A78D340A7
S315080049E013F0010F01D1FF293DD122F0E3FB8046E8
S315080049F02B78FF2B27D12268B2F1FF3F2AD01B4B19
S31508004A0002EB420203EB8202C2F8B860226802EBAC
S31508004A10420203EB8203069AC3F8BC202B78FF2BCD
S31508004A2006D02268103201239340114AC2F8243472
S31508004A30404622F0BAFB0020BDE8F08140F2FF3381
S31508004A40CCE73F23CAE73A462168284603F00AFE20
S31508004A502060D0E7404622F0A8FB2D20ECE7222074
S31508004A6070472220E8E72120E6E700BF5C27002000
S31508004A7000D0035008B5084BD3F82404D3F82024F3
S31508004A80104000F0553020F0502003F50053C3F8CD
S31508004A902004FFF707FE08BD00C0035008B5084B01
S31508004AA0D3F82404D3F82024104000F0AA3020F0CC
S31508004AB0A02003F50053C3F82004FFF7F3FD08BD53
S31508004AC000C0035010B582B004460A4822F034FCF0
S31508004AD023788DF8043063788DF80530A278B2FA19
S31508004AE082F2520904210DEB0100FFF723FE002094
S31508004AF002B010BDF08E0208F0B585B00C4694469B
S31508004B009DF83410664A1278002A00F0BD800546E2
S31508004B10BCF1070F00F2BA800A9A002A00F0B880A2
S31508004B200B9A002A00F0B6800E9AB2F5006F00F3D1
S31508004B30B38001285BD05B4A02EB0C12127B002A79
S31508004B4000F0AC8000220092019202920392564A2B
S31508004B5002EB4C1E002C4FD14FEA4C160020905108
S31508004B60CEF80400CEF80800CEF80C009EF8020035
S31508004B7040F010008EF802009EF8030040F0300066
S31508004B808EF8030021B9C1B241F003018EF8031073
S31508004B9000930E9B013B444A4FEA4C1002EB4C1122
S31508004BA0165A63F30E1616520A9B8B600B9B4B60C4
S31508004BB0CB789DF83C2062F38303CB70012D36D069
S31508004BC0109B002B56D0374A4FEA0C1102EB0C13F8
S31508004BD010985050119A5A6000249C605D73724672
S31508004BE06946604603F0F6FA204605B0F0BD0C9A11
S31508004BF0002AA0D12D48F8E72B4F4FEA4C1607EBB1
S31508004C004C120020B85150609060D060907840F007
S31508004C1010009070D07840F00300D0700029B7D10A
S31508004C2007EB4C12C1B241F03001D170B0E70E4625
S31508004C300A7B42F001020A73D2B242F002020A73F8
S31508004C40CA68042161F39F02F26006F1100796E82C
S31508004C500F0087E80F00F2696FF0030161F39F0206
S31508004C60F2610C9B7361012CAAD10B9AB2610C9A62
S31508004C707260A5E7002DA6D10B4B03EB4C139A786F
S31508004C806FF304129A709EE70948AEE70748ACE747
S31508004C900648AAE70548A8E70448A6E70548A4E79A
S31508004CA0D6510020C4290020C4280020018000F025
S31508004CB0028000F0078000F0134B1B78FBB110B59B
S31508004CC00446F0B122F076FA0023072B13D80F4AD0
S31508004CD002EB0312127B0AB10133F6E723600B4A93
S31508004CE0190102EB031301241C730024545022F00B
S31508004CF05CFA204602E022F058FA054810BD05483D
S31508004D0070470548FAE700BFD6510020C42900209D
S31508004D10048000F0028000F0018000F038B522F02F
S31508004D2049FA04460023072B06DC0C4A02EB031259
S31508004D30127B12B90133F6E7002222B1204622F08F
S31508004D4034FA074838BD03F0F1F90025054B1D7004
S31508004D50204622F02AFA2846F4E700BFC429002094
S31508004D60058000F0D65100200F4B1B78BBB110B55B
S31508004D700446072815D822F01DFA0C4B03EB04133A
S31508004D801B7B1BB922F011FA09480BE0074B03EB12
S31508004D90041300241C7322F008FA204602E0054892
S31508004DA07047054810BD00BFD6510020C429002011
S31508004DB0068000F0028000F0018000F000B583B0A4
S31508004DC0134B1B68019300238DF8043022F0F2F987
S31508004DD0104B1B7833B90F4B01221A7022F0E5F9F4
S31508004DE0002309E022F0E1F90B480EE00B4A02EB3A
S31508004DF00312002111730133072BF7DD08238DF801
S31508004E00073001A803F0B6F9002003B05DF804FBEB
S31508004E10BC8C0208D6510020038000F0C42900206B
S31508004E2010B5104C2478BCB1072817DC0E4C04EBDF
S31508004E300014247BA4B10C4C4FEA001E04EB001CA2
S31508004E4044F80E30029BCCF804300024CCF8084015
S31508004E5003F0C0F9204610BD0448FCE70448FAE709
S31508004E600448F8E7D6510020C4290020028000F043
S31508004E70018000F0078000F008B50A4B1B785BB18B
S31508004E8007280BD8084B03EB00131B7B43B1002103
S31508004E9003F062F9002008BD0448FCE70448FAE775
S31508004EA00448F8E7D6510020C4290020028000F003
S31508004EB0018000F0078000F008B50A4B1B785BB14B
S31508004EC007280BD8084B03EB00131B7B43B10121C2
S31508004ED003F042F9002008BD0448FCE70448FAE755
S31508004EE00448F8E7D6510020C4290020028000F0C3
S31508004EF0018000F0078000F0F8B5194B1F6D5B6D57
S31508004F001F4002D40125002402E0FEE701346D00AB
S31508004F10072C24D83D42F9D0124B1D652301124AAD
S31508004F20D358002BF2D002EB0416B1680131B160F8
S31508004F3072682046984780F00100C0B2737B012B47
S31508004F40E4D10028E2D0094B03EB44131A7B6FF334
S31508004F5041021A731A7F6FF341021A77D6E7F8BD32
S31508004F600000045000200450C4290020C428002052
S31508004F7000B585B0FF238DF80C308DF80D30029002
S31508004F800F2809DC0091094B002202A903A8FFF7A4
S31508004F906DFC05B05DF804FB103802900091034BD8
S31508004FA0002202A903A8FFF701FDF2E753E301086F
S31508004FB02DE9F04F89B005460E4614469846C36B50
S31508004FC05B69012207A960689847EB6B5B69012258
S31508004FD006A93046984707A81AF09EFB48B100274D
S31508004FE0A77567754FF0FF33A360384609B0BDE86B
S31508004FF0F08F074606A81AF09FFB0123A375237EA8
S31508005000033304EBC3035E6000221A816368B3426C
S315080050102AD02368834201D00023A37506A81AF074
S31508005020B0FB237D984201D00023A37506A81AF089
S3150800503087FB814607A81AF083FB814501D0002328
S31508005040A37506A81AF084FB814607A81AF080FB08
S31508005050814501D00023A375237D043BDBB2022BD7
S315080050600BD80023A375C0E7206006A81AF089FBB1
S3150800507020754FF0FF33A360EEE706A81AF060FB31
S3150800508080B1EB6B5B69022204A93046984704A8F5
S315080050901AF069FB0346207D032868D8DFE800F08C
S315080050A0615B070D06A81AF05EFB0346F3E7237E4D
S315080050B0033304EBC303CC221A811AF072FB129B4A
S315080050C0187094F8189006A81AF02DFB09F1030930
S315080050D004EBC90989F80A00237E033304EBC303EA
S315080050E0B3F808A093F80AB006A81AF029FB814677
S315080050F006A81AF02DFB0390B9F1000F3DD0EB6B13
S315080051005B69022204A93046984704A81AF0E7FA10
S315080051106075637D03B9A375A37DA3B1BAF1000FCA
S3150800512011D0039BF1186B6C5B4286EA01021A42A6
S3150800513001D00023A3756B6C5A1E0A409B1A9A4528
S3150800514001D90023A375A37D002B40D0BBF1000F26
S3150800515018D1E77D3CE0227E033204EBC2021381BC
S31508005160ABE7227E033204EBC2021381A5E7227E57
S31508005170033204EBC20213819FE706A81AF098FAD5
S315080051806075C6E70122E275627EBAB9BBF1010F06
S3150800519008D095F83470DFB9EA6AB2F1FF3F05D056
S315080051A01F4615E001216176174611E0BBF1030F92
S315080051B001D01F460CE00122A27609E0BBF1010FDF
S315080051C037D0BBF1030F03D10122A27600E01F46B8
S315080051D053B117B1BBF1010F06D95346039A3146AD
S315080051E0284619F0DCFBA060A37D13B1236953445C
S315080051F02361237E114A127893421CD20133237607
S31508005200B8F1000F13D0A37D8BB1E37D7BB177B9DD
S31508005210BBF1030F0BD0A168B1F1FF3F07D0129B7A
S315080052200093012322462846FFF7C2FEA075A77DF4
S31508005230DBE61746CCE70023A375E1E7E08C020816
S315080052402DE9F04F89B005460F4692469B46002346
S315080052508DF80B304FF0FF31104600F0EFFFB7F531
S31508005260801F1DD30023009317F1020F07D0009B60
S31508005270002B40F09E802B7C002B00F08C80EB6A84
S31508005280B3F1FF3F2CD02A689B1A6A6CB3FBF2F97C
S3150800529017F1020818BF4FF00108002301935DE0DB
S315080052A00DF10A02394605F1080000F017FF01461C
S315080052B0B0F1FF3F11D0504600F0C0FF0DF10B03CF
S315080052C001225146284619F0E9FB00900028CBD068
S315080052D09DF80B308BF80030C6E700230093C3E730
S315080052E0696A284619F07CFA8146D1E701230193B9
S315080052F037E09DF80B308BF80030324B1A6832498C
S31508005300504620F02BFA00942F4B9968B1F1FF3FD5
S315080053101BD06B6C5B4281EA06021A4215D12A4CF5
S31508005320204600F08BFF0DF10B0342462146284626
S3150800533019F0B4FB04460028E6D017F1020FD8D0BE
S31508005340214B1B68BB42DFD1D3E74946284619F0F3
S3150800535047FA8146019BCBB9009BBBB96B6A4B45A3
S31508005360C4D02C686B6C03FB0944EB6B5B690522A4
S3150800537003A92046984703A81AF0AAFA1AF0CFFA02
S3150800538020461AF0D8FA06460146BFE7009BA3B1A5
S31508005390B7F5801F03D3009B8BB100200AE09BF86A
S315080053A00030DAF80420394605F1080000F0B4FEAA
S315080053B0F1E7002009B0BDE8F08F2D20FAE72D208F
S315080053C0F8E700BFDC8C0208B830002070B582B060
S315080053D004464FF0FF33C3620DF107031A4A6FF014
S315080053E00101FFF72DFF20BB174B9B68E362E56AB7
S315080053F02946204618F0E5FF2063E8B129462046ED
S3150800540019F0BDFA0546A36AAB421BD029462046C9
S3150800541018F0D7FF0646236B034423632946204624
S3150800542019F0ADFA0546002EEDD100232363E0629C
S31508005430E9E7A36AE362DAE7E16A204619F09FFA28
S31508005440E062DBE702B070BDE430002030B583B01F
S315080054501C46032A14BF002201221B7E9A4202D050
S31508005460012003B030BD0D46096823689942F7D379
S3150800547063689942F4D80DF10703114AFFF7E0FE75
S315080054800028EDD10E4B5A686B689A42E8D19DF810
S315080054900730032B14BF00230123227E9342DFD15A
S315080054A06369013363612369E2689342D8D2A268CB
S315080054B0296842F82310236901332361D0E700BF26
S315080054C0E43000202DE9F04182B004460E469046AD
S315080054D01F46816A06E01A4B9968B1F1FF3F1FD053
S315080054E0012E23D0E06A884217D0B1F1FF3F14D0CD
S315080054F0134D284600F0A2FE0DF1070301222946A6
S31508005500204619F0CBFA0028E5D03B469DF807203F
