S01500004956505F4C525F436F6E6E6563742E733337CA
S3150800000000200020F5430008E9DF0108E9DF0108C0
S3150800001031250208E9DF0108E9DF0108E9DF0108FF
S31508000020E9DF0108E9DF0108E9DF0108E9DF01087E
S31508000030E9DF0108E9DF0108E9DF0108E9DF01086E
S31508000040E9DF0108E9DF0108E9DF0108E9DF01085E
S3150800005031650008E9DF0108E9DF0108E9DF010881
S31508000060E9DF0108E9DF0108E9DF01087D3A000850
S315080000706D3A0008E9DF0108E9DF0108E9DF010850
S31508000080E9DF0108E9DF0108E9DF0108E9DF01081E
S31508000090E9DF0108E9DF01086D4F0008E9DF01081B
S315080000A0E9DF0108E9DF0108114B0008E94A000801
S315080000B0E9DF0108E9DF010835B10108E1BB0108FC
S315080000C0475602084356020895B301085D560208CA
S315080000D04B560208B1BB01084F56020845BC010839
S315080000E07DBC0108E9DF0108E9DF010805CD000844
S315080000F0E9DF0108C7140208E9DF0108E9DF01089A
S31508000100E9DF0108E9DF0108E9DF0108E9DF01089D
S31508000110E9DF0108E9DF0108E9DF0108E9DF01088D
S31508000120E9DF0108E9DF0108E9DF0108E9DF01087D
S31508000130E9DF0108E9DF0108E9DF0108E9DF01086D
S31508000140E9DF0108E9DF0108E9DF0108E9DF01085D
S31508000150E9DF0108E9DF0108B577020821960108F9
S31508000160E9DF0108E9DF0108E1550208E755020859
S31508000180194A5AB3194BDB6913F0040F29D110B475
S315080001900AE003EA00048C4210D0013AB2B1134BCC
S315080001A0DB6913F0040F14D110F0010FF1D1104CD4
S315080001B01C40002CEDD06FF001000CE00C4A1A40F0
S315080001C00AB9002007E06FF0010004E06FF00200B2
S315080001D001E04FF0FF305DF8044B70476FF0020006
S315080001E070474FF0FF307047809698000000035024
S315080001F0020001000D4BDB6913F4803F12D170B584
S315080002000A4B03F580560124F46003F500552C6467
S315080002104FF480721A6100212046FFF7B1FF34645B
S31508000220EC6070BD6FF00100704700BF000003501E
S3150800023010B5124B4FF480329A6603F51C33DC690D
S31508000240144041F67132DA6303F580520121D16018
S31508000250586102221A6100212120FFF791FF40B15F
S31508000260074B0122DA601CB1A3F500530022DA63BA
S3150800027010BD00212120FFF783FFF1E70090005011
S315080002800020035038B51A4B5861DB6913F0040F88
S315080002902AD10C4654F8041B154B9961151F06E024
S315080002A0214651F8042B124B9A61043D0C465DB168
S315080002B008210846FFF764FF03460028F0D00C4AD9
S315080002C004211161184638BD094B04221A61002120
S315080002D02120FFF755FF03460028F3D100212120EE
S315080002E0FFF74EFF0346EDE74FF0FF33EAE700BF9F
S315080002F0000003502DE9F0410F46164605461A4BF5
S315080003004FF480329A6603F51C33DA6902F48038B2
S3150800031041F67132DA6303F580530122DA6000236D
S3150800032002E025442744361B8EB105F5005424F413
S31508000330FF5424F01F04641BB44228BF34462246E7
S3150800034039462846FFF79EFF03460028E9D0074AA4
S315080003500121D160B8F1000F03D0A2F500520021A7
S31508000360D1631846BDE8F081009000500020035084
S31508000370000000000000000000000000000000006F
S31508000380013800D0FCE770472DE9F04F2DED028BC0
S3150800039093B082460C4693461D4657EC106B8DED7E
S315080003A0080B32463B46304639461CF03BF90028D6
S315080003B000F009814FF0FF32B14B304639461CF048
S315080003C059F9002840F0FF804FF0FF326FF4801390
S315080003D0304639461CF030F9002840F0F4800022F7
S315080003E00023DDE90867304639461CF025F9002860
S315080003F040F0FC809DED087B8DED067B209B13F479
S315080004008063119301D106231E93DDE90601024696
S31508000410C1F30A50C1F31303904643F07F5949F4D8
S315080004204019A0F2FF301BF02BFE83A3D3E900236B
S315080004301BF090FE82A3D3E900231BF0D5FC0646E9
S315080004400F4600228F4B404649461BF0CBFC7EA345
S31508000450D3E900231BF07EFE02460B46304639469A
S315080004601BF0C2FC1CF010F906461BF009FE80467C
S31508000470894677A3D3E900231BF06CFE0022824B42
S315080004801BF0B2FC1CF000F9074673A3D3E900235E
S31508000490404649461BF05EFE8046894638461BF0B4
S315080004A0EFFD6FA3D3E900231BF054FE02460B466B
S315080004B0404649461BF096FC8046894602460B464E
S315080004C01BF048FECDE90C0107F2FF370021002298
S315080004D0CDE90A123B050B9300230A9342464B4685
S315080004E0404649461BF080FCCDE90E0142464B4684
S315080004F000204FF080411BF075FC8046894600229B
S31508000500624BDDE90C011BF04FFF0022604B1BF02C
S315080005106BFC02460B46DDE90C011BF045FF002289
S315080005205C4B1BF061FC02460B46DDE90C011BF037
S315080005303BFF02460B46404649461BF055FC024621
S315080005400B46DDE90E011BF02FFF0022524B1BF074
S315080005504BFCDDE90A231BF0FDFD8046894649EC84
S31508000560188BDDE906231CF085F840B1013E002210
S31508000570474B404649461BF017FF41EC180B06F15E
S315080005806303C62B3BD80427209B13F4006F40D087
S3150800059035A3D3E90023DDE90689404649461CF020
S315080005A05FF800283BD032A3D3E9002340464946EA
S315080005B01CF042F8002832D01E9BB34221DD9E1B58
S315080005C0731E1E931FE0209B02931F9B01931E9B85
S315080005D000939DED080B2B465A462146504600F0DF
S315080005E0CBF813B0BDEC028BBDE8F08F9FED227BF4
S315080005F08DED067B069607F100430793FEE6052771
S31508000600C2E700231E93209B43F4806320930027B0
S315080006103E461F9B9F4241D2A3EB070840E01E9B24
S31508000620002BF6D0119B002BF3D01E9B013B1E938B
S31508000630EFE700BFAFF30080FB799F501344D33F29
S31508000640B3C8608B288AC63F61436F63A787D23FCA
S3150800065071A379094F930A401655B5BBB16B024091
S31508000660EF39FAFE422EE63F2D431CEBE2361A3FDF
S315080006700000000080842E410000000000000000F9
S31508000680FFFFEF7F0000F83F0000E03F00002C402E
S3150800069000002440000018400000F03F4FF000081A
S315080006A0209B13F0020902D00FB14FF000083EB1AB
S315080006B053EC182BDDE906011BF076FECDE90601A1
S315080006C000220023DDE908011BF0B6FF00283BD114
S315080006D0209B23F400630293CDF804801E9B0093AD
S315080006E09DED060B2B465A462146504600F044F827
S315080006F0002F3FF476AF209B13F0200F2CD04FF03D
S31508000700450C00F101082B46024621466046D047B3
S3150800071086EAE672A2EBE67205230593013F049783
S31508000720002303930A230293F30F019300922B46A7
S3150800073042462146504623F07AFBB9F1000F3FF4B2
S3150800074050AF02461F9F10E0DDE90601024601F19F
S315080007500043CDE90623BBE74FF0650CD1E7561CED
S315080007602B4621462020D0473246A2EB0B03BB423C
S31508000770F5D3104635E700BF2DE9F04F2DED028B76
S3150800078093B00590089192469B4659EC108B1E9D96
S3150800079042464B46404649461BF044FF002840D097
S315080007A04FF0FF326FF48013404649461BF044FF72
S315080007B0002845D14FF0FF32B14B404649461BF061
S315080007C059FF00284BD1AAA3D3E90023404649463E
S315080007D01BF050FF00285AD1A7A3D3E900234046AF
S315080007E049461BF029FF002851D100220023404624
S315080007F049461BF021FF002857D100230993209B67
S3150800080013F4806F5CD000241F2C5BD8092D59D9AE
S3150800081004F148036B44302203F8202C013D0134CF
S31508000820F2E7209B03931F9B029303230193954BA7
S3150800083000935B4652460899059823F01EFA10E184
S31508000840209B03931F9B0293042301938E4B0093D3
S315080008505B4652460899059823F00FFA01E1209B5A
S3150800086013F004030FD0894A7BB10423209903911E
S315080008701F990291019300925B4652460899059882
S3150800088023F0FBF9EDE0824AEEE70323EEE7209B2F
S3150800089002931F9B0193009549EC108B5B465246C9
S315080008A008990598FFF770FDDBE042464B460020A5
S315080008B000211BF097FA80468946012309939EE793
S315080008C00625A0E7404649461BF0DEFE06461BF015
S315080008D0D7FB02460B46404649461BF083FA6D4B4A
S315080008E003EBC50393ED008B53EC182B1BF032FC7E
S315080008F002460B46CDE906231BF0EEFE07461BF023
S31508000900AFFB02460B46DDE906011BF06BFA024611
S315080009100B46CDE9062300225F4B1BF0ABFE50B316
S31508000920013738461BF09CFB02460B4651EC180B68
S315080009301BF08CFE08B10136002755BB30461BF06C
S315080009409FFB02460B46404649461BF04BFA80463B
S3150800095089460022504B1BF06FFE38B100224E4BE1
S31508000960404649461BF086FE002842D016F0010F85
S315080009703FD001363DE00022474BDDE906011BF07A
S315080009805BFE0028D9D117B117F0010FD5D0013772
S31508000990D3E71F2C17D8013D404BA3FB0723DB08E1
S315080009A0194603EB8303A7EB4303621C303304F1B8
S315080009B048000DEB000404F8203C092F02D90F4625
S315080009C01446E6E714461F2C0AD86B1E45B104F1F7
S315080009D048026A44302102F8201C1D460134F2E719
S315080009E01F2C06D804F148036B442E2203F8202C4A
S315080009F001341F2C17D82A4A82FB0632F317C3EB99
S31508000A00A2031A4603EB8303A6EB4303611C3033A8
S31508000A1004F148000DEB000404F8203C16460AB120
S31508000A200C46E6E70C46209B03F00303012B39D05E
S31508000A301F2C09D8099B002B51D004F148036B449D
S31508000A402D2203F8202C0134209B03931F9B02932D
S31508000A5001940AAB00935B4652460899059823F021
S31508000A600CF913B0BDEC028BBDE8F08FAFF3008034
S31508000A700000000065CDCD410000000065CDCDC168
S31508000A80FFFFEF7F4094020844940208349402085A
S31508000A903C940208509402080000E03FCDCCCCCC30
S31508000AA0676666661F9BB3B1099B1BB9209B13F04B
S31508000AB00C0F12D01F9B013B1F93194606E004F149
S31508000AC048036B44302203F8202C01348C42AFD201
S31508000AD01F2CF4D9ACE71F99F8E71F99F6E7209B76
S31508000AE013F0040F07D004F148036B442B2203F8D4
S31508000AF0202C0134A8E7209B13F0080FA4D004F19A
S31508000B0048036B44202203F8202C01349CE700BFDD
S31508000B1038B50D46044626F081FB064A13889BB273
S31508000B202DB123431380BDE8384026F072BB23EA73
S31508000B300403F7E73C4B00200022034B01214FF446
S31508000B4080709A70E4E700BF3C4B00207FB54E6882
S31508000B5002A9044624F005F89DF808300C2B19D193
S31508000B60134BB3F90050134B9E4218D807F094FF65
S31508000B7003460068694600909B882046ADF8043015
S31508000B8023F0DCFF70B140F25F620B490B480EF0B0
S31508000B9029F8FEE7204613F027FE0546E3E71FF08F
S31508000BA0FEFBE5E72946204623F0AEFF04B070BDFC
S31508000BB012510020FFC99A3BF9960208C49402080C
S31508000BC0002330B5134C85B0CDE901330393237860
S31508000BD08DF8043026F022FBA288E38805469A425F
S31508000BE00DD0E188A06801AAA18023F043FE58B180
S31508000BF040F2DA62084909480DF0F4FFFEE7A068FA
S31508000C0023F011FE0128ECD0284626F002FB05B099
S31508000C1030BD00BF40550020F9960208C49402086A
S31508000C2038B50F4C656835B940F2C7720D490E489C
S31508000C300DF0D8FFFEE723F0CFF9284410F022FF85
S31508000C4000F00700032809D164680921204623F02B
S31508000C50DFFA205C031F5842584138BD0020FCE7E4
S31508000C603C4B0020F9960208C494020808B5114BBB
S31508000C709A78042A06D040F28E520F490F480DF092
S31508000C80B1FFFEE71B881B0706D440F28F520A49BC
S31508000C900A480DF0A7FFFEE700210820FFF738FFF6
S31508000CA00222074B98681A7313F058FBBDE80840F0
S31508000CB021F09ABD3C4B0020F9960208C49402081C
S31508000CC04055002010B5084CA06813F047FBA068F3
S31508000CD023F0A9FD012806D00122A0681146BDE827
S31508000CE0104023F0A2BD10BD4055002038B5194D5F
S31508000CF0AB7833B140F22B72174918480DF072FFE2
S31508000D00FEE726F08BFA2988044611F0060109D079
S31508000D1001214FF48070FFF7FBFE2046BDE83840FE
S31508000D2026F077BA4FF48070FFF7F2FE12F068FCEF
S31508000D30012805D010F0FD0F05D1FFF741FFECE7BC
S31508000D40FFF7C0FFE9E740F24172034903480DF097
S31508000D5049FFFEE73C4B0020F9960208C4940208B6
S31508000D6070B50446064D95F90860FFF7BFFF12F007
S31508000D7045FB314620466A68BDE8704012F076B9F0
S31508000D803C4B002008B50A4B1B88DB0606D440F20C
S31508000D90A752084908480DF025FFFEE70021102054
S31508000DA0FFF7B6FE12F0A8FCBDE8084021F01CBD0E
S31508000DB03C4B0020F9960208C49402080D4B10B566
S31508000DC01B8804469B0713D500210220FFF7A0FEC7
S31508000DD0094B5A7BFF2A06D040F2E54207490848E4
S31508000DE00DF000FFFEE75C73BDE8104021F0FCBC87
S31508000DF010BD00BF3C4B002040550020F996020864
S31508000E00C49402087047704707B5ADF80610014646
S31508000E1030B94FF4B572104910480DF0E3FEFEE7FD
S31508000E20BDF8063033B940F26B120B490B480DF08A
S31508000E30D9FEFEE70A4B0DF10602986823F048FF33
S31508000E4030B140F26D12044904480DF0CBFEFEE7BE
S31508000E5003B05DF804FB00BFF9960208C4940208C3
S31508000E604055002010B50E4CA37833B14FF4EA7202
S31508000E700C490D480DF0B6FEFEE7606019B1A17B7E
S31508000E80003918BF01212020FFF742FE074B08480A
S31508000E909B7B23760223A370BDE8104010F0BEBCEE
S31508000EA03C4B0020F9960208C494020840550020DD
S31508000EB0584B002008B50CF0C3F980F00100C0B209
S31508000EC008BD0A4B9A780AB1062A0CD11B8803F486
S31508000ED08B7343B9064B5A7BFF2A04D1187BFF381C
S31508000EE018BF012070470120704700BF3C4B002007
S31508000EF04055002008B50CF093F90028FBD108BD31
S31508000F000C4B42889A8142789A730278DA738288FF
S31508000F101A82C2885A82C2685A61017A064A91734D
S31508000F20028A998C914204D001214FF400709A8468
S31508000F30EEE570473C4B002040550020094B9A8946
S31508000F4042809A7B4270DA7B02701A8A82805A8AB9
S31508000F50C2805A699B8CC260034A0382927B0272E2
S31508000F60704700BF3C4B0020405500204B1E012B0C
S31508000F7070B50C4606D940F2B7221A491A480DF040
S31508000F8031FEFEE7194D0A460146A86823F0CAFE57
S31508000F9030B140F2B922134913480DF023FEFEE79B
S31508000FA0AE6810F0AFFB22460146304623F0B4FE89
S31508000FB030B140F2BD220B490B480DF013FEFEE797
S31508000FC0AD6810F0ABFB22460146284623F0B0FE7A
S31508000FD030B140F2C122034903480DF003FEFEE793
S31508000FE070BD00BFF9960208C49402084055002057
S31508000FF0054BDB7B1B0913F00E0003D0052B8CBFBA
S3150800100000200120704700BF40550020044BDB7BC1
S315080010101B0913F00E0F0CBF01200020704700BFFC
S31508001020405500202DE9F04F15469A0580461F4683
S315080010308FB003D501218020FFF76AFDEB014FF041
S31508001040000955D5984C23889E0751D5974E737B32
S31508001050FF2B06D040F2AF42954996480DF0C2FDE7
S31508001060FEE7636833B94FF49662914991480DF0EB
S31508001070B9FDFEE749460220FFF74AFDA37886F840
S315080010800D90042B03D101210820FFF741FD002311
S31508001090B06808A98DF82C3023F065FD30B140F210
S315080010A0BA42834983480DF09DFDFEE7FFF7A0FF8E
S315080010B0B0B922F091FF8146606822F098FF08A92E
S315080010C08144B068ADF8249023F050FD30B140F269
S315080010D0C242774977480DF085FDFEE7089BA36273
S315080010E0A378032B02D1B06813F038F921F07CFB02
S315080010F0B80702D50120FFF761FE15F0A84F02D008
S315080011000220FFF75BFEA90220D50021402003AC90
S31508001110FFF7FEFC2146404623F022FEB0B99DF8B3
S31508001120143008AA022B22D18DF82830BDF80C30CD
S31508001130ADF82030104612F06BF938B1404623F06E
S315080011400DFE18B901214020FFF7E2FC2A0753D506
S31508001150564E0321B06803AA23F0BCFD814688B920
S3150800116040F2FE42524953480DF03CFDFEE7032B80
S3150800117005BF8DF82830D4E900018DF82800C2E9AA
S315080011800001D7E79DF80C30B068072B40F01F81A7
S31508001190494608AA23F0A0FD30B140F2015244495D
S315080011A044480DF01FFDFEE7FFF722FFBDF80E20AD
S315080011B0A0B9FFF72BFF78B1043292B2B06808A93C
S315080011C0ADF8242023F08AFD40B140F21252384986
S315080011D038480DF007FDFEE70232EEE7BDF80E00CF
S315080011E00121073080B225F045FF8246002842D10A
S315080011F001210C2013F046F8A90705D52A4B1B88B0
S315080012001A0701D5FFF732FDAB010BD500210420E3
S31508001210FFF77EFC244B9B78012B03D1234B986860
S3150800122013F09CF815F0284F03D000210420FFF78F
S315080012306FFC7E060CD51C4C23881D0701D5FFF7CD
S3150800124015FD2388580703D500210420FFF760FC05
S31508001250F90540F1D88003A9404608AA23F0E1FA27
S315080012600146002800F0BA8040F2D25210491148CF
S315080012700DF0B8FCFEE74FF0000B25F07FFECDF829
S3150800128000B00246BDF80E3004464946B06823F061
S3150800129029FDBDF80E3083420ED040F22252044991
S315080012A004480DF09FFCFEE73C4B0020405500200B
S315080012B0F9960208C494020822F08EFE204410F023
S315080012C0E1FB00F007000228DFF8589124D199F8CD
S315080012D00230042B90D122F07FFE504B20448278B6
S315080012E01B789A4288D159460820FFF711FC22F04C
S315080012F073FE204410F0C6FB9DF82E30C0F3001094
S31508001300307389F80830FFF78BFC00287FF474AF38
S31508001310B06813F023F86FE722F05EFE204410F061
S31508001320B1FB83064AD522F057FE204410F0AAFBEB
S3150800133000F0070003280BD10921204622F068FF98
S3150800134014F800B0ABF1040CDCF1000B4BEB0C0B02
S3150800135001210420FFF7DCFBB06823F0D6FCC9F8AE
S315080013602C00BBF1000F30D0B9F8003058062CD548
S3150800137000214020FFF7CCFB0126BDF80E309DF872
S315080013802E200120E254BDF80E309DF82F2023446C
S315080013909A71BDF80E10089A0131214410F080FBAD
S315080013A0BDF80E3050461C44667125F0BBFE1C4B3A
S315080013B0187810F039FB21F017FA1DE799F8023072
S315080013C0012B02D1B06812F0C9FF0026D5E723F039
S315080013D065FC4946B06823F083FC0DE79DF80C30A0
S315080013E003F0BF02032A01D0022B0FD10D4C23882C
S315080013F05A0702D50420FFF78BFB23889B0702D5E3
S315080014000120FFF7DBFC0FB0BDE8F08F4FF4BF6299
S31508001410054906480DF0E6FBFEE700BFA94B00208C
S31508001420CC4A00203C4B0020F9960208C4940208D6
S3150800143008B50246FFF7DCFD30B1072A06D80020BA
S31508001440034B83F8302008BD7020FCE70220FAE73A
S315080014503C4B002008B50246FFF7CAFD28B100201C
S31508001460034B93F83030137008BD7020FCE700BFBB
S315080014703C4B002008B5074B01460022986823F02C
S3150800148051FC30B140F2EB22034904480DF0AAFBA7
S31508001490FEE708BD40550020F9960208C4940208E4
S315080014A008B5074B01460022986823F035FC30B191
S315080014B040F2F122034904480DF094FBFEE708BD0B
S315080014C040550020F9960208C494020808B5074B4F
S315080014D00146986823F032FC30B140F2F7220449FD
S315080014E004480DF07FFBFEE708BD00BF405500200D
S315080014F0F9960208C494020808B5074B9B7833B1DD
S3150800150040F20132054906480DF06CFBFEE7BDE8DE
S315080015100840FFF7EBBB00BF3C4B0020F9960208DA
S31508001520C494020808B5054B0146986823F0ECFAFE
S31508001530002814BF8B20002008BD00BF405500209E
S31508001540014B986813F050B940550020014BD888D4
S31508001550704700BF405500207FB50123ADF80E3017
S315080015604FF6FE7309480093806800230DF10E02BA
S3150800157004A923F056FA212800D020B9BDF8100096
S3150800158007B05DF804FB4FF6FF70F9E740550020F9
S3150800159008B5044B0146986823F0F7F9B0FA80F0CD
S315080015A0400908BD4055002038B50B4D0446AB78B8
S315080015B0012B0DD8FFF7ECFF60B1084BDC80AB7848
S315080015C01BB9FFF793FB002038BDFFF7F9FAFAE7D6
S315080015D03E20F9E78A20F7E73C4B002040550020DB
S315080015E0024B9B780BB9FFF781BB70473C4B002039
S315080015F0014BD873704700BF3C4B002008B5064B1B
S315080016004FF0FF31986823F039F90028B8BF033046
S3150800161040F3870008BD00BF4055002008B5044BBD
S31508001620986823F0AEF9034BB3FBF0F080B208BD1F
S315080016304055002040420F0030B58DB02C2204469C
S31508001640002101A824F097F801234FF002328DF803
S3150800165008306423CDE9032306930B238DF82C3039
S31508001660214B9B8CADF80A30FFF7C2FCA8B140F2BB
S31508001670F23307934FF47A7305930CB9FFF722FBFD
S315080016801A4D01A9A86813F083F9C0B140F2AC62FB
S31508001690174918480DF0A6FAFEE7FFF7BFFF0C2317
S315080016A04343902B0793A3F10A02D8BF91230592CF
S315080016B0D8BF0793059B8B2BDFD88C23DCE7FFF776
S315080016C0A5FC60B10122A868114623F045FB30B19C
S315080016D040F2AF62064907480DF084FAFEE70CB9F6
S315080016E0FFF704FB0DB030BD3C4B002040550020F1
S315080016F0F9960208C4940208F8B525F08FFD554CF2
S3150800170006462388D90503D5A37843BBFFF7EEFA27
S31508001710514D6B7BFF2B13D06B7B03F0FF0723BB6D
S31508001720FF236B73A378032B0AD100233046A370DB
S3150800173025F06FFD3846FFF713FB25F06FFD0646CB
S31508001740A378042B08D12B7BFF2B05D02B7B022BF0
S3150800175014D1424810F062F8FF232B7327E00021CA
S315080017604FF48070FFF7D4F9D2E76B7B012B4FF06B
S31508001770FF0314BF89278D276B73D6E72B7B13B11D
S315080017802B7B012B1ED1FFF74BFA0022FF212B7B67
S315080017900746DBB222772973002847D0012B0AD1E6
S315080017A064212E48A37010F044F8FFF709FA304672
S315080017B025F02FFD06E03046A27025F02AFD3120DF
S315080017C0FFF7CEFA23881A0608D500218020FFF7EE
S315080017D09FF9A86823F003FA11F06FFF23889B0589
S315080017E007D54FF400700021FFF792F90020FFF7A4
S315080017F023FF0BF015FD608620B325F0BFFB012102
S315080018000546002012F03EFDA678012E14D10026CA
S315080018102677A670FFF76AFA284611F049FBA378DF
S3150800182066867BB9BDE8F84011F0E8BDA070304681
S3150800183025F0EFFC3846C3E72EB1284611F038FBF1
S3150800184000236386F8BDFFF751FA284611F030FBEE
S315080018506686F7E73C4B002040550020584B002091
S315080018608B4BF0B51B888B4C8B4D63848B4B85B0AB
S315080018701B68E3628A4B1B8823848A4B1B68A36216
S315080018802B88DB0700F1FC8001210846FFF740F9A9
S315080018900523854A04F1100104F10800AB7012F023
S315080018A01FFD28B1F522814981480DF09BF9FEE715
S315080018B0A3682BB9F7227D497D480DF093F9FEE719
S315080018C07C4822F0F6FF70A3D3E90023CDE9002374
S315080018D04FF0FF324FF0FF33A06823F099F84FF42A
S315080018E08811A06812F0F8FF014630B140F20F12D5
S315080018F06E496F480DF076F9FEE76F4B1B78012BA2
S315080019000ED16E4AA06812F0B9FDA06813F06EF801
S31508001910E0B140F21B12654965480DF063F9FEE730
S31508001920674E316831B94FF48F72604960480DF0DF
S3150800193059F9FEE7614AA06812F0A0FD33689B6872
S3150800194023B1DB6913B15B7803B1E373FFF704FED8
S315080019500146E080A06812F00DFF064630B140F25D
S315080019602D12524952480DF03DF9FEE7554B01201C
S315080019701B78C3EB431203EB8203DB00AB84FFF750
S315080019805BFEA7680FF0CAFE32460146384623F0CA
S31508001990CFF9064630B140F23312444944480DF0B7
S315080019A021F9FEE740F203530427AB81464BAF7398
S315080019B01B78EB73FFF732FE00EB80039B002B824C
S315080019C0FFF72CFEC00068823946A0686E6122F0D7
S315080019D0C7FF30B14FF4A172344935480DF002F90A
S315080019E0FEE73A46A06803A923F04DF8042806D076
S315080019F04FF4A3722D492E480DF0F4F8FEE703A91B
S31508001A00012010F05BF80BF091F908224FF0FF3136
S31508001A10A06823F00EF830B140F24F12234924484B
S31508001A200DF0E0F8FEE713F061F930B140F2551217
S31508001A301E491F480DF0D6F8FEE7FFF7D9FA68B138
S31508001A401EF0AFFC0146A06823F078F830B140F2EA
S31508001A505912164916480DF0C5F8FEE7A468FFF7AF
S31508001A607BFD1A4B014603F10C02204622F004FFC7
S31508001A7030B14FF4B0720D490D480DF0B3F8FEE7DA
S31508001A8005B0F0BDAFF300800A0020FF4203000056
S31508001A90F0990208405500203C4B0020F4990208B2
S31508001AA0F2990208F8990208390B0008F996020813
S31508001AB0C4940208690345EC8D4B00204D0B0008C1
S31508001AC064540020E5560020E456002024970208B6
S31508001AD008B5044B986822F056FF034BB3FBF0F0A9
S31508001AE080B208BD4055002040420F002DE9F04362
S31508001AF08C4D87B02B889B0706D440F24C728A49D6
S31508001B008A480DF06FF8FEE7AB78033B012B06D940
S31508001B1040F24E72844985480DF064F8FEE76A681B
S31508001B2032B940F25172804980480DF05BF8FEE701
S31508001B307F4E2C88F77B14F0200418BF4FF47A7474
S31508001B404FEA1718FFF754FA00287DD0B8F1020FAC
S31508001B500AD0A8F10303022B74D940F265727249C0
S31508001B6072480DF03FF8FEE7032795F8303008EB8A
S31508001B70C80898446F4B104603EB4803B3F81C801B
S31508001B8022F035FA4FF4FA534343B3FBF8F37822BD
S31508001B907733B3FBF2F31F44C7EB0717AB78FF00A5
S31508001BA0BFB204F5347417FA84F4042BA4B203D133
S31508001BB007F6E8072744BCB2D5F8048022F00CFAE9
S31508001BC00746686822F013FA074422F02BFABFB2D8
S31508001BD03F1A22F001FA40440FF054FF7378C0F31D
S31508001BE040198DF80C30544BBFB2CDE904340024AB
S31508001BF022F024FA009402463B464146B06823F098
S31508001C004FF8287EB278737812FB00F29342C4BF6D
S31508001C109B1ADCB22B88F18813F0200FB068B180CC
S31508001C208DF80C4003AB76D000934A46434B22F01E
S31508001C3018FE002873D040F224723B493B480CF04A
S31508001C40D1FFFEE7062790E7FFF7E0F9002846D020
S31508001C50384B07F00F0708EBC801394403EB41037B
S31508001C601046B3F81C9022F0C2F9B8F1000F2CD038
S31508001C70B8F1010F2CD14FF00408400080B2F319D7
S31508001C8093F834304BB14FF4FA52023303444344C9
S31508001C909BB25343B3FBF9F39CB2AB78042B8BD1BD
S31508001CA0FFF7BCFC374497F834308146053398442F
S31508001CB0FFF70EFF0C2308FB00F003FB09F909EBFD
S31508001CC0C009A1441FFA89F476E74FF00208D6E75F
S31508001CD040F28672144915480CF084FFFEE7FFF7B8
S31508001CE0F7FE0746686822F082F909307843AB7830
S31508001CF004EBC000042B84B27FF45EAFFFF78EFCC2
S31508001D000746FFF7E5FE602358430C2303FB07004D
S31508001D10204484B250E74A4622F0A1FD89E707B07D
S31508001D20BDE8F0833C4B0020F9960208C4940208EB
S31508001D30405500202497020820A10700484B0020A0
S31508001D40F8B5494C258815F0020506D040F27512FB
S31508001D50464947480CF046FFFEE7257725F05EFA28
S31508001D60238806465A070CD5424B986822F0CDFFC1
S31508001D70E36AC01AA38C984203D929460420FEF7C1
S31508001D80C7FE304625F045FAA778022F37D125F049
S31508001D9045FA2388064613F0040507D036480FF09F
S31508001DA03DFD3046BDE8F84025F033BA25F031FA56
S31508001DB0606811F05DFB20B1A570BDE8F840FEF73C
S31508001DC0CFBF25F02BFA6668054622F005F93044A0
S31508001DD00FF058FE10F0200F0CBF03230423012137
S31508001DE03846A370FEF794FEFFF780FE284625F0D6
S31508001DF010FA01210846BDE8F84012F043BA042F4C
S31508001E0027D11C4B1B7BFF2B2DD1237EF3B125F04D
S31508001E1005FA238805465B0704D517480FF0FEFC2C
S31508001E202846BFE725F0F5F9237E013B237625F002
S31508001E30F5F9044601210220FEF76AFEFFF756FE71
S31508001E40204625F0E6F901210820D4E74020A370B2
S31508001E50B3E7012F07D10023A370064B986812F049
S31508001E607DFA3120A9E7F8BD3C4B0020F996020817
S31508001E70C494020840550020584B002038B501216B
S31508001E8004461020FEF744FE064B9D68FFF7C6FB86
S31508001E90012200FB04F1044B284622F0CBFC00206B
S31508001EA038BD00BF40550020850D000808B50A4B0F
S31508001EB01B88DB0606D44FF46172084908480CF003
S31508001EC091FEFEE710200021FEF722FE054B9868DA
S31508001ED0BDE8084022F0BCBC3C4B0020F99602083D
S31508001EE0C49402084055002038B50E4D688E30B9A6
S31508001EF040F291320C490D480CF074FEFEE725F0CD
S31508001F003DF80446688E25F057F8811F21440120C4
S31508001F100FF0D4FD064B0446986822F0F6FE001B27
S31508001F2038BD00BF3C4B0020F9960208C49402084D
S31508001F304055002010B5084C636833B94FF46872F1
S31508001F40064907480CF04EFEFEE7064B986822F055
S31508001F50DCFEA36AC01A10BD3C4B0020F9960208A5
S31508001F60C49402084055002038B50A4D688E30B929
S31508001F7040F2AA32084909480CF034FEFEE724F07C
S31508001F80FDFF0446688E25F017F8044414F8020C81
S31508001F9038BD00BF3C4B0020F9960208C4940208DD
S31508001FA038B50A4D688E30B940F2B9320849094841
S31508001FB00CF018FEFEE724F0E1FF0446688E24F0D4
S31508001FC0FBFF044414F9070C38BD00BF3C4B002046
S31508001FD0F9960208C494020838B50A4D688E30B9D5
S31508001FE04FF47272084909480CF0FCFDFEE724F02C
S31508001FF0C5FF0446688E24F0DFFF044414F9010C7B
S3150800200038BD00BF3C4B0020F9960208C49402086C
S31508002010024B1888C0F3C010704700BF3C4B002025
S3150800202030B585B005466C460D4B0FCB84E80F00DE
S315080020300DB12B6800930B4B21460022986812F0CD
S31508002040E9FB044630B140F2E632074907480CF08E
S31508002050C9FDFEE7FEF7B4FD204605B030BD00BF5A
S31508002060AC97020840550020F9960208C494020865
S3150800207030B5154D87B004460DF10701A86822F062
S31508002080C9FC30B140F2F732104911480CF0AAFDEC
S31508002090FEE79DF80720531EDBB2FD2B0FD90294ED
S315080020A0FF2A00D10394A86802A922F09BFD40B13B
S315080020B040F20442054906480CF094FDFEE7012A61
S315080020C0EFE707B030BD00BF40550020F99602087B
S315080020D0C494020808B5064B986822F092FD30B100
S315080020E04FF48262034904480CF07CFDFEE708BD04
S315080020F040550020F9960208C49402080122024BB2
S315080021001146986822F091BB405500207047F8B5F3
S31508002110064604200D4621F041FF030622D5124F3C
S31508002120BC78FCB926B1012E17D002242046F8BD8A
S3150800213001262846FFF72CFA0028F6D00B4800237C
S3150800214032462946806822F08EFB40B14FF48A62F7
S31508002150074908480CF046FDFEE72646E9E7062348
S31508002160BB70E3E77024E1E73C4B002040550020B4
S31508002170F9960208C4940208042010B521F00EFF4F
S31508002180030611D5094CA378062B0DD1084B986880
S3150800219022F06BFB30B140F26A42064906480CF061
S315080021A021FDFEE7A07010BD7020FCE73C4B002027
S315080021B040550020F9960208C49402081FB5044643
S315080021C001A812F0EFFA9DF80D3053B14CB1064B49
S315080021D02078617818700020A27859709A7004B037
S315080021E010BD0220FBE700BF405500201FB504467E
S315080021F001A812F0D7FA9DF80D3053B14CB1002062
S31508002200054B1A7822705A789B786270A37004B0CE
S3150800221010BD0220FBE700BF40550020FFF7CEBFE8
S31508002220FFF7E4BF0348044B834202D0034B03B1D4
S3150800223018477047FC560020FC5600200000000096
S31508002240064B0749C91A891048BF0131491003D0FE
S31508002250044B0BB101481847704700BFFC560020D5
S31508002260FC5600200000000010B5064C237843B940
S31508002270FFF7D8FF044B13B10448AFF300800123DE
S31508002280237010BDCC5100200000000098D302082E
S3150800229008B5054B1BB105490548AFF30080BDE8F5
S315080022A00840FFF7CDBF00BF00000000A0220020B5
S315080022B098D30208A3F5803A704700BF174B002B46
S315080022C008BF134B9D46FFF7F5FF00218B460F46C7
S315080022D01348144A121A23F04EFA0E4B002B00D05C
S315080022E098470D4B002B00D098470020002104008A
S315080022F00D000D48002802D00C48AFF300801AF0F4
S3150800230033FF2000290001F061FA1AF0B3FB00BF81
S315080023100000080000000000000000000020002067
S3150800232000200020405200200000000000000000AD
S3150800233000B583B0074B0122DA60064B5B6913F0E0
S31508002340400FFAD1034968461DF08FFE009803B086
S315080023505DF804FB0040005910B582B004461BF036
S31508002360F0FA08B902B010BD00230093ADF80430A6
S31508002370074B1B88ADF80230ADF8044040F2FF1356
S31508002380ADF800306946042020F0C1FAEAE700BF3C
S315080023900851002008B513460A4601460448006855
S315080023A003F06CFD00B908BD02480CF01BFCFAE707
S315080023B0F8540020287902080A2800D9704730B551
S315080023C083B004460D466B4601AA014610480068CC
S315080023D003F0BAFC08B9019B23B10E480CF002FCC5
S315080023E003B030BD009B2A4621460948006803F021
S315080023F0EBFB40B9214608480CF0F4FB2946074890
S315080024000CF0F0FBECE7214605480CF0EBFBE7E7A0
S31508002410F8540020307902085479020870790208C5
S31508002420787902080A2800D9704710B5044601468B
S31508002430064B186803F0F0FD20B9214604480CF055
S31508002440D1FB10BD03480CF0CDFBFAE7F854002089
S315080024509C790208B879020838B51B4C63780222C1
S3150800246062F383036370DBB26FF300036370DBB25E
S3150800247062F387136370DBB2012565F30513637096
S31508002480A3786FF30713A370DBB265F38303A37016
S31508002490DBB243F00303A370E0700C4B4FF4FA72FF
S315080024A01A80002128461BF0E3FB2A46002128460D
S315080024B001F04CFB20681BF06FFA41F28831044B9F
S315080024C018680FF0B6F938BDBC2200200A51002062
S315080024D01C23002008B5294B1B78012B29D0022B79
S315080024E039D003B108BD264B1B78264A1278B3EBC0
S315080024F0420F05DA244A127C02F01802102A0DD17E
S315080025001F4B00221A70204B197CC1F340111F483B
S315080025101BF0AAFB1E4824F0E7F9E3E70133184A43
S315080025201370194B197CC1F3401118481BF08CFB2A
S31508002530D8E7134B1B78134A1278B3EB420F03DA2A
S3150800254001330F4A1370CDE70D4B00221A7010485D
S3150800255024F0CAF9C6E70A4B1B780A4A1278B3EB85
S31508002560420F03DA0133064A1370BBE7044B002215
S315080025701A70074824F0B8F9B4E700BFCD51002017
S31508002580CF510020CE510020EC220020C48B020837
S31508002590C022002000B583B08C461146074B187040
S315080025A0074B83F800C00123019300230093054AD3
S315080025B0054825F07BF803B05DF804FBCD510020F3
S315080025C0CE510020D5240008C022002010B50024D2
S315080025D0094B1C80094B197CC1F3401108481BF0B4
S315080025E043FB1BF016FA214601201BF04FFB054B57
S315080025F01B681C7010BD00BF0A510020EC22002089
S31508002600C48B02081C23002008B506481BF01DFAD7
S315080026101BF08EF9044B1880044B1B6800221A70B5
S3150800262008BD00BFE0220020B822002018230020A1
S3150800263008B501280FD0022819D000B108BD124BE1
S31508002640197CC1F3401111481BF00EFB0021012033
S315080026501BF01CFBF2E70C4B197CC1F340110B482D
S315080026601BF002FB002101201BF01CFBE6E7064BD2
S31508002670197CC1F3401105481BF0F6FA0021012028
S315080026801BF010FBDAE700BFEC220020C48B02081F
S3150800269038B5724B1A78292A6ED02B2A2AD0282ABE
S315080026A004D06F4B1B6800221A7038BD1C469A72FC
S315080026B05B78A27843EA0223E27843EA0243227966
S315080026C043EA0263214641F8143F04220520FFF736
S315080026D061FE237C012262F3C403214601F8103F00
S315080026E00020FFF757FE0023E3725E4B18680FF0D1
S315080026F095F8D6E7594B9A72597859769A78D878D0
S3150800270042EA0022187942EA0042587942EA00620F
S315080027105B699342C5D101291AD00029C1D14F4C12
S31508002720207CC0F3C100FFF783FF4F4B1B680020D6
S315080027301870C8220221FFF72DFF012204F11901A2
S315080027400A20FFF727FE474B18680FF067F8A8E737
S31508002750424CE07BFFF780FEC82201210020FFF7EC
S3150800276019FF012204F119010A20FFF713FE3D4B58
S3150800277018680FF053F894E7384B9A725A7B02217F
S3150800278061F383025A73D2B26FF300025A73D2B25C
S3150800279061F387125A73D2B2012161F305125A7393
S315080027A09A7B6FF307129A73D2B261F383029A7314
S315080027B0D2B242F003029A735878D87399781A7C81
S315080027C061F3C4021A74D3B203F01803102B3BD07A
S315080027D0224BD9781A7C61F345121A741F4B1B7C5D
S315080027E013F0180F36D01D4C2079204D28701BF099
S315080027F0B6F81F4B4FF4FA721A80002101201BF01D
S3150800280037FA01220021104601F0A0F9E0681BF012
S31508002810C3F8012204F110010020FFF7BBFD0122D5
S3150800282004F10F011046FFF7B5FD012229460220E3
S31508002830FFF7B0FD642202210020FFF7ABFE094B2B
S3150800284018680EF0EBFF2CE7044BD2B26FF3451273
S315080028501A74C3E7FFF700FEC5E700BFEC220020A5
S3150800286024230020282300201C230020D3510020E5
S315080028700A51002030B583B0294B5B7E23B9284B1B
S315080028801B7C13F0180F40D1002101201BF00AFA17
S31508002890234C227E9DF8043062F301038DF8043040
S315080028A0627E9DF8043062F382038DF804301D4879
S315080028B016230370042242729DF8042042701A4DB2
S315080028C02A88110A8170C270A3721BF0BEF84FF4F1
S315080028D0FA71164B18680EF0ACFF1BF029F8288021
S315080028E0217CC1F3401112481BF0B6F9114BC822DE
S315080028F01A804FF4FA61104B18680EF09AFF0F4BC6
S315080029001B6800221A7003B030BD0C4B1B680022EE
S315080029101A70034B187CC0F3C100FFF789FEF2E773
S31508002920EC220020E0220020B822002018230020F4
S31508002930C48B02080A5100201C23002020230020F3
S3150800294070B908B5074B1B889BB203B108BD0021B7
S3150800295001201BF0A7F9044B18680EF05FFFF5E796
S31508002960704700BF0A5100202023002008B5044AFA
S315080029701AF0FBFF034B18680EF050FF08BD00BFA6
S31508002980EC2200202423002038B504461FF0CBFF94
S31508002990A04201D8012038BD0546032001F0BCFA43
S315080029A00028F8D01BF0A9F91BF0A8F92B462246F7
S315080029B00349044800681EF0ECFD0020EBE700BF61
S315080029C0D07902085427002030B583B004468368BE
S315080029D0C26853F822301D882846FFF7D5FF08B984
S315080029E003B030BD00230093ADF80430164B1B88A6
S315080029F0ADF80230ADF804506368E2689B1A012B03
S31508002A001DDDA368013253F822301B88ADF800306B
S31508002A101FF079FF694603201FF079FF044603205B
S31508002A2001F07AFA0028DBD01BF067F91BF066F98B
S31508002A3022460649064B18681EF0ABFDD0E740F261
S31508002A40FF13ADF80030E3E70C510020087A0208BE
S31508002A505427002030B583B004468368C26853F80B
S31508002A6022301D882846FFF78FFF08B903B030BD0E
S31508002A7000230093ADF80430154B1B88ADF80230DF
S31508002A80ADF804506368E2689B1A012B1BDDA36846
S31508002A90013253F822301B88ADF80030694604200D
S31508002AA01FF035FF0446032001F036FA0028DDD072
S31508002AB01BF023F91BF022F922460649064B186833
S31508002AC01EF067FDD2E740F2FF13ADF80030E5E7E8
S31508002AD00C510020287A02085427002030B583B00C
S31508002AE004468368C26853F822301D882846FFF7D3
S31508002AF04BFF08B903B030BD00230093ADF804308E
S31508002B00154B1B88ADF80230ADF804506368E268CF
S31508002B109B1A012B1BDDA368013253F822301B8850
S31508002B20ADF80030694602201FF0F1FE0446032086
S31508002B3001F0F2F90028DDD01BF0DFF81BF0DEF813
S31508002B4022460649064B18681EF023FDD2E740F2D6
S31508002B50FF13ADF80030E5E70C5100203C7A020877
S31508002B605427002030B583B08368C26853F82230F2
S31508002B701C780023019343689B1A012B19DD01AACF
S31508002B8001211DF0D3FF01469DF804001FF0B7FE92
S31508002B90054680B1022001F0BFF960B11BF0ADF81F
S31508002BA01BF0ACF82A460649064B18681EF0F1FCDD
S31508002BB001E01FF0A8FE20461FF0ADFE03B030BDB1
S31508002BC0587A02085427002010B503468168C2685F
S31508002BD051F82200B0F900001A4C20805B689B1A55
S31508002BE0012B0FDD013251F8223093F9001000391C
S31508002BF018BF01211FF038FEA0B9032001F08CF997
S31508002C0010B910BD0021F5E71BF077F81BF076F830
S31508002C100D4B1C681FF02CFE02460C4920461EF080
S31508002C20B8FCEEE7012001F077F90028E9D01BF09F
S31508002C3064F81BF063F80649034B18681EF0A9FCF4
S31508002C40DFE700BF0C51002054270020BC7A020899
S31508002C50D07A020808B51FF0FBFD032001F05CF9E5
S31508002C6000B908BD1BF049F81BF048F80249034BA8
S31508002C7018681EF08EFCF4E7E87A0208542700204C
S31508002C8008B58368C26853F822301A88094B1A8037
S31508002C90032001F041F900B908BD1BF02EF81BF01E
S31508002CA02DF8044B1A880449044B18681EF071FC69
S31508002CB0F2E700BF60560020087B02085427002070
S31508002CC008B5024B18680EF0A9FD08BD2823002098
S31508002CD02DE9F04186B01FF0D7FD0446894B1B78D5
S31508002CE013F0020F2CD0884E13F0010F2AD0864F0E
S31508002CF013F0040F28D0DFF81082032001F00CF936
S31508002D0028BB032001F008F958BB032001F004F999
S31508002D10002835D1032001F0FFF800283ED1032012
S31508002D2001F0FAF8002847D1032001F0F5F8002849
S31508002D305ED1032001F0F0F8002867D1002471E085
S31508002D40724ED1E7714FD3E7DFF8C081D5E71AF0A5
S31508002D50D4FF1AF0D3FF6E496E4B18681EF019FCA3
S31508002D60CFE71AF0CAFF1AF0C9FF6A4B1D6805F0CB
S31508002D7063FB02460B46684928461EF00AFCC4E770
S31508002D801AF0BBFF1AF0BAFF624B1D681FF054FD1C
S31508002D900246624928461EF0FCFBBBE71AF0ADFF67
S31508002DA01AF0ACFF5B4B1D681FF07AFD02465C49C2
S31508002DB028461EF0EEFBB2E71AF09FFF1AF09EFFB8
S31508002DC0E279A37961792079E57894F802C094F8D4
S31508002DD001E024780594CDF810E0CDF80CC00295F2
S31508002DE0019000914F494B4800681EF0D2FB9BE7C3
S31508002DF01AF083FF1AF082FF464B1C681FF048FD45
S31508002E000246494920461EF0C4FB92E71AF075FFB0
S31508002E101AF074FF45493F4B18681EF0BAFB8DE758
S31508002E200134E4B2072C12D8032001F075F8002803
S31508002E30F6D01AF062FF1AF061FF364B1D681FF0D4
S31508002E4023FD025D3A4928461EF0A3FBE8E7032066
S31508002E5001F062F898B9032001F05EF8C8B90320BA
S31508002E6001F05AF818BB032001F056F868BB032096
S31508002E7001F052F8002836D106B0BDE8F0811AF004
S31508002E803CFF1AF03BFF2B49224B18681EF081FBCA
S31508002E90E1E71AF032FF1AF031FF1E4B1C681FF0EB
S31508002EA0FBFC0246244920461EF073FBD7E71AF0BE
S31508002EB024FF1AF023FF174B1C681FF0D1FC0246AB
S31508002EC01E4920461EF065FBCDE71AF016FF1AF0DC
S31508002ED015FF104B1C681FF0CBFC0246184920460C
S31508002EE01EF057FBC3E71AF008FF1AF007FFCDF8E4
S31508002EF000803B4632461349064800681EF049FBE7
S31508002F00BAE700BFD6560020707A0208787A020817
S31508002F10247B0208542700202C7B0208487B0208E1
S31508002F20647B0208807B0208A47B0208C07B020837
S31508002F30D47B02086C790208DC7B0208F87B02085D
S31508002F40107C0208287C020830B583B08368C26802
S31508002F5053F822301C7801A920461FF07DFC88B959
S31508002F60032000F0D9FF08B903B030BD1AF0C5FE3A
S31508002F701AF0C4FE019B22460B490C4800681EF055
S31508002F8008FBF1E70546012000F0C6FF0028EBD054
S31508002F901AF0B3FE1AF0B2FE2A460549034B186822
S31508002FA01EF0F7FAE0E700BF607C0208542700200D
S31508002FB07C7C020870B58268C36852F823100C88B6
S31508002FC0013352F823301D78294620461FF093FC1A
S31508002FD080B9032000F0A0FF00B970BD1AF08DFE7D
S31508002FE01AF08CFE2B4622460B490C4800681EF048
S31508002FF0D0FAF2E70646012000F08EFF0028ECD052
S315080030001AF07BFE1AF07AFE32460549034B186819
S315080030101EF0BFFAE1E700BFA07C02085427002093
S31508003020D07C020870B582B08368C26853F8223033
S315080030301B78134A137013F0020F0ED0114C13F0BD
S31508003040010F0CD00F4D13F0040F0AD00D4E0320BC
S3150800305000F062FF38B902B070BD0B4CEFE70A4DBD
S31508003060F1E7094EF3E71AF048FE1AF047FE009614
S315080030702B4622460549064800681EF08AFAEAE702
S31508003080D6560020707A0208787A0208847A0208EE
S315080030905427002030B58FB004460D4668461AF00E
S315080030A0EFFC0DF1200EEC46BCE80F00AEE80F0071
S315080030B09CE803008EE8030008A9464B186820F030
S315080030C028FA10F1880F46D168461AF0D9FC0DF196
S315080030D0200EEC46BCE80F00AEE80F009CE80300A3
S315080030E08EE803004FF41053ADF820308023ADF876
S315080030F022304FF44073079307A81AF0D1FC079BB8
S315080031000A93354B0B93334B1A68099B0D9213F0B0
S31508003110FF0F04D123F0FF0343F0010309930123B2
S3150800312009932C4B2A46214608A820F00FFA044694
S3150800313010BB032000F0F0FE90B9264B18681FF06C
S3150800314083FB0546002831D1032000F0E5FE04463E
S3150800315010BB01242FE01F4B186820F0B1F9B3E724
S315080031601AF0CBFD1AF0CAFD1A4B1A681B491C4BFC
S3150800317018681EF00EFAE0E7032000F0CDFE0028DE
S31508003180DBD01AF0BAFD1AF0B9FD22461549144BE0
S3150800319018681EF0FEF9D0E71AF0AFFD1AF0AEFD7A
S315080031A011490F4B18681EF0F4F904E0032000F0EB
S315080031B0B3FE044610B920460FB030BD1AF09DFD87
S315080031C01AF09CFD2A460949054B18681EF0E1F9D4
S315080031D00024F0E70823002000014405007D0208CA
S315080031E054270020307D0208547D0208747D0208A9
S315080031F000B583B00021019101AA1DF097FC019941
S3150800320010290ED0032000F087FE60B11AF075FD74
S315080032101AF074FD10220549054B18681EF0B9F915
S3150800322001E0FFF737FF03B05DF804FB947D020861
S3150800323054270020022900D0704708B5024B1868A9
S3150800324008B119F031FC08BD804B002070B588B074
S31508003250012009F003FD434C7823E373237C43F0F4
S3150800326020032374DBB26FF3C40323743E4E962304
S3150800327033700225257604F110010020FFF79CF82B
S3150800328004F10F010120FFF797F831462846FFF7AA
S3150800329093F804F118010320FFF78EF804F11901D9
S315080032A00A20FFF789F804F114010520FFF784F8CE
S315080032B00323237620F049FA2C492D4809F0D4FB3C
S315080032C02C492D4809F0D0FB2C492D4809F0CCFB98
S315080032D02C492D4809F0C8FB2C492D4809F0C4FB98
S315080032E001242C4B1C6002A81AF0F1FB02A9204607
S315080032F020F00FF910F1880F0FD0264B18681FF031
S31508003300A3FA1FF0F4FA2449244808F0FDFC184BE8
S3150800331018680EF083FA08B070BD1E4B1A68039B36
S31508003320079213F0FF0F03D123F0FF032343039300
S315080033301B4B05934FF44073019301A81AF0D7FB72
S31508003340019B04934FF41053ADF808308023ADF871
S315080033500A30012303930F4B1022124902A820F0CA
S31508003360F5F8CAE7EC220020D3510020853400087E
S315080033702823002091260008242300207528000809
S3150800338020230020CD2500081C230020092600083C
S3150800339018230020082300205C5400200C2300205A
S315080033A0000144054C54002070B50020FFF73AF898
S315080033B00120FFF737F80220FFF734F80320FFF75C
S315080033C031F80A20FFF72EF8194C7820E073237C91
S315080033D043F020032374DBB26FF3C4032374FFF7AF
S315080033E03BF8144E962030701AF0B9FA0025257667
S315080033F06576012204F118010320FEF7CBFF0122AE
S3150800340004F119010A20FEF7C5FF012204F1100193
S315080034102846FEF7BFFF012231460220FEF7BAFF13
S31508003420012204F10F011046FEF7B4FF70BD00BF7C
S31508003430EC220020D351002008B5022912D80E4BE1
S315080034401B7E13B1022B07D008BD0020FEF784FFB0
S315080034500A481AF03FFFF7E7C82202210020FFF7C3
S3150800346099F8F1E7064B1B6800221A70FFF79CFFD4
S315080034701AF071FAE8E700BFEC220020C48B0208B4
S315080034801C23002010B582B01AF052FA82B2564BAD
S315080034901A80564B1B7E022B2DD0032B7BD093B163
S315080034A053481AF0D2FA4FF4FA71524B18680EF0D4
S315080034B0C0F91AF03DFA4C4B18804F4B1B68002296
S315080034C01A7002B010BD9DF80430012262F304039D
S315080034D08DF804309DF804306FF346138DF80430E8
S315080034E0434B15221A70022159729DF8041059701F
S315080034F03E4B9A72D4E79DF8001063F301018DF8EC
S3150800350000103A4C617E9DF8003061F382038DF815
S315080035100030237CC3F3C10C9DF800106CF3C40182
S315080035208DF80010C3F340119DF8003061F3451380
S315080035308DF80030A37A282B15D02B2B1FD0292BDA
S31508003540AED12B4B29211970062159729DF800100E
S315080035505970120A9A70D870244AD27B1A71274A6F
S3150800356012785A719CE7224928240C7004244C725C
S315080035701E4CE47A4C70140A8C70C870DDE71C493E
S315080035802B240C7006244C729DF800404C70140ACB
S315080035908C70C870D3E71A4B1B78BBB1134B022249
S315080035A01A76124B5B7E012B14D0104B5B7E002BD8
S315080035B07FF476AF0D4B1B7C13F0180F0FD00B4B17
S315080035C0187CC0F3C100FFF733F869E7074B002200
S315080035D01A76E6E7054BD87BFEF73EFFE5E7034B91
S315080035E0D87BFEF739FF5BE7B8220020EC220020E3
S315080035F0E02200201823002028230020D351002091
S31508003600D0510020014B1878704700BFD2510020D6
S3150800361070B50C468B681B78152B06D0184B9A7A12
S31508003620A3681B789A4225D070BD154B1B7E002BCC
S31508003630F4D1134D287CC0F3C100FEF7F9FF02232D
S315080036402B7601266E762B7C6FF3C4032B743246D9
S3150800365005F118010320FEF79DFE324605F1190112
S315080036600A20FEF797FE324605F110010020FEF704
S3150800367091FED3E7034B1B6800221A70D4E700BFFC
S31508003680EC2200201823002010B59038062846D8CA
S31508003690DFE800F00426304545373E000124234B79
S315080036A01C70C82202210020FEF774FF204B1C70F4
S315080036B0204B1B7E6BB11F4B1B7E022B19D11D4B5A
S315080036C003221A764FF4FA711B4B18680EF0B1F8FC
S315080036D00FE01A4B1988184B18680EF0AAF8EAE793
S315080036E00020124B1870124B187064220521FEF741
S315080036F051FF10BD4FF47A7202210020FEF74AFFEF
S31508003700F7E74FF47A7202210020FEF743FFF0E74D
S315080037104FF47A7202210020FEF73CFFE9E74FF4E6
S315080037207A7202210020FEF735FFE2E7D051002029
S31508003730D2510020EC2200202823002060560020C9
S3150800374008B523F0A7FF074B1B782BB1064B1B6860
S31508003750C01A064B984200D808BD05481AF0BAFDAB
S31508003760FAE700BFD151002014230020A0860100EB
S31508003770C48B020810B582B0002304220121084632
S3150800378004F072FA012304220621002004F06CFAE0
S31508003790002301221946104604F066FA012001901A
S315080037A00024009403462246214604F0F3F906490C
S315080037B0204601F017FC1B2007F03AFC1B201DF0E1
S315080037C093FE02B010BD00BF23DB010808B51EF04A
S315080037D0DFFE00F017FA00F051FDFFF7CBFF1AF0F5
S315080037E09CF9074B18781AF0BAF800F067F91EF03A
S315080037F0C1FE1EF0F6FE1EF0BEFE22F03FFDF8E703
S31508003800D351002008B5024B1B6803B1984708BD81
S315080038105C23002008B5024B5B6803B1984708BDD6
S315080038205C23002008B5024B9B6803B1984708BD86
S315080038305C23002008B5024BDB6803B1984708BD36
S315080038405C23002008B5024B1B6903B1984708BDE5
S315080038505C23002008B5024B5B6903B1984708BD95
S315080038605C23002000B585B0094B1868094B186021
S31508003870094B0A4A13600A4A01920A4A12680292D6
S31508003880039301A91DF074F905B05DF804FB00BFA8
S3150800389080540020A0310020745400209C31002060
S315080038A08C8B02083026002008B5024B18681DF0DC
S315080038B073F908BD8054002038B507F0EFFB0446BD
S315080038C0064D2B68D3F8B00207F0DCFB28681DF01C
S315080038D07DF9204607F0D6FB38BD00BF805400208E
S315080038E00023062073B1704754B224B9013353B18B
S315080038F05DF8044B70470228F8D008680A49086042
S315080039001046F3E710B4094A52F823100A7A022A35
S31508003910EAD9032AEAD1441EE4B2012CE6D908689A
S31508003920014908601046E1E730260020845400204B
S3150800393010B5A2B02024224600211AA821F01BFFA8
S31508003940304B1A934FF4E1331C9302238DF87530EC
S3150800395003238DF876302C4B1E9306238DF87E3084
S3150800396009238DF880300021159116911791189129
S3150800397019914FF480131593244B199310911191B3
S31508003980129113911491224B1093224B14933C22BB
S3150800399001A821F0F0FE0DF1040E0DF1540CBCE85F
S315080039A00F00AEE80F00DCF80030CEF800300DF15D
S315080039B0180E0DF1400CBCE80F00AEE80F00DCF85D
S315080039C00030CEF80030144B0B930C9401238DF87D
S315080039D034308DF83530114B0F93114B1AAA01A9C3
S315080039E0104807F007FC04469DF837303BB1002124
S315080039F04FF4E1301AF0E6FA204622B010BD032152
S31508003A00F6E700BF688F0208588F02083C00015B82
S31508003A10010010004400015B342600209854002061
S31508003A20542600201027002008B531B9084B18681D
S31508003A30036823B107F0F4FF01E0012900D908BDA6
S31508003A40034B18680368002BF9D01EF084F8F6E7D4
S31508003A50AC54002008B50349034808F055F9FFF7A8
S31508003A6067FF08BDB05400203827002008B5024873
S31508003A701DF0D5FD08BD00BF1027002008B5024877
S31508003A801DF0CDFD08BD00BF1027002008B5024B6C
S31508003A905A6A1868904708BD1027002008B50248DA
S31508003AA01AF014FB08BD00BFAC8B020808B5024823
S31508003AB01AF00BFC08BD00BFC48B020870B590B0A5
S31508003AC001212A2003F0D6F800250D950E950F95AD
S31508003AD01B4E2A461B49304604F050F98DF839002A
S31508003AE00DF10C0C184C0FCCACE80F000FCCACE861
S31508003AF00F0094E803008CE803004FF496630693DE
S31508003B000195029503238DF806308DF8065001239A
S31508003B108DF800308DF801508DF802508DF803505D
S31508003B2010238DF8013003AA0DA9304604F066F972
S31508003B306A4601A930461CF059FA10B070BD00BF9C
S31508003B400040005940420F00DC8B020842B9C0B25F
S31508003B5001228A4000EB40000001074B1A507047CB
S31508003B60012A00D07047C0B201228A4000EB40000B
S31508003B700001024B1A50F5E740E0035040D00350CD
S31508003B8000B583B00B4605490978019100920022D9
S31508003B9001211EF09DFE03B05DF804FBD6560020F9
S31508003BA070B5044606790568FA2022F081FF854239
S31508003BB005D2134B03EBC60300221A7170BD2568A4
S31508003BC04FF47A7022F074FF854205D20C4B03EB52
S31508003BD0C60301221A71F1E7246840F6B83022F0CC
S31508003BE067FF844205D2064B03EBC60302221A710D
S31508003BF0E4E7034B03EBC60303221A71DEE700BFB3
S31508003C004C27002038B5114B18681AF03DF90546BF
S31508003C1098B9002408E00E4B53F824001AF05DFA10
S31508003C2001280CD00134E4B2002CF4D0094B002250
S31508003C301A70064B18681AF037F9284638BD23F06B
S31508003C4029FD054B43F83400ECE700BF4827002060
S31508003C50B8540020D75600204C27002000B97047DA
S31508003C6030B583B00446104D104928681DF091FC04
S31508003C701AF043F81AF042F80D4B00934FF48D737F
S31508003C800C4A0D4928681DF084FC23460B4A0C494A
S31508003C9028681DF07EFC204600F086F90949286848
S31508003CA01DF077FC00BEFDE7542700206C7902085A
S31508003CB0B48C0208048C0208748C0208808C0208F2
S31508003CC0888C0208A08C020800B589B000230BB1C5
S31508003CD0002312E00022244941F823202349CA542C
S31508003CE00133DBB2F3E7224A02EBC3010420087171
S31508003CF0002142F833100133DBB2002BF3D0002346
S31508003D0001930293039304930593069307939DF8EF
S31508003D10043043F001038DF80430DBB243F00803A6
S31508003D208DF80430DBB243F020038DF80430114BD4
S31508003D300293114B039302238DF810304FF48063DE
S31508003D4005930523ADF818300423ADF81A30082377
S31508003D5007930A4901A800F045F910B909B05DF8BA
S31508003D6004FBFFF77BFFF9E74427002040270020E4
S31508003D704C270020813D0008CDDC0108482700209B
S31508003D8010B584B001AA02A9124B18681AF0CEF829
S31508003D90E0B902A8FFF704FF00242CB10D4B186800
S31508003DA01AF082F804B010BD0B4B03EBC403197963
S31508003DB0042902D10134E4B2EFE72046FFF73CFBC1
S31508003DC0054B03EBC40304221A71F3E7FFF746FF1A
S31508003DD0E8E700BF482700204C2700201D4B1B782A
S31508003DE0002B36D170B582B000240CB102B070BD7C
S31508003DF0194B53F82430834202D00134E4B2F4E775
S31508003E001AF06BF901281ED023F044FC134B53F823
S31508003E103460861B00968DF80440282022F048FE60
S31508003E20864205D80D4B03EBC4031B79052BDDD160
S31508003E30082269460A4B18681AF046F80028D5D0B1
S31508003E40FFF70CFFD2E723F025FC044B43F83400B8
S31508003E50CCE77047D7560020B85400204C270020DE
S31508003E604827002010B58368C26853F822301C78AA
S31508003E7004B10024064B1B5D03B110BD23F00AFCF8
S31508003E80044B43F82400024B01221A55F5E700BFFC
S31508003E90402700204427002038B58368C26853F8B5
S31508003EA022301C7804B10024194B1B5D012B00D06D
S31508003EB038BD23F0EFFB174B53F82450451B144B22
S31508003EC000221A55FA2022F0F3FDA84204D900214F
S31508003ED02046FFF7B1FAEBE74FF47A7022F0E8FDD7
S31508003EE0A84204D901212046FFF7A6FAE0E740F6E2
S31508003EF0B83022F0DDFDA84204D902212046FFF79A
S31508003F009BFAD5E703212046FFF796FAD0E700BFCC
S31508003F10402700204427002003460B4A107828B182
S31508003F200A4A12789A4202D2002000E00120084A82
S31508003F3012783AB1074A127842FA03F313F0010FDE
S31508003F4000D10020704700BFDA560020D95600205D
S31508003F50D5510020D856002008B5084B01221A7002
S31508003F60074B00221A70074B04221A70064B1F22B1
S31508003F701A7007F093F8054B186008BDDA5600204A
S31508003F80D5510020D9560020D856002054270020A5
S31508003F9008B50349034B18681DF0FBFA08BD00BFB6
S31508003FA0CC8C02085427002070B506460A4C0B49EB
S31508003FB020681DF0EEFA07F071F80546206807F04C
S31508003FC061F83046FFF7E4FF284607F05BF8044936
S31508003FD020681DF0DEFA70BD54270020D08C020838
S31508003FE0D48C0208F8B500284FD00D46044600299F
S31508003FF04DD0037813F0030F36D04268002A48D014
S3150800400013F0080F02D0A28A002A44D013F0200F1A
S3150800401005D0E38A002B40D0A369002B3FD02C2083
S315080040201DF0F3FE064600283BD02C22002121F085
S31508004030A2FB21686268A368E0687160B260F360F9
S31508004040306121696269A3697161B261F36123789C
S3150800405013F0040F0ED000272E60636843B1314673
S31508004060114819F0D3FF03E04268002AC8D0212777
S315080040703846F8BD0121304619F0D2FE0746002819
S31508004080EAD030461DF0A0FFF2E72227F0E7222704
S31508004090EEE72127ECE72127EAE72127E8E72127AA
S315080040A0E6E71927E4E700BF5827002008B50348C4
S315080040B019F0A5FF19F039FD08BD00BF58270020E3
S315080040C010B50B4B1C6802E023F090F8246864B125
S315080040D023F091F894F82030002BF5D0A36A002B32
S315080040E0F2D023F083F8002000E0012010BD00BFC5
S315080040F05827002010B50B4B1C6802E023F076F811
S31508004100246864B123F077F894F82030002BF5D0B2
S31508004110A36A002BF2D023F069F8042000E00120FE
S3150800412010BD00BF5827002010B50C4B1C6802E0D4
S3150800413023F05CF824687CB123F05DF894F820300D
S31508004140002BF5D0A36A002BF2D0013BA36223F023
S315080041504DF8A3689847EDE710BD00BF5827002023
S3150800416008B5044823F01CF919F001FD00F086F89B
S3150800417008BD00BF508F020808B5024823F010F9A1
S3150800418008BD00BF508F02082DE9F04180460F4652
S3150800419001F109050026344604E05B21082000F0F9
S315080041A093FA0134AC4233D2052C1BD801A353F839
S315080041B024F000BF9B410008CD41000801420008D9
S315080041C0D5410008D9410008DD410008FBB2043397
S315080041D0D9B2E3E78021E1E70021DFE7731C314626
S315080041E0DEB2DBE7BB1DA3420CD0FB1DA3420BD0FE
S315080041F007F10803A34209D0A31F18F80310CDE757
S31508004200D121CBE75A21C9E75A21C7E75D21C5E77E
S315080042100020BDE8F08100BF00B583B000220092FF
S31508004220019202218DF80010054819F0B5FE01909B
S3150800423008216846FFF7A8FF03B05DF804FB00BF36
S31508004240006A180000B583B0044B1B88ADF804302B
S3150800425001A800F015FB03B05DF804FBD88C020832
S3150800426000B583B0044B1B88ADF8043001A800F0F4
S31508004270D7FA03B05DF804FBD88C02082DE9F04F95
S3150800428097B04D4D09AC2E1D0FCE0FC43368236071
S3150800429001AC05F118060FCE0FC496E80F0084E8A6
S315080042A00F00464823F07CF8454823F079F80126A4
S315080042B08DF8096000248DF80840424B0B9301AB3A
S315080042C00D93414F09A938461BF041FEB5F838B0A1
S315080042D0ADF838B0324604210EA800F065FAB5F8F4
S315080042E03CA0ADF83CA0224631460FA800F05CFA87
S315080042F0B5F84090ADF840903246042110A800F079
S3150800430053FAB5F80080ADF844803246042111A866
S3150800431000F04AFA2D4D2E4BC5F8F8344FF002132B
S31508004320C5F8F434A3F58033C5F8FC341C23C5F866
S31508004330E4344FF4487008F035FBFFF783FF142088
S3150800434008F030FBFFF78CFF232008F02BFBFFF764
S3150800435079FFB92138461BF0E2FDFFF781FFADF87A
S3150800436048B02246214612A800F01EFAADF84CA025
S315080043702246214613A800F017FAADF850903246A7
S31508004380214614A800F010FAADF8548032462146AA
S3150800439015A800F009FA384603F086F9C5F8E4448A
S315080043A0C5F8F844C5F8F444C5F8FC44044822F0B6
S315080043B0FCFF17B0BDE8F08FD88C0208508F0208B2
S315080043C0548F0208E070720000000A5000C00350C3
S315080043D00200030008B50448044A121A9210044958
S315080043E019F003FE08BD00BF80010008800300081D
S315080043F04052002008B5154B83F30A8800F030F8C0
S31508004400FFF7E8FF124A0AE01068516850F82300DF
S3150800441041F82300013391688B42F5D30C320D4BDA
S315080044209A4201D20023F6E70B4A08E011680020F9
S3150800443041F82300013351688B42F7D30832074B02
S315080044409A4201D20023F6E7FDF738FF0000002064
S31508004450A0D30208ACD30208ACD30208ACD3020836
S3150800446070B5134B134A9A60D3F8882042F4700249
S31508004470C3F88820104A4FF4804191660F4D05F520
S3150800448000544FF0FF3222660D4A62660222C3F8D4
S31508004490D020BFF34F8FBFF36F8F002006F0C8FD03
S315080044A04FF44036E66000201DF01EF82E6170BD00
S315080044B000ED00E000000008009000500080004475
S315080044C07FFF7F01014B1860704700BFCC54002066
S315080044D008B5064B1860064B1B6F03F00703032B42
S315080044E000D008BD21F0CEFBFBE700BFD454002066
S315080044F000800050BFF34F8F0549CA6802F4E06296
S31508004500044B1343CB60BFF34F8F00BFFDE700BFDB
S3150800451000ED00E00400FA05F0B18446F1B110B4EC
S3150800452009E004F120000FE02033C01A18D1BCB10D
S315080045300CF1010C01319CF800400B4B1B5D03F09C
S315080045400303012BEDD020460B78074AD25C02F014
S315080045500302012AE9D1E7E70120704701207047E5
S315080045605DF8044B704700BF65D2020830B587B0C6
S315080045700546046823798DF80C3063798DF80D307B
S315080045801A4822F00DFF0022012103A800F00CF9B9
S315080045900DF10B0103A819F061FE9DF80B3023708D
S315080045A0A379022B02D0002007B030BD4FF0FF33AD
S315080045B00593049300950E4B012205A903A800F064
S315080045C02FFA059BB3F1FF3F07D00095084B02224F
S315080045D004A903A800F084F9E5E70095044B042232
S315080045E004A903A800F07CF9DDE700BF508F020894
S315080045F0E9E0010810B582B0002401942A4822F0A7
S31508004600CFFE8DF8004003238DF8013001220421E6
S31508004610684600F0C9F8254B0122C3F8442401A9CD
S31508004620052022F0B6FE00283BD1214BD3F8F02016
S3150800463042F00102C3F8F020D3F8FC2042F0807261
S31508004640C3F8FC20A3F55D431A4A1A60019B03F5DB
S31508004650D52303F2FC43DB08174AA2FB03239B0A74
S31508004660013B164A13610223C2F8F0304FF48073F7
S31508004670C2F804334FF06043114AC3F8B02F114A09
S31508004680C3F8802ED3F8002E42F48072C3F8002EA9
S31508004690FF2283F82020D3F8002E22F48072C3F874
S315080046A0002E02B010BD00BF508F020800D0035084
S315080046B000ED00E0FF03004017916502000004E0EA
S315080046C055CEACC5090001004FF06043D3F8803ED3
S315080046D013F0010F01D1112070470E4AD2F8FC30B1
S315080046E043F08073C2F8FC304FF06043D3F8002ED5
S315080046F04FF0010C0CFA00FC42EA0C02C3F8002E3B
S3150800470053F82030002BE8D04FF0604303F8201010
S315080047100020704700ED00E010B504460FE00123C5
S31508004720834024EA03040F2814D800EB40020E4BFA
S3150800473003EB82035A6812B19968C0B2904794B1E4
S31508004740234600201F28EAD813F0010FE7D10130CD
S315080047505B08F7E7103800EB40039B00B033024ACA
S3150800476013440433E6E710BD5C27002008B50D485E
S3150800477022F016FE1A2006F04BFC28B91B2006F07C
S3150800478047FC40B9002008BD1A2006F051FC1A2043
S315080047901CF0AAFEF2E71B2006F04AFC1B201CF0C0
S315080047A0A3FEEFE7508F02082DE9F04170B30C46DF
S315080047B0174605460F292BD803784BB1022B20D074
S315080047C0032B21D0012B01D0002303E07F2301E036
S315080047D040F2FF736A78D34013F0010F1AD00F4BDB
S315080047E0D3F81063C6B922F019FD80463A46214629
S315080047F0284603F067FE404622F00BFD3046BDE82A
S31508004800F08140F2FF33E5E73F23E3E72226F5E7A9
S315080048102126F3E72126F1E70226EFE700C0035039
S3150800482040B310B5044603784BB1022B1DD0032BB9
S315080048301ED0012B01D0002303E07F2301E040F2C4
S31508004840FF736278D34013F0010F15D022F0E6FC0F
S31508004850237862780121914003EB43031B01074A41
S31508004860D15022F0D6FC002010BD40F2FF33E8E715
S315080048703F23E6E7222070472120F5E740D0035082
S3150800488040B310B5044603784BB1022B1DD0032B59
S315080048901ED0012B01D0002303E07F2301E040F264
S315080048A0FF736278D34013F0010F15D022F0B6FCDF
S315080048B0237862780121914003EB43031B01074AE1
S315080048C0D15022F0A6FC002010BD40F2FF33E8E7E5
S315080048D03F23E6E7222070472120F5E740E0035012
S315080048E0002866D02DE9F0410C4615461F460646B7
S315080048F0002960D002784AB1022A3ED0032A3FD066
S31508004900012A01D0002303E07F2301E040F2FF7370
S315080049107178CB4013F0010F01D1FF2A4DD1022D3A
S3150800492001D9042D4BD122F079FC80463378FF2B30
S3150800493028D12368B3F1FF3F2BD02268B2F1FF3F9D
S3150800494032D0204B02EB420203EB82025760226808
S3150800495002EB420203EB8203069A9A603378FF2B36
S3150800496005D0226801239340174AC2F824344046EA
S3150800497022F04FFC0020BDE8F08140F2FF33C7E784
S315080049803F23C5E72A462168304603F005FE206026
S31508004990CFE73378FF2BD0D10C4BD3F8241470789B
S315080049A01BF0A4FC2060C8E7404622F032FC2D200C
S315080049B0E1E7222070472220DDE72120DBE72120DE
S315080049C0D9E700BF5C27002000D0035000C0035081
S315080049D0B0F1FF3F1AD038B504460F2818DC002876
S315080049E018DB22F01BFC0123A3400B4AC2F8203433
S315080049F0C2F82434094B04EB440203EB8202002577
S31508004A005560956022F005FC284638BD2120704780
S31508004A102120FAE72120F8E700E003505C27002070
S31508004A20002856D02DE9F0410C4617461E46054685
S31508004A30002950D0017849B1022939D003293AD042
S31508004A40012901D0002303E07F2301E040F2FF7330
S31508004A506A78D34013F0010F01D1FF293DD122F026
S31508004A60DDFB80462B78FF2B27D12268B2F1FF3F6A
S31508004A702AD01B4B02EB420203EB8202C2F8B86053
S31508004A80226802EB420203EB8203069AC3F8BC20B3
S31508004A902B78FF2B06D02268103201239340114A47
S31508004AA0C2F82434404622F0B4FB0020BDE8F08169
S31508004AB040F2FF33CCE73F23CAE73A462168284647
S31508004AC003F00AFE2060D0E7404622F0A2FB2D2024
S31508004AD0ECE7222070472220E8E72120E6E700BF1E
S31508004AE05C27002000D0035008B5084BD3F82404EF
S31508004AF0D3F82024104000F0553020F0502003F55C
S31508004B000053C3F82004FFF707FE08BD00C0035092
S31508004B1008B5084BD3F82404D3F82024104000F035
S31508004B20AA3020F0A02003F50053C3F82004FFF7AD
S31508004B30F3FD08BD00C0035010B582B004460A480C
S31508004B4022F02EFC23788DF8043063788DF8053032
S31508004B50A278B2FA82F2520904210DEB0100FFF79E
S31508004B6023FE002002B010BD508F0208F0B585B0B4
S31508004B700C4694469DF83410664A1278002A00F0CE
S31508004B80BD800546BCF1070F00F2BA800A9A002AD2
S31508004B9000F0B8800B9A002A00F0B6800E9AB2F59B
S31508004BA0006F00F3B38001285BD05B4A02EB0C125E
S31508004BB0127B002A00F0AC80002200920192029239
S31508004BC00392564A02EB4C1E002C4FD14FEA4C1664
S31508004BD000209051CEF80400CEF80800CEF80C005C
S31508004BE09EF8020040F010008EF802009EF80300BE
S31508004BF040F030008EF8030021B9C1B241F003013C
S31508004C008EF8031000930E9B013B444A4FEA4C1062
S31508004C1002EB4C11165A63F30E1616520A9B8B605A
S31508004C200B9B4B60CB789DF83C2062F38303CB70DB
S31508004C30012D36D0109B002B56D0374A4FEA0C115F
S31508004C4002EB0C1310985050119A5A6000249C607D
S31508004C505D7372466946604603F0F6FA204605B06B
S31508004C60F0BD0C9A002AA0D12D48F8E72B4F4FEA41
S31508004C704C1607EB4C120020B85150609060D0607B
S31508004C80907840F010009070D07840F00300D07013
S31508004C900029B7D107EB4C12C1B241F03001D170EF
S31508004CA0B0E70E460A7B42F001020A73D2B242F01E
S31508004CB002020A73CA68042161F39F02F26006F1D0
S31508004CC0100796E80F0087E80F00F2696FF00301F6
S31508004CD061F39F02F2610C9B7361012CAAD10B9AB6
S31508004CE0B2610C9A7260A5E7002DA6D10B4B03EBB7
S31508004CF04C139A786FF304129A709EE70948AEE748
S31508004D000748ACE70648AAE70548A8E70448A6E71F
S31508004D100548A4E7D6510020C4290020C42800204D
S31508004D20018000F0028000F0078000F0134B1B782A
S31508004D30FBB110B50446F0B122F070FA0023072B38
S31508004D4013D80F4A02EB0312127B0AB10133F6E7B6
S31508004D5023600B4A190102EB031301241C73002478
S31508004D60545022F056FA204602E022F052FA05483C
S31508004D7010BD054870470548FAE700BFD651002020
S31508004D80C4290020048000F0028000F0018000F0B1
S31508004D9038B522F043FA04460023072B06DC0C4AF2
S31508004DA002EB0312127B12B90133F6E7002222B195
S31508004DB0204622F02EFA074838BD03F0F1F90025FF
S31508004DC0054B1D70204622F024FA2846F4E700BF5A
S31508004DD0C4290020058000F0D65100200F4B1B780F
S31508004DE0BBB110B50446072815D822F017FA0C4BA4
S31508004DF003EB04131B7B1BB922F00BFA09480BE0E3
S31508004E00074B03EB041300241C7322F002FA204616
S31508004E1002E005487047054810BD00BFD65100207E
S31508004E20C4290020068000F0028000F0018000F00E
S31508004E3000B583B0134B1B68019300238DF804302B
S31508004E4022F0ECF9104B1B7833B90F4B01221A707C
S31508004E5022F0DFF9002309E022F0DBF90B480EE027
S31508004E600B4A02EB0312002111730133072BF7DDFE
S31508004E7008238DF8073001A803F0B6F9002003B01F
S31508004E805DF804FB1C8D0208D6510020038000F053
S31508004E90C429002010B5104C2478BCB1072817DCAB
S31508004EA00E4C04EB0014247BA4B10C4C4FEA001EF4
S31508004EB004EB001C44F80E30029BCCF804300024A6
S31508004EC0CCF8084003F0C0F9204610BD0448FCE7BA
S31508004ED00448FAE70448F8E7D6510020C429002018
S31508004EE0028000F0018000F0078000F008B50A4B48
S31508004EF01B785BB107280BD8084B03EB00131B7B09
S31508004F0043B1002103F062F9002008BD0448FCE71C
S31508004F100448FAE70448F8E7D6510020C4290020D7
S31508004F20028000F0018000F0078000F008B50A4B07
S31508004F301B785BB107280BD8084B03EB00131B7BC8
S31508004F4043B1012103F042F9002008BD0448FCE7FB
S31508004F500448FAE70448F8E7D6510020C429002097
S31508004F60028000F0018000F0078000F0F8B5194BC8
S31508004F701F6D5B6D1F4002D40125002402E0FEE789
S31508004F8001346D00072C24D83D42F9D0124B1D651B
S31508004F902301124AD358002BF2D002EB0416B1684B
S31508004FA00131B16072682046984780F00100C0B2AE
S31508004FB0737B012BE4D10028E2D0094B03EB4413A1
S31508004FC01A7B6FF341021A731A7F6FF341021A773D
S31508004FD0D6E7F8BD0000045000200450C42900207C
S31508004FE0C428002000B585B0FF238DF80C308DF855
S31508004FF00D3002900F2809DC0091094B002202A906
S3150800500003A8FFF76DFC05B05DF804FB10380290A5
S315080050100091034B002202A903A8FFF701FDF2E75E
S31508005020C3E301082DE9F04F89B005460E4614463C
S315080050309846C36B5B69012207A960689847EB6BC2
S315080050405B69012206A93046984707A81AF09CFB17
S3150800505048B10027A77567754FF0FF33A360384638
S3150800506009B0BDE8F08F074606A81AF09DFB012394
S31508005070A375237E033304EBC3035E6000221A8103
S315080050806368B3422AD02368834201D00023A375FC
S3150800509006A81AF0AEFB237D984201D00023A3751B
S315080050A006A81AF085FB814607A81AF081FB8145F8
S315080050B001D00023A37506A81AF082FB814607A82B
S315080050C01AF07EFB814501D00023A375237D043B9E
S315080050D0DBB2022B0BD80023A375C0E7206006A815
S315080050E01AF087FB20754FF0FF33A360EEE706A89A
S315080050F01AF05EFB80B1EB6B5B69022204A93046AD
S31508005100984704A81AF067FB0346207D032868D849
S31508005110DFE800F0615B070D06A81AF05CFB0346A2
S31508005120F3E7237E033304EBC303CC221A811AF078
S3150800513070FB129B187094F8189006A81AF02BFBAF
S3150800514009F1030904EBC90989F80A00237E033328
S3150800515004EBC303B3F808A093F80AB006A81AF03C
S3150800516027FB814606A81AF02BFB0390B9F1000F1E
S315080051703DD0EB6B5B69022204A93046984704A828
S315080051801AF0E5FA6075637D03B9A375A37DA3B12B
S31508005190BAF1000F11D0039BF1186B6C5B4286EADB
S315080051A001021A4201D00023A3756B6C5A1E0A40ED
S315080051B09B1A9A4501D90023A375A37D002B40D0DD
S315080051C0BBF1000F18D1E77D3CE0227E033204EBE9
S315080051D0C2021381ABE7227E033204EBC2021381BB
S315080051E0A5E7227E033204EBC20213819FE706A8D5
S315080051F01AF096FA6075C6E70122E275627EBAB9B8
S31508005200BBF1010F08D095F83470DFB9EA6AB2F13C
S31508005210FF3F05D01F4615E001216176174611E0CC
S31508005220BBF1030F01D01F460CE00122A27609E06C
S31508005230BBF1010F37D0BBF1030F03D10122A276D0
S3150800524000E01F4653B117B1BBF1010F06D953460B
S31508005250039A3146284619F0DAFBA060A37D13B1FC
S31508005260236953442361237E114A127893421CD240
S3150800527001332376B8F1000F13D0A37D8BB1E37DFC
S315080052807BB177B9BBF1030F0BD0A168B1F1FF3F32
S3150800529007D0129B0093012322462846FFF7C2FE39
S315080052A0A075A77DDBE61746CCE70023A375E1E7E3
S315080052B0408D02082DE9F04F89B005460F46924603
S315080052C09B4600238DF80B304FF0FF31104600F057
S315080052D0EFFFB7F5801F1DD30023009317F1020FC8
S315080052E007D0009B002B40F09E802B7C002B00F003
S315080052F08C80EB6AB3F1FF3F2CD02A689B1A6A6C44
S31508005300B3FBF2F917F1020818BF4FF001080023A2
S3150800531001935DE00DF10A02394605F1080000F037
S3150800532017FF0146B0F1FF3F11D0504600F0C0FF0D
S315080053300DF10B0301225146284619F0E7FB0090B0
S315080053400028CBD09DF80B308BF80030C6E7002339
S315080053500093C3E7696A284619F07AFA8146D1E7C5
S315080053600123019337E09DF80B308BF80030324B60
S315080053701A683249504620F025FA00942F4B99684E
S31508005380B1F1FF3F1BD06B6C5B4281EA06021A4201
S3150800539015D12A4C204600F08BFF0DF10B0342462F
S315080053A02146284619F0B2FB04460028E6D017F134
S315080053B0020FD8D0214B1B68BB42DFD1D3E7494641
S315080053C0284619F045FA8146019BCBB9009BBBB923
S315080053D06B6A4B45C4D02C686B6C03FB0944EB6BBA
S315080053E05B69052203A92046984703A81AF0A8FA7C
S315080053F01AF0CDFA20461AF0D6FA06460146BFE755
S31508005400009BA3B1B7F5801F03D3009B8BB1002087
S315080054100AE09BF80030DAF80420394605F108005E
S3150800542000F0B4FEF1E7002009B0BDE8F08F2D20AA
S31508005430FAE72D20F8E700BF3C8D0208B8300020B7
S3150800544070B582B004464FF0FF33C3620DF107030F
S315080054501A4A6FF00101FFF72DFF20BB174B9B6817
S31508005460E362E56A2946204618F0E3FF2063E8B1BF
S315080054702946204619F0BBFA0546A36AAB421BD05B
S315080054802946204618F0D5FF0646236B03442363B6
S315080054902946204619F0ABFA0546002EEDD1002321
S315080054A02363E062E9E7A36AE362DAE7E16A204692
S315080054B019F09DFAE062DBE702B070BDE430002027
S315080054C030B583B01C46032A14BF002201221B7E76
S315080054D09A4202D0012003B030BD0D460968236800
S315080054E09942F7D363689942F4D80DF10703114A34
S315080054F0FFF7E0FE0028EDD10E4B5A686B689A421A
S31508005500E8D19DF80730032B14BF00230123227E20
