S01500004956505F4C525F436F6E6E6563742E733337CA
S3150800000000200020E1480008ADE40108ADE401083D
S31508000010F5290208ADE40108ADE40108ADE40108DC
S31508000020ADE40108ADE40108ADE40108ADE401085A
S31508000030ADE40108ADE40108ADE40108ADE401084A
S31508000040ADE40108ADE40108ADE40108ADE401083A
S315080000501D6A0008ADE40108ADE40108ADE4010835
S31508000060ADE40108ADE40108ADE401083D3F000830
S315080000702D3F0008ADE40108ADE40108ADE4010830
S31508000080ADE40108ADE40108ADE40108ADE40108FA
S31508000090ADE40108ADE4010859540008ADE40108CF
S315080000A0ADE40108ADE40108FD4F0008D54F00088E
S315080000B0ADE40108ADE4010821B60108CDC0010888
S315080000C0095B0208055B020881B801081F5B020884
S315080000D00D5B02089DC00108115B020831C10108C9
S315080000E069C10108ADE40108ADE40108F1D10008D1
S315080000F0ADE401088B190208ADE40108ADE4010876
S31508000100ADE40108ADE40108ADE40108ADE4010879
S31508000110ADE40108ADE40108ADE40108ADE4010869
S31508000120ADE40108ADE40108ADE40108ADE4010859
S31508000130ADE40108ADE40108ADE40108ADE4010849
S31508000140ADE40108ADE40108ADE40108ADE4010839
S31508000150ADE40108ADE40108757C02080D9B0108B1
S31508000160ADE40108ADE40108A35A0208A95A020839
S31508000180194A5AB3194BDB6913F0040F29D110B475
S315080001900AE003EA00048C4210D0013AB2B1134BCC
S315080001A0DB6913F0040F14D110F0010FF1D1104CD4
S315080001B01C40002CEDD06FF001000CE00C4A1A40F0
S315080001C00AB9002007E06FF0010004E06FF00200B2
S315080001D001E04FF0FF305DF8044B70476FF0020006
S315080001E070474FF0FF307047809698000000035024
S315080001F0020001000D4BDB6913F4803F12D170B584
S315080002000A4B03F580560124F46003F500552C6467
S315080002104FF480721A6100212046FFF7B1FF34645B
S31508000220EC6070BD6FF00100704700BF000003501E
S3150800023010B5124B4FF480329A6603F51C33DC690D
S31508000240144041F67132DA6303F580520121D16018
S31508000250586102221A6100212120FFF791FF40B15F
S31508000260074B0122DA601CB1A3F500530022DA63BA
S3150800027010BD00212120FFF783FFF1E70090005011
S315080002800020035038B51A4B5861DB6913F0040F88
S315080002902AD10C4654F8041B154B9961151F06E024
S315080002A0214651F8042B124B9A61043D0C465DB168
S315080002B008210846FFF764FF03460028F0D00C4AD9
S315080002C004211161184638BD094B04221A61002120
S315080002D02120FFF755FF03460028F3D100212120EE
S315080002E0FFF74EFF0346EDE74FF0FF33EAE700BF9F
S315080002F0000003502DE9F0410F46164605461A4BF5
S315080003004FF480329A6603F51C33DA6902F48038B2
S3150800031041F67132DA6303F580530122DA6000236D
S3150800032002E025442744361B8EB105F5005424F413
S31508000330FF5424F01F04641BB44228BF34462246E7
S3150800034039462846FFF79EFF03460028E9D0074AA4
S315080003500121D160B8F1000F03D0A2F500520021A7
S31508000360D1631846BDE8F081009000500020035084
S31508000370000000000000000000000000000000006F
S31508000380013800D0FCE770472DE9F04F2DED028BC0
S3150800039093B082460C4693461D4657EC106B8DED7E
S315080003A0080B32463B46304639461CF0B1FB00285E
S315080003B000F009814FF0FF32B14B304639461CF048
S315080003C0CFFB002840F0FF804FF0FF326FF4801318
S315080003D0304639461CF0A6FB002840F0F48000227F
S315080003E00023DDE90867304639461CF09BFB0028E8
S315080003F040F0FC809DED087B8DED067B209B13F479
S315080004008063119301D106231E93DDE90601024696
S31508000410C1F30A50C1F31303904643F07F5949F4D8
S315080004204019A0F2FF301CF0A1F883A3D3E90023FA
S315080004301CF006F982A3D3E900231BF04BFF0646FE
S315080004400F4600228F4B404649461BF041FF7EA3CC
S31508000450D3E900231CF0F4F802460B463046394629
S315080004601BF038FF1CF086FB06461CF07FF880461A
S31508000470894677A3D3E900231CF0E2F80022824BD1
S315080004801BF028FF1CF076FB074673A3D3E900236D
S31508000490404649461CF0D4F88046894638461CF042
S315080004A065F86FA3D3E900231CF0CAF802460B4689
S315080004B0404649461BF00CFF8046894602460B46D5
S315080004C01CF0BEF8CDE90C0107F2FF370021002227
S315080004D0CDE90A123B050B9300230A9342464B4685
S315080004E0404649461BF0F6FECDE90E0142464B460C
S315080004F000204FF080411BF0EBFE80468946002223
S31508000500624BDDE90C011CF0C5F90022604B1BF0BB
S31508000510E1FE02460B46DDE90C011CF0BBF90022A0
S315080005205C4B1BF0D7FE02460B46DDE90C011CF0BE
S31508000530B1F902460B46404649461BF0CBFE024639
S315080005400B46DDE90E011CF0A5F90022524B1BF003
S31508000550C1FEDDE90A231CF073F88046894649EC9A
S31508000560188BDDE906231CF0FBFA40B1013E002298
S31508000570474B404649461CF08DF941EC180B06F1ED
S315080005806303C62B3BD80427209B13F4006F40D087
S3150800059035A3D3E90023DDE90689404649461CF020
S315080005A0D5FA00283BD032A3D3E900234046494672
S315080005B01CF0B8FA002832D01E9BB34221DD9E1BE0
S315080005C0731E1E931FE0209B02931F9B01931E9B85
S315080005D000939DED080B2B465A462146504600F0DF
S315080005E0CBF813B0BDEC028BBDE8F08F9FED227BF4
S315080005F08DED067B069607F100430793FEE6052771
S31508000600C2E700231E93209B43F4806320930027B0
S315080006103E461F9B9F4241D2A3EB070840E01E9B24
S31508000620002BF6D0119B002BF3D01E9B013B1E938B
S31508000630EFE700BFAFF30080FB799F501344D33F29
S31508000640B3C8608B288AC63F61436F63A787D23FCA
S3150800065071A379094F930A401655B5BBB16B024091
S31508000660EF39FAFE422EE63F2D431CEBE2361A3FDF
S315080006700000000080842E410000000000000000F9
S31508000680FFFFEF7F0000F83F0000E03F00002C402E
S3150800069000002440000018400000F03F4FF000081A
S315080006A0209B13F0020902D00FB14FF000083EB1AB
S315080006B053EC182BDDE906011CF0ECF8CDE9060130
S315080006C000220023DDE908011CF02CFA00283BD1A2
S315080006D0209B23F400630293CDF804801E9B0093AD
S315080006E09DED060B2B465A462146504600F044F827
S315080006F0002F3FF476AF209B13F0200F2CD04FF03D
S31508000700450C00F101082B46024621466046D047B3
S3150800071086EAE672A2EBE67205230593013F049783
S31508000720002303930A230293F30F019300922B46A7
S3150800073042462146504623F0DBFDB9F1000F3FF44F
S3150800074050AF02461F9F10E0DDE90601024601F19F
S315080007500043CDE90623BBE74FF0650CD1E7561CED
S315080007602B4621462020D0473246A2EB0B03BB423C
S31508000770F5D3104635E700BF2DE9F04F2DED028B76
S3150800078093B00590089192469B4659EC108B1E9D96
S3150800079042464B46404649461CF0BAF9002840D026
S315080007A04FF0FF326FF48013404649461CF0BAF901
S315080007B0002845D14FF0FF32B14B404649461CF060
S315080007C0CFF900284BD1AAA3D3E9002340464946CE
S315080007D01CF0C6F900285AD1A7A3D3E9002340463E
S315080007E049461CF09FF9002851D1002200234046B3
S315080007F049461CF097F9002857D100230993209BF6
S3150800080013F4806F5CD000241F2C5BD8092D59D9AE
S3150800081004F148036B44302203F8202C013D0134CF
S31508000820F2E7209B03931F9B029303230193954BA7
S3150800083000935B4652460899059823F07FFC10E121
S31508000840209B03931F9B0293042301938E4B0093D3
S315080008505B4652460899059823F070FC01E1209BF7
S3150800086013F004030FD0894A7BB10423209903911E
S315080008701F990291019300925B4652460899059882
S3150800088023F05CFCEDE0824AEEE70323EEE7209BCB
S3150800089002931F9B0193009549EC108B5B465246C9
S315080008A008990598FFF770FDDBE042464B460020A5
S315080008B000211BF00DFD80468946012309939EE71A
S315080008C00625A0E7404649461CF054F906461BF0A3
S315080008D04DFE02460B46404649461BF0F9FC6D4B59
S315080008E003EBC50393ED008B53EC182B1BF0A8FE06
S315080008F002460B46CDE906231CF064F907461BF0B1
S3150800090025FE02460B46DDE906011BF0E1FC024620
S315080009100B46CDE9062300225F4B1CF021F950B3A4
S31508000920013738461BF012FE02460B4651EC180BEF
S315080009301CF002F908B10136002755BB30461BF0FA
S3150800094015FE02460B46404649461BF0C1FC80464A
S3150800095089460022504B1CF0E5F838B100224E4B70
S31508000960404649461CF0FCF8002842D016F0010F14
S315080009703FD001363DE00022474BDDE906011CF079
S31508000980D1F80028D9D117B117F0010FD5D0013702
S31508000990D3E71F2C17D8013D404BA3FB0723DB08E1
S315080009A0194603EB8303A7EB4303621C303304F1B8
S315080009B048000DEB000404F8203C092F02D90F4625
S315080009C01446E6E714461F2C0AD86B1E45B104F1F7
S315080009D048026A44302102F8201C1D460134F2E719
S315080009E01F2C06D804F148036B442E2203F8202C4A
S315080009F001341F2C17D82A4A82FB0632F317C3EB99
S31508000A00A2031A4603EB8303A6EB4303611C3033A8
S31508000A1004F148000DEB000404F8203C16460AB120
S31508000A200C46E6E70C46209B03F00303012B39D05E
S31508000A301F2C09D8099B002B51D004F148036B449D
S31508000A402D2203F8202C0134209B03931F9B02932D
S31508000A5001940AAB00935B4652460899059823F021
S31508000A606DFB13B0BDEC028BBDE8F08FAFF30080D1
S31508000A700000000065CDCD410000000065CDCDC168
S31508000A80FFFFEF7F189902081C9902080C990208C3
S31508000A9014990208289902080000E03FCDCCCCCC76
S31508000AA0676666661F9BB3B1099B1BB9209B13F04B
S31508000AB00C0F12D01F9B013B1F93194606E004F149
S31508000AC048036B44302203F8202C01348C42AFD201
S31508000AD01F2CF4D9ACE71F99F8E71F99F6E7209B76
S31508000AE013F0040F07D004F148036B442B2203F8D4
S31508000AF0202C0134A8E7209B13F0080FA4D004F19A
S31508000B0048036B44202203F8202C01349CE700BFDD
S31508000B1038B50D46044626F0E1FD064A13889BB211
S31508000B202DB123431380BDE8384026F0D2BD23EA11
S31508000B300403F7E7744B00200022034B01214FF40E
S31508000B4080709A70E4E700BF744B00207FB54E684A
S31508000B5002A9044624F066FA9DF808300C2B19D130
S31508000B60134BB3F90050134B9E4218D808F00AFAF3
S31508000B7003460068694600909B882046ADF8043015
S31508000B8024F03DFA70B140F25F620B490B480EF053
S31508000B909FFAFEE7204614F09DF80546E3E71FF0A6
S31508000BA060FEE5E72946204624F00FFA04B070BD3A
S31508000BB04A510020FFC99A3BD19B02089C9902081A
S31508000BC0002330B5134C85B0CDE901330393237860
S31508000BD08DF8043026F082FDA288E38805469A42FD
S31508000BE00DD0E188A06801AAA18024F0A4F858B124
S31508000BF040F2DA62084909480EF06AFAFEE7A06888
S31508000C0024F072F80128ECD0284626F062FD05B0DB
S31508000C1030BD00BF8C550020D19B02089C99020864
S31508000C2038B50F4C656835B940F2C7720D490E489C
S31508000C300EF04EFAFEE723F030FC284411F098F93E
S31508000C4000F00700032809D164680921204623F02B
S31508000C5040FD205C031F5842584138BD0020FCE780
S31508000C60744B0020D19B02089C99020808B5114BC9
S31508000C709A78042A06D040F28E520F490F480EF091
S31508000C8027FAFEE71B881B0706D440F28F520A494B
S31508000C900A480EF01DFAFEE700210820FFF738FF84
S31508000CA00222074B98681A7313F0CEFDBDE8084078
S31508000CB021F0FBBF744B0020D19B02089C990208C7
S31508000CC08C55002010B5084CA06813F0BDFDA0682F
S31508000CD024F00AF8012806D00122A0681146BDE8CA
S31508000CE0104024F003B810BD8C55002038B5194DB6
S31508000CF0AB7833B140F22B72174918480EF0E8F971
S31508000D00FEE726F0EBFC2988044611F0060109D017
S31508000D1001214FF48070FFF7FBFE2046BDE83840FE
S31508000D2026F0D7BC4FF48070FFF7F2FE12F0DEFE15
S31508000D30012805D010F0FD0F05D1FFF741FFECE7BC
S31508000D40FFF7C0FFE9E740F24172034903480EF096
S31508000D50BFF9FEE7744B0020D19B02089C99020854
S31508000D6070B50446064D95F90860FFF7BFFF12F007
S31508000D70BBFD314620466A68BDE8704012F0ECBB00
S31508000D80744B002008B50A4B1B88DB0606D440F2D4
S31508000D90A752084908480EF09BF9FEE700211020E3
S31508000DA0FFF7B6FE12F01EFFBDE8084021F07DBF32
S31508000DB0744B0020D19B02089C9902080D4B10B574
S31508000DC01B8804469B0713D500210220FFF7A0FEC7
S31508000DD0094B5A7BFF2A06D040F2E54207490848E4
S31508000DE00EF076F9FEE75C73BDE8104021F05DBFB2
S31508000DF010BD00BF744B00208C550020D19B020803
S31508000E009C9902087047704707B5ADF80610014669
S31508000E1030B94FF4B572104910480EF059F9FEE78B
S31508000E20BDF8063033B940F26B120B490B480EF089
S31508000E304FF9FEE70A4B0DF10602986824F0A9F966
S31508000E4030B140F26D12044904480EF041F9FEE74C
S31508000E5003B05DF804FB00BFD19B02089C99020809
S31508000E608C55002010B50E4CA37833B14FF4EA72B6
S31508000E700C490D480EF02CF9FEE7606019B1A17B0C
S31508000E80003918BF01212020FFF742FE074B08480A
S31508000E909B7B23760223A370BDE8104010F034BF75
S31508000EA0744B0020D19B02089C9902088C5500209F
S31508000EB0904B002008B50CF039FC80F00100C0B258
S31508000EC008BD0A4B9A780AB1062A0CD11B8803F486
S31508000ED08B7343B9064B5A7BFF2A04D1187BFF381C
S31508000EE018BF012070470120704700BF744B0020CF
S31508000EF08C55002008B50CF009FC0028FBD108BD6C
S31508000F000C4B42889A8142789A730278DA738288FF
S31508000F101A82C2885A82C2685A61017A064A91734D
S31508000F20028A998C914204D001214FF400709A8468
S31508000F30EEE57047744B00208C550020094B9A89C2
S31508000F4042809A7B4270DA7B02701A8A82805A8AB9
S31508000F50C2805A699B8CC260034A0382927B0272E2
S31508000F60704700BF744B00208C5500204B1E012B88
S31508000F7070B50C4606D940F2B7221A491A480EF03F
S31508000F80A7F8FEE7194D0A460146A86824F02BF98A
S31508000F9030B140F2B922134913480EF099F8FEE72A
S31508000FA0AE6810F025FE22460146304624F015F9B3
S31508000FB030B140F2BD220B490B480EF089F8FEE726
S31508000FC0AD6810F021FE22460146284624F011F9A4
S31508000FD030B140F2C122034903480EF079F8FEE722
S31508000FE070BD00BFD19B02089C9902088C55002051
S31508000FF0054BDB7B1B0913F00E0003D0052B8CBFBA
S3150800100000200120704700BF8C550020044BDB7B75
S315080010101B0913F00E0F0CBF01200020704700BFFC
S315080010208C5500202DE9F04F15469A0580461F4637
S315080010308FB003D501218020FFF76AFDEB014FF041
S31508001040000955D5984C23889E0751D5974E737B32
S31508001050FF2B06D040F2AF42954996480EF038F875
S31508001060FEE7636833B94FF49662914991480EF0EA
S315080010702FF8FEE749460220FFF74AFDA37886F8CF
S315080010800D90042B03D101210820FFF741FD002311
S31508001090B06808A98DF82C3023F0C6FF30B140F2AD
S315080010A0BA42834983480EF013F8FEE7FFF7A0FF1C
S315080010B0B0B923F0F2F98146606823F0F9F908A976
S315080010C08144B068ADF8249023F0B1FF30B140F206
S315080010D0C242774977480DF0FBFFFEE7089BA362FB
S315080010E0A378032B02D1B06813F0AEFB21F0DDFD27
S315080010F0B80702D50120FFF761FE15F0A84F02D008
S315080011000220FFF75BFEA90220D50021402003AC90
S31508001110FFF7FEFC2146404624F083F8B0B99DF857
S31508001120143008AA022B22D18DF82830BDF80C30CD
S31508001130ADF82030104612F0E1FB38B1404624F0F5
S315080011406EF818B901214020FFF7E2FC2A0753D5AB
S31508001150564E0321B06803AA24F01DF8814688B9C3
S3150800116040F2FE42524953480DF0B2FFFEE7032B08
S3150800117005BF8DF82830D4E900018DF82800C2E9AA
S315080011800001D7E79DF80C30B068072B40F01F81A7
S31508001190494608AA24F001F830B140F20152444900
S315080011A044480DF095FFFEE7FFF722FFBDF80E2035
S315080011B0A0B9FFF72BFF78B1043292B2B06808A93C
S315080011C0ADF8242023F0EBFF40B140F21252384923
S315080011D038480DF07DFFFEE70232EEE7BDF80E0057
S315080011E00121073080B226F0A5F98246002842D1AF
S315080011F001210C2013F0BCFAA90705D52A4B1B8838
S315080012001A0701D5FFF732FDAB010BD500210420E3
S31508001210FFF77EFC244B9B78012B03D1234B986860
S3150800122013F012FB15F0284F03D000210420FFF716
S315080012306FFC7E060CD51C4C23881D0701D5FFF7CD
S3150800124015FD2388580703D500210420FFF760FC05
S31508001250F90540F1D88003A9404608AA23F042FDC3
S315080012600146002800F0BA8040F2D25210491148CF
S315080012700DF02EFFFEE74FF0000B26F0DFF8CDF855
S3150800128000B00246BDF80E3004464946B06823F061
S315080012908AFFBDF80E3083420ED040F2225204492E
S315080012A004480DF015FFFEE7744B00208C5500200E
S315080012B0D19B02089C99020823F0EFF8204410F00D
S315080012C057FE00F007000228DFF8589124D199F854
S315080012D00230042B90D123F0E0F8504B204482785A
S315080012E01B789A4288D159460820FFF711FC23F04B
S315080012F0D4F8204410F03CFE9DF82E30C0F30010C0
S31508001300307389F80830FFF78BFC00287FF474AF38
S31508001310B06813F099FA6FE723F0BFF8204410F08D
S3150800132027FE83064AD523F0B8F8204410F020FE9D
S3150800133000F0070003280BD10921204623F0C9F93C
S3150800134014F800B0ABF1040CDCF1000B4BEB0C0B02
S3150800135001210420FFF7DCFBB06823F037FFC9F84A
S315080013602C00BBF1000F30D0B9F8003058062CD548
S3150800137000214020FFF7CCFB0126BDF80E309DF872
S315080013802E200120E254BDF80E309DF82F2023446C
S315080013909A71BDF80E10089A0131214410F0F6FD35
S315080013A0BDF80E3050461C44667126F01BF91C4BDE
S315080013B0187810F0AFFD21F078FC1DE799F8023097
S315080013C0012B02D1B06813F03FFA0026D5E723F0C7
S315080013D0C6FE4946B06823F0E4FE0DE79DF80C30DA
S315080013E003F0BF02032A01D0022B0FD10D4C23882C
S315080013F05A0702D50420FFF78BFB23889B0702D5E3
S315080014000120FFF7DBFC0FB0BDE8F08F4FF4BF6299
S31508001410054906480DF05CFEFEE700BFE14B0020DB
S31508001420044B0020744B0020D19B02089C990208AB
S3150800143008B50246FFF7DCFD30B1072A06D80020BA
S31508001440034B83F8302008BD7020FCE70220FAE73A
S31508001450744B002008B50246FFF7CAFD28B10020E4
S31508001460034B93F83030137008BD7020FCE700BFBB
S31508001470744B002008B5074B01460022986823F0F4
S31508001480B2FE30B140F2EB22034904480DF020FECB
S31508001490FEE708BD8C550020D19B02089C990208DE
S315080014A008B5074B01460022986823F096FE30B12E
S315080014B040F2F122034904480DF00AFEFEE708BD92
S315080014C08C550020D19B02089C99020808B5074B49
S315080014D00146986823F093FE30B140F2F72204499A
S315080014E004480DF0F5FDFEE708BD00BF8C55002049
S315080014F0D19B02089C99020808B5074B9B7833B123
S3150800150040F20132054906480DF0E2FDFEE7BDE866
S315080015100840FFF7EBBB00BF744B0020D19B0208C5
S315080015209C99020808B5054B0146986823F04DFDBD
S31508001530002814BF8B20002008BD00BF8C55002052
S31508001540014B986813F0C6BB8C550020014BD88810
S31508001550704700BF8C5500207FB50123ADF80E30CB
S315080015604FF6FE7309480093806800230DF10E02BA
S3150800157004A923F0B7FC212800D020B9BDF8100033
S3150800158007B05DF804FB4FF6FF70F9E78C550020AD
S3150800159008B5044B0146986823F058FCB0FA80F069
S315080015A0400908BD8C55002038B50B4D0446AB786C
S315080015B0012B0DD8FFF7ECFF60B1084BDC80AB7848
S315080015C01BB9FFF793FB002038BDFFF7F9FAFAE7D6
S315080015D03E20F9E78A20F7E7744B00208C55002057
S315080015E0024B9B780BB9FFF781BB7047744B002001
S315080015F0014BD873704700BF744B002008B5064BE3
S315080016004FF0FF31986823F09AFB0028B8BF0330E3
S3150800161040F3870008BD00BF8C55002008B5044B71
S31508001620986823F00FFC034BB3FBF0F080B208BDBB
S315080016308C55002040420F0030B58DB02C22044650
S31508001640002101A824F0F8FA01234FF002328DF8A0
S3150800165008306423CDE9032306930B238DF82C3039
S31508001660214B9B8CADF80A30FFF7C2FCA8B140F2BB
S31508001670F23307934FF47A7305930CB9FFF722FBFD
S315080016801A4D01A9A86813F0F9FBC0B140F2AC6283
S31508001690174918480DF01CFDFEE7FFF7BFFF0C239E
S315080016A04343902B0793A3F10A02D8BF91230592CF
S315080016B0D8BF0793059B8B2BDFD88C23DCE7FFF776
S315080016C0A5FC60B10122A868114623F0A6FD30B139
S315080016D040F2AF62064907480DF0FAFCFEE70CB97E
S315080016E0FFF704FB0DB030BD744B00208C5500206D
S315080016F0D19B02089C990208F8B525F0EFFF554CD6
S3150800170006462388D90503D5A37843BBFFF7EEFA27
S31508001710514D6B7BFF2B13D06B7B03F0FF0723BB6D
S31508001720FF236B73A378032B0AD100233046A370DB
S3150800173025F0CFFF3846FFF713FB25F0CFFF064607
S31508001740A378042B08D12B7BFF2B05D02B7B022BF0
S3150800175014D1424810F0D8FAFF232B7327E0002152
S315080017604FF48070FFF7D4F9D2E76B7B012B4FF06B
S31508001770FF0314BF89278D276B73D6E72B7B13B11D
S315080017802B7B012B1ED1FFF74BFA0022FF212B7B67
S315080017900746DBB222772973002847D0012B0AD1E6
S315080017A064212E48A37010F0BAFAFFF709FA3046FA
S315080017B025F08FFF06E03046A27025F08AFF31201B
S315080017C0FFF7CEFA23881A0608D500218020FFF7EE
S315080017D09FF9A86823F064FC12F0E5F923889B05B5
S315080017E007D54FF400700021FFF792F90020FFF7A4
S315080017F023FF0BF08BFF608620B325F01FFE012127
S315080018000546002012F0B4FFA678012E14D1002652
S315080018102677A670FFF76AFA284611F0BFFDA37867
S3150800182066867BB9BDE8F84012F05EB8A07030460F
S3150800183025F04FFF3846C3E72EB1284611F0AEFD16
S3150800184000236386F8BDFFF751FA284611F0A6FD76
S315080018506686F7E7744B00208C550020904B0020D5
S315080018608B4BF0B51B888B4C8B4D63848B4B85B0AB
S315080018701B68E3628A4B1B8823848A4B1B68A36216
S315080018802B88DB0700F1FC8001210846FFF740F9A9
S315080018900523854A04F1100104F10800AB7012F023
S315080018A095FF28B1F522814981480DF011FCFEE724
S315080018B0A3682BB9F7227D497D480DF009FCFEE7A0
S315080018C07C4823F057FA70A3D3E90023CDE9002317
S315080018D04FF0FF324FF0FF33A06823F0FAFA4FF4C7
S315080018E08811A06813F06EFA014630B140F20F1263
S315080018F06E496F480DF0ECFBFEE76F4B1B78012B2A
S315080019000ED16E4AA06813F02FF8A06813F0E4FA17
S31508001910E0B140F21B12654965480DF0D9FBFEE7B8
S31508001920674E316831B94FF48F72604960480DF0DF
S31508001930CFFBFEE7614AA06813F016F833689B6888
S3150800194023B1DB6913B15B7803B1E373FFF704FED8
S315080019500146E080A06813F083F9064630B140F2EC
S315080019602D12524952480DF0B3FBFEE7554B0120A4
S315080019701B78C3EB431203EB8203DB00AB84FFF750
S315080019805BFEA76810F040F932460146384623F058
S3150800199030FC064630B140F23312444944480DF053
S315080019A097FBFEE740F203530427AB81464BAF7320
S315080019B01B78EB73FFF732FE00EB80039B002B824C
S315080019C0FFF72CFEC00068823946A0686E6123F0D6
S315080019D028FA30B14FF4A172344935480DF078FB36
S315080019E0FEE73A46A06803A923F0AEFA042806D013
S315080019F04FF4A3722D492E480DF06AFBFEE703A9A2
S31508001A00012010F0D1FA0BF007FC08224FF0FF3145
S31508001A10A06823F06FFA30B140F24F1223492448E8
S31508001A200DF056FBFEE713F0D7FB30B140F2551226
S31508001A301E491F480DF04CFBFEE7FFF7D9FA68B1BF
S31508001A401EF011FF0146A06823F0D9FA30B140F222
S31508001A505912164916480DF03BFBFEE7A468FFF736
S31508001A607BFD1A4B014603F10C02204623F065F96B
S31508001A7030B14FF4B0720D490D480DF029FBFEE761
S31508001A8005B0F0BDAFF300800A0020FF4203000056
S31508001A90C89E02088C550020744B0020CC9E020874
S31508001AA0CA9E0208D09E0208390B0008D19B02087C
S31508001AB09C990208690345ECC54B00204D0B0008AC
S31508001AC0A45400203257002031570020FC9B0208FE
S31508001AD008B5044B986823F0B7F9034BB3FBF0F04D
S31508001AE080B208BD8C55002040420F002DE9F04316
S31508001AF08C4D87B02B889B0706D440F24C728A49D6
S31508001B008A480DF0E5FAFEE7AB78033B012B06D9C8
S31508001B1040F24E72844985480DF0DAFAFEE76A68A3
S31508001B2032B940F25172804980480DF0D1FAFEE789
S31508001B307F4E2C88F77B14F0200418BF4FF47A7474
S31508001B404FEA1718FFF754FA00287DD0B8F1020FAC
S31508001B500AD0A8F10303022B74D940F265727249C0
S31508001B6072480DF0B5FAFEE7032795F8303008EB12
S31508001B70C80898446F4B104603EB4803B3F81C801B
S31508001B8022F096FC4FF4FA534343B3FBF8F378225A
S31508001B907733B3FBF2F31F44C7EB0717AB78FF00A5
S31508001BA0BFB204F5347417FA84F4042BA4B203D133
S31508001BB007F6E8072744BCB2D5F8048022F06DFC86
S31508001BC00746686822F074FC074422F08CFCBFB212
S31508001BD03F1A22F062FC404410F0CAF97378C0F349
S31508001BE040198DF80C30544BBFB2CDE904340024AB
S31508001BF022F085FC009402463B464146B06823F035
S31508001C00B0FA287EB278737812FB00F29342C4BF0A
S31508001C109B1ADCB22B88F18813F0200FB068B180CC
S31508001C208DF80C4003AB76D000934A46434B23F01D
S31508001C3079F8002873D040F224723B493B480DF0EE
S31508001C4047FAFEE7062790E7FFF7E0F9002846D0AF
S31508001C50384B07F00F0708EBC801394403EB41037B
S31508001C601046B3F81C9022F023FCB8F1000F2CD0D4
S31508001C70B8F1010F2CD14FF00408400080B2F319D7
S31508001C8093F834304BB14FF4FA52023303444344C9
S31508001C909BB25343B3FBF9F39CB2AB78042B8BD1BD
S31508001CA0FFF7BCFC374497F834308146053398442F
S31508001CB0FFF70EFF0C2308FB00F003FB09F909EBFD
S31508001CC0C009A1441FFA89F476E74FF00208D6E75F
S31508001CD040F28672144915480DF0FAF9FEE7FFF747
S31508001CE0F7FE0746686822F0E3FB09307843AB78CD
S31508001CF004EBC000042B84B27FF45EAFFFF78EFCC2
S31508001D000746FFF7E5FE602358430C2303FB07004D
S31508001D10204484B250E74A4623F002F889E707B020
S31508001D20BDE8F083744B0020D19B02089C990208F9
S31508001D308C550020FC9B020820A10700804B002040
S31508001D40F8B5494C258815F0020506D040F27512FB
S31508001D50464947480DF0BCF9FEE7257725F0BEFC55
S31508001D60238806465A070CD5424B986823F02EFA64
S31508001D70E36AC01AA38C984203D929460420FEF7C1
S31508001D80C7FE304625F0A5FCA778022F37D125F0E7
S31508001D90A5FC2388064613F0040507D036480FF03D
S31508001DA0B3FF3046BDE8F84025F093BC25F091FC1A
S31508001DB0606811F0D3FD20B1A570BDE8F840FEF7C4
S31508001DC0CFBF25F08BFC6668054622F066FB3044DB
S31508001DD010F0CEF810F0200F0CBF032304230121C6
S31508001DE03846A370FEF794FEFFF780FE284625F0D6
S31508001DF070FC01210846BDE8F84012F0B9BC042F72
S31508001E0027D11C4B1B7BFF2B2DD1237EF3B125F04D
S31508001E1065FC238805465B0704D517480FF074FF51
S31508001E202846BFE725F055FC237E013B237625F09F
S31508001E3055FC044601210220FEF76AFEFFF756FE0E
S31508001E40204625F046FC01210820D4E74020A3704F
S31508001E50B3E7012F07D10023A370064B986812F049
S31508001E60F3FC3120A9E7F8BD744B0020D19B02088A
S31508001E709C9902088C550020904B002038B501210A
S31508001E8004461020FEF744FE064B9D68FFF7C6FB86
S31508001E90012200FB04F1044B284622F02CFF002007
S31508001EA038BD00BF8C550020850D000808B50A4BC3
S31508001EB01B88DB0606D44FF46172084908480DF002
S31508001EC007F9FEE710200021FEF722FE054B986869
S31508001ED0BDE8084022F01DBF744B0020D19B0208C4
S31508001EE09C9902088C55002038B50E4D688E30B97D
S31508001EF040F291320C490D480DF0EAF8FEE725F05C
S31508001F009DFA0446688E25F0B7FA811F2144012000
S31508001F1010F04AF8064B0446986823F057F9001B58
S31508001F2038BD00BF744B0020D19B02089C9902085B
S31508001F308C55002010B5084C636833B94FF46872A5
S31508001F40064907480DF0C4F8FEE7064B986823F0E3
S31508001F503DF9A36AC01A10BD744B0020D19B020834
S31508001F609C9902088C55002038B50A4D688E30B900
S31508001F7040F2AA32084909480DF0AAF8FEE725F00A
S31508001F805DFA0446688E25F077FA044414F8020CC4
S31508001F9038BD00BF744B0020D19B02089C990208EB
S31508001FA038B50A4D688E30B940F2B9320849094841
S31508001FB00DF08EF8FEE725F041FA0446688E25F006
S31508001FC05BFA044414F9070C38BD00BF744B0020B3
S31508001FD0D19B02089C99020838B50A4D688E30B91B
S31508001FE04FF47272084909480DF072F8FEE725F0B9
S31508001FF025FA0446688E25F03FFA044414F9010CC4
S3150800200038BD00BF744B0020D19B02089C9902087A
S31508002010024B1888C0F3C010704700BF744B0020ED
S3150800202030B585B005466C460D4B0FCB84E80F00DE
S315080020300DB12B6800930B4B21460022986812F0CD
S315080020405FFE044630B140F2E632074907480DF014
S315080020503FF8FEE7FEF7B4FD204605B030BD00BFE9
S31508002060849C02088C550020D19B02089C99020882
S3150800207030B5154D87B004460DF10701A86822F062
S315080020802AFF30B140F2F732104911480DF020F816
S31508002090FEE79DF80720531EDBB2FD2B0FD90294ED
S315080020A0FF2A00D10394A86802A922F0FCFF40B1D8
S315080020B040F20442054906480DF00AF8FEE7012AEF
S315080020C0EFE707B030BD00BF8C550020D19B020852
S315080020D09C99020808B5064B986822F0F3FF30B1C0
S315080020E04FF48262034904480CF0F2FFFEE708BD8C
S315080020F08C550020D19B02089C9902080122024BAC
S315080021001146986822F0F2BD8C5500207047F8B544
S31508002110064604200D4622F0A2F9030622D5124FE0
S31508002120BC78FCB926B1012E17D002242046F8BD8A
S3150800213001262846FFF72CFA0028F6D00B4800237C
S3150800214032462946806822F0EFFD40B14FF48A6294
S31508002150074908480CF0BCFFFEE72646E9E70623D0
S31508002160BB70E3E77024E1E7744B00208C55002030
S31508002170D19B02089C990208042010B522F06FF939
S31508002180030611D5094CA378062B0DD1084B986880
S3150800219022F0CCFD30B140F26A42064906480CF0FE
S315080021A097FFFEE7A07010BD7020FCE7744B002077
S315080021B08C550020D19B02089C9902081FB504463D
S315080021C001A812F065FD9DF80D3053B14CB1064BD0
S315080021D02078617818700020A27859709A7004B037
S315080021E010BD0220FBE700BF8C5500201FB5044632
S315080021F001A812F04DFD9DF80D3053B14CB10020E9
S31508002200054B1A7822705A789B786270A37004B0CE
S3150800221010BD0220FBE700BF8C550020FFF7CEBF9C
S31508002220FFF7E4BF0348044B834202D0034B03B1D4
S3150800223018477047485700204857002000000000FC
S31508002240064B0749C91A891048BF0131491003D0FE
S31508002250044B0BB101481847704700BF4857002088
S31508002260485700200000000010B5064C237843B9F3
S31508002270FFF7D8FF044B13B10448AFF300800123DE
S31508002280237010BD045200200000000070D8020818
S3150800229008B5054B1BB105490548AFF30080BDE8F5
S315080022A00840FFF7CDBF00BF00000000A0220020B5
S315080022B070D80208A3F5803A704700BF174B002B69
S315080022C008BF134B9D46FFF7F5FF00218B460F46C7
S315080022D01348144A121A23F0AFFC0E4B002B00D0F9
S315080022E098470D4B002B00D098470020002104008A
S315080022F00D000D48002802D00C48AFF300801BF0F3
S31508002300A9F9200029001BF065FE1AF029FE00BF76
S315080023100000080000000000000000000020002067
S31508002320002000208052002000000000000000006D
S3150800233000B583B0074B0122DA60064B5B6913F0E0
S31508002340400FFAD1034968461EF0F1F8009803B029
S315080023505DF804FB0040005910B582B004461BF036
S3150800236066FD08B902B010BD00230093ADF804302D
S31508002370074B1B88ADF80230ADF8044044F224231D
S31508002380ADF800306946042020F022FDEAE700BFD8
S315080023904051002008B513460A460146044800681D
S315080023A003F0E2FF00B908BD02480CF091FEFAE717
S315080023B044550020E87D02080A2800D9704730B540
S315080023C083B004460D466B4601AA014610480068CC
S315080023D003F030FF08B9019B23B10E480CF078FED4
S315080023E003B030BD009B2A4621460948006803F021
S315080023F061FE40B9214608480CF06AFE294607489E
S315080024000CF066FEECE7214605480CF061FEE7E7AE
S3150800241044550020F07D0208147E0208307E02082A
S31508002420387E02080A2800D9704710B504460146C6
S31508002430064B186804F066F820B9214604480CF0E3
S3150800244047FE10BD03480CF043FEFAE7445500204A
S315080024505C7E0208787E020838B51B4C6378022237
S3150800246062F383036370DBB26FF300036370DBB25E
S3150800247062F387136370DBB2012565F30513637096
S31508002480A3786FF30713A370DBB265F38303A37016
S31508002490DBB243F00303A370E0700C4B4FF4FA72FF
S315080024A01A80002128461BF044FE2A4600212846A9
S315080024B001F0B0FD20681BF0E5FC41F28831044BC1
S315080024C018680FF02CFC38BDBC22002042510020B1
S315080024D04823002008B5294B1B78012B29D0022B4D
S315080024E039D003B108BD264B1B78264A1278B3EBC0
S315080024F0420F05DA244A127D02F01802102A0DD17D
S315080025001F4B00221A70204B197DC1F340111F483A
S315080025101BF00BFE1E4824F047FCE3E70133184A7C
S315080025201370194B197DC1F3401118481BF0EDFDC6
S31508002530D8E7134B1B78134A1278B3EB420F03DA2A
S3150800254001330F4A1370CDE70D4B00221A7010485D
S3150800255024F02AFCC6E70A4B1B780A4A1278B3EB22
S31508002560420F03DA0133064A1370BBE7044B002215
S315080025701A70074824F018FCB4E700BF055200207B
S315080025800752002006520020102300209C900208C3
S31508002590C0220020037823BB70470133022B22DCBC
S315080025A003EB4302104911F82220002AF5D100B5A1
S315080025B00A4603EB430102EB810C4FF0000E8CF840
S315080025C001E04FF0010C02F821C002EB810301681B
S315080025D04268C3F80210C3F8062002895A815DF8DA
S315080025E004FB0023DAE77047E022002010B582B02A
S315080025F0044621B123788DF8003000230BE0FFF75D
S31508002600C9FFF7E7E118497803F109026A4402F8B5
S31508002610081C0133DBB2617A4A1E9342F2DB0A4B8D
S31508002620DB8B01F108026A4402F8083C01F1090251
S315080026306A441B0A02F8083C02316A46C9B20020FD
S3150800264001F002FD02B010BD1023002000B583B0D2
S315080026508C461146074B1870074B83F800C00123B8
S31508002660019300230093054A054825F07FFA03B035
S315080026705DF804FB0552002006520020D524000808
S31508002680C022002010B50024094B1C80094B197D77
S31508002690C1F3401108481BF048FD1BF030FC2146E9
S315080026A001201BF054FD054B1B681C7010BD00BFB4
S315080026B042510020102300209C9002084823002045
S315080026C008B5012814D002281ED000B108BD144B45
S315080026D0197DC1F3401113481BF027FD0021012085
S315080026E01BF035FD6421104B18680FF018FBEDE759
S315080026F00B4B197DC1F340110A481BF016FD00214A
S3150800270001201BF030FDE1E7054B197DC1F34011AF
S3150800271004481BF00AFD002101201BF024FDD5E723
S31508002720102300209C9002084823002070B59F4B78
S315080027301A78A2F12803072B42D8DFE813F008001D
S31508002740990041004D004100410041002A01974986
S315080027504C798A724B788A7843EA0223CA7843EA24
S3150800276002430A7943EA026341F8183F0422052026
S31508002770FFF710FE012C11D0023C0E2C25D8DFE8FD
S3150800278004F00D24082424240D2424242424242499
S315080027900D00864B1A7D6FF3C4021A75844C01220C
S315080027A021460020FFF7F6FD642203210020FFF7EB
S315080027B04DFF002304F8093C7E4B18680FF0A4FA75
S315080027C07D4B1B6800221A7070BD784B1A7D01215B
S315080027D061F3C4021A75E1E7744B9978D87841EA2F
S315080027E00021187941EA0041587941EA00619A7254
S315080027F05A785A779B698B420BD0012A32D0C82265
S3150800280002210020FFF722FF6A4B18680FF07CFAB6
S31508002810D6E7012A16D0002AF6D1644C207DC0F3EB
S31508002820C100FFF74DFF654B1B6800201870C822D2
S315080028300221FFF70BFF012204F11D010420FFF717
S31508002840A9FDE1E7594CE07CFFF706FEC822012105
S315080028500020FFF7FBFE012204F11D010420FFF70B
S3150800286099FDD1E7C82201210020FFF7EFFECBE74B
S315080028704E4B9A725A7C022161F383025A74D2B281
S315080028806FF300025A74D2B261F387125A74D2B245
S31508002890012161F305125A749A7C6FF307129A7430
S315080028A0D2B261F383029A74D2B242F003029A74E6
S315080028B05B78022B06D0012B21D033B93B4B5A2229
S315080028C0DA7402E0394B1E22DA74384B99781A7D8D
S315080028D061F3C4021A75D978D2B261F345121A7532
S315080028E0D3B213F0180F0ED0304B1B79022B0FD032
S315080028F0012B44D07BB9324B50221A700BE02B4B7C
S315080029003C22DA74E1E7294BD87CFFF7A5FDEBE713
S315080029102B4B96221A702A4E30781BF096FA20F026
S3150800292008FA0546274B4FF4FA721A80002101204F
S315080029301BF0FFFB01220021104601F06BFB1B4C2C
S3150800294020691BF09FFA237D43F04003214601F8D6
S31508002950143F01220020FFF71DFD012204F1130197
S315080029601046FFF717FD012231460220FFF712FD38
S31508002970B22D08D10F4B18680FF0C6F920E7104B97
S315080029806E221A70C7E7642203210020FFF75EFE55
S31508002990F0E706498A784B7843EA022321F81E3F76
S315080029A002220720FFF7F6FC0AE700BF10230020E3
S315080029B024230020542300205023002048230020ED
S315080029C0085200204251002030B583B02B4B5B7F64
S315080029D043B92A4B1B7D13F0180F03D0274B1B7FD7
S315080029E0012B3FD1002101201BF0BDFB234C227F88
S315080029F09DF8043062F301038DF80430627F9DF878
S31508002A00043062F382038DF804301D4B5B6CC3F30C
S31508002A1080231C4816220270062141720025457043
S31508002A208370194B1B88C3701B0A0371237B437180
S31508002A30A2722946FFF7DAFD00F0E8FE217DC1F310
S31508002A40401112481BF069FB114BC8221A804FF43B
S31508002A50FA61104B18680FF062F90F4B1B681D706E
S31508002A6003B030BD0C4B1B6800221A70034B187D4F
S31508002A70C0F3C100FFF724FEF2E700BF10230020D1
S31508002A8000C0035004230020B82200209C900208AE
S31508002A9042510020482300204C23002070B908B575
S31508002AA0074B1B889BB203B108BD002101201BF010
S31508002AB05AFB044B18680FF027F9F5E7704700BF73
S31508002AC0425100204C23002008B5044A1BF0C3F9E4
S31508002AD0034B18680FF018F908BD00BF1023002033
S31508002AE05023002038B5044620F07EF9A04201D8CC
S31508002AF0012038BD0546032001F084FC0028F8D0E3
S31508002B001BF05DFB1BF05CFB2B4622460349044881
S31508002B1000681EF0A0FF0020EBE700BF907E0208C9
S31508002B208C27002030B583B004468368C26853F802
S31508002B3022301D882846FFF7D5FF08B903B030BDF7
S31508002B4000230093ADF80430164B1B88ADF802300D
S31508002B50ADF804506368E2689B1A012B1DDDA36873
S31508002B60013253F822301B88ADF8003020F02CF9DA
S31508002B706946032020F02CF90446032001F042FCA4
S31508002B800028DBD01BF01BFB1BF01AFB224606496C
S31508002B90064B18681EF05FFFD0E740F2FF13ADF84A
S31508002BA00030E3E744510020C87E02088C27002045
S31508002BB030B583B004468368C26853F822301D884E
S31508002BC02846FFF78FFF08B903B030BD00230093EE
S31508002BD0ADF80430154B1B88ADF80230ADF804503B
S31508002BE06368E2689B1A012B1BDDA368013253F860
S31508002BF022301B88ADF800306946042020F0E8F83A
S31508002C000446032001F0FEFB0028DDD01BF0D7FAAE
S31508002C101BF0D6FA22460649064B18681EF01BFF1B
S31508002C20D2E740F2FF13ADF80030E5E74451002043
S31508002C30E87E02088C27002030B583B004468368F6
S31508002C40C26853F822301D882846FFF74BFF08B99B
S31508002C5003B030BD00230093ADF80430154B1B8834
S31508002C60ADF80230ADF804506368E2689B1A012B90
S31508002C701BDDA368013253F822301B88ADF80030FB
S31508002C806946022020F0A4F80446032001F0BAFBA6
S31508002C900028DDD01BF093FA1BF092FA224606496B
S31508002CA0064B18681EF0D7FED2E740F2FF13ADF8C0
S31508002CB00030E5E744510020FC7E02088C270020FE
S31508002CC030B583B08368C26853F822301C78002375
S31508002CD0019343689B1A012B19DD01AA01211EF0F5
S31508002CE087F901469DF8040020F06AF8054680B188
S31508002CF0022001F087FB60B11BF061FA1BF060FA55
S31508002D002A460649064B18681EF0A5FE01E020F083
S31508002D105BF8204620F060F803B030BD187F020843
S31508002D208C27002010B503468168C26851F8220036
S31508002D30B0F900001A4C20805B689B1A012B0FDD46
S31508002D40013251F8223093F90010003918BF0121D9
S31508002D501FF0EBFFA0B9032001F054FB10B910BD1A
S31508002D600021F5E71BF02BFA1BF02AFA0D4B1C681D
S31508002D701FF0DFFF02460C4920461EF06CFEEEE708
S31508002D80012001F03FFB0028E9D01BF018FA1BF0E0
S31508002D9017FA0649034B18681EF05DFEDFE700BF09
S31508002DA0445100208C2700207C7F0208907F02086F
S31508002DB008B51FF0AEFF032001F024FB00B908BDDB
S31508002DC01BF0FDF91BF0FCF90249034B18681EF0CD
S31508002DD042FEF4E7A87F02088C27002008B583681E
S31508002DE0C26853F822301A88094B1A80032001F06A
S31508002DF009FB00B908BD1BF0E2F91BF0E1F9044B29
S31508002E001A880449044B18681EF025FEF2E700BF2D
S31508002E10AC560020C87F02088C27002008B5024B54
S31508002E2018680EF071FF08BD542300202DE9F04103
S31508002E3086B01FF08AFF0446894B1B7813F0020FF1
S31508002E402CD0884E13F0010F2AD0864F13F0040FAA
S31508002E5028D0DFF81082032001F0D4FA28BB03201B
S31508002E6001F0D0FA58BB032001F0CCFA002835D17E
S31508002E70032001F0C7FA00283ED1032001F0C2FA68
S31508002E80002847D1032001F0BDFA00285ED10320AF
S31508002E9001F0B8FA002867D1002471E0724ED1E734
S31508002EA0714FD3E7DFF8C081D5E71BF088F91BF02F
S31508002EB087F96E496E4B18681EF0CDFDCFE71BF0FB
S31508002EC07EF91BF07DF96A4B1D6805F02BFD02465D
S31508002ED00B46684928461EF0BEFDC4E71BF06FF98D
S31508002EE01BF06EF9624B1D681FF007FF0246624928
S31508002EF028461EF0B0FDBBE71BF061F91BF060F930
S31508002F005B4B1D681FF02DFF02465C4928461EF0E4
S31508002F10A2FDB2E71BF053F91BF052F9E279A37947
S31508002F2061792079E57894F802C094F801E024786C
S31508002F300594CDF810E0CDF80CC0029501900091EB
S31508002F404F494B4800681EF086FD9BE71BF037F992
S31508002F501BF036F9464B1C681FF0FBFE0246494932
S31508002F6020461EF078FD92E71BF029F91BF028F998
S31508002F7045493F4B18681EF06EFD8DE70134E4B2F3
S31508002F80072C12D8032001F03DFA0028F6D01BF0D2
S31508002F9016F91BF015F9364B1D681FF0D6FE025DB3
S31508002FA03A4928461EF057FDE8E7032001F02AFAB9
S31508002FB098B9032001F026FAC8B9032001F022FACD
S31508002FC018BB032001F01EFA68BB032001F01AFAA9
S31508002FD0002836D106B0BDE8F0811BF0F0F81BF0EA
S31508002FE0EFF82B49224B18681EF035FDE1E71BF078
S31508002FF0E6F81BF0E5F81E4B1C681FF0AEFE02460D
S31508003000244920461EF027FDD7E71BF0D8F81BF009
S31508003010D7F8174B1C681FF084FE02461E49204647
S315080030201EF019FDCDE71BF0CAF81BF0C9F8104BC6
S315080030301C681FF07EFE0246184920461EF00BFD4E
S31508003040C3E71BF0BCF81BF0BBF8CDF800803B4685
S3150800305032461349064800681EF0FDFCBAE700BF71
S3150800306022570020307F0208387F0208E47F0208D2
S315080030708C270020EC7F02080880020824800208BA
S315080030804080020864800208808002089480020852
S315080030902C7E02089C800208B8800208D0800208AC
S315080030A0E880020830B583B08368C26853F82230D6
S315080030B01C7801A920461FF030FE88B9032001F0CC
S315080030C0A1F908B903B030BD1BF079F81BF078F800
S315080030D0019B22460B490C4800681EF0BCFCF1E730
S315080030E00546012001F08EF90028EBD01BF067F8A1
S315080030F01BF066F82A460549034B18681EF0ABFC18
S31508003100E0E700BF208102088C2700203C810208E6
S3150800311070B58268C36852F823100C88013352F8D8
S3150800312023301D78294620461FF046FE80B9032025
S3150800313001F068F900B970BD1BF041F81BF040F8C2
S315080031402B4622460B490C4800681EF084FCF2E721
S315080031500646012001F056F90028ECD01BF02FF89E
S315080031601BF02EF832460549034B18681EF073FC0F
S31508003170E1E700BF608102088C27002090810208E1
S3150800318070B582B08368C26853F822301B78134A38
S31508003190137013F0020F0ED0114C13F0010F0CD060
S315080031A00F4D13F0040F0AD00D4E032001F02AF933
S315080031B038B902B070BD0B4CEFE70A4DF1E7094E7E
S315080031C0F3E71AF0FCFF1AF0FBFF00962B4622469F
S315080031D00549064800681EF03EFCEAE7225700202B
S315080031E0307F0208387F0208447F02088C270020B7
S315080031F030B58FB004460D4668461AF09CFE0DF1B0
S31508003200200EEC46BCE80F00AEE80F009CE8030071
S315080032108EE8030008A9464B186820F0DBFB10F17E
S31508003220880F46D168461AF086FE0DF1200EEC4648
S31508003230BCE80F00AEE80F009CE803008EE8030028
S315080032404FF41053ADF820308023ADF822304FF4F8
S315080032504073079307A81AF07EFE079B0A93354B1F
S315080032600B93334B1A68099B0D9213F0FF0F04D189
S3150800327023F0FF0343F001030993012309932C4B21
S315080032802A46214608A820F0C2FB044610BB0320A4
S3150800329001F0B8F890B9264B18681FF036FD0546B8
S315080032A0002831D1032001F0ADF8044610BB0124F3
S315080032B02FE01F4B186820F064FBB3E71AF07FFF76
S315080032C01AF07EFF1A4B1A681B491C4B18681EF029
S315080032D0C2FBE0E7032001F095F80028DBD01AF0DE
S315080032E06EFF1AF06DFF22461549144B18681EF03A
S315080032F0B2FBD0E71AF063FF1AF062FF11490F4BD1
S3150800330018681EF0A8FB04E0032001F07BF80446C9
S3150800331010B920460FB030BD1AF051FF1AF050FF11
S315080033202A460949054B18681EF095FB0024F0E764
S315080033303023002000014405C08102088C270020A4
S31508003340F0810208148202083482020800B583B0AC
S315080033500021019101AA1DF04BFE019910290ED0FA
S31508003360032001F04FF860B11AF029FF1AF028FF80
S3150800337010220549054B18681EF06DFB01E0FFF7A2
S3150800338037FF03B05DF804FB548202088C2700203F
S31508003390022900D0704708B5024B186808B119F021
S315080033A0F9FD08BDB84B002010B588B020F02EFCFA
S315080033B001241E4B1C6002A81AF0E4FD02A920464F
S315080033C020F008FB10F1880F0BD0184B18681FF077
S315080033D09CFC1FF0EDFC1649164808F00BFF08B0D8
S315080033E010BD124B1A68039B079213F0FF0F03D107
S315080033F023F0FF03234303930F4B05934FF44073C6
S31508003400019301A81AF0CEFD019B04934FF41053C3
S31508003410ADF808308023ADF80A3001230393034B37
S315080034201022064902A820F0F2FACEE7302300203F
S315080034309C54002034230020000144058C540020AD
S3150800344010B582B0002304220121084604F082FE4A
S31508003450012304220621002004F07CFE0023012219
S315080034601946104604F076FE0120019000240094C7
S3150800347003462246214604F003FE0649204602F08A
S3150800348027F81B2008F04AF81B201EF08FFA02B016
S3150800349010BD00BFC3DF010838B5444B1B78ABB17C
S315080034A0434B5B6C13F4807F76D0424B01221A7033
S315080034B0414A13780133DBB21370042B67D84FF4F3
S315080034C07A713E4B18680EF02AFC38BD3C4C7823BE
S315080034D0E374237D43F020032375DBB26FF3C40343
S315080034E02375384D96232B7000202077607704F1DA
S315080034F01401FEF761FF04F113010120FEF75CFFDA
S3150800350029460220FEF758FF04F11C010320FEF7A6
S3150800351053FF04F11D010420FEF74EFF04F11801C4
S315080035200520FEF749FF28490620FEF745FF04F166
S315080035301E010720FEF740FF00F0CEFD01F014F94A
S31508003540FFF77EFF1AF041FD28781AF07EFC00F09E
S3150800355019FD237F022B0ED8012B14D013B91B4B50
S3150800356001221A70164B03221A774FF47A71184BF8
S3150800357018680EF0D4FB0D4B01221A700F4B1B680E
S3150800358000221A70A1E7134A01211170E6E701210A
S3150800359011481AF0C2FD92E70023064A1370064A3C
S315080035A01370064A126813708FE700BF095200208D
S315080035B000C003500E5200200D5200204423002064
S315080035C01023002008520020B82200200A520020AA
S315080035D0542300200B5200209C90020810B50020AE
S315080035E0164B187009F0B0FD154B1B7D13F0400FF4
S315080035F015D0134C207DC0F3C100FFF761F82146B2
S31508003600022301F81C3F01220320FEF7C3FE0D4BDF
S315080036101A68002313700C4A1268137010BD084903
S315080036200B7D012262F3C4030B75DBB243F0200362
S3150800363001F8143F0020FEF7ADFEDAE70B52002032
S3150800364010230020542300204023002010B50F49E2
S315080036500F4809F07FFC0F490F4809F07BFC0F491A
S315080036600F4809F077FC0F490F4809F073FC0F4C17
S315080036700F49204609F06EFC0E490F4809F06AFC0E
S31508003680642120680EF04BFB10BD00BF6D380008A2
S31508003690542300202D27000850230020C92900089C
S315080036A04C230020852600084823002044230020B8
S315080036B099340008DD3500084023002070B5002045
S315080036C0FEF7B0FE0120FEF7ADFE0220FEF7AAFEC9
S315080036D00320FEF7A7FE0420FEF7A4FE0520FEF74A
S315080036E0A1FE0720FEF79EFE224C0025E5835A23FD
S315080036F0E374237D43F020032375DBB265F3C4032B
S3150800370023753C20E074DBB265F3861323751A4EE5
S3150800371096233370FEF7A0FE30781AF096FB2577CD
S315080037206577207DC0F3C100FEF7CAFF012204F1C8
S315080037301C010320FEF72EFE012204F11D010420C0
S31508003740FEF728FE012204F114012846FEF722FEA0
S31508003750012231460220FEF71DFE012204F1130163
S315080037601046FEF717FE022204F11E010720FEF797
S3150800377011FE70BD102300200852002008B560BB5A
S31508003780022919D81B4B1B7F73B91B4B1B782BB906
S31508003790FEF7E2FD19481AF0FFFF20E0C8220221D1
S315080037A00020FEF753FF1AE0022B18D1C822022187
S315080037B00020FEF74BFF12E0052904D0FFF77EFF35
S315080037C01AF03FFB0BE00E4B01221A704FF47A7188
S315080037D00C4B18680EF0A3FA01E0012800D008BDCA
S315080037E00229FCD9034B2B229A72074B18680EF054
S315080037F08BFAF4E7102300200C5200209C90020854
S315080038000E520020442300205423002008B51AF045
S3150800381005FB82B222B1124B1B883BB9104B1A80AA
S3150800382002220F490620FEF7B5FD08BD82B207EE53
S31508003830902AF8EEE77A9FED0B7A67EE877A07EE1D
S31508003840103AB8EEC77ADFED086A27EE267A77EEE1
S31508003850877AFCEEE77A024B17EE902A1A80DFE7A2
S31508003860B8220020CDCCCC3D6666663F10B582B046
S31508003870FFF7CCFF7A4B5A6CC2F38022794B1B7F39
S31508003880032B00F2E780DFE803F002254B719DF871
S315080038900430012262F304038DF804309DF80430E5
S315080038A06FF346138DF804306F4B15221A700221F8
S315080038B059729DF8041059706A4B9A726B4B1B68C3
S315080038C000221A7000216848FEF790FEFFF79EFF57
S315080038D002B010BD634B9B7A282B15D02B2B17D023
S315080038E0292B19D0604B06215972002159709A70FC
S315080038F05F4A1288DA70120A1A715A4A127B5A718A
S315080039005A4B1B681970DDE7574928200870E5E708
S3150800391055492B200870E3E7534B29211970E1E735
S31508003920504B9B7A282B15D02B2B17D0292B19D027
S315080039304D4B06215972002159709A704C4A1288CB
S31508003940DA70120A1A71474A127B5A71474B1B687A
S315080039501970B7E7444928200870E5E742492B2043
S315080039600870E3E7404B29211970E1E73D4B1869D8
S315080039701AF088FA3F4B1B785BB93F4B1B7873B13B
S315080039803E4B1B780BB30120364B187709F0DCFB4E
S3150800399005E0344B00221A77012009F0D5FB314B9C
S315080039A01B7F022B18D0012B37D0002B8AD12D4C28
S315080039B0E07CFEF751FD207DC0F3C100FEF780FED6
S315080039C02A4B1B6800221A707CE7264B02221A77BC
S315080039D0002009F0B9FBE2E7224B5B7F012B12D0EE
S315080039E0204B5B7F53B91F4B1B7D13F0180F0FD06D
S315080039F01C4B187DC0F3C100FEF762FE1B4B1B680B
S31508003A0000221A705EE7174BD87CFEF725FDE7E71C
S31508003A10144BD87CFEF720FDF0E7124C237D43F0CB
S31508003A2020032375DBB26FF3C403214601F8143F64
S31508003A3001220020FEF7AEFCE07CFEF70DFD4FF4F8
S31508003A4070210F4B18680EF06AF9084B1B680022A4
S31508003A501A7037E7054B1B6800221A7032E700BF59
S31508003A6000C0035010230020042300205423002004
S31508003A70B82200200A5200200C5200200B520020C7
S31508003A8040230020014B1878704700BF23570020B9
S31508003A9010B50446184B1B7F23B1013BDBB2012B43
S31508003AA009D910BD817980681AF06DFB63795B428C
S31508003AB0114A1373F5E78068E188431813F8012C57
S31508003AC013F8023C43EA02230B4AD28B52B19A42BC
S31508003AD0E7D10239C9B21AF056FB63795B42064A46
S31508003AE01373DEE70239C9B21AF04DFB63795B42FC
S31508003AF0014A1373D5E700BF102300202DE9F041D2
S31508003B0006460D468B681B78152B01D0002446E027
S31508003B10354B1B7F002BF9D10028F7D1324C0127F2
S31508003B2027774FF0000884F81D80237D68F3C403C7
S31508003B302375DBB243F0200323753A4604F11C01D2
S31508003B400320FEF727FC3A4604F11D010420FEF780
S31508003B5021FC3A4604F114014046FEF71BFC4FF4DB
S31508003B607021224B18680EF0DAF8CFE704EB44020E
S31508003B701F4B03EB82035B780A2B26D01C4A04EB07
S31508003B80440102EB81004FF0010C02F821C06344A6
S31508003B904370C82202210020FEF758FD0134022C8A
S31508003BA01BDCAB68197804EB4402114B03EB820368
S31508003BB09B789942F2D1002ED8D10D49900001EB9D
S31508003BC0820300220A545A70E8E70949900001EB7B
S31508003BD0820300220A545A70DBE72B7B5B42024AB7
S31508003BE01373BDE8F08100BF102300204023002096
S31508003BF0E022002010B59038062838D8DFE800F013
S31508003C00041A22373729300001241C4B1C70C8229D
S31508003C1002210020FEF71AFD194B1C70194B1B7F59
S31508003C207BB9194B1B7863B10A21184B18680EF03B
S31508003C3076F806E00020114B187064220521FEF77D
S31508003C4005FD10BD4FF47A7202210020FEF7FEFC36
S31508003C50F7E74FF47A7202210020FEF7F7FCF0E747
S31508003C604FF47A7202210020FEF7F0FCE9E74FF4E0
S31508003C707A7202210020FEF7E9FCE2E70C520020E6
S31508003C802357002010230020095200205423002027
S31508003C9008B523F05FFF074B1B782BB1064B1B6853
S31508003CA0C01A064B984200D808BD05481AF074FD9C
S31508003CB0FAE700BF0F5200203C230020A08601002F
S31508003CC09C90020808B5024B1B6803B1984708BDCB
S31508003CD08823002008B5024B5B6803B1984708BDE6
S31508003CE08823002008B5024B9B6803B1984708BD96
S31508003CF08823002008B5024BDB6803B1984708BD46
S31508003D008823002008B5024B1B6903B1984708BDF4
S31508003D108823002008B5024B5B6903B1984708BDA4
S31508003D208823002000B585B0094B1868094B186030
S31508003D30094B0A4A13600A4A01920A4A1268029211
S31508003D40039301A91DF076F905B05DF804FB00BFE1
S31508003D50C0540020D8310020B4540020D4310020AB
S31508003D604C9002085C26002008B5024B18681DF026
S31508003D7075F908BDC054002038B507F005FC04469F
S31508003D80064D2B68D3F8B00207F0F2FB28681DF041
S31508003D907FF9204607F0ECFB38BD00BFC054002071
S31508003DA00023062073B1704754B224B9013353B1C6
S31508003DB05DF8044B70470228F8D008680A4908607D
S31508003DC01046F3E710B4094A52F823100A7A022A71
S31508003DD0EAD9032AEAD1441EE4B2012CE6D90868D6
S31508003DE0014908601046E1E75C260020C45400201B
S31508003DF010B5A2B02024224600211AA821F01CFFE3
S31508003E00304B1A934FF4E1331C9302238DF8753027
S31508003E1003238DF876302C4B1E9306238DF87E30BF
S31508003E2009238DF880300021159116911791189164
S31508003E3019914FF480131593244B199310911191EE
S31508003E40129113911491224B1093224B14933C22F6
S31508003E5001A821F0F1FE0DF1040E0DF1540CBCE899
S31508003E600F00AEE80F00DCF80030CEF800300DF198
S31508003E70180E0DF1400CBCE80F00AEE80F00DCF898
S31508003E800030CEF80030144B0B930C9401238DF8B8
S31508003E9034308DF83530114B0F93114B1AAA01A9FE
S31508003EA0104807F01DFC04469DF837303BB1002149
S31508003EB04FF4E1301AF0E8FA204622B010BD03218B
S31508003EC0F6E700BF40940208309402083C00015B04
S31508003ED0010010004400015B60260020D854002031
S31508003EE0802600203C27002008B531B9084B186801
S31508003EF0036823B108F00AF801E0012900D908BDD2
S31508003F00034B18680368002BF9D01EF086F8F6E70D
S31508003F10EC54002008B50349034808F06BF9FFF78D
S31508003F2067FF08BDF05400206427002008B5024842
S31508003F301DF0D7FD08BD00BF3C27002008B5024884
S31508003F401DF0CFFD08BD00BF3C27002008B5024B79
S31508003F505A6A1868904708BD3C27002008B50348E8
S31508003F601AF016FB02481AF013FB08BD84900208E3
S31508003F706C90020808B502481AF009FC08BD00BF93
S31508003F809C90020870B590B001212A2003F0E8F849
S31508003F9000250D950E950F951B4E2A461B49304652
S31508003FA004F062F98DF839000DF10C0C184C0FCCA1
S31508003FB0ACE80F000FCCACE80F0094E803008CE8DF
S31508003FC003004FF4966306930195029503238DF833
S31508003FD006308DF8065001238DF800308DF8015013
S31508003FE08DF802508DF8035010238DF8013003AA7E
S31508003FF00DA9304604F078F96A4601A930461CF046
S3150800400057FA10B070BD00BF0040005940420F007B
S31508004010B490020842B9C0B201228A4000EB4000BF
S315080040200001074B1A507047012A00D07047C0B2EA
S3150800403001228A4000EB40000001024B1A50F5E7C6
S3150800404040E0035040D0035000B583B00B46054905
S31508004050097801910092002201211EF09AFE03B010
S315080040605DF804FB2257002070B50579194B03EB60
S31508004070C5031B79052B0BD004460668FA2022F0E7
S3150800408077FF864205D2134B03EBC50300221A714C
S3150800409070BD26684FF47A7022F06AFF864205D210
S315080040A00C4B03EBC50301221A71F1E7246840F6AD
S315080040B0B83022F05DFF844205D2064B03EBC503F8
S315080040C002221A71E4E7034B03EBC50303221A71B4
S315080040D0DEE700BF7C27002038B5114B18681AF0B8
S315080040E035F90546C8B9002401E00134E4B2012CCB
S315080040F00CD80C4B53F824001AF051FA0128F4D1C5
S3150800410023F028FD084B43F83400EEE7074B00225E
S315080041101A70034B18681AF029F9284638BD00BFEB
S3150800412078270020F85400207C27002024570020F8
S3150800413000B9704730B583B00446104D1049286859
S315080041401DF089FC1AF03BF81AF03AF80D4B00936B
S315080041504FF48D730C4A0D4928681DF07CFC2346E4
S315080041600B4A0C4928681DF076FC204600F092F9A7
S31508004170094928681DF06FFC00BEFDE78C27002062
S315080041802C7E02088C910208DC9002084C910208E9
S3150800419058910208609102087891020800B589B022
S315080041A0002307E00022264941F823202549CA545E
S315080041B00133DBB2012BF5D9002309E0224A02EBD1
S315080041C0C30104200871002142F833100133DBB221
S315080041D0012BF3D9002301930293039304930593C8
S315080041E0069307939DF8043043F001038DF80430D5
S315080041F0DBB243F008038DF80430DBB243F020034A
S315080042008DF80430114B0293114B039302238DF85A
S3150800421010304FF4806305930523ADF81830042356
S31508004220ADF81A30082307930A4901A800F050F997
S3150800423010B909B05DF804FBFFF77AFFF9E700BF8C
S31508004240702700206C2700207C2700205942000890
S315080042508FE101087827002010B584B001AA02A9C9
S31508004260124B18681AF0C4F8E8B902A8FFF7FCFE62
S31508004270002401E00134E4B2012C0ED80C4B03EB08
S31508004280C40319790429F5D02046FFF777FA084BB5
S3150800429003EBC40304221A71ECE7044B18681AF0FE
S315080042A065F804B010BDFFF743FFFAE7782700204A
S315080042B07C270020204B1B78002B3CD170B582B0A0
S315080042C00024012C20D825461C4B53F82430834261
S315080042D002D00134E4B2F4E71AF061F9012815D0E6
S315080042E023F038FC164B53F83560861B00968DF87C
S315080042F00440282022F03CFE864211D8104B03EBDE
S31508004300C5031B79052B0BD002B070BD23F022FC28
S315080043100B4B43F8340003EBC40305221A71DFE79D
S3150800432008226946074B18681AF030F80028EBD0BF
S31508004330FFF7FEFEE8E7704724570020F8540020F0
S315080043407C2700207827002010B58368C26853F8B8
S3150800435022301C78012C00D90124084B1B5D03B1BF
S3150800436010BD23F0F7FB064B43F82400034B01224C
S315080043701A5505212046FFF701FAF1E76C270020B8
S315080043807027002038B58368C26853F822301C7835
S31508004390012C00D90124194B1B5D012B00D038BD17
S315080043A023F0D8FB164B53F82450451B134B002219
S315080043B01A55FA2022F0DCFDA84204D9002120462D
S315080043C0FFF7DCF9EBE74FF47A7022F0D1FDA8424B
S315080043D004D901212046FFF7D1F9E0E740F6B830C5
S315080043E022F0C6FDA84204D902212046FFF7C6F9E5
S315080043F0D5E703212046FFF7C1F9D0E76C2700204F
S315080044007027002003460B4A107828B10A4A12780A
S315080044109A4202D2002000E00120084A12783AB1F6
S31508004420074A127842FA03F313F0010F00D100206D
S31508004430704700BF2757002026570020115200203A
S315080044402557002008B5084B01221A70074B002291
S315080044501A70074B04221A70064B1F221A7007F0AF
S3150800446093F8054B186008BD275700201152002005
S3150800447026570020255700208C27002008B5034919
S31508004480034B18681DF0E7FA08BD00BFA49102089F
S315080044908C27002070B506460A4C0B4920681DF08B
S315080044A0DAFA07F071F80546206807F061F8304631
S315080044B0FFF7E4FF284607F05BF8044920681DF07B
S315080044C0CAFA70BD8C270020A8910208AC91020890
S315080044D0F8B500284FD00D46044600294DD003787C
S315080044E013F0030F36D04268002A48D013F0080F9D
S315080044F002D0A28A002A44D013F0200F05D0E38AFE
S31508004500002B40D0A369002B3FD02C201DF0DFFEE6
S31508004510064600283BD02C22002121F08DFB21687D
S315080045206268A368E0687160B260F360306121690F
S315080045306269A3697161B261F361237813F0040FAC
S315080045400ED000272E60636843B13146114819F032
S31508004550BFFF03E04268002AC8D021273846F8BDC5
S315080045600121304619F0BEFE07460028EAD030463B
S315080045701DF08CFFF2E72227F0E72227EEE7212736
S31508004580ECE72127EAE72127E8E72127E6E71927C5
S31508004590E4E700BF9027002008B5034819F091FF0B
S315080045A019F024FD08BD00BF9027002010B50B4B5D
S315080045B01C6802E023F07AF8246864B123F07BF8DB
S315080045C094F82030002BF5D0A36A002BF2D023F004
S315080045D06DF8002000E0012010BD00BF90270020E4
S315080045E010B50B4B1C6802E023F060F8246864B130
S315080045F023F061F894F82030002BF5D0A36A002B3D
S31508004600F2D023F053F8042000E0012010BD00BFCB
S315080046109027002010B50C4B1C6802E023F046F8E2
S3150800462024687CB123F047F894F82030002BF5D0A5
S31508004630A36A002BF2D0013BA36223F037F8A368E4
S315080046409847EDE710BD00BF9027002008B504483D
S3150800465023F006F919F0ECFC00F086F808BD00BF57
S315080046602894020808B5024823F0FAF808BD00BFE6
S31508004670289402082DE9F04180460F4601F1090504
S315080046800026344604E05B21082000F093FA013442
S31508004690AC4233D2052C1BD801A353F824F000BF33
S315080046A087460008B9460008ED460008C1460008D6
S315080046B0C5460008C9460008FBB20433D9B2E3E789
S315080046C08021E1E70021DFE7731C3146DEB2DBE734
S315080046D0BB1DA3420CD0FB1DA3420BD007F1080358
S315080046E0A34209D0A31F18F80310CDE7D121CBE7C1
S315080046F05A21C9E75A21C7E75D21C5E70020BDE869
S31508004700F08100BF00B583B0002200920192022119
S315080047108DF80010054819F0A1FE01900821684699
S31508004720FFF7A8FF03B05DF804FB00BF006A180096
S3150800473000B583B0044B1B88ADF8043001A800F01F
S3150800474015FB03B05DF804FBB091020800B583B011
S31508004750044B1B88ADF8043001A800F0D7FA03B063
S315080047605DF804FBB09102082DE9F04F97B04D4D66
S3150800477009AC2E1D0FCE0FC43368236001AC05F1BA
S3150800478018060FCE0FC496E80F0084E80F004648B7
S3150800479023F066F8454823F063F801268DF809608A
S315080047A000248DF80840424B0B9301AB0D93414F03
S315080047B009A938461BF02DFEB5F838B0ADF838B063
S315080047C0324604210EA800F065FAB5F83CA0ADF80B
S315080047D03CA0224631460FA800F05CFAB5F8409096
S315080047E0ADF840903246042110A800F053FAB5F807
S315080047F00080ADF844803246042111A800F04AFA38
S315080048002D4D2E4BC5F8F8344FF00213C5F8F43485
S31508004810A3F58033C5F8FC341C23C5F8E4344FF4FB
S31508004820487008F035FBFFF783FF142008F030FBCB
S31508004830FFF78CFF232008F02BFBFFF779FFB92140
S3150800484038461BF0CEFDFFF781FFADF848B022468B
S31508004850214612A800F01EFAADF84CA022462146C1
S3150800486013A800F017FAADF850903246214614A85E
S3150800487000F010FAADF854803246214615A800F02B
S3150800488009FA384603F086F9C5F8E444C5F8F84449
S31508004890C5F8F444C5F8FC44044822F0E6FF17B00E
S315080048A0BDE8F08FB0910208289402082C940208FB
S315080048B0E070720000000A5000C0035002000300B6
S315080048C008B50448044A121A9210044919F0EFFD73
S315080048D008BD00BF80010008800300088052002040
S315080048E008B5154B83F30A8800F030F8FFF7E8FFA0
S315080048F0124A0AE01068516850F8230041F823006C
S31508004900013391688B42F5D30C320D4B9A4201D292
S315080049100023F6E70B4A08E01168002041F8230057
S31508004920013351688B42F7D30832074B9A4201D2BA
S315080049300023F6E7FDF7C2FC0000002078D802083D
S3150800494084D8020884D8020884D8020870B5134BA4
S31508004950134A9A60D3F8882042F47002C3F8882074
S31508004960104A4FF4804191660F4D05F500544FF0FB
S31508004970FF3222660D4A62660222C3F8D020BFF3D0
S315080049804F8FBFF36F8F002006F0C8FD4FF44036F7
S31508004990E66000201DF00AF82E6170BD00ED00E00B
S315080049A00000000800900050008000447FFF7F014F
S315080049B0014B1860704700BF1855002008B5064B14
S315080049C01860064B1B6F03F00703032B00D008BDC6
S315080049D021F0B8FBFBE700BF2055002000800050FF
S315080049E0BFF34F8F0549CA6802F4E062044B1343CC
S315080049F0CB60BFF34F8F00BFFDE700BF00ED00E0BF
S31508004A000400FA05F0B18446F1B110B409E004F1E6
S31508004A1020000FE02033C01A18D1BCB10CF1010CEC
S31508004A2001319CF800400B4B1B5D03F00303012B7F
S31508004A30EDD020460B78074AD25C02F00302012A21
S31508004A40E9D1E7E701207047012070475DF8044B7C
S31508004A50704700BF3DD7020830B587B005460468E1
S31508004A6023798DF80C3063798DF80D301A4822F0C9
S31508004A70F7FE0022012103A800F00CF90DF10B0145
S31508004A8003A819F04DFE9DF80B302370A379022B6D
S31508004A9002D0002007B030BD4FF0FF3305930493D2
S31508004AA000950E4B012205A903A800F02FFA059BD5
S31508004AB0B3F1FF3F07D00095084B022204A903A8CB
S31508004AC000F084F9E5E70095044B042204A903A83D
S31508004AD000F07CF9DDE700BF28940208ADE501087F
S31508004AE010B582B0002401942A4822F0B9FE8DF848
S31508004AF0004003238DF8013001220421684600F0A6
S31508004B00C9F8254B0122C3F8442401A9052022F03F
S31508004B10A0FE00283BD1214BD3F8F02042F0010239
S31508004B20C3F8F020D3F8FC2042F08072C3F8FC20CA
S31508004B30A3F55D431A4A1A60019B03F5D52303F2D0
S31508004B40FC43DB08174AA2FB03239B0A013B164AD0
S31508004B5013610223C2F8F0304FF48073C2F80433AD
S31508004B604FF06043114AC3F8B02F114AC3F8802E9C
S31508004B70D3F8002E42F48072C3F8002EFF2283F881
S31508004B802020D3F8002E22F48072C3F8002E02B03B
S31508004B9010BD00BF2894020800D0035000ED00E0C5
S31508004BA0FF03004017916502000004E055CEACC52E
S31508004BB0090001004FF06043D3F8803E13F0010F5F
S31508004BC001D1112070470E4AD2F8FC3043F08073A9
S31508004BD0C2F8FC304FF06043D3F8002E4FF0010CBA
S31508004BE00CFA00FC42EA0C02C3F8002E53F82030F7
S31508004BF0002BE8D04FF0604303F8201000207047E0
S31508004C0000ED00E010B504460FE00123834024EAD6
S31508004C1003040F2814D800EB40020E4B03EB820363
S31508004C205A6812B19968C0B2904794B123460020D9
S31508004C301F28EAD813F0010FE7D101305B08F7E720
S31508004C40103800EB40039B00B033024A1344043388
S31508004C50E6E710BD9427002008B50D4822F000FEAF
S31508004C601A2006F04BFC28B91B2006F047FC40B971
S31508004C70002008BD1A2006F051FC1A201CF096FEEA
S31508004C80F2E71B2006F04AFC1B201CF08FFEEFE71C
S31508004C90289402082DE9F04170B30C4617460546DC
S31508004CA00F292BD803784BB1022B20D0032B21D008
S31508004CB0012B01D0002303E07F2301E040F2FF73BC
S31508004CC06A78D34013F0010F1AD00F4BD3F810634C
S31508004CD0C6B922F003FD80463A462146284603F027
S31508004CE067FE404622F0F5FC3046BDE8F08140F20A
S31508004CF0FF33E5E73F23E3E72226F5E72126F3E737
S31508004D002126F1E70226EFE700C0035040B310B5AD
S31508004D10044603784BB1022B1DD0032B1ED0012B62
S31508004D2001D0002303E07F2301E040F2FF7362789D
S31508004D30D34013F0010F15D022F0D0FC2378627807
S31508004D400121914003EB43031B01074AD15022F08E
S31508004D50C0FC002010BD40F2FF33E8E73F23E6E73A
S31508004D60222070472120F5E740D0035040B310B504
S31508004D70044603784BB1022B1DD0032B1ED0012B02
S31508004D8001D0002303E07F2301E040F2FF7362783D
S31508004D90D34013F0010F15D022F0A0FC23786278D7
S31508004DA00121914003EB43031B01074AD15022F02E
S31508004DB090FC002010BD40F2FF33E8E73F23E6E70A
S31508004DC0222070472120F5E740E00350002866D0EE
S31508004DD02DE9F0410C4615461F460646002960D0C7
S31508004DE002784AB1022A3ED0032A3FD0012A01D0CE
S31508004DF0002303E07F2301E040F2FF737178CB4084
S31508004E0013F0010F01D1FF2A4DD1022D01D9042D2E
S31508004E104BD122F063FC80463378FF2B28D12368D8
S31508004E20B3F1FF3F2BD02268B2F1FF3F32D0204BBF
S31508004E3002EB420203EB82025760226802EB42024F
S31508004E4003EB8203069A9A603378FF2B05D0226813
S31508004E5001239340174AC2F82434404622F039FC0D
S31508004E600020BDE8F08140F2FF33C7E73F23C5E7DE
S31508004E702A462168304603F005FE2060CFE73378DE
S31508004E80FF2BD0D10C4BD3F8241470781BF090FC70
S31508004E902060C8E7404622F01CFC2D20E1E72220CE
S31508004EA070472220DDE72120DBE72120D9E700BF74
S31508004EB09427002000D0035000C00350B0F1FF3FF4
S31508004EC01AD038B504460F2818DC002818DB22F05B
S31508004ED005FC0123A3400B4AC2F82034C2F8243447
S31508004EE0094B04EB440203EB8202002555609560EA
S31508004EF022F0EFFB284638BD212070472120FAE72B
S31508004F002120F8E700E0035094270020002856D017
S31508004F102DE9F0410C4617461E460546002950D095
S31508004F20017849B1022939D003293AD0012901D09B
S31508004F30002303E07F2301E040F2FF736A78D34041
S31508004F4013F0010F01D1FF293DD122F0C7FB80469E
S31508004F502B78FF2B27D12268B2F1FF3F2AD01B4BB3
S31508004F6002EB420203EB8202C2F8B860226802EB47
S31508004F70420203EB8203069AC3F8BC202B78FF2B68
S31508004F8006D02268103201239340114AC2F824340D
S31508004F90404622F09EFB0020BDE8F08140F2FF3338
S31508004FA0CCE73F23CAE73A462168284603F00AFEBB
S31508004FB02060D0E7404622F08CFB2D20ECE722202B
S31508004FC070472220E8E72120E6E700BF9427002063
S31508004FD000D0035008B5084BD3F82404D3F820248E
S31508004FE0104000F0553020F0502003F50053C3F868
S31508004FF02004FFF707FE08BD00C0035008B5084B9C
S31508005000D3F82404D3F82024104000F0AA3020F066
S31508005010A02003F50053C3F82004FFF7F3FD08BDED
S3150800502000C0035010B582B004460A4822F018FCA6
S3150800503023788DF8043063788DF80530A278B2FAB3
S3150800504082F2520904210DEB0100FFF723FE00202E
S3150800505002B010BD28940208F0B585B00C469446F7
S315080050609DF83410664A1278002A00F0BD8005467D
S31508005070BCF1070F00F2BA800A9A002A00F0B8803D
S315080050800B9A002A00F0B6800E9AB2F5006F00F36C
S31508005090B38001285BD05B4A02EB0C12127B002A14
S315080050A000F0AC8000220092019202920392564AC6
S315080050B002EB4C1E002C4FD14FEA4C1600209051A3
S315080050C0CEF80400CEF80800CEF80C009EF80200D0
S315080050D040F010008EF802009EF8030040F0300001
S315080050E08EF8030021B9C1B241F003018EF803100E
S315080050F000930E9B013B444A4FEA4C1002EB4C11BD
S31508005100165A63F30E1616520A9B8B600B9B4B605E
S31508005110CB789DF83C2062F38303CB70012D36D003
S31508005120109B002B56D0374A4FEA0C1102EB0C1392
S3150800513010985050119A5A6000249C605D7372460C
S315080051406946604603F0F6FA204605B0F0BD0C9AAB
S31508005150002AA0D12D48F8E72B4F4FEA4C1607EB4B
S315080051604C120020B85150609060D060907840F0A2
S3150800517010009070D07840F00300D0700029B7D1A5
S3150800518007EB4C12C1B241F03001D170B0E70E46C0
S315080051900A7B42F001020A73D2B242F002020A7393
S315080051A0CA68042161F39F02F26006F1100796E8C7
S315080051B00F0087E80F00F2696FF0030161F39F02A1
S315080051C0F2610C9B7361012CAAD10B9AB2610C9AFD
S315080051D07260A5E7002DA6D10B4B03EB4C139A780A
S315080051E06FF304129A709EE70948AEE70748ACE7E2
S315080051F00648AAE70548A8E70448A6E70548A4E735
S3150800520012520020FC290020FC280020018000F012
S31508005210028000F0078000F0134B1B78FBB110B535
S315080052200446F0B122F05AFA0023072B13D80F4A86
S3150800523002EB0312127B0AB10133F6E723600B4A2D
S31508005240190102EB031301241C730024545022F0A5
S3150800525040FA204602E022F03CFA054810BD05480F
S3150800526070470548FAE700BF12520020FC290020C3
S31508005270048000F0028000F0018000F038B522F0CA
S315080052802DFA04460023072B06DC0C4A02EB031210
S31508005290127B12B90133F6E7002222B1204622F02A
S315080052A018FA074838BD03F0F1F90025054B1D70BB
S315080052B0204622F00EFA2846F4E700BFFC29002013
S315080052C0058000F0125200200F4B1B78BBB110B5B9
S315080052D00446072815D822F001FA0C4B03EB0413F1
S315080052E01B7B1BB922F0F5F909480BE0074B03EBCA
S315080052F0041300241C7322F0ECF9204602E005484A
S315080053007047054810BD00BF12520020FC29002036
S31508005310068000F0028000F0018000F000B583B03E
S31508005320134B1B68019300238DF8043022F0D6F93D
S31508005330104B1B7833B90F4B01221A7022F0C9F9AA
S31508005340002309E022F0C5F90B480EE00B4A02EBF0
S315080053500312002111730133072BF7DD08238DF89B
S31508005360073001A803F0B6F9002003B05DF804FB86
S31508005370F491020812520020038000F0FC29002054
S3150800538010B5104C2478BCB1072817DC0E4C04EB7A
S315080053900014247BA4B10C4C4FEA001E04EB001C3D
S315080053A044F80E30029BCCF804300024CCF80840B0
S315080053B003F0C0F9204610BD0448FCE70448FAE7A4
S315080053C00448F8E712520020FC290020028000F069
S315080053D0018000F0078000F008B50A4B1B785BB126
S315080053E007280BD8084B03EB00131B7B43B100219E
S315080053F003F062F9002008BD0448FCE70448FAE710
S315080054000448F8E712520020FC290020028000F028
S31508005410018000F0078000F008B50A4B1B785BB1E5
S3150800542007280BD8084B03EB00131B7B43B101215C
S3150800543003F042F9002008BD0448FCE70448FAE7EF
S315080054400448F8E712520020FC290020028000F0E8
S31508005450018000F0078000F0F8B5194B1F6D5B6DF1
S315080054601F4002D40125002402E0FEE701346D0046
S31508005470072C24D83D42F9D0124B1D652301124A48
S31508005480D358002BF2D002EB0416B1680131B16093
S3150800549072682046984780F00100C0B2737B012BE2
S315080054A0E4D10028E2D0094B03EB44131A7B6FF3CF
S315080054B041021A731A7F6FF341021A77D6E7F8BDCD
S315080054C00000045000200450FC290020FC2800207D
S315080054D000B585B0FF238DF80C308DF80D3002909D
S315080054E00F2809DC0091094B002202A903A8FFF73F
S315080054F06DFC05B05DF804FB103802900091034B73
S31508005500002202A903A8FFF701FDF2E787E80108D0
