S01500004956505F4C525F436F6E6E6563742E733337CA
S315080000000020002009440008FDDF0108FDDF010883
S3150800001045250208FDDF0108FDDF0108FDDF0108AF
S31508000020FDDF0108FDDF0108FDDF0108FDDF01082E
S31508000030FDDF0108FDDF0108FDDF0108FDDF01081E
S31508000040FDDF0108FDDF0108FDDF0108FDDF01080E
S3150800005045650008FDDF0108FDDF0108FDDF010831
S31508000060FDDF0108FDDF0108FDDF0108913A000800
S31508000070813A0008FDDF0108FDDF0108FDDF010800
S31508000080FDDF0108FDDF0108FDDF0108FDDF0108CE
S31508000090FDDF0108FDDF0108814F0008FDDF0108CB
S315080000A0FDDF0108FDDF0108254B0008FD4A0008B1
S315080000B0FDDF0108FDDF010849B10108F5BB0108AC
S315080000C05B56020857560208A9B30108715602087A
S315080000D05F560208C5BB01086356020859BC0108E9
S315080000E091BC0108FDDF0108FDDF010819CD0008F4
S315080000F0FDDF0108DB140208FDDF0108FDDF01084A
S31508000100FDDF0108FDDF0108FDDF0108FDDF01084D
S31508000110FDDF0108FDDF0108FDDF0108FDDF01083D
S31508000120FDDF0108FDDF0108FDDF0108FDDF01082D
S31508000130FDDF0108FDDF0108FDDF0108FDDF01081D
S31508000140FDDF0108FDDF0108FDDF0108FDDF01080D
S31508000150FDDF0108FDDF0108C977020835960108A9
S31508000160FDDF0108FDDF0108F5550208FB55020809
S31508000180194A5AB3194BDB6913F0040F29D110B475
S315080001900AE003EA00048C4210D0013AB2B1134BCC
S315080001A0DB6913F0040F14D110F0010FF1D1104CD4
S315080001B01C40002CEDD06FF001000CE00C4A1A40F0
S315080001C00AB9002007E06FF0010004E06FF00200B2
S315080001D001E04FF0FF305DF8044B70476FF0020006
S315080001E070474FF0FF307047809698000000035024
S315080001F0020001000D4BDB6913F4803F12D170B584
S315080002000A4B03F580560124F46003F500552C6467
S315080002104FF480721A6100212046FFF7B1FF34645B
S31508000220EC6070BD6FF00100704700BF000003501E
S3150800023010B5124B4FF480329A6603F51C33DC690D
S31508000240144041F67132DA6303F580520121D16018
S31508000250586102221A6100212120FFF791FF40B15F
S31508000260074B0122DA601CB1A3F500530022DA63BA
S3150800027010BD00212120FFF783FFF1E70090005011
S315080002800020035038B51A4B5861DB6913F0040F88
S315080002902AD10C4654F8041B154B9961151F06E024
S315080002A0214651F8042B124B9A61043D0C465DB168
S315080002B008210846FFF764FF03460028F0D00C4AD9
S315080002C004211161184638BD094B04221A61002120
S315080002D02120FFF755FF03460028F3D100212120EE
S315080002E0FFF74EFF0346EDE74FF0FF33EAE700BF9F
S315080002F0000003502DE9F0410F46164605461A4BF5
S315080003004FF480329A6603F51C33DA6902F48038B2
S3150800031041F67132DA6303F580530122DA6000236D
S3150800032002E025442744361B8EB105F5005424F413
S31508000330FF5424F01F04641BB44228BF34462246E7
S3150800034039462846FFF79EFF03460028E9D0074AA4
S315080003500121D160B8F1000F03D0A2F500520021A7
S31508000360D1631846BDE8F081009000500020035084
S31508000370000000000000000000000000000000006F
S31508000380013800D0FCE770472DE9F04F2DED028BC0
S3150800039093B082460C4693461D4657EC106B8DED7E
S315080003A0080B32463B46304639461CF045F90028CC
S315080003B000F009814FF0FF32B14B304639461CF048
S315080003C063F9002840F0FF804FF0FF326FF4801386
S315080003D0304639461CF03AF9002840F0F4800022ED
S315080003E00023DDE90867304639461CF02FF9002856
S315080003F040F0FC809DED087B8DED067B209B13F479
S315080004008063119301D106231E93DDE90601024696
S31508000410C1F30A50C1F31303904643F07F5949F4D8
S315080004204019A0F2FF301BF035FE83A3D3E9002361
S315080004301BF09AFE82A3D3E900231BF0DFFC0646D5
S315080004400F4600228F4B404649461BF0D5FC7EA33B
S31508000450D3E900231BF088FE02460B463046394690
S315080004601BF0CCFC1CF01AF906461BF013FE80465E
S31508000470894677A3D3E900231BF076FE0022824B38
S315080004801BF0BCFC1CF00AF9074673A3D3E900234A
S31508000490404649461BF068FE8046894638461BF0AA
S315080004A0F9FD6FA3D3E900231BF05EFE02460B4657
S315080004B0404649461BF0A0FC8046894602460B4644
S315080004C01BF052FECDE90C0107F2FF37002100228E
S315080004D0CDE90A123B050B9300230A9342464B4685
S315080004E0404649461BF08AFCCDE90E0142464B467A
S315080004F000204FF080411BF07FFC80468946002291
S31508000500624BDDE90C011BF059FF0022604B1BF022
S3150800051075FC02460B46DDE90C011BF04FFF002275
S315080005205C4B1BF06BFC02460B46DDE90C011BF02D
S3150800053045FF02460B46404649461BF05FFC02460D
S315080005400B46DDE90E011BF039FF0022524B1BF06A
S3150800055055FCDDE90A231BF007FE8046894649EC6F
S31508000560188BDDE906231CF08FF840B1013E002206
S31508000570474B404649461BF021FF41EC180B06F154
S315080005806303C62B3BD80427209B13F4006F40D087
S3150800059035A3D3E90023DDE90689404649461CF020
S315080005A069F800283BD032A3D3E9002340464946E0
S315080005B01CF04CF8002832D01E9BB34221DD9E1B4E
S315080005C0731E1E931FE0209B02931F9B01931E9B85
S315080005D000939DED080B2B465A462146504600F0DF
S315080005E0CBF813B0BDEC028BBDE8F08F9FED227BF4
S315080005F08DED067B069607F100430793FEE6052771
S31508000600C2E700231E93209B43F4806320930027B0
S315080006103E461F9B9F4241D2A3EB070840E01E9B24
S31508000620002BF6D0119B002BF3D01E9B013B1E938B
S31508000630EFE700BFAFF30080FB799F501344D33F29
S31508000640B3C8608B288AC63F61436F63A787D23FCA
S3150800065071A379094F930A401655B5BBB16B024091
S31508000660EF39FAFE422EE63F2D431CEBE2361A3FDF
S315080006700000000080842E410000000000000000F9
S31508000680FFFFEF7F0000F83F0000E03F00002C402E
S3150800069000002440000018400000F03F4FF000081A
S315080006A0209B13F0020902D00FB14FF000083EB1AB
S315080006B053EC182BDDE906011BF080FECDE9060197
S315080006C000220023DDE908011BF0C0FF00283BD10A
S315080006D0209B23F400630293CDF804801E9B0093AD
S315080006E09DED060B2B465A462146504600F044F827
S315080006F0002F3FF476AF209B13F0200F2CD04FF03D
S31508000700450C00F101082B46024621466046D047B3
S3150800071086EAE672A2EBE67205230593013F049783
S31508000720002303930A230293F30F019300922B46A7
S3150800073042462146504623F084FBB9F1000F3FF4A8
S3150800074050AF02461F9F10E0DDE90601024601F19F
S315080007500043CDE90623BBE74FF0650CD1E7561CED
S315080007602B4621462020D0473246A2EB0B03BB423C
S31508000770F5D3104635E700BF2DE9F04F2DED028B76
S3150800078093B00590089192469B4659EC108B1E9D96
S3150800079042464B46404649461BF04EFF002840D08D
S315080007A04FF0FF326FF48013404649461BF04EFF68
S315080007B0002845D14FF0FF32B14B404649461BF061
S315080007C063FF00284BD1AAA3D3E900234046494634
S315080007D01BF05AFF00285AD1A7A3D3E900234046A5
S315080007E049461BF033FF002851D10022002340461A
S315080007F049461BF02BFF002857D100230993209B5D
S3150800080013F4806F5CD000241F2C5BD8092D59D9AE
S3150800081004F148036B44302203F8202C013D0134CF
S31508000820F2E7209B03931F9B029303230193954BA7
S3150800083000935B4652460899059823F028FA10E17A
S31508000840209B03931F9B0293042301938E4B0093D3
S315080008505B4652460899059823F019FA01E1209B50
S3150800086013F004030FD0894A7BB10423209903911E
S315080008701F990291019300925B4652460899059882
S3150800088023F005FAEDE0824AEEE70323EEE7209B24
S3150800089002931F9B0193009549EC108B5B465246C9
S315080008A008990598FFF770FDDBE042464B460020A5
S315080008B000211BF0A1FA80468946012309939EE789
S315080008C00625A0E7404649461BF0E8FE06461BF00B
S315080008D0E1FB02460B46404649461BF08DFA6D4B36
S315080008E003EBC50393ED008B53EC182B1BF03CFC74
S315080008F002460B46CDE906231BF0F8FE07461BF019
S31508000900B9FB02460B46DDE906011BF075FA0246FD
S315080009100B46CDE9062300225F4B1BF0B5FE50B30C
S31508000920013738461BF0A6FB02460B4651EC180B5E
S315080009301BF096FE08B10136002755BB30461BF062
S31508000940A9FB02460B46404649461BF055FA804627
S3150800095089460022504B1BF079FE38B100224E4BD7
S31508000960404649461BF090FE002842D016F0010F7B
S315080009703FD001363DE00022474BDDE906011BF07A
S3150800098065FE0028D9D117B117F0010FD5D0013768
S31508000990D3E71F2C17D8013D404BA3FB0723DB08E1
S315080009A0194603EB8303A7EB4303621C303304F1B8
S315080009B048000DEB000404F8203C092F02D90F4625
S315080009C01446E6E714461F2C0AD86B1E45B104F1F7
S315080009D048026A44302102F8201C1D460134F2E719
S315080009E01F2C06D804F148036B442E2203F8202C4A
S315080009F001341F2C17D82A4A82FB0632F317C3EB99
S31508000A00A2031A4603EB8303A6EB4303611C3033A8
S31508000A1004F148000DEB000404F8203C16460AB120
S31508000A200C46E6E70C46209B03F00303012B39D05E
S31508000A301F2C09D8099B002B51D004F148036B449D
S31508000A402D2203F8202C0134209B03931F9B02932D
S31508000A5001940AAB00935B4652460899059823F021
S31508000A6016F913B0BDEC028BBDE8F08FAFF300802A
S31508000A700000000065CDCD410000000065CDCDC168
S31508000A80FFFFEF7F609402086494020854940208FA
S31508000A905C940208709402080000E03FCDCCCCCCF0
S31508000AA0676666661F9BB3B1099B1BB9209B13F04B
S31508000AB00C0F12D01F9B013B1F93194606E004F149
S31508000AC048036B44302203F8202C01348C42AFD201
S31508000AD01F2CF4D9ACE71F99F8E71F99F6E7209B76
S31508000AE013F0040F07D004F148036B442B2203F8D4
S31508000AF0202C0134A8E7209B13F0080FA4D004F19A
S31508000B0048036B44202203F8202C01349CE700BFDD
S31508000B1038B50D46044626F08BFB064A13889BB269
S31508000B202DB123431380BDE8384026F07CBB23EA69
S31508000B300403F7E73C4B00200022034B01214FF446
S31508000B4080709A70E4E700BF3C4B00207FB54E6882
S31508000B5002A9044624F00FF89DF808300C2B19D189
S31508000B60134BB3F90050134B9E4218D807F09EFF5B
S31508000B7003460068694600909B882046ADF8043015
S31508000B8023F0E6FF70B140F25F620B490B480EF0A6
S31508000B9033F8FEE7204613F031FE0546E3E71FF07B
S31508000BA008FCE5E72946204623F0B8FF04B070BDE7
S31508000BB012510020FFC99A3B19970208E4940208CB
S31508000BC0002330B5134C85B0CDE901330393237860
S31508000BD08DF8043026F02CFBA288E38805469A4255
S31508000BE00DD0E188A06801AAA18023F04DFE58B176
S31508000BF040F2DA62084909480DF0FEFFFEE7A068F0
S31508000C0023F01BFE0128ECD0284626F00CFB05B085
S31508000C1030BD00BF4055002019970208E494020829
S31508000C2038B50F4C656835B940F2C7720D490E489C
S31508000C300DF0E2FFFEE723F0D9F9284410F02CFF67
S31508000C4000F00700032809D164680921204623F02B
S31508000C50E9FA205C031F5842584138BD0020FCE7DA
S31508000C603C4B002019970208E494020808B5114B7A
S31508000C709A78042A06D040F28E520F490F480DF092
S31508000C80BBFFFEE71B881B0706D440F28F520A49B2
S31508000C900A480DF0B1FFFEE700210820FFF738FFEC
S31508000CA00222074B98681A7313F062FBBDE80840E6
S31508000CB021F0A4BD3C4B002019970208E4940208D1
S31508000CC04055002010B5084CA06813F051FBA068E9
S31508000CD023F0B3FD012806D00122A0681146BDE81D
S31508000CE0104023F0ACBD10BD4055002038B5194D55
S31508000CF0AB7833B140F22B72174918480DF07CFFD8
S31508000D00FEE726F095FA2988044611F0060109D06F
S31508000D1001214FF48070FFF7FBFE2046BDE83840FE
S31508000D2026F081BA4FF48070FFF7F2FE12F072FCDB
S31508000D30012805D010F0FD0F05D1FFF741FFECE7BC
S31508000D40FFF7C0FFE9E740F24172034903480DF097
S31508000D5053FFFEE73C4B002019970208E49402086B
S31508000D6070B50446064D95F90860FFF7BFFF12F007
S31508000D704FFB314620466A68BDE8704012F080B9DC
S31508000D803C4B002008B50A4B1B88DB0606D440F20C
S31508000D90A752084908480DF02FFFFEE7002110204A
S31508000DA0FFF7B6FE12F0B2FCBDE8084021F026BDFA
S31508000DB03C4B002019970208E49402080D4B10B525
S31508000DC01B8804469B0713D500210220FFF7A0FEC7
S31508000DD0094B5A7BFF2A06D040F2E54207490848E4
S31508000DE00DF00AFFFEE75C73BDE8104021F006BD72
S31508000DF010BD00BF3C4B0020405500201997020843
S31508000E00E49402087047704707B5ADF80610014626
S31508000E1030B94FF4B572104910480DF0EDFEFEE7F3
S31508000E20BDF8063033B940F26B120B490B480DF08A
S31508000E30E3FEFEE70A4B0DF10602986823F052FF1F
S31508000E4030B140F26D12044904480DF0D5FEFEE7B4
S31508000E5003B05DF804FB00BF19970208E494020882
S31508000E604055002010B50E4CA37833B14FF4EA7202
S31508000E700C490D480DF0C0FEFEE7606019B1A17B74
S31508000E80003918BF01212020FFF742FE074B08480A
S31508000E909B7B23760223A370BDE8104010F0C8BCE4
S31508000EA03C4B002019970208E4940208405500209C
S31508000EB0584B002008B50CF0CDF980F00100C0B2FF
S31508000EC008BD0A4B9A780AB1062A0CD11B8803F486
S31508000ED08B7343B9064B5A7BFF2A04D1187BFF381C
S31508000EE018BF012070470120704700BF3C4B002007
S31508000EF04055002008B50CF09DF90028FBD108BD27
S31508000F000C4B42889A8142789A730278DA738288FF
S31508000F101A82C2885A82C2685A61017A064A91734D
S31508000F20028A998C914204D001214FF400709A8468
S31508000F30EEE570473C4B002040550020094B9A8946
S31508000F4042809A7B4270DA7B02701A8A82805A8AB9
S31508000F50C2805A699B8CC260034A0382927B0272E2
S31508000F60704700BF3C4B0020405500204B1E012B0C
S31508000F7070B50C4606D940F2B7221A491A480DF040
S31508000F803BFEFEE7194D0A460146A86823F0D4FE43
S31508000F9030B140F2B922134913480DF02DFEFEE791
S31508000FA0AE6810F0B9FB22460146304623F0BEFE75
S31508000FB030B140F2BD220B490B480DF01DFEFEE78D
S31508000FC0AD6810F0B5FB22460146284623F0BAFE66
S31508000FD030B140F2C122034903480DF00DFEFEE789
S31508000FE070BD00BF19970208E49402084055002016
S31508000FF0054BDB7B1B0913F00E0003D0052B8CBFBA
S3150800100000200120704700BF40550020044BDB7BC1
S315080010101B0913F00E0F0CBF01200020704700BFFC
S31508001020405500202DE9F04F15469A0580461F4683
S315080010308FB003D501218020FFF76AFDEB014FF041
S31508001040000955D5984C23889E0751D5974E737B32
S31508001050FF2B06D040F2AF42954996480DF0CCFDDD
S31508001060FEE7636833B94FF49662914991480DF0EB
S31508001070C3FDFEE749460220FFF74AFDA37886F836
S315080010800D90042B03D101210820FFF741FD002311
S31508001090B06808A98DF82C3023F06FFD30B140F206
S315080010A0BA42834983480DF0A7FDFEE7FFF7A0FF84
S315080010B0B0B922F09BFF8146606822F0A2FF08A91A
S315080010C08144B068ADF8249023F05AFD30B140F25F
S315080010D0C242774977480DF08FFDFEE7089BA36269
S315080010E0A378032B02D1B06813F042F921F086FBEE
S315080010F0B80702D50120FFF761FE15F0A84F02D008
S315080011000220FFF75BFEA90220D50021402003AC90
S31508001110FFF7FEFC2146404623F02CFEB0B99DF8A9
S31508001120143008AA022B22D18DF82830BDF80C30CD
S31508001130ADF82030104612F075F938B1404623F064
S3150800114017FE18B901214020FFF7E2FC2A0753D5FC
S31508001150564E0321B06803AA23F0C6FD814688B916
S3150800116040F2FE42524953480DF046FDFEE7032B76
S3150800117005BF8DF82830D4E900018DF82800C2E9AA
S315080011800001D7E79DF80C30B068072B40F01F81A7
S31508001190494608AA23F0AAFD30B140F20152444953
S315080011A044480DF029FDFEE7FFF722FFBDF80E20A3
S315080011B0A0B9FFF72BFF78B1043292B2B06808A93C
S315080011C0ADF8242023F094FD40B140F2125238497C
S315080011D038480DF011FDFEE70232EEE7BDF80E00C5
S315080011E00121073080B225F04FFF8246002842D100
S315080011F001210C2013F050F8A90705D52A4B1B88A6
S315080012001A0701D5FFF732FDAB010BD500210420E3
S31508001210FFF77EFC244B9B78012B03D1234B986860
S3150800122013F0A6F815F0284F03D000210420FFF785
S315080012306FFC7E060CD51C4C23881D0701D5FFF7CD
S3150800124015FD2388580703D500210420FFF760FC05
S31508001250F90540F1D88003A9404608AA23F0EBFA1D
S315080012600146002800F0BA8040F2D25210491148CF
S315080012700DF0C2FCFEE74FF0000B25F089FECDF815
S3150800128000B00246BDF80E3004464946B06823F061
S3150800129033FDBDF80E3083420ED040F22252044987
S315080012A004480DF0A9FCFEE73C4B00204055002001
S315080012B019970208E494020822F098FE204410F0D8
S315080012C0EBFB00F007000228DFF8589124D199F8C3
S315080012D00230042B90D122F089FE504B20448278AC
S315080012E01B789A4288D159460820FFF711FC22F04C
S315080012F07DFE204410F0D0FB9DF82E30C0F3001080
S31508001300307389F80830FFF78BFC00287FF474AF38
S31508001310B06813F02DF86FE722F068FE204410F04D
S31508001320BBFB83064AD522F061FE204410F0B4FBCD
S3150800133000F0070003280BD10921204622F072FF8E
S3150800134014F800B0ABF1040CDCF1000B4BEB0C0B02
S3150800135001210420FFF7DCFBB06823F0E0FCC9F8A4
S315080013602C00BBF1000F30D0B9F8003058062CD548
S3150800137000214020FFF7CCFB0126BDF80E309DF872
S315080013802E200120E254BDF80E309DF82F2023446C
S315080013909A71BDF80E10089A0131214410F08AFBA3
S315080013A0BDF80E3050461C44667125F0C5FE1C4B30
S315080013B0187810F043FB21F021FA1DE799F802305E
S315080013C0012B02D1B06812F0D3FF0026D5E723F02F
S315080013D06FFC4946B06823F08DFC0DE79DF80C308C
S315080013E003F0BF02032A01D0022B0FD10D4C23882C
S315080013F05A0702D50420FFF78BFB23889B0702D5E3
S315080014000120FFF7DBFC0FB0BDE8F08F4FF4BF6299
S31508001410054906480DF0F0FBFEE700BFA94B002082
S31508001420CC4A00203C4B002019970208E494020895
S3150800143008B50246FFF7DCFD30B1072A06D80020BA
S31508001440034B83F8302008BD7020FCE70220FAE73A
S315080014503C4B002008B50246FFF7CAFD28B100201C
S31508001460034B93F83030137008BD7020FCE700BFBB
S315080014703C4B002008B5074B01460022986823F02C
S315080014805BFC30B140F2EB22034904480DF0B4FB93
S31508001490FEE708BD4055002019970208E4940208A3
S315080014A008B5074B01460022986823F03FFC30B187
S315080014B040F2F122034904480DF09EFBFEE708BD01
S315080014C04055002019970208E494020808B5074B0E
S315080014D00146986823F03CFC30B140F2F7220449F3
S315080014E004480DF089FBFEE708BD00BF4055002003
S315080014F019970208E494020808B5074B9B7833B19C
S3150800150040F20132054906480DF076FBFEE7BDE8D4
S315080015100840FFF7EBBB00BF3C4B002019970208B9
S31508001520E494020808B5054B0146986823F0F6FAD4
S31508001530002814BF8B20002008BD00BF405500209E
S31508001540014B986813F05AB940550020014BD888CA
S31508001550704700BF405500207FB50123ADF80E3017
S315080015604FF6FE7309480093806800230DF10E02BA
S3150800157004A923F060FA212800D020B9BDF810008C
S3150800158007B05DF804FB4FF6FF70F9E740550020F9
S3150800159008B5044B0146986823F001FAB0FA80F0C2
S315080015A0400908BD4055002038B50B4D0446AB78B8
S315080015B0012B0DD8FFF7ECFF60B1084BDC80AB7848
S315080015C01BB9FFF793FB002038BDFFF7F9FAFAE7D6
S315080015D03E20F9E78A20F7E73C4B002040550020DB
S315080015E0024B9B780BB9FFF781BB70473C4B002039
S315080015F0014BD873704700BF3C4B002008B5064B1B
S315080016004FF0FF31986823F043F90028B8BF03303C
S3150800161040F3870008BD00BF4055002008B5044BBD
S31508001620986823F0B8F9034BB3FBF0F080B208BD15
S315080016304055002040420F0030B58DB02C2204469C
S31508001640002101A824F0A1F801234FF002328DF8F9
S3150800165008306423CDE9032306930B238DF82C3039
S31508001660214B9B8CADF80A30FFF7C2FCA8B140F2BB
S31508001670F23307934FF47A7305930CB9FFF722FBFD
S315080016801A4D01A9A86813F08DF9C0B140F2AC62F1
S31508001690174918480DF0B0FAFEE7FFF7BFFF0C230D
S315080016A04343902B0793A3F10A02D8BF91230592CF
S315080016B0D8BF0793059B8B2BDFD88C23DCE7FFF776
S315080016C0A5FC60B10122A868114623F04FFB30B192
S315080016D040F2AF62064907480DF08EFAFEE70CB9EC
S315080016E0FFF704FB0DB030BD3C4B002040550020F1
S315080016F019970208E4940208F8B525F099FD554CA7
S3150800170006462388D90503D5A37843BBFFF7EEFA27
S31508001710514D6B7BFF2B13D06B7B03F0FF0723BB6D
S31508001720FF236B73A378032B0AD100233046A370DB
S3150800173025F079FD3846FFF713FB25F079FD0646B7
S31508001740A378042B08D12B7BFF2B05D02B7B022BF0
S3150800175014D1424810F06CF8FF232B7327E00021C0
S315080017604FF48070FFF7D4F9D2E76B7B012B4FF06B
S31508001770FF0314BF89278D276B73D6E72B7B13B11D
S315080017802B7B012B1ED1FFF74BFA0022FF212B7B67
S315080017900746DBB222772973002847D0012B0AD1E6
S315080017A064212E48A37010F04EF8FFF709FA304668
S315080017B025F039FD06E03046A27025F034FD3120CB
S315080017C0FFF7CEFA23881A0608D500218020FFF7EE
S315080017D09FF9A86823F00DFA11F079FF23889B0575
S315080017E007D54FF400700021FFF792F90020FFF7A4
S315080017F023FF0BF01FFD608620B325F0C9FB0121EE
S315080018000546002012F048FDA678012E14D10026C0
S315080018102677A670FFF76AFA284611F053FBA378D5
S3150800182066867BB9BDE8F84011F0F2BDA070304677
S3150800183025F0F9FC3846C3E72EB1284611F042FBDD
S3150800184000236386F8BDFFF751FA284611F03AFBE4
S315080018506686F7E73C4B002040550020584B002091
S315080018608B4BF0B51B888B4C8B4D63848B4B85B0AB
S315080018701B68E3628A4B1B8823848A4B1B68A36216
S315080018802B88DB0700F1FC8001210846FFF740F9A9
S315080018900523854A04F1100104F10800AB7012F023
S315080018A029FD28B1F522814981480DF0A5F9FEE701
S315080018B0A3682BB9F7227D497D480DF09DF9FEE70F
S315080018C07C4823F000F870A3D3E90023CDE9002370
S315080018D04FF0FF324FF0FF33A06823F0A3F84FF420
S315080018E08811A06813F002F8014630B140F20F12D1
S315080018F06E496F480DF080F9FEE76F4B1B78012B98
S315080019000ED16E4AA06812F0C3FDA06813F078F8ED
S31508001910E0B140F21B12654965480DF06DF9FEE726
S31508001920674E316831B94FF48F72604960480DF0DF
S3150800193063F9FEE7614AA06812F0AAFD33689B685E
S3150800194023B1DB6913B15B7803B1E373FFF704FED8
S315080019500146E080A06812F017FF064630B140F253
S315080019602D12524952480DF047F9FEE7554B012012
S315080019701B78C3EB431203EB8203DB00AB84FFF750
S315080019805BFEA7680FF0D4FE32460146384623F0C0
S31508001990D9F9064630B140F23312444944480DF0AD
S315080019A02BF9FEE740F203530427AB81464BAF738E
S315080019B01B78EB73FFF732FE00EB80039B002B824C
S315080019C0FFF72CFEC00068823946A0686E6122F0D7
S315080019D0D1FF30B14FF4A172344935480DF00CF9F6
S315080019E0FEE73A46A06803A923F057F8042806D06C
S315080019F04FF4A3722D492E480DF0FEF8FEE703A911
S31508001A00012010F065F80BF09BF908224FF0FF3122
S31508001A10A06823F018F830B140F24F122349244841
S31508001A200DF0EAF8FEE713F06BF930B140F2551203
S31508001A301E491F480DF0E0F8FEE7FFF7D9FA68B12E
S31508001A401EF0B9FC0146A06823F082F830B140F2D6
S31508001A505912164916480DF0CFF8FEE7A468FFF7A5
S31508001A607BFD1A4B014603F10C02204622F00EFFBD
S31508001A7030B14FF4B0720D490D480DF0BDF8FEE7D0
S31508001A8005B0F0BDAFF300800A0020FF4203000056
S31508001A90109A0208405500203C4B0020149A020870
S31508001AA0129A0208189A0208390B000819970208B0
S31508001AB0E4940208690345EC8D4B00204D0B0008A1
S31508001AC064540020E5560020E45600204497020896
S31508001AD008B5044B986822F060FF034BB3FBF0F09F
S31508001AE080B208BD4055002040420F002DE9F04362
S31508001AF08C4D87B02B889B0706D440F24C728A49D6
S31508001B008A480DF079F8FEE7AB78033B012B06D936
S31508001B1040F24E72844985480DF06EF8FEE76A6811
S31508001B2032B940F25172804980480DF065F8FEE7F7
S31508001B307F4E2C88F77B14F0200418BF4FF47A7474
S31508001B404FEA1718FFF754FA00287DD0B8F1020FAC
S31508001B500AD0A8F10303022B74D940F265727249C0
S31508001B6072480DF049F8FEE7032795F8303008EB80
S31508001B70C80898446F4B104603EB4803B3F81C801B
S31508001B8022F03FFA4FF4FA534343B3FBF8F37822B3
S31508001B907733B3FBF2F31F44C7EB0717AB78FF00A5
S31508001BA0BFB204F5347417FA84F4042BA4B203D133
S31508001BB007F6E8072744BCB2D5F8048022F016FADF
S31508001BC00746686822F01DFA074422F035FABFB2C4
S31508001BD03F1A22F00BFA40440FF05EFF7378C0F309
S31508001BE040198DF80C30544BBFB2CDE904340024AB
S31508001BF022F02EFA009402463B464146B06823F08E
S31508001C0059F8287EB278737812FB00F29342C4BF63
S31508001C109B1ADCB22B88F18813F0200FB068B180CC
S31508001C208DF80C4003AB76D000934A46434B22F01E
S31508001C3022FE002873D040F224723B493B480CF040
S31508001C40DBFFFEE7062790E7FFF7E0F9002846D016
S31508001C50384B07F00F0708EBC801394403EB41037B
S31508001C601046B3F81C9022F0CCF9B8F1000F2CD02E
S31508001C70B8F1010F2CD14FF00408400080B2F319D7
S31508001C8093F834304BB14FF4FA52023303444344C9
S31508001C909BB25343B3FBF9F39CB2AB78042B8BD1BD
S31508001CA0FFF7BCFC374497F834308146053398442F
S31508001CB0FFF70EFF0C2308FB00F003FB09F909EBFD
S31508001CC0C009A1441FFA89F476E74FF00208D6E75F
S31508001CD040F28672144915480CF08EFFFEE7FFF7AE
S31508001CE0F7FE0746686822F08CF909307843AB7826
S31508001CF004EBC000042B84B27FF45EAFFFF78EFCC2
S31508001D000746FFF7E5FE602358430C2303FB07004D
S31508001D10204484B250E74A4622F0ABFD89E707B073
S31508001D20BDE8F0833C4B002019970208E4940208AA
S31508001D30405500204497020820A10700484B002080
S31508001D40F8B5494C258815F0020506D040F27512FB
S31508001D50464947480CF050FFFEE7257725F068FA14
S31508001D60238806465A070CD5424B986822F0D7FFB7
S31508001D70E36AC01AA38C984203D929460420FEF7C1
S31508001D80C7FE304625F04FFAA778022F37D125F03F
S31508001D904FFA2388064613F0040507D036480FF095
S31508001DA047FD3046BDE8F84025F03DBA25F03BFA38
S31508001DB0606811F067FB20B1A570BDE8F840FEF732
S31508001DC0CFBF25F035FA6668054622F00FF930448C
S31508001DD00FF062FE10F0200F0CBF0323042301212D
S31508001DE03846A370FEF794FEFFF780FE284625F0D6
S31508001DF01AFA01210846BDE8F84012F04DBA042F38
S31508001E0027D11C4B1B7BFF2B2DD1237EF3B125F04D
S31508001E100FFA238805465B0704D517480FF008FD17
S31508001E202846BFE725F0FFF9237E013B237625F0F8
S31508001E30FFF9044601210220FEF76AFEFFF756FE67
S31508001E40204625F0F0F901210820D4E74020A370A8
S31508001E50B3E7012F07D10023A370064B986812F049
S31508001E6087FA3120A9E7F8BD3C4B002019970208EC
S31508001E70E494020840550020584B002038B501214B
S31508001E8004461020FEF744FE064B9D68FFF7C6FB86
S31508001E90012200FB04F1044B284622F0D5FC002061
S31508001EA038BD00BF40550020850D000808B50A4B0F
S31508001EB01B88DB0606D44FF46172084908480CF003
S31508001EC09BFEFEE710200021FEF722FE054B9868D0
S31508001ED0BDE8084022F0C6BC3C4B00201997020812
S31508001EE0E49402084055002038B50E4D688E30B986
S31508001EF040F291320C490D480CF07EFEFEE725F0C3
S31508001F0047F80446688E25F061F8811F21440120B0
S31508001F100FF0DEFD064B0446986822F000FF001B12
S31508001F2038BD00BF3C4B002019970208E49402080C
S31508001F304055002010B5084C636833B94FF46872F1
S31508001F40064907480CF058FEFEE7064B986822F04B
S31508001F50E6FEA36AC01A10BD3C4B0020199702087A
S31508001F60E49402084055002038B50A4D688E30B909
S31508001F7040F2AA32084909480CF03EFEFEE725F071
S31508001F8007F80446688E25F021F8044414F8020C74
S31508001F9038BD00BF3C4B002019970208E49402089C
S31508001FA038B50A4D688E30B940F2B9320849094841
S31508001FB00CF022FEFEE724F0EBFF0446688E25F0BF
S31508001FC005F8044414F9070C38BD00BF3C4B002043
S31508001FD019970208E494020838B50A4D688E30B994
S31508001FE04FF47272084909480CF006FEFEE724F021
S31508001FF0CFFF0446688E24F0E9FF044414F9010C67
S3150800200038BD00BF3C4B002019970208E49402082B
S31508002010024B1888C0F3C010704700BF3C4B002025
S3150800202030B585B005466C460D4B0FCB84E80F00DE
S315080020300DB12B6800930B4B21460022986812F0CD
S31508002040F3FB044630B140F2E632074907480CF084
S31508002050D3FDFEE7FEF7B4FD204605B030BD00BF50
S31508002060CC9702084055002019970208E494020804
S3150800207030B5154D87B004460DF10701A86822F062
S31508002080D3FC30B140F2F732104911480CF0B4FDD8
S31508002090FEE79DF80720531EDBB2FD2B0FD90294ED
S315080020A0FF2A00D10394A86802A922F0A5FD40B131
S315080020B040F20442054906480CF09EFDFEE7012A57
S315080020C0EFE707B030BD00BF40550020199702085A
S315080020D0E494020808B5064B986822F09CFD30B1D6
S315080020E04FF48262034904480CF086FDFEE708BDFA
S315080020F04055002019970208E49402080122024B71
S315080021001146986822F09BBB405500207047F8B5E9
S31508002110064604200D4621F04BFF030622D5124F32
S31508002120BC78FCB926B1012E17D002242046F8BD8A
S3150800213001262846FFF72CFA0028F6D00B4800237C
S3150800214032462946806822F098FB40B14FF48A62ED
S31508002150074908480CF050FDFEE72646E9E706233E
S31508002160BB70E3E77024E1E73C4B002040550020B4
S3150800217019970208E4940208042010B521F018FF04
S31508002180030611D5094CA378062B0DD1084B986880
S3150800219022F075FB30B140F26A42064906480CF057
S315080021A02BFDFEE7A07010BD7020FCE73C4B00201D
S315080021B04055002019970208E49402081FB5044602
S315080021C001A812F0F9FA9DF80D3053B14CB1064B3F
S315080021D02078617818700020A27859709A7004B037
S315080021E010BD0220FBE700BF405500201FB504467E
S315080021F001A812F0E1FA9DF80D3053B14CB1002058
S31508002200054B1A7822705A789B786270A37004B0CE
S3150800221010BD0220FBE700BF40550020FFF7CEBFE8
S31508002220FFF7E4BF0348044B834202D0034B03B1D4
S3150800223018477047FC560020FC5600200000000096
S31508002240064B0749C91A891048BF0131491003D0FE
S31508002250044B0BB101481847704700BFFC560020D5
S31508002260FC5600200000000010B5064C237843B940
S31508002270FFF7D8FF044B13B10448AFF300800123DE
S31508002280237010BDCC51002000000000B8D302080E
S3150800229008B5054B1BB105490548AFF30080BDE8F5
S315080022A00840FFF7CDBF00BF00000000A0220020B5
S315080022B0B8D30208A3F5803A704700BF174B002B26
S315080022C008BF134B9D46FFF7F5FF00218B460F46C7
S315080022D01348144A121A23F058FA0E4B002B00D052
S315080022E098470D4B002B00D098470020002104008A
S315080022F00D000D48002802D00C48AFF300801AF0F4
S315080023003DFF2000290001F06BFA1AF0BDFB00BF63
S315080023100000080000000000000000000020002067
S3150800232000200020405200200000000000000000AD
S3150800233000B583B0074B0122DA60064B5B6913F0E0
S31508002340400FFAD1034968461DF099FE009803B07C
S315080023505DF804FB0040005910B582B004461BF036
S31508002360FAFA08B902B010BD00230093ADF804309C
S31508002370074B1B88ADF80230ADF8044040F2FF1356
S31508002380ADF800306946042020F0CBFAEAE700BF32
S315080023900851002008B513460A4601460448006855
S315080023A003F076FD00B908BD02480CF025FCFAE7F3
S315080023B0F8540020487902080A2800D9704730B531
S315080023C083B004460D466B4601AA014610480068CC
S315080023D003F0C4FC08B9019B23B10E480CF00CFCB1
S315080023E003B030BD009B2A4621460948006803F021
S315080023F0F5FB40B9214608480CF0FEFB294607487C
S315080024000CF0FAFBECE7214605480CF0F5FBE7E78C
S31508002410F854002050790208747902089079020865
S31508002420987902080A2800D9704710B5044601466B
S31508002430064B186803F0FAFD20B9214604480CF04B
S31508002440DBFB10BD03480CF0D7FBFAE7F854002075
S31508002450BC790208D879020838B51B4C6378022281
S3150800246062F383036370DBB26FF300036370DBB25E
S3150800247062F387136370DBB2012565F30513637096
S31508002480A3786FF30713A370DBB265F38303A37016
S31508002490DBB243F00303A370E0700C4B4FF4FA72FF
S315080024A01A80002128461BF0EDFB2A460021284603
S315080024B001F056FB20681BF079FA41F28831044B8B
S315080024C018680FF0C0F938BDBC2200200A51002058
S315080024D01C23002008B5294B1B78012B29D0022B79
S315080024E039D003B108BD264B1B78264A1278B3EBC0
S315080024F0420F05DA244A127C02F01802102A0DD17E
S315080025001F4B00221A70204B197CC1F340111F483B
S315080025101BF0B4FB1E4824F0F1F9E3E70133184A2F
S315080025201370194B197CC1F3401118481BF096FB20
S31508002530D8E7134B1B78134A1278B3EB420F03DA2A
S3150800254001330F4A1370CDE70D4B00221A7010485D
S3150800255024F0D4F9C6E70A4B1B780A4A1278B3EB7B
S31508002560420F03DA0133064A1370BBE7044B002215
S315080025701A70074824F0C2F9B4E700BFCD5100200D
S31508002580CF510020CE510020EC220020E48B020817
S31508002590C022002000B583B08C461146074B187040
S315080025A0074B83F800C00123019300230093054AD3
S315080025B0054825F085F803B05DF804FBCD510020E9
S315080025C0CE510020D5240008C022002010B50024D2
S315080025D0094B1C80094B197CC1F3401108481BF0B4
S315080025E04DFB1BF020FA214601201BF059FB054B39
S315080025F01B681C7010BD00BF0A510020EC22002089
S31508002600E48B02081C23002008B506481BF027FAAD
S315080026101BF098F9044B1880044B1B6800221A70AB
S3150800262008BD00BFE0220020B822002018230020A1
S3150800263008B501280FD0022819D000B108BD124BE1
S31508002640197CC1F3401111481BF018FB0021012029
S315080026501BF026FBF2E70C4B197CC1F340110B4823
S315080026601BF00CFB002101201BF026FBE6E7064BBE
S31508002670197CC1F3401105481BF000FB002101201D
S315080026801BF01AFBDAE700BFEC220020E48B0208F5
S3150800269070B5744B1A78292A73D02B2A2FD0282A7A
S315080026A004D0714B1B6800221A7070BD1C469A72C2
S315080026B05B78A27843EA0223E27843EA0243227966
S315080026C043EA0263214641F8143F04220520FFF736
S315080026D061FE237C012666F3C403254605F8103FF0
S315080026E03046FFF7A5FF324629460020FFF752FE7F
S315080026F00023E3725D4B18680FF09AF8D1E7594B3F
S315080027009A72597859769A78D87842EA00221879CE
S3150800271042EA0042587942EA00625B699342C0D1B4
S3150800272001291AD00029BCD14E4C207CC0F3C10027
S31508002730FFF77EFF4E4B1B6800201870C822022147
S31508002740FFF728FF012204F119010A20FFF722FEEC
S31508002750464B18680FF06CF8A3E7424CE07BFFF78E
S315080027607BFEC82201210020FFF714FF012204F195
S3150800277019010A20FFF70EFE3C4B18680FF058F8AF
S315080027808FE7384B9A725A7B022161F383025A7398
S31508002790D2B26FF300025A73D2B261F387125A7338
S315080027A0D2B2012161F305125A739A7B6FF30712AD
S315080027B09A73D2B261F383029A73D2B242F00302D9
S315080027C09A735878D87399781A7C61F3C4021A7484
S315080027D0D3B203F01803102B3BD0224BD9781A7CBE
S315080027E061F345121A741F4B1B7C13F0180F36D071
S315080027F01C4C20791F4D28701BF0BBF81E4B4FF45C
S31508002800FA721A80002101201BF03CFA01220021ED
S31508002810104601F0A5F9E0681BF0C8F8012204F19A
S3150800282010010020FFF7B6FD012204F10F01104642
S31508002830FFF7B0FD012229460220FFF7ABFD64220F
S3150800284002210020FFF7A6FE084B18680EF0F0FFDD
S3150800285027E7044BD2B26FF345121A74C3E7FFF7A2
S31508002860FBFDC5E7EC2200202423002028230020B6
S315080028701C230020D35100200A51002030B583B014
S31508002880294B5B7E23B9284B1B7C13F0180F40D1CC
S31508002890002101201BF010FA234C227E9DF80430FB
S315080028A062F301038DF80430627E9DF8043062F30A
S315080028B082038DF804301D481623037004224272E1
S315080028C09DF8042042701A4D2A88110A8170C27038
S315080028D0A3721BF0C4F84FF4FA71164B18680EF081
S315080028E0B2FF1BF02FF82880217CC1F34011124853
S315080028F01BF0BCF9114BC8221A804FF4FA61104B31
S3150800290018680EF0A0FF0F4B1B6800221A7003B060
S3150800291030BD0C4B1B6800221A70034B187CC0F3A1
S31508002920C100FFF785FEF2E7EC220020E022002036
S31508002930B822002018230020E48B02080A51002040
S315080029401C2300202023002070B908B5074B1B88DC
S315080029509BB203B108BD002101201BF0ADF9044B61
S3150800296018680EF065FFF5E7704700BF0A510020AA
S315080029702023002008B5044A1BF001F8034B186809
S315080029800EF056FF08BD00BFEC22002024230020CD
S3150800299038B504461FF0D1FFA04201D8012038BD42
S315080029A00546032001F0C2FA0028F8D01BF0AFF95B
S315080029B01BF0AEF92B4622460349044800681EF070
S315080029C0F2FD0020EBE700BFF0790208542700204B
S315080029D030B583B004468368C26853F822301D8830
S315080029E02846FFF7D5FF08B903B030BD002300938A
S315080029F0ADF80430164B1B88ADF80230ADF804501C
S31508002A006368E2689B1A012B1DDDA368013253F83F
S31508002A1022301B88ADF800301FF07FFF694603207F
S31508002A201FF07FFF0446032001F080FA0028DBD060
S31508002A301BF06DF91BF06CF922460649064B18681F
S31508002A401EF0B1FDD0E740F2FF13ADF80030E3E722
S31508002A500C510020287A02085427002030B583B08C
S31508002A6004468368C26853F822301D882846FFF753
S31508002A708FFF08B903B030BD00230093ADF80430CA
S31508002A80154B1B88ADF80230ADF804506368E26850
S31508002A909B1A012B1BDDA368013253F822301B88D1
S31508002AA0ADF80030694604201FF03BFF04460320BA
S31508002AB001F03CFA0028DDD01BF029F91BF028F9B3
S31508002AC022460649064B18681EF06DFDD2E740F20D
S31508002AD0FF13ADF80030E5E70C510020487A0208EC
S31508002AE05427002030B583B004468368C26853F87B
S31508002AF022301D882846FFF74BFF08B903B030BDC2
S31508002B0000230093ADF80430154B1B88ADF802304E
S31508002B10ADF804506368E2689B1A012B1BDDA368B5
S31508002B20013253F822301B88ADF80030694602207E
S31508002B301FF0F7FE0446032001F0F8F90028DDD05F
S31508002B401BF0E5F81BF0E4F822460649064B186820
S31508002B501EF029FDD2E740F2FF13ADF80030E5E795
S31508002B600C5100205C7A02085427002030B583B047
S31508002B708368C26853F822301C780023019343689F
S31508002B809B1A012B19DD01AA01211DF0D9FF014667
S31508002B909DF804001FF0BDFE054680B1022001F035
S31508002BA0C5F960B11BF0B3F81BF0B2F82A4606491E
S31508002BB0064B18681EF0F7FC01E01FF0AEFE204633
S31508002BC01FF0B3FE03B030BD787A02085427002000
S31508002BD010B503468168C26851F82200B0F90000B2
S31508002BE01A4C20805B689B1A012B0FDD013251F8C5
S31508002BF0223093F90010003918BF01211FF03EFE5C
S31508002C00A0B9032001F092F910B910BD0021F5E72B
S31508002C101BF07DF81BF07CF80D4B1C681FF032FE8C
S31508002C2002460C4920461EF0BEFCEEE7012001F0E4
S31508002C307DF90028E9D01BF06AF81BF069F8064907
S31508002C40034B18681EF0AFFCDFE700BF0C510020ED
S31508002C5054270020DC7A0208F07A020808B51FF02B
S31508002C6001FE032001F062F900B908BD1BF04FF818
S31508002C701BF04EF80249034B18681EF094FCF4E763
S31508002C80087B02085427002008B58368C26853F8F1
S31508002C9022301A88094B1A80032001F047F900B937
S31508002CA008BD1BF034F81BF033F8044B1A880449A6
S31508002CB0044B18681EF077FCF2E700BF6056002048
S31508002CC0287B02085427002008B5024B18680EF026
S31508002CD0AFFD08BD282300202DE9F04186B01FF07E
S31508002CE0DDFD0446894B1B7813F0020F2CD0884E65
S31508002CF013F0010F2AD0864F13F0040F28D0DFF8FF
S31508002D001082032001F012F928BB032001F00EF906
S31508002D1058BB032001F00AF9002835D1032001F039
S31508002D2005F900283ED1032001F000F9002847D113
S31508002D30032001F0FBF800285ED1032001F0F6F825
S31508002D40002867D1002471E0724ED1E7714FD3E7AE
S31508002D50DFF8C081D5E71AF0DAFF1AF0D9FF6E4915
S31508002D606E4B18681EF01FFCCFE71AF0D0FF1AF05A
S31508002D70CFFF6A4B1D6805F069FB02460B4668499A
S31508002D8028461EF010FCC4E71AF0C1FF1AF0C0FF6F
S31508002D90624B1D681FF05AFD0246624928461EF01E
S31508002DA002FCBBE71AF0B3FF1AF0B2FF5B4B1D68D3
S31508002DB01FF080FD02465C4928461EF0F4FBB2E788
S31508002DC01AF0A5FF1AF0A4FFE279A37961792079B0
S31508002DD0E57894F802C094F801E024780594CDF8D3
S31508002DE010E0CDF80CC00295019000914F494B4870
S31508002DF000681EF0D8FB9BE71AF089FF1AF088FFD7
S31508002E00464B1C681FF04EFD0246494920461EF0F7
S31508002E10CAFB92E71AF07BFF1AF07AFF45493F4B47
S31508002E2018681EF0C0FB8DE70134E4B2072C12D8EF
S31508002E30032001F07BF80028F6D01AF068FF1AF094
S31508002E4067FF364B1D681FF029FD025D3A49284683
S31508002E501EF0A9FBE8E7032001F068F898B90320FB
S31508002E6001F064F8C8B9032001F060F818BB032024
S31508002E7001F05CF868BB032001F058F8002836D149
S31508002E8006B0BDE8F0811AF042FF1AF041FF2B495F
S31508002E90224B18681EF087FBE1E71AF038FF1AF094
S31508002EA037FF1E4B1C681FF001FD024624492046C9
S31508002EB01EF079FBD7E71AF02AFF1AF029FF174BFD
S31508002EC01C681FF0D7FC02461E4920461EF06BFB05
S31508002ED0CDE71AF01CFF1AF01BFF104B1C681FF0F9
S31508002EE0D1FC0246184920461EF05DFBC3E71AF0DE
S31508002EF00EFF1AF00DFFCDF800803B463246134907
S31508002F00064800681EF04FFBBAE700BFD6560020F9
S31508002F10907A0208987A0208447B0208542700200F
S31508002F204C7B0208687B0208847B0208A07B0208A7
S31508002F30C47B0208E07B0208F47B02088C7902084D
S31508002F40FC7B0208187C0208307C0208487C0208D0
S31508002F5030B583B08368C26853F822301C7801A95B
S31508002F6020461FF083FC88B9032000F0DFFF08B96C
S31508002F7003B030BD1AF0CBFE1AF0CAFE019B2246FA
S31508002F800B490C4800681EF00EFBF1E705460120C8
S31508002F9000F0CCFF0028EBD01AF0B9FE1AF0B8FE04
S31508002FA02A460549034B18681EF0FDFAE0E700BFFC
S31508002FB0807C0208542700209C7C020870B5826831
S31508002FC0C36852F823100C88013352F823301D7851
S31508002FD0294620461FF099FC80B9032000F0A6FF79
S31508002FE000B970BD1AF093FE1AF092FE2B462246DF
S31508002FF00B490C4800681EF0D6FAF2E7064601208F
S3150800300000F094FF0028ECD01AF081FE1AF080FE3A
S3150800301032460549034B18681EF0C5FAE1E700BFBA
S31508003020C07C020854270020F07C020870B582B0E4
S315080030308368C26853F822301B78134A137013F05A
S31508003040020F0ED0114C13F0010F0CD00F4D13F0D8
S31508003050040F0AD00D4E032000F068FF38B902B0FD
S3150800306070BD0B4CEFE70A4DF1E7094EF3E71AF08E
S315080030704EFE1AF04DFE00962B4622460549064896
S3150800308000681EF090FAEAE7D6560020907A020801
S31508003090987A0208A47A02085427002030B58FB01F
S315080030A004460D4668461AF0F5FC0DF1200EEC466E
S315080030B0BCE80F00AEE80F009CE803008EE80300AA
S315080030C008A9464B186820F02EFA10F1880F46D149
S315080030D068461AF0DFFC0DF1200EEC46BCE80F003E
S315080030E0AEE80F009CE803008EE803004FF4105387
S315080030F0ADF820308023ADF822304FF440730793A3
S3150800310007A81AF0D7FC079B0A93354B0B93334B4A
S315080031101A68099B0D9213F0FF0F04D123F0FF03E1
S3150800312043F001030993012309932C4B2A462146B0
S3150800313008A820F015FA044610BB032000F0F6FE96
S3150800314090B9264B18681FF089FB0546002831D12F
S31508003150032000F0EBFE044610BB01242FE01F4BB2
S31508003160186820F0B7F9B3E71AF0D1FD1AF0D0FDC8
S315080031701A4B1A681B491C4B18681EF014FAE0E72C
S31508003180032000F0D3FE0028DBD01AF0C0FD1AF0A9
S31508003190BFFD22461549144B18681EF004FAD0E7FD
S315080031A01AF0B5FD1AF0B4FD11490F4B18681EF058
S315080031B0FAF904E0032000F0B9FE044610B92046E7
S315080031C00FB030BD1AF0A3FD1AF0A2FD2A46094930
S315080031D0054B18681EF0E7F90024F0E708230020DD
S315080031E000014405207D020854270020507D02086E
S315080031F0747D0208947D020800B583B00021019110
S3150800320001AA1DF09DFC019910290ED0032000F09B
S315080032108DFE60B11AF07BFD1AF07AFD1022054981
S31508003220054B18681EF0BFF901E0FFF737FF03B03A
S315080032305DF804FBB47D020854270020022900D05B
S31508003240704708B5024B186808B119F037FC08BD75
S31508003250804B002070B588B0012009F009FD434C69
S315080032607823E373237C43F020032374DBB26FF3E4
S31508003270C40323743E4E962333700225257604F143
S3150800328010010020FFF798F804F10F010120FFF75D
S3150800329093F831462846FFF78FF804F11801032002
S315080032A0FFF78AF804F119010A20FFF785F804F1F7
S315080032B014010520FFF780F80323237620F04FFA40
S315080032C02C492D4809F0DAFB2C492D4809F0D6FB84
S315080032D02C492D4809F0D2FB2C492D4809F0CEFB84
S315080032E02C492D4809F0CAFB01242C4B1C6002A866
S315080032F01AF0F7FB02A9204620F015F910F1880FFD
S315080033000FD0264B18681FF0A9FA1FF0FAFA2449BD
S31508003310244808F003FD184B18680EF089FA08B01F
S3150800332070BD1E4B1A68039B079213F0FF0F03D15B
S3150800333023F0FF03234303931B4B05934FF440737A
S31508003340019301A81AF0DDFB019B04934FF4105377
S31508003350ADF808308023ADF80A30012303930F4BEC
S315080033601022124902A820F0FBF8CAE7EC22002036
S31508003370D35100208D340008282300209126000808
S31508003380242300207D28000820230020CD250008BE
S315080033901C230020092600081823002008230020E3
S315080033A05C5400200C230020000144054C540020E6
S315080033B070B50020FFF736F80120FFF733F8022032
S315080033C0FFF730F80320FFF72DF80A20FFF72AF851
S315080033D0194C7820E073237C43F020032374DBB276
S315080033E06FF3C4032374FFF737F8144E9620307032
S315080033F01AF0BFFA002525766576012204F1180130
S315080034000320FEF7C7FF012204F119010A20FEF77F
S31508003410C1FF012204F110012846FEF7BBFF012275
S3150800342031460220FEF7B6FF012204F10F011046CD
S31508003430FEF7B0FF70BD00BFEC220020D35100207C
S3150800344008B5022912D80E4B1B7E13B1022B07D0E2
S3150800345008BD0020FEF780FF0A481AF045FFF7E787
S31508003460C82202210020FFF795F8F1E7064B1B68F2
S3150800347000221A70FFF79CFF1AF077FAE8E700BFF8
S31508003480EC220020E48B02081C23002010B582B031
S315080034901AF058FA82B2594B1A80594B1B7E022BE6
S315080034A02DD0032B7BD093B156481AF0D8FA4FF497
S315080034B0FA71554B18680EF0C6F91AF043FA4F4BD5
S315080034C01880524B1B6800221A7002B010BD9DF876
S315080034D00430012262F304038DF804309DF80430A9
S315080034E06FF346138DF80430464B15221A700221E5
S315080034F059729DF804105970414B9A72D4E79DF899
S31508003500001063F301018DF800103D4C617E9DF8B3
S31508003510003061F382038DF80030237CC3F3C10CBD
S315080035209DF800106CF3C4018DF80010C3F3401128
S315080035309DF8003061F345138DF80030A37A282BE7
S3150800354015D02B2B1FD0292BAED12E4B2921197024
S31508003550062159729DF800105970120A9A70D8708F
S31508003560274AD27B1A712A4A12785A719CE725494A
S3150800357028240C7004244C72214CE47A4C70140AEA
S315080035808C70C870DDE71F492B240C7006244C721A
S315080035909DF800404C70140A8C70C870D3E71D4B18
S315080035A01B78BBB1164B02221A76154B5B7E012B94
S315080035B014D0134B5B7E002B7FF476AF104B1B7C2D
S315080035C013F0180F12D00E4B187CC0F3C100FFF78A
S315080035D02FF869E70A4B00221A76E6E7084CE068F6
S315080035E01AF0E4F9E07BFEF737FFE2E7044CE068FF
S315080035F01AF0DCF9E07BFEF72FFF55E7B82200202A
S31508003600EC220020E0220020182300202823002096
S31508003610D3510020D0510020014B1878704700BFC5
S31508003620D251002070B50C468B681B78152B06D036
S31508003630184B9A7AA3681B789A4225D070BD154B09
S315080036401B7E002BF4D1134D287CC0F3C100FEF776
S31508003650EFFF02232B7601266E762B7C6FF3C403CD
S315080036602B74324605F118010320FEF793FE324605
S3150800367005F119010A20FEF78DFE324605F1100103
S315080036800020FEF787FED3E7034B1B6800221A705B
S31508003690D4E700BFEC2200201823002010B590388C
S315080036A0062846D8DFE800F00426304545373E00B0
S315080036B00124234B1C70C82202210020FEF76AFF52
S315080036C0204B1C70204B1B7E6BB11F4B1B7E022BA5
S315080036D019D11D4B03221A764FF4FA711B4B186841
S315080036E00EF0B1F80FE01A4B1988184B18680EF04F
S315080036F0AAF8EAE70020124B1870124B18706422D9
S315080037000521FEF747FF10BD4FF47A72022100200B
S31508003710FEF740FFF7E74FF47A7202210020FEF722
S3150800372039FFF0E74FF47A7202210020FEF732FFE4
S31508003730E9E74FF47A7202210020FEF72BFFE2E751
S31508003740D0510020D2510020EC220020282300204E
S315080037506056002008B523F0A7FF074B1B782BB14E
S31508003760064B1B68C01A064B984200D808BD054888
S315080037701AF0BAFDFAE700BFD15100201423002041
S31508003780A0860100E48B020810B582B0002304224B
S315080037900121084604F072FA0123042206210020BA
S315080037A004F06CFA002301221946104604F066FA62
S315080037B0012001900024009403462246214604F085
S315080037C0F3F90649204601F017FC1B2007F03AFCDE
S315080037D01B201DF093FE02B010BD00BF37DB0108A9
S315080037E008B51EF0DFFE00F017FA00F051FDFFF7EE
S315080037F0CBFF1AF09CF9074B18781AF0BAF800F0C4
S3150800380067F91EF0C1FE1EF0F6FE1EF0BEFE22F09F
S315080038103FFDF8E7D351002008B5024B1B6803B1FA
S31508003820984708BD5C23002008B5024B5B6803B1C6
S31508003830984708BD5C23002008B5024B9B6803B176
S31508003840984708BD5C23002008B5024BDB6803B126
S31508003850984708BD5C23002008B5024B1B6903B1D5
S31508003860984708BD5C23002008B5024B5B6903B185
S31508003870984708BD5C23002000B585B0094B186839
S31508003880094B1860094B0A4A13600A4A01920A4A08
S3150800389012680292039301A91DF074F905B05DF848
S315080038A004FB00BF80540020A0310020745400207F
S315080038B09C310020AC8B02083026002008B5024B4C
S315080038C018681DF073F908BD8054002038B507F054
S315080038D0EFFB0446064D2B68D3F8B00207F0DCFB75
S315080038E028681DF07DF9204607F0D6FB38BD00BFD5
S315080038F0805400200023062073B1704754B224B9BF
S31508003900013353B15DF8044B70470228F8D00868B4
S315080039100A4908601046F3E710B4094A52F823101A
S315080039200A7A022AEAD9032AEAD1441EE4B2012C09
S31508003930E6D90868014908601046E1E73026002004
S315080039408454002010B5A2B02024224600211AA8CB
S3150800395021F01BFF304B1A934FF4E1331C930223DB
S315080039608DF8753003238DF876302C4B1E9306237D
S315080039708DF87E3009238DF8803000211591169137
S315080039801791189119914FF480131593244B199395
S3150800399010911191129113911491224B1093224B6D
S315080039A014933C2201A821F0F0FE0DF1040E0DF14E
S315080039B0540CBCE80F00AEE80F00DCF80030CEF877
S315080039C000300DF1180E0DF1400CBCE80F00AEE802
S315080039D00F00DCF80030CEF80030144B0B930C9433
S315080039E001238DF834308DF83530114B0F93114B78
S315080039F01AAA01A9104807F007FC04469DF83730B3
S31508003A003BB100214FF4E1301AF0E6FA204622B025
S31508003A1010BD0321F6E700BF888F0208788F0208D9
S31508003A203C00015B010010004400015B34260020C5
S31508003A3098540020542600201027002008B531B9D4
S31508003A40084B1868036823B107F0F4FF01E0012961
S31508003A5000D908BD034B18680368002BF9D01EF07F
S31508003A6084F8F6E7AC54002008B50349034808F083
S31508003A7055F9FFF767FF08BDB05400203827002026
S31508003A8008B502481DF0D5FD08BD00BF1027002067
S31508003A9008B502481DF0CDFD08BD00BF102700205F
S31508003AA008B5024B5A6A1868904708BD10270020C7
S31508003AB008B502481AF014FB08BD00BFCC8B0208F3
S31508003AC008B502481AF00BFC08BD00BFE48B0208D3
S31508003AD070B590B001212A2003F0D6F800250D957F
S31508003AE00E950F951B4E2A461B49304604F050F991
S31508003AF08DF839000DF10C0C184C0FCCACE80F0002
S31508003B000FCCACE80F0094E803008CE803004FF4F0
S31508003B10966306930195029503238DF806308DF872
S31508003B20065001238DF800308DF801508DF80250AB
S31508003B308DF8035010238DF8013003AA0DA93046DD
S31508003B4004F066F96A4601A930461CF059FA10B025
S31508003B5070BD00BF0040005940420F00FC8B0208B0
S31508003B6042B9C0B201228A4000EB40000001074B6F
S31508003B701A507047012A00D07047C0B201228A4005
S31508003B8000EB40000001024B1A50F5E740E00350F5
S31508003B9040D0035000B583B00B460549097801911A
S31508003BA00092002201211EF09DFE03B05DF804FB81
S31508003BB0D656002070B5044606790568FA2022F024
S31508003BC081FF854205D2134B03EBC60300221A7107
S31508003BD070BD25684FF47A7022F074FF854205D2CD
S31508003BE00C4B03EBC60301221A71F1E7246840F671
S31508003BF0B83022F067FF844205D2064B03EBC603B2
S31508003C0002221A71E4E7034B03EBC60303221A7177
S31508003C10DEE700BF4C27002038B5114B18681AF0AC
S31508003C203DF9054698B9002408E00E4B53F82400E0
S31508003C301AF05DFA01280CD00134E4B2002CF4D055
S31508003C40094B00221A70064B18681AF037F92846ED
S31508003C5038BD23F029FD054B43F83400ECE700BFD7
S31508003C6048270020B8540020D75600204C270020AB
S31508003C7000B9704730B583B00446104D104928681E
S31508003C801DF091FC1AF043F81AF042F80D4B009318
S31508003C904FF48D730C4A0D4928681DF084FC2346A1
S31508003CA00B4A0C4928681DF07EFC204600F086F970
S31508003CB0094928681DF077FC00BEFDE75427002057
S31508003CC08C790208D48C0208248C0208948C020889
S31508003CD0A08C0208A88C0208C08C020800B589B01E
S31508003CE000230BB1002312E00022244941F82320C7
S31508003CF02349CA540133DBB2F3E7224A02EBC30174
S31508003D0004200871002142F833100133DBB2002B7E
S31508003D10F3D0002301930293039304930593069328
S31508003D2007939DF8043043F001038DF80430DBB2A5
S31508003D3043F008038DF80430DBB243F020038DF816
S31508003D400430114B0293114B039302238DF8103064
S31508003D504FF4806305930523ADF818300423ADF8B6
S31508003D601A30082307930A4901A800F045F910B943
S31508003D7009B05DF804FBFFF77BFFF9E7442700204D
S31508003D80402700204C270020953D0008E1DC01086B
S31508003D904827002010B584B001AA02A9124B18685A
S31508003DA01AF0CEF8E0B902A8FFF704FF00242CB1F8
S31508003DB00D4B18681AF082F804B010BD0B4B03EBD4
S31508003DC0C4031979042902D10134E4B2EFE7204685
S31508003DD0FFF736FB054B03EBC40304221A71F3E71E
S31508003DE0FFF746FFE8E700BF482700204C270020DA
S31508003DF01D4B1B78002B36D170B582B000240CB150
S31508003E0002B070BD194B53F82430834202D00134F6
S31508003E10E4B2F4E71AF06BF901281ED023F044FC4B
S31508003E20134B53F83460861B00968DF804402820FF
S31508003E3022F048FE864205D80D4B03EBC4031B79D6
S31508003E40052BDDD1082269460A4B18681AF046F890
S31508003E500028D5D0FFF70CFFD2E723F025FC044B4A
S31508003E6043F83400CCE77047D7560020B8540020F2
S31508003E704C2700204827002010B58368C26853F8ED
S31508003E8022301C7804B10024064B1B5D03B110BD1B
S31508003E9023F00AFC044B43F82400024B01221A556E
S31508003EA0F5E700BF402700204427002038B583687F
S31508003EB0C26853F822301C7804B10024194B1B5DE4
S31508003EC0012B00D038BD23F0EFFB174B53F82450D5
S31508003ED0451B144B00221A55FA2022F0F3FDA8427E
S31508003EE004D900212046FFF7ABFAEBE74FF47A70C6
S31508003EF022F0E8FDA84204D901212046FFF7A0FADE
S31508003F00E0E740F6B83022F0DDFDA84204D90221E8
S31508003F102046FFF795FAD5E703212046FFF790FAE2
S31508003F20D0E700BF402700204427002003460B4A5D
S31508003F30107828B10A4A12789A4202D2002000E084
S31508003F400120084A12783AB1074A127842FA03F36E
S31508003F5013F0010F00D10020704700BFDA56002089
S31508003F60D9560020D5510020D856002008B5084B50
S31508003F7001221A70074B00221A70074B04221A7086
S31508003F80064B1F221A7007F093F8054B186008BDF8
S31508003F90DA560020D5510020D9560020D8560020E0
S31508003FA05427002008B50349034B18681DF0FBFA8F
S31508003FB008BD00BFEC8C02085427002070B50646E1
S31508003FC00A4C0B4920681DF0EEFA07F071F8054611
S31508003FD0206807F061F83046FFF7E4FF284607F047
S31508003FE05BF8044920681DF0DEFA70BD54270020EE
S31508003FF0F08C0208F48C0208F8B500284FD00D465C
S31508004000044600294DD0037813F0030F36D04268D2
S31508004010002A48D013F0080F02D0A28A002A44D0FA
S3150800402013F0200F05D0E38A002B40D0A369002B9C
S315080040303FD02C201DF0F3FE064600283BD02C224C
S31508004040002121F0A2FB21686268A368E06871601C
S31508004050B260F360306121696269A3697161B26116
S31508004060F361237813F0040F0ED000272E606368DF
S3150800407043B13146114819F0D3FF03E04268002ADC
S31508004080C8D021273846F8BD0121304619F0D2FE9E
S3150800409007460028EAD030461DF0A0FFF2E722279F
S315080040A0F0E72227EEE72127ECE72127EAE7212791
S315080040B0E8E72127E6E71927E4E700BF58270020A5
S315080040C008B5034819F0A5FF19F039FD08BD00BF6A
S315080040D05827002010B50B4B1C6802E023F090F817
S315080040E0246864B123F091F894F82030002BF5D0B9
S315080040F0A36A002BF2D023F083F8002000E0012009
S3150800410010BD00BF5827002010B50B4B1C6802E0F5
S3150800411023F076F8246864B123F077F894F8203011
S31508004120002BF5D0A36A002BF2D023F069F80420FF
S3150800413000E0012010BD00BF5827002010B50C4B29
S315080041401C6802E023F05CF824687CB123F05DF873
S3150800415094F82030002BF5D0A36A002BF2D0013B4F
S31508004160A36223F04DF8A3689847EDE710BD00BF9A
S315080041705827002008B5044823F01CF919F001FD5A
S3150800418000F086F808BD00BF708F020808B502481F
S3150800419023F010F908BD00BF708F02082DE9F04121
S315080041A080460F4601F109050026344604E05B21E6
S315080041B0082000F093FA0134AC4233D2052C1BD800
S315080041C001A353F824F000BFAF410008E1410008FD
S315080041D015420008E9410008ED410008F1410008D0
S315080041E0FBB20433D9B2E3E78021E1E70021DFE738
S315080041F0731C3146DEB2DBE7BB1DA3420CD0FB1DA8
S31508004200A3420BD007F10803A34209D0A31F18F84D
S315080042100310CDE7D121CBE75A21C9E75A21C7E7D1
S315080042205D21C5E70020BDE8F08100BF00B583B079
S3150800423000220092019202218DF80010054819F01B
S31508004240B5FE019008216846FFF7A8FF03B05DF8A0
S3150800425004FB00BF006A180000B583B0044B1B8836
S31508004260ADF8043001A800F015FB03B05DF804FBB7
S31508004270F88C020800B583B0044B1B88ADF80430EF
S3150800428001A800F0D7FA03B05DF804FBF88C020821
S315080042902DE9F04F97B04D4D09AC2E1D0FCE0FC42A
S315080042A03368236001AC05F118060FCE0FC496E8F3
S315080042B00F0084E80F00464823F07CF8454823F0B1
S315080042C079F801268DF8096000248DF80840424BDC
S315080042D00B9301AB0D93414F09A938461BF041FEDC
S315080042E0B5F838B0ADF838B0324604210EA800F05B
S315080042F065FAB5F83CA0ADF83CA0224631460FA8B1
S3150800430000F05CFAB5F84090ADF8409032460421CA
S3150800431010A800F053FAB5F80080ADF8448032468C
S31508004320042111A800F04AFA2D4D2E4BC5F8F83491
S315080043304FF00213C5F8F434A3F58033C5F8FC34FE
S315080043401C23C5F8E4344FF4487008F035FBFFF732
S3150800435083FF142008F030FBFFF78CFF232008F0BA
S315080043602BFBFFF779FFB92138461BF0E2FDFFF773
S3150800437081FFADF848B02246214612A800F01EFA81
S31508004380ADF84CA02246214613A800F017FAADF85E
S3150800439050903246214614A800F010FAADF8548021
S315080043A03246214615A800F009FA384603F086F980
S315080043B0C5F8E444C5F8F844C5F8F444C5F8FC441F
S315080043C0044822F0FCFF17B0BDE8F08FF88C02080D
S315080043D0708F0208748F0208E070720000000A509D
S315080043E000C003500200030008B50448044A121A24
S315080043F09210044919F003FE08BD00BF80010008A9
S31508004400800300084052002008B5154B83F30A883C
S3150800441000F030F8FFF7E8FF124A0AE01068516822
S3150800442050F8230041F82300013391688B42F5D3F5
S315080044300C320D4B9A4201D20023F6E70B4A08E0EC
S315080044401168002041F82300013351688B42F7D3E5
S315080044500832074B9A4201D20023F6E7FDF72EFFF2
S3150800446000000020C0D30208CCD30208CCD302082F
S31508004470CCD3020870B5134B134A9A60D3F8882038
S3150800448042F47002C3F88820104A4FF480419166BE
S315080044900F4D05F500544FF0FF3222660D4A62664D
S315080044A00222C3F8D020BFF34F8FBFF36F8F0020CF
S315080044B006F0C8FD4FF44036E66000201DF01EF8F1
S315080044C02E6170BD00ED00E000000008009000506D
S315080044D0008000447FFF7F01014B1860704700BFD2
S315080044E0CC54002008B5064B1860064B1B6F03F02A
S315080044F00703032B00D008BD21F0CEFBFBE700BF66
S31508004500D454002000800050BFF34F8F0549CA6875
S3150800451002F4E062044B1343CB60BFF34F8F00BF36
S31508004520FDE700BF00ED00E00400FA05F0B184469F
S31508004530F1B110B409E004F120000FE02033C01AED
S3150800454018D1BCB10CF1010C01319CF800400B4BA1
S315080045501B5D03F00303012BEDD020460B78074AB9
S31508004560D25C02F00302012AE9D1E7E7012070478D
S31508004570012070475DF8044B704700BF85D20208DA
S3150800458030B587B00546046823798DF80C30637911
S315080045908DF80D301A4822F00DFF0022012103A8DC
S315080045A000F00CF90DF10B0103A819F061FE9DF856
S315080045B00B302370A379022B02D0002007B030BD40
S315080045C04FF0FF330593049300950E4B012205A97E
S315080045D003A800F02FFA059BB3F1FF3F07D000951B
S315080045E0084B022204A903A800F084F9E5E7009520
S315080045F0044B042204A903A800F07CF9DDE700BFF8
S31508004600708F0208FDE0010810B582B000240194FD
S315080046102A4822F0CFFE8DF8004003238DF801309A
S3150800462001220421684600F0C9F8254B0122C3F887
S31508004630442401A9052022F0B6FE00283BD1214BCF
S31508004640D3F8F02042F00102C3F8F020D3F8FC209A
S3150800465042F08072C3F8FC20A3F55D431A4A1A603B
S31508004660019B03F5D52303F2FC43DB08174AA2FB9B
S3150800467003239B0A013B164A13610223C2F8F03052
S315080046804FF48073C2F804334FF06043114AC3F8FD
S31508004690B02F114AC3F8802ED3F8002E42F4807248
S315080046A0C3F8002EFF2283F82020D3F8002E22F428
S315080046B08072C3F8002E02B010BD00BF708F0208CA
S315080046C000D0035000ED00E0FF030040179165029B
S315080046D0000004E055CEACC5090001004FF0604368
S315080046E0D3F8803E13F0010F01D1112070470E4A0E
S315080046F0D2F8FC3043F08073C2F8FC304FF06043C8
S31508004700D3F8002E4FF0010C0CFA00FC42EA0C021A
S31508004710C3F8002E53F82030002BE8D04FF0604342
S3150800472003F820100020704700ED00E010B504469D
S315080047300FE00123834024EA03040F2814D800EB72
S3150800474040020E4B03EB82035A6812B19968C0B255
S31508004750904794B1234600201F28EAD813F0010F8A
S31508004760E7D101305B08F7E7103800EB40039B0000
S31508004770B033024A13440433E6E710BD5C27002031
S3150800478008B50D4822F016FE1A2006F04BFC28B98B
S315080047901B2006F047FC40B9002008BD1A2006F089
S315080047A051FC1A201CF0AAFEF2E71B2006F04AFC70
S315080047B01B201CF0A3FEEFE7708F02082DE9F041DD
S315080047C070B30C46174605460F292BD803784BB10C
S315080047D0022B20D0032B21D0012B01D0002303E08C
S315080047E07F2301E040F2FF736A78D34013F0010F8C
S315080047F01AD00F4BD3F81063C6B922F019FD8046BC
S315080048003A462146284603F067FE404622F00BFD4D
S315080048103046BDE8F08140F2FF33E5E73F23E3E7A2
S315080048202226F5E72126F3E72126F1E70226EFE718
S3150800483000C0035040B310B5044603784BB1022BB1
S315080048401DD0032B1ED0012B01D0002303E07F23AC
S3150800485001E040F2FF736278D34013F0010F15D0E0
S3150800486022F0E6FC237862780121914003EB4303AA
S315080048701B01074AD15022F0D6FC002010BD40F299
S31508004880FF33E8E73F23E6E7222070472120F5E7D4
S3150800489040D0035040B310B5044603784BB1022B01
S315080048A01DD0032B1ED0012B01D0002303E07F234C
S315080048B001E040F2FF736278D34013F0010F15D080
S315080048C022F0B6FC237862780121914003EB43037A
S315080048D01B01074AD15022F0A6FC002010BD40F269
S315080048E0FF33E8E73F23E6E7222070472120F5E774
S315080048F040E00350002866D02DE9F0410C461546E5
S315080049001F460646002960D002784AB1022A3ED0E0
S31508004910032A3FD0012A01D0002303E07F2301E0C8
S3150800492040F2FF737178CB4013F0010F01D1FF2AD3
S315080049304DD1022D01D9042D4BD122F079FC8046A8
S315080049403378FF2B28D12368B3F1FF3F2BD0226899
S31508004950B2F1FF3F32D0204B02EB420203EB820258
S315080049605760226802EB420203EB8203069A9A60BA
S315080049703378FF2B05D0226801239340174AC2F8E3
S315080049802434404622F04FFC0020BDE8F08140F276
S31508004990FF33C7E73F23C5E72A462168304603F0B9
S315080049A005FE2060CFE73378FF2BD0D10C4BD3F828
S315080049B0241470781BF0A4FC2060C8E7404622F057
S315080049C032FC2D20E1E7222070472220DDE7212056
S315080049D0DBE72120D9E700BF5C27002000D0035081
S315080049E000C00350B0F1FF3F1AD038B504460F286F
S315080049F018DC002818DB22F01BFC0123A3400B4A15
S31508004A00C2F82034C2F82434094B04EB440203EB01
S31508004A10820200255560956022F005FC284638BDBF
S31508004A20212070472120FAE72120F8E700E003500B
S31508004A305C270020002856D02DE9F0410C46174681
S31508004A401E460546002950D0017849B1022939D0B9
S31508004A5003293AD0012901D0002303E07F2301E08E
S31508004A6040F2FF736A78D34013F0010F01D1FF2992
S31508004A703DD122F0DDFB80462B78FF2B27D122681B
S31508004A80B2F1FF3F2AD01B4B02EB420203EB820234
S31508004A90C2F8B860226802EB420203EB8203069A68
S31508004AA0C3F8BC202B78FF2B06D0226810320123CE
S31508004AB09340114AC2F82434404622F0B4FB002041
S31508004AC0BDE8F08140F2FF33CCE73F23CAE73A4618
S31508004AD02168284603F00AFE2060D0E7404622F007
S31508004AE0A2FB2D20ECE7222070472220E8E72120B0
S31508004AF0E6E700BF5C27002000D0035008B5084B46
S31508004B00D3F82404D3F82024104000F0553020F0C0
S31508004B10502003F50053C3F82004FFF707FE08BD2D
S31508004B2000C0035008B5084BD3F82404D3F8202452
S31508004B30104000F0AA3020F0A02003F50053C3F877
S31508004B402004FFF7F3FD08BD00C0035010B582B07E
S31508004B5004460A4822F02EFC23788DF80430637840
S31508004B608DF80530A278B2FA82F2520904210DEBCB
S31508004B700100FFF723FE002002B010BD708F020867
S31508004B80F0B585B00C4694469DF83410664A1278FE
S31508004B90002A00F0BD800546BCF1070F00F2BA8076
S31508004BA00A9A002A00F0B8800B9A002A00F0B6800C
S31508004BB00E9AB2F5006F00F3B38001285BD05B4A0A
S31508004BC002EB0C12127B002A00F0AC800022009245
S31508004BD0019202920392564A02EB4C1E002C4FD1C8
S31508004BE04FEA4C1600209051CEF80400CEF8080083
S31508004BF0CEF80C009EF8020040F010008EF8020075
S31508004C009EF8030040F030008EF8030021B9C1B2C7
S31508004C1041F003018EF8031000930E9B013B444AB2
S31508004C204FEA4C1002EB4C11165A63F30E16165245
S31508004C300A9B8B600B9B4B60CB789DF83C2062F3FC
S31508004C408303CB70012D36D0109B002B56D0374AE4
S31508004C504FEA0C1102EB0C1310985050119A5A6037
S31508004C6000249C605D7372466946604603F0F6FA56
S31508004C70204605B0F0BD0C9A002AA0D12D48F8E7C9
S31508004C802B4F4FEA4C1607EB4C120020B8515060D8
S31508004C909060D060907840F010009070D07840F026
S31508004CA00300D0700029B7D107EB4C12C1B241F00E
S31508004CB03001D170B0E70E460A7B42F001020A7352
S31508004CC0D2B242F002020A73CA68042161F39F0253
S31508004CD0F26006F1100796E80F0087E80F00F26900
S31508004CE06FF0030161F39F02F2610C9B7361012C63
S31508004CF0AAD10B9AB2610C9A7260A5E7002DA6D1CB
S31508004D000B4B03EB4C139A786FF304129A709EE7D9
S31508004D100948AEE70748ACE70648AAE70548A8E702
S31508004D200448A6E70548A4E7D6510020C429002070
S31508004D30C4280020018000F0028000F0078000F0FF
S31508004D40134B1B78FBB110B50446F0B122F070FA8C
S31508004D500023072B13D80F4A02EB0312127B0AB162
S31508004D600133F6E723600B4A190102EB031301240A
S31508004D701C730024545022F056FA204602E022F012
S31508004D8052FA054810BD054870470548FAE700BFBE
S31508004D90D6510020C4290020048000F0028000F0CB
S31508004DA0018000F038B522F043FA04460023072BA9
S31508004DB006DC0C4A02EB0312127B12B90133F6E742
S31508004DC0002222B1204622F02EFA074838BD03F009
S31508004DD0F1F90025054B1D70204622F024FA2846D5
S31508004DE0F4E700BFC4290020058000F0D651002052
S31508004DF00F4B1B78BBB110B50446072815D822F00F
S31508004E0017FA0C4B03EB04131B7B1BB922F00BFAA6
S31508004E1009480BE0074B03EB041300241C7322F02C
S31508004E2002FA204602E005487047054810BD00BF53
S31508004E30D6510020C4290020068000F0028000F028
S31508004E40018000F000B583B0134B1B680193002363
S31508004E508DF8043022F0ECF9104B1B7833B90F4B60
S31508004E6001221A7022F0DFF9002309E022F0DBF9AB
S31508004E700B480EE00B4A02EB0312002111730133B3
S31508004E80072BF7DD08238DF8073001A803F0B6F9DC
S31508004E90002003B05DF804FB3C8D0208D6510020C3
S31508004EA0038000F0C429002010B5104C2478BCB14A
S31508004EB0072817DC0E4C04EB0014247BA4B10C4C19
S31508004EC04FEA001E04EB001C44F80E30029BCCF897
S31508004ED004300024CCF8084003F0C0F9204610BD81
S31508004EE00448FCE70448FAE70448F8E7D6510020E6
S31508004EF0C4290020028000F0018000F0078000F03D
S31508004F0008B50A4B1B785BB107280BD8084B03EB8F
S31508004F1000131B7B43B1002103F062F9002008BD92
S31508004F200448FCE70448FAE70448F8E7D6510020A5
S31508004F30C4290020028000F0018000F0078000F0FC
S31508004F4008B50A4B1B785BB107280BD8084B03EB4F
S31508004F5000131B7B43B1012103F042F9002008BD71
S31508004F600448FCE70448FAE70448F8E7D651002065
S31508004F70C4290020028000F0018000F0078000F0BC
S31508004F80F8B5194B1F6D5B6D1F4002D4012500242F
S31508004F9002E0FEE701346D00072C24D83D42F9D023
S31508004FA0124B1D652301124AD358002BF2D002EB8F
S31508004FB00416B1680131B16072682046984780F0DE
S31508004FC00100C0B2737B012BE4D10028E2D0094B63
S31508004FD003EB44131A7B6FF341021A731A7F6FF3BC
S31508004FE041021A77D6E7F8BD0000045000200450A5
S31508004FF0C4290020C428002000B585B0FF238DF8F9
S315080050000C308DF80D3002900F2809DC0091094B01
S31508005010002202A903A8FFF76DFC05B05DF804FBA2
S31508005020103802900091034B002202A903A8FFF74B
S3150800503001FDF2E7D7E301082DE9F04F89B00546EF
S315080050400E4614469846C36B5B69012207A9606839
S315080050509847EB6B5B69012206A93046984707A873
S315080050601AF09CFB48B10027A77567754FF0FF3308
S31508005070A360384609B0BDE8F08F074606A81AF0BF
S315080050809DFB0123A375237E033304EBC3035E60F4
S3150800509000221A816368B3422AD02368834201D06A
S315080050A00023A37506A81AF0AEFB237D984201D00B
S315080050B00023A37506A81AF085FB814607A81AF0EF
S315080050C081FB814501D00023A37506A81AF082FB4F
S315080050D0814607A81AF07EFB814501D00023A375F7
S315080050E0237D043BDBB2022B0BD80023A375C0E754
S315080050F0206006A81AF087FB20754FF0FF33A360DF
S31508005100EEE706A81AF05EFB80B1EB6B5B6902223C
S3150800511004A93046984704A81AF067FB0346207D81
S31508005120032868D8DFE800F0615B070D06A81AF0C7
S315080051305CFB0346F3E7237E033304EBC303CC226D
S315080051401A811AF070FB129B187094F8189006A82A
S315080051501AF02BFB09F1030904EBC90989F80A00BF
S31508005160237E033304EBC303B3F808A093F80AB00D
S3150800517006A81AF027FB814606A81AF02BFB03900F
S31508005180B9F1000F3DD0EB6B5B69022204A93046EA
S31508005190984704A81AF0E5FA6075637D03B9A37504
S315080051A0A37DA3B1BAF1000F11D0039BF1186B6C64
S315080051B05B4286EA01021A4201D00023A3756B6C92
S315080051C05A1E0A409B1A9A4501D90023A375A37D46
S315080051D0002B40D0BBF1000F18D1E77D3CE0227EC2
S315080051E0033204EBC2021381ABE7227E033204EBDF
S315080051F0C2021381A5E7227E033204EBC2021381A1
S315080052009FE706A81AF096FA6075C6E70122E275C6
S31508005210627EBAB9BBF1010F08D095F83470DFB9D0
S31508005220EA6AB2F1FF3F05D01F4615E00121617613
S31508005230174611E0BBF1030F01D01F460CE001220F
S31508005240A27609E0BBF1010F37D0BBF1030F03D1FA
S315080052500122A27600E01F4653B117B1BBF1010F38
S3150800526006D95346039A3146284619F0DAFBA06058
S31508005270A37D13B1236953442361237E114A12780F
S3150800528093421CD201332376B8F1000F13D0A37DC5
S315080052908BB1E37D7BB177B9BBF1030F0BD0A16866
S315080052A0B1F1FF3F07D0129B0093012322462846FF
S315080052B0FFF7C2FEA075A77DDBE61746CCE70023FD
S315080052C0A375E1E7608D02082DE9F04F89B0054620
S315080052D00F4692469B4600238DF80B304FF0FF3160
S315080052E0104600F0EFFFB7F5801F1DD3002300938B
S315080052F017F1020F07D0009B002B40F09E802B7CF5
S31508005300002B00F08C80EB6AB3F1FF3F2CD02A68A3
S315080053109B1A6A6CB3FBF2F917F1020818BF4FF033
S315080053200108002301935DE00DF10A02394605F1F3
S31508005330080000F017FF0146B0F1FF3F11D05046B4
S3150800534000F0C0FF0DF10B0301225146284619F063
S31508005350E7FB00900028CBD09DF80B308BF8003087
S31508005360C6E700230093C3E7696A284619F07AFA64
S315080053708146D1E70123019337E09DF80B308BF87E
S315080053800030324B1A683249504620F025FA00940C
S315080053902F4B9968B1F1FF3F1BD06B6C5B4281EADA
S315080053A006021A4215D12A4C204600F08BFF0DF151
S315080053B00B0342462146284619F0B2FB044600284C
S315080053C0E6D017F1020FD8D0214B1B68BB42DFD1BC
S315080053D0D3E74946284619F045FA8146019BCBB9D9
S315080053E0009BBBB96B6A4B45C4D02C686B6C03FB3E
S315080053F00944EB6B5B69052203A92046984703A875
S315080054001AF0A8FA1AF0CDFA20461AF0D6FA064685
S315080054100146BFE7009BA3B1B7F5801F03D3009BE6
S315080054208BB100200AE09BF80030DAF804203946F0
S3150800543005F1080000F0B4FEF1E7002009B0BDE868
S31508005440F08F2D20FAE72D20F8E700BF5C8D0208C3
S31508005450B830002070B582B004464FF0FF33C362FF
S315080054600DF107031A4A6FF00101FFF72DFF20BB64
S31508005470174B9B68E362E56A2946204618F0E3FF66
S315080054802063E8B12946204619F0BBFA0546A36A07
S31508005490AB421BD02946204618F0D5FF0646236B9B
S315080054A0034423632946204619F0ABFA0546002E25
S315080054B0EDD100232363E062E9E7A36AE362DAE752
S315080054C0E16A204619F09DFAE062DBE702B070BD9A
S315080054D0E430002030B583B01C46032A14BF0022EE
S315080054E001221B7E9A4202D0012003B030BD0D4630
S315080054F0096823689942F7D363689942F4D80DF18D
S315080055000703114AFFF7E0FE0028EDD10E4B5A6853
