S01500004956505F4C525F436F6E6E6563742E733337CA
S31508000000002000208D4500088DE101088DE10108DA
S31508000010D52602088DE101088DE101088DE1010868
S315080000208DE101088DE101088DE101088DE10108E6
S315080000308DE101088DE101088DE101088DE10108D6
S315080000408DE101088DE101088DE101088DE10108C6
S31508000050C96600088DE101088DE101088DE10108F6
S315080000608DE101088DE101088DE10108153C0008C4
S31508000070053C00088DE101088DE101088DE10108C4
S315080000808DE101088DE101088DE101088DE1010886
S315080000908DE101088DE10108055100088DE101088F
S315080000A08DE101088DE10108A94C0008814C000882
S315080000B08DE101088DE10108CDB2010879BD01087D
S315080000C0F3570208EF5702082DB501080958020828
S315080000D0F757020849BD0108FB570208DDBD0108AC
S315080000E015BE01088DE101088DE101089DCE0008C5
S315080000F08DE101086B1602088DE101088DE1010802
S315080001008DE101088DE101088DE101088DE1010805
S315080001108DE101088DE101088DE101088DE10108F5
S315080001208DE101088DE101088DE101088DE10108E5
S315080001308DE101088DE101088DE101088DE10108D5
S315080001408DE101088DE101088DE101088DE10108C5
S315080001508DE101088DE1010861790208B997010866
S315080001608DE101088DE101088D57020893570208B1
S31508000180194A5AB3194BDB6913F0040F29D110B475
S315080001900AE003EA00048C4210D0013AB2B1134BCC
S315080001A0DB6913F0040F14D110F0010FF1D1104CD4
S315080001B01C40002CEDD06FF001000CE00C4A1A40F0
S315080001C00AB9002007E06FF0010004E06FF00200B2
S315080001D001E04FF0FF305DF8044B70476FF0020006
S315080001E070474FF0FF307047809698000000035024
S315080001F0020001000D4BDB6913F4803F12D170B584
S315080002000A4B03F580560124F46003F500552C6467
S315080002104FF480721A6100212046FFF7B1FF34645B
S31508000220EC6070BD6FF00100704700BF000003501E
S3150800023010B5124B4FF480329A6603F51C33DC690D
S31508000240144041F67132DA6303F580520121D16018
S31508000250586102221A6100212120FFF791FF40B15F
S31508000260074B0122DA601CB1A3F500530022DA63BA
S3150800027010BD00212120FFF783FFF1E70090005011
S315080002800020035038B51A4B5861DB6913F0040F88
S315080002902AD10C4654F8041B154B9961151F06E024
S315080002A0214651F8042B124B9A61043D0C465DB168
S315080002B008210846FFF764FF03460028F0D00C4AD9
S315080002C004211161184638BD094B04221A61002120
S315080002D02120FFF755FF03460028F3D100212120EE
S315080002E0FFF74EFF0346EDE74FF0FF33EAE700BF9F
S315080002F0000003502DE9F0410F46164605461A4BF5
S315080003004FF480329A6603F51C33DA6902F48038B2
S3150800031041F67132DA6303F580530122DA6000236D
S3150800032002E025442744361B8EB105F5005424F413
S31508000330FF5424F01F04641BB44228BF34462246E7
S3150800034039462846FFF79EFF03460028E9D0074AA4
S315080003500121D160B8F1000F03D0A2F500520021A7
S31508000360D1631846BDE8F081009000500020035084
S31508000370000000000000000000000000000000006F
S31508000380013800D0FCE770472DE9F04F2DED028BC0
S3150800039093B082460C4693461D4657EC106B8DED7E
S315080003A0080B32463B46304639461CF007FA002809
S315080003B000F009814FF0FF32B14B304639461CF048
S315080003C025FA002840F0FF804FF0FF326FF48013C3
S315080003D0304639461CF0FCF9002840F0F48000222B
S315080003E00023DDE90867304639461CF0F1F9002894
S315080003F040F0FC809DED087B8DED067B209B13F479
S315080004008063119301D106231E93DDE90601024696
S31508000410C1F30A50C1F31303904643F07F5949F4D8
S315080004204019A0F2FF301BF0F7FE83A3D3E900239F
S315080004301BF05CFF82A3D3E900231BF0A1FD06464F
S315080004400F4600228F4B404649461BF097FD7EA378
S31508000450D3E900231BF04AFF02460B4630463946CD
S315080004601BF08EFD1CF0DCF906461BF0D5FE804617
S31508000470894677A3D3E900231BF038FF0022824B75
S315080004801BF07EFD1CF0CCF9074673A3D3E90023C5
S31508000490404649461BF02AFF8046894638461BF0E7
S315080004A0BBFE6FA3D3E900231BF020FF02460B46D1
S315080004B0404649461BF062FD8046894602460B4681
S315080004C01BF014FFCDE90C0107F2FF3700210022CB
S315080004D0CDE90A123B050B9300230A9342464B4685
S315080004E0404649461BF04CFDCDE90E0142464B46B7
S315080004F000204FF080411BF041FD804689460022CE
S31508000500624BDDE90C011CF01BF80022604B1BF066
S3150800051037FD02460B46DDE90C011CF011F80022F6
S315080005205C4B1BF02DFD02460B46DDE90C011CF069
S3150800053007F802460B46404649461BF021FD02468F
S315080005400B46DDE90E011BF0FBFF0022524B1BF0A8
S3150800055017FDDDE90A231BF0C9FE8046894649ECEA
S31508000560188BDDE906231CF051F940B1013E002243
S31508000570474B404649461BF0E3FF41EC180B06F192
S315080005806303C62B3BD80427209B13F4006F40D087
S3150800059035A3D3E90023DDE90689404649461CF020
S315080005A02BF900283BD032A3D3E90023404649461D
S315080005B01CF00EF9002832D01E9BB34221DD9E1B8B
S315080005C0731E1E931FE0209B02931F9B01931E9B85
S315080005D000939DED080B2B465A462146504600F0DF
S315080005E0CBF813B0BDEC028BBDE8F08F9FED227BF4
S315080005F08DED067B069607F100430793FEE6052771
S31508000600C2E700231E93209B43F4806320930027B0
S315080006103E461F9B9F4241D2A3EB070840E01E9B24
S31508000620002BF6D0119B002BF3D01E9B013B1E938B
S31508000630EFE700BFAFF30080FB799F501344D33F29
S31508000640B3C8608B288AC63F61436F63A787D23FCA
S3150800065071A379094F930A401655B5BBB16B024091
S31508000660EF39FAFE422EE63F2D431CEBE2361A3FDF
S315080006700000000080842E410000000000000000F9
S31508000680FFFFEF7F0000F83F0000E03F00002C402E
S3150800069000002440000018400000F03F4FF000081A
S315080006A0209B13F0020902D00FB14FF000083EB1AB
S315080006B053EC182BDDE906011BF042FFCDE90601D4
S315080006C000220023DDE908011CF082F800283BD14E
S315080006D0209B23F400630293CDF804801E9B0093AD
S315080006E09DED060B2B465A462146504600F044F827
S315080006F0002F3FF476AF209B13F0200F2CD04FF03D
S31508000700450C00F101082B46024621466046D047B3
S3150800071086EAE672A2EBE67205230593013F049783
S31508000720002303930A230293F30F019300922B46A7
S3150800073042462146504623F050FCB9F1000F3FF4DB
S3150800074050AF02461F9F10E0DDE90601024601F19F
S315080007500043CDE90623BBE74FF0650CD1E7561CED
S315080007602B4621462020D0473246A2EB0B03BB423C
S31508000770F5D3104635E700BF2DE9F04F2DED028B76
S3150800078093B00590089192469B4659EC108B1E9D96
S3150800079042464B46404649461CF010F8002840D0D1
S315080007A04FF0FF326FF48013404649461CF010F8AC
S315080007B0002845D14FF0FF32B14B404649461CF060
S315080007C025F800284BD1AAA3D3E900234046494679
S315080007D01CF01CF800285AD1A7A3D3E900234046E9
S315080007E049461BF0F5FF002851D100220023404658
S315080007F049461BF0EDFF002857D100230993209B9B
S3150800080013F4806F5CD000241F2C5BD8092D59D9AE
S3150800081004F148036B44302203F8202C013D0134CF
S31508000820F2E7209B03931F9B029303230193954BA7
S3150800083000935B4652460899059823F0F4FA10E1AE
S31508000840209B03931F9B0293042301938E4B0093D3
S315080008505B4652460899059823F0E5FA01E1209B84
S3150800086013F004030FD0894A7BB10423209903911E
S315080008701F990291019300925B4652460899059882
S3150800088023F0D1FAEDE0824AEEE70323EEE7209B58
S3150800089002931F9B0193009549EC108B5B465246C9
S315080008A008990598FFF770FDDBE042464B460020A5
S315080008B000211BF063FB80468946012309939EE7C6
S315080008C00625A0E7404649461BF0AAFF06461BF048
S315080008D0A3FC02460B46404649461BF04FFB6D4BB0
S315080008E003EBC50393ED008B53EC182B1BF0FEFCB2
S315080008F002460B46CDE906231BF0BAFF07461BF056
S315080009007BFC02460B46DDE906011BF037FB024677
S315080009100B46CDE9062300225F4B1BF077FF50B349
S31508000920013738461BF068FC02460B4651EC180B9B
S315080009301BF058FF08B10136002755BB30461BF09F
S315080009406BFC02460B46404649461BF017FB8046A1
S3150800095089460022504B1BF03BFF38B100224E4B14
S31508000960404649461BF052FF002842D016F0010FB8
S315080009703FD001363DE00022474BDDE906011BF07A
S3150800098027FF0028D9D117B117F0010FD5D00137A5
S31508000990D3E71F2C17D8013D404BA3FB0723DB08E1
S315080009A0194603EB8303A7EB4303621C303304F1B8
S315080009B048000DEB000404F8203C092F02D90F4625
S315080009C01446E6E714461F2C0AD86B1E45B104F1F7
S315080009D048026A44302102F8201C1D460134F2E719
S315080009E01F2C06D804F148036B442E2203F8202C4A
S315080009F001341F2C17D82A4A82FB0632F317C3EB99
S31508000A00A2031A4603EB8303A6EB4303611C3033A8
S31508000A1004F148000DEB000404F8203C16460AB120
S31508000A200C46E6E70C46209B03F00303012B39D05E
S31508000A301F2C09D8099B002B51D004F148036B449D
S31508000A402D2203F8202C0134209B03931F9B02932D
S31508000A5001940AAB00935B4652460899059823F021
S31508000A60E2F913B0BDEC028BBDE8F08FAFF300805E
S31508000A700000000065CDCD410000000065CDCDC168
S31508000A80FFFFEF7FE0950208E4950208D495020877
S31508000A90DC950208F09502080000E03FCDCCCCCCEE
S31508000AA0676666661F9BB3B1099B1BB9209B13F04B
S31508000AB00C0F12D01F9B013B1F93194606E004F149
S31508000AC048036B44302203F8202C01348C42AFD201
S31508000AD01F2CF4D9ACE71F99F8E71F99F6E7209B76
S31508000AE013F0040F07D004F148036B442B2203F8D4
S31508000AF0202C0134A8E7209B13F0080FA4D004F19A
S31508000B0048036B44202203F8202C01349CE700BFDD
S31508000B1038B50D46044626F057FC064A13889BB29C
S31508000B202DB123431380BDE8384026F048BC23EA9C
S31508000B300403F7E7644B00200022034B01214FF41E
S31508000B4080709A70E4E700BF644B00207FB54E685A
S31508000B5002A9044624F0DBF89DF808300C2B19D1BD
S31508000B60134BB3F90050134B9E4218D808F060F89F
S31508000B7003460068694600909B882046ADF8043015
S31508000B8024F0B2F870B140F25F620B490B480EF0E0
S31508000B90F5F8FEE7204613F0F3FE0546E3E71FF0F7
S31508000BA0D0FCE5E72946204624F084F804B070BD59
S31508000BB03A510020FFC99A3B9998020864960208A0
S31508000BC0002330B5134C85B0CDE901330393237860
S31508000BD08DF8043026F0F8FBA288E38805469A4289
S31508000BE00DD0E188A06801AAA18023F019FF58B1A9
S31508000BF040F2DA62084909480EF0C0F8FEE7A06834
S31508000C0023F0E7FE0128ECD0284626F0D8FB05B0ED
S31508000C1030BD00BF60550020999802086496020806
S31508000C2038B50F4C656835B940F2C7720D490E489C
S31508000C300EF0A4F8FEE723F0A5FA284410F0EEFF1C
S31508000C4000F00700032809D164680921204623F02B
S31508000C50B5FB205C031F5842584138BD0020FCE70D
S31508000C60644B0020999802086496020808B5114B4F
S31508000C709A78042A06D040F28E520F490F480EF091
S31508000C807DF8FEE71B881B0706D440F28F520A49F7
S31508000C900A480EF073F8FEE700210820FFF738FF30
S31508000CA00222074B98681A7313F024FCBDE8084023
S31508000CB021F06CBE644B00209998020864960208DD
S31508000CC06055002010B5084CA06813F013FCA06806
S31508000CD023F07FFE012806D00122A0681146BDE850
S31508000CE0104023F078BE10BD6055002038B5194D68
S31508000CF0AB7833B140F22B72174918480EF03EF81C
S31508000D00FEE726F061FB2988044611F0060109D0A2
S31508000D1001214FF48070FFF7FBFE2046BDE83840FE
S31508000D2026F04DBB4FF48070FFF7F2FE12F034FD4B
S31508000D30012805D010F0FD0F05D1FFF741FFECE7BC
S31508000D40FFF7C0FFE9E740F24172034903480EF096
S31508000D5015F8FEE7644B0020999802086496020885
S31508000D6070B50446064D95F90860FFF7BFFF12F007
S31508000D7011FC314620466A68BDE8704012F042BA56
S31508000D80644B002008B50A4B1B88DB0606D440F2E4
S31508000D90A752084908480DF0F1FFFEE70021102088
S31508000DA0FFF7B6FE12F074FDBDE8084021F0EEBD6F
S31508000DB0644B002099980208649602080D4B10B5FA
S31508000DC01B8804469B0713D500210220FFF7A0FEC7
S31508000DD0094B5A7BFF2A06D040F2E54207490848E4
S31508000DE00DF0CCFFFEE75C73BDE8104021F0CEBDE8
S31508000DF010BD00BF644B002060550020999802087A
S31508000E00649602087047704707B5ADF806100146A4
S31508000E1030B94FF4B572104910480DF0AFFFFEE730
S31508000E20BDF8063033B940F26B120B490B480DF08A
S31508000E30A5FFFEE70A4B0DF10602986824F01EF896
S31508000E4030B140F26D12044904480DF097FFFEE7F1
S31508000E5003B05DF804FB00BF99980208649602087F
S31508000E606055002010B50E4CA37833B14FF4EA72E2
S31508000E700C490D480DF082FFFEE7606019B1A17BB1
S31508000E80003918BF01212020FFF742FE074B08480A
S31508000E909B7B23760223A370BDE8104010F08ABD21
S31508000EA0644B002099980208649602086055002051
S31508000EB0804B002008B50CF08FFA80F00100C0B214
S31508000EC008BD0A4B9A780AB1062A0CD11B8803F486
S31508000ED08B7343B9064B5A7BFF2A04D1187BFF381C
S31508000EE018BF012070470120704700BF644B0020DF
S31508000EF06055002008B50CF05FFA0028FBD108BD44
S31508000F000C4B42889A8142789A730278DA738288FF
S31508000F101A82C2885A82C2685A61017A064A91734D
S31508000F20028A998C914204D001214FF400709A8468
S31508000F30EEE57047644B002060550020094B9A89FE
S31508000F4042809A7B4270DA7B02701A8A82805A8AB9
S31508000F50C2805A699B8CC260034A0382927B0272E2
S31508000F60704700BF644B0020605500204B1E012BC4
S31508000F7070B50C4606D940F2B7221A491A480DF040
S31508000F80FDFEFEE7194D0A460146A86823F0A0FFB4
S31508000F9030B140F2B922134913480DF0EFFEFEE7CF
S31508000FA0AE6810F07BFC22460146304623F08AFFE5
S31508000FB030B140F2BD220B490B480DF0DFFEFEE7CB
S31508000FC0AD6810F077FC22460146284623F086FFD6
S31508000FD030B140F2C122034903480DF0CFFEFEE7C7
S31508000FE070BD00BF999802086496020860550020F3
S31508000FF0054BDB7B1B0913F00E0003D0052B8CBFBA
S3150800100000200120704700BF60550020044BDB7BA1
S315080010101B0913F00E0F0CBF01200020704700BFFC
S31508001020605500202DE9F04F15469A0580461F4663
S315080010308FB003D501218020FFF76AFDEB014FF041
S31508001040000955D5984C23889E0751D5974E737B32
S31508001050FF2B06D040F2AF42954996480DF08EFE1A
S31508001060FEE7636833B94FF49662914991480DF0EB
S3150800107085FEFEE749460220FFF74AFDA37886F873
S315080010800D90042B03D101210820FFF741FD002311
S31508001090B06808A98DF82C3023F03BFE30B140F239
S315080010A0BA42834983480DF069FEFEE7FFF7A0FFC1
S315080010B0B0B923F067F88146606823F06EF808A98E
S315080010C08144B068ADF8249023F026FE30B140F292
S315080010D0C242774977480DF051FEFEE7089BA362A6
S315080010E0A378032B02D1B06813F004FA21F04EFC62
S315080010F0B80702D50120FFF761FE15F0A84F02D008
S315080011000220FFF75BFEA90220D50021402003AC90
S31508001110FFF7FEFC2146404623F0F8FEB0B99DF8DD
S31508001120143008AA022B22D18DF82830BDF80C30CD
S31508001130ADF82030104612F037FA38B1404623F0A1
S31508001140E3FE18B901214020FFF7E2FC2A0753D530
S31508001150564E0321B06803AA23F092FE814688B949
S3150800116040F2FE42524953480DF008FEFEE7032BB3
S3150800117005BF8DF82830D4E900018DF82800C2E9AA
S315080011800001D7E79DF80C30B068072B40F01F81A7
S31508001190494608AA23F076FE30B140F20152444986
S315080011A044480DF0EBFDFEE7FFF722FFBDF80E20E1
S315080011B0A0B9FFF72BFF78B1043292B2B06808A93C
S315080011C0ADF8242023F060FE40B140F212523849AF
S315080011D038480DF0D3FDFEE70232EEE7BDF80E0003
S315080011E00121073080B226F01BF88246002842D13A
S315080011F001210C2013F012F9A90705D52A4B1B88E3
S315080012001A0701D5FFF732FDAB010BD500210420E3
S31508001210FFF77EFC244B9B78012B03D1234B986860
S3150800122013F068F915F0284F03D000210420FFF7C2
S315080012306FFC7E060CD51C4C23881D0701D5FFF7CD
S3150800124015FD2388580703D500210420FFF760FC05
S31508001250F90540F1D88003A9404608AA23F0B7FB50
S315080012600146002800F0BA8040F2D25210491148CF
S315080012700DF084FDFEE74FF0000B25F055FFCDF885
S3150800128000B00246BDF80E3004464946B06823F061
S31508001290FFFDBDF80E3083420ED040F222520449BB
S315080012A004480DF06BFDFEE7644B002060550020F6
S315080012B0999802086496020822F064FF204410F008
S315080012C0ADFC00F007000228DFF8589124D199F800
S315080012D00230042B90D122F055FF504B20448278DF
S315080012E01B789A4288D159460820FFF711FC22F04C
S315080012F049FF204410F092FC9DF82E30C0F30010F0
S31508001300307389F80830FFF78BFC00287FF474AF38
S31508001310B06813F0EFF86FE722F034FF204410F0BE
S315080013207DFC83064AD522F02DFF204410F076FC7A
S3150800133000F0070003280BD10921204623F03EF8C8
S3150800134014F800B0ABF1040CDCF1000B4BEB0C0B02
S3150800135001210420FFF7DCFBB06823F0ACFDC9F8D7
S315080013602C00BBF1000F30D0B9F8003058062CD548
S3150800137000214020FFF7CCFB0126BDF80E309DF872
S315080013802E200120E254BDF80E309DF82F2023446C
S315080013909A71BDF80E10089A0131214410F04CFCE0
S315080013A0BDF80E3050461C44667125F091FF1C4B63
S315080013B0187810F005FC21F0E9FA1DE799F80230D3
S315080013C0012B02D1B06813F095F80026D5E723F073
S315080013D03BFD4946B06823F059FD0DE79DF80C30F2
S315080013E003F0BF02032A01D0022B0FD10D4C23882C
S315080013F05A0702D50420FFF78BFB23889B0702D5E3
S315080014000120FFF7DBFC0FB0BDE8F08F4FF4BF6299
S31508001410054906480DF0B2FCFEE700BFD14B002097
S31508001420F44A0020644B0020999802086496020842
S3150800143008B50246FFF7DCFD30B1072A06D80020BA
S31508001440034B83F8302008BD7020FCE70220FAE73A
S31508001450644B002008B50246FFF7CAFD28B10020F4
S31508001460034B93F83030137008BD7020FCE700BFBB
S31508001470644B002008B5074B01460022986823F004
S3150800148027FD30B140F2EB22034904480DF076FC03
S31508001490FEE708BD60550020999802086496020880
S315080014A008B5074B01460022986823F00BFD30B1BA
S315080014B040F2F122034904480DF060FCFEE708BD3E
S315080014C060550020999802086496020808B5074BEB
S315080014D00146986823F008FD30B140F2F722044926
S315080014E004480DF04BFCFEE708BD00BF6055002020
S315080014F0999802086496020808B5074B9B7833B199
S3150800150040F20132054906480DF038FCFEE7BDE811
S315080015100840FFF7EBBB00BF644B00209998020810
S315080015206496020808B5054B0146986823F0C2FB85
S31508001530002814BF8B20002008BD00BF605500207E
S31508001540014B986813F01CBA60550020014BD888E7
S31508001550704700BF605500207FB50123ADF80E30F7
S315080015604FF6FE7309480093806800230DF10E02BA
S3150800157004A923F02CFB212800D020B9BDF81000BF
S3150800158007B05DF804FB4FF6FF70F9E760550020D9
S3150800159008B5044B0146986823F0CDFAB0FA80F0F6
S315080015A0400908BD6055002038B50B4D0446AB7898
S315080015B0012B0DD8FFF7ECFF60B1084BDC80AB7848
S315080015C01BB9FFF793FB002038BDFFF7F9FAFAE7D6
S315080015D03E20F9E78A20F7E7644B00206055002093
S315080015E0024B9B780BB9FFF781BB7047644B002011
S315080015F0014BD873704700BF644B002008B5064BF3
S315080016004FF0FF31986823F00FFA0028B8BF03306F
S3150800161040F3870008BD00BF6055002008B5044B9D
S31508001620986823F084FA034BB3FBF0F080B208BD48
S315080016306055002040420F0030B58DB02C2204467C
S31508001640002101A824F06DF901234FF002328DF82C
S3150800165008306423CDE9032306930B238DF82C3039
S31508001660214B9B8CADF80A30FFF7C2FCA8B140F2BB
S31508001670F23307934FF47A7305930CB9FFF722FBFD
S315080016801A4D01A9A86813F04FFAC0B140F2AC622E
S31508001690174918480DF072FBFEE7FFF7BFFF0C234A
S315080016A04343902B0793A3F10A02D8BF91230592CF
S315080016B0D8BF0793059B8B2BDFD88C23DCE7FFF776
S315080016C0A5FC60B10122A868114623F01BFC30B1C5
S315080016D040F2AF62064907480DF050FBFEE70CB929
S315080016E0FFF704FB0DB030BD644B002060550020A9
S315080016F09998020864960208F8B525F065FE554CD7
S3150800170006462388D90503D5A37843BBFFF7EEFA27
S31508001710514D6B7BFF2B13D06B7B03F0FF0723BB6D
S31508001720FF236B73A378032B0AD100233046A370DB
S3150800173025F045FE3846FFF713FB25F045FE06461D
S31508001740A378042B08D12B7BFF2B05D02B7B022BF0
S3150800175014D1424810F02EF9FF232B7327E00021FD
S315080017604FF48070FFF7D4F9D2E76B7B012B4FF06B
S31508001770FF0314BF89278D276B73D6E72B7B13B11D
S315080017802B7B012B1ED1FFF74BFA0022FF212B7B67
S315080017900746DBB222772973002847D0012B0AD1E6
S315080017A064212E48A37010F010F9FFF709FA3046A5
S315080017B025F005FE06E03046A27025F000FE312031
S315080017C0FFF7CEFA23881A0608D500218020FFF7EE
S315080017D09FF9A86823F0D9FA12F03BF823889B05ED
S315080017E007D54FF400700021FFF792F90020FFF7A4
S315080017F023FF0BF0E1FD608620B325F095FC01215F
S315080018000546002012F00AFEA678012E14D10026FD
S315080018102677A670FFF76AFA284611F015FCA37812
S3150800182066867BB9BDE8F84011F0B4BEA0703046B4
S3150800183025F0C5FD3846C3E72EB1284611F004FC4D
S3150800184000236386F8BDFFF751FA284611F0FCFB22
S315080018506686F7E7644B002060550020804B002021
S315080018608B4BF0B51B888B4C8B4D63848B4B85B0AB
S315080018701B68E3628A4B1B8823848A4B1B68A36216
S315080018802B88DB0700F1FC8001210846FFF740F9A9
S315080018900523854A04F1100104F10800AB7012F023
S315080018A0EBFD28B1F522814981480DF067FAFEE77C
S315080018B0A3682BB9F7227D497D480DF05FFAFEE74C
S315080018C07C4823F0CCF870A3D3E90023CDE90023A4
S315080018D04FF0FF324FF0FF33A06823F06FF94FF453
S315080018E08811A06813F0C4F8014630B140F20F120F
S315080018F06E496F480DF042FAFEE76F4B1B78012BD5
S315080019000ED16E4AA06812F085FEA06813F03AF967
S31508001910E0B140F21B12654965480DF02FFAFEE763
S31508001920674E316831B94FF48F72604960480DF0DF
S3150800193025FAFEE7614AA06812F06CFE33689B68D8
S3150800194023B1DB6913B15B7803B1E373FFF704FED8
S315080019500146E080A06812F0D9FF064630B140F291
S315080019602D12524952480DF009FAFEE7554B01204F
S315080019701B78C3EB431203EB8203DB00AB84FFF750
S315080019805BFEA7680FF096FF32460146384623F0FD
S31508001990A5FA064630B140F23312444944480DF0E0
S315080019A0EDF9FEE740F203530427AB81464BAF73CC
S315080019B01B78EB73FFF732FE00EB80039B002B824C
S315080019C0FFF72CFEC00068823946A0686E6123F0D6
S315080019D09DF830B14FF4A172344935480DF0CEF96F
S315080019E0FEE73A46A06803A923F023F9042806D09F
S315080019F04FF4A3722D492E480DF0C0F9FEE703A94E
S31508001A00012010F027F90BF05DFA08224FF0FF319C
S31508001A10A06823F0E4F830B140F24F122349244875
S31508001A200DF0ACF9FEE713F02DFA30B140F255127D
S31508001A301E491F480DF0A2F9FEE7FFF7D9FA68B16B
S31508001A401EF081FD0146A06823F04EF930B140F240
S31508001A505912164916480DF091F9FEE7A468FFF7E2
S31508001A607BFD1A4B014603F10C02204622F0DAFFF1
S31508001A7030B14FF4B0720D490D480DF07FF9FEE70D
S31508001A8005B0F0BDAFF300800A0020FF4203000056
S31508001A90909B020860550020644B0020949B020826
S31508001AA0929B0208989B0208390B0008999802082D
S31508001AB064960208690345ECB54B00204D0B0008F7
S31508001AC0845400200557002004570020C4980208B3
S31508001AD008B5044B986823F02CF8034BB3FBF0F0D9
S31508001AE080B208BD6055002040420F002DE9F04342
S31508001AF08C4D87B02B889B0706D440F24C728A49D6
S31508001B008A480DF03BF9FEE7AB78033B012B06D973
S31508001B1040F24E72844985480DF030F9FEE76A684E
S31508001B2032B940F25172804980480DF027F9FEE734
S31508001B307F4E2C88F77B14F0200418BF4FF47A7474
S31508001B404FEA1718FFF754FA00287DD0B8F1020FAC
S31508001B500AD0A8F10303022B74D940F265727249C0
S31508001B6072480DF00BF9FEE7032795F8303008EBBD
S31508001B70C80898446F4B104603EB4803B3F81C801B
S31508001B8022F00BFB4FF4FA534343B3FBF8F37822E6
S31508001B907733B3FBF2F31F44C7EB0717AB78FF00A5
S31508001BA0BFB204F5347417FA84F4042BA4B203D133
S31508001BB007F6E8072744BCB2D5F8048022F0E2FA13
S31508001BC00746686822F0E9FA074422F001FBBFB22B
S31508001BD03F1A22F0D7FA404410F020F87378C0F381
S31508001BE040198DF80C30544BBFB2CDE904340024AB
S31508001BF022F0FAFA009402463B464146B06823F0C2
S31508001C0025F9287EB278737812FB00F29342C4BF96
S31508001C109B1ADCB22B88F18813F0200FB068B180CC
S31508001C208DF80C4003AB76D000934A46434B22F01E
S31508001C30EEFE002873D040F224723B493B480DF073
S31508001C409DF8FEE7062790E7FFF7E0F9002846D05B
S31508001C50384B07F00F0708EBC801394403EB41037B
S31508001C601046B3F81C9022F098FAB8F1000F2CD061
S31508001C70B8F1010F2CD14FF00408400080B2F319D7
S31508001C8093F834304BB14FF4FA52023303444344C9
S31508001C909BB25343B3FBF9F39CB2AB78042B8BD1BD
S31508001CA0FFF7BCFC374497F834308146053398442F
S31508001CB0FFF70EFF0C2308FB00F003FB09F909EBFD
S31508001CC0C009A1441FFA89F476E74FF00208D6E75F
S31508001CD040F28672144915480DF050F8FEE7FFF7F2
S31508001CE0F7FE0746686822F058FA09307843AB7859
S31508001CF004EBC000042B84B27FF45EAFFFF78EFCC2
S31508001D000746FFF7E5FE602358430C2303FB07004D
S31508001D10204484B250E74A4622F077FE89E707B0A6
S31508001D20BDE8F083644B002099980208649602087F
S31508001D3060550020C498020820A10700704B0020B7
S31508001D40F8B5494C258815F0020506D040F27512FB
S31508001D50464947480DF012F8FEE7257725F034FB8B
S31508001D60238806465A070CD5424B986823F0A3F8F1
S31508001D70E36AC01AA38C984203D929460420FEF7C1
S31508001D80C7FE304625F01BFBA778022F37D125F072
S31508001D901BFB2388064613F0040507D036480FF0C8
S31508001DA009FE3046BDE8F84025F009BB25F007FBDB
S31508001DB0606811F029FC20B1A570BDE8F840FEF76F
S31508001DC0CFBF25F001FB6668054622F0DBF93044F3
S31508001DD00FF024FF10F0200F0CBF0323042301216A
S31508001DE03846A370FEF794FEFFF780FE284625F0D6
S31508001DF0E6FA01210846BDE8F84012F00FBB042FA9
S31508001E0027D11C4B1B7BFF2B2DD1237EF3B125F04D
S31508001E10DBFA238805465B0704D517480FF0CAFD89
S31508001E202846BFE725F0CBFA237E013B237625F02B
S31508001E30CBFA044601210220FEF76AFEFFF756FE9A
S31508001E40204625F0BCFA01210820D4E74020A370DB
S31508001E50B3E7012F07D10023A370064B986812F049
S31508001E6049FB3120A9E7F8BD644B00209998020880
S31508001E706496020860550020804B002038B5012181
S31508001E8004461020FEF744FE064B9D68FFF7C6FB86
S31508001E90012200FB04F1044B284622F0A1FD002094
S31508001EA038BD00BF60550020850D000808B50A4BEF
S31508001EB01B88DB0606D44FF46172084908480CF003
S31508001EC05DFFFEE710200021FEF722FE054B98680D
S31508001ED0BDE8084022F092BD644B0020999802089C
S31508001EE0649602086055002038B50E4D688E30B9E4
S31508001EF040F291320C490D480CF040FFFEE725F000
S31508001F0013F90446688E25F02DF9811F2144012016
S31508001F100FF0A0FE064B0446986822F0CCFF001B83
S31508001F2038BD00BF644B00209998020864960208E1
S31508001F306055002010B5084C636833B94FF46872D1
S31508001F40064907480CF01AFFFEE7064B986822F088
S31508001F50B2FFA36AC01A10BD644B00209998020804
S31508001F60649602086055002038B50A4D688E30B967
S31508001F7040F2AA32084909480CF000FFFEE725F0AE
S31508001F80D3F80446688E25F0EDF8044414F8020CDC
S31508001F9038BD00BF644B0020999802086496020871
S31508001FA038B50A4D688E30B940F2B9320849094841
S31508001FB00CF0E4FEFEE725F0B7F80446688E25F037
S31508001FC0D1F8044414F9070C38BD00BF644B00204F
S31508001FD0999802086496020838B50A4D688E30B991
S31508001FE04FF47272084909480CF0C8FEFEE725F05E
S31508001FF09BF80446688E25F0B5F8044414F9010CDC
S3150800200038BD00BF644B0020999802086496020800
S31508002010024B1888C0F3C010704700BF644B0020FD
S3150800202030B585B005466C460D4B0FCB84E80F00DE
S315080020300DB12B6800930B4B21460022986812F0CD
S31508002040B5FC044630B140F2E632074907480CF0C1
S3150800205095FEFEE7FEF7B4FD204605B030BD00BF8D
S315080020604C9902086055002099980208649602085F
S3150800207030B5154D87B004460DF10701A86822F062
S315080020809FFD30B140F2F732104911480CF076FE48
S31508002090FEE79DF80720531EDBB2FD2B0FD90294ED
S315080020A0FF2A00D10394A86802A922F071FE40B164
S315080020B040F20442054906480CF060FEFEE7012A94
S315080020C0EFE707B030BD00BF6055002099980208B9
S315080020D06496020808B5064B986822F068FE30B187
S315080020E04FF48262034904480CF048FEFEE708BD37
S315080020F06055002099980208649602080122024B4E
S315080021001146986822F067BC605500207047F8B5FC
S31508002110064604200D4622F017F8030622D5124F6C
S31508002120BC78FCB926B1012E17D002242046F8BD8A
S3150800213001262846FFF72CFA0028F6D00B4800237C
S3150800214032462946806822F064FC40B14FF48A6220
S31508002150074908480CF012FEFEE72646E9E706237B
S31508002160BB70E3E77024E1E7644B0020605500206C
S315080021709998020864960208042010B521F0E4FF35
S31508002180030611D5094CA378062B0DD1084B986880
S3150800219022F041FC30B140F26A42064906480CF08A
S315080021A0EDFDFEE7A07010BD7020FCE7644B002033
S315080021B06055002099980208649602081FB50446DF
S315080021C001A812F0BBFB9DF80D3053B14CB1064B7C
S315080021D02078617818700020A27859709A7004B037
S315080021E010BD0220FBE700BF605500201FB504465E
S315080021F001A812F0A3FB9DF80D3053B14CB1002095
S31508002200054B1A7822705A789B786270A37004B0CE
S3150800221010BD0220FBE700BF60550020FFF7CEBFC8
S31508002220FFF7E4BF0348044B834202D0034B03B1D4
S31508002230184770471C5700201C5700200000000054
S31508002240064B0749C91A891048BF0131491003D0FE
S31508002250044B0BB101481847704700BF1C570020B4
S315080022601C5700200000000010B5064C237843B91F
S31508002270FFF7D8FF044B13B10448AFF300800123DE
S31508002280237010BDF45100200000000038D5020864
S3150800229008B5054B1BB105490548AFF30080BDE8F5
S315080022A00840FFF7CDBF00BF00000000A0220020B5
S315080022B038D50208A3F5803A704700BF174B002BA4
S315080022C008BF134B9D46FFF7F5FF00218B460F46C7
S315080022D01348144A121A23F024FB0E4B002B00D085
S315080022E098470D4B002B00D098470020002104008A
S315080022F00D000D48002802D00C48AFF300801AF0F4
S31508002300FFFF2000290001F02DFB1AF07FFC00BF1B
S315080023100000080000000000000000000020002067
S31508002320002000206052002000000000000000008D
S3150800233000B583B0074B0122DA60064B5B6913F0E0
S31508002340400FFAD1034968461DF061FF009803B0B3
S315080023505DF804FB0040005910B582B004461BF036
S31508002360BCFB08B902B010BD00230093ADF80430D9
S31508002370074B1B88ADF80230ADF8044040F2FF1356
S31508002380ADF800306946042020F097FBEAE700BF65
S315080023903051002008B513460A460146044800682D
S315080023A003F038FE00B908BD02480CF0E7FCFAE76E
S315080023B018550020C87A02080A2800D9704730B58F
S315080023C083B004460D466B4601AA014610480068CC
S315080023D003F086FD08B9019B23B10E480CF0CEFC2C
S315080023E003B030BD009B2A4621460948006803F021
S315080023F0B7FC40B9214608480CF0C0FC29460748F6
S315080024000CF0BCFCECE7214605480CF0B7FCE7E706
S3150800241018550020D07A0208F47A0208107B0208C0
S31508002420187B02080A2800D9704710B504460146E9
S31508002430064B186803F0BCFE20B9214604480CF088
S315080024409DFC10BD03480CF099FCFAE718550020CE
S315080024503C7B0208587B020838B51B4C637802227D
S3150800246062F383036370DBB26FF300036370DBB25E
S3150800247062F387136370DBB2012565F30513637096
S31508002480A3786FF30713A370DBB265F38303A37016
S31508002490DBB243F00303A370E0700C4B4FF4FA72FF
S315080024A01A80002128461BF0B5FC2A46002128463A
S315080024B001F018FC20681BF03DFB41F28831044B03
S315080024C018680FF082FA38BDBC220020325100206D
S315080024D04423002008B5294B1B78012B29D0022B51
S315080024E039D003B108BD264B1B78264A1278B3EBC0
S315080024F0420F05DA244A127C02F01802102A0DD17E
S315080025001F4B00221A70204B197CC1F340111F483B
S315080025101BF07CFC1E4824F0BDFAE3E70133184A99
S315080025201370194B197CC1F3401118481BF05EFC57
S31508002530D8E7134B1B78134A1278B3EB420F03DA2A
S3150800254001330F4A1370CDE70D4B00221A7010485D
S3150800255024F0A0FAC6E70A4B1B780A4A1278B3EBAE
S31508002560420F03DA0133064A1370BBE7044B002215
S315080025701A70074824F08EFAB4E700BFF551002018
S31508002580F7510020F651002010230020648D020820
S31508002590C0220020037823BB70470133022B22DCBC
S315080025A003EB4302104911F82220002AF5D100B5A1
S315080025B00A4603EB430102EB810C4FF0000E8CF840
S315080025C001E04FF0010C02F821C002EB810301681B
S315080025D04268C3F80210C3F8062002895A815DF8DA
S315080025E004FB0023DAE77047E022002000B583B039
S315080025F08C461146074B1870074B83F800C0012319
S31508002600019300230093054A054825F025F903B0F0
S315080026105DF804FBF5510020F6510020D52400088A
S31508002620C022002010B50024094B1C80094B197CD8
S31508002630C1F3401108481BF0E9FB1BF0B8FA214624
S3150800264001201BF0F5FB054B1B681C7010BD00BF75
S315080026503251002010230020648D020844230020F4
S3150800266008B5002104481BF0BEFA00F065FF034BCD
S315080026701B6800221A7008BD04230020402300208E
S3150800268008B501280FD0022819D000B108BD124B91
S31508002690197CC1F3401111481BF0B8FB0021012039
S315080026A01BF0C6FBF2E70C4B197CC1F340110B4833
S315080026B01BF0ACFB002101201BF0C6FBE6E7064B2E
S315080026C0197CC1F3401105481BF0A0FB002101202D
S315080026D01BF0BAFBDAE700BF10230020648D02085E
S315080026E038B5874B1A78292A00F098802B2A49D0C2
S315080026F0282A04D0834B1B6800221A7038BD194655
S315080027005C799A725B788A7843EA0223CA7843EA44
S3150800271002430A7943EA026341F8143F042205207A
S31508002720FFF738FE012C11D0023C0E2C21D8DFE829
S3150800273004F00D20082020200D2020202020202015
S315080027400D006F4B1A7C6FF3C4021A746E4C01228B
S3150800275021460020FFF71EFE642203210020FFF712
S3150800276045FF002304F8053C684B18680FF022F96A
S31508002770C0E7634B1A7C012060F3C4021A74FFF7A2
S315080027807FFFE3E75E4B9978D87841EA002118790C
S3150800279041EA0041587941EA00619A725A785A77B3
S315080027A05B698B420BD0012A32D0C8220221002055
S315080027B0FFF71CFF554B18680FF0FCF89AE7012A3B
S315080027C016D0002AF6D14E4C207CC0F3C100FFF784
S315080027D057FF4F4B1B6800201870C8220221FFF7CD
S315080027E005FF012204F11D010420FFF7D3FDE1E7EF
S315080027F0434CE07BFFF730FEC82201210020FFF79B
S31508002800F5FE012204F11D010420FFF7C3FDD1E7FF
S31508002810C82201210020FFF7E9FECBE7384B9A7260
S315080028205A7B022161F383025A73D2B26FF3000214
S315080028305A73D2B261F387125A73D2B2012161F385
S3150800284005125A739A7B6FF307129A73D2B261F321
S3150800285083029A73D2B242F003029A735878D873F5
S3150800286099781A7C61F3C4021A74D3B203F0180378
S31508002870102B3BD0224BD9781A7C61F345121A7477
S315080028801F4B1B7C13F0180F36D01D4C2079214D99
S3150800289028701BF032F9204B4FF4FA721A80002187
S315080028A001201BF0B7FA01220021104601F01AFA9E
S315080028B0E0681BF03FF9012204F110010020FFF740
S315080028C069FD012204F10F011046FFF763FD01229D
S315080028D029460220FFF75EFD642202210020FFF749
S315080028E085FE0A4B18680FF065F803E7044BD2B269
S315080028F06FF345121A74C3E7FFF7AEFDC5E700BFCD
S31508002900102300204C2300202023002050230020E1
S3150800291044230020FB5100203251002030B583B0FB
S31508002920284B5B7F23B9274B1B7C13F0180F3ED12E
S31508002930002101201BF088FA224C227F9DF80430E2
S3150800294062F301038DF80430627F9DF8043062F368
S3150800295082038DF804301C48162202700423437241
S3150800296000254570194B1B8883701B0AC370A27219
S3150800297029461BF038F94FF4FA71154B18680FF011
S3150800298024F800F0D9FD217CC1F3401111481BF051
S3150800299035FA114BC8221A804FF4FA610F4B1868A2
S315080029A00FF013F80E4B1B681D7003B030BD0C4BAF
S315080029B01B6800221A70034B187CC0F3C100FFF78E
S315080029C05FFEF2E71023002004230020B82200202F
S315080029D040230020648D0208325100204423002041
S315080029E04823002070B908B5074B1B889BB203B172
S315080029F008BD002101201BF027FA044B18680EF0C9
S31508002A00D9FFF5E7704700BF325100204823002060
S31508002A1008B5044A1BF077F8034B18680EF0CAFF8E
S31508002A2008BD00BF102300204C23002038B50446FB
S31508002A3020F04FF8A04201D8012038BD05460320F2
S31508002A4001F036FB0028F8D01BF029FA1BF028FA0B
S31508002A502B4622460349044800681EF06CFE0020F7
S31508002A60EBE700BF707B02087C27002030B583B0F7
S31508002A7004468368C26853F822301D882846FFF743
S31508002A80D5FF08B903B030BD00230093ADF8043074
S31508002A90164B1B88ADF80230ADF804506368E2683F
S31508002AA09B1A012B1DDDA368013253F822301B88BF
S31508002AB0ADF800301FF0FDFF694603201FF0FDFF4B
S31508002AC00446032001F0F4FA0028DBD01BF0E7F9EE
S31508002AD01BF0E6F922460649064B18681EF02BFE3F
S31508002AE0D0E740F2FF13ADF80030E3E73451002099
S31508002AF0A87B02087C27002030B583B0044683688B
S31508002B00C26853F822301D882846FFF78FFF08B998
S31508002B1003B030BD00230093ADF80430154B1B8875
S31508002B20ADF80230ADF804506368E2689B1A012BD1
S31508002B301BDDA368013253F822301B88ADF800303C
S31508002B40694604201FF0B9FF0446032001F0B0FAD5
S31508002B500028DDD01BF0A3F91BF0A2F9224606498E
S31508002B60064B18681EF0E7FDD2E740F2FF13ADF8F2
S31508002B700030E5E734510020C87B02087C27002096
S31508002B8030B583B004468368C26853F822301D887E
S31508002B902846FFF74BFF08B903B030BD0023009362
S31508002BA0ADF80430154B1B88ADF80230ADF804506B
S31508002BB06368E2689B1A012B1BDDA368013253F890
S31508002BC022301B88ADF80030694602201FF075FFD9
S31508002BD00446032001F06CFA0028DDD01BF05FF9EB
S31508002BE01BF05EF922460649064B18681EF0A3FD3F
S31508002BF0D2E740F2FF13ADF80030E5E73451002084
S31508002C00DC7B02087C27002030B583B08368C26865
S31508002C1053F822301C780023019343689B1A012B32
S31508002C2019DD01AA01211EF053F801469DF804009A
S31508002C301FF03BFF054680B1022001F039FA60B16A
S31508002C401BF02DF91BF02CF92A460649064B186885
S31508002C501EF071FD01E01FF02CFF20461FF031FF2A
S31508002C6003B030BDF87B02087C27002010B5034668
S31508002C708168C26851F82200B0F900001A4C208019
S31508002C805B689B1A012B0FDD013251F8223093F94C
S31508002C900010003918BF01211FF0B8FEA0B90320A3
S31508002CA001F006FA10B910BD0021F5E71BF0F7F898
S31508002CB01BF0F6F80D4B1C681FF0ACFE02460C49DB
S31508002CC020461EF038FDEEE7012001F0F1F9002854
S31508002CD0E9D01BF0E4F81BF0E3F80649034B186843
S31508002CE01EF029FDDFE700BF345100207C270020B5
S31508002CF05C7C0208707C020808B51FF07BFE032086
S31508002D0001F0D6F900B908BD1BF0C9F81BF0C8F8E0
S31508002D100249034B18681EF00EFDF4E7887C02088A
S31508002D207C27002008B58368C26853F822301A88C1
S31508002D30094B1A80032001F0BBF900B908BD1BF046
S31508002D40AEF81BF0ADF8044B1A880449044B186812
S31508002D501EF0F1FCF2E700BF80560020A87C0208AE
S31508002D607C27002008B5024B18680EF023FE08BD24
S31508002D70502300202DE9F04186B01FF057FE044687
S31508002D80894B1B7813F0020F2CD0884E13F0010FD5
S31508002D902AD0864F13F0040F28D0DFF810820320BC
S31508002DA001F086F928BB032001F082F958BB0320FD
S31508002DB001F07EF9002835D1032001F079F90028C1
S31508002DC03ED1032001F074F9002847D1032001F011
S31508002DD06FF900285ED1032001F06AF9002867D14F
S31508002DE0002471E0724ED1E7714FD3E7DFF8C08156
S31508002DF0D5E71BF054F81BF053F86E496E4B18686C
S31508002E001EF099FCCFE71BF04AF81BF049F86A4B0D
S31508002E101D6805F0DDFB02460B46684928461EF08C
S31508002E208AFCC4E71BF03BF81BF03AF8624B1D68B6
S31508002E301FF0D4FD0246624928461EF07CFCBBE71B
S31508002E401BF02DF81BF02CF85B4B1D681FF0FAFDE4
S31508002E5002465C4928461EF06EFCB2E71BF01FF8D6
S31508002E601BF01EF8E279A37961792079E57894F860
S31508002E7002C094F801E024780594CDF810E0CDF866
S31508002E800CC00295019000914F494B4800681EF00E
S31508002E9052FC9BE71BF003F81BF002F8464B1C6834
S31508002EA01FF0C8FD0246494920461EF044FC92E739
S31508002EB01AF0F5FF1AF0F4FF45493F4B18681EF063
S31508002EC03AFC8DE70134E4B2072C12D8032001F04E
S31508002ED0EFF80028F6D01AF0E2FF1AF0E1FF364BB9
S31508002EE01D681FF0A3FD025D3A4928461EF023FC23
S31508002EF0E8E7032001F0DCF898B9032001F0D8F8D8
S31508002F00C8B9032001F0D4F818BB032001F0D0F8A3
S31508002F1068BB032001F0CCF8002836D106B0BDE81E
S31508002F20F0811AF0BCFF1AF0BBFF2B49224B186838
S31508002F301EF001FCE1E71AF0B2FF1AF0B1FF1E4BD2
S31508002F401C681FF07BFD0246244920461EF0F3FB51
S31508002F50D7E71AF0A4FF1AF0A3FF174B1C681FF057
S31508002F6051FD02461E4920461EF0E5FBCDE71AF044
S31508002F7096FF1AF095FF104B1C681FF04BFD024692
S31508002F80184920461EF0D7FBC3E71AF088FF1AF047
S31508002F9087FFCDF800803B4632461349064800684D
S31508002FA01EF0C9FBBAE700BFF6560020107C0208DF
S31508002FB0187C0208C47C02087C270020CC7C020806
S31508002FC0E87C0208047D0208207D0208447D020888
S31508002FD0607D0208747D02080C7B02087C7D02086D
S31508002FE0987D0208B07D0208C87D020830B583B016
S31508002FF08368C26853F822301C7801A920461FF05E
S31508003000FDFC88B9032001F053F808B903B030BDB8
S315080030101AF045FF1AF044FF019B22460B490C485B
S3150800302000681EF088FBF1E70546012001F040F82C
S315080030300028EBD01AF033FF1AF032FF2A4605496A
S31508003040034B18681EF077FBE0E700BF007E020816
S315080030507C2700201C7E020870B58268C36852F877
S3150800306023100C88013352F823301D782946204650
S315080030701FF017FD80B9032001F01AF800B970BDDA
S315080030801AF00DFF1AF00CFF2B4622460B490C4886
S3150800309000681EF050FBF2E70646012001F008F82A
S315080030A00028ECD01AF0FBFE1AF0FAFE3246054963
S315080030B0034B18681EF03FFBE1E700BF407E02089D
S315080030C07C270020707E020870B582B08368C268CB
S315080030D053F822301B78134A137013F0020F0ED0E0
S315080030E0114C13F0010F0CD00F4D13F0040F0AD03A
S315080030F00D4E032000F0DCFF38B902B070BD0B4C52
S31508003100EFE70A4DF1E7094EF3E71AF0C8FE1AF0A1
S31508003110C7FE00962B4622460549064800681EF05B
S315080031200AFBEAE7F6560020107C0208187C02081B
S31508003130247C02087C27002030B58FB004460D4653
S3150800314068461AF06FFD0DF1200EEC46BCE80F003C
S31508003150AEE80F009CE803008EE8030008A9464B7A
S31508003160186820F0ACFA10F1880F46D168461AF0B4
S3150800317059FD0DF1200EEC46BCE80F00AEE80F0035
S315080031809CE803008EE803004FF41053ADF8203096
S315080031908023ADF822304FF44073079307A81AF03E
S315080031A051FD079B0A93354B0B93334B1A68099BC2
S315080031B00D9213F0FF0F04D123F0FF0343F0010330
S315080031C00993012309932C4B2A46214608A820F087
S315080031D093FA044610BB032000F06AFF90B9264B09
S315080031E018681FF003FC0546002831D1032000F0BB
S315080031F05FFF044610BB01242FE01F4B186820F020
S3150800320035FAB3E71AF04BFE1AF04AFE1A4B1A685B
S315080032101B491C4B18681EF08EFAE0E7032000F0E5
S3150800322047FF0028DBD01AF03AFE1AF039FE22468C
S315080032301549144B18681EF07EFAD0E71AF02FFECF
S315080032401AF02EFE11490F4B18681EF074FA04E0A6
S31508003250032000F02DFF044610B920460FB030BDFC
S315080032601AF01DFE1AF01CFE2A460949054B186875
S315080032701EF061FA0024F0E730230020000144051F
S31508003280A07E02087C270020D07E0208F47E020871
S31508003290147F020800B583B00021019101AA1DF030
S315080032A017FD019910290ED0032000F001FF60B127
S315080032B01AF0F5FD1AF0F4FD10220549054B1868B9
S315080032C01EF039FA01E0FFF737FF03B05DF804FB9B
S315080032D0347F02087C270020022900D0704708B5F1
S315080032E0024B186808B119F0ABFC08BDA84B0020C2
S315080032F070B588B0012009F07DFD454C7823E3734D
S31508003300237C43F020032374DBB26FF3C4032374D6
S31508003310404E962333700225257704F110010020CC
S31508003320FFF74AF804F10F010120FFF745F8314687
S315080033302846FFF741F804F11C010320FFF73CF883
S3150800334004F11D010420FFF737F804F114010520E4
S31508003350FFF732F830490620FFF72EF803232377C4
S3150800336020F0C9FA2D492E4809F04AFC2D492E4865
S3150800337009F046FC2D492E4809F042FC2D492E48F5
S3150800338009F03EFC2D492E4809F03AFC01242D4B44
S315080033901C6002A81AF06DFC02A9204620F08FF9DD
S315080033A010F1880F0FD0274B18681FF01FFB1FF06E
S315080033B074FB2549254808F073FD194B18680EF06B
S315080033C0F9FA08B070BD1F4B1A68039B079213F0F1
S315080033D0FF0F03D123F0FF03234303931C4B0593ED
S315080033E04FF44073019301A81AF053FC019B049310
S315080033F04FF41053ADF808308023ADF80A30012396
S315080034000393104B1022134902A820F075F9CAE756
S3150800341010230020FB510020B8220020993500080F
S3150800342050230020E12600084C2300201D2900080F
S31508003430482300202526000844230020612600088A
S3150800344040230020302300207C5400203423002011
S31508003450000144056C54002070B50020FEF7E2FF19
S315080034600120FEF7DFFF0220FEF7DCFF0320FEF750
S31508003470D9FF0420FEF7D6FF0520FEF7D3FF194C27
S315080034807820E073237C43F020032374DBB26FF3C8
S31508003490C4032374FEF7E0FF134E962030701AF02B
S315080034A02CFB002525776577012204F11C010320F2
S315080034B0FEF770FF012204F11D010420FEF76AFFE2
S315080034C0012204F110012846FEF764FF0122314665
S315080034D00220FEF75FFF012204F10F011046FEF7F6
S315080034E059FF70BD10230020FB51002008B50229A2
S315080034F012D80E4B1B7F13B1022B07D008BD002034
S31508003500FEF72AFF0A481AF0B7FFF7E7C822022192
S315080035100020FFF76BF8F1E7064B1B6800221A70CC
S31508003520FFF79AFF1AF0E3FAE8E700BF1023002036
S31508003530648D02084423002008B51AF0C5FA82B241
S3150800354022B1124B1B883BB9104B1A8002220F4935
S315080035500620FEF71FFF08BD82B207EE902AF8EE96
S31508003560E77A9FED0B7A67EE877A07EE103AB8EEA0
S31508003570C77ADFED086A27EE267A77EE877AFCEEB9
S31508003580E77A024B17EE902A1A80DFE7B822002066
S31508003590CDCCCC3D6666663F10B582B0FFF7CCFF52
S315080035A05A4B1B7F022B2CD0032B7FD08BB10021CB
S315080035B057481AF018FB4FF4FA71564B18680EF074
S315080035C004FAFFF7B9FF544B1B6800221A7002B0C1
S315080035D010BD9DF80430012262F304038DF804300F
S315080035E09DF804306FF346138DF80430484B1522C6
S315080035F01A70022159729DF804105970434B9A7239
S31508003600D5E79DF8002063F301028DF800203F49B5
S315080036104A7F9DF8003062F382038DF800300B7CF8
S31508003620C3F3C1009DF8002060F3C4028DF80020A2
S31508003630C3F340129DF8003062F345138DF800304D
S315080036408B7A282B17D02B2B23D0292BAFD1304B95
S3150800365029221A7006225A729DF800205A702F4A9B
S3150800366012889A70120ADA70284AD27B1A712C4A82
S3150800367012785A719BE7264A282111700421517243
S315080036802249C97A5170254909889170090AD17069
S31508003690D9E71F4A2B21117004215172002151705C
S315080036A01E4909889170090AD170CEE71D4B1B780F
S315080036B0BBB1164B02221A77144B5B7F012B14D031
S315080036C0124B5B7F002B7FF472AF104B1B7C13F001
S315080036D0180F12D00D4B187CC0F3C100FEF7D0FFAF
S315080036E065E70A4B00221A77E6E7084CE0681AF005
S315080036F021FAE07BFEF7B0FEE2E7044CE0681AF038
S3150800370019FAE07BFEF7A8FE51E700BF1023002058
S31508003710042300204023002050230020B822002044
S31508003720FB510020F8510020014B1878704700BF64
S31508003730FA510020F8B506460D468B681B78152BFE
S3150800374001D0002436E0334B1B7F002BF9D100282B
S31508003750F7D1304C207CC0F3C100FEF791FF02235D
S31508003760237701276777237C6FF3C40323743A46CC
S3150800377004F11C010320FEF70DFE3A4604F11D0173
S315080037800420FEF707FE3A4604F110010020FEF772
S3150800379001FED6E704EB44021F4B03EB82035B787A
S315080037A00A2B1DD11C49900001EB820300220A5402
S315080037B05A700134022C21DCAB68197804EB4402F8
S315080037C0154B03EB82039B789942F2D1002EE1D187
S315080037D01149900001EB820300220A545A70E8E767
S315080037E00D4A04EB440C02EB8C00012102F82C1064
S315080037F00B44437002301AF0F6F9DAE7054B9A7A69
S31508003800AB681B789A4200D0F8BD044B1B680022AF
S315080038101A70F9E710230020E02200204023002038
S3150800382010B59038062846D8DFE800F0042630455B
S3150800383045373E000124234B1C70C8220221002074
S31508003840FEF7D4FE204B1C70204B1B7F6BB11F4B21
S315080038501B7F022B19D11D4B03221A774FF4FA71DD
S315080038601B4B18680EF0B1F80FE01A4B1988184B65
S3150800387018680EF0AAF8EAE70020124B1870124BE7
S31508003880187064220521FEF7B1FE10BD4FF47A7256
S3150800389002210020FEF7AAFEF7E74FF47A7202210A
S315080038A00020FEF7A3FEF0E74FF47A72022100200B
S315080038B0FEF79CFEE9E74FF47A7202210020FEF734
S315080038C095FEE2E7F8510020FA5100201023002067
S315080038D0502300208056002008B523F0B1FF074B7F
S315080038E01B782BB1064B1B68C01A064B984200D8AA
S315080038F008BD05481AF0C0FDFAE700BFF9510020D7
S315080039003C230020A0860100648D020810B582B011
S31508003910002304220121084604F072FA0123042236
S315080039200621002004F06CFA0023012219461046ED
S3150800393004F066FA0120019000240094034622460A
S31508003940214604F0F3F90649204601F017FC1B202E
S3150800395007F03AFC1B201DF099FE02B010BD00BF0F
S31508003960C7DC010808B51EF0E5FE00F017FA00F0FE
S3150800397051FDFFF7CBFF1AF0A2F9074B18781AF09A
S31508003980BCF800F067F91EF0C7FE1EF0FCFE1EF03C
S31508003990C4FE22F049FDF8E7FB51002008B5024BAA
S315080039A01B6803B1984708BD8423002008B5024B5D
S315080039B05B6803B1984708BD8423002008B5024B0D
S315080039C09B6803B1984708BD8423002008B5024BBD
S315080039D0DB6803B1984708BD8423002008B5024B6D
S315080039E01B6903B1984708BD8423002008B5024B1C
S315080039F05B6903B1984708BD8423002000B585B0EC
S31508003A00094B1868094B1860094B0A4A13600A4A99
S31508003A1001920A4A12680292039301A91DF07AF9E3
S31508003A2005B05DF804FB00BFA0540020C831002093
S31508003A3094540020C43100202C8D020858260020FA
S31508003A4008B5024B18681DF079F908BDA054002086
S31508003A5038B507F0EFFB0446064D2B68D3F8B002DD
S31508003A6007F0DCFB28681DF083F9204607F0D6FB33
S31508003A7038BD00BFA05400200023062073B170474C
S31508003A8054B224B9013353B15DF8044B7047022888
S31508003A90F8D008680A4908601046F3E710B4094ADE
S31508003AA052F823100A7A022AEAD9032AEAD1441ECE
S31508003AB0E4B2012CE6D90868014908601046E1E736
S31508003AC058260020A454002010B5A2B0202422466F
S31508003AD000211AA821F025FF304B1A934FF4E13341
S31508003AE01C9302238DF8753003238DF876302C4B02
S31508003AF01E9306238DF87E3009238DF88030002129
S31508003B00159116911791189119914FF480131593E1
S31508003B10244B199310911191129113911491224BE0
S31508003B201093224B14933C2201A821F0FAFE0DF1C2
S31508003B30040E0DF1540CBCE80F00AEE80F00DCF8DB
S31508003B400030CEF800300DF1180E0DF1400CBCE82F
S31508003B500F00AEE80F00DCF80030CEF80030144B4A
S31508003B600B930C9401238DF834308DF83530114BB6
S31508003B700F93114B1AAA01A9104807F007FC04462F
S31508003B809DF837303BB100214FF4E1301AF0ECFADA
S31508003B90204622B010BD0321F6E700BF08910208AF
S31508003BA0F89002083C00015B010010004400015B2C
S31508003BB05C260020B85400207C26002038270020E8
S31508003BC008B531B9084B1868036823B107F0F4FF44
S31508003BD001E0012900D908BD034B18680368002BCA
S31508003BE0F9D01EF08AF8F6E7CC54002008B5034948
S31508003BF0034808F055F9FFF767FF08BDD0540020C1
S31508003C006027002008B502481DF0DBFD08BD00BF8F
S31508003C103827002008B502481DF0D3FD08BD00BFAF
S31508003C203827002008B5024B5A6A1868904708BD1D
S31508003C303827002008B502481AF01AFB08BD00BF4D
S31508003C404C8D020808B502481AF011FC08BD00BFE1
S31508003C50648D020870B590B001212A2003F0D6F8C9
S31508003C6000250D950E950F951B4E2A461B49304685
S31508003C7004F050F98DF839000DF10C0C184C0FCCE6
S31508003C80ACE80F000FCCACE80F0094E803008CE812
S31508003C9003004FF4966306930195029503238DF866
S31508003CA006308DF8065001238DF800308DF8015046
S31508003CB08DF802508DF8035010238DF8013003AAB1
S31508003CC00DA9304604F066F96A4601A930461CF08B
S31508003CD05FFA10B070BD00BF0040005940420F00A7
S31508003CE07C8D020842B9C0B201228A4000EB40002E
S31508003CF00001074B1A507047012A00D07047C0B21E
S31508003D0001228A4000EB40000001024B1A50F5E7F9
S31508003D1040E0035040D0035000B583B00B46054938
S31508003D20097801910092002201211EF0A3FE03B03A
S31508003D305DF804FBF656002070B50446067905685A
S31508003D40FA2022F08BFF854205D2134B03EBC603FC
S31508003D5000221A7170BD25684FF47A7022F07EFF32
S31508003D60854205D20C4B03EBC60301221A71F1E713
S31508003D70246840F6B83022F071FF844205D2064B1B
S31508003D8003EBC60302221A71E4E7034B03EBC603EF
S31508003D9003221A71DEE700BF7427002038B5114BDD
S31508003DA018681AF043F9054698B9002408E00E4B3E
S31508003DB053F824001AF063FA01280CD00134E4B24F
S31508003DC0002CF4D0094B00221A70064B18681AF01A
S31508003DD03DF9284638BD23F033FD054B43F834003A
S31508003DE0ECE700BF70270020D8540020F7560020C3
S31508003DF07427002000B9704730B583B00446104DCB
S31508003E00104928681DF097FC1AF049F81AF048F886
S31508003E100D4B00934FF48D730C4A0D4928681DF01D
S31508003E208AFC23460B4A0C4928681DF084FC204668
S31508003E3000F086F9094928681DF07DFC00BEFDE7FB
S31508003E407C2700200C7B0208548E0208A48D0208E9
S31508003E50148E0208208E0208288E0208408E020858
S31508003E6000B589B000230BB1002312E000222449D3
S31508003E7041F823202349CA540133DBB2F3E7224A27
S31508003E8002EBC30104200871002142F83310013304
S31508003E90DBB2002BF3D00023019302930393049320
S31508003EA00593069307939DF8043043F001038DF8B4
S31508003EB00430DBB243F008038DF80430DBB243F07C
S31508003EC020038DF80430114B0293114B0393022300
S31508003ED08DF810304FF4806305930523ADF818303C
S31508003EE00423ADF81A30082307930A4901A800F0FD
S31508003EF045F910B909B05DF804FBFFF77BFFF9E750
S31508003F006C2700206827002074270020193F000826
S31508003F1071DE01087027002010B584B001AA02A935
S31508003F20124B18681AF0D4F8E0B902A8FFF704FF94
S31508003F3000242CB10D4B18681AF088F804B010BD8F
S31508003F400B4B03EBC4031979042902D10134E4B2FB
S31508003F50EFE72046FFF7CAFA054B03EBC403042232
S31508003F601A71F3E7FFF746FFE8E700BF702700205E
S31508003F70742700201D4B1B78002B36D170B582B0F4
S31508003F8000240CB102B070BD194B53F8243083429B
S31508003F9002D00134E4B2F4E71AF071F901281ED010
S31508003FA023F04EFC134B53F83460861B00968DF8AD
S31508003FB00440282022F052FE864205D80D4B03EB1A
S31508003FC0C4031B79052BDDD1082269460A4B1868FC
S31508003FD01AF04CF80028D5D0FFF70CFFD2E723F0EB
S31508003FE02FFC044B43F83400CCE77047F756002003
S31508003FF0D8540020742700207027002010B5836845
S31508004000C26853F822301C7804B10024064B1B5DA5
S3150800401003B110BD23F014FC044B43F82400024BF3
S3150800402001221A55F5E700BF682700206C270020F3
S3150800403038B58368C26853F822301C7804B1002466
S31508004040194B1B5D012B00D038BD23F0F9FB174B2C
S3150800405053F82450451B144B00221A55FA2022F017
S31508004060FDFDA84204D900212046FFF73FFAEBE7F9
S315080040704FF47A7022F0F2FDA84204D901212046B5
S31508004080FFF734FAE0E740F6B83022F0E7FDA84239
S3150800409004D902212046FFF729FAD5E7032120464D
S315080040A0FFF724FAD0E700BF682700206C27002016
S315080040B003460B4A107828B10A4A12789A4202D265
S315080040C0002000E00120084A12783AB1074A12781F
S315080040D042FA03F313F0010F00D10020704700BF26
S315080040E0FA560020F9560020FD510020F856002007
S315080040F008B5084B01221A70074B00221A70074BA5
S3150800410004221A70064B1F221A7007F093F8054B03
S31508004110186008BDFA560020FD510020F956002007
S31508004120F85600207C27002008B50349034B186879
S315080041301DF001FB08BD00BF6C8E02087C2700201D
S3150800414070B506460A4C0B4920681DF0F4FA07F0CC
S3150800415071F80546206807F061F83046FFF7E4FF76
S31508004160284607F05BF8044920681DF0E4FA70BD9C
S315080041707C270020708E0208748E0208F8B5002885
S315080041804FD00D46044600294DD0037813F0030F8F
S3150800419036D04268002A48D013F0080F02D0A28A07
S315080041A0002A44D013F0200F05D0E38A002B40D014
S315080041B0A369002B3FD02C201DF0F9FE06460028E7
S315080041C03BD02C22002121F0ACFB21686268A36851
S315080041D0E0687160B260F360306121696269A36961
S315080041E07161B261F361237813F0040F0ED00027D2
S315080041F02E60636843B13146114819F0D9FF03E0D0
S315080042004268002AC8D021273846F8BD0121304621
S3150800421019F0D8FE07460028EAD030461DF0A6FF5A
S31508004220F2E72227F0E72227EEE72127ECE7212706
S31508004230EAE72127E8E72127E6E71927E4E700BFA9
S315080042408027002008B5034819F0ABFF19F03FFD99
S3150800425008BD00BF8027002010B50B4B1C6802E084
S3150800426023F09AF8246864B123F09BF894F8203078
S31508004270002BF5D0A36A002BF2D023F08DF800208E
S3150800428000E0012010BD00BF8027002010B50B4BB1
S315080042901C6802E023F080F8246864B123F081F8F2
S315080042A094F82030002BF5D0A36A002BF2D023F027
S315080042B073F8042000E0012010BD00BF802700200D
S315080042C010B50C4B1C6802E023F066F824687CB134
S315080042D023F067F894F82030002BF5D0A36A002B5A
S315080042E0F2D0013BA36223F057F8A3689847EDE79D
S315080042F010BD00BF8027002008B5044823F026F922
S3150800430019F007FD00F086F808BD00BFF090020816
S3150800431008B5024823F01AF908BD00BFF090020854
S315080043202DE9F04180460F4601F10905002634467D
S3150800433004E05B21082000F093FA0134AC4233D242
S31508004340052C1BD801A353F824F000BF33430008FB
S3150800435065430008994300086D4300087143000847
S3150800436075430008FBB20433D9B2E3E78021E1E7DD
S315080043700021DFE7731C3146DEB2DBE7BB1DA34233
S315080043800CD0FB1DA3420BD007F10803A34209D0AA
S31508004390A31F18F80310CDE7D121CBE75A21C9E7A7
S315080043A05A21C7E75D21C5E70020BDE8F08100BFB7
S315080043B000B583B000220092019202218DF8001008
S315080043C0054819F0BBFE019008216846FFF7A8FFCB
S315080043D003B05DF804FB00BF006A180000B583B09F
S315080043E0044B1B88ADF8043001A800F015FB03B098
S315080043F05DF804FB788E020800B583B0044B1B8871
S31508004400ADF8043001A800F0D7FA03B05DF804FB54
S31508004410788E02082DE9F04F97B04D4D09AC2E1D48
S315080044200FCE0FC43368236001AC05F118060FCE12
S315080044300FC496E80F0084E80F00464823F086F874
S31508004440454823F083F801268DF8096000248DF885
S315080044500840424B0B9301AB0D93414F09A93846CF
S315080044601BF047FEB5F838B0ADF838B0324604212F
S315080044700EA800F065FAB5F83CA0ADF83CA02246B7
S3150800448031460FA800F05CFAB5F84090ADF84090B8
S315080044903246042110A800F053FAB5F80080ADF8AA
S315080044A044803246042111A800F04AFA2D4D2E4BBD
S315080044B0C5F8F8344FF00213C5F8F434A3F5803381
S315080044C0C5F8FC341C23C5F8E4344FF4487008F0EA
S315080044D035FBFFF783FF142008F030FBFFF78CFF4E
S315080044E0232008F02BFBFFF779FFB92138461BF08C
S315080044F0E8FDFFF781FFADF848B02246214612A82D
S3150800450000F01EFAADF84CA02246214613A800F08A
S3150800451017FAADF850903246214614A800F010FA62
S31508004520ADF854803246214615A800F009FA3846F7
S3150800453003F086F9C5F8E444C5F8F844C5F8F44428
S31508004540C5F8FC44044823F006F817B0BDE8F08F18
S31508004550788E0208F0900208F4900208E070720063
S3150800456000000A5000C003500200030008B50448C2
S31508004570044A121A9210044919F009FE08BD00BF30
S3150800458080010008800300086052002008B5154B1A
S3150800459083F30A8800F030F8FFF7E8FF124A0AE0CA
S315080045A01068516850F8230041F8230001339168D8
S315080045B08B42F5D30C320D4B9A4201D20023F6E713
S315080045C00B4A08E01168002041F8230001335168BE
S315080045D08B42F7D30832074B9A4201D20023F6E7FB
S315080045E0FDF76CFE0000002040D502084CD50208F5
S315080045F04CD502084CD5020870B5134B134A9A607D
S31508004600D3F8882042F47002C3F88820104A4FF481
S31508004610804191660F4D05F500544FF0FF32226632
S315080046200D4A62660222C3F8D020BFF34F8FBFF34C
S315080046306F8F002006F0C8FD4FF44036E660002074
S315080046401DF024F82E6170BD00ED00E000000008A2
S3150800465000900050008000447FFF7F01014B1860E6
S31508004660704700BFEC54002008B5064B1860064B8F
S315080046701B6F03F00703032B00D008BD21F0D8FBFE
S31508004680FBE700BFF454002000800050BFF34F8FB3
S315080046900549CA6802F4E062044B1343CB60BFF3D2
S315080046A04F8F00BFFDE700BF00ED00E00400FA05EC
S315080046B0F0B18446F1B110B409E004F120000FE02E
S315080046C02033C01A18D1BCB10CF1010C01319CF889
S315080046D000400B4B1B5D03F00303012BEDD0204676
S315080046E00B78074AD25C02F00302012AE9D1E7E710
S315080046F001207047012070475DF8044B704700BFE2
S3150800470005D4020830B587B00546046823798DF8C4
S315080047100C3063798DF80D301A4822F017FF002205
S31508004720012103A800F00CF90DF10B0103A819F0FB
S3150800473067FE9DF80B302370A379022B02D0002068
S3150800474007B030BD4FF0FF330593049300950E4B29
S31508004750012205A903A800F02FFA059BB3F1FF3F34
S3150800476007D00095084B022204A903A800F084F993
S31508004770E5E70095044B042204A903A800F07CF998
S31508004780DDE700BFF09002088DE2010810B582B09F
S31508004790002401942A4822F0D9FE8DF8004003230C
S315080047A08DF8013001220421684600F0C9F8254B2E
S315080047B00122C3F8442401A9052022F0C0FE0028DE
S315080047C03BD1214BD3F8F02042F00102C3F8F02088
S315080047D0D3F8FC2042F08072C3F8FC20A3F55D43B1
S315080047E01A4A1A60019B03F5D52303F2FC43DB083A
S315080047F0174AA2FB03239B0A013B164A13610223AD
S31508004800C2F8F0304FF48073C2F804334FF06043B7
S31508004810114AC3F8B02F114AC3F8802ED3F8002ED8
S3150800482042F48072C3F8002EFF2283F82020D3F8C2
S31508004830002E22F48072C3F8002E02B010BD00BF0D
S31508004840F090020800D0035000ED00E0FF0300409E
S3150800485017916502000004E055CEACC509000100B9
S315080048604FF06043D3F8803E13F0010F01D11120B9
S3150800487070470E4AD2F8FC3043F08073C2F8FC3019
S315080048804FF06043D3F8002E4FF0010C0CFA00FCF1
S3150800489042EA0C02C3F8002E53F82030002BE8D069
S315080048A04FF0604303F820100020704700ED00E049
S315080048B010B504460FE00123834024EA03040F28B9
S315080048C014D800EB40020E4B03EB82035A6812B170
S315080048D09968C0B2904794B1234600201F28EAD8A9
S315080048E013F0010FE7D101305B08F7E7103800EB4A
S315080048F040039B00B033024A13440433E6E710BD75
S315080049008427002008B50D4822F020FE1A2006F05C
S315080049104BFC28B91B2006F047FC40B9002008BD0F
S315080049201A2006F051FC1A201CF0B0FEF2E71B20F4
S3150800493006F04AFC1B201CF0A9FEEFE7F0900208DF
S315080049402DE9F04170B30C46174605460F292BD8BA
S3150800495003784BB1022B20D0032B21D0012B01D099
S31508004960002303E07F2301E040F2FF736A78D34017
S3150800497013F0010F1AD00F4BD3F81063C6B922F003
S3150800498023FD80463A462146284603F067FE404600
S3150800499022F015FD3046BDE8F08140F2FF33E5E729
S315080049A03F23E3E72226F5E72126F3E72126F1E769
S315080049B00226EFE700C0035040B310B5044603785B
S315080049C04BB1022B1DD0032B1ED0012B01D0002387
S315080049D003E07F2301E040F2FF736278D34013F0CF
S315080049E0010F15D022F0F0FC23786278012191405E
S315080049F003EB43031B01074AD15022F0E0FC0020D9
S31508004A0010BD40F2FF33E8E73F23E6E72220704770
S31508004A102120F5E740D0035040B310B5044603788B
S31508004A204BB1022B1DD0032B1ED0012B01D0002326
S31508004A3003E07F2301E040F2FF736278D34013F06E
S31508004A40010F15D022F0C0FC23786278012191402D
S31508004A5003EB43031B01074AD15022F0B0FC0020A8
S31508004A6010BD40F2FF33E8E73F23E6E72220704710
S31508004A702120F5E740E00350002866D02DE9F041F3
S31508004A800C4615461F460646002960D002784AB1EC
S31508004A90022A3ED0032A3FD0012A01D0002303E090
S31508004AA07F2301E040F2FF737178CB4013F0010FCA
S31508004AB001D1FF2A4DD1022D01D9042D4BD122F067
S31508004AC083FC80463378FF2B28D12368B3F1FF3F58
S31508004AD02BD02268B2F1FF3F32D0204B02EB4202C4
S31508004AE003EB82025760226802EB420203EB820361
S31508004AF0069A9A603378FF2B05D0226801239340E3
S31508004B00174AC2F82434404622F059FC0020BDE872
S31508004B10F08140F2FF33C7E73F23C5E72A462168FD
S31508004B20304603F005FE2060CFE73378FF2BD0D15F
S31508004B300C4BD3F8241470781BF0AAFC2060C8E745
S31508004B40404622F03CFC2D20E1E722207047222037
S31508004B50DDE72120DBE72120D9E700BF84270020F5
S31508004B6000D0035000C00350B0F1FF3F1AD038B54B
S31508004B7004460F2818DC002818DB22F025FC012340
S31508004B80A3400B4AC2F82034C2F82434094B04EB7C
S31508004B90440203EB820200255560956022F00FFC63
S31508004BA0284638BD212070472120FAE72120F8E75A
S31508004BB000E0035084270020002856D02DE9F04154
S31508004BC00C4617461E460546002950D0017849B1BD
S31508004BD0022939D003293AD0012901D0002303E05C
S31508004BE07F2301E040F2FF736A78D34013F0010F88
S31508004BF001D1FF293DD122F0E7FB80462B78FF2B18
S31508004C0027D12268B2F1FF3F2AD01B4B02EB4202A2
S31508004C1003EB8202C2F8B860226802EB420203EB99
S31508004C208203069AC3F8BC202B78FF2B06D022688D
S31508004C30103201239340114AC2F82434404622F028
S31508004C40BEFB0020BDE8F08140F2FF33CCE73F23EE
S31508004C50CAE73A462168284603F00AFE2060D0E7EC
S31508004C60404622F0ACFB2D20ECE72220704722209C
S31508004C70E8E72120E6E700BF8427002000D003509C
S31508004C8008B5084BD3F82404D3F82024104000F0C4
S31508004C90553020F0502003F50053C3F82004FFF7E1
S31508004CA007FE08BD00C0035008B5084BD3F8240416
S31508004CB0D3F82024104000F0AA3020F0A02003F5F5
S31508004CC00053C3F82004FFF7F3FD08BD00C00350E6
S31508004CD010B582B004460A4822F038FC23788DF8CD
S31508004CE0043063788DF80530A278B2FA82F2520958
S31508004CF004210DEB0100FFF723FE002002B010BDD2
S31508004D00F0900208F0B585B00C4694469DF834102C
S31508004D10664A1278002A00F0BD800546BCF1070FE6
S31508004D2000F2BA800A9A002A00F0B8800B9A002A84
S31508004D3000F0B6800E9AB2F5006F00F3B380012832
S31508004D405BD05B4A02EB0C12127B002A00F0AC80A7
S31508004D5000220092019202920392564A02EB4C1EDE
S31508004D60002C4FD14FEA4C1600209051CEF8040083
S31508004D70CEF80800CEF80C009EF8020040F01000AD
S31508004D808EF802009EF8030040F030008EF803000B
S31508004D9021B9C1B241F003018EF8031000930E9BAE
S31508004DA0013B444A4FEA4C1002EB4C11165A63F386
S31508004DB00E1616520A9B8B600B9B4B60CB789DF8A0
S31508004DC03C2062F38303CB70012D36D0109B002B59
S31508004DD056D0374A4FEA0C1102EB0C131098505074
S31508004DE0119A5A6000249C605D7372466946604653
S31508004DF003F0F6FA204605B0F0BD0C9A002AA0D1B9
S31508004E002D48F8E72B4F4FEA4C1607EB4C120020BB
S31508004E10B85150609060D060907840F01000907063
S31508004E20D07840F00300D0700029B7D107EB4C12B8
S31508004E30C1B241F03001D170B0E70E460A7B42F0AC
S31508004E4001020A73D2B242F002020A73CA68042146
S31508004E5061F39F02F26006F1100796E80F0087E8F3
S31508004E600F00F2696FF0030161F39F02F2610C9B78
S31508004E707361012CAAD10B9AB2610C9A7260A5E7EC
S31508004E80002DA6D10B4B03EB4C139A786FF3041243
S31508004E909A709EE70948AEE70748ACE70648AAE7CE
S31508004EA00548A8E70448A6E70548A4E7FE510020F8
S31508004EB0EC290020EC280020018000F0028000F098
S31508004EC0078000F0134B1B78FBB110B50446F0B110
S31508004ED022F07AFA0023072B13D80F4A02EB0312A3
S31508004EE0127B0AB10133F6E723600B4A190102EB7C
S31508004EF0031301241C730024545022F060FA204640
S31508004F0002E022F05CFA054810BD054870470548DE
S31508004F10FAE700BFFE510020EC290020048000F0CB
S31508004F20028000F0018000F038B522F04DFA044600
S31508004F300023072B06DC0C4A02EB0312127B12B97C
S31508004F400133F6E7002222B1204622F038FA074854
S31508004F5038BD03F0F1F90025054B1D70204622F0F7
S31508004F602EFA2846F4E700BFEC290020058000F059
S31508004F70FE5100200F4B1B78BBB110B5044607281D
S31508004F8015D822F021FA0C4B03EB04131B7B1BB933
S31508004F9022F015FA09480BE0074B03EB041300242B
S31508004FA01C7322F00CFA204602E0054870470548B3
S31508004FB010BD00BFFE510020EC290020068000F03D
S31508004FC0028000F0018000F000B583B0134B1B6827
S31508004FD0019300238DF8043022F0F6F9104B1B7864
S31508004FE033B90F4B01221A7022F0E9F9002309E0C0
S31508004FF022F0E5F90B480EE00B4A02EB03120021FA
S3150800500011730133072BF7DD08238DF8073001A844
S3150800501003F0B6F9002003B05DF804FBBC8E020865
S31508005020FE510020038000F0EC29002010B5104C3A
S315080050302478BCB1072817DC0E4C04EB0014247B3B
S31508005040A4B10C4C4FEA001E04EB001C44F80E30C9
S31508005050029BCCF804300024CCF8084003F0C0F9D1
S31508005060204610BD0448FCE70448FAE70448F8E778
S31508005070FE510020EC290020028000F0018000F09B
S31508005080078000F008B50A4B1B785BB107280BD8D8
S31508005090084B03EB00131B7B43B1002103F062F9B5
S315080050A0002008BD0448FCE70448FAE70448F8E786
S315080050B0FE510020EC290020028000F0018000F05B
S315080050C0078000F008B50A4B1B785BB107280BD898
S315080050D0084B03EB00131B7B43B1012103F042F994
S315080050E0002008BD0448FCE70448FAE70448F8E746
S315080050F0FE510020EC290020028000F0018000F01B
S31508005100078000F0F8B5194B1F6D5B6D1F4002D480
S315080051100125002402E0FEE701346D00072C24D89F
S315080051203D42F9D0124B1D652301124AD358002B74
S31508005130F2D002EB0416B1680131B16072682046FC
S31508005140984780F00100C0B2737B012BE4D1002898
S31508005150E2D0094B03EB44131A7B6FF341021A732F
S315080051601A7F6FF341021A77D6E7F8BD000004509C
S3150800517000200450EC290020EC28002000B585B05A
S31508005180FF238DF80C308DF80D3002900F2809DCBE
S315080051900091094B002202A903A8FFF76DFC05B090
S315080051A05DF804FB103802900091034B002202A917
S315080051B003A8FFF701FDF2E767E501082DE9F04FBF
S315080051C089B005460E4614469846C36B5B690122AC
S315080051D007A960689847EB6B5B69012206A9304608
S315080051E0984707A81AF0A2FB48B10027A775677564
S315080051F04FF0FF33A360384609B0BDE8F08F074685
S3150800520006A81AF0A3FB0123A375237E033304EB38
S31508005210C3035E6000221A816368B3422AD02368FA
S31508005220834201D00023A37506A81AF0B4FB237D98
S31508005230984201D00023A37506A81AF08BFB814675
S3150800524007A81AF087FB814501D00023A37506A895
S315080052501AF088FB814607A81AF084FB814501D01D
S315080052600023A375237D043BDBB2022B0BD8002356
S31508005270A375C0E7206006A81AF08DFB20754FF0CD
S31508005280FF33A360EEE706A81AF064FB80B1EB6B68
S315080052905B69022204A93046984704A81AF06DFBF8
S315080052A00346207D032868D8DFE800F0615B070D18
S315080052B006A81AF062FB0346F3E7237E033304EBE2
S315080052C0C303CC221A811AF076FB129B187094F845
S315080052D0189006A81AF031FB09F1030904EBC9096D
S315080052E089F80A00237E033304EBC303B3F808A046
S315080052F093F80AB006A81AF02DFB814606A81AF0FC
S3150800530031FB0390B9F1000F3DD0EB6B5B690222CC
S3150800531004A93046984704A81AF0EBFA6075637D2D
S3150800532003B9A375A37DA3B1BAF1000F11D0039BEE
S31508005330F1186B6C5B4286EA01021A4201D000231F
S31508005340A3756B6C5A1E0A409B1A9A4501D900230D
S31508005350A375A37D002B40D0BBF1000F18D1E77DC4
S315080053603CE0227E033204EBC2021381ABE7227EC5
S31508005370033204EBC2021381A5E7227E033204EB53
S31508005380C20213819FE706A81AF09CFA6075C6E761
S315080053900122E275627EBAB9BBF1010F08D095F811
S315080053A03470DFB9EA6AB2F1FF3F05D01F4615E04F
S315080053B001216176174611E0BBF1030F01D01F46A4
S315080053C00CE00122A27609E0BBF1010F37D0BBF150
S315080053D0030F03D10122A27600E01F4653B117B18D
S315080053E0BBF1010F06D95346039A3146284619F0F0
S315080053F0E0FBA060A37D13B1236953442361237E98
S31508005400114A127893421CD201332376B8F1000F61
S3150800541013D0A37D8BB1E37D7BB177B9BBF1030FC5
S315080054200BD0A168B1F1FF3F07D0129B009301236F
S3150800543022462846FFF7C2FEA075A77DDBE617467B
S31508005440CCE70023A375E1E7E08E02082DE9F04FCB
S3150800545089B005460F4692469B4600238DF80B30C9
S315080054604FF0FF31104600F0EFFFB7F5801F1DD350
S315080054700023009317F1020F07D0009B002B40F082
S315080054809E802B7C002B00F08C80EB6AB3F1FF3FEB
S315080054902CD02A689B1A6A6CB3FBF2F917F102083A
S315080054A018BF4FF00108002301935DE00DF10A02D1
S315080054B0394605F1080000F017FF0146B0F1FF3F35
S315080054C011D0504600F0C0FF0DF10B0301225146E2
S315080054D0284619F0EDFB00900028CBD09DF80B303C
S315080054E08BF80030C6E700230093C3E7696A2846AD
S315080054F019F080FA8146D1E70123019337E09DF838
S315080055000B308BF80030324B1A683249504620F07F
