:020000040800F2
:1000000000200020D9480008A5E90108A5E9010859
:1000100063300208A5E90108A5E90108A5E901087E
:10002000A5E90108A5E90108A5E90108A5E9010874
:10003000A5E90108A5E90108A5E90108A5E9010864
:10004000A5E90108A5E90108A5E90108A5E9010854
:10005000156A0008A5E90108A5E90108A5E9010854
:10006000A5E90108A5E90108A5E90108553F00082F
:10007000453F0008A5E90108A5E90108A5E901082F
:10008000A5E90108A5E90108A5E90108A5E9010814
:10009000A5E90108A5E9010851540008A5E90108EE
:1000A000A5E90108A5E90108F54F0008CD4F0008B2
:1000B000A5E90108A5E90108FDBA0108A9C50108DB
:1000C00077610208736102085DBD01088D61020855
:1000D0007B61020879C501087F6102080DC601082D
:1000E00045C60108A5E90108A5E90108CDD6000823
:1000F000A5E90108F91F0208A5E90108A5E9010819
:10010000A5E90108A5E90108A5E90108A5E9010893
:10011000A5E90108A5E90108A5E90108A5E9010883
:10012000A5E90108A5E90108A5E90108A5E9010873
:10013000A5E90108A5E90108A5E90108A5E9010863
:10014000A5E90108A5E90108A5E90108A5E9010853
:10015000A5E90108A5E90108E5820208E99F01086F
:10016000A5E90108A5E90108116102081761020863
:10018000194A5AB3194BDB6913F0040F29D110B483
:100190000AE003EA00048C4210D0013AB2B1134BDA
:1001A000DB6913F0040F14D110F0010FF1D1104CE2
:1001B0001C40002CEDD06FF001000CE00C4A1A40FE
:1001C0000AB9002007E06FF0010004E06FF00200C0
:1001D00001E04FF0FF305DF8044B70476FF0020014
:1001E00070474FF0FF307047809698000000035032
:1001F000020001000D4BDB6913F4803F12D170B592
:100200000A4B03F580560124F46003F500552C6475
:100210004FF480721A6100212046FFF7B1FF346469
:10022000EC6070BD6FF00100704700BF000003502C
:1002300010B5124B4FF480329A6603F51C33DC691B
:10024000144041F67132DA6303F580520121D16026
:10025000586102221A6100212120FFF791FF40B16D
:10026000074B0122DA601CB1A3F500530022DA63C8
:1002700010BD00212120FFF783FFF1E7009000501F
:100280000020035038B51A4B5861DB6913F0040F96
:100290002AD10C4654F8041B154B9961151F06E032
:1002A000214651F8042B124B9A61043D0C465DB176
:1002B00008210846FFF764FF03460028F0D00C4AE7
:1002C00004211161184638BD094B04221A6100212E
:1002D0002120FFF755FF03460028F3D100212120FC
:1002E000FFF74EFF0346EDE74FF0FF33EAE700BFAD
:1002F000000003502DE9F0410F46164605461A4B03
:100300004FF480329A6603F51C33DA6902F48038C0
:1003100041F67132DA6303F580530122DA6000237B
:1003200002E025442744361B8EB105F5005424F421
:10033000FF5424F01F04641BB44228BF34462246F5
:1003400039462846FFF79EFF03460028E9D0074AB2
:100350000121D160B8F1000F03D0A2F500520021B5
:10036000D1631846BDE8F081009000500020035092
:10037000000000000000000000000000000000007D
:10038000013800D0FCE770472DE9F04F2DED028BCE
:1003900093B082460C4693461D4657EC106B8DED8C
:1003A000080B32463B46304639461CF01FFE0028FB
:1003B00000F009814FF0FF32B14B304639461CF056
:1003C0003DFE002840F0FF804FF0FF326FF48013B5
:1003D000304639461CF014FE002840F0F48000221C
:1003E0000023DDE90867304639461CF009FE002885
:1003F00040F0FC809DED087B8DED067B209B13F487
:100400008063119301D106231E93DDE906010246A4
:10041000C1F30A50C1F31303904643F07F5949F4E6
:100420004019A0F2FF301CF00FFB83A3D3E9002397
:100430001CF074FB82A3D3E900231CF0B9F9064633
:100440000F4600228F4B404649461CF0AFF97EA371
:10045000D3E900231CF062FB02460B4630463946C6
:100460001CF0A6F91CF0F4FD06461CF0EDFA8046DF
:10047000894677A3D3E900231CF050FB0022824B6E
:100480001CF096F91CF0E4FD074673A3D3E90023A2
:10049000404649461CF042FB8046894638461CF0DF
:1004A000D3FA6FA3D3E900231CF038FB02460B46B6
:1004B000404649461CF07AF98046894602460B467A
:1004C0001CF02CFBCDE90C0107F2FF3700210022C4
:1004D000CDE90A123B050B9300230A9342464B4693
:1004E000404649461CF064F9CDE90E0142464B46B0
:1004F00000204FF080411CF059F9804689460022C7
:10050000624BDDE90C011CF033FC0022604B1CF057
:100510004FF902460B46DDE90C011CF029FC0022D4
:100520005C4B1CF045F902460B46DDE90C011CF062
:100530001FFC02460B46404649461CF039F902466C
:100540000B46DDE90E011CF013FC0022524B1CF09F
:100550002FF9DDE90A231CF0E1FA8046894649ECCF
:10056000188BDDE906231CF069FD40B1013E002235
:10057000474B404649461CF0FBFB41EC180B06F18B
:100580006303C62B3BD80427209B13F4006F40D095
:1005900035A3D3E90023DDE90689404649461CF02E
:1005A00043FD00283BD032A3D3E90023404649460F
:1005B0001CF026FD002832D01E9BB34221DD9E1B7D
:1005C000731E1E931FE0209B02931F9B01931E9B93
:1005D00000939DED080B2B465A462146504600F0ED
:1005E000CBF813B0BDEC028BBDE8F08F9FED227B02
:1005F0008DED067B069607F100430793FEE605277F
:10060000C2E700231E93209B43F4806320930027BE
:100610003E461F9B9F4241D2A3EB070840E01E9B32
:10062000002BF6D0119B002BF3D01E9B013B1E9399
:10063000EFE700BFAFF30080FB799F501344D33F37
:10064000B3C8608B288AC63F61436F63A787D23FD8
:1006500071A379094F930A401655B5BBB16B02409F
:10066000EF39FAFE422EE63F2D431CEBE2361A3FED
:100670000000000080842E41000000000000000007
:10068000FFFFEF7F0000F83F0000E03F00002C403C
:1006900000002440000018400000F03F4FF0000828
:1006A000209B13F0020902D00FB14FF000083EB1B9
:1006B00053EC182BDDE906011CF05AFBCDE90601CD
:1006C00000220023DDE908011CF09AFC00283BD140
:1006D000209B23F400630293CDF804801E9B0093BB
:1006E0009DED060B2B465A462146504600F044F835
:1006F000002F3FF476AF209B13F0200F2CD04FF04B
:10070000450C00F101082B46024621466046D047C1
:1007100086EAE672A2EBE67205230593013F049791
:10072000002303930A230293F30F019300922B46B5
:1007300042462146504624F012F9B9F1000F3FF429
:1007400050AF02461F9F10E0DDE90601024601F1AD
:100750000043CDE90623BBE74FF0650CD1E7561CFB
:100760002B4621462020D0473246A2EB0B03BB424A
:10077000F5D3104635E700BF2DE9F04F2DED028B84
:1007800093B00590089192469B4659EC108B1E9DA4
:1007900042464B46404649461CF028FC002840D0C3
:1007A0004FF0FF326FF48013404649461CF028FC9E
:1007B000002845D14FF0FF32B14B404649461CF06E
:1007C0003DFC00284BD1AAA3D3E90023404649466B
:1007D0001CF034FC00285AD1A7A3D3E900234046DB
:1007E00049461CF00DFC002851D100220023404650
:1007F00049461CF005FC002857D100230993209B93
:1008000013F4806F5CD000241F2C5BD8092D59D9BC
:1008100004F148036B44302203F8202C013D0134DD
:10082000F2E7209B03931F9B029303230193954BB5
:1008300000935B4652460899059823F0B6FF10E1F5
:10084000209B03931F9B0293042301938E4B0093E1
:100850005B4652460899059823F0A7FF01E1209BCB
:1008600013F004030FD0894A7BB10423209903912C
:100870001F990291019300925B4652460899059890
:1008800023F093FFEDE0824AEEE70323EEE7209B9F
:1008900002931F9B0193009549EC108B5B465246D7
:1008A00008990598FFF770FDDBE042464B460020B3
:1008B00000211BF07BFF80468946012309939EE7B8
:1008C0000625A0E7404649461CF0C2FB06461CF040
:1008D000BBF802460B46404649461BF067FF6D4B8E
:1008E00003EBC50393ED008B53EC182B1CF016F9AA
:1008F00002460B46CDE906231CF0D2FB07461CF04E
:1009000093F802460B46DDE906011BF04FFF024655
:100910000B46CDE9062300225F4B1CF08FFB50B342
:10092000013738461CF080F802460B4651EC180B94
:100930001CF070FB08B10136002755BB30461CF097
:1009400083F802460B46404649461BF02FFF80467F
:1009500089460022504B1CF053FB38B100224E4B0D
:10096000404649461CF06AFB002842D016F0010FB1
:100970003FD001363DE00022474BDDE906011CF087
:100980003FFB0028D9D117B117F0010FD5D001379F
:10099000D3E71F2C17D8013D404BA3FB0723DB08EF
:1009A000194603EB8303A7EB4303621C303304F1C6
:1009B00048000DEB000404F8203C092F02D90F4633
:1009C0001446E6E714461F2C0AD86B1E45B104F105
:1009D00048026A44302102F8201C1D460134F2E727
:1009E0001F2C06D804F148036B442E2203F8202C58
:1009F00001341F2C17D82A4A82FB0632F317C3EBA7
:100A0000A2031A4603EB8303A6EB4303611C3033B6
:100A100004F148000DEB000404F8203C16460AB12E
:100A20000C46E6E70C46209B03F00303012B39D06C
:100A30001F2C09D8099B002B51D004F148036B44AB
:100A40002D2203F8202C0134209B03931F9B02933B
:100A500001940AAB00935B4652460899059823F02F
:100A6000A4FE13B0BDEC028BBDE8F08FAFF30080A5
:100A70000000000065CDCD410000000065CDCDC176
:100A8000FFFFEF7FB09F0208B49F0208A49F0208F7
:100A9000AC9F0208C09F02080000E03FCDCCCCCC48
:100AA000676666661F9BB3B1099B1BB9209B13F059
:100AB0000C0F12D01F9B013B1F93194606E004F157
:100AC00048036B44302203F8202C01348C42AFD20F
:100AD0001F2CF4D9ACE71F99F8E71F99F6E7209B84
:100AE00013F0040F07D004F148036B442B2203F8E2
:100AF000202C0134A8E7209B13F0080FA4D004F1A8
:100B000048036B44202203F8202C01349CE700BFEB
:100B100038B50D46044627F019F9064A13889BB2EA
:100B20002DB123431380BDE8384027F00AB923EAEA
:100B30000403F7E7844B00200022034B01214FF40C
:100B400080709A70E4E700BF844B00207FB54E6848
:100B500002A9044624F09DFD9DF808300C2B19D104
:100B6000134BB3F90050134B9E4218D808F006FA05
:100B700003460068694600909B882046ADF8043023
:100B800024F074FD70B140F25F620B490B480EF027
:100B90000DFDFEE7204614F00BFB0546E3E720F0D1
:100BA000DCF8E5E72946204624F046FD04B070BD98
:100BB0005A510020FFC99A3B69A2020834A00208DA
:100BC000002330B5134C85B0CDE90133039323786E
:100BD0008DF8043027F0BAF8A288E38805469A42D7
:100BE0000DD0E188A06801AAA18024F0DBFB58B1F8
:100BF00040F2DA62084909480EF0D8FCFEE7A06826
:100C000024F0A9FB0128ECD0284627F09AF805B07B
:100C100030BD00BF8C55002069A2020834A0020834
:100C200038B50F4C656835B940F2C7720D490E48AA
:100C30000EF0BCFCFEE723F067FF284411F006FC31
:100C400000F00700032809D164680921204624F038
:100C500077F8205C031F5842584138BD0020FCE75C
:100C6000844B002069A2020834A0020808B5114B89
:100C70009A78042A06D040F28E520F490F480EF09F
:100C800095FCFEE71B881B0706D440F28F520A49E9
:100C90000A480EF08BFCFEE700210820FFF738FF22
:100CA0000222074B98681A7314F03CF8BDE808401C
:100CB00022F032BB844B002069A2020834A0020853
:100CC0008C55002010B5084CA06814F02BF8A068D3
:100CD00024F041FB012806D00122A0681146BDE89E
:100CE000104024F03ABB10BD8C55002038B5194D8A
:100CF000AB7833B140F22B72174918480EF056FC0E
:100D0000FEE727F023F82988044611F0060109D0F0
:100D100001214FF48070FFF7FBFE2046BDE838400C
:100D200027F00FB84FF48070FFF7F2FE13F04CF984
:100D3000012805D010F0FD0F05D1FFF741FFECE7CA
:100D4000FFF7C0FFE9E740F24172034903480EF0A4
:100D50002DFCFEE7844B002069A2020834A00208A3
:100D600070B50446064D95F90860FFF7BFFF13F014
:100D700029F8314620466A68BDE8704012F05ABE34
:100D8000844B002008B50A4B1B88DB0606D440F2D2
:100D9000A752084908480EF009FCFEE70021102080
:100DA000FFF7B6FE13F08CF9BDE8084022F0B4BAA4
:100DB000844B002069A2020834A002080D4B10B534
:100DC0001B8804469B0713D500210220FFF7A0FED5
:100DD000094B5A7BFF2A06D040F2E54207490848F2
:100DE0000EF0E4FBFEE75C73BDE8104022F094BA1D
:100DF00010BD00BF844B00208C55002069A2020862
:100E000034A002087047704707B5ADF806100146D8
:100E100030B94FF4B572104910480EF0C7FBFEE729
:100E2000BDF8063033B940F26B120B490B480EF097
:100E3000BDFBFEE70A4B0DF10602986824F0E0FCCA
:100E400030B140F26D12044904480EF0AFFBFEE7EA
:100E500003B05DF804FB00BF69A2020834A00208D9
:100E60008C55002010B50E4CA37833B14FF4EA72C4
:100E70000C490D480EF09AFBFEE7606019B1A17BAA
:100E8000003918BF01212020FFF742FE074B084818
:100E90009B7B23760223A370BDE8104011F0A2B91A
:100EA000844B002069A2020834A002088C5500205F
:100EB000A04B002008B50CF0A7FE80F00100C0B2E6
:100EC00008BD0A4B9A780AB1062A0CD11B8803F494
:100ED0008B7343B9064B5A7BFF2A04D1187BFF382A
:100EE00018BF012070470120704700BF844B0020CD
:100EF0008C55002008B50CF077FE0028FBD108BD0A
:100F00000C4B42889A8142789A730278DA7382880D
:100F10001A82C2885A82C2685A61017A064A91735B
:100F2000028A998C914204D001214FF400709A8476
:100F3000EEE57047844B00208C550020094B9A89C0
:100F400042809A7B4270DA7B02701A8A82805A8AC7
:100F5000C2805A699B8CC260034A0382927B0272F0
:100F6000704700BF844B00208C5500204B1E012B86
:100F700070B50C4606D940F2B7221A491A480EF04D
:100F800015FBFEE7194D0A460146A86824F062FCED
:100F900030B140F2B922134913480EF007FBFEE7C7
:100FA000AE6811F093F822460146304624F04CFC1E
:100FB00030B140F2BD220B490B480EF0F7FAFEE7C4
:100FC000AD6811F08FF822460146284624F048FC0F
:100FD00030B140F2C122034903480EF0E7FAFEE7C0
:100FE00070BD00BF69A2020834A002088C55002021
:100FF000054BDB7B1B0913F00E0003D0052B8CBFC8
:1010000000200120704700BF8C550020044BDB7B83
:101010001B0913F00E0F0CBF01200020704700BF0A
:101020008C5500202DE9F04F15469A0580461F4645
:101030008FB003D501218020FFF76AFDEB014FF04F
:10104000000955D5984C23889E0751D5974E737B40
:10105000FF2B06D040F2AF42954996480EF0A6FA13
:10106000FEE7636833B94FF49662914991480EF0F8
:101070009DFAFEE749460220FFF74AFDA37886F86D
:101080000D90042B03D101210820FFF741FD00231F
:10109000B06808A98DF82C3024F0FDFA30B140F288
:1010A000BA42834983480EF081FAFEE7FFF7A0FFBA
:1010B000B0B923F029FD8146606823F030FD08A90E
:1010C0008144B068ADF8249024F0E8FA30B140F2E1
:1010D000C242774977480EF069FAFEE7089BA3629F
:1010E000A378032B02D1B06813F01CFE22F014F990
:1010F000B80702D50120FFF761FE15F0A84F02D016
:101100000220FFF75BFEA90220D50021402003AC9E
:10111000FFF7FEFC2146404624F0BAFBB0B99DF82B
:10112000143008AA022B22D18DF82830BDF80C30DB
:10113000ADF82030104612F04FFE38B1404624F092
:10114000A5FB18B901214020FFF7E2FC2A0753D57F
:10115000564E0321B06803AA24F054FB814688B997
:1011600040F2FE42524953480EF020FAFEE7032BAC
:1011700005BF8DF82830D4E900018DF82800C2E9B8
:101180000001D7E79DF80C30B068072B40F01F81B5
:10119000494608AA24F038FB30B140F201524449D4
:1011A00044480EF003FAFEE7FFF722FFBDF80E20D9
:1011B000A0B9FFF72BFF78B1043292B2B06808A94A
:1011C000ADF8242024F022FB40B140F212523849FD
:1011D00038480EF0EBF9FEE70232EEE7BDF80E00FC
:1011E0000121073080B226F0DDFC8246002842D182
:1011F00001210C2013F02AFDA90705D52A4B1B88D5
:101200001A0701D5FFF732FDAB010BD500210420F1
:10121000FFF77EFC244B9B78012B03D1234B98686E
:1012200013F080FD15F0284F03D000210420FFF7B4
:101230006FFC7E060CD51C4C23881D0701D5FFF7DB
:1012400015FD2388580703D500210420FFF760FC13
:10125000F90540F1D88003A9404608AA24F079F89E
:101260000146002800F0BA8040F2D25210491148DD
:101270000EF09CF9FEE74FF0000B26F017FCCDF8BE
:1012800000B00246BDF80E3004464946B06824F06E
:10129000C1FABDF80E3083420ED040F2225204490A
:1012A00004480EF083F9FEE7844B00208C550020A3
:1012B00069A2020834A0020823F026FC204411F0A1
:1012C000C5F800F007000228DFF8589124D199F8FA
:1012D0000230042B90D123F017FC504B204482782D
:1012E0001B789A4288D159460820FFF711FC23F059
:1012F0000BFC204411F0AAF89DF82E30C0F300102A
:10130000307389F80830FFF78BFC00287FF474AF46
:10131000B06813F007FD6FE723F0F6FB204411F0EF
:1013200095F883064AD523F0EFFB204411F08EF8A0
:1013300000F0070003280BD10921204623F000FD0F
:1013400014F800B0ABF1040CDCF1000B4BEB0C0B10
:1013500001210420FFF7DCFBB06824F06EFAC9F825
:101360002C00BBF1000F30D0B9F8003058062CD556
:1013700000214020FFF7CCFB0126BDF80E309DF880
:101380002E200120E254BDF80E309DF82F2023447A
:101390009A71BDF80E10089A0131214411F064F8D9
:1013A000BDF80E3050461C44667126F053FC1C4BB1
:1013B000187811F01DF821F0AFFF1DE799F8023001
:1013C000012B02D1B06813F0ADFC0026D5E724F064
:1013D000FDF94946B06824F01BFA0DE79DF80C3082
:1013E00003F0BF02032A01D0022B0FD10D4C23883A
:1013F0005A0702D50420FFF78BFB23889B0702D5F1
:101400000120FFF7DBFC0FB0BDE8F08F4FF4BF62A7
:10141000054906480EF0CAF8FEE700BFF14B002070
:10142000144B0020844B002069A2020834A002085B
:1014300008B50246FFF7DCFD30B1072A06D80020C8
:10144000034B83F8302008BD7020FCE70220FAE748
:10145000844B002008B50246FFF7CAFD28B10020E2
:10146000034B93F83030137008BD7020FCE700BFC9
:10147000844B002008B5074B01460022986824F0F1
:10148000E9F930B140F2EB22034904480EF08EF83E
:10149000FEE708BD8C55002069A2020834A00208AE
:1014A00008B5074B01460022986824F0CDF930B109
:1014B00040F2F122034904480EF078F8FEE708BD37
:1014C0008C55002069A2020834A0020808B5074B19
:1014D0000146986824F0CAF930B140F2F722044975
:1014E00004480EF063F8FEE708BD00BF8C550020ED
:1014F00069A2020834A0020808B5074B9B7833B1F3
:1015000040F20132054906480EF050F8FEE7BDE80A
:101510000840FFF7EBBB00BF844B002069A2020824
:1015200034A0020808B5054B0146986824F084F8F9
:10153000002814BF8B20002008BD00BF8C55002060
:10154000014B986813F034BE8C550020014BD888AD
:10155000704700BF8C5500207FB50123ADF80E30D9
:101560004FF6FE7309480093806800230DF10E02C8
:1015700004A923F0EEFF212800D020B9BDF8100007
:1015800007B05DF804FB4FF6FF70F9E78C550020BB
:1015900008B5044B0146986823F08FFFB0FA80F03D
:1015A000400908BD8C55002038B50B4D0446AB787A
:1015B000012B0DD8FFF7ECFF60B1084BDC80AB7856
:1015C0001BB9FFF793FB002038BDFFF7F9FAFAE7E4
:1015D0003E20F9E78A20F7E7844B00208C55002055
:1015E000024B9B780BB9FFF781BB7047844B0020FF
:1015F000014BD873704700BF844B002008B5064BE1
:101600004FF0FF31986823F0D1FE0028B8BF0330B7
:1016100040F3870008BD00BF8C55002008B5044B7F
:10162000986823F046FF034BB3FBF0F080B208BD8F
:101630008C55002040420F0030B58DB02C2204465E
:10164000002101A824F02FFE01234FF002328DF873
:1016500008306423CDE9032306930B238DF82C3047
:10166000214B9B8CADF80A30FFF7C2FCA8B140F2C9
:10167000F23307934FF47A7305930CB9FFF722FB0B
:101680001A4D01A9A86813F067FEC0B140F2AC6220
:10169000174918480DF08AFFFEE7FFF7BFFF0C233C
:1016A0004343902B0793A3F10A02D8BF91230592DD
:1016B000D8BF0793059B8B2BDFD88C23DCE7FFF784
:1016C000A5FC60B10122A868114624F0DDF830B114
:1016D00040F2AF62064907480DF068FFFEE70CB91B
:1016E000FFF704FB0DB030BD844B00208C5500206B
:1016F00069A2020834A00208F8B526F027FB554C71
:1017000006462388D90503D5A37843BBFFF7EEFA35
:10171000514D6B7BFF2B13D06B7B03F0FF0723BB7B
:10172000FF236B73A378032B0AD100233046A370E9
:1017300026F007FB3846FFF713FB26F007FB0646AB
:10174000A378042B08D12B7BFF2B05D02B7B022BFE
:1017500014D1424810F046FDFF232B7327E00021EF
:101760004FF48070FFF7D4F9D2E76B7B012B4FF079
:10177000FF0314BF89278D276B73D6E72B7B13B12B
:101780002B7B012B1ED1FFF74BFA0022FF212B7B75
:101790000746DBB222772973002847D0012B0AD1F4
:1017A00064212E48A37010F028FDFFF709FA304697
:1017B00026F0C7FA06E03046A27026F0C2FA3120C1
:1017C000FFF7CEFA23881A0608D500218020FFF7FC
:1017D0009FF9A86823F09BFF12F053FC23889B0518
:1017E00007D54FF400700021FFF792F90020FFF7B2
:1017F00023FF0CF0F9F9608620B326F057F9012198
:101800000546002013F022FAA678012E14D10026F6
:101810002677A670FFF76AFA284612F02DF8A3780B
:1018200066867BB9BDE8F84012F0CCBAA0703046AD
:1018300026F087FA3846C3E72EB1284612F01CF886
:1018400000236386F8BDFFF751FA284612F014F81A
:101850006686F7E7844B00208C550020A04B0020C3
:101860008B4BF0B51B888B4C8B4D63848B4B85B0B9
:101870001B68E3628A4B1B8823848A4B1B68A36224
:101880002B88DB0700F1FC8001210846FFF740F9B7
:101890000523854A04F1100104F10800AB7013F030
:1018A00003FA28B1F522814981480DF07FFEFEE759
:1018B000A3682BB9F7227D497D480DF077FEFEE73E
:1018C0007C4823F08EFD70A3D3E90023CDE90023EB
:1018D0004FF0FF324FF0FF33A06823F031FE4FF49A
:1018E0008811A06813F0DCFC014630B140F20F1201
:1018F0006E496F480DF05AFEFEE76F4B1B78012BC7
:101900000ED16E4AA06813F09DFAA06813F052FD44
:10191000E0B140F21B12654965480DF047FEFEE755
:10192000674E316831B94FF48F72604960480DF0ED
:101930003DFEFEE7614AA06813F084FA33689B68B5
:1019400023B1DB6913B15B7803B1E373FFF704FEE6
:101950000146E080A06813F0F1FB064630B140F28A
:101960002D12524952480DF021FEFEE7554B012041
:101970001B78C3EB431203EB8203DB00AB84FFF75E
:101980005BFEA76810F0AEFB32460146384623F0F6
:1019900067FF064630B140F23312444944480DF027
:1019A00005FEFEE740F203530427AB81464BAF73BD
:1019B0001B78EB73FFF732FE00EB80039B002B825A
:1019C000FFF72CFEC00068823946A0686E6123F0E4
:1019D0005FFD30B14FF4A172344935480DF0E6FD9A
:1019E000FEE73A46A06803A923F0E5FD042806D0E7
:1019F0004FF4A3722D492E480DF0D8FDFEE703A940
:101A0000012010F03FFD0BF075FE08224FF0FF3172
:101A1000A06823F0A6FD30B140F24F1223492448BC
:101A20000DF0C4FDFEE713F045FE30B140F2551253
:101A30001E491F480DF0BAFDFEE7FFF7D9FA68B15D
:101A40001FF08DF90146A06823F010FE30B140F27E
:101A50005912164916480DF0A9FDFEE7A468FFF7D4
:101A60007BFD1A4B014603F10C02204623F09CFC3F
:101A700030B14FF4B0720D490D480DF097FDFEE7FF
:101A800005B0F0BDAFF300800A0020FF4203000064
:101A900060A502088C550020844B002064A5020834
:101AA00062A5020868A50208390B000869A20208AD
:101AB00034A00208690345ECD54B00204D0B00080B
:101AC000A4540020325700203157002094A202086D
:101AD00008B5044B986823F0EEFC034BB3FBF0F021
:101AE00080B208BD8C55002040420F002DE9F04324
:101AF0008C4D87B02B889B0706D440F24C728A49E4
:101B00008A480DF053FDFEE7AB78033B012B06D965
:101B100040F24E72844985480DF048FDFEE76A6840
:101B200032B940F25172804980480DF03FFDFEE726
:101B30007F4E2C88F77B14F0200418BF4FF47A7482
:101B40004FEA1718FFF754FA00287DD0B8F1020FBA
:101B50000AD0A8F10303022B74D940F265727249CE
:101B600072480DF023FDFEE7032795F8303008EBAF
:101B7000C80898446F4B104603EB4803B3F81C8029
:101B800022F0CDFF4FF4FA534343B3FBF8F378222E
:101B90007733B3FBF2F31F44C7EB0717AB78FF00B3
:101BA000BFB204F5347417FA84F4042BA4B203D141
:101BB00007F6E8072744BCB2D5F8048022F0A4FF5A
:101BC0000746686822F0ABFF074422F0C3FFBFB2AC
:101BD0003F1A22F099FF404410F038FC7378C0F3AC
:101BE00040198DF80C30544BBFB2CDE904340024B9
:101BF00022F0BCFF009402463B464146B06823F009
:101C0000E7FD287EB278737812FB00F29342C4BFDE
:101C10009B1ADCB22B88F18813F0200FB068B180DA
:101C20008DF80C4003AB76D000934A46434B23F02B
:101C3000B0FB002873D040F224723B493B480DF0C2
:101C4000B5FCFEE7062790E7FFF7E0F9002846D04D
:101C5000384B07F00F0708EBC801394403EB410389
:101C60001046B3F81C9022F05AFFB8F1000F2CD0A8
:101C7000B8F1010F2CD14FF00408400080B2F319E5
:101C800093F834304BB14FF4FA52023303444344D7
:101C90009BB25343B3FBF9F39CB2AB78042B8BD1CB
:101CA000FFF7BCFC374497F834308146053398443D
:101CB000FFF70EFF0C2308FB00F003FB09F909EB0B
:101CC000C009A1441FFA89F476E74FF00208D6E76D
:101CD00040F28672144915480DF068FCFEE7FFF7E4
:101CE000F7FE0746686822F01AFF09307843AB78A0
:101CF00004EBC000042B84B27FF45EAFFFF78EFCD0
:101D00000746FFF7E5FE602358430C2303FB07005B
:101D1000204484B250E74A4623F039FB89E707B0F4
:101D2000BDE8F083844B002069A2020834A00208B9
:101D30008C55002094A2020820A10700904B00209F
:101D4000F8B5494C258815F0020506D040F2751209
:101D5000464947480DF02AFCFEE7257725F0F6FFB7
:101D6000238806465A070CD5424B986823F065FD38
:101D7000E36AC01AA38C984203D929460420FEF7CF
:101D8000C7FE304625F0DDFFA778022F37D125F0BA
:101D9000DDFF2388064613F0040507D0364810F00F
:101DA00021FA3046BDE8F84025F0CBBF25F0C9FF49
:101DB000606812F041F820B1A570BDE8F840FEF768
:101DC000CFBF25F0C3FF6668054622F09DFE304474
:101DD00010F03CFB10F0200F0CBF03230423012163
:101DE0003846A370FEF794FEFFF780FE284625F0E4
:101DF000A8FF01210846BDE8F84012F027BF042FD4
:101E000027D11C4B1B7BFF2B2DD1237EF3B125F05B
:101E10009DFF238805465B0704D5174810F0E2F9BB
:101E20002846BFE725F08DFF237E013B237625F072
:101E30008DFF044601210220FEF76AFEFFF756FEE1
:101E4000204625F07EFF01210820D4E74020A37022
:101E5000B3E7012F07D10023A370064B986812F057
:101E600061FF3120A9E7F8BD844B002069A2020878
:101E700034A002088C550020A04B002038B5012169
:101E800004461020FEF744FE064B9D68FFF7C6FB94
:101E9000012200FB04F1044B284623F063FA0020E2
:101EA00038BD00BF8C550020850D000808B50A4BD1
:101EB0001B88DB0606D44FF46172084908480DF010
:101EC00075FBFEE710200021FEF722FE054B986807
:101ED000BDE8084023F054BA844B002069A20208F0
:101EE00034A002088C55002038B50E4D688E30B9EC
:101EF00040F291320C490D480DF058FBFEE725F0F9
:101F0000D5FD0446688E25F0EFFD811F2144012098
:101F100010F0B8FA064B0446986823F08EFC001BBC
:101F200038BD00BF844B002069A2020834A002081B
:101F30008C55002010B5084C636833B94FF46872B3
:101F4000064907480DF032FBFEE7064B986823F080
:101F500074FCA36AC01A10BD844B002069A2020859
:101F600034A002088C55002038B50A4D688E30B96F
:101F700040F2AA32084909480DF018FBFEE725F0A7
:101F800095FD0446688E25F0AFFD044414F8020C5C
:101F900038BD00BF844B002069A2020834A00208AB
:101FA00038B50A4D688E30B940F2B932084909484F
:101FB0000DF0FCFAFEE725F079FD0446688E25F069
:101FC00093FD044414F9070C38BD00BF844B002076
:101FD00069A2020834A0020838B50A4D688E30B9EB
:101FE0004FF47272084909480DF0E0FAFEE725F057
:101FF0005DFD0446688E25F077FD044414F9010C5C
:1020000038BD00BF844B002069A2020834A002083A
:10201000024B1888C0F3C010704700BF844B0020EB
:1020200030B585B005466C460D4B0FCB84E80F00EC
:102030000DB12B6800930B4B21460022986813F0DA
:10204000CDF8044630B140F2E632074907480DF0BA
:10205000ADFAFEE7FEF7B4FD204605B030BD00BF87
:102060001CA302088C55002069A2020834A00208B3
:1020700030B5154D87B004460DF10701A86823F06F
:1020800061FA30B140F2F732104911480DF08EFA82
:10209000FEE79DF80720531EDBB2FD2B0FD90294FB
:1020A000FF2A00D10394A86802A923F033FB40B1B2
:1020B00040F20442054906480DF078FAFEE7012A8D
:1020C000EFE707B030BD00BF8C55002069A20208C1
:1020D00034A0020808B5064B986823F02AFB30B1FB
:1020E0004FF48262034904480DF060FAFEE708BD30
:1020F0008C55002069A2020834A002080122024B7C
:102100001146986823F029B98C5500207047F8B51E
:10211000064604200D4622F0D9FC030622D5124FB4
:10212000BC78FCB926B1012E17D002242046F8BD98
:1021300001262846FFF72CFA0028F6D00B4800238A
:1021400032462946806823F026F940B14FF48A626E
:10215000074908480DF02AFAFEE72646E9E7062374
:10216000BB70E3E77024E1E7844B00208C5500202E
:1021700069A2020834A00208042010B522F0A6FCCF
:10218000030611D5094CA378062B0DD1084B98688E
:1021900023F003F930B140F26A42064906480DF0D7
:1021A00005FAFEE7A07010BD7020FCE7844B00200C
:1021B0008C55002069A2020834A002081FB504460D
:1021C00001A812F0D3FF9DF80D3053B14CB1064B6E
:1021D0002078617818700020A27859709A7004B045
:1021E00010BD0220FBE700BF8C5500201FB5044640
:1021F00001A812F0BBFF9DF80D3053B14CB1002087
:10220000054B1A7822705A789B786270A37004B0DC
:1022100010BD0220FBE700BF8C550020FFF7CEBFAA
:10222000FFF7E4BF0348044B834202D0034B03B1E2
:10223000184770474857002048570020000000000A
:10224000064B0749C91A891048BF0131491003D00C
:10225000044B0BB101481847704700BF4857002096
:10226000485700200000000010B5064C237843B901
:10227000FFF7D8FF044B13B10448AFF300800123EC
:10228000237010BD145200200000000008DF020877
:1022900008B5054B1BB105490548AFF30080BDE803
:1022A0000840FFF7CDBF00BF00000000A0220020C3
:1022B00008DF0208A3F5803A704700BF174B002BD8
:1022C00008BF134B9D46FFF7F5FF00218B460F46D5
:1022D0001348144A121A23F0E6FF0E4B002B00D0CD
:1022E00098470D4B002B00D0984700200021040098
:1022F0000D000D48002802D00C48AFF300801BF001
:1023000017FC200029001CF0D5F81BF097F800BF3F
:102310000000080000000000000000000020002075
:10232000002000208052002000000000000000007B
:1023300000B583B0074B0122DA60064B5B6913F0EE
:10234000400FFAD1034968461EF06DFB009803B0B8
:102350005DF804FB0040005910B582B004461BF044
:10236000D4FF08B902B010BD00230093ADF80430CB
:10237000074B1B88ADF80230ADF8044044F2162339
:10238000ADF800306946042021F059F8EAE700BFB3
:102390005051002008B513460A460146044800681B
:1023A00003F0DEFF00B908BD02480DF0FFF8FAE7C0
:1023B00044550020488402080A2800D9704730B5E7
:1023C00083B004460D466B4601AA014610480068DA
:1023D00003F02CFF08B9019B23B10E480DF0E6F87D
:1023E00003B030BD009B2A4621460948006803F02F
:1023F0005DFE40B9214608480DF0D8F82946074847
:102400000DF0D4F8ECE7214605480DF0CFF8E7E7EA
:102410004455002050840208748402089084020805
:10242000988402080A2800D9704710B5044601466E
:10243000064B186804F062F820B9214604480DF0F4
:10244000B5F810BD03480DF0B1F8FAE74455002087
:10245000BC840208D884020838B51B4C6378022279
:1024600062F383036370DBB26FF300036370DBB26C
:1024700062F387136370DBB2012565F305136370A4
:10248000A3786FF30713A370DBB265F38303A37024
:10249000DBB243F00303A370E0700C4B4FF4FA720D
:1024A0001A80002128461CF0B4F82A46002128464C
:1024B00001F0BCFD20681BF055FF41F28831044B50
:1024C00018680FF09AFE38BDBC220020525100203F
:1024D0005823002008B5294B1B78012B29D0022B4B
:1024E00039D003B108BD264B1B78264A1278B3EBCE
:1024F000420F05DA244A127D02F01802102A0DD18B
:102500001F4B00221A70204B197DC1F340111F4848
:102510001CF07BF81E4824F07FFFE3E70133184AE4
:102520001370194B197DC1F3401118481CF05DF868
:10253000D8E7134B1B78134A1278B3EB420F03DA38
:1025400001330F4A1370CDE70D4B00221A7010486B
:1025500024F062FFC6E70A4B1B780A4A1278B3EBF5
:10256000420F03DA0133064A1370BBE7044B002223
:102570001A70074824F050FFB4E700BF155200203E
:10258000175200201652002020230020FC9602083B
:10259000C0220020037823BB70470133022B22DCCA
:1025A00003EB4302104911F82220002AF5D100B5AF
:1025B0000A4603EB430102EB810C4FF0000E8CF84E
:1025C00001E04FF0010C02F821C002EB8103016829
:1025D0004268C3F80210C3F8062002895A815DF8E8
:1025E00004FB0023DAE77047F022002010B582B028
:1025F000044621B123788DF8003000230BE0FFF76B
:10260000C9FFF7E7E118497803F109026A4402F8C3
:10261000081C0133DBB2617A4A1E9342F2DB237855
:10262000152B0AD0074B03221A70064B1B786A46FB
:1026300000201CF018F802B010BD024B02221A70E4
:10264000F3E700BF2257002000B583B08C46114647
:10265000074B1870074B83F800C001230193002338
:102660000093054A054825F0B9FD03B05DF804FB69
:102670001552002016520020D5240008C022002048
:1026800010B50024094B1C80094B197DC1F3401182
:1026900008481BF0BAFF1BF0A2FE214601201BF0E8
:1026A000C6FF054B1B681C7010BD00BF52510020B7
:1026B00020230020FC9602085823002008B501289A
:1026C00014D002281ED000B108BD144B197DC1F3EF
:1026D000401113481BF099FF002101201BF0A7FFB8
:1026E0006421104B18680FF088FDEDE70B4B197D46
:1026F000C1F340110A481BF088FF002101201BF0A4
:10270000A2FFE1E7054B197DC1F3401104481BF01E
:102710007CFF002101201BF096FFD5E7202300203D
:10272000FC9602085823002038B59C4B1A78A2F179
:102730002803072B42D8DFE813F008009800410077
:102740004D00410041004100250194494C798A72B5
:102750004B788A7843EA0223CA7843EA02430A792B
:1027600043EA026341F8183F04220520FFF712FEF6
:10277000012C11D0023C0E2C25D8DFE804F00D24EA
:10278000082424240D242424242424240D00834BF1
:102790001A7D6FF3C4021A75814C01222146002074
:1027A000FFF7F8FD642203210020FFF74DFF00230F
:1027B00004F8093C7B4B18680FF014FD7A4B1B683A
:1027C00000221A7038BD754B1A7D012161F3C402D5
:1027D0001A75E1E7714B9A725B7A062B06D0012BD2
:1027E0003DD0704B18680FF0FDFCE7E76B4A93781B
:1027F000D17843EA0123117943EA0143517943EA4D
:1028000001635178517792699A42EAD1012916D031
:102810000029E6D1614C207DC0F3C100FFF74EFFD7
:10282000624B1B6800201870C8220221FFF70CFFC2
:10283000012204F11D010420FFF7ACFDD1E7574C44
:10284000E07CFFF709FEC82201210020FFF7FCFE13
:10285000012204F11D010420FFF79CFDC1E7642261
:1028600002210020FFF7F0FEBBE74C4B9A725A7C26
:10287000022161F383025A74D2B26FF300025A74D8
:10288000D2B261F387125A74D2B2012161F30512F8
:102890005A749A7C6FF307129A74D2B261F383026E
:1028A0009A74D2B242F003029A745B78022B06D07B
:1028B000012B21D033B9394B5A22DA7402E0374B5D
:1028C0001E22DA74354B99781A7D61F3C4021A75A9
:1028D000D978D2B261F345121A75D3B213F0180F3A
:1028E0000ED02E4B1B79022B0FD0012B46D07BB97B
:1028F0002F4B50221A700BE0284B3C22DA74E1E790
:10290000264BD87CFFF7A8FDEBE7294B96221A70DF
:10291000274D28781BF007FD20F042FD254B4FF492
:10292000FA721A80002101201BF073FE012200219F
:10293000104601F07BFB194C20691BF013FD237D31
:1029400043F04003214601F8143F01220020FFF725
:1029500021FD012204F113011046FFF71BFD0122A6
:1029600029460220FFF716FD642203210020FFF70D
:102970006BFE0C4B18680FF035FC1FE70C4B6E22FA
:102980001A70C5E705498A784B7843EA022321F893
:102990001E3F02220720FFF7FDFC0FE72023002047
:1029A00034230020642300206023002058230020CB
:1029B000185200205251002030B583B02A4B5B7F63
:1029C00043B9294B1B7D13F0180F03D0264B1B7FF7
:1029D000012B3ED1002101201BF035FE224C227F2D
:1029E0009DF8043062F301038DF80430627F9DF896
:1029F000043062F382038DF804301C4B5B6C1C487E
:102A0000162202700623437200254570012383704D
:102A1000184B1B88C3701B0A0371237B4371A2727E
:102A20002946FFF7E3FD00F0F1FE217DC1F34011DF
:102A300011481BF0E2FD114BC8221A804FF4FA61D5
:102A40000F4B18680FF0D9FB0E4B1B681D7003B0BD
:102A500030BD0C4B1B6800221A70034B187DC0F36D
:102A6000C100FFF72BFEF2E72023002000C0035037
:102A700014230020B8220020FC96020852510020A6
:102A8000582300205C23002070B908B5074B1B8831
:102A90009BB203B108BD002101201BF0D4FD044B03
:102AA00018680FF09FFBF5E7704700BF52510020F8
:102AB0005C23002008B5044A1BF03BFC034B18685C
:102AC0000FF090FB08BD00BF2023002060230020F2
:102AD00038B5044620F0BFFCA04201D8012038BD23
:102AE0000546032001F08AFC0028F8D01BF0E3FD26
:102AF0001BF0E2FD2B4622460349044800681FF004
:102B0000E1FA0020EBE700BFF08402089C270020D8
:102B100030B583B004468368C26853F822301D88FC
:102B20002846FFF7D5FF08B903B030BD0023009356
:102B3000ADF80430164B1B88ADF80230ADF80450E8
:102B40006368E2689B1A012B1DDDA368013253F80C
:102B500022301B88ADF8003020F06DFC6946032060
:102B600020F06DFC0446032001F048FC0028DBD077
:102B70001BF0A1FD1BF0A0FD22460649064B18687C
:102B80001FF0A0FAD0E740F2FF13ADF80030E3E702
:102B900054510020288502089C27002030B583B0BE
:102BA00004468368C26853F822301D882846FFF720
:102BB0008FFF08B903B030BD00230093ADF8043097
:102BC000154B1B88ADF80230ADF804506368E2681D
:102BD0009B1A012B1BDDA368013253F822301B889E
:102BE000ADF800306946042020F029FC044603209B
:102BF00001F004FC0028DDD01BF05DFD1BF05CFD46
:102C000022460649064B18681FF05CFAD2E740F2EC
:102C1000FF13ADF80030E5E7545100204885020865
:102C20009C27002030B583B004468368C26853F8FF
:102C300022301D882846FFF74BFF08B903B030BD8E
:102C400000230093ADF80430154B1B88ADF802301B
:102C5000ADF804506368E2689B1A012B1BDDA36882
:102C6000013253F822301B88ADF80030694602204B
:102C700020F0E5FB0446032001F0C0FB0028DDD076
:102C80001BF019FD1BF018FD22460649064B18687B
:102C90001FF018FAD2E740F2FF13ADF80030E5E775
:102CA000545100205C8502089C27002030B583B079
:102CB0008368C26853F822301C780023019343686C
:102CC0009B1A012B19DD01AA01211EF0C8FC014647
:102CD0009DF8040020F0ABFB054680B1022001F016
:102CE0008DFB60B11BF0E7FC1BF0E6FC2A460649B1
:102CF000064B18681FF0E6F901E020F09CFB204627
:102D000020F0A1FB03B030BD788502089C2700208D
:102D100010B503468168C26851F82200B0F900007E
:102D20001A4C20805B689B1A012B0FDD013251F891
:102D3000223093F90010003918BF012120F02CFB3C
:102D4000A0B9032001F05AFB10B910BD0021F5E72E
:102D50001BF0B1FC1BF0B0FC0D4B1C6820F020FBFD
:102D600002460C4920461FF0ADF9EEE7012001F0C4
:102D700045FB0028E9D01BF09EFC1BF09DFC06499A
:102D8000034B18681FF09EF9DFE700BF5451002085
:102D90009C270020DC850208F085020808B520F099
:102DA000EFFA032001F02AFB00B908BD1BF083FCF9
:102DB0001BF082FC0249034B18681FF083F9F4E70B
:102DC000088602089C27002008B58368C26853F86B
:102DD00022301A88094B1A80032001F00FFB00B93A
:102DE00008BD1BF068FC1BF067FC044B1A88044903
:102DF000044B18681FF066F9F2E700BFAC560020DC
:102E0000288602089C27002008B5024B18680FF09E
:102E1000E9F908BD642300202DE9F04186B020F0D7
:102E2000CBFA0446894B1B7813F0020F2CD0884E46
:102E300013F0010F2AD0864F13F0040F28D0DFF8CB
:102E40001082032001F0DAFA28BB032001F0D6FA41
:102E500058BB032001F0D2FA002835D1032001F03D
:102E6000CDFA00283ED1032001F0C8FA002847D14E
:102E7000032001F0C3FA00285ED1032001F0BEFA5E
:102E8000002867D1002471E0724ED1E7714FD3E77B
:102E9000DFF8C081D5E71BF00EFC1BF00DFC6E497E
:102EA0006E4B18681FF00EF9CFE71BF004FC1BF007
:102EB00003FC6A4B1D6805F031FD02460B4668496C
:102EC00028461FF0FFF8C4E71BF0F5FB1BF0F4FBEE
:102ED000624B1D6820F048FA0246624928461FF0FE
:102EE000F1F8BBE71BF0E7FB1BF0E6FB5B4B1D6853
:102EF00020F06EFA02465C4928461FF0E3F8B2E77C
:102F00001BF0D9FB1BF0D8FBE279A379617920791A
:102F1000E57894F802C094F801E024780594CDF89F
:102F200010E0CDF80CC00295019000914F494B483C
:102F300000681FF0C7F89BE71BF0BDFB1BF0BCFB54
:102F4000464B1C6820F03CFA0246494920461FF0D7
:102F5000B9F892E71BF0AFFB1BF0AEFB45493F4BC6
:102F600018681FF0AFF88DE70134E4B2072C12D8CF
:102F7000032001F043FA0028F6D01BF09CFB1BF065
:102F80009BFB364B1D6820F017FA025D3A49284634
:102F90001FF098F8E8E7032001F030FA98B9032011
:102FA00001F02CFAC8B9032001F028FA18BB03205D
:102FB00001F024FA68BB032001F020FA002836D182
:102FC00006B0BDE8F0811BF076FB1BF075FB2B49CA
:102FD000224B18681FF076F8E1E71BF06CFB1BF042
:102FE0006BFB1E4B1C6820F0EFF90246244920467B
:102FF0001FF068F8D7E71BF05EFB1BF05DFB174B7B
:103000001C6820F0C5F902461E4920461FF05AF8F8
:10301000CDE71BF050FB1BF04FFB104B1C6820F062
:10302000BFF90246184920461FF04CF8C3E71BF0D1
:1030300042FB1BF041FBCDF800803B463246134972
:10304000064800681FF03EF8BAE700BF225700208C
:103050009085020898850208448602089C27002073
:103060004C8602086886020884860208A086020848
:10307000C4860208E0860208F48602088C840208EE
:10308000FC86020818870208308702084887020871
:1030900030B583B08368C26853F822301C7801A928
:1030A000204620F071F988B9032001F0A7F908B98A
:1030B00003B030BD1BF0FFFA1BF0FEFA019B224665
:1030C0000B490C4800681EF0FDFFF1E705460120A2
:1030D00001F094F90028EBD01BF0EDFA1BF0ECFAAC
:1030E0002A460549034B18681EF0ECFFE0E700BFD5
:1030F000808702089C2700209C87020870B58268A0
:10310000C36852F823100C88013352F823301D781D
:103110002946204620F087F980B9032001F06EF996
:1031200000B970BD1BF0C7FA1BF0C6FA2B46224649
:103130000B490C4800681EF0C5FFF2E70646012067
:1031400001F05CF90028ECD01BF0B5FA1BF0B4FAE2
:1031500032460549034B18681EF0B4FFE1E700BF93
:10316000C08702089C270020F087020870B582B053
:103170008368C26853F822301B78134A137013F027
:10318000020F0ED0114C13F0010F0CD00F4D13F0A5
:10319000040F0AD00D4E032001F030F938B902B007
:1031A00070BD0B4CEFE70A4DF1E7094EF3E71BF05A
:1031B00082FA1BF081FA00962B4622460549064802
:1031C00000681EF07FFFEAE7225700209085020882
:1031D00098850208A48502089C27002030B58FB08E
:1031E00004460D4668461BF016F90DF1200EEC461C
:1031F000BCE80F00AEE80F009CE803008EE8030077
:1032000008A9464B186820F01CFF10F1880F46D122
:1032100068461BF000F90DF1200EEC46BCE80F00EB
:10322000AEE80F009CE803008EE803004FF4105353
:10323000ADF820308023ADF822304FF4407307936F
:1032400007A81BF0F8F8079B0A93354B0B93334BF9
:103250001A68099B0D9213F0FF0F04D123F0FF03AE
:1032600043F001030993012309932C4B2A4621467D
:1032700008A820F003FF044610BB032001F0BEF8AD
:1032800090B9264B186820F077F80546002831D110
:10329000032001F0B3F8044610BB01242FE01F4BBC
:1032A000186820F0A5FEB3E71BF005FA1BF004FA3E
:1032B0001A4B1A681B491C4B18681EF003FFE0E705
:1032C000032001F09BF80028DBD01BF0F4F91BF081
:1032D000F3F922461549144B18681EF0F3FED0E7A7
:1032E0001BF0E9F91BF0E8F911490F4B18681EF0C3
:1032F000E9FE04E0032001F081F8044610B92046FD
:103300000FB030BD1BF0D7F91BF0D6F92A4609499A
:10331000054B18681EF0D6FE0024F0E7402300207D
:1033200000014405208802089C27002050880208DC
:10333000748802089488020800B583B000210191C6
:1033400001AA1EF08CF9019910290ED0032001F07A
:1033500055F860B11BF0AFF91BF0AEF9102205492A
:10336000054B18681EF0AEFE01E0FFF737FF03B013
:103370005DF804FBB48802089C270020022900D0D5
:10338000704708B5024B186808B11AF071F808BD0B
:10339000C84B002010B588B020F06FFF01241E4BF1
:1033A0001C6002A81BF05EF802A9204620F049FE2E
:1033B00010F1880F0BD0184B18681FF0DDFF20F0BC
:1033C0002EF81649164809F083F908B010BD124BC3
:1033D0001A68039B079213F0FF0F03D123F0FF033A
:1033E000234303930F4B05934FF44073019301A8BC
:1033F0001BF048F8019B04934FF41053ADF80830CC
:103400008023ADF80A3001230393034B10220649B1
:1034100002A820F033FECEE7402300209C54002079
:1034200044230020000144058C54002010B582B0D4
:10343000002304220121084604F088FE012304220F
:103440000621002004F082FE0023012219461046C6
:1034500004F07CFE012001900024009403462246E3
:10346000214604F009FE0649204602F02DF81B20F3
:1034700008F0C2FA1B201EF0D0FD02B010BD00BF44
:10348000A3E4010838B5464B1B78ABB1454B5B6CE8
:1034900013F4807F7AD0444B01221A70434A137888
:1034A0000133DBB21370042B6BD84FF47A71404BAD
:1034B00018680EF0A2FE38BD3E4C7823E374237DDD
:1034C00043F020032375DBB26FF3C40323753A4D39
:1034D00096232B7000202077607704F11401FEF70B
:1034E0006BFF04F113010120FEF766FF294602205D
:1034F000FEF762FF04F11C010320FEF75DFF04F1FB
:103500001D010420FEF758FF04F118010520FEF705
:1035100053FF2A490620FEF74FFF04F11E01072042
:10352000FEF74AFF26490820FEF746FF00F0D0FDCF
:1035300001F016F9FFF77AFF1AF0B7FF28781AF0B2
:10354000F2FE00F02BFD237F022B0ED8012B14D0AE
:1035500013B91C4B01221A70164B03221A774FF431
:103560007A71194B18680EF048FE0D4B01221A7043
:103570000F4B1B6800221A709DE7144A012111703D
:10358000E6E7012112481BF038F88EE70023064ACF
:103590001370064A1370064A126813708BE700BF57
:1035A0001952002000C003501E5200201D5200205E
:1035B000542300202023002018520020B82200208D
:1035C000E02200201A520020642300201B52002019
:1035D000FC96020810B50020164B18700AF022F86D
:1035E000154B1B7D13F0400F15D0134C207DC0F3FD
:1035F000C100FFF763F82146022301F81C3F0122B6
:103600000320FEF7C7FE0D4B1A68002313700C4A07
:103610001268137010BD08490B7D012262F3C403C8
:103620000B75DBB243F0200301F8143F0020FEF7D6
:10363000B1FEDAE71B520020202300206423002083
:103640005023002010B50F490F4809F0F1FE0F4933
:103650000F4809F0EDFE0F490F4809F0E9FE0F4948
:103660000F4809F0E5FE0F4C0F49204609F0E0FE37
:103670000E490F4809F0DCFE642120680EF0BDFD04
:1036800010BD00BF6D380008642300202927000802
:1036900060230020B92900085C230020812600084F
:1036A000582300205423002085340008D535000815
:1036B0005023002070B50020FEF7B4FE0120FEF775
:1036C000B1FE0220FEF7AEFE0320FEF7ABFE0420A3
:1036D000FEF7A8FE0520FEF7A5FE0720FEF7A2FED6
:1036E000224C0025E5835A23E374237D43F0200315
:1036F0002375DBB265F3C40323753C20E074DBB2B1
:1037000065F3861323751A4E96233370FEF7A4FED5
:1037100030781AF008FE25776577207DC0F3C10068
:10372000FEF7CCFF012204F11C010320FEF732FE5C
:10373000012204F11D010420FEF72CFE012204F1F8
:1037400014012846FEF726FE012231460220FEF72C
:1037500021FE012204F113011046FEF71BFE022296
:1037600004F11E010720FEF715FE70BD2023002086
:103770001852002008B580BB02291DD81D4B1B7FA5
:1037800093B91D4B1B784BB90120FEF797FF002022
:10379000FEF7E2FD19481BF07BFA20E0C822022167
:1037A0000020FEF751FF1AE0022B18D1C822022197
:1037B0000020FEF749FF12E0052904D0FFF77AFF49
:1037C0001AF0ADFD0BE00E4B01221A704FF47A7126
:1037D0000C4B18680EF011FD01E0012800D008BD67
:1037E0000229FCD9034B2B229A72074B18680EF062
:1037F000F9FCF4E7202300201C520020FC9602086C
:103800001E520020542300206423002008B51AF023
:1038100073FD82B222B1124B1B883BB9104B1A8048
:1038200002220F490620FEF7B5FD08BD82B207EE61
:10383000902AF8EEE77A9FED0B7A67EE877A07EE2B
:10384000103AB8EEC77ADFED086A27EE267A77EEEF
:10385000877AFCEEE77A024B17EE902A1A80DFE7B0
:10386000B8220020CDCCCC3D6666663F10B582B054
:10387000FFF7CCFF7C4B5B6C7C4B1B7F032B00F278
:10388000EE80DFE803F002264F789DF80430012235
:1038900062F304038DF804309DF804306FF346138F
:1038A0008DF80430724815230370022242729DF88D
:1038B000042042706D4CA3726E4B1B68002119707E
:1038C000FEF794FEE07CFEF7C7FDFFF79FFF02B016
:1038D00010BD664B9B7A282B18D02B2B1AD0292B86
:1038E0001CD063480623437200214170012383707A
:1038F000614B1B88C3701B0A03715C4B1B7B4371BC
:103900005C4B1B681970FEF771FEDEE7584A2821F0
:103910001170E2E7564A2B211170E0E7544B29223F
:103920001A70DEE7514B9B7A282B18D02B2B1AD01C
:10393000292B1CD04E4806234372002141700123DD
:1039400083704D4B1B88C3701B0A0371474B1B7B55
:103950004371484B1B681970FEF748FEB5E7444AAF
:1039600028211170E2E7424A2B211170E0E7404B19
:1039700029221A70DEE73D4B18691AF0F3FC3F4B21
:103980001B785BB93E4B1B7873B13E4B1B780BB376
:103990000120364B187709F045FE05E0334B002235
:1039A0001A77012009F03EFE304B1B7F022B18D006
:1039B000012B37D0002B88D12C4CE07CFEF74CFD3E
:1039C000207DC0F3C100FEF779FE2A4B1B68002260
:1039D0001A707AE7254B02221A77002009F022FE9E
:1039E000E2E7224B5B7F012B12D0204B5B7F53B968
:1039F0001E4B1B7D13F0180F0FD01C4B187DC0F30E
:103A0000C100FEF75BFE1B4B1B6800221A705CE7CF
:103A1000164BD87CFEF720FDE7E7144BD87CFEF769
:103A20001BFDF0E7114C237D43F020032375DBB22F
:103A30006FF3C403214601F8143F01220020FEF772
:103A4000A9FCE07CFEF708FD4FF470210E4B1868CE
:103A50000EF0D3FB074B1B6800221A7035E7054BAD
:103A60001B6800221A7030E700C00350202300209A
:103A70001423002064230020B82200201A520020C2
:103A80001C5200201B52002050230020014B1878AC
:103A9000704700BF2357002010B5044680680378A4
:103AA0002F2B07D01F4B1B7F63B3013BDBB2012BD6
:103AB00030D910BD1C4BD0F801C0D0F80540D0F86B
:103AC0000910D0F80D20C3F800C05C609960DA607E
:103AD00010211846FFF782FB0128EAD11022124973
:103AE0000820FEF757FC0F4B1B7F002BE1D10F4B3B
:103AF0001B78002BDDD041F288310D4B18680EF099
:103B00007CFBD6E7A1791AF0BAFD63795B42054ADE
:103B10001373CEE7A1791AF0B2FD63795B42014AD3
:103B20001373C6E720230020E02200201952002052
:103B3000642300202DE9F04106460D468B681B7872
:103B4000152B01D0002446E0354B1B7F002BF9D10B
:103B50000028F7D1324C012727774FF0000884F86E
:103B60001D80237D68F3C4032375DBB243F020037B
:103B700023753A4604F11C010320FEF70BFC3A467C
:103B800004F11D010420FEF705FC3A4604F114017E
:103B90004046FEF7FFFB4FF47021224B18680EF0F1
:103BA0002CFBCFE704EB44021F4B03EB82035B7853
:103BB0000A2B26D01C4A04EB440102EB81004FF093
:103BC000010C02F821C063444370C8220221002086
:103BD000FEF73AFD0134022C1BDCAB68197804EBCC
:103BE0004402114B03EB82039B789942F2D1002EE1
:103BF000D8D10D49900001EB820300220A545A707B
:103C0000E8E70949900001EB820300220A545A7048
:103C1000DBE72B7B5B42024A1373BDE8F08100BFF8
:103C20002023002050230020F022002010B59038DF
:103C300006282DD8DFE800F0040F172C2C1E2500D5
:103C40000124174B1C70C82202210020FEF7FCFC47
:103C5000144B1C7010BD0020114B187064220521FC
:103C6000FEF7F2FCF6E74FF47A7202210020FEF72D
:103C7000EBFCEFE74FF47A7202210020FEF7E4FC40
:103C8000E8E74FF47A7202210020FEF7DDFCE1E75D
:103C90004FF47A7202210020FEF7D6FCDAE700BF6B
:103CA0001C5200202357002008B524F08BFA074B44
:103CB0001B782BB1064B1B68C01A064B984200D8E4
:103CC00008BD05481AF0E4FFFAE700BF1F520020C4
:103CD0004C230020A0860100FC96020808B5024B88
:103CE0001B6803B1984708BD9823002008B5024B14
:103CF0005B6803B1984708BD9823002008B5024BC4
:103D00009B6803B1984708BD9823002008B5024B73
:103D1000DB6803B1984708BD9823002008B5024B23
:103D20001B6903B1984708BD9823002008B5024BD2
:103D30005B6903B1984708BD9823002000B585B0A2
:103D4000094B1868094B1860094B0A4A13600A4A64
:103D500001920A4A12680292039301A91DF0A1FC84
:103D600005B05DF804FB00BFC0540020E83100201E
:103D7000B4540020E4310020AC9602086C260020E8
:103D800008B5024B18681DF0A0FC08BDC054002007
:103D900038B507F067FE0446064D2B68D3F8B0022D
:103DA00007F054FE28681DF0AAFC204607F04EFEDE
:103DB00038BD00BFC05400200023062073B17047F7
:103DC00054B224B9013353B15DF8044B7047022853
:103DD000F8D008680A4908601046F3E710B4094AA9
:103DE00052F823100A7A022AEAD9032AEAD1441E99
:103DF000E4B2012CE6D90868014908601046E1E701
:103E00006C260020C454002010B5A2B02024224605
:103E100000211AA822F047FA304B1A934FF4E133ED
:103E20001C9302238DF8753003238DF876302C4BCC
:103E30001E9306238DF87E3009238DF880300021F3
:103E4000159116911791189119914FF480131593AC
:103E5000244B199310911191129113911491224BAB
:103E60001093224B14933C2201A822F01CFA0DF16E
:103E7000040E0DF1540CBCE80F00AEE80F00DCF8A6
:103E80000030CEF800300DF1180E0DF1400CBCE8FA
:103E90000F00AEE80F00DCF80030CEF80030144B15
:103EA0000B930C9401238DF834308DF83530114B81
:103EB0000F93114B1AAA01A9104807F07FFE044680
:103EC0009DF837303BB100214FF4E1301AF058FD36
:103ED000204622B010BD0321F6E700BFD89A0208A1
:103EE000C89A02083C00015B010010004400015B1D
:103EF00070260020D8540020902600204C27002057
:103F000008B531B9084B1868036823B108F06CFA9A
:103F100001E0012900D908BD034B18680368002B94
:103F2000F9D01EF0B1FBF6E7EC54002008B50349C8
:103F3000034808F0CDFBFFF767FF08BDF0540020F1
:103F40007427002008B502481EF002F908BD00BF22
:103F50004C27002008B502481EF0FAF808BD00BF43
:103F60004C27002008B5024B5A6A1868904708BDD4
:103F70004C27002008B503481AF086FD02481AF0C5
:103F800083FD08BDE4960208CC96020808B50248F5
:103F90001AF079FE08BD00BFFC96020870B590B01B
:103FA00001212A2003F0D8F800250D950E950F95D4
:103FB0001B4E2A461B49304604F052F98DF8390051
:103FC0000DF10C0C184C0FCCACE80F000FCCACE88A
:103FD0000F0094E803008CE803004FF49663069307
:103FE0000195029503238DF806308DF806500123C4
:103FF0008DF800308DF801508DF802508DF8035087
:1040000010238DF8013003AA0DA9304604F068F999
:104010006A4601A930461CF0C7FC10B070BD00BF55
:104020000040005940420F001497020842B9C0B244
:1040300001228A4000EB40000001074B1A507047F4
:10404000012A00D07047C0B201228A4000EB400034
:104050000001024B1A50F5E740E0035040D00350F6
:1040600070B50579194B03EBC5031B79052B0BD0F4
:1040700004460668FA2023F0B3FA864205D2134BB1
:1040800003EBC50300221A7170BD26684FF47A70E5
:1040900023F0A6FA864205D20C4B03EBC50301229E
:1040A0001A71F1E7246840F6B83023F099FA844297
:1040B00005D2064B03EBC50302221A71E4E7034B5A
:1040C00003EBC50303221A71DEE700BF8C27002033
:1040D00038B5114B18681AF0B5FB0546C8B900246D
:1040E00001E00134E4B2012C0CD80C4B53F824004D
:1040F0001AF0D1FC0128F4D124F064F8084B43F8FD
:104100003400EEE7074B00221A70034B18681AF0D0
:10411000A9FB284638BD00BF88270020F85400209E
:104120008C2700202457002000B9704730B583B099
:104130000446104D104928681DF0C4FF1AF0BBFA60
:104140001AF0BAFA0D4B00934FF48D730C4A0D49D7
:1041500028681DF0B7FF23460B4A0C4928681DF05C
:10416000B1FF204600F092F9094928681DF0AAFF26
:1041700000BEFDE79C2700208C840208EC97020813
:104180003C970208AC970208B8970208C09702084B
:10419000D897020800B589B0002307E0002226491D
:1041A00041F823202549CA540133DBB2012BF5D94C
:1041B000002309E0224A02EBC30104200871002118
:1041C00042F833100133DBB2012BF3D90023019302
:1041D0000293039304930593069307939DF8043089
:1041E00043F001038DF80430DBB243F008038DF88F
:1041F0000430DBB243F020038DF80430114B0293FE
:10420000114B039302238DF810304FF48063059314
:104210000523ADF818300423ADF81A3008230793AE
:104220000A4901A800F050F910B909B05DF804FB83
:10423000FFF77AFFF9E700BF802700207C270020E6
:104240008C2700205142000887E6010888270020BB
:1042500010B584B001AA02A9124B18681AF044FBE9
:10426000E8B902A8FFF7FCFE002401E00134E4B243
:10427000012C0ED80C4B03EBC40319790429F5D09B
:104280002046FFF777FA084B03EBC40304221A71A8
:10429000ECE7044B18681AF0E5FA04B010BDFFF71C
:1042A00043FFFAE7882700208C270020204B1B784B
:1042B000002B3CD170B582B00024012C20D82546BB
:1042C0001C4B53F82430834202D00134E4B2F4E7AB
:1042D0001AF0E1FB012815D023F074FF164B53F8B8
:1042E0003560861B00968DF80440282023F078F96D
:1042F000864211D8104B03EBC5031B79052B0BD05D
:1043000002B070BD23F05EFF0B4B43F8340003EBAB
:10431000C40305221A71DFE708226946074B1868B3
:104320001AF0B0FA0028EBD0FFF7FEFEE8E770477E
:1043300024570020F85400208C27002088270020D4
:1043400010B58368C26853F822301C78012C00D95C
:104350000124084B1B5D03B110BD23F033FF064B56
:1043600043F82400034B01221A5505212046FFF78C
:1043700001FAF1E77C2700208027002038B5836808
:10438000C26853F822301C78012C00D90124194B43
:104390001B5D012B00D038BD23F014FF164B53F8E2
:1043A0002450451B134B00221A55FA2023F018F90C
:1043B000A84204D900212046FFF7DCF9EBE74FF4CF
:1043C0007A7023F00DF9A84204D901212046FFF7A5
:1043D000D1F9E0E740F6B83023F002F9A84204D959
:1043E00002212046FFF7C6F9D5E703212046FFF753
:1043F000C1F9D0E77C2700208027002003460B4A24
:10440000107828B10A4A12789A4202D2002000E0BD
:104410000120084A12783AB1074A127842FA03F3A7
:1044200013F0010F00D10020704700BF2757002074
:1044300026570020215200202557002008B5084BA0
:1044400001221A70074B00221A70074B04221A70BF
:10445000064B1F221A7007F005FB054B186008BDBC
:1044600027570020215200202657002025570020E2
:104470009C27002008B50349034B18681DF022FE55
:1044800008BD00BF049802089C27002070B50646AE
:104490000A4C0B4920681DF015FE07F0E3FA0546AB
:1044A000206807F0D3FA3046FFF7E4FF284607F00C
:1044B000CDFA044920681DF005FE70BD9C27002040
:1044C000089802080C980208F8B500284FD00D464D
:1044D000044600294DD0037813F0030F36D042680C
:1044E000002A48D013F0080F02D0A28A002A44D034
:1044F00013F0200F05D0E38A002B40D0A369002BD6
:104500003FD02C201EF01AFA064600283BD02C2261
:10451000002121F0C8FE21686268A368E06871602C
:10452000B260F360306121696269A3697161B2614F
:10453000F361237813F0040F0ED000272E60636818
:1045400043B1314611481AF03FFA03E04268002AAD
:10455000C8D021273846F8BD012130461AF03EF96F
:1045600007460028EAD030461EF0C7FAF2E72227B5
:10457000F0E72227EEE72127ECE72127EAE72127CA
:10458000E8E72127E6E71927E4E700BFA027002096
:1045900008B503481AF011FA19F098FF08BD00BFDA
:1045A000A027002010B50B4B1C6802E023F0B6FBDF
:1045B000246864B123F0B7FB94F82030002BF5D0C9
:1045C000A36A002BF2D023F0A9FB002000E0012019
:1045D00010BD00BFA027002010B50B4B1C6802E0E7
:1045E00023F09CFB246864B123F09DFB94F82030F9
:1045F000002BF5D0A36A002BF2D023F08FFB042010
:1046000000E0012010BD00BFA027002010B50C4B1A
:104610001C6802E023F082FB24687CB123F083FB5A
:1046200094F82030002BF5D0A36A002BF2D0013B88
:10463000A36223F073FBA3689847EDE710BD00BFAA
:10464000A027002008B5044823F042FC19F060FFC1
:1046500000F086F808BD00BFC09A020808B50248FD
:1046600023F036FC08BD00BFC09A02082DE9F041D6
:1046700080460F4601F109050026344604E05B211F
:10468000082000F093FA0134AC4233D2052C1BD839
:1046900001A353F824F000BF7F460008B14600088C
:1046A000E5460008B9460008BD460008C1460008B6
:1046B000FBB20433D9B2E3E78021E1E70021DFE771
:1046C000731C3146DEB2DBE7BB1DA3420CD0FB1DE1
:1046D000A3420BD007F10803A34209D0A31F18F887
:1046E0000310CDE7D121CBE75A21C9E75A21C7E70B
:1046F0005D21C5E70020BDE8F08100BF00B583B0B3
:1047000000220092019202218DF8001005481AF053
:1047100021F9019008216846FFF7A8FF03B05DF872
:1047200004FB00BF006A180000B583B0044B1B886F
:10473000ADF8043001A800F015FB03B05DF804FBF0
:104740001098020800B583B0044B1B88ADF8043004
:1047500001A800F0D7FA03B05DF804FB1098020836
:104760002DE9F04F97B04D4D09AC2E1D0FCE0FC463
:104770003368236001AC05F118060FCE0FC496E82C
:104780000F0084E80F00464823F0A2FB454823F0C1
:104790009FFB01268DF8096000248DF80840424BEC
:1047A0000B9301AB0D93414F09A938461CF0ADF8AE
:1047B000B5F838B0ADF838B0324604210EA800F094
:1047C00065FAB5F83CA0ADF83CA0224631460FA8EA
:1047D00000F05CFAB5F84090ADF840903246042104
:1047E00010A800F053FAB5F80080ADF844803246C6
:1047F000042111A800F04AFA2D4D2E4BC5F8F834CB
:104800004FF00213C5F8F434A3F58033C5F8FC3437
:104810001C23C5F8E4344FF4487008F0A7FDFFF7F7
:1048200083FF142008F0A2FDFFF78CFF232008F07F
:104830009DFDFFF779FFB92138461CF04EF8FFF7D0
:1048400081FFADF848B02246214612A800F01EFABA
:10485000ADF84CA02246214613A800F017FAADF897
:1048600050903246214614A800F010FAADF854805A
:104870003246214615A800F009FA384603F086F9B9
:10488000C5F8E444C5F8F844C5F8F444C5F8FC4458
:10489000044823F022FB17B0BDE8F08F10980208FF
:1048A000C09A0208C49A0208E070720000000A5020
:1048B00000C003500200030008B50448044A121A5D
:1048C000921004491AF06FF808BD00BF800100087B
:1048D000800300088052002008B5154B83F30A8836
:1048E00000F030F8FFF7E8FF124A0AE0106851685C
:1048F00050F8230041F82300013391688B42F5D32F
:104900000C320D4B9A4201D20023F6E70B4A08E025
:104910001168002041F82300013351688B42F7D31E
:104920000832074B9A4201D20023F6E7FDF7C6FC96
:104930000000002010DF02081CDF02081CDF020854
:104940001CDF020870B5134B134A9A60D3F8882015
:1049500042F47002C3F88820104A4FF480419166F7
:104960000F4D05F500544FF0FF3222660D4A626686
:104970000222C3F8D020BFF34F8FBFF36F8F002008
:1049800007F03AF84FF44036E66000201DF045FB92
:104990002E6170BD00ED00E00000000800900050A6
:1049A000008000447FFF7F01014B1860704700BF0B
:1049B0001855002008B5064B1860064B1B6F03F016
:1049C0000703032B00D008BD21F0F4FEFBE700BF76
:1049D0002055002000800050BFF34F8F0549CA6862
:1049E00002F4E062044B1343CB60BFF34F8F00BF70
:1049F000FDE700BF00ED00E00400FA05F0B18446D9
:104A0000F1B110B409E004F120000FE02033C01A26
:104A100018D1BCB10CF1010C01319CF800400B4BDA
:104A20001B5D03F00303012BEDD020460B78074AF2
:104A3000D25C02F00302012AE9D1E7E701207047C6
:104A4000012070475DF8044B704700BFD5DD0208B8
:104A500030B587B00546046823798DF80C3063794A
:104A60008DF80D301A4823F033FA0022012103A8F3
:104A700000F00CF90DF10B0103A81AF0CDF89DF828
:104A80000B302370A379022B02D0002007B030BD79
:104A90004FF0FF330593049300950E4B012205A9B7
:104AA00003A800F02FFA059BB3F1FF3F07D0009554
:104AB000084B022204A903A800F084F9E5E7009559
:104AC000044B042204A903A800F07CF9DDE700BF31
:104AD000C09A0208A5EA010810B582B0002401942A
:104AE0002A4823F0F5F98DF8004003238DF80130B2
:104AF00001220421684600F0C9F8254B0122C3F8C1
:104B0000442401A9052023F0DCF900283BD1214BE6
:104B1000D3F8F02042F00102C3F8F020D3F8FC20D3
:104B200042F08072C3F8FC20A3F55D431A4A1A6074
:104B3000019B03F5D52303F2FC43DB08174AA2FBD4
:104B400003239B0A013B164A13610223C2F8F0308B
:104B50004FF48073C2F804334FF06043114AC3F836
:104B6000B02F114AC3F8802ED3F8002E42F4807281
:104B7000C3F8002EFF2283F82020D3F8002E22F461
:104B80008072C3F8002E02B010BD00BFC09A0208A8
:104B900000D0035000ED00E0FF03004017916502D4
:104BA000000004E055CEACC5090001004FF06043A1
:104BB000D3F8803E13F0010F01D1112070470E4A47
:104BC000D2F8FC3043F08073C2F8FC304FF0604301
:104BD000D3F8002E4FF0010C0CFA00FC42EA0C0254
:104BE000C3F8002E53F82030002BE8D04FF060437C
:104BF00003F820100020704700ED00E010B50446D7
:104C00000FE00123834024EA03040F2814D800EBAB
:104C100040020E4B03EB82035A6812B19968C0B28E
:104C2000904794B1234600201F28EAD813F0010FC3
:104C3000E7D101305B08F7E7103800EB40039B0039
:104C4000B033024A13440433E6E710BDA427002022
:104C500008B50D4823F03CF91A2006F0BDFE28B92E
:104C60001B2006F0B9FE40B9002008BD1A2006F04E
:104C7000C3FE1A201DF0D1F9F2E71B2006F0BCFE9E
:104C80001B201DF0CAF9EFE7C09A02082DE9F04198
:104C900070B30C46174605460F292BD803784BB145
:104CA000022B20D0032B21D0012B01D0002303E0C5
:104CB0007F2301E040F2FF736A78D34013F0010FC5
:104CC0001AD00F4BD3F81063C6B923F03FF88046D3
:104CD0003A462146284603F067FE404623F031F865
:104CE0003046BDE8F08140F2FF33E5E73F23E3E7DC
:104CF0002226F5E72126F3E72126F1E70226EFE752
:104D000000C0035040B310B5044603784BB1022BEA
:104D10001DD0032B1ED0012B01D0002303E07F23E5
:104D200001E040F2FF736278D34013F0010F15D019
:104D300023F00CF8237862780121914003EB4303C0
:104D40001B01074AD15022F0FCFF002010BD40F2A9
:104D5000FF33E8E73F23E6E7222070472120F5E70D
:104D600040D0035040B310B5044603784BB1022B3A
:104D70001DD0032B1ED0012B01D0002303E07F2385
:104D800001E040F2FF736278D34013F0010F15D0B9
:104D900022F0DCFF237862780121914003EB43038A
:104DA0001B01074AD15022F0CCFF002010BD40F279
:104DB000FF33E8E73F23E6E7222070472120F5E7AD
:104DC00040E00350002866D02DE9F0410C4615461E
:104DD0001F460646002960D002784AB1022A3ED01A
:104DE000032A3FD0012A01D0002303E07F2301E002
:104DF00040F2FF737178CB4013F0010F01D1FF2A0D
:104E00004DD1022D01D9042D4BD122F09FFF8046B8
:104E10003378FF2B28D12368B3F1FF3F2BD02268D2
:104E2000B2F1FF3F32D0204B02EB420203EB820291
:104E30005760226802EB420203EB8203069A9A60F3
:104E40003378FF2B05D0226801239340174AC2F81C
:104E50002434404622F075FF0020BDE8F08140F286
:104E6000FF33C7E73F23C5E72A462168304603F0F2
:104E700005FE2060CFE73378FF2BD0D10C4BD3F861
:104E8000241470781BF010FF2060C8E7404622F021
:104E900058FF2D20E1E7222070472220DDE7212066
:104EA000DBE72120D9E700BFA427002000D0035072
:104EB00000C00350B0F1FF3F1AD038B504460F28A8
:104EC00018DC002818DB22F041FF0123A3400B4A25
:104ED000C2F82034C2F82434094B04EB440203EB3B
:104EE000820200255560956022F02BFF284638BDD0
:104EF000212070472120FAE72120F8E700E0035045
:104F0000A4270020002856D02DE9F0410C46174672
:104F10001E460546002950D0017849B1022939D0F2
:104F200003293AD0012901D0002303E07F2301E0C7
:104F300040F2FF736A78D34013F0010F01D1FF29CB
:104F40003DD122F003FF80462B78FF2B27D122682A
:104F5000B2F1FF3F2AD01B4B02EB420203EB82026D
:104F6000C2F8B860226802EB420203EB8203069AA1
:104F7000C3F8BC202B78FF2B06D022681032012307
:104F80009340114AC2F82434404622F0DAFE002051
:104F9000BDE8F08140F2FF33CCE73F23CAE73A4651
:104FA0002168284603F00AFE2060D0E7404622F040
:104FB000C8FE2D20ECE7222070472220E8E72120C0
:104FC000E6E700BFA427002000D0035008B5084B37
:104FD000D3F82404D3F82024104000F0553020F0FA
:104FE000502003F50053C3F82004FFF707FE08BD67
:104FF00000C0035008B5084BD3F82404D3F820248C
:10500000104000F0AA3020F0A02003F50053C3F8B0
:105010002004FFF7F3FD08BD00C0035010B582B0B7
:1050200004460A4822F054FF23788DF80430637850
:105030008DF80530A278B2FA82F2520904210DEB04
:105040000100FFF723FE002002B010BDC09A020845
:10505000F0B585B00C4694469DF83410664A127837
:10506000002A00F0BD800546BCF1070F00F2BA80AF
:105070000A9A002A00F0B8800B9A002A00F0B68045
:105080000E9AB2F5006F00F3B38001285BD05B4A43
:1050900002EB0C12127B002A00F0AC80002200927E
:1050A000019202920392564A02EB4C1E002C4FD101
:1050B0004FEA4C1600209051CEF80400CEF80800BC
:1050C000CEF80C009EF8020040F010008EF80200AE
:1050D0009EF8030040F030008EF8030021B9C1B201
:1050E00041F003018EF8031000930E9B013B444AEC
:1050F0004FEA4C1002EB4C11165A63F30E1616527F
:105100000A9B8B600B9B4B60CB789DF83C2062F335
:105110008303CB70012D36D0109B002B56D0374A1D
:105120004FEA0C1102EB0C1310985050119A5A6070
:1051300000249C605D7372466946604603F0F6FA8F
:10514000204605B0F0BD0C9A002AA0D12D48F8E702
:105150002B4F4FEA4C1607EB4C120020B851506011
:105160009060D060907840F010009070D07840F05F
:105170000300D0700029B7D107EB4C12C1B241F047
:105180003001D170B0E70E460A7B42F001020A738B
:10519000D2B242F002020A73CA68042161F39F028C
:1051A000F26006F1100796E80F0087E80F00F26939
:1051B0006FF0030161F39F02F2610C9B7361012C9C
:1051C000AAD10B9AB2610C9A7260A5E7002DA6D104
:1051D0000B4B03EB4C139A786FF304129A709EE713
:1051E0000948AEE70748ACE70648AAE70548A8E73C
:1051F0000448A6E70548A4E7225200200C2A002014
:105200000C290020018000F0028000F0078000F0EF
:10521000134B1B78FBB110B50446F0B122F096FD9C
:105220000023072B13D80F4A02EB0312127B0AB19B
:105230000133F6E723600B4A190102EB0313012443
:105240001C730024545022F07CFD204602E022F022
:1052500078FD054810BD054870470548FAE700BFCE
:10526000225200200C2A0020048000F0028000F06E
:10527000018000F038B522F069FD04460023072BB9
:1052800006DC0C4A02EB0312127B12B90133F6E77B
:10529000002222B1204622F054FD074838BD03F019
:1052A000F1F90025054B1D70204622F04AFD2846E5
:1052B000F4E700BF0C2A0020058000F022520020F5
:1052C0000F4B1B78BBB110B50446072815D822F048
:1052D0003DFD0C4B03EB04131B7B1BB922F031FD8E
:1052E00009480BE0074B03EB041300241C7322F066
:1052F00028FD204602E005487047054810BD00BF64
:10530000225200200C2A0020068000F0028000F0CB
:10531000018000F000B583B0134B1B68019300239C
:105320008DF8043022F012FD104B1B7833B90F4B6F
:1053300001221A7022F005FD002309E022F001FD90
:105340000B480EE00B4A02EB0312002111730133EC
:10535000072BF7DD08238DF8073001A803F0B6F915
:10536000002003B05DF804FB54980208225200208C
:10537000038000F00C2A002010B5104C2478BCB13A
:10538000072817DC0E4C04EB0014247BA4B10C4C52
:105390004FEA001E04EB001C44F80E30029BCCF8D0
:1053A00004300024CCF8084003F0C0F9204610BDBA
:1053B0000448FCE70448FAE70448F8E722520020D2
:1053C0000C2A0020028000F0018000F0078000F02D
:1053D00008B50A4B1B785BB107280BD8084B03EBC9
:1053E00000131B7B43B1002103F062F9002008BDCC
:1053F0000448FCE70448FAE70448F8E72252002092
:105400000C2A0020028000F0018000F0078000F0EC
:1054100008B50A4B1B785BB107280BD8084B03EB88
:1054200000131B7B43B1012103F042F9002008BDAA
:105430000448FCE70448FAE70448F8E72252002051
:105440000C2A0020028000F0018000F0078000F0AC
:10545000F8B5194B1F6D5B6D1F4002D40125002468
:1054600002E0FEE701346D00072C24D83D42F9D05C
:10547000124B1D652301124AD358002BF2D002EBC8
:105480000416B1680131B16072682046984780F017
:105490000100C0B2737B012BE4D10028E2D0094B9C
:1054A00003EB44131A7B6FF341021A731A7F6FF3F5
:1054B00041021A77D6E7F8BD0000045000200450DE
:1054C0000C2A00200C29002000B585B0FF238DF8A0
:1054D0000C308DF80D3002900F2809DC0091094B3B
:1054E000002202A903A8FFF76DFC05B05DF804FBDC
:1054F000103802900091034B002202A903A8FFF785
:1055000001FDF2E77FED01082DE9F04F89B0054676
:105510000E4614469846C36B5B69012207A9606872
:105520009847EB6B5B69012206A93046984707A8AC
:105530001AF008FE48B10027A77567754FF0FF33D2
:10554000A360384609B0BDE8F08F074606A81AF0F8
:1055500009FE0123A375237E033304EBC3035E60BE
:1055600000221A816368B3422AD02368834201D0A3
:105570000023A37506A81AF01AFE237D984201D0D5
:105580000023A37506A81AF0F1FD814607A81AF0BA
:10559000EDFD814501D00023A37506A81AF0EEFDAC
:1055A000814607A81AF0EAFD814501D00023A375C2
:1055B000237D043BDBB2022B0BD80023A375C0E78D
:1055C000206006A81AF0F3FD20754FF0FF33A360AA
:1055D000EEE706A81AF0CAFD80B1EB6B5B69022208
:1055E00004A93046984704A81AF0D3FD0346207D4D
:1055F000032868D8DFE800F0615B070D06A81AF001
:10560000C8FD0346F3E7237E033304EBC303CC2238
:105610001A811AF0DCFD129B187094F8189006A8F5
:105620001AF097FD09F1030904EBC90989F80A008A
:10563000237E033304EBC303B3F808A093F80AB046
:1056400006A81AF093FD814606A81AF097FD03906C
:10565000B9F1000F3DD0EB6B5B69022204A9304623
:10566000984704A81AF051FD6075637D03B9A375CE
:10567000A37DA3B1BAF1000F11D0039BF1186B6C9D
:105680005B4286EA01021A4201D00023A3756B6CCB
:105690005A1E0A409B1A9A4501D90023A375A37D7F
:1056A000002B40D0BBF1000F18D1E77D3CE0227EFB
:1056B000033204EBC2021381ABE7227E033204EB18
:1056C000C2021381A5E7227E033204EBC2021381DA
:1056D0009FE706A81AF002FD6075C6E70122E27591
:1056E000627EBAB9BBF1010F08D095F83470DFB90A
:1056F000EA6AB2F1FF3F05D01F4615E0012161764D
:10570000174611E0BBF1030F01D01F460CE0012248
:10571000A27609E0BBF1010F37D0BBF1030F03D133
:105720000122A27600E01F4653B117B1BBF1010F71
:1057300006D95346039A3146284619F046FEA06022
:10574000A37D13B1236953442361237E114A127848
:1057500093421CD201332376B8F1000F13D0A37DFE
:105760008BB1E37D7BB177B9BBF1030F0BD0A1689F
:10577000B1F1FF3F07D0129B009301232246284638
:10578000FFF7C2FEA075A77DDBE61746CCE7002336
:10579000A375E1E7789802082DE9F04F89B0054636
:1057A0000F4692469B4600238DF80B304FF0FF3199
:1057B000104600F0EFFFB7F5801F1DD300230093C4
:1057C00017F1020F07D0009B002B40F09E802B7C2E
:1057D000002B00F08C80EB6AB3F1FF3F2CD02A68DD
:1057E0009B1A6A6CB3FBF2F917F1020818BF4FF06D
:1057F0000108002301935DE00DF10A02394605F12D
:10580000080000F017FF0146B0F1FF3F11D05046ED
:1058100000F0C0FF0DF10B0301225146284619F09C
:1058200053FE00900028CBD09DF80B308BF8003051
:10583000C6E700230093C3E7696A284619F0E6FC2F
:105840008146D1E70123019337E09DF80B308BF8B7
:105850000030324B1A683249504620F04BFD00941C
:105860002F4B9968B1F1FF3F1BD06B6C5B4281EA13
:1058700006021A4215D12A4C204600F08BFF0DF18A
:105880000B0342462146284619F01EFE0446002816
:10589000E6D017F1020FD8D0214B1B68BB42DFD1F5
:1058A000D3E74946284619F0B1FC8146019BCBB9A4
:1058B000009BBBB96B6A4B45C4D02C686B6C03FB77
:1058C0000944EB6B5B69052203A92046984703A8AE
:1058D0001AF014FD1AF039FD20461AF042FD064672
:1058E0000146BFE7009BA3B1B7F5801F03D3009B20
:1058F0008BB100200AE09BF80030DAF8042039462A
:1059000005F1080000F0B4FEF1E7002009B0BDE8A1
:10591000F08F2D20FAE72D20F8E700BF74980208D9
:105920000031002070B582B004464FF0FF33C362EF
:105930000DF107031A4A6FF00101FFF72DFF20BB9D
:10594000174B9B68E362E56A2946204619F04FFA37
:105950002063E8B12946204619F027FD0546A36AD1
:10596000AB421BD02946204619F041FA0646236B6C
:10597000034423632946204619F017FD0546002EEF
:10598000EDD100232363E062E9E7A36AE362DAE78B
:10599000E16A204619F009FDE062DBE702B070BD64
:1059A0002C31002030B583B01C46032A14BF0022DE
:1059B00001221B7E9A4202D0012003B030BD0D4669
:1059C000096823689942F7D363689942F4D80DF1C6
:1059D0000703114AFFF7E0FE0028EDD10E4B5A688D
:1059E0006B689A42E8D19DF80730032B14BF00235F
:1059F0000123227E9342DFD163690133636123690E
:105A0000E2689342D8D2A268296842F82310236939
:105A100001332361D0E700BF2C3100202DE9F04194
:105A200082B004460E4690461F46816A06E01A4B35
:105A30009968B1F1FF3F1FD0012E23D0E06A884260
:105A400017D0B1F1FF3F14D0134D284600F0A2FE4D
:105A50000DF1070301222946204619F035FD0028E3
:105A6000E5D03B469DF8072029462046C047002840
:105A7000DDD102B0BDE8F0815968204619F095FCEF
:105A80000146D9E7044B5A68636C5B424A401A42AC
:105A9000D4D04FF0FF31D1E7D430002010B5044608
:105AA000083000F08DFD0023024A19462046FFF71A
:105AB000B5FF10BDB7F4010838B50446037C0BBB35
:105AC00002461349083000F01DFE616A204619F0B5
:105AD000BFFB421C616A204619F010FB054620B945
:105AE000236B626C1344143B2363A16A204619F0B4
