:020000040800F2
:1000000000200020A5450008B9E10108B9E1010878
:1000100001270208B9E10108B9E10108B9E10108C5
:10002000B9E10108B9E10108B9E10108B9E1010844
:10003000B9E10108B9E10108B9E10108B9E1010834
:10004000B9E10108B9E10108B9E10108B9E1010824
:10005000E1660008B9E10108B9E10108B9E1010868
:10006000B9E10108B9E10108B9E101082D3C000836
:100070001D3C0008B9E10108B9E10108B9E1010836
:10008000B9E10108B9E10108B9E10108B9E10108E4
:10009000B9E10108B9E101081D510008B9E1010801
:1000A000B9E10108B9E10108C14C0008994C000808
:1000B000B9E10108B9E10108E5B2010891BD010803
:1000C000155802081158020845B501082B580208B6
:1000D0001958020861BD01081D580208F5BD010844
:1000E0002DBE0108B9E10108B9E10108B5CE00084B
:1000F000B9E1010897160208B9E10108B9E1010860
:10010000B9E10108B9E10108B9E10108B9E1010863
:10011000B9E10108B9E10108B9E10108B9E1010853
:10012000B9E10108B9E10108B9E10108B9E1010843
:10013000B9E10108B9E10108B9E10108B9E1010833
:10014000B9E10108B9E10108B9E10108B9E1010823
:10015000B9E10108B9E1010881790208D1970108E4
:10016000B9E10108B9E10108AF570208B557020823
:10018000194A5AB3194BDB6913F0040F29D110B483
:100190000AE003EA00048C4210D0013AB2B1134BDA
:1001A000DB6913F0040F14D110F0010FF1D1104CE2
:1001B0001C40002CEDD06FF001000CE00C4A1A40FE
:1001C0000AB9002007E06FF0010004E06FF00200C0
:1001D00001E04FF0FF305DF8044B70476FF0020014
:1001E00070474FF0FF307047809698000000035032
:1001F000020001000D4BDB6913F4803F12D170B592
:100200000A4B03F580560124F46003F500552C6475
:100210004FF480721A6100212046FFF7B1FF346469
:10022000EC6070BD6FF00100704700BF000003502C
:1002300010B5124B4FF480329A6603F51C33DC691B
:10024000144041F67132DA6303F580520121D16026
:10025000586102221A6100212120FFF791FF40B16D
:10026000074B0122DA601CB1A3F500530022DA63C8
:1002700010BD00212120FFF783FFF1E7009000501F
:100280000020035038B51A4B5861DB6913F0040F96
:100290002AD10C4654F8041B154B9961151F06E032
:1002A000214651F8042B124B9A61043D0C465DB176
:1002B00008210846FFF764FF03460028F0D00C4AE7
:1002C00004211161184638BD094B04221A6100212E
:1002D0002120FFF755FF03460028F3D100212120FC
:1002E000FFF74EFF0346EDE74FF0FF33EAE700BFAD
:1002F000000003502DE9F0410F46164605461A4B03
:100300004FF480329A6603F51C33DA6902F48038C0
:1003100041F67132DA6303F580530122DA6000237B
:1003200002E025442744361B8EB105F5005424F421
:10033000FF5424F01F04641BB44228BF34462246F5
:1003400039462846FFF79EFF03460028E9D0074AB2
:100350000121D160B8F1000F03D0A2F500520021B5
:10036000D1631846BDE8F081009000500020035092
:10037000000000000000000000000000000000007D
:10038000013800D0FCE770472DE9F04F2DED028BCE
:1003900093B082460C4693461D4657EC106B8DED8C
:1003A000080B32463B46304639461CF013FA00280B
:1003B00000F009814FF0FF32B14B304639461CF056
:1003C00031FA002840F0FF804FF0FF326FF48013C5
:1003D000304639461CF008FA002840F0F48000222C
:1003E0000023DDE90867304639461CF0FDF9002896
:1003F00040F0FC809DED087B8DED067B209B13F487
:100400008063119301D106231E93DDE906010246A4
:10041000C1F30A50C1F31303904643F07F5949F4E6
:100420004019A0F2FF301BF003FF83A3D3E90023A0
:100430001BF068FF82A3D3E900231BF0ADFD064645
:100440000F4600228F4B404649461BF0A3FD7EA37A
:10045000D3E900231BF056FF02460B4630463946CF
:100460001BF09AFD1CF0E8F906461BF0E1FE804601
:10047000894677A3D3E900231BF044FF0022824B77
:100480001BF08AFD1CF0D8F9074673A3D3E90023BB
:10049000404649461BF036FF8046894638461BF0E9
:1004A000C7FE6FA3D3E900231BF02CFF02460B46C7
:1004B000404649461BF06EFD8046894602460B4683
:1004C0001BF020FFCDE90C0107F2FF3700210022CD
:1004D000CDE90A123B050B9300230A9342464B4693
:1004E000404649461BF058FDCDE90E0142464B46B9
:1004F00000204FF080411BF04DFD804689460022D0
:10050000624BDDE90C011CF027F80022604B1BF068
:1005100043FD02460B46DDE90C011CF01DF80022EC
:100520005C4B1BF039FD02460B46DDE90C011CF06B
:1005300013F802460B46404649461BF02DFD024685
:100540000B46DDE90E011CF007F80022524B1BF0B0
:1005500023FDDDE90A231BF0D5FE8046894649ECE0
:10056000188BDDE906231CF05DF940B1013E002245
:10057000474B404649461BF0EFFF41EC180B06F194
:100580006303C62B3BD80427209B13F4006F40D095
:1005900035A3D3E90023DDE90689404649461CF02E
:1005A00037F900283BD032A3D3E90023404649461F
:1005B0001CF01AF9002832D01E9BB34221DD9E1B8D
:1005C000731E1E931FE0209B02931F9B01931E9B93
:1005D00000939DED080B2B465A462146504600F0ED
:1005E000CBF813B0BDEC028BBDE8F08F9FED227B02
:1005F0008DED067B069607F100430793FEE605277F
:10060000C2E700231E93209B43F4806320930027BE
:100610003E461F9B9F4241D2A3EB070840E01E9B32
:10062000002BF6D0119B002BF3D01E9B013B1E9399
:10063000EFE700BFAFF30080FB799F501344D33F37
:10064000B3C8608B288AC63F61436F63A787D23FD8
:1006500071A379094F930A401655B5BBB16B02409F
:10066000EF39FAFE422EE63F2D431CEBE2361A3FED
:100670000000000080842E41000000000000000007
:10068000FFFFEF7F0000F83F0000E03F00002C403C
:1006900000002440000018400000F03F4FF0000828
:1006A000209B13F0020902D00FB14FF000083EB1B9
:1006B00053EC182BDDE906011BF04EFFCDE90601D6
:1006C00000220023DDE908011CF08EF800283BD150
:1006D000209B23F400630293CDF804801E9B0093BB
:1006E0009DED060B2B465A462146504600F044F835
:1006F000002F3FF476AF209B13F0200F2CD04FF04B
:10070000450C00F101082B46024621466046D047C1
:1007100086EAE672A2EBE67205230593013F049791
:10072000002303930A230293F30F019300922B46B5
:1007300042462146504623F061FCB9F1000F3FF4D8
:1007400050AF02461F9F10E0DDE90601024601F1AD
:100750000043CDE90623BBE74FF0650CD1E7561CFB
:100760002B4621462020D0473246A2EB0B03BB424A
:10077000F5D3104635E700BF2DE9F04F2DED028B84
:1007800093B00590089192469B4659EC108B1E9DA4
:1007900042464B46404649461CF01CF8002840D0D3
:1007A0004FF0FF326FF48013404649461CF01CF8AE
:1007B000002845D14FF0FF32B14B404649461CF06E
:1007C00031F800284BD1AAA3D3E90023404649467B
:1007D0001CF028F800285AD1A7A3D3E900234046EB
:1007E00049461CF001F8002851D100220023404660
:1007F00049461BF0F9FF002857D100230993209B9D
:1008000013F4806F5CD000241F2C5BD8092D59D9BC
:1008100004F148036B44302203F8202C013D0134DD
:10082000F2E7209B03931F9B029303230193954BB5
:1008300000935B4652460899059823F005FB10E1AA
:10084000209B03931F9B0293042301938E4B0093E1
:100850005B4652460899059823F0F6FA01E1209B81
:1008600013F004030FD0894A7BB10423209903912C
:100870001F990291019300925B4652460899059890
:1008800023F0E2FAEDE0824AEEE70323EEE7209B55
:1008900002931F9B0193009549EC108B5B465246D7
:1008A00008990598FFF770FDDBE042464B460020B3
:1008B00000211BF06FFB80468946012309939EE7C8
:1008C0000625A0E7404649461BF0B6FF06461BF04A
:1008D000AFFC02460B46404649461BF05BFB6D4BA6
:1008E00003EBC50393ED008B53EC182B1BF00AFDB3
:1008F00002460B46CDE906231BF0C6FF07461BF058
:1009000087FC02460B46DDE906011BF043FB02466D
:100910000B46CDE9062300225F4B1BF083FF50B34B
:10092000013738461BF074FC02460B4651EC180B9D
:100930001BF064FF08B10136002755BB30461BF0A1
:1009400077FC02460B46404649461BF023FB804697
:1009500089460022504B1BF047FF38B100224E4B16
:10096000404649461BF05EFF002842D016F0010FBA
:100970003FD001363DE00022474BDDE906011BF088
:1009800033FF0028D9D117B117F0010FD5D00137A7
:10099000D3E71F2C17D8013D404BA3FB0723DB08EF
:1009A000194603EB8303A7EB4303621C303304F1C6
:1009B00048000DEB000404F8203C092F02D90F4633
:1009C0001446E6E714461F2C0AD86B1E45B104F105
:1009D00048026A44302102F8201C1D460134F2E727
:1009E0001F2C06D804F148036B442E2203F8202C58
:1009F00001341F2C17D82A4A82FB0632F317C3EBA7
:100A0000A2031A4603EB8303A6EB4303611C3033B6
:100A100004F148000DEB000404F8203C16460AB12E
:100A20000C46E6E70C46209B03F00303012B39D06C
:100A30001F2C09D8099B002B51D004F148036B44AB
:100A40002D2203F8202C0134209B03931F9B02933B
:100A500001940AAB00935B4652460899059823F02F
:100A6000F3F913B0BDEC028BBDE8F08FAFF300805B
:100A70000000000065CDCD410000000065CDCDC176
:100A8000FFFFEF7F0096020804960208F495020823
:100A9000FC950208109602080000E03FCDCCCCCCBB
:100AA000676666661F9BB3B1099B1BB9209B13F059
:100AB0000C0F12D01F9B013B1F93194606E004F157
:100AC00048036B44302203F8202C01348C42AFD20F
:100AD0001F2CF4D9ACE71F99F8E71F99F6E7209B84
:100AE00013F0040F07D004F148036B442B2203F8E2
:100AF000202C0134A8E7209B13F0080FA4D004F1A8
:100B000048036B44202203F8202C01349CE700BFEB
:100B100038B50D46044626F067FC064A13889BB29A
:100B20002DB123431380BDE8384026F058BC23EA9A
:100B30000403F7E7684B00200022034B01214FF428
:100B400080709A70E4E700BF684B00207FB54E6864
:100B500002A9044624F0ECF89DF808300C2B19D1BA
:100B6000134BB3F90050134B9E4218D808F06CF8A1
:100B700003460068694600909B882046ADF8043023
:100B800024F0C3F870B140F25F620B490B480EF0DD
:100B900001F9FEE7204613F0FFFE0546E3E71FF0EC
:100BA000E6FCE5E72946204624F095F804B070BD40
:100BB0003E510020FFC99A3BB9980208849602086A
:100BC000002330B5134C85B0CDE90133039323786E
:100BD0008DF8043026F008FCA288E38805469A4286
:100BE0000DD0E188A06801AAA18023F02AFF58B1A6
:100BF00040F2DA62084909480EF0CCF8FEE7A06836
:100C000023F0F8FE0128ECD0284626F0E8FB05B0DA
:100C100030BD00BF60550020B998020884960208D4
:100C200038B50F4C656835B940F2C7720D490E48AA
:100C30000EF0B0F8FEE723F0B6FA284410F0FAFF01
:100C400000F00700032809D164680921204623F039
:100C5000C6FB205C031F5842584138BD0020FCE70A
:100C6000684B0020B99802088496020808B5114B19
:100C70009A78042A06D040F28E520F490F480EF09F
:100C800089F8FEE71B881B0706D440F28F520A49F9
:100C90000A480EF07FF8FEE700210820FFF738FF32
:100CA0000222074B98681A7313F030FCBDE8084025
:100CB00021F081BE684B0020B99802088496020892
:100CC0006055002010B5084CA06813F01FFCA06808
:100CD00023F090FE012806D00122A0681146BDE84D
:100CE000104023F089BE10BD6055002038B5194D65
:100CF000AB7833B140F22B72174918480EF04AF81E
:100D0000FEE726F071FB2988044611F0060109D0A0
:100D100001214FF48070FFF7FBFE2046BDE838400C
:100D200026F05DBB4FF48070FFF7F2FE12F040FD3D
:100D3000012805D010F0FD0F05D1FFF741FFECE7CA
:100D4000FFF7C0FFE9E740F24172034903480EF0A4
:100D500021F8FEE7684B0020B99802088496020843
:100D600070B50446064D95F90860FFF7BFFF12F015
:100D70001DFC314620466A68BDE8704012F04EBA4C
:100D8000684B002008B50A4B1B88DB0606D440F2EE
:100D9000A752084908480DF0FDFFFEE7002110208A
:100DA000FFF7B6FE12F080FDBDE8084021F003BE5B
:100DB000684B0020B9980208849602080D4B10B5C4
:100DC0001B8804469B0713D500210220FFF7A0FED5
:100DD000094B5A7BFF2A06D040F2E54207490848F2
:100DE0000DF0D8FFFEE75C73BDE8104021F0E3BDD5
:100DF00010BD00BF684B002060550020B998020864
:100E0000849602087047704707B5ADF80610014692
:100E100030B94FF4B572104910480DF0BBFFFEE732
:100E2000BDF8063033B940F26B120B490B480DF098
:100E3000B1FFFEE70A4B0DF10602986824F02FF887
:100E400030B140F26D12044904480DF0A3FFFEE7F3
:100E500003B05DF804FB00BFB9980208849602084D
:100E60006055002010B50E4CA37833B14FF4EA72F0
:100E70000C490D480DF08EFFFEE7606019B1A17BB3
:100E8000003918BF01212020FFF742FE074B084818
:100E90009B7B23760223A370BDE8104010F096BD23
:100EA000684B0020B998020884960208605500201B
:100EB000844B002008B50CF09BFA80F00100C0B212
:100EC00008BD0A4B9A780AB1062A0CD11B8803F494
:100ED0008B7343B9064B5A7BFF2A04D1187BFF382A
:100EE00018BF012070470120704700BF684B0020E9
:100EF0006055002008B50CF06BFA0028FBD108BD46
:100F00000C4B42889A8142789A730278DA7382880D
:100F10001A82C2885A82C2685A61017A064A91735B
:100F2000028A998C914204D001214FF400709A8476
:100F3000EEE57047684B002060550020094B9A8908
:100F400042809A7B4270DA7B02701A8A82805A8AC7
:100F5000C2805A699B8CC260034A0382927B0272F0
:100F6000704700BF684B0020605500204B1E012BCE
:100F700070B50C4606D940F2B7221A491A480DF04E
:100F800009FFFEE7194D0A460146A86823F0B1FFA4
:100F900030B140F2B922134913480DF0FBFEFEE7D1
:100FA000AE6810F087FC22460146304623F09BFFD6
:100FB00030B140F2BD220B490B480DF0EBFEFEE7CD
:100FC000AD6810F083FC22460146284623F097FFC7
:100FD00030B140F2C122034903480DF0DBFEFEE7C9
:100FE00070BD00BFB99802088496020860550020C1
:100FF000054BDB7B1B0913F00E0003D0052B8CBFC8
:1010000000200120704700BF60550020044BDB7BAF
:101010001B0913F00E0F0CBF01200020704700BF0A
:10102000605500202DE9F04F15469A0580461F4671
:101030008FB003D501218020FFF76AFDEB014FF04F
:10104000000955D5984C23889E0751D5974E737B40
:10105000FF2B06D040F2AF42954996480DF09AFE1C
:10106000FEE7636833B94FF49662914991480DF0F9
:1010700091FEFEE749460220FFF74AFDA37886F875
:101080000D90042B03D101210820FFF741FD00231F
:10109000B06808A98DF82C3023F04CFE30B140F236
:1010A000BA42834983480DF075FEFEE7FFF7A0FFC3
:1010B000B0B923F078F88146606823F07FF808A97A
:1010C0008144B068ADF8249023F037FE30B140F28F
:1010D000C242774977480DF05DFEFEE7089BA362A8
:1010E000A378032B02D1B06813F010FA21F063FC4F
:1010F000B80702D50120FFF761FE15F0A84F02D016
:101100000220FFF75BFEA90220D50021402003AC9E
:10111000FFF7FEFC2146404623F009FFB0B99DF8D9
:10112000143008AA022B22D18DF82830BDF80C30DB
:10113000ADF82030104612F043FA38B1404623F0A3
:10114000F4FE18B901214020FFF7E2FC2A0753D52D
:10115000564E0321B06803AA23F0A3FE814688B946
:1011600040F2FE42524953480DF014FEFEE7032BB5
:1011700005BF8DF82830D4E900018DF82800C2E9B8
:101180000001D7E79DF80C30B068072B40F01F81B5
:10119000494608AA23F087FE30B140F20152444983
:1011A00044480DF0F7FDFEE7FFF722FFBDF80E20E3
:1011B000A0B9FFF72BFF78B1043292B2B06808A94A
:1011C000ADF8242023F071FE40B140F212523849AC
:1011D00038480DF0DFFDFEE70232EEE7BDF80E0005
:1011E0000121073080B226F02BF88246002842D138
:1011F00001210C2013F01EF9A90705D52A4B1B88E5
:101200001A0701D5FFF732FDAB010BD500210420F1
:10121000FFF77EFC244B9B78012B03D1234B98686E
:1012200013F074F915F0284F03D000210420FFF7C4
:101230006FFC7E060CD51C4C23881D0701D5FFF7DB
:1012400015FD2388580703D500210420FFF760FC13
:10125000F90540F1D88003A9404608AA23F0C8FB4D
:101260000146002800F0BA8040F2D25210491148DD
:101270000DF090FDFEE74FF0000B25F065FFCDF877
:1012800000B00246BDF80E3004464946B06823F06F
:1012900010FEBDF80E3083420ED040F222520449B7
:1012A00004480DF077FDFEE7684B002060550020F4
:1012B000B99802088496020822F075FF204410F0C5
:1012C000B9FC00F007000228DFF8589124D199F802
:1012D0000230042B90D122F066FF504B20448278DC
:1012E0001B789A4288D159460820FFF711FC22F05A
:1012F0005AFF204410F09EFC9DF82E30C0F30010E1
:10130000307389F80830FFF78BFC00287FF474AF46
:10131000B06813F0FBF86FE722F045FF204410F0AF
:1013200089FC83064AD522F03EFF204410F082FC5F
:1013300000F0070003280BD10921204623F04FF8C5
:1013400014F800B0ABF1040CDCF1000B4BEB0C0B10
:1013500001210420FFF7DCFBB06823F0BDFDC9F8D4
:101360002C00BBF1000F30D0B9F8003058062CD556
:1013700000214020FFF7CCFB0126BDF80E309DF880
:101380002E200120E254BDF80E309DF82F2023447A
:101390009A71BDF80E10089A0131214410F058FCE2
:1013A000BDF80E3050461C44667125F0A1FF1C4B61
:1013B000187810F011FC21F0FEFA1DE799F80230C0
:1013C000012B02D1B06813F0A1F80026D5E723F075
:1013D0004CFD4946B06823F06AFD0DE79DF80C30DE
:1013E00003F0BF02032A01D0022B0FD10D4C23883A
:1013F0005A0702D50420FFF78BFB23889B0702D5F1
:101400000120FFF7DBFC0FB0BDE8F08F4FF4BF62A7
:10141000054906480DF0BEFCFEE700BFD54B002095
:10142000F84A0020684B0020B99802088496020808
:1014300008B50246FFF7DCFD30B1072A06D80020C8
:10144000034B83F8302008BD7020FCE70220FAE748
:10145000684B002008B50246FFF7CAFD28B10020FE
:10146000034B93F83030137008BD7020FCE700BFC9
:10147000684B002008B5074B01460022986823F00E
:1014800038FD30B140F2EB22034904480DF082FCF4
:10149000FEE708BD60550020B9980208849602084E
:1014A00008B5074B01460022986823F01CFD30B1B7
:1014B00040F2F122034904480DF06CFCFEE708BD40
:1014C00060550020B99802088496020808B5074BB9
:1014D0000146986823F019FD30B140F2F722044923
:1014E00004480DF057FCFEE708BD00BF6055002022
:1014F000B99802088496020808B5074B9B7833B167
:1015000040F20132054906480DF044FCFEE7BDE813
:101510000840FFF7EBBB00BF684B0020B9980208FA
:101520008496020808B5054B0146986823F0D3FB62
:10153000002814BF8B20002008BD00BF605500208C
:10154000014B986813F028BA60550020014BD888E9
:10155000704700BF605500207FB50123ADF80E3005
:101560004FF6FE7309480093806800230DF10E02C8
:1015700004A923F03DFB212800D020B9BDF81000BC
:1015800007B05DF804FB4FF6FF70F9E760550020E7
:1015900008B5044B0146986823F0DEFAB0FA80F0F3
:1015A000400908BD6055002038B50B4D0446AB78A6
:1015B000012B0DD8FFF7ECFF60B1084BDC80AB7856
:1015C0001BB9FFF793FB002038BDFFF7F9FAFAE7E4
:1015D0003E20F9E78A20F7E7684B0020605500209D
:1015E000024B9B780BB9FFF781BB7047684B00201B
:1015F000014BD873704700BF684B002008B5064BFD
:101600004FF0FF31986823F020FA0028B8BF03306C
:1016100040F3870008BD00BF6055002008B5044BAB
:10162000986823F095FA034BB3FBF0F080B208BD45
:101630006055002040420F0030B58DB02C2204468A
:10164000002101A824F07EF901234FF002328DF829
:1016500008306423CDE9032306930B238DF82C3047
:10166000214B9B8CADF80A30FFF7C2FCA8B140F2C9
:10167000F23307934FF47A7305930CB9FFF722FB0B
:101680001A4D01A9A86813F05BFAC0B140F2AC6230
:10169000174918480DF07EFBFEE7FFF7BFFF0C234C
:1016A0004343902B0793A3F10A02D8BF91230592DD
:1016B000D8BF0793059B8B2BDFD88C23DCE7FFF784
:1016C000A5FC60B10122A868114623F02CFC30B1C2
:1016D00040F2AF62064907480DF05CFBFEE70CB92B
:1016E000FFF704FB0DB030BD684B002060550020B3
:1016F000B998020884960208F8B525F075FE554C95
:1017000006462388D90503D5A37843BBFFF7EEFA35
:10171000514D6B7BFF2B13D06B7B03F0FF0723BB7B
:10172000FF236B73A378032B0AD100233046A370E9
:1017300025F055FE3846FFF713FB25F055FE06460B
:10174000A378042B08D12B7BFF2B05D02B7B022BFE
:1017500014D1424810F03AF9FF232B7327E00021FF
:101760004FF48070FFF7D4F9D2E76B7B012B4FF079
:10177000FF0314BF89278D276B73D6E72B7B13B12B
:101780002B7B012B1ED1FFF74BFA0022FF212B7B75
:101790000746DBB222772973002847D0012B0AD1F4
:1017A00064212E48A37010F01CF9FFF709FA3046A7
:1017B00025F015FE06E03046A27025F010FE31201F
:1017C000FFF7CEFA23881A0608D500218020FFF7FC
:1017D0009FF9A86823F0EAFA12F047F823889B05DE
:1017E00007D54FF400700021FFF792F90020FFF7B2
:1017F00023FF0BF0EDFD608620B325F0A5FC012151
:101800000546002012F016FEA678012E14D10026FF
:101810002677A670FFF76AFA284611F021FCA37814
:1018200066867BB9BDE8F84011F0C0BEA0703046B6
:1018300025F0D5FD3846C3E72EB1284611F010FC3F
:1018400000236386F8BDFFF751FA284611F008FC23
:101850006686F7E7684B002060550020844B002027
:101860008B4BF0B51B888B4C8B4D63848B4B85B0B9
:101870001B68E3628A4B1B8823848A4B1B68A36224
:101880002B88DB0700F1FC8001210846FFF740F9B7
:101890000523854A04F1100104F10800AB7012F031
:1018A000F7FD28B1F522814981480DF073FAFEE772
:1018B000A3682BB9F7227D497D480DF06BFAFEE74E
:1018C0007C4823F0DDF870A3D3E90023CDE90023A1
:1018D0004FF0FF324FF0FF33A06823F080F94FF450
:1018E0008811A06813F0D0F8014630B140F20F1211
:1018F0006E496F480DF04EFAFEE76F4B1B78012BD7
:101900000ED16E4AA06812F091FEA06813F046F95D
:10191000E0B140F21B12654965480DF03BFAFEE765
:10192000674E316831B94FF48F72604960480DF0ED
:1019300031FAFEE7614AA06812F078FE33689B68CE
:1019400023B1DB6913B15B7803B1E373FFF704FEE6
:101950000146E080A06812F0E5FF064630B140F293
:101960002D12524952480DF015FAFEE7554B012051
:101970001B78C3EB431203EB8203DB00AB84FFF75E
:101980005BFEA7680FF0A2FF32460146384623F0FF
:10199000B6FA064630B140F23312444944480DF0DD
:1019A000F9F9FEE740F203530427AB81464BAF73CE
:1019B0001B78EB73FFF732FE00EB80039B002B825A
:1019C000FFF72CFEC00068823946A0686E6123F0E4
:1019D000AEF830B14FF4A172344935480DF0DAF960
:1019E000FEE73A46A06803A923F034F9042806D09C
:1019F0004FF4A3722D492E480DF0CCF9FEE703A950
:101A0000012010F033F90BF069FA08224FF0FF3192
:101A1000A06823F0F5F830B140F24F122349244872
:101A20000DF0B8F9FEE713F039FA30B140F2551273
:101A30001E491F480DF0AEF9FEE7FFF7D9FA68B16D
:101A40001EF097FD0146A06823F05FF930B140F227
:101A50005912164916480DF09DF9FEE7A468FFF7E4
:101A60007BFD1A4B014603F10C02204622F0EBFFEE
:101A700030B14FF4B0720D490D480DF08BF9FEE70F
:101A800005B0F0BDAFF300800A0020FF4203000064
:101A9000B09B020860550020684B0020B49B0208F0
:101AA000B29B0208B89B0208390B0008B9980208DB
:101AB00084960208690345ECB94B00204D0B0008E1
:101AC000845400200557002004570020E4980208A1
:101AD00008B5044B986823F03DF8034BB3FBF0F0D6
:101AE00080B208BD6055002040420F002DE9F04350
:101AF0008C4D87B02B889B0706D440F24C728A49E4
:101B00008A480DF047F9FEE7AB78033B012B06D975
:101B100040F24E72844985480DF03CF9FEE76A6850
:101B200032B940F25172804980480DF033F9FEE736
:101B30007F4E2C88F77B14F0200418BF4FF47A7482
:101B40004FEA1718FFF754FA00287DD0B8F1020FBA
:101B50000AD0A8F10303022B74D940F265727249CE
:101B600072480DF017F9FEE7032795F8303008EBBF
:101B7000C80898446F4B104603EB4803B3F81C8029
:101B800022F01CFB4FF4FA534343B3FBF8F37822E3
:101B90007733B3FBF2F31F44C7EB0717AB78FF00B3
:101BA000BFB204F5347417FA84F4042BA4B203D141
:101BB00007F6E8072744BCB2D5F8048022F0F3FA10
:101BC0000746686822F0FAFA074422F012FBBFB217
:101BD0003F1A22F0E8FA404410F02CF87378C0F372
:101BE00040198DF80C30544BBFB2CDE904340024B9
:101BF00022F00BFB009402463B464146B06823F0BE
:101C000036F9287EB278737812FB00F29342C4BF93
:101C10009B1ADCB22B88F18813F0200FB068B180DA
:101C20008DF80C4003AB76D000934A46434B22F02C
:101C3000FFFE002873D040F224723B493B480DF070
:101C4000A9F8FEE7062790E7FFF7E0F9002846D05D
:101C5000384B07F00F0708EBC801394403EB410389
:101C60001046B3F81C9022F0A9FAB8F1000F2CD05E
:101C7000B8F1010F2CD14FF00408400080B2F319E5
:101C800093F834304BB14FF4FA52023303444344D7
:101C90009BB25343B3FBF9F39CB2AB78042B8BD1CB
:101CA000FFF7BCFC374497F834308146053398443D
:101CB000FFF70EFF0C2308FB00F003FB09F909EB0B
:101CC000C009A1441FFA89F476E74FF00208D6E76D
:101CD00040F28672144915480DF05CF8FEE7FFF7F4
:101CE000F7FE0746686822F069FA09307843AB7856
:101CF00004EBC000042B84B27FF45EAFFFF78EFCD0
:101D00000746FFF7E5FE602358430C2303FB07005B
:101D1000204484B250E74A4622F088FE89E707B0A3
:101D2000BDE8F083684B0020B99802088496020849
:101D300060550020E498020820A10700744B0020A1
:101D4000F8B5494C258815F0020506D040F2751209
:101D5000464947480DF01EF8FEE7257725F044FB7D
:101D6000238806465A070CD5424B986823F0B4F8EE
:101D7000E36AC01AA38C984203D929460420FEF7CF
:101D8000C7FE304625F02BFBA778022F37D125F070
:101D90002BFB2388064613F0040507D036480FF0C6
:101DA00015FE3046BDE8F84025F019BB25F017FBBD
:101DB000606811F035FC20B1A570BDE8F840FEF771
:101DC000CFBF25F011FB6668054622F0ECF93044E0
:101DD0000FF030FF10F0200F0CBF0323042301216C
:101DE0003846A370FEF794FEFFF780FE284625F0E4
:101DF000F6FA01210846BDE8F84012F01BBB042F9B
:101E000027D11C4B1B7BFF2B2DD1237EF3B125F05B
:101E1000EBFA238805465B0704D517480FF0D6FD7B
:101E20002846BFE725F0DBFA237E013B237625F029
:101E3000DBFA044601210220FEF76AFEFFF756FE98
:101E4000204625F0CCFA01210820D4E74020A370D9
:101E5000B3E7012F07D10023A370064B986812F057
:101E600055FB3120A9E7F8BD684B0020B99802085E
:101E70008496020860550020844B002038B501216B
:101E800004461020FEF744FE064B9D68FFF7C6FB94
:101E9000012200FB04F1044B284622F0B2FD002091
:101EA00038BD00BF60550020850D000808B50A4BFD
:101EB0001B88DB0606D44FF46172084908480CF011
:101EC00069FFFEE710200021FEF722FE054B98680F
:101ED000BDE8084022F0A3BD684B0020B998020875
:101EE000849602086055002038B50E4D688E30B9D2
:101EF00040F291320C490D480CF04CFFFEE725F002
:101F000023F90446688E25F03DF9811F2144012004
:101F10000FF0ACFE064B0446986822F0DDFF001B74
:101F200038BD00BF684B0020B998020884960208AB
:101F30006055002010B5084C636833B94FF46872DF
:101F4000064907480CF026FFFEE7064B986822F08A
:101F5000C3FFA36AC01A10BD684B0020B9980208DD
:101F6000849602086055002038B50A4D688E30B955
:101F700040F2AA32084909480CF00CFFFEE725F0B0
:101F8000E3F80446688E25F0FDF8044414F8020CCA
:101F900038BD00BF684B0020B9980208849602083B
:101FA00038B50A4D688E30B940F2B932084909484F
:101FB0000CF0F0FEFEE725F0C7F80446688E25F029
:101FC000E1F8044414F9070C38BD00BF684B002049
:101FD000B99802088496020838B50A4D688E30B95F
:101FE0004FF47272084909480CF0D4FEFEE725F060
:101FF000ABF80446688E25F0C5F8044414F9010CCA
:1020000038BD00BF684B0020B998020884960208CA
:10201000024B1888C0F3C010704700BF684B002007
:1020200030B585B005466C460D4B0FCB84E80F00EC
:102030000DB12B6800930B4B21460022986812F0DB
:10204000C1FC044630B140F2E632074907480CF0C3
:10205000A1FEFEE7FEF7B4FD204605B030BD00BF8F
:102060006C99020860550020B9980208849602080D
:1020700030B5154D87B004460DF10701A86822F070
:10208000B0FD30B140F2F732104911480CF082FE39
:10209000FEE79DF80720531EDBB2FD2B0FD90294FB
:1020A000FF2A00D10394A86802A922F082FE40B161
:1020B00040F20442054906480CF06CFEFEE7012A96
:1020C000EFE707B030BD00BF60550020B9980208A7
:1020D0008496020808B5064B986822F079FE30B164
:1020E0004FF48262034904480CF054FEFEE708BD39
:1020F00060550020B9980208849602080122024B1C
:102100001146986822F078BC605500207047F8B5F9
:10211000064604200D4622F028F8030622D5124F69
:10212000BC78FCB926B1012E17D002242046F8BD98
:1021300001262846FFF72CFA0028F6D00B4800238A
:1021400032462946806822F075FC40B14FF48A621D
:10215000074908480CF01EFEFEE72646E9E706237D
:10216000BB70E3E77024E1E7684B00206055002076
:10217000B998020884960208042010B521F0F5FFF2
:10218000030611D5094CA378062B0DD1084B98688E
:1021900022F052FC30B140F26A42064906480CF087
:1021A000F9FDFEE7A07010BD7020FCE7684B002031
:1021B00060550020B9980208849602081FB50446AD
:1021C00001A812F0C7FB9DF80D3053B14CB1064B7E
:1021D0002078617818700020A27859709A7004B045
:1021E00010BD0220FBE700BF605500201FB504466C
:1021F00001A812F0AFFB9DF80D3053B14CB1002097
:10220000054B1A7822705A789B786270A37004B0DC
:1022100010BD0220FBE700BF60550020FFF7CEBFD6
:10222000FFF7E4BF0348044B834202D0034B03B1E2
:10223000184770471C5700201C5700200000000062
:10224000064B0749C91A891048BF0131491003D00C
:10225000044B0BB101481847704700BF1C570020C2
:102260001C5700200000000010B5064C237843B92D
:10227000FFF7D8FF044B13B10448AFF300800123EC
:10228000237010BDF85100200000000058D502084E
:1022900008B5054B1BB105490548AFF30080BDE803
:1022A0000840FFF7CDBF00BF00000000A0220020C3
:1022B00058D50208A3F5803A704700BF174B002B92
:1022C00008BF134B9D46FFF7F5FF00218B460F46D5
:1022D0001348144A121A23F035FB0E4B002B00D082
:1022E00098470D4B002B00D0984700200021040098
:1022F0000D000D48002802D00C48AFF300801BF001
:102300000BF8200029001BF0ECFC1AF08BFC00BF3E
:102310000000080000000000000000000020002075
:10232000002000206052002000000000000000009B
:1023300000B583B0074B0122DA60064B5B6913F0EE
:10234000400FFAD1034968461DF077FF009803B0AB
:102350005DF804FB0040005910B582B004461BF044
:10236000C8FB08B902B010BD00230093ADF80430DB
:10237000074B1B88ADF80230ADF8044041F6FF73FF
:10238000ADF800306946042020F0A8FBEAE700BF62
:102390003451002008B513460A4601460448006837
:1023A00003F044FE00B908BD02480CF0F3FCFAE764
:1023B00018550020E87A02080A2800D9704730B57D
:1023C00083B004460D466B4601AA014610480068DA
:1023D00003F092FD08B9019B23B10E480CF0DAFC22
:1023E00003B030BD009B2A4621460948006803F02F
:1023F000C3FC40B9214608480CF0CCFC29460748EC
:102400000CF0C8FCECE7214605480CF0C3FCE7E7FC
:1024100018550020F07A0208147B0208307B02086D
:10242000387B02080A2800D9704710B504460146D7
:10243000064B186803F0C8FE20B9214604480CF08A
:10244000A9FC10BD03480CF0A5FCFAE718550020C4
:102450005C7B0208787B020838B51B4C637802224B
:1024600062F383036370DBB26FF300036370DBB26C
:1024700062F387136370DBB2012565F305136370A4
:10248000A3786FF30713A370DBB265F38303A37024
:10249000DBB243F00303A370E0700C4B4FF4FA720D
:1024A0001A80002128461BF0CBFC2A460021284632
:1024B00001F024FC20681BF047FB41F28831044BFB
:1024C00018680FF08EFA38BDBC220020365100206B
:1024D0004823002008B5294B1B78012B29D0022B5B
:1024E00039D003B108BD264B1B78264A1278B3EBCE
:1024F000420F05DA244A127C02F01802102A0DD18C
:102500001F4B00221A70204B197CC1F340111F4849
:102510001BF092FC1E4824F0CDFAE3E70133184A81
:102520001370194B197CC1F3401118481BF074FC4F
:10253000D8E7134B1B78134A1278B3EB420F03DA38
:1025400001330F4A1370CDE70D4B00221A7010486B
:1025500024F0B0FAC6E70A4B1B780A4A1278B3EBAC
:10256000420F03DA0133064A1370BBE7044B002223
:102570001A70074824F09EFAB4E700BFF951002012
:10258000FB510020FA51002010230020848D020806
:10259000C0220020037823BB70470133022B22DCCA
:1025A00003EB4302104911F82220002AF5D100B5AF
:1025B0000A4603EB430102EB810C4FF0000E8CF84E
:1025C00001E04FF0010C02F821C002EB8103016829
:1025D0004268C3F80210C3F8062002895A815DF8E8
:1025E00004FB0023DAE77047E022002000B583B047
:1025F0008C461146074B1870074B83F800C0012327
:10260000019300230093054A054825F035F903B0EE
:102610005DF804FBF9510020FA510020D524000890
:10262000C022002010B50024094B1C80094B197CE6
:10263000C1F3401108481BF0FFFB1BF0C2FA214612
:1026400001201BF00BFC054B1B681C7010BD00BF6C
:102650003651002010230020848D020848230020DA
:1026600008B5002104481BF0C8FA00F0C5FF034B71
:102670001B6800221A7008BD042300204423002098
:1026800008B501280FD0022819D000B108BD124B9F
:10269000197CC1F3401111481BF0CEFB0021012031
:1026A0001BF0DCFBF2E70C4B197CC1F340110B482B
:1026B0001BF0C2FB002101201BF0DCFBE6E7064B10
:1026C000197CC1F3401105481BF0B6FB0021012025
:1026D0001BF0D0FBDAE700BF10230020848D020836
:1026E00038B5874B1A78292A00F098802B2A49D0D0
:1026F000282A04D0834B1B6800221A7038BD194663
:102700005C799A725B788A7843EA0223CA7843EA52
:1027100002430A7943EA026341F8143F0422052088
:10272000FFF738FE012C11D0023C0E2C21D8DFE837
:1027300004F00D20082020200D2020202020202023
:102740000D006F4B1A7C6FF3C4021A746E4C012299
:1027500021460020FFF71EFE642203210020FFF720
:1027600045FF002304F8053C684B18680FF02EF96C
:10277000C0E7634B1A7C012060F3C4021A74FFF7B0
:102780007FFFE3E75E4B9978D87841EA002118791A
:1027900041EA0041587941EA00619A725A785A77C1
:1027A0005B698B420BD0012A32D0C8220221002063
:1027B000FFF71CFF554B18680FF008F99AE7012A3C
:1027C00016D0002AF6D14E4C207CC0F3C100FFF792
:1027D00057FF4F4B1B6800201870C8220221FFF7DB
:1027E00005FF012204F11D010420FFF7D3FDE1E7FD
:1027F000434CE07BFFF730FEC82201210020FFF7A9
:10280000F5FE012204F11D010420FFF7C3FDD1E70D
:10281000C82201210020FFF7E9FECBE7384B9A726E
:102820005A7B022161F383025A73D2B26FF3000222
:102830005A73D2B261F387125A73D2B2012161F393
:1028400005125A739A7B6FF307129A73D2B261F32F
:1028500083029A73D2B242F003029A735878D87303
:1028600099781A7C61F3C4021A74D3B203F0180386
:10287000102B3BD0224BD9781A7C61F345121A7485
:102880001F4B1B7C13F0180F36D01D4C2079214DA7
:1028900028701BF03CF9204B4FF4FA721A8000218B
:1028A00001201BF0CDFA01220021104601F026FA8A
:1028B000E0681BF049F9012204F110010020FFF744
:1028C00069FD012204F10F011046FFF763FD0122AB
:1028D00029460220FFF75EFD642202210020FFF757
:1028E00085FE0A4B18680FF071F803E7044BD2B26B
:1028F0006FF345121A74C3E7FFF7AEFDC5E700BFDB
:1029000010230020502300202023002054230020E7
:1029100048230020FC5100203651002030B583B000
:10292000284B5B7F23B9274B1B7C13F0180F3ED13C
:10293000002101201BF09EFA224C227F9DF80430DA
:1029400062F301038DF80430627F9DF8043062F376
:1029500082038DF804301C4816220270042343724F
:1029600000254570194B1B8883701B0AC370A27227
:1029700029461BF042F94FF4FA71154B18680FF015
:1029800030F800F039FE217CC1F3401111481BF0F2
:102990004BFA114BC8221A804FF4FA610F4B18689A
:1029A0000FF01FF80E4B1B681D7003B030BD0C4BB1
:1029B0001B6800221A70034B187CC0F3C100FFF79C
:1029C0005FFEF2E71023002004230020B82200203D
:1029D00044230020848D0208365100204823002023
:1029E0004C23002070B908B5074B1B889BB203B17C
:1029F00008BD002101201BF03DFA044B18680EF0C1
:102A0000E5FFF5E7704700BF365100204C2300205A
:102A100008B5044A1BF081F8034B18680EF0D6FF86
:102A200008BD00BF102300205023002038B5044605
:102A300020F060F8A04201D8012038BD05460320EF
:102A400001F042FB0028F8D01BF03FFA1BF03EFAE1
:102A50002B4622460349044800681EF082FE0020EF
:102A6000EBE700BF907B02088027002030B583B0E1
:102A700004468368C26853F822301D882846FFF751
:102A8000D5FF08B903B030BD00230093ADF8043082
:102A9000164B1B88ADF80230ADF804506368E2684D
:102AA0009B1A012B1DDDA368013253F822301B88CD
:102AB000ADF8003020F00EF86946032020F00EF843
:102AC0000446032001F000FB0028DBD01BF0FDF9D9
:102AD0001BF0FCF922460649064B18681EF041FE21
:102AE000D0E740F2FF13ADF80030E3E738510020A3
:102AF000C87B02088027002030B583B00446836875
:102B0000C26853F822301D882846FFF78FFF08B9A6
:102B100003B030BD00230093ADF80430154B1B8883
:102B2000ADF80230ADF804506368E2689B1A012BDF
:102B30001BDDA368013253F822301B88ADF800304A
:102B4000694604201FF0CAFF0446032001F0BCFAC6
:102B50000028DDD01BF0B9F91BF0B8F92246064970
:102B6000064B18681EF0FDFDD2E740F2FF13ADF8EA
:102B70000030E5E738510020E87B0208802700207C
:102B800030B583B004468368C26853F822301D888C
:102B90002846FFF74BFF08B903B030BD0023009370
:102BA000ADF80430154B1B88ADF80230ADF8045079
:102BB0006368E2689B1A012B1BDDA368013253F89E
:102BC00022301B88ADF80030694602201FF086FFD6
:102BD0000446032001F078FA0028DDD01BF075F9D7
:102BE0001BF074F922460649064B18681EF0B9FD21
:102BF000D2E740F2FF13ADF80030E5E7385100208E
:102C0000FC7B02088027002030B583B08368C2684F
:102C100053F822301C780023019343689B1A012B40
:102C200019DD01AA01211EF069F801469DF8040092
:102C30001FF04CFF054680B1022001F045FA60B15B
:102C40001BF043F91BF042F92A460649064B186867
:102C50001EF087FD01E01FF03DFF20461FF042FF00
:102C600003B030BD187C02088027002010B5034651
:102C70008168C26851F82200B0F900001A4C208027
:102C80005B689B1A012B0FDD013251F8223093F95A
:102C90000010003918BF01211FF0CDFEA0B903209C
:102CA00001F012FA10B910BD0021F5E71BF00DF983
:102CB0001BF00CF90D4B1C681FF0C1FE02460C49BD
:102CC00020461EF04EFDEEE7012001F0FDF9002840
:102CD000E9D01BF0FAF81BF0F9F80649034B186825
:102CE0001EF03FFDDFE700BF3851002080270020A5
:102CF0007C7C0208907C020808B51FF090FE03203F
:102D000001F0E2F900B908BD1BF0DFF81BF0DEF8B6
:102D10000249034B18681EF024FDF4E7A87C020862
:102D20008027002008B58368C26853F822301A88CB
:102D3000094B1A80032001F0C7F900B908BD1BF048
:102D4000C4F81BF0C3F8044B1A880449044B1868F4
:102D50001EF007FDF2E700BF80560020C87C020885
:102D60008027002008B5024B18680EF02FFE08BD22
:102D7000542300202DE9F04186B01FF06CFE04467C
:102D8000894B1B7813F0020F2CD0884E13F0010FE3
:102D90002AD0864F13F0040F28D0DFF810820320CA
:102DA00001F092F928BB032001F08EF958BB0320F3
:102DB00001F08AF9002835D1032001F085F90028B7
:102DC0003ED1032001F080F9002847D1032001F013
:102DD0007BF900285ED1032001F076F9002867D145
:102DE000002471E0724ED1E7714FD3E7DFF8C08164
:102DF000D5E71BF06AF81BF069F86E496E4B18684E
:102E00001EF0AFFCCFE71BF060F81BF05FF86A4BD9
:102E10001D6805F0E9FB02460B46684928461EF08E
:102E2000A0FCC4E71BF051F81BF050F8624B1D6882
:102E30001FF0E9FD0246624928461EF092FCBBE7FE
:102E40001BF043F81BF042F85B4B1D681FF00FFEB0
:102E500002465C4928461EF084FCB2E71BF035F8B8
:102E60001BF034F8E279A37961792079E57894F858
:102E700002C094F801E024780594CDF810E0CDF874
:102E80000CC00295019000914F494B4800681EF01C
:102E900068FC9BE71BF019F81BF018F8464B1C6800
:102EA0001FF0DDFD0246494920461EF05AFC92E71C
:102EB0001BF00BF81BF00AF845493F4B18681EF051
:102EC00050FC8DE70134E4B2072C12D8032001F046
:102ED000FBF80028F6D01AF0F8FF1AF0F7FF364B8F
:102EE0001D681FF0B8FD025D3A4928461EF039FC06
:102EF000E8E7032001F0E8F898B9032001F0E4F8CE
:102F0000C8B9032001F0E0F818BB032001F0DCF899
:102F100068BB032001F0D8F8002836D106B0BDE820
:102F2000F0811AF0D2FF1AF0D1FF2B49224B18681A
:102F30001EF017FCE1E71AF0C8FF1AF0C7FF1E4B9E
:102F40001C681FF090FD0246244920461EF009FC33
:102F5000D7E71AF0BAFF1AF0B9FF174B1C681FF039
:102F600066FD02461E4920461EF0FBFBCDE71AF027
:102F7000ACFF1AF0ABFF104B1C681FF060FD02465F
:102F8000184920461EF0EDFBC3E71AF09EFF1AF029
:102F90009DFFCDF800803B46324613490648006845
:102FA0001EF0DFFBBAE700BFF6560020307C0208B7
:102FB000387C0208E47C020880270020EC7C0208B0
:102FC000087D0208247D0208407D0208647D020815
:102FD000807D0208947D02082C7B02089C7D0208FB
:102FE000B87D0208D07D0208E87D020830B583B0C4
:102FF0008368C26853F822301C7801A920461FF06C
:1030000012FD88B9032001F05FF808B903B030BDA4
:103010001AF05BFF1AF05AFF019B22460B490C483D
:1030200000681EF09EFBF1E70546012001F04CF818
:103030000028EBD01AF049FF1AF048FF2A4605494C
:10304000034B18681EF08DFBE0E700BF207E0208EE
:10305000802700203C7E020870B58268C36852F861
:1030600023100C88013352F823301D78294620465E
:103070001FF028FD80B9032001F026F800B970BDCB
:103080001AF023FF1AF022FF2B4622460B490C4868
:1030900000681EF066FBF2E70646012001F014F816
:1030A0000028ECD01AF011FF1AF010FF3246054943
:1030B000034B18681EF055FBE1E700BF607E020875
:1030C00080270020907E020870B582B08368C268B5
:1030D00053F822301B78134A137013F0020F0ED0EE
:1030E000114C13F0010F0CD00F4D13F0040F0AD048
:1030F0000D4E032000F0E8FF38B902B070BD0B4C54
:10310000EFE70A4DF1E7094EF3E71AF0DEFE1AF099
:10311000DDFE00962B4622460549064800681EF053
:1031200020FBEAE7F6560020307C0208387C0208D3
:10313000447C02088027002030B58FB004460D463D
:1031400068461AF079FD0DF1200EEC46BCE80F0040
:10315000AEE80F009CE803008EE8030008A9464B88
:10316000186820F0BDFA10F1880F46D168461AF0B1
:1031700063FD0DF1200EEC46BCE80F00AEE80F0039
:103180009CE803008EE803004FF41053ADF82030A4
:103190008023ADF822304FF44073079307A81AF04C
:1031A0005BFD079B0A93354B0B93334B1A68099BC6
:1031B0000D9213F0FF0F04D123F0FF0343F001033E
:1031C0000993012309932C4B2A46214608A820F095
:1031D000A4FA044610BB032000F076FF90B9264BFA
:1031E00018681FF018FC0546002831D1032000F0B4
:1031F0006BFF044610BB01242FE01F4B186820F022
:1032000046FAB3E71AF061FE1AF060FE1A4B1A682C
:103210001B491C4B18681EF0A4FAE0E7032000F0DD
:1032200053FF0028DBD01AF050FE1AF04FFE224662
:103230001549144B18681EF094FAD0E71AF045FEB1
:103240001AF044FE11490F4B18681EF08AFA04E088
:10325000032000F039FF044610B920460FB030BDFE
:103260001AF033FE1AF032FE2A460949054B186857
:103270001EF077FA0024F0E7302300200001440517
:10328000C07E020880270020F07E0208147F02081A
:10329000347F020800B583B00021019101AA1DF01E
:1032A0002DFD019910290ED0032000F00DFF60B113
:1032B0001AF00BFE1AF00AFE10220549054B186899
:1032C0001EF04FFA01E0FFF737FF03B05DF804FB93
:1032D000547F020880270020022900D0704708B5DB
:1032E000024B186808B119F0B7FC08BDAC4B0020C0
:1032F00010B588B020F010FB01241E4B1C6002A802
:103300001AF0C1FC02A9204620F0EAF910F1880F5A
:103310000BD0184B18681FF07EFB1FF0CFFB16492F
:10332000164808F0C9FD08B010BD124B1A68039B7F
:10333000079213F0FF0F03D123F0FF0323430393FE
:103340000F4B05934FF44073019301A81AF0ABFCA7
:10335000019B04934FF41053ADF808308023ADF86F
:103360000A3001230393034B1022064902A820F0E0
:10337000D4F9CEE7302300207C54002034230020F1
:10338000000144056C54002010B582B000230422D3
:103390000121084604F040FD0123042206210020FB
:1033A00004F03AFD002301221946104604F034FDD2
:1033B000012001900024009403462246214604F097
:1033C000C1FC0649204601F0E5FE1B2007F008FF7E
:1033D0001B201EF071F902B010BD00BFC5DC010852
:1033E00070B5012009F012FD294C7823E373237C8A
:1033F00043F020032374DBB26FF3C4032374254D21
:1034000096232B700226267704F110010020FEF788
:10341000D3FF04F10F010120FEF7CEFF294630460D
:10342000FEF7CAFF04F11C010320FEF7C5FF04F1FB
:103430001D010420FEF7C0FF04F114010520FEF772
:10344000BBFF15490620FEF7B7FF0323237700F0E3
:10345000B1FC00F0EBFFFFF797FF1AF037FC28787C
:103460001AF055FB00F002FC237FB3420DD00B4B4A
:1034700001221A700A4B1B6800221A704FF4FA716D
:10348000084B18680EF0ADFA70BD03222277EEE704
:1034900010230020FC510020B8220020FD51002004
:1034A000402300205423002010B50F490F4809F095
:1034B000B3FB0F490F4809F0AFFB0F490F4809F064
:1034C000ABFB0F490F4809F0A7FB0F490F4809F064
:1034D000A3FB0F4C0F49204609F09EFB6421206896
:1034E0000EF07FFA10BD00BF5936000854230020AB
:1034F000E1260008502300201D2900084C2300204D
:1035000025260008482300206126000844230020C7
:1035100040230020E133000870B50020FEF782FF51
:103520000120FEF77FFF0220FEF77CFF0320FEF75D
:1035300079FF0420FEF776FF0520FEF773FF194C94
:103540007820E073237C43F020032374DBB26FF315
:10355000C4032374FEF780FF134E962030701AF0D8
:10356000D6FA002525776577012204F11C01032096
:10357000FEF710FF012204F11D010420FEF70AFFEF
:10358000012204F110012846FEF704FF0122314612
:103590000220FEF7FFFE012204F10F011046FEF7A4
:1035A000F9FE70BD10230020FC51002008B502294F
:1035B00012D80E4B1B7F13B1022B07D008BD002081
:1035C000FEF7CAFE0A481AF06DFFF7E7C82202218B
:1035D0000020FFF70BF8F1E7064B1B6800221A707A
:1035E000FFF79AFF1AF08FFAE8E700BF10230020D8
:1035F000848D02084823002008B51AF071FA82B2BF
:1036000022B1124B1B883BB9104B1A8002220F4982
:103610000620FEF7BFFE08BD82B207EE902AF8EE44
:10362000E77A9FED0B7A67EE877A07EE103AB8EEED
:10363000C77ADFED086A27EE267A77EE877AFCEE06
:10364000E77A024B17EE902A1A80DFE7B8220020B3
:10365000CDCCCC3D6666663F10B582B0FFF7CCFF9F
:103660005A4B1B7F022B2CD0032B7FD08BB1002118
:1036700057481AF0C2FA4FF4FA71564B18680EF018
:10368000B0F9FFF7B9FF544B1B6800221A7002B063
:1036900010BD9DF80430012262F304038DF804305C
:1036A0009DF804306FF346138DF80430484B152213
:1036B0001A70022159729DF804105970434B9A7286
:1036C000D5E79DF8002063F301028DF800203F4903
:1036D0004A7F9DF8003062F382038DF800300B7C46
:1036E000C3F3C1009DF8002060F3C4028DF80020F0
:1036F000C3F340129DF8003062F345138DF800309B
:103700008B7A282B17D02B2B23D0292BAFD1304BE2
:1037100029221A7006225A729DF800205A702F4AE8
:1037200012889A70120ADA70284AD27B1A712C4ACF
:1037300012785A719BE7264A282111700421517290
:103740002249C97A5170254909889170090AD170B6
:10375000D9E71F4A2B2111700421517200215170A9
:103760001E4909889170090AD170CEE71D4B1B785C
:10377000BBB1164B02221A77144B5B7F012B14D07E
:10378000124B5B7F002B7FF472AF104B1B7C13F04E
:10379000180F12D00D4B187CC0F3C100FEF770FF5C
:1037A00065E70A4B00221A77E6E7084CE0681AF052
:1037B000CBF9E07BFEF750FEE2E7044CE0681AF03C
:1037C000C3F9E07BFEF748FE51E700BF102300205D
:1037D000042300204423002054230020B82200208A
:1037E000FC510020FE510020014B1878704700BFAB
:1037F00000520020F8B506460D468B681B78152B45
:1038000001D0002436E0334B1B7F002BF9D1002878
:10381000F7D1304C207CC0F3C100FEF731FF02230A
:10382000237701276777237C6FF3C40323743A4619
:1038300004F11C010320FEF7ADFD3A4604F11D0121
:103840000420FEF7A7FD3A4604F110010020FEF720
:10385000A1FDD6E704EB44021F4B03EB82035B7828
:103860000A2B1DD11C49900001EB820300220A544F
:103870005A700134022C21DCAB68197804EB440245
:10388000154B03EB82039B789942F2D1002EE1D1D4
:103890001149900001EB820300220A545A70E8E7B4
:1038A0000D4A04EB440C02EB8C00012102F82C10B1
:1038B0000B44437002301AF0A0F9DAE7054B9A7A0C
:1038C000AB681B789A4200D0F8BD044B1B680022FD
:1038D0001A70F9E710230020E02200204423002082
:1038E00010B5903806283AD8DFE800F0041A2439D9
:1038F000392B320001241D4B1C70C82202210020EC
:10390000FEF774FE1A4B1C701A4B1B7F8BB91A4BB7
:103910001B7873B10A21194B18680EF062F808E0A1
:103920000020124B1870124B187064220521FEF70C
:103930005DFE10BD4FF47A7202210020FEF756FEA4
:10394000F7E74FF47A7202210020FEF74FFEF0E70E
:103950004FF47A7202210020FEF748FEE9E74FF4A7
:103960007A7202210020FEF741FEE2E7FE510020BC
:103970000052002010230020FD510020542300207D
:1039800008B523F06DFF074B1B782BB1064B1B6866
:10399000C01A064B984200D808BD05481AF082FDAF
:1039A000FAE700BFFF5100203C230020A086010061
:1039B000848D020808B5024B1B6803B1984708BD07
:1039C0008823002008B5024B5B6803B1984708BD07
:1039D0008823002008B5024B9B6803B1984708BDB7
:1039E0008823002008B5024BDB6803B1984708BD67
:1039F0008823002008B5024B1B6903B1984708BD16
:103A00008823002008B5024B5B6903B1984708BDC5
:103A10008823002000B585B0094B1868094B186051
:103A2000094B0A4A13600A4A01920A4A1268029232
:103A3000039301A91DF084F905B05DF804FB00BFF4
:103A4000A0540020CC31002094540020C831002024
:103A50004C8D02085C26002008B5024B18681DF04A
:103A600083F908BDA054002038B507F0EFFB0446E9
:103A7000064D2B68D3F8B00207F0DCFB28681DF078
:103A80008DF9204607F0D6FB38BD00BFA0540020BA
:103A90000023062073B1704754B224B9013353B1E7
:103AA0005DF8044B70470228F8D008680A4908609E
:103AB0001046F3E710B4094A52F823100A7A022A92
:103AC000EAD9032AEAD1441EE4B2012CE6D90868F7
:103AD000014908601046E1E75C260020A45400205C
:103AE00010B5A2B02024224600211AA821F02AFFF6
:103AF000304B1A934FF4E1331C9302238DF8753049
:103B000003238DF876302C4B1E9306238DF87E30E0
:103B100009238DF880300021159116911791189185
:103B200019914FF480131593244B1993109111910F
:103B3000129113911491224B1093224B14933C2217
:103B400001A821F0FFFE0DF1040E0DF1540CBCE8AC
:103B50000F00AEE80F00DCF80030CEF800300DF1B9
:103B6000180E0DF1400CBCE80F00AEE80F00DCF8B9
:103B70000030CEF80030144B0B930C9401238DF8D9
:103B800034308DF83530114B0F93114B1AAA01A91F
:103B9000104807F007FC04469DF837303BB1002180
:103BA0004FF4E1301AF0F6FA204622B010BD03219E
:103BB000F6E700BF28910208189102083C00015B5B
:103BC000010010004400015B60260020B854002072
:103BD000802600203C27002008B531B9084B186822
:103BE000036823B107F0F4FF01E0012900D908BD03
:103BF000034B18680368002BF9D01EF094F8F6E721
:103C0000CC54002008B50349034808F055F9FFF7E4
:103C100067FF08BDD05400206427002008B5024883
:103C20001DF0E5FD08BD00BF3C27002008B5024897
:103C30001DF0DDFD08BD00BF3C27002008B5024B8C
:103C40005A6A1868904708BD3C27002008B502480A
:103C50001AF024FB08BD00BF6C8D020808B50248AD
:103C60001AF01BFC08BD00BF848D020870B590B02F
:103C700001212A2003F0D6F800250D950E950F9509
:103C80001B4E2A461B49304604F050F98DF8390086
:103C90000DF10C0C184C0FCCACE80F000FCCACE8BD
:103CA0000F0094E803008CE803004FF4966306933A
:103CB0000195029503238DF806308DF806500123F7
:103CC0008DF800308DF801508DF802508DF80350BA
:103CD00010238DF8013003AA0DA9304604F066F9CF
:103CE0006A4601A930461CF069FA10B070BD00BFE9
:103CF0000040005940420F009C8D020842B9C0B2FA
:103D000001228A4000EB40000001074B1A50704727
:103D1000012A00D07047C0B201228A4000EB400067
:103D20000001024B1A50F5E740E0035040D0035029
:103D300000B583B00B460549097801910092002235
:103D400001211EF0ACFE03B05DF804FBF656002026
:103D500070B5044606790568FA2022F08FFF854287
:103D600005D2134B03EBC60300221A7170BD256800
:103D70004FF47A7022F082FF854205D20C4B03EBA0
:103D8000C60301221A71F1E7246840F6B83022F028
:103D900075FF844205D2064B03EBC60302221A715B
:103DA000E4E7034B03EBC60303221A71DEE700BF0F
:103DB0007827002038B5114B18681AF04DF90546E0
:103DC00098B9002408E00E4B53F824001AF06DFA5D
:103DD00001280CD00134E4B2002CF4D0094B0022AD
:103DE0001A70064B18681AF047F9284638BD23F0B8
:103DF00037FD054B43F83400ECE700BF7427002083
:103E0000D8540020F75600207827002000B97047CA
:103E100030B583B00446104D104928681DF0A1FC50
:103E20001AF053F81AF052F80D4B00934FF48D73BB
:103E30000C4A0D4928681DF094FC23460B4A0C4996
:103E400028681DF08EFC204600F086F90949286894
:103E50001DF087FC00BEFDE7802700202C7B0208B8
:103E6000748E0208C48D0208348E0208408E020847
:103E7000488E0208608E020800B589B000230BB19D
:103E8000002312E00022244941F823202349CA5488
:103E90000133DBB2F3E7224A02EBC30104200871CD
:103EA000002142F833100133DBB2002BF3D00023A2
:103EB00001930293039304930593069307939DF84C
:103EC000043043F001038DF80430DBB243F0080303
:103ED0008DF80430DBB243F020038DF80430114B31
:103EE0000293114B039302238DF810304FF480633B
:103EF00005930523ADF818300423ADF81A300823D4
:103F000007930A4901A800F045F910B909B05DF816
:103F100004FBFFF77BFFF9E7702700206C270020E8
:103F200078270020313F00089DDE0108742700201B
:103F300010B584B001AA02A9124B18681AF0DEF875
:103F4000E0B902A8FFF704FF00242CB10D4B18685C
:103F50001AF092F804B010BD0B4B03EBC4031979AF
:103F6000042902D10134E4B2EFE72046FFF71EFB3B
:103F7000054B03EBC40304221A71F3E7FFF746FF76
:103F8000E8E700BF74270020782700201D4B1B782E
:103F9000002B36D170B582B000240CB102B070BDD8
:103FA000194B53F82430834202D00134E4B2F4E7D1
:103FB0001AF07BF901281ED023F052FC134B53F862
:103FC0003460861B00968DF80440282022F056FEAF
:103FD000864205D80D4B03EBC4031B79052BDDD1BD
:103FE000082269460A4B18681AF056F80028D5D0FE
:103FF000FFF70CFFD2E723F033FC044B43F8340007
:10400000CCE77047F7560020D854002078270020CE
:104010007427002010B58368C26853F822301C78DA
:1040200004B10024064B1B5D03B110BD23F018FC46
:10403000044B43F82400024B01221A55F5E700BF58
:104040006C2700207027002038B58368C26853F8B9
:1040500022301C7804B10024194B1B5D012B00D0C9
:1040600038BD23F0FDFB174B53F82450451B144B70
:1040700000221A55FA2022F001FEA84204D900219C
:104080002046FFF793FAEBE74FF47A7022F0F6FD43
:10409000A84204D901212046FFF788FAE0E740F65C
:1040A000B83022F0EBFDA84204D902212046FFF7E8
:1040B0007DFAD5E703212046FFF778FAD0E700BF65
:1040C0006C2700207027002003460B4A107828B187
:1040D0000A4A12789A4202D2002000E00120084ADF
:1040E00012783AB1074A127842FA03F313F0010F3B
:1040F00000D10020704700BFFA560020F95600207A
:1041000002520020F856002008B5084B01221A7010
:10411000074B00221A70074B04221A70064B1F220D
:104120001A7007F093F8054B186008BDFA56002086
:1041300002520020F9560020F85600208027002067
:1041400008B50349034B18681DF00BFB08BD00BF01
:104150008C8E02088027002070B506460A4C0B4959
:1041600020681DF0FEFA07F071F80546206807F098
:1041700061F83046FFF7E4FF284607F05BF8044992
:1041800020681DF0EEFA70BD80270020908E020896
:10419000948E0208F8B500284FD00D460446002939
:1041A0004DD0037813F0030F36D04268002A48D070
:1041B00013F0080F02D0A28A002A44D013F0200F77
:1041C00005D0E38A002B40D0A369002B3FD02C20E0
:1041D0001DF003FF064600283BD02C22002121F0D1
:1041E000B1FB21686268A368E0687160B260F36047
:1041F000306121696269A3697161B261F3612378F9
:1042000013F0040F0ED000272E60636843B13146CF
:10421000114819F0E3FF03E04268002AC8D02127C3
:104220003846F8BD0121304619F0E2FE0746002865
:10423000EAD030461DF0B0FFF2E72227F0E7222750
:10424000EEE72127ECE72127EAE72127E8E7212706
:10425000E6E71927E4E700BF8427002008B50348F4
:1042600019F0B5FF19F049FD08BD00BF84270020F3
:1042700010B50B4B1C6802E023F09EF8246864B173
:1042800023F09FF894F82030002BF5D0A36A002B80
:10429000F2D023F091F8002000E0012010BD00BF13
:1042A0008427002010B50B4B1C6802E023F084F833
:1042B000246864B123F085F894F82030002BF5D001
:1042C000A36A002BF2D023F077F8042000E001204D
:1042D00010BD00BF8427002010B50C4B1C6802E005
:1042E00023F06AF824687CB123F06BF894F820304E
:1042F000002BF5D0A36A002BF2D0013BA36223F080
:104300005BF8A3689847EDE710BD00BF8427002045
:1043100008B5044823F02AF919F011FD00F086F8D9
:1043200008BD00BF1091020808B5024823F01EF92D
:1043300008BD00BF109102082DE9F04180460F46EC
:1043400001F109050026344604E05B21082000F055
:1043500093FA0134AC4233D2052C1BD801A353F895
:1043600024F000BF4B4300087D430008B143000820
:1043700085430008894300088D430008FBB20433DD
:10438000D9B2E3E78021E1E70021DFE7731C314682
:10439000DEB2DBE7BB1DA3420CD0FB1DA3420BD05A
:1043A00007F10803A34209D0A31F18F80310CDE7B3
:1043B000D121CBE75A21C9E75A21C7E75D21C5E7DB
:1043C0000020BDE8F08100BF00B583B0002200925C
:1043D000019202218DF80010054819F0C5FE0190E8
:1043E00008216846FFF7A8FF03B05DF804FB00BF93
:1043F000006A180000B583B0044B1B88ADF8043088
:1044000001A800F015FB03B05DF804FB988E0208CC
:1044100000B583B0044B1B88ADF8043001A800F050
:10442000D7FA03B05DF804FB988E02082DE9F04F2F
:1044300097B04D4D09AC2E1D0FCE0FC433682360CD
:1044400001AC05F118060FCE0FC496E80F0084E802
:104450000F00464823F08AF8454823F087F80126E4
:104460008DF8096000248DF80840424B0B9301AB96
:104470000D93414F09A938461BF051FEB5F838B0ED
:10448000ADF838B0324604210EA800F065FAB5F850
:104490003CA0ADF83CA0224631460FA800F05CFAE3
:1044A000B5F84090ADF840903246042110A800F0D5
:1044B00053FAB5F80080ADF844803246042111A8C3
:1044C00000F04AFA2D4D2E4BC5F8F8344FF0021388
:1044D000C5F8F434A3F58033C5F8FC341C23C5F8C3
:1044E000E4344FF4487008F035FBFFF783FF1420E5
:1044F00008F030FBFFF78CFF232008F02BFBFFF7C1
:1045000079FFB92138461BF0F2FDFFF781FFADF8C6
:1045100048B02246214612A800F01EFAADF84CA081
:104520002246214613A800F017FAADF85090324603
:10453000214614A800F010FAADF854803246214606
:1045400015A800F009FA384603F086F9C5F8E444E6
:10455000C5F8F844C5F8F444C5F8FC44044823F011
:104560000AF817B0BDE8F08F988E02081091020883
:1045700014910208E070720000000A5000C003505D
:104580000200030008B50448044A121A92100449B4
:1045900019F013FE08BD00BF800100088003000869
:1045A0006052002008B5154B83F30A8800F030F8FC
:1045B000FFF7E8FF124A0AE01068516850F823003C
:1045C00041F82300013391688B42F5D30C320D4B37
:1045D0009A4201D20023F6E70B4A08E01168002056
:1045E00041F82300013351688B42F7D30832074B5F
:1045F0009A4201D20023F6E7FDF760FE000000209A
:1046000060D502086CD502086CD502086CD502088A
:1046100070B5134B134A9A60D3F8882042F47002A5
:10462000C3F88820104A4FF4804191660F4D05F57C
:1046300000544FF0FF3222660D4A62660222C3F830
:10464000D020BFF34F8FBFF36F8F002006F0C8FD5F
:104650004FF44036E66000201DF02EF82E6170BD4C
:1046600000ED00E0000000080090005000800044D1
:104670007FFF7F01014B1860704700BFEC540020A2
:1046800008B5064B1860064B1B6F03F00703032B9E
:1046900000D008BD21F0DCFBFBE700BFF454002094
:1046A00000800050BFF34F8F0549CA6802F4E062F2
:1046B000044B1343CB60BFF34F8F00BFFDE700BF38
:1046C00000ED00E00400FA05F0B18446F1B110B449
:1046D00009E004F120000FE02033C01A18D1BCB16A
:1046E0000CF1010C01319CF800400B4B1B5D03F0F9
:1046F0000303012BEDD020460B78074AD25C02F071
:104700000302012AE9D1E7E7012070470120704741
:104710005DF8044B704700BF25D4020830B587B060
:104720000546046823798DF80C3063798DF80D30D7
:104730001A4822F01BFF0022012103A800F00CF907
:104740000DF10B0103A819F071FE9DF80B302370D9
:10475000A379022B02D0002007B030BD4FF0FF3309
:104760000593049300950E4B012205A903A800F0C0
:104770002FFA059BB3F1FF3F07D00095084B0222AB
:1047800004A903A800F084F9E5E70095044B04228E
:1047900004A903A800F07CF9DDE700BF109102082E
:1047A000B9E2010810B582B0002401942A4822F031
:1047B000DDFE8DF8004003238DF801300122042135
:1047C000684600F0C9F8254B0122C3F8442401A92A
:1047D000052022F0C4FE00283BD1214BD3F8F02065
:1047E00042F00102C3F8F020D3F8FC2042F08072BE
:1047F000C3F8FC20A3F55D431A4A1A60019B03F538
:10480000D52303F2FC43DB08174AA2FB03239B0AD0
:10481000013B164A13610223C2F8F0304FF4807353
:10482000C2F804334FF06043114AC3F8B02F114A65
:10483000C3F8802ED3F8002E42F48072C3F8002E05
:10484000FF2283F82020D3F8002E22F48072C3F8D0
:10485000002E02B010BD00BF1091020800D003501E
:1048600000ED00E0FF03004017916502000004E046
:1048700055CEACC5090001004FF06043D3F8803E2F
:1048800013F0010F01D1112070470E4AD2F8FC300D
:1048900043F08073C2F8FC304FF06043D3F8002E31
:1048A0004FF0010C0CFA00FC42EA0C02C3F8002E97
:1048B00053F82030002BE8D04FF0604303F820106D
:1048C0000020704700ED00E010B504460FE0012322
:1048D000834024EA03040F2814D800EB40020E4B57
:1048E00003EB82035A6812B19968C0B2904794B141
:1048F000234600201F28EAD813F0010FE7D101302A
:104900005B08F7E7103800EB40039B00B033024A26
:1049100013440433E6E710BD8827002008B50D488E
:1049200022F024FE1A2006F04BFC28B91B2006F0CA
:1049300047FC40B9002008BD1A2006F051FC1A209F
:104940001CF0BAFEF2E71B2006F04AFC1B201CF00C
:10495000B3FEEFE7109102082DE9F04170B30C4669
:10496000174605460F292BD803784BB1022B20D0D0
:10497000032B21D0012B01D0002303E07F2301E092
:1049800040F2FF736A78D34013F0010F1AD00F4B37
:10499000D3F81063C6B922F027FD80463A46214677
:1049A000284603F067FE404622F019FD3046BDE878
:1049B000F08140F2FF33E5E73F23E3E72226F5E706
:1049C0002126F3E72126F1E70226EFE700C0035096
:1049D00040B310B5044603784BB1022B1DD0032B16
:1049E0001ED0012B01D0002303E07F2301E040F221
:1049F000FF736278D34013F0010F15D022F0F4FC5E
:104A0000237862780121914003EB43031B01074A9D
:104A1000D15022F0E4FC002010BD40F2FF33E8E763
:104A20003F23E6E7222070472120F5E740D00350DE
:104A300040B310B5044603784BB1022B1DD0032BB5
:104A40001ED0012B01D0002303E07F2301E040F2C0
:104A5000FF736278D34013F0010F15D022F0C4FC2D
:104A6000237862780121914003EB43031B01074A3D
:104A7000D15022F0B4FC002010BD40F2FF33E8E733
:104A80003F23E6E7222070472120F5E740E003506E
:104A9000002866D02DE9F0410C4615461F46064613
:104AA000002960D002784AB1022A3ED0032A3FD0C2
:104AB000012A01D0002303E07F2301E040F2FF73CD
:104AC0007178CB4013F0010F01D1FF2A4DD1022D97
:104AD00001D9042D4BD122F087FC80463378FF2B7F
:104AE00028D12368B3F1FF3F2BD02268B2F1FF3FFA
:104AF00032D0204B02EB420203EB82025760226865
:104B000002EB420203EB8203069A9A603378FF2B92
:104B100005D0226801239340174AC2F82434404646
:104B200022F05DFC0020BDE8F08140F2FF33C7E7D2
:104B30003F23C5E72A462168304603F005FE206082
:104B4000CFE73378FF2BD0D10C4BD3F824147078F7
:104B50001BF0B4FC2060C8E7404622F040FC2D204A
:104B6000E1E7222070472220DDE72120DBE721203A
:104B7000D9E700BF8827002000D0035000C00350B1
:104B8000B0F1FF3F1AD038B504460F2818DC0028D2
:104B900018DB22F029FC0123A3400B4AC2F8203481
:104BA000C2F82434094B04EB440203EB82020025D3
:104BB0005560956022F013FC284638BD21207047CF
:104BC0002120FAE72120F8E700E0035088270020A1
:104BD000002856D02DE9F0410C4617461E460546E2
:104BE000002950D0017849B1022939D003293AD09F
:104BF000012901D0002303E07F2301E040F2FF738D
:104C00006A78D34013F0010F01D1FF293DD122F082
:104C1000EBFB80462B78FF2B27D12268B2F1FF3FB8
:104C20002AD01B4B02EB420203EB8202C2F8B860AF
:104C3000226802EB420203EB8203069AC3F8BC200F
:104C40002B78FF2B06D02268103201239340114AA3
:104C5000C2F82434404622F0C2FB0020BDE8F081B7
:104C600040F2FF33CCE73F23CAE73A4621682846A3
:104C700003F00AFE2060D0E7404622F0B0FB2D2072
:104C8000ECE7222070472220E8E72120E6E700BF7A
:104C90008827002000D0035008B5084BD3F824041F
:104CA000D3F82024104000F0553020F0502003F5B8
:104CB0000053C3F82004FFF707FE08BD00C00350EF
:104CC00008B5084BD3F82404D3F82024104000F092
:104CD000AA3020F0A02003F50053C3F82004FFF70A
:104CE000F3FD08BD00C0035010B582B004460A4869
:104CF00022F03CFC23788DF8043063788DF8053081
:104D0000A278B2FA82F2520904210DEB0100FFF7FA
:104D100023FE002002B010BD10910208F0B585B04E
:104D20000C4694469DF83410664A1278002A00F02A
:104D3000BD800546BCF1070F00F2BA800A9A002A2E
:104D400000F0B8800B9A002A00F0B6800E9AB2F5F7
:104D5000006F00F3B38001285BD05B4A02EB0C12BA
:104D6000127B002A00F0AC80002200920192029295
:104D70000392564A02EB4C1E002C4FD14FEA4C16C0
:104D800000209051CEF80400CEF80800CEF80C00B8
:104D90009EF8020040F010008EF802009EF803001A
:104DA00040F030008EF8030021B9C1B241F0030198
:104DB0008EF8031000930E9B013B444A4FEA4C10BF
:104DC00002EB4C11165A63F30E1616520A9B8B60B7
:104DD0000B9B4B60CB789DF83C2062F38303CB7038
:104DE000012D36D0109B002B56D0374A4FEA0C11BC
:104DF00002EB0C1310985050119A5A6000249C60DA
:104E00005D7372466946604603F0F6FA204605B0C7
:104E1000F0BD0C9A002AA0D12D48F8E72B4F4FEA9D
:104E20004C1607EB4C120020B85150609060D060D7
:104E3000907840F010009070D07840F00300D0706F
:104E40000029B7D107EB4C12C1B241F03001D1704B
:104E5000B0E70E460A7B42F001020A73D2B242F07A
:104E600002020A73CA68042161F39F02F26006F12C
:104E7000100796E80F0087E80F00F2696FF0030152
:104E800061F39F02F2610C9B7361012CAAD10B9A12
:104E9000B2610C9A7260A5E7002DA6D10B4B03EB13
:104EA0004C139A786FF304129A709EE70948AEE7A4
:104EB0000748ACE70648AAE70548A8E70448A6E77C
:104EC0000548A4E703520020F0290020F028002024
:104ED000018000F0028000F0078000F0134B1B7887
:104EE000FBB110B50446F0B122F07EFA0023072B87
:104EF00013D80F4A02EB0312127B0AB10133F6E713
:104F000023600B4A190102EB031301241C730024D4
:104F1000545022F064FA204602E022F060FA05487C
:104F200010BD054870470548FAE700BF035200204E
:104F3000F0290020048000F0028000F0018000F0E1
:104F400038B522F051FA04460023072B06DC0C4A40
:104F500002EB0312127B12B90133F6E7002222B1F1
:104F6000204622F03CFA074838BD03F0F1F900254D
:104F7000054B1D70204622F032FA2846F4E700BFA8
:104F8000F0290020058000F0035200200F4B1B7811
:104F9000BBB110B50446072815D822F025FA0C4BF2
:104FA00003EB04131B7B1BB922F019FA09480BE031
:104FB000074B03EB041300241C7322F010FA204665
:104FC00002E005487047054810BD00BF03520020AD
:104FD000F0290020068000F0028000F0018000F03F
:104FE00000B583B0134B1B68019300238DF8043088
:104FF00022F0FAF9104B1B7833B90F4B01221A70CB
:1050000022F0EDF9002309E022F0E9F90B480EE067
:105010000B4A02EB0312002111730133072BF7DD5A
:1050200008238DF8073001A803F0B6F9002003B07B
:105030005DF804FBDC8E020803520020038000F0C0
:10504000F029002010B5104C2478BCB1072817DCDB
:105050000E4C04EB0014247BA4B10C4C4FEA001E50
:1050600004EB001C44F80E30029BCCF80430002402
:10507000CCF8084003F0C0F9204610BD0448FCE716
:105080000448FAE70448F8E703520020F02900201A
:10509000028000F0018000F0078000F008B50A4BA4
:1050A0001B785BB107280BD8084B03EB00131B7B65
:1050B00043B1002103F062F9002008BD0448FCE779
:1050C0000448FAE70448F8E703520020F0290020DA
:1050D000028000F0018000F0078000F008B50A4B64
:1050E0001B785BB107280BD8084B03EB00131B7B25
:1050F00043B1012103F042F9002008BD0448FCE758
:105100000448FAE70448F8E703520020F029002099
:10511000028000F0018000F0078000F0F8B5194B24
:105120001F6D5B6D1F4002D40125002402E0FEE7E5
:1051300001346D00072C24D83D42F9D0124B1D6577
:105140002301124AD358002BF2D002EB0416B168A7
:105150000131B16072682046984780F00100C0B20A
:10516000737B012BE4D10028E2D0094B03EB4413FD
:105170001A7B6FF341021A731A7F6FF341021A7799
:10518000D6E7F8BD0000045000200450F0290020AC
:10519000F028002000B585B0FF238DF80C308DF885
:1051A0000D3002900F2809DC0091094B002202A962
:1051B00003A8FFF76DFC05B05DF804FB1038029002
:1051C0000091034B002202A903A8FFF701FDF2E7BB
:1051D00093E501082DE9F04F89B005460E461446C7
:1051E0009846C36B5B69012207A960689847EB6B1F
:1051F0005B69012206A93046984707A81AF0ACFB64
:1052000048B10027A77567754FF0FF33A360384694
:1052100009B0BDE8F08F074606A81AF0ADFB0123E0
:10522000A375237E033304EBC3035E6000221A815F
:105230006368B3422AD02368834201D00023A37558
:1052400006A81AF0BEFB237D984201D00023A37567
:1052500006A81AF095FB814607A81AF091FB814534
:1052600001D00023A37506A81AF092FB814607A877
:105270001AF08EFB814501D00023A375237D043BEA
:10528000DBB2022B0BD80023A375C0E7206006A871
:105290001AF097FB20754FF0FF33A360EEE706A8E6
:1052A0001AF06EFB80B1EB6B5B69022204A93046F9
:1052B000984704A81AF077FB0346207D032868D896
:1052C000DFE800F0615B070D06A81AF06CFB0346EF
:1052D000F3E7237E033304EBC303CC221A811AF0D5
:1052E00080FB129B187094F8189006A81AF03BFBEC
:1052F00009F1030904EBC90989F80A00237E033385
:1053000004EBC303B3F808A093F80AB006A81AF098
:1053100037FB814606A81AF03BFB0390B9F1000F5A
:105320003DD0EB6B5B69022204A93046984704A884
:105330001AF0F5FA6075637D03B9A375A37DA3B177
:10534000BAF1000F11D0039BF1186B6C5B4286EA37
:1053500001021A4201D00023A3756B6C5A1E0A4049
:105360009B1A9A4501D90023A375A37D002B40D039
:10537000BBF1000F18D1E77D3CE0227E033204EB45
:10538000C2021381ABE7227E033204EBC202138117
:10539000A5E7227E033204EBC20213819FE706A831
:1053A0001AF0A6FA6075C6E70122E275627EBAB904
:1053B000BBF1010F08D095F83470DFB9EA6AB2F199
:1053C000FF3F05D01F4615E001216176174611E029
:1053D000BBF1030F01D01F460CE00122A27609E0C9
:1053E000BBF1010F37D0BBF1030F03D10122A2762D
:1053F00000E01F4653B117B1BBF1010F06D9534668
:10540000039A3146284619F0EAFBA060A37D13B148
:10541000236953442361237E114A127893421CD29C
:1054200001332376B8F1000F13D0A37D8BB1E37D58
:105430007BB177B9BBF1030F0BD0A168B1F1FF3F8E
:1054400007D0129B0093012322462846FFF7C2FE95
:10545000A075A77DDBE61746CCE70023A375E1E73F
:10546000008F02082DE9F04F89B005460F4692469D
:105470009B4600238DF80B304FF0FF31104600F0B3
:10548000EFFFB7F5801F1DD30023009317F1020F24
:1054900007D0009B002B40F09E802B7C002B00F05F
:1054A0008C80EB6AB3F1FF3F2CD02A689B1A6A6CA0
:1054B000B3FBF2F917F1020818BF4FF001080023FF
:1054C00001935DE00DF10A02394605F1080000F094
:1054D00017FF0146B0F1FF3F11D0504600F0C0FF6A
:1054E0000DF10B0301225146284619F0F7FB0090FD
:1054F0000028CBD09DF80B308BF80030C6E7002396
:105500000093C3E7696A284619F08AFA8146D1E711
:105510000123019337E09DF80B308BF80030324BBC
:105520001A683249504620F034FA00942F4B99689B
:10553000B1F1FF3F1BD06B6C5B4281EA06021A425D
:1055400015D12A4C204600F08BFF0DF10B0342468B
:105550002146284619F0C2FB04460028E6D017F180
:10556000020FD8D0214B1B68BB42DFD1D3E749469D
:10557000284619F055FA8146019BCBB9009BBBB96F
:105580006B6A4B45C4D02C686B6C03FB0944EB6B16
:105590005B69052203A92046984703A81AF0B8FAC8
:1055A0001AF0DDFA20461AF0E6FA06460146BFE791
:1055B000009BA3B1B7F5801F03D3009B8BB10020E4
:1055C0000AE09BF80030DAF80420394605F10800BB
:1055D00000F0B4FEF1E7002009B0BDE8F08F2D2007
:1055E000FAE72D20F8E700BFFC8E0208E430002027
:1055F00070B582B004464FF0FF33C3620DF107036C
:105600001A4A6FF00101FFF72DFF20BB174B9B6873
:10561000E362E56A2946204618F0F3FF2063E8B10B
:105620002946204619F0CBFA0546A36AAB421BD0A7
:105630002946204618F0E5FF0646236B0344236302
:105640002946204619F0BBFA0546002EEDD100236D
:105650002363E062E9E7A36AE362DAE7E16A2046EE
:1056600019F0ADFAE062DBE702B070BD1031002046
:1056700030B583B01C46032A14BF002201221B7ED2
:105680009A4202D0012003B030BD0D46096823685C
:105690009942F7D363689942F4D80DF10703114A90
:1056A000FFF7E0FE0028EDD10E4B5A686B689A4276
:1056B000E8D19DF80730032B14BF00230123227E7D
:1056C0009342DFD16369013363612369E2689342E6
:1056D000D8D2A268296842F82310236901332361D4
:1056E000D0E700BF103100202DE9F04182B0044620
:1056F0000E4690461F46816A06E01A4B9968B1F142
:10570000FF3F1FD0012E23D0E06A884217D0B1F1AD
:10571000FF3F14D0134D284600F0A2FE0DF1070301
:1057200001222946204619F0D9FA0028E5D03B4647
:105730009DF8072029462046C0470028DDD102B049
:10574000BDE8F0815968204619F039FA0146D9E7D9
:10575000044B5A68636C5B424A401A42D4D04FF003
:10576000FF31D1E7B830002010B50446083000F012
:105770008DFD0023024A19462046FFF7B5FF10BDF4
:10578000CBEC010838B50446037C0BBB0246134939
:10579000083000F01DFE616A204619F063F9421CD2
:1057A000616A204619F0B4F8054620B9236B626C93
:1057B0001344143B2363A16A204619F000FAA06247
:1057C0002368C01A636CB0FBF3F06062284638BDF2
:1057D0000023034A0121FFF787FFDCE763F001089C
:1057E00031F00108F0B589B080B30F4616461D466A
:1057F000044690F834301BB90025284609B0F0BDA6
:10580000012119F05AF801950E9B02930397049613
:105810000023059306939DF83C308DF81C30237CC3
:105820005BB901AA0A4904F1080000F0D1FD5EB994
:10583000069D204619F0E3FADFE701AB054A002197
:105840002046FFF751FFF2E7059DF2E70025D4E778
:105850007FE8010871560008F0B58BB004460D468C
:10586000406AE36B5B69052205A92668676C07FB44
:105870000060984705A81AF04BF9012836D000942B
:10588000002301938DF80850039301238DF8103005
:10589000A16AE36A99420FD0237CBBB96A461449D6
:1058A00004F1080000F094FD019B13B99DF810303D
:1058B0009BB901980BB0F0BD204619F080F9E06269
:1058C000236B626C9B1A14332363EDE76B46094A22
:1058D00001212046FFF708FFE6E7626A2368616C52
:1058E00001FB0231E06B1AF0C5F8E2E70020E1E7C6
:1058F000FD5A00087D5A00082DE9F04F89B0044692
:105900008A4691461D46002307930969026BCB1D09
:10591000406C1438B3FBF0F3013301EBC301914247
:1059200000F2A7804E4677E03D2840F09280049038
:10593000BB4605961EE04FF000092368616C01FB31
:105940000631E06B1AF082F8204618F0C0FF2046BE
:1059500019F05CF92063B9F1000F76D0DAF8102065
:10596000D31D616C1439B3FBF1F3013302EBC302B5
:1059700090423AD32368ABEB0309606CB9FBF0F9B2
:1059800009FB00301AF0F7F88046E16A204619F06A
:1059900016F9A36A83422CD0E062374B9A68616C97
:1059A0004B1E1340226B5B1A13442363ABEB0807B7
:1059B0002368079EF61AB6FBF1F6B145BBD197B145
:1059C000E36B9B69BA08414698478146E36A3B44CA
:1059D000E362236BA8EB0B084344236304F1080044
:1059E00000F054FCA9E7B946A7E7DDF810B0059E22
:1059F00002E0DDF810B0059EBBF1000F29D0DAF807
:105A00001000226BC31D616C1439B3FBF1F3013339
:105A100000EBC30082421CD3E76ADFF85C803946A2
:105A2000404600F01DFD07AB0293019500963B46F2
:105A300042465146204619F00DFC834600287FF46B
:105A400073AFD8F80830E362D6E7DDF810B0059EF2
:105A5000D2E75F461FB1384609B0BDE8F08F2B464C
:105A6000054A5268DAF8001004F1080000F066FCFC
:105A7000F1E71C27EFE700BFE4300020F0B583B06A
:105A80001C46032A05D1237A012B33D0012003B011
:105A9000F0BD06460F4615460DF10703164A096884
:105AA000FFF7E0FC60600028EDD19DF80730032B84
:105AB000E9D0114B5A687B689A42E4D1237A012BD2
:105AC00008D13B69E26813447269934202D900230A
:105AD0002374D8E7E3683A6913440833E3602B463C
:105AE000012239463046FFF707FF60600028CAD020
