S01500004956505F4C525F436F6E6E6563742E733337CA
S3150800000000200020D5480008A5E40108A5E4010859
S31508000010ED290208A5E40108A5E40108A5E40108FC
S31508000020A5E40108A5E40108A5E40108A5E401087A
S31508000030A5E40108A5E40108A5E40108A5E401086A
S31508000040A5E40108A5E40108A5E40108A5E401085A
S31508000050116A0008A5E40108A5E40108A5E4010859
S31508000060A5E40108A5E40108A5E40108313F000854
S31508000070213F0008A5E40108A5E40108A5E4010854
S31508000080A5E40108A5E40108A5E40108A5E401081A
S31508000090A5E40108A5E401084D540008A5E40108F3
S315080000A0A5E40108A5E40108F14F0008C94F0008B6
S315080000B0A5E40108A5E4010815B60108C1C00108B0
S315080000C0015B0208FD5A020875B80108175B0208A9
S315080000D0055B020891C00108095B020825C10108F1
S315080000E05DC10108A5E40108A5E40108E5D10008F9
S315080000F0A5E4010883190208A5E40108A5E4010896
S31508000100A5E40108A5E40108A5E40108A5E4010899
S31508000110A5E40108A5E40108A5E40108A5E4010889
S31508000120A5E40108A5E40108A5E40108A5E4010879
S31508000130A5E40108A5E40108A5E40108A5E4010869
S31508000140A5E40108A5E40108A5E40108A5E4010859
S31508000150A5E40108A5E401086D7C0208019B0108D5
S31508000160A5E40108A5E401089B5A0208A15A020859
S31508000180194A5AB3194BDB6913F0040F29D110B475
S315080001900AE003EA00048C4210D0013AB2B1134BCC
S315080001A0DB6913F0040F14D110F0010FF1D1104CD4
S315080001B01C40002CEDD06FF001000CE00C4A1A40F0
S315080001C00AB9002007E06FF0010004E06FF00200B2
S315080001D001E04FF0FF305DF8044B70476FF0020006
S315080001E070474FF0FF307047809698000000035024
S315080001F0020001000D4BDB6913F4803F12D170B584
S315080002000A4B03F580560124F46003F500552C6467
S315080002104FF480721A6100212046FFF7B1FF34645B
S31508000220EC6070BD6FF00100704700BF000003501E
S3150800023010B5124B4FF480329A6603F51C33DC690D
S31508000240144041F67132DA6303F580520121D16018
S31508000250586102221A6100212120FFF791FF40B15F
S31508000260074B0122DA601CB1A3F500530022DA63BA
S3150800027010BD00212120FFF783FFF1E70090005011
S315080002800020035038B51A4B5861DB6913F0040F88
S315080002902AD10C4654F8041B154B9961151F06E024
S315080002A0214651F8042B124B9A61043D0C465DB168
S315080002B008210846FFF764FF03460028F0D00C4AD9
S315080002C004211161184638BD094B04221A61002120
S315080002D02120FFF755FF03460028F3D100212120EE
S315080002E0FFF74EFF0346EDE74FF0FF33EAE700BF9F
S315080002F0000003502DE9F0410F46164605461A4BF5
S315080003004FF480329A6603F51C33DA6902F48038B2
S3150800031041F67132DA6303F580530122DA6000236D
S3150800032002E025442744361B8EB105F5005424F413
S31508000330FF5424F01F04641BB44228BF34462246E7
S3150800034039462846FFF79EFF03460028E9D0074AA4
S315080003500121D160B8F1000F03D0A2F500520021A7
S31508000360D1631846BDE8F081009000500020035084
S31508000370000000000000000000000000000000006F
S31508000380013800D0FCE770472DE9F04F2DED028BC0
S3150800039093B082460C4693461D4657EC106B8DED7E
S315080003A0080B32463B46304639461CF0ABFB002864
S315080003B000F009814FF0FF32B14B304639461CF048
S315080003C0C9FB002840F0FF804FF0FF326FF480131E
S315080003D0304639461CF0A0FB002840F0F480002285
S315080003E00023DDE90867304639461CF095FB0028EE
S315080003F040F0FC809DED087B8DED067B209B13F479
S315080004008063119301D106231E93DDE90601024696
S31508000410C1F30A50C1F31303904643F07F5949F4D8
S315080004204019A0F2FF301CF09BF883A3D3E9002300
S315080004301CF000F982A3D3E900231BF045FF06460A
S315080004400F4600228F4B404649461BF03BFF7EA3D2
S31508000450D3E900231CF0EEF802460B46304639462F
S315080004601BF032FF1CF080FB06461CF079F880462C
S31508000470894677A3D3E900231CF0DCF80022824BD7
S315080004801BF022FF1CF070FB074673A3D3E9002379
S31508000490404649461CF0CEF88046894638461CF048
S315080004A05FF86FA3D3E900231CF0C4F802460B4695
S315080004B0404649461BF006FF8046894602460B46DB
S315080004C01CF0B8F8CDE90C0107F2FF37002100222D
S315080004D0CDE90A123B050B9300230A9342464B4685
S315080004E0404649461BF0F0FECDE90E0142464B4612
S315080004F000204FF080411BF0E5FE80468946002229
S31508000500624BDDE90C011CF0BFF90022604B1BF0C1
S31508000510DBFE02460B46DDE90C011CF0B5F90022AC
S315080005205C4B1BF0D1FE02460B46DDE90C011CF0C4
S31508000530ABF902460B46404649461BF0C5FE024645
S315080005400B46DDE90E011CF09FF90022524B1BF009
S31508000550BBFEDDE90A231CF06DF88046894649ECA6
S31508000560188BDDE906231CF0F5FA40B1013E00229E
S31508000570474B404649461CF087F941EC180B06F1F3
S315080005806303C62B3BD80427209B13F4006F40D087
S3150800059035A3D3E90023DDE90689404649461CF020
S315080005A0CFFA00283BD032A3D3E900234046494678
S315080005B01CF0B2FA002832D01E9BB34221DD9E1BE6
S315080005C0731E1E931FE0209B02931F9B01931E9B85
S315080005D000939DED080B2B465A462146504600F0DF
S315080005E0CBF813B0BDEC028BBDE8F08F9FED227BF4
S315080005F08DED067B069607F100430793FEE6052771
S31508000600C2E700231E93209B43F4806320930027B0
S315080006103E461F9B9F4241D2A3EB070840E01E9B24
S31508000620002BF6D0119B002BF3D01E9B013B1E938B
S31508000630EFE700BFAFF30080FB799F501344D33F29
S31508000640B3C8608B288AC63F61436F63A787D23FCA
S3150800065071A379094F930A401655B5BBB16B024091
S31508000660EF39FAFE422EE63F2D431CEBE2361A3FDF
S315080006700000000080842E410000000000000000F9
S31508000680FFFFEF7F0000F83F0000E03F00002C402E
S3150800069000002440000018400000F03F4FF000081A
S315080006A0209B13F0020902D00FB14FF000083EB1AB
S315080006B053EC182BDDE906011CF0E6F8CDE9060136
S315080006C000220023DDE908011CF026FA00283BD1A8
S315080006D0209B23F400630293CDF804801E9B0093AD
S315080006E09DED060B2B465A462146504600F044F827
S315080006F0002F3FF476AF209B13F0200F2CD04FF03D
S31508000700450C00F101082B46024621466046D047B3
S3150800071086EAE672A2EBE67205230593013F049783
S31508000720002303930A230293F30F019300922B46A7
S3150800073042462146504623F0D7FDB9F1000F3FF453
S3150800074050AF02461F9F10E0DDE90601024601F19F
S315080007500043CDE90623BBE74FF0650CD1E7561CED
S315080007602B4621462020D0473246A2EB0B03BB423C
S31508000770F5D3104635E700BF2DE9F04F2DED028B76
S3150800078093B00590089192469B4659EC108B1E9D96
S3150800079042464B46404649461CF0B4F9002840D02C
S315080007A04FF0FF326FF48013404649461CF0B4F907
S315080007B0002845D14FF0FF32B14B404649461CF060
S315080007C0C9F900284BD1AAA3D3E9002340464946D4
S315080007D01CF0C0F900285AD1A7A3D3E90023404644
S315080007E049461CF099F9002851D1002200234046B9
S315080007F049461CF091F9002857D100230993209BFC
S3150800080013F4806F5CD000241F2C5BD8092D59D9AE
S3150800081004F148036B44302203F8202C013D0134CF
S31508000820F2E7209B03931F9B029303230193954BA7
S3150800083000935B4652460899059823F07BFC10E125
S31508000840209B03931F9B0293042301938E4B0093D3
S315080008505B4652460899059823F06CFC01E1209BFB
S3150800086013F004030FD0894A7BB10423209903911E
S315080008701F990291019300925B4652460899059882
S3150800088023F058FCEDE0824AEEE70323EEE7209BCF
S3150800089002931F9B0193009549EC108B5B465246C9
S315080008A008990598FFF770FDDBE042464B460020A5
S315080008B000211BF007FD80468946012309939EE720
S315080008C00625A0E7404649461CF04EF906461BF0A9
S315080008D047FE02460B46404649461BF0F3FC6D4B65
S315080008E003EBC50393ED008B53EC182B1BF0A2FE0C
S315080008F002460B46CDE906231CF05EF907461BF0B7
S315080009001FFE02460B46DDE906011BF0DBFC02462C
S315080009100B46CDE9062300225F4B1CF01BF950B3AA
S31508000920013738461BF00CFE02460B4651EC180BF5
S315080009301CF0FCF808B10136002755BB30461BF001
S315080009400FFE02460B46404649461BF0BBFC804656
S3150800095089460022504B1CF0DFF838B100224E4B76
S31508000960404649461CF0F6F8002842D016F0010F1A
S315080009703FD001363DE00022474BDDE906011CF079
S31508000980CBF80028D9D117B117F0010FD5D0013708
S31508000990D3E71F2C17D8013D404BA3FB0723DB08E1
S315080009A0194603EB8303A7EB4303621C303304F1B8
S315080009B048000DEB000404F8203C092F02D90F4625
S315080009C01446E6E714461F2C0AD86B1E45B104F1F7
S315080009D048026A44302102F8201C1D460134F2E719
S315080009E01F2C06D804F148036B442E2203F8202C4A
S315080009F001341F2C17D82A4A82FB0632F317C3EB99
S31508000A00A2031A4603EB8303A6EB4303611C3033A8
S31508000A1004F148000DEB000404F8203C16460AB120
S31508000A200C46E6E70C46209B03F00303012B39D05E
S31508000A301F2C09D8099B002B51D004F148036B449D
S31508000A402D2203F8202C0134209B03931F9B02932D
S31508000A5001940AAB00935B4652460899059823F021
S31508000A6069FB13B0BDEC028BBDE8F08FAFF30080D5
S31508000A700000000065CDCD410000000065CDCDC168
S31508000A80FFFFEF7F189902081C9902080C990208C3
S31508000A9014990208289902080000E03FCDCCCCCC76
S31508000AA0676666661F9BB3B1099B1BB9209B13F04B
S31508000AB00C0F12D01F9B013B1F93194606E004F149
S31508000AC048036B44302203F8202C01348C42AFD201
S31508000AD01F2CF4D9ACE71F99F8E71F99F6E7209B76
S31508000AE013F0040F07D004F148036B442B2203F8D4
S31508000AF0202C0134A8E7209B13F0080FA4D004F19A
S31508000B0048036B44202203F8202C01349CE700BFDD
S31508000B1038B50D46044626F0DDFD064A13889BB215
S31508000B202DB123431380BDE8384026F0CEBD23EA15
S31508000B300403F7E7744B00200022034B01214FF40E
S31508000B4080709A70E4E700BF744B00207FB54E684A
S31508000B5002A9044624F062FA9DF808300C2B19D134
S31508000B60134BB3F90050134B9E4218D808F004FAF9
S31508000B7003460068694600909B882046ADF8043015
S31508000B8024F039FA70B140F25F620B490B480EF057
S31508000B9099FAFEE7204614F097F80546E3E71FF0B2
S31508000BA05CFEE5E72946204624F00BFA04B070BD42
S31508000BB04A510020FFC99A3BD19B02089C9902081A
S31508000BC0002330B5134C85B0CDE901330393237860
S31508000BD08DF8043026F07EFDA288E38805469A4201
S31508000BE00DD0E188A06801AAA18024F0A0F858B128
S31508000BF040F2DA62084909480EF064FAFEE7A0688E
S31508000C0024F06EF80128ECD0284626F05EFD05B0E3
S31508000C1030BD00BF8C550020D19B02089C99020864
S31508000C2038B50F4C656835B940F2C7720D490E489C
S31508000C300EF048FAFEE723F02CFC284411F092F94E
S31508000C4000F00700032809D164680921204623F02B
S31508000C503CFD205C031F5842584138BD0020FCE784
S31508000C60744B0020D19B02089C99020808B5114BC9
S31508000C709A78042A06D040F28E520F490F480EF091
S31508000C8021FAFEE71B881B0706D440F28F520A4951
S31508000C900A480EF017FAFEE700210820FFF738FF8A
S31508000CA00222074B98681A7313F0C8FDBDE808407E
S31508000CB021F0F7BF744B0020D19B02089C990208CB
S31508000CC08C55002010B5084CA06813F0B7FDA06835
S31508000CD024F006F8012806D00122A0681146BDE8CE
S31508000CE0104023F0FFBF10BD8C55002038B5194DB4
S31508000CF0AB7833B140F22B72174918480EF0E2F977
S31508000D00FEE726F0E7FC2988044611F0060109D01B
S31508000D1001214FF48070FFF7FBFE2046BDE83840FE
S31508000D2026F0D3BC4FF48070FFF7F2FE12F0D8FE1F
S31508000D30012805D010F0FD0F05D1FFF741FFECE7BC
S31508000D40FFF7C0FFE9E740F24172034903480EF096
S31508000D50B9F9FEE7744B0020D19B02089C9902085A
S31508000D6070B50446064D95F90860FFF7BFFF12F007
S31508000D70B5FD314620466A68BDE8704012F0E6BB0C
S31508000D80744B002008B50A4B1B88DB0606D440F2D4
S31508000D90A752084908480EF095F9FEE700211020E9
S31508000DA0FFF7B6FE12F018FFBDE8084021F079BF3C
S31508000DB0744B0020D19B02089C9902080D4B10B574
S31508000DC01B8804469B0713D500210220FFF7A0FEC7
S31508000DD0094B5A7BFF2A06D040F2E54207490848E4
S31508000DE00EF070F9FEE75C73BDE8104021F059BFBC
S31508000DF010BD00BF744B00208C550020D19B020803
S31508000E009C9902087047704707B5ADF80610014669
S31508000E1030B94FF4B572104910480EF053F9FEE791
S31508000E20BDF8063033B940F26B120B490B480EF089
S31508000E3049F9FEE70A4B0DF10602986824F0A5F970
S31508000E4030B140F26D12044904480EF03BF9FEE752
S31508000E5003B05DF804FB00BFD19B02089C99020809
S31508000E608C55002010B50E4CA37833B14FF4EA72B6
S31508000E700C490D480EF026F9FEE7606019B1A17B12
S31508000E80003918BF01212020FFF742FE074B08480A
S31508000E909B7B23760223A370BDE8104010F02EBF7B
S31508000EA0744B0020D19B02089C9902088C5500209F
S31508000EB0904B002008B50CF033FC80F00100C0B25E
S31508000EC008BD0A4B9A780AB1062A0CD11B8803F486
S31508000ED08B7343B9064B5A7BFF2A04D1187BFF381C
S31508000EE018BF012070470120704700BF744B0020CF
S31508000EF08C55002008B50CF003FC0028FBD108BD72
S31508000F000C4B42889A8142789A730278DA738288FF
S31508000F101A82C2885A82C2685A61017A064A91734D
S31508000F20028A998C914204D001214FF400709A8468
S31508000F30EEE57047744B00208C550020094B9A89C2
S31508000F4042809A7B4270DA7B02701A8A82805A8AB9
S31508000F50C2805A699B8CC260034A0382927B0272E2
S31508000F60704700BF744B00208C5500204B1E012B88
S31508000F7070B50C4606D940F2B7221A491A480EF03F
S31508000F80A1F8FEE7194D0A460146A86824F027F994
S31508000F9030B140F2B922134913480EF093F8FEE730
S31508000FA0AE6810F01FFE22460146304624F011F9BD
S31508000FB030B140F2BD220B490B480EF083F8FEE72C
S31508000FC0AD6810F01BFE22460146284624F00DF9AE
S31508000FD030B140F2C122034903480EF073F8FEE728
S31508000FE070BD00BFD19B02089C9902088C55002051
S31508000FF0054BDB7B1B0913F00E0003D0052B8CBFBA
S3150800100000200120704700BF8C550020044BDB7B75
S315080010101B0913F00E0F0CBF01200020704700BFFC
S315080010208C5500202DE9F04F15469A0580461F4637
S315080010308FB003D501218020FFF76AFDEB014FF041
S31508001040000955D5984C23889E0751D5974E737B32
S31508001050FF2B06D040F2AF42954996480EF032F87B
S31508001060FEE7636833B94FF49662914991480EF0EA
S3150800107029F8FEE749460220FFF74AFDA37886F8D5
S315080010800D90042B03D101210820FFF741FD002311
S31508001090B06808A98DF82C3023F0C2FF30B140F2B1
S315080010A0BA42834983480EF00DF8FEE7FFF7A0FF22
S315080010B0B0B923F0EEF98146606823F0F5F908A97E
S315080010C08144B068ADF8249023F0ADFF30B140F20A
S315080010D0C242774977480DF0F5FFFEE7089BA36201
S315080010E0A378032B02D1B06813F0A8FB21F0D9FD31
S315080010F0B80702D50120FFF761FE15F0A84F02D008
S315080011000220FFF75BFEA90220D50021402003AC90
S31508001110FFF7FEFC2146404624F07FF8B0B99DF85B
S31508001120143008AA022B22D18DF82830BDF80C30CD
S31508001130ADF82030104612F0DBFB38B1404624F0FB
S315080011406AF818B901214020FFF7E2FC2A0753D5AF
S31508001150564E0321B06803AA24F019F8814688B9C7
S3150800116040F2FE42524953480DF0ACFFFEE7032B0E
S3150800117005BF8DF82830D4E900018DF82800C2E9AA
S315080011800001D7E79DF80C30B068072B40F01F81A7
S31508001190494608AA23F0FDFF30B140F201524449FE
S315080011A044480DF08FFFFEE7FFF722FFBDF80E203B
S315080011B0A0B9FFF72BFF78B1043292B2B06808A93C
S315080011C0ADF8242023F0E7FF40B140F21252384927
S315080011D038480DF077FFFEE70232EEE7BDF80E005D
S315080011E00121073080B226F0A1F98246002842D1B3
S315080011F001210C2013F0B6FAA90705D52A4B1B883E
S315080012001A0701D5FFF732FDAB010BD500210420E3
S31508001210FFF77EFC244B9B78012B03D1234B986860
S3150800122013F00CFB15F0284F03D000210420FFF71C
S315080012306FFC7E060CD51C4C23881D0701D5FFF7CD
S3150800124015FD2388580703D500210420FFF760FC05
S31508001250F90540F1D88003A9404608AA23F03EFDC7
S315080012600146002800F0BA8040F2D25210491148CF
S315080012700DF028FFFEE74FF0000B26F0DBF8CDF85F
S3150800128000B00246BDF80E3004464946B06823F061
S3150800129086FFBDF80E3083420ED040F22252044932
S315080012A004480DF00FFFFEE7744B00208C55002014
S315080012B0D19B02089C99020823F0EBF8204410F011
S315080012C051FE00F007000228DFF8589124D199F85A
S315080012D00230042B90D123F0DCF8504B204482785E
S315080012E01B789A4288D159460820FFF711FC23F04B
S315080012F0D0F8204410F036FE9DF82E30C0F30010CA
S31508001300307389F80830FFF78BFC00287FF474AF38
S31508001310B06813F093FA6FE723F0BBF8204410F097
S3150800132021FE83064AD523F0B4F8204410F01AFEAD
S3150800133000F0070003280BD10921204623F0C5F940
S3150800134014F800B0ABF1040CDCF1000B4BEB0C0B02
S3150800135001210420FFF7DCFBB06823F033FFC9F84E
S315080013602C00BBF1000F30D0B9F8003058062CD548
S3150800137000214020FFF7CCFB0126BDF80E309DF872
S315080013802E200120E254BDF80E309DF82F2023446C
S315080013909A71BDF80E10089A0131214410F0F0FD3B
S315080013A0BDF80E3050461C44667126F017F91C4BE2
S315080013B0187810F0A9FD21F074FC1DE799F80230A1
S315080013C0012B02D1B06813F039FA0026D5E723F0CD
S315080013D0C2FE4946B06823F0E0FE0DE79DF80C30E2
S315080013E003F0BF02032A01D0022B0FD10D4C23882C
S315080013F05A0702D50420FFF78BFB23889B0702D5E3
S315080014000120FFF7DBFC0FB0BDE8F08F4FF4BF6299
S31508001410054906480DF056FEFEE700BFE14B0020E1
S31508001420044B0020744B0020D19B02089C990208AB
S3150800143008B50246FFF7DCFD30B1072A06D80020BA
S31508001440034B83F8302008BD7020FCE70220FAE73A
S31508001450744B002008B50246FFF7CAFD28B10020E4
S31508001460034B93F83030137008BD7020FCE700BFBB
S31508001470744B002008B5074B01460022986823F0F4
S31508001480AEFE30B140F2EB22034904480DF01AFED5
S31508001490FEE708BD8C550020D19B02089C990208DE
S315080014A008B5074B01460022986823F092FE30B132
S315080014B040F2F122034904480DF004FEFEE708BD98
S315080014C08C550020D19B02089C99020808B5074B49
S315080014D00146986823F08FFE30B140F2F72204499E
S315080014E004480DF0EFFDFEE708BD00BF8C5500204F
S315080014F0D19B02089C99020808B5074B9B7833B123
S3150800150040F20132054906480DF0DCFDFEE7BDE86C
S315080015100840FFF7EBBB00BF744B0020D19B0208C5
S315080015209C99020808B5054B0146986823F049FDC1
S31508001530002814BF8B20002008BD00BF8C55002052
S31508001540014B986813F0C0BB8C550020014BD88816
S31508001550704700BF8C5500207FB50123ADF80E30CB
S315080015604FF6FE7309480093806800230DF10E02BA
S3150800157004A923F0B3FC212800D020B9BDF8100037
S3150800158007B05DF804FB4FF6FF70F9E78C550020AD
S3150800159008B5044B0146986823F054FCB0FA80F06D
S315080015A0400908BD8C55002038B50B4D0446AB786C
S315080015B0012B0DD8FFF7ECFF60B1084BDC80AB7848
S315080015C01BB9FFF793FB002038BDFFF7F9FAFAE7D6
S315080015D03E20F9E78A20F7E7744B00208C55002057
S315080015E0024B9B780BB9FFF781BB7047744B002001
S315080015F0014BD873704700BF744B002008B5064BE3
S315080016004FF0FF31986823F096FB0028B8BF0330E7
S3150800161040F3870008BD00BF8C55002008B5044B71
S31508001620986823F00BFC034BB3FBF0F080B208BDBF
S315080016308C55002040420F0030B58DB02C22044650
S31508001640002101A824F0F4FA01234FF002328DF8A4
S3150800165008306423CDE9032306930B238DF82C3039
S31508001660214B9B8CADF80A30FFF7C2FCA8B140F2BB
S31508001670F23307934FF47A7305930CB9FFF722FBFD
S315080016801A4D01A9A86813F0F3FBC0B140F2AC6289
S31508001690174918480DF016FDFEE7FFF7BFFF0C23A4
S315080016A04343902B0793A3F10A02D8BF91230592CF
S315080016B0D8BF0793059B8B2BDFD88C23DCE7FFF776
S315080016C0A5FC60B10122A868114623F0A2FD30B13D
S315080016D040F2AF62064907480DF0F4FCFEE70CB984
S315080016E0FFF704FB0DB030BD744B00208C5500206D
S315080016F0D19B02089C990208F8B525F0EBFF554CDA
S3150800170006462388D90503D5A37843BBFFF7EEFA27
S31508001710514D6B7BFF2B13D06B7B03F0FF0723BB6D
S31508001720FF236B73A378032B0AD100233046A370DB
S3150800173025F0CBFF3846FFF713FB25F0CBFF06460F
S31508001740A378042B08D12B7BFF2B05D02B7B022BF0
S3150800175014D1424810F0D2FAFF232B7327E0002158
S315080017604FF48070FFF7D4F9D2E76B7B012B4FF06B
S31508001770FF0314BF89278D276B73D6E72B7B13B11D
S315080017802B7B012B1ED1FFF74BFA0022FF212B7B67
S315080017900746DBB222772973002847D0012B0AD1E6
S315080017A064212E48A37010F0B4FAFFF709FA304600
S315080017B025F08BFF06E03046A27025F086FF312023
S315080017C0FFF7CEFA23881A0608D500218020FFF7EE
S315080017D09FF9A86823F060FC12F0DFF923889B05BF
S315080017E007D54FF400700021FFF792F90020FFF7A4
S315080017F023FF0BF085FF608620B325F01BFE012131
S315080018000546002012F0AEFFA678012E14D1002658
S315080018102677A670FFF76AFA284611F0B9FDA3786D
S3150800182066867BB9BDE8F84012F058B8A070304615
S3150800183025F04BFF3846C3E72EB1284611F0A8FD20
S3150800184000236386F8BDFFF751FA284611F0A0FD7C
S315080018506686F7E7744B00208C550020904B0020D5
S315080018608B4BF0B51B888B4C8B4D63848B4B85B0AB
S315080018701B68E3628A4B1B8823848A4B1B68A36216
S315080018802B88DB0700F1FC8001210846FFF740F9A9
S315080018900523854A04F1100104F10800AB7012F023
S315080018A08FFF28B1F522814981480DF00BFCFEE730
S315080018B0A3682BB9F7227D497D480DF003FCFEE7A6
S315080018C07C4823F053FA70A3D3E90023CDE900231B
S315080018D04FF0FF324FF0FF33A06823F0F6FA4FF4CB
S315080018E08811A06813F068FA014630B140F20F1269
S315080018F06E496F480DF0E6FBFEE76F4B1B78012B30
S315080019000ED16E4AA06813F029F8A06813F0DEFA23
S31508001910E0B140F21B12654965480DF0D3FBFEE7BE
S31508001920674E316831B94FF48F72604960480DF0DF
S31508001930C9FBFEE7614AA06813F010F833689B6894
S3150800194023B1DB6913B15B7803B1E373FFF704FED8
S315080019500146E080A06813F07DF9064630B140F2F2
S315080019602D12524952480DF0ADFBFEE7554B0120AA
S315080019701B78C3EB431203EB8203DB00AB84FFF750
S315080019805BFEA76810F03AF932460146384623F05E
S315080019902CFC064630B140F23312444944480DF057
S315080019A091FBFEE740F203530427AB81464BAF7326
S315080019B01B78EB73FFF732FE00EB80039B002B824C
S315080019C0FFF72CFEC00068823946A0686E6123F0D6
S315080019D024FA30B14FF4A172344935480DF072FB40
S315080019E0FEE73A46A06803A923F0AAFA042806D017
S315080019F04FF4A3722D492E480DF064FBFEE703A9A8
S31508001A00012010F0CBFA0BF001FC08224FF0FF3151
S31508001A10A06823F06BFA30B140F24F1223492448EC
S31508001A200DF050FBFEE713F0D1FB30B140F2551232
S31508001A301E491F480DF046FBFEE7FFF7D9FA68B1C5
S31508001A401EF00DFF0146A06823F0D5FA30B140F22A
S31508001A505912164916480DF035FBFEE7A468FFF73C
S31508001A607BFD1A4B014603F10C02204623F061F96F
S31508001A7030B14FF4B0720D490D480DF023FBFEE767
S31508001A8005B0F0BDAFF300800A0020FF4203000056
S31508001A90C89E02088C550020744B0020CC9E020874
S31508001AA0CA9E0208D09E0208390B0008D19B02087C
S31508001AB09C990208690345ECC54B00204D0B0008AC
S31508001AC0A45400203257002031570020FC9B0208FE
S31508001AD008B5044B986823F0B3F9034BB3FBF0F051
S31508001AE080B208BD8C55002040420F002DE9F04316
S31508001AF08C4D87B02B889B0706D440F24C728A49D6
S31508001B008A480DF0DFFAFEE7AB78033B012B06D9CE
S31508001B1040F24E72844985480DF0D4FAFEE76A68A9
S31508001B2032B940F25172804980480DF0CBFAFEE78F
S31508001B307F4E2C88F77B14F0200418BF4FF47A7474
S31508001B404FEA1718FFF754FA00287DD0B8F1020FAC
S31508001B500AD0A8F10303022B74D940F265727249C0
S31508001B6072480DF0AFFAFEE7032795F8303008EB18
S31508001B70C80898446F4B104603EB4803B3F81C801B
S31508001B8022F092FC4FF4FA534343B3FBF8F378225E
S31508001B907733B3FBF2F31F44C7EB0717AB78FF00A5
S31508001BA0BFB204F5347417FA84F4042BA4B203D133
S31508001BB007F6E8072744BCB2D5F8048022F069FC8A
S31508001BC00746686822F070FC074422F088FCBFB21A
S31508001BD03F1A22F05EFC404410F0C4F97378C0F353
S31508001BE040198DF80C30544BBFB2CDE904340024AB
S31508001BF022F081FC009402463B464146B06823F039
S31508001C00ACFA287EB278737812FB00F29342C4BF0E
S31508001C109B1ADCB22B88F18813F0200FB068B180CC
S31508001C208DF80C4003AB76D000934A46434B23F01D
S31508001C3075F8002873D040F224723B493B480DF0F2
S31508001C4041FAFEE7062790E7FFF7E0F9002846D0B5
S31508001C50384B07F00F0708EBC801394403EB41037B
S31508001C601046B3F81C9022F01FFCB8F1000F2CD0D8
S31508001C70B8F1010F2CD14FF00408400080B2F319D7
S31508001C8093F834304BB14FF4FA52023303444344C9
S31508001C909BB25343B3FBF9F39CB2AB78042B8BD1BD
S31508001CA0FFF7BCFC374497F834308146053398442F
S31508001CB0FFF70EFF0C2308FB00F003FB09F909EBFD
S31508001CC0C009A1441FFA89F476E74FF00208D6E75F
S31508001CD040F28672144915480DF0F4F9FEE7FFF74D
S31508001CE0F7FE0746686822F0DFFB09307843AB78D1
S31508001CF004EBC000042B84B27FF45EAFFFF78EFCC2
S31508001D000746FFF7E5FE602358430C2303FB07004D
S31508001D10204484B250E74A4622F0FEFF89E707B01E
S31508001D20BDE8F083744B0020D19B02089C990208F9
S31508001D308C550020FC9B020820A10700804B002040
S31508001D40F8B5494C258815F0020506D040F27512FB
S31508001D50464947480DF0B6F9FEE7257725F0BAFC5F
S31508001D60238806465A070CD5424B986823F02AFA68
S31508001D70E36AC01AA38C984203D929460420FEF7C1
S31508001D80C7FE304625F0A1FCA778022F37D125F0EB
S31508001D90A1FC2388064613F0040507D036480FF041
S31508001DA0ADFF3046BDE8F84025F08FBC25F08DFC28
S31508001DB0606811F0CDFD20B1A570BDE8F840FEF7CA
S31508001DC0CFBF25F087FC6668054622F062FB3044E3
S31508001DD010F0C8F810F0200F0CBF032304230121CC
S31508001DE03846A370FEF794FEFFF780FE284625F0D6
S31508001DF06CFC01210846BDE8F84012F0B3BC042F7C
S31508001E0027D11C4B1B7BFF2B2DD1237EF3B125F04D
S31508001E1061FC238805465B0704D517480FF06EFF5B
S31508001E202846BFE725F051FC237E013B237625F0A3
S31508001E3051FC044601210220FEF76AFEFFF756FE12
S31508001E40204625F042FC01210820D4E74020A37053
S31508001E50B3E7012F07D10023A370064B986812F049
S31508001E60EDFC3120A9E7F8BD744B0020D19B020890
S31508001E709C9902088C550020904B002038B501210A
S31508001E8004461020FEF744FE064B9D68FFF7C6FB86
S31508001E90012200FB04F1044B284622F028FF00200B
S31508001EA038BD00BF8C550020850D000808B50A4BC3
S31508001EB01B88DB0606D44FF46172084908480DF002
S31508001EC001F9FEE710200021FEF722FE054B98686F
S31508001ED0BDE8084022F019BF744B0020D19B0208C8
S31508001EE09C9902088C55002038B50E4D688E30B97D
S31508001EF040F291320C490D480DF0E4F8FEE725F062
S31508001F0099FA0446688E25F0B3FA811F2144012008
S31508001F1010F044F8064B0446986823F053F9001B62
S31508001F2038BD00BF744B0020D19B02089C9902085B
S31508001F308C55002010B5084C636833B94FF46872A5
S31508001F40064907480DF0BEF8FEE7064B986823F0E9
S31508001F5039F9A36AC01A10BD744B0020D19B020838
S31508001F609C9902088C55002038B50A4D688E30B900
S31508001F7040F2AA32084909480DF0A4F8FEE725F010
S31508001F8059FA0446688E25F073FA044414F8020CCC
S31508001F9038BD00BF744B0020D19B02089C990208EB
S31508001FA038B50A4D688E30B940F2B9320849094841
S31508001FB00DF088F8FEE725F03DFA0446688E25F010
S31508001FC057FA044414F9070C38BD00BF744B0020B7
S31508001FD0D19B02089C99020838B50A4D688E30B91B
S31508001FE04FF47272084909480DF06CF8FEE725F0BF
S31508001FF021FA0446688E25F03BFA044414F9010CCC
S3150800200038BD00BF744B0020D19B02089C9902087A
S31508002010024B1888C0F3C010704700BF744B0020ED
S3150800202030B585B005466C460D4B0FCB84E80F00DE
S315080020300DB12B6800930B4B21460022986812F0CD
S3150800204059FE044630B140F2E632074907480DF01A
S3150800205039F8FEE7FEF7B4FD204605B030BD00BFEF
S31508002060849C02088C550020D19B02089C99020882
S3150800207030B5154D87B004460DF10701A86822F062
S3150800208026FF30B140F2F732104911480DF01AF820
S31508002090FEE79DF80720531EDBB2FD2B0FD90294ED
S315080020A0FF2A00D10394A86802A922F0F8FF40B1DC
S315080020B040F20442054906480DF004F8FEE7012AF5
S315080020C0EFE707B030BD00BF8C550020D19B020852
S315080020D09C99020808B5064B986822F0EFFF30B1C4
S315080020E04FF48262034904480CF0ECFFFEE708BD92
S315080020F08C550020D19B02089C9902080122024BAC
S315080021001146986822F0EEBD8C5500207047F8B548
S31508002110064604200D4622F09EF9030622D5124FE4
S31508002120BC78FCB926B1012E17D002242046F8BD8A
S3150800213001262846FFF72CFA0028F6D00B4800237C
S3150800214032462946806822F0EBFD40B14FF48A6298
S31508002150074908480CF0B6FFFEE72646E9E70623D6
S31508002160BB70E3E77024E1E7744B00208C55002030
S31508002170D19B02089C990208042010B522F06BF93D
S31508002180030611D5094CA378062B0DD1084B986880
S3150800219022F0C8FD30B140F26A42064906480CF002
S315080021A091FFFEE7A07010BD7020FCE7744B00207D
S315080021B08C550020D19B02089C9902081FB504463D
S315080021C001A812F05FFD9DF80D3053B14CB1064BD6
S315080021D02078617818700020A27859709A7004B037
S315080021E010BD0220FBE700BF8C5500201FB5044632
S315080021F001A812F047FD9DF80D3053B14CB10020EF
S31508002200054B1A7822705A789B786270A37004B0CE
S3150800221010BD0220FBE700BF8C550020FFF7CEBF9C
S31508002220FFF7E4BF0348044B834202D0034B03B1D4
S3150800223018477047485700204857002000000000FC
S31508002240064B0749C91A891048BF0131491003D0FE
S31508002250044B0BB101481847704700BF4857002088
S31508002260485700200000000010B5064C237843B9F3
S31508002270FFF7D8FF044B13B10448AFF300800123DE
S31508002280237010BD045200200000000070D8020818
S3150800229008B5054B1BB105490548AFF30080BDE8F5
S315080022A00840FFF7CDBF00BF00000000A0220020B5
S315080022B070D80208A3F5803A704700BF174B002B69
S315080022C008BF134B9D46FFF7F5FF00218B460F46C7
S315080022D01348144A121A23F0ABFC0E4B002B00D0FD
S315080022E098470D4B002B00D098470020002104008A
S315080022F00D000D48002802D00C48AFF300801BF0F3
S31508002300A3F9200029001BF061FE1AF023FE00BF86
S315080023100000080000000000000000000020002067
S31508002320002000208052002000000000000000006D
S3150800233000B583B0074B0122DA60064B5B6913F0E0
S31508002340400FFAD1034968461EF0EDF8009803B02D
S315080023505DF804FB0040005910B582B004461BF036
S3150800236060FD08B902B010BD00230093ADF8043033
S31508002370074B1B88ADF80230ADF8044044F224231D
S31508002380ADF800306946042020F01EFDEAE700BFDC
S315080023904051002008B513460A460146044800681D
S315080023A003F0DCFF00B908BD02480CF08BFEFAE723
S315080023B044550020E87D02080A2800D9704730B540
S315080023C083B004460D466B4601AA014610480068CC
S315080023D003F02AFF08B9019B23B10E480CF072FEE0
S315080023E003B030BD009B2A4621460948006803F021
S315080023F05BFE40B9214608480CF064FE29460748AA
S315080024000CF060FEECE7214605480CF05BFEE7E7BA
S3150800241044550020F07D0208147E0208307E02082A
S31508002420387E02080A2800D9704710B504460146C6
S31508002430064B186804F060F820B9214604480CF0E9
S3150800244041FE10BD03480CF03DFEFAE74455002056
S315080024505C7E0208787E020838B51B4C6378022237
S3150800246062F383036370DBB26FF300036370DBB25E
S3150800247062F387136370DBB2012565F30513637096
S31508002480A3786FF30713A370DBB265F38303A37016
S31508002490DBB243F00303A370E0700C4B4FF4FA72FF
S315080024A01A80002128461BF040FE2A4600212846AD
S315080024B001F0AAFD20681BF0E1FC41F28831044BCB
S315080024C018680FF026FC38BDBC22002042510020B7
S315080024D04823002008B5294B1B78012B29D0022B4D
S315080024E039D003B108BD264B1B78264A1278B3EBC0
S315080024F0420F05DA244A127D02F01802102A0DD17D
S315080025001F4B00221A70204B197DC1F340111F483A
S315080025101BF007FE1E4824F043FCE3E70133184A84
S315080025201370194B197DC1F3401118481BF0E9FDCA
S31508002530D8E7134B1B78134A1278B3EB420F03DA2A
S3150800254001330F4A1370CDE70D4B00221A7010485D
S3150800255024F026FCC6E70A4B1B780A4A1278B3EB26
S31508002560420F03DA0133064A1370BBE7044B002215
S315080025701A70074824F014FCB4E700BF055200207F
S315080025800752002006520020102300209C900208C3
S31508002590C0220020037823BB70470133022B22DCBC
S315080025A003EB4302104911F82220002AF5D100B5A1
S315080025B00A4603EB430102EB810C4FF0000E8CF840
S315080025C001E04FF0010C02F821C002EB810301681B
S315080025D04268C3F80210C3F8062002895A815DF8DA
S315080025E004FB0023DAE77047E022002010B582B02A
S315080025F0044621B123788DF8003000230BE0FFF75D
S31508002600C9FFF7E7E118497803F109026A4402F8B5
S31508002610081C0133DBB2617A4A1E9342F2DB0A4B8D
S31508002620DB8B01F108026A4402F8083C01F1090251
S315080026306A441B0A02F8083C02316A46C9B20020FD
S3150800264001F0FCFC02B010BD1023002000B583B0D9
S315080026508C461146074B1870074B83F800C00123B8
S31508002660019300230093054A054825F07BFA03B039
S315080026705DF804FB0552002006520020D524000808
S31508002680C022002010B50024094B1C80094B197D77
S31508002690C1F3401108481BF044FD1BF02CFC2146F1
S315080026A001201BF050FD054B1B681C7010BD00BFB8
S315080026B042510020102300209C9002084823002045
S315080026C008B5012814D002281ED000B108BD144B45
S315080026D0197DC1F3401113481BF023FD0021012089
S315080026E01BF031FD6421104B18680FF012FBEDE763
S315080026F00B4B197DC1F340110A481BF012FD00214E
S3150800270001201BF02CFDE1E7054B197DC1F34011B3
S3150800271004481BF006FD002101201BF020FDD5E72B
S31508002720102300209C9002084823002038B59C4BB3
S315080027301A78A2F12803072B42D8DFE813F008001D
S31508002740980041004D00410041004100250194498F
S315080027504C798A724B788A7843EA0223CA7843EA24
S3150800276002430A7943EA026341F8183F0422052026
S31508002770FFF710FE012C11D0023C0E2C25D8DFE8FD
S3150800278004F00D24082424240D2424242424242499
S315080027900D00834B1A7D6FF3C4021A75814C012212
S315080027A021460020FFF7F6FD642203210020FFF7EB
S315080027B04DFF002304F8093C7B4B18680FF09EFA7E
S315080027C07A4B1B6800221A7038BD754B1A7D012199
S315080027D061F3C4021A75E1E7714B9A725B7A062BAC
S315080027E006D0012B3DD0704B18680FF087FAE7E743
S315080027F06B4A9378D17843EA0123117943EA014376
S31508002800517943EA01635178517792699A42EAD13C
S31508002810012916D00029E6D1614C207DC0F3C100FC
S31508002820FFF74EFF624B1B6800201870C822022172
S31508002830FFF70CFF012204F11D010420FFF7AAFD92
S31508002840D1E7574CE07CFFF707FEC822012100209C
S31508002850FFF7FCFE012204F11D010420FFF79AFD93
S31508002860C1E7642202210020FFF7F0FEBBE74C4BCC
S315080028709A725A7C022161F383025A74D2B26FF3B8
S3150800288000025A74D2B261F387125A74D2B2012185
S3150800289061F305125A749A7C6FF307129A74D2B2CE
S315080028A061F383029A74D2B242F003029A745B7897
S315080028B0022B06D0012B21D033B9394B5A22DA74B0
S315080028C002E0374B1E22DA74354B99781A7D61F38C
S315080028D0C4021A75D978D2B261F345121A75D3B201
S315080028E013F0180F0ED02E4B1B79022B0FD0012B8D
S315080028F046D07BB92F4B50221A700BE0284B3C224E
S31508002900DA74E1E7264BD87CFFF7A6FDEBE7294BFF
S3150800291096221A70274D28781BF091FA20F005FAAE
S31508002920254B4FF4FA721A80002101201BF0FDFB9B
S3150800293001220021104601F067FB194C20691BF0A3
S315080029409DFA237D43F04003214601F8143F0122F6
S315080029500020FFF71FFD012204F113011046FFF7BF
S3150800296019FD012229460220FFF714FD64220321DE
S315080029700020FFF76BFE0C4B18680FF0BFF91FE736
S315080029800C4B6E221A70C5E705498A784B7843EADC
S31508002990022321F81E3F02220720FFF7FBFC0FE760
S315080029A01023002024230020542300205023002035
S315080029B048230020085200204251002030B583B039
S315080029C02A4B5B7F43B9294B1B7D13F0180F03D0A5
S315080029D0264B1B7F012B3ED1002101201BF0BFFB9C
S315080029E0224C227F9DF8043062F301038DF80430EF
S315080029F0627F9DF8043062F382038DF804301C4B25
S31508002A005B6C1C481622027006234372002545702B
S31508002A1001238370184B1B88C3701B0A0371237B21
S31508002A204371A2722946FFF7E1FD00F0E7FE217D1A
S31508002A30C1F3401111481BF06CFB114BC8221A80D8
S31508002A404FF4FA610F4B18680FF063F90E4B1B68C9
S31508002A501D7003B030BD0C4B1B6800221A70034B67
S31508002A60187DC0F3C100FFF72BFEF2E71023002004
S31508002A7000C0035004230020B82200209C900208BE
S31508002A8042510020482300204C23002070B908B585
S31508002A90074B1B889BB203B108BD002101201BF020
S31508002AA05EFB044B18680FF029F9F5E7704700BF7D
S31508002AB0425100204C23002008B5044A1BF0C5F9F2
S31508002AC0034B18680FF01AF908BD00BF1023002041
S31508002AD05023002038B5044620F082F9A04201D8D8
S31508002AE0012038BD0546032001F086FC0028F8D0F1
S31508002AF01BF061FB1BF060FB2B462246034904488A
S31508002B0000681EF0A4FF0020EBE700BF907E0208D5
S31508002B108C27002030B583B004468368C26853F812
S31508002B2022301D882846FFF7D5FF08B903B030BD07
S31508002B3000230093ADF80430164B1B88ADF802301D
S31508002B40ADF804506368E2689B1A012B1DDDA36883
S31508002B50013253F822301B88ADF8003020F030F9E6
S31508002B606946032020F030F90446032001F044FCAE
S31508002B700028DBD01BF01FFB1BF01EFB2246064974
S31508002B80064B18681EF063FFD0E740F2FF13ADF856
S31508002B900030E3E744510020C87E02088C27002055
S31508002BA030B583B004468368C26853F822301D885E
S31508002BB02846FFF78FFF08B903B030BD00230093FE
S31508002BC0ADF80430154B1B88ADF80230ADF804504B
S31508002BD06368E2689B1A012B1BDDA368013253F870
S31508002BE022301B88ADF800306946042020F0ECF846
S31508002BF00446032001F000FC0028DDD01BF0DBFAB8
S31508002C001BF0DAFA22460649064B18681EF01FFF23
S31508002C10D2E740F2FF13ADF80030E5E74451002053
S31508002C20E87E02088C27002030B583B00446836806
S31508002C30C26853F822301D882846FFF74BFF08B9AB
S31508002C4003B030BD00230093ADF80430154B1B8844
S31508002C50ADF80230ADF804506368E2689B1A012BA0
S31508002C601BDDA368013253F822301B88ADF800300B
S31508002C706946022020F0A8F80446032001F0BCFBB0
S31508002C800028DDD01BF097FA1BF096FA2246064973
S31508002C90064B18681EF0DBFED2E740F2FF13ADF8CC
S31508002CA00030E5E744510020FC7E02088C2700200E
S31508002CB030B583B08368C26853F822301C78002385
S31508002CC0019343689B1A012B19DD01AA01211EF005
S31508002CD08BF901469DF8040020F06EF8054680B190
S31508002CE0022001F089FB60B11BF065FA1BF064FA5B
S31508002CF02A460649064B18681EF0A9FE01E020F090
S31508002D005FF8204620F064F803B030BD187F02084B
S31508002D108C27002010B503468168C26851F8220046
S31508002D20B0F900001A4C20805B689B1A012B0FDD56
S31508002D30013251F8223093F90010003918BF0121E9
S31508002D401FF0EFFFA0B9032001F056FB10B910BD24
S31508002D500021F5E71BF02FFA1BF02EFA0D4B1C6825
S31508002D601FF0E3FF02460C4920461EF070FEEEE710
S31508002D70012001F041FB0028E9D01BF01CFA1BF0EA
S31508002D801BFA0649034B18681EF061FEDFE700BF11
S31508002D90445100208C2700207C7F0208907F02087F
S31508002DA008B51FF0B2FF032001F026FB00B908BDE5
S31508002DB01BF001FA1BF000FA0249034B18681EF0D3
S31508002DC046FEF4E7A87F02088C27002008B583682A
S31508002DD0C26853F822301A88094B1A80032001F07A
S31508002DE00BFB00B908BD1BF0E6F91BF0E5F9044B2F
S31508002DF01A880449044B18681EF029FEF2E700BF3A
S31508002E00AC560020C87F02088C27002008B5024B64
S31508002E1018680EF073FF08BD542300202DE9F04111
S31508002E2086B01FF08EFF0446894B1B7813F0020FFD
S31508002E302CD0884E13F0010F2AD0864F13F0040FBA
S31508002E4028D0DFF81082032001F0D6FA28BB032029
S31508002E5001F0D2FA58BB032001F0CEFA002835D18A
S31508002E60032001F0C9FA00283ED1032001F0C4FA74
S31508002E70002847D1032001F0BFFA00285ED10320BD
S31508002E8001F0BAFA002867D1002471E0724ED1E742
S31508002E90714FD3E7DFF8C081D5E71BF08CF91BF03B
S31508002EA08BF96E496E4B18681EF0D1FDCFE71BF003
S31508002EB082F91BF081F96A4B1D6805F02DFD024663
S31508002EC00B46684928461EF0C2FDC4E71BF073F995
S31508002ED01BF072F9624B1D681FF00BFF0246624930
S31508002EE028461EF0B4FDBBE71BF065F91BF064F934
S31508002EF05B4B1D681FF031FF02465C4928461EF0F1
S31508002F00A6FDB2E71BF057F91BF056F9E279A3794B
S31508002F1061792079E57894F802C094F801E024787C
S31508002F200594CDF810E0CDF80CC0029501900091FB
S31508002F304F494B4800681EF08AFD9BE71BF03BF99A
S31508002F401BF03AF9464B1C681FF0FFFE024649493A
S31508002F5020461EF07CFD92E71BF02DF91BF02CF99C
S31508002F6045493F4B18681EF072FD8DE70134E4B2FF
S31508002F70072C12D8032001F03FFA0028F6D01BF0E0
S31508002F801AF91BF019F9364B1D681FF0DAFE025DB7
S31508002F903A4928461EF05BFDE8E7032001F02CFAC3
S31508002FA098B9032001F028FAC8B9032001F024FAD9
S31508002FB018BB032001F020FA68BB032001F01CFAB5
S31508002FC0002836D106B0BDE8F0811BF0F4F81BF0F6
S31508002FD0F3F82B49224B18681EF039FDE1E71BF080
S31508002FE0EAF81BF0E9F81E4B1C681FF0B2FE024611
S31508002FF0244920461EF02BFDD7E71BF0DCF81BF012
S31508003000DBF8174B1C681FF088FE02461E4920464F
S315080030101EF01DFDCDE71BF0CEF81BF0CDF8104BCA
S315080030201C681FF082FE0246184920461EF00FFD56
S31508003030C3E71BF0C0F81BF0BFF8CDF800803B468D
S3150800304032461349064800681EF001FDBAE700BF7C
S3150800305022570020307F0208387F0208E47F0208E2
S315080030608C270020EC7F02080880020824800208CA
S315080030704080020864800208808002089480020862
S315080030802C7E02089C800208B8800208D0800208BC
S31508003090E880020830B583B08368C26853F82230E6
S315080030A01C7801A920461FF034FE88B9032001F0D8
S315080030B0A3F908B903B030BD1BF07DF81BF07CF806
S315080030C0019B22460B490C4800681EF0C0FCF1E73C
S315080030D00546012001F090F90028EBD01BF06BF8AB
S315080030E01BF06AF82A460549034B18681EF0AFFC20
S315080030F0E0E700BF208102088C2700203C810208F7
S3150800310070B58268C36852F823100C88013352F8E8
S3150800311023301D78294620461FF04AFE80B9032031
S3150800312001F06AF900B970BD1BF045F81BF044F8C8
S315080031302B4622460B490C4800681EF088FCF2E72D
S315080031400646012001F058F90028ECD01BF033F8A8
S315080031501BF032F832460549034B18681EF077FC17
S31508003160E1E700BF608102088C27002090810208F1
S3150800317070B582B08368C26853F822301B78134A48
S31508003180137013F0020F0ED0114C13F0010F0CD070
S315080031900F4D13F0040F0AD00D4E032001F02CF941
S315080031A038B902B070BD0B4CEFE70A4DF1E7094E8E
S315080031B0F3E71BF000F81AF0FFFF00962B462246AD
S315080031C00549064800681EF042FCEAE72257002037
S315080031D0307F0208387F0208447F02088C270020C7
S315080031E030B58FB004460D4668461AF0A0FE0DF1BC
S315080031F0200EEC46BCE80F00AEE80F009CE8030082
S315080032008EE8030008A9464B186820F0DFFB10F18A
S31508003210880F46D168461AF08AFE0DF1200EEC4654
S31508003220BCE80F00AEE80F009CE803008EE8030038
S315080032304FF41053ADF820308023ADF822304FF408
S315080032404073079307A81AF082FE079B0A93354B2B
S315080032500B93334B1A68099B0D9213F0FF0F04D199
S3150800326023F0FF0343F001030993012309932C4B31
S315080032702A46214608A820F0C6FB044610BB0320B0
S3150800328001F0BAF890B9264B18681FF03AFD0546C2
S31508003290002831D1032001F0AFF8044610BB012401
S315080032A02FE01F4B186820F068FBB3E71AF083FF7E
S315080032B01AF082FF1A4B1A681B491C4B18681EF035
S315080032C0C6FBE0E7032001F097F80028DBD01AF0E8
S315080032D072FF1AF071FF22461549144B18681EF042
S315080032E0B6FBD0E71AF067FF1AF066FF11490F4BD5
S315080032F018681EF0ACFB04E0032001F07DF80446D4
S3150800330010B920460FB030BD1AF055FF1AF054FF19
S315080033102A460949054B18681EF099FB0024F0E770
S315080033203023002000014405C08102088C270020B4
S31508003330F0810208148202083482020800B583B0BC
S315080033400021019101AA1DF04FFE019910290ED006
S31508003350032001F051F860B11AF02DFF1AF02CFF86
S3150800336010220549054B18681EF071FB01E0FFF7AE
S3150800337037FF03B05DF804FB548202088C2700204F
S31508003380022900D0704708B5024B186808B119F031
S31508003390FBFD08BDB84B002010B588B020F032FC04
S315080033A001241E4B1C6002A81AF0E8FD02A920465B
S315080033B020F00CFB10F1880F0BD0184B18681FF083
S315080033C0A0FC1FF0F1FC1649164808F00DFF08B0DE
S315080033D010BD124B1A68039B079213F0FF0F03D117
S315080033E023F0FF03234303930F4B05934FF44073D6
S315080033F0019301A81AF0D2FD019B04934FF41053D0
S31508003400ADF808308023ADF80A3001230393034B47
S315080034101022064902A820F0F6FACEE7302300204B
S315080034209C54002034230020000144058C540020BD
S3150800343010B582B0002304220121084604F084FE58
S31508003440012304220621002004F07EFE0023012227
S315080034501946104604F078FE0120019000240094D5
S3150800346003462246214604F005FE0649204602F098
S3150800347029F81B2008F04CF81B201EF093FA02B01E
S3150800348010BD00BFBBDF010838B5444B1B78ABB194
S31508003490434B5B6C13F4807F76D0424B01221A7043
S315080034A0414A13780133DBB21370042B67D84FF403
S315080034B07A713E4B18680EF02CFC38BD3C4C7823CC
S315080034C0E374237D43F020032375DBB26FF3C40353
S315080034D02375384D96232B7000202077607704F1EA
S315080034E01401FEF769FF04F113010120FEF764FFDA
S315080034F029460220FEF760FF04F11C010320FEF7AF
S315080035005BFF04F11D010420FEF756FF04F11801C4
S315080035100520FEF751FF28490620FEF74DFF04F166
S315080035201E010720FEF748FF00F0D0FD01F016F94E
S31508003530FFF77EFF1AF045FD28781AF080FC00F0A8
S315080035401BFD237F022B0ED8012B14D013B91B4B5E
S3150800355001221A70164B03221A774FF47A71184B08
S3150800356018680EF0D6FB0D4B01221A700F4B1B681C
S3150800357000221A70A1E7134A01211170E6E701211A
S3150800358011481AF0C6FD92E70023064A1370064A48
S315080035901370064A126813708FE700BF095200209D
S315080035A000C003500E5200200D5200204423002074
S315080035B01023002008520020B82200200A520020BA
S315080035C0542300200B5200209C90020810B50020BE
S315080035D0164B187009F0B2FD154B1B7D13F0400F02
S315080035E015D0134C207DC0F3C100FFF769F82146BA
S315080035F0022301F81C3F01220320FEF7CBFE0D4BE8
S315080036001A68002313700C4A1268137010BD084913
S315080036100B7D012262F3C4030B75DBB243F0200372
S3150800362001F8143F0020FEF7B5FEDAE70B5200203A
S3150800363010230020542300204023002010B50F49F2
S315080036400F4809F081FC0F490F4809F07DFC0F4926
S315080036500F4809F079FC0F490F4809F075FC0F4C23
S315080036600F49204609F070FC0E490F4809F06CFC1A
S31508003670642120680EF04DFB10BD00BF5D380008C0
S31508003680542300202D27000850230020BD290008B8
S315080036904C230020852600084823002044230020C8
S315080036A089340008CD3500084023002070B5002075
S315080036B0FEF7B8FE0120FEF7B5FE0220FEF7B2FEC1
S315080036C00320FEF7AFFE0420FEF7ACFE0520FEF74A
S315080036D0A9FE0720FEF7A6FE224C0025E5835A23FD
S315080036E0E374237D43F020032375DBB265F3C4033B
S315080036F023753C20E074DBB265F3861323751A4EF6
S3150800370096233370FEF7A8FE30781AF098FB2577D3
S315080037106577207DC0F3C100FEF7D2FF012204F1D0
S315080037201C010320FEF736FE012204F11D010420C8
S31508003730FEF730FE012204F114012846FEF72AFEA0
S31508003740012231460220FEF725FE012204F113016B
S315080037501046FEF71FFE022204F11E010720FEF79F
S3150800376019FE70BD102300200852002008B560BB62
S31508003770022919D81B4B1B7F73B91B4B1B782BB916
S31508003780FEF7EAFD19481BF003F820E0C8220221DB
S315080037900020FEF75BFF1AE0022B18D1C82202218F
S315080037A00020FEF753FF12E0052904D0FFF77EFF3D
S315080037B01AF041FB0BE00E4B01221A704FF47A7196
S315080037C00C4B18680EF0A5FA01E0012800D008BDD8
S315080037D00229FCD9034B2B229A72074B18680EF064
S315080037E08DFAF4E7102300200C5200209C90020862
S315080037F00E520020442300205423002008B51AF056
S3150800380007FB82B222B1124B1B883BB9104B1A80B8
S3150800381002220F490620FEF7BDFD08BD82B207EE5B
S31508003820902AF8EEE77A9FED0B7A67EE877A07EE2D
S31508003830103AB8EEC77ADFED086A27EE267A77EEF1
S31508003840877AFCEEE77A024B17EE902A1A80DFE7B2
S31508003850B8220020CDCCCC3D6666663F10B582B056
S31508003860FFF7CCFF7B4B5B6C7B4B1B7F032B00F27C
S31508003870EB80DFE803F002234C759DF80430012243
S3150800388062F304038DF804309DF804306FF3461391
S315080038908DF80430714815230370022242729DF890
S315080038A0042042706C4A93726D4B1B680021197094
S315080038B0FEF79CFEFFF7A2FF02B010BD664B9B7A8F
S315080038C0282B18D02B2B1AD0292B1CD0634806235B
S315080038D043720021417001238370624B1B88C370B9
S315080038E01B0A03715C4B1B7B43715D4B1B6819708C
S315080038F0FEF77CFEDEE7594A28211170E2E7574AAF
S315080039002B211170E0E7554B29221A70DEE7524B3E
S315080039109B7A282B18D02B2B1AD0292B1CD04F4832
S315080039200623437200214170012383704D4B1B8887
S31508003930C3701B0A0371484B1B7B4371484B1B68BA
S315080039401970FEF753FEB5E7444A28211170E2E7DD
S31508003950424A2B211170E0E7404B29221A70DEE714
S315080039603D4B18691AF08AFA3F4B1B785BB93F4BF7
S315080039701B7873B13E4B1B780BB30120364B187777
S3150800398009F0DCFB05E0344B00221A77012009F028
S31508003990D5FB314B1B7F022B18D0012B37D0002BC0
S315080039A088D12D4CE07CFEF757FD207DC0F3C10081
S315080039B0FEF786FE2A4B1B6800221A707AE7264B0A
S315080039C002221A77002009F0B9FBE2E7224B5B7F57
S315080039D0012B12D0204B5B7F53B91F4B1B7D13F075
S315080039E0180F0FD01C4B187DC0F3C100FEF768FEF8
S315080039F01B4B1B6800221A705CE7174BD87CFEF736
S31508003A002BFDE7E7144BD87CFEF726FDF0E7124CB2
S31508003A10237D43F020032375DBB26FF3C4032146ED
S31508003A2001F8143F01220020FEF7B4FCE07CFEF703
S31508003A3013FD4FF470210F4B18680EF06AF9084B06
S31508003A401B6800221A7035E7054B1B6800221A709E
S31508003A5030E700BF00C003501023002004230020D5
S31508003A6054230020B82200200A5200200C520020BD
S31508003A700B52002040230020014B1878704700BFE6
S31508003A802357002010B50446184B1B7F23B1013B72
S31508003A90DBB2012B09D910BD817980681AF06FFB5A
S31508003AA063795B42114A1373F5E78068E188431826
S31508003AB013F8012C13F8023C43EA02230B4AD28B73
S31508003AC052B19A42E7D10239C9B21AF058FB637962
S31508003AD05B42064A1373DEE70239C9B21AF04FFB96
S31508003AE063795B42014A1373D5E700BF10230020B0
S31508003AF02DE9F04106460D468B681B78152B01D03B
S31508003B00002446E0354B1B7F002BF9D10028F7D15E
S31508003B10324C012727774FF0000884F81D80237D53
S31508003B2068F3C4032375DBB243F0200323753A46D2
S31508003B3004F11C010320FEF72DFC3A4604F11D0191
S31508003B400420FEF727FC3A4604F114014046FEF726
S31508003B5021FC4FF47021224B18680EF0DAF8CFE7F3
S31508003B6004EB44021F4B03EB82035B780A2B26D037
S31508003B701C4A04EB440102EB81004FF0010C02F8E9
S31508003B8021C063444370C82202210020FEF75EFD6F
S31508003B900134022C1BDCAB68197804EB4402114B88
S31508003BA003EB82039B789942F2D1002ED8D10D49B6
S31508003BB0900001EB820300220A545A70E8E709498B
S31508003BC0900001EB820300220A545A70DBE72B7B34
S31508003BD05B42024A1373BDE8F08100BF1023002040
S31508003BE040230020E022002010B59038062838D857
S31508003BF0DFE800F0041A22373729300001241C4B6D
S31508003C001C70C82202210020FEF720FD194B1C70EB
S31508003C10194B1B7F7BB9194B1B7863B10A21184BCB
S31508003C2018680EF076F806E00020114B187064222A
S31508003C300521FEF70BFD10BD4FF47A720221002014
S31508003C40FEF704FDF7E74FF47A7202210020FEF72B
S31508003C50FDFCF0E74FF47A7202210020FEF7F6FC2D
S31508003C60E9E74FF47A7202210020FEF7EFFCE2E75B
S31508003C700C52002023570020102300200952002050
S31508003C805423002008B523F061FF074B1B782BB19E
S31508003C90064B1B68C01A064B984200D808BD054853
S31508003CA01AF076FDFAE700BF0F5200203C230020E9
S31508003CB0A08601009C90020808B5024B1B6803B158
S31508003CC0984708BD8823002008B5024B5B6803B1F6
S31508003CD0984708BD8823002008B5024B9B6803B1A6
S31508003CE0984708BD8823002008B5024BDB6803B156
S31508003CF0984708BD8823002008B5024B1B6903B105
S31508003D00984708BD8823002008B5024B5B6903B1B4
S31508003D10984708BD8823002000B585B0094B186868
S31508003D20094B1860094B0A4A13600A4A01920A4A63
S31508003D3012680292039301A91DF078F905B05DF89F
S31508003D4004FB00BFC0540020D8310020B454002022
S31508003D50D43100204C9002085C26002008B5024B9E
S31508003D6018681DF077F908BDC054002038B507F06B
S31508003D7005FC0446064D2B68D3F8B00207F0F2FBA3
S31508003D8028681DF081F9204607F0ECFB38BD00BF16
S31508003D90C05400200023062073B1704754B224B9DA
S31508003DA0013353B15DF8044B70470228F8D0086810
S31508003DB00A4908601046F3E710B4094A52F8231076
S31508003DC00A7A022AEAD9032AEAD1441EE4B2012C65
S31508003DD0E6D90868014908601046E1E75C26002034
S31508003DE0C454002010B5A2B02024224600211AA8E7
S31508003DF021F01EFF304B1A934FF4E1331C93022334
S31508003E008DF8753003238DF876302C4B1E930623D8
S31508003E108DF87E3009238DF8803000211591169192
S31508003E201791189119914FF480131593244B1993F0
S31508003E3010911191129113911491224B1093224BC8
S31508003E4014933C2201A821F0F3FE0DF1040E0DF1A6
S31508003E50540CBCE80F00AEE80F00DCF80030CEF8D2
S31508003E6000300DF1180E0DF1400CBCE80F00AEE85D
S31508003E700F00DCF80030CEF80030144B0B930C948E
S31508003E8001238DF834308DF83530114B0F93114BD3
S31508003E901AAA01A9104807F01DFC04469DF83730F8
S31508003EA03BB100214FF4E1301AF0EAFA204622B07D
S31508003EB010BD0321F6E700BF4094020830940208BB
S31508003EC03C00015B010010004400015B60260020F5
S31508003ED0D8540020802600203C27002008B531B998
S31508003EE0084B1868036823B108F00AF801E00129AD
S31508003EF000D908BD034B18680368002BF9D01EF0DB
S31508003F0088F8F6E7EC54002008B50349034808F09A
S31508003F106BF9FFF767FF08BDF054002064270020FF
S31508003F2008B502481DF0D9FD08BD00BF3C27002092
S31508003F3008B502481DF0D1FD08BD00BF3C2700208A
S31508003F4008B5024B5A6A1868904708BD3C270020F6
S31508003F5008B503481AF018FB02481AF015FB08BD05
S31508003F60849002086C90020808B502481AF00BFC07
S31508003F7008BD00BF9C90020870B590B001212A20A8
S31508003F8003F0E8F800250D950E950F951B4E2A4669
S31508003F901B49304604F062F98DF839000DF10C0C16
S31508003FA0184C0FCCACE80F000FCCACE80F0094E827
S31508003FB003008CE803004FF4966306930195029577
S31508003FC003238DF806308DF8065001238DF800304E
S31508003FD08DF801508DF802508DF8035010238DF896
S31508003FE0013003AA0DA9304604F078F96A4601A9FA
S31508003FF030461CF059FA10B070BD00BF0040005999
S3150800400040420F00B490020842B9C0B201228A4069
S3150800401000EB40000001074B1A507047012A00D0F8
S315080040207047C0B201228A4000EB40000001024BF3
S315080040301A50F5E740E0035040D0035000B583B06E
S315080040400B460549097801910092002201211EF0CC
S315080040509CFE03B05DF804FB2257002070B5057975
S31508004060194B03EBC5031B79052B0BD004460668D1
S31508004070FA2022F079FF864205D2134B03EBC503DB
S3150800408000221A7170BD26684FF47A7022F06CFF10
S31508004090864205D20C4B03EBC50301221A71F1E7E0
S315080040A0246840F6B83022F05FFF844205D2064BFA
S315080040B003EBC50302221A71E4E7034B03EBC503BE
S315080040C003221A71DEE700BF7C27002038B5114BA2
S315080040D018681AF037F90546C8B9002401E0013412
S315080040E0E4B2012C0CD80C4B53F824001AF053FAFE
S315080040F00128F4D123F02AFD084B43F83400EEE7F3
S31508004100074B00221A70034B18681AF02BF9284639
S3150800411038BD00BF78270020F85400207C270020EF
S315080041202457002000B9704730B583B00446104DB7
S31508004130104928681DF08BFC1AF03DF81AF03CF877
S315080041400D4B00934FF48D730C4A0D4928681DF0EA
S315080041507EFC23460B4A0C4928681DF078FC20464D
S3150800416000F092F9094928681DF071FC00BEFDE7C8
S315080041708C2700202C7E02088C910208DC9002080D
S315080041804C91020858910208609102087891020839
S3150800419000B589B0002307E00022264941F823200C
S315080041A02549CA540133DBB2012BF5D9002309E0AE
S315080041B0224A02EBC30104200871002142F8331099
S315080041C00133DBB2012BF3D9002301930293039346
S315080041D004930593069307939DF8043043F001036F
S315080041E08DF80430DBB243F008038DF80430DBB2F7
S315080041F043F020038DF80430114B0293114B0393BF
S3150800420002238DF810304FF4806305930523ADF82B
S3150800421018300423ADF81A30082307930A4901A871
S3150800422000F050F910B909B05DF804FBFFF77AFF02
S31508004230F9E700BF702700206C2700207C270020A4
S315080042404D42000887E101087827002010B584B0A0
S3150800425001AA02A9124B18681AF0C6F8E8B902A80A
S31508004260FFF7FCFE002401E00134E4B2012C0ED86D
S315080042700C4B03EBC40319790429F5D02046FFF744
S3150800428075FA084B03EBC40304221A71ECE7044BD6
S3150800429018681AF067F804B010BDFFF743FFFAE78D
S315080042A0782700207C270020204B1B78002B3CD148
S315080042B070B582B00024012C20D825461C4B53F833
S315080042C02430834202D00134E4B2F4E71AF063F9E9
S315080042D0012815D023F03AFC164B53F83560861B97
S315080042E000968DF80440282022F03EFE864211D81A
S315080042F0104B03EBC5031B79052B0BD002B070BD21
S3150800430023F024FC0B4B43F8340003EBC4030522CB
S315080043101A71DFE708226946074B18681AF032F85F
S315080043200028EBD0FFF7FEFEE8E770472457002089
S31508004330F85400207C2700207827002010B58368D1
S31508004340C26853F822301C78012C00D90124084B86
S315080043501B5D03B110BD23F0F9FB064B43F824009F
S31508004360034B01221A5505212046FFF7FFF9F1E70D
S315080043706C2700207027002038B58368C26853F878
S3150800438022301C78012C00D90124194B1B5D012B06
S3150800439000D038BD23F0DAFB164B53F82450451BE2
S315080043A0134B00221A55FA2022F0DEFDA84204D942
S315080043B000212046FFF7DAF9EBE74FF47A7022F08E
S315080043C0D3FDA84204D901212046FFF7CFF9E0E73B
S315080043D040F6B83022F0C8FDA84204D9022120468A
S315080043E0FFF7C4F9D5E703212046FFF7BFF9D0E761
S315080043F06C2700207027002003460B4A107828B146
S315080044000A4A12789A4202D2002000E00120084A9D
S3150800441012783AB1074A127842FA03F313F0010FF9
S3150800442000D10020704700BF2757002026570020DC
S31508004430115200202557002008B5084B01221A7092
S31508004440074B00221A70074B04221A70064B1F22CC
S315080044501A7007F093F8054B186008BD2757002017
S315080044601152002026570020255700208C270020AF
S3150800447008B50349034B18681DF0E9FA08BD00BFE3
S31508004480A49102088C27002070B506460A4C0B49F1
S3150800449020681DF0DCFA07F071F80546206807F079
S315080044A061F83046FFF7E4FF284607F05BF8044951
S315080044B020681DF0CCFA70BD8C270020A891020850
S315080044C0AC910208F8B500284FD00D4604460029DD
S315080044D04DD0037813F0030F36D04268002A48D02F
S315080044E013F0080F02D0A28A002A44D013F0200F36
S315080044F005D0E38A002B40D0A369002B3FD02C209F
S315080045001DF0E1FE064600283BD02C22002121F0B2
S315080045108FFB21686268A368E0687160B260F36027
S31508004520306121696269A3697161B261F3612378B7
S3150800453013F0040F0ED000272E60636843B131468E
S31508004540114819F0C1FF03E04268002AC8D02127A4
S315080045503846F8BD0121304619F0C0FE0746002846
S31508004560EAD030461DF08EFFF2E72227F0E7222731
S31508004570EEE72127ECE72127EAE72127E8E72127C5
S31508004580E6E71927E4E700BF9027002008B50348A7
S3150800459019F093FF19F026FD08BD00BF90270020EB
S315080045A010B50B4B1C6802E023F07CF8246864B154
S315080045B023F07DF894F82030002BF5D0A36A002B61
S315080045C0F2D023F06FF8002000E0012010BD00BFF4
S315080045D09027002010B50B4B1C6802E023F062F808
S315080045E0246864B123F063F894F82030002BF5D0E2
S315080045F0A36A002BF2D023F055F8042000E001202E
S3150800460010BD00BF9027002010B50C4B1C6802E0B7
S3150800461023F048F824687CB123F049F894F8203050
S31508004620002BF5D0A36A002BF2D0013BA36223F03E
S3150800463039F8A3689847EDE710BD00BF902700201A
S3150800464008B5044823F008F919F0EEFC00F086F8DE
S3150800465008BD00BF2894020808B5024823F0FCF8F4
S3150800466008BD00BF289402082DE9F04180460F4690
S3150800467001F109050026344604E05B21082000F014
S3150800468093FA0134AC4233D2052C1BD801A353F854
S3150800469024F000BF7B460008AD460008E146000846
S315080046A0B5460008B9460008BD460008FBB2043303
S315080046B0D9B2E3E78021E1E70021DFE7731C314641
S315080046C0DEB2DBE7BB1DA3420CD0FB1DA3420BD019
S315080046D007F10803A34209D0A31F18F80310CDE772
S315080046E0D121CBE75A21C9E75A21C7E75D21C5E79A
S315080046F00020BDE8F08100BF00B583B0002200921B
S31508004700019202218DF80010054819F0A3FE0190C8
S3150800471008216846FFF7A8FF03B05DF804FB00BF51
S31508004720006A180000B583B0044B1B88ADF8043046
S3150800473001A800F015FB03B05DF804FBB091020870
S3150800474000B583B0044B1B88ADF8043001A800F00F
S31508004750D7FA03B05DF804FBB09102082DE9F04FD3
S3150800476097B04D4D09AC2E1D0FCE0FC4336823608C
S3150800477001AC05F118060FCE0FC496E80F0084E8C1
S315080047800F00464823F068F8454823F065F80126E7
S315080047908DF8096000248DF80840424B0B9301AB55
S315080047A00D93414F09A938461BF02FFEB5F838B0CE
S315080047B0ADF838B0324604210EA800F065FAB5F80F
S315080047C03CA0ADF83CA0224631460FA800F05CFAA2
S315080047D0B5F84090ADF840903246042110A800F094
S315080047E053FAB5F80080ADF844803246042111A882
S315080047F000F04AFA2D4D2E4BC5F8F8344FF0021347
S31508004800C5F8F434A3F58033C5F8FC341C23C5F881
S31508004810E4344FF4487008F035FBFFF783FF1420A3
S3150800482008F030FBFFF78CFF232008F02BFBFFF77F
S3150800483079FFB92138461BF0D0FDFFF781FFADF8A7
S3150800484048B02246214612A800F01EFAADF84CA040
S315080048502246214613A800F017FAADF850903246C2
S31508004860214614A800F010FAADF8548032462146C5
S3150800487015A800F009FA384603F086F9C5F8E444A5
S31508004880C5F8F844C5F8F444C5F8FC44044822F0D1
S31508004890E8FF17B0BDE8F08FB09102082894020827
S315080048A02C940208E070720000000A5000C0035001
S315080048B00200030008B50448044A121A9210044973
S315080048C019F0F1FD08BD00BF80010008800300084B
S315080048D08052002008B5154B83F30A8800F030F89B
S315080048E0FFF7E8FF124A0AE01068516850F82300FB
S315080048F041F82300013391688B42F5D30C320D4BF6
S315080049009A4201D20023F6E70B4A08E01168002014
S3150800491041F82300013351688B42F7D30832074B1D
S315080049209A4201D20023F6E7FDF7C8FC00000020F2
S3150800493078D8020884D8020884D8020884D80208DD
S3150800494070B5134B134A9A60D3F8882042F4700264
S31508004950C3F88820104A4FF4804191660F4D05F53B
S3150800496000544FF0FF3222660D4A62660222C3F8EF
S31508004970D020BFF34F8FBFF36F8F002006F0C8FD1E
S315080049804FF44036E66000201DF00CF82E6170BD2D
S3150800499000ED00E000000008009000500080004490
S315080049A07FFF7F01014B1860704700BF1855002034
S315080049B008B5064B1860064B1B6F03F00703032B5D
S315080049C000D008BD21F0BAFBFBE700BF2055002048
S315080049D000800050BFF34F8F0549CA6802F4E062B1
S315080049E0044B1343CB60BFF34F8F00BFFDE700BFF7
S315080049F000ED00E00400FA05F0B18446F1B110B408
S31508004A0009E004F120000FE02033C01A18D1BCB128
S31508004A100CF1010C01319CF800400B4B1B5D03F0B7
S31508004A200303012BEDD020460B78074AD25C02F02F
S31508004A300302012AE9D1E7E7012070470120704700
S31508004A405DF8044B704700BF3DD7020830B587B004
S31508004A500546046823798DF80C3063798DF80D3096
S31508004A601A4822F0F9FE0022012103A800F00CF9E9
S31508004A700DF10B0103A819F04FFE9DF80B302370BA
S31508004A80A379022B02D0002007B030BD4FF0FF33C8
S31508004A900593049300950E4B012205A903A800F07F
S31508004AA02FFA059BB3F1FF3F07D00095084B02226A
S31508004AB004A903A800F084F9E5E70095044B04224D
S31508004AC004A903A800F07CF9DDE700BF28940208D2
S31508004AD0A5E5010810B582B0002401942A4822F001
S31508004AE0BBFE8DF8004003238DF801300122042116
S31508004AF0684600F0C9F8254B0122C3F8442401A9E9
S31508004B00052022F0A2FE00283BD1214BD3F8F02045
S31508004B1042F00102C3F8F020D3F8FC2042F080727C
S31508004B20C3F8FC20A3F55D431A4A1A60019B03F5F6
S31508004B30D52303F2FC43DB08174AA2FB03239B0A8F
S31508004B40013B164A13610223C2F8F0304FF4807312
S31508004B50C2F804334FF06043114AC3F8B02F114A24
S31508004B60C3F8802ED3F8002E42F48072C3F8002EC4
S31508004B70FF2283F82020D3F8002E22F48072C3F88F
S31508004B80002E02B010BD00BF2894020800D00350C2
S31508004B9000ED00E0FF03004017916502000004E005
S31508004BA055CEACC5090001004FF06043D3F8803EEE
S31508004BB013F0010F01D1112070470E4AD2F8FC30CC
S31508004BC043F08073C2F8FC304FF06043D3F8002EF0
S31508004BD04FF0010C0CFA00FC42EA0C02C3F8002E56
S31508004BE053F82030002BE8D04FF0604303F820102C
S31508004BF00020704700ED00E010B504460FE00123E1
S31508004C00834024EA03040F2814D800EB40020E4B15
S31508004C1003EB82035A6812B19968C0B2904794B1FF
S31508004C20234600201F28EAD813F0010FE7D10130E8
S31508004C305B08F7E7103800EB40039B00B033024AE5
S31508004C4013440433E6E710BD9427002008B50D4841
S31508004C5022F002FE1A2006F04BFC28B91B2006F0AB
S31508004C6047FC40B9002008BD1A2006F051FC1A205E
S31508004C701CF098FEF2E71B2006F04AFC1B201CF0ED
S31508004C8091FEEFE7289402082DE9F04170B30C462F
S31508004C90174605460F292BD803784BB1022B20D08F
S31508004CA0032B21D0012B01D0002303E07F2301E051
S31508004CB040F2FF736A78D34013F0010F1AD00F4BF6
S31508004CC0D3F81063C6B922F005FD80463A46214658
S31508004CD0284603F067FE404622F0F7FC3046BDE85A
S31508004CE0F08140F2FF33E5E73F23E3E72226F5E7C5
S31508004CF02126F3E72126F1E70226EFE700C0035055
S31508004D0040B310B5044603784BB1022B1DD0032BD4
S31508004D101ED0012B01D0002303E07F2301E040F2DF
S31508004D20FF736278D34013F0010F15D022F0D2FC3E
S31508004D30237862780121914003EB43031B01074A5C
S31508004D40D15022F0C2FC002010BD40F2FF33E8E744
S31508004D503F23E6E7222070472120F5E740D003509D
S31508004D6040B310B5044603784BB1022B1DD0032B74
S31508004D701ED0012B01D0002303E07F2301E040F27F
S31508004D80FF736278D34013F0010F15D022F0A2FC0E
S31508004D90237862780121914003EB43031B01074AFC
S31508004DA0D15022F092FC002010BD40F2FF33E8E714
S31508004DB03F23E6E7222070472120F5E740E003502D
S31508004DC0002866D02DE9F0410C4615461F460646D2
S31508004DD0002960D002784AB1022A3ED0032A3FD081
S31508004DE0012A01D0002303E07F2301E040F2FF738C
S31508004DF07178CB4013F0010F01D1FF2A4DD1022D56
S31508004E0001D9042D4BD122F065FC80463378FF2B5F
S31508004E1028D12368B3F1FF3F2BD02268B2F1FF3FB8
S31508004E2032D0204B02EB420203EB82025760226823
S31508004E3002EB420203EB8203069A9A603378FF2B51
S31508004E4005D0226801239340174AC2F82434404605
S31508004E5022F03BFC0020BDE8F08140F2FF33C7E7B3
S31508004E603F23C5E72A462168304603F005FE206041
S31508004E70CFE73378FF2BD0D10C4BD3F824147078B6
S31508004E801BF092FC2060C8E7404622F01EFC2D204D
S31508004E90E1E7222070472220DDE72120DBE72120F9
S31508004EA0D9E700BF9427002000D0035000C0035064
S31508004EB0B0F1FF3F1AD038B504460F2818DC002891
S31508004EC018DB22F007FC0123A3400B4AC2F8203462
S31508004ED0C2F82434094B04EB440203EB8202002592
S31508004EE05560956022F0F1FB284638BD21207047B1
S31508004EF02120FAE72120F8E700E003509427002054
S31508004F00002856D02DE9F0410C4617461E460546A0
S31508004F10002950D0017849B1022939D003293AD05D
S31508004F20012901D0002303E07F2301E040F2FF734B
S31508004F306A78D34013F0010F01D1FF293DD122F041
S31508004F40C9FB80462B78FF2B27D12268B2F1FF3F99
S31508004F502AD01B4B02EB420203EB8202C2F8B8606E
S31508004F60226802EB420203EB8203069AC3F8BC20CE
S31508004F702B78FF2B06D02268103201239340114A62
S31508004F80C2F82434404622F0A0FB0020BDE8F08198
S31508004F9040F2FF33CCE73F23CAE73A462168284662
S31508004FA003F00AFE2060D0E7404622F08EFB2D2053
S31508004FB0ECE7222070472220E8E72120E6E700BF39
S31508004FC09427002000D0035008B5084BD3F82404D2
S31508004FD0D3F82024104000F0553020F0502003F577
S31508004FE00053C3F82004FFF707FE08BD00C00350AE
S31508004FF008B5084BD3F82404D3F82024104000F051
S31508005000AA3020F0A02003F50053C3F82004FFF7C8
S31508005010F3FD08BD00C0035010B582B004460A4827
S3150800502022F01AFC23788DF8043063788DF8053061
S31508005030A278B2FA82F2520904210DEB0100FFF7B9
S3150800504023FE002002B010BD28940208F0B585B0F2
S315080050500C4694469DF83410664A1278002A00F0E9
S31508005060BD800546BCF1070F00F2BA800A9A002AED
S3150800507000F0B8800B9A002A00F0B6800E9AB2F5B6
S31508005080006F00F3B38001285BD05B4A02EB0C1279
S31508005090127B002A00F0AC80002200920192029254
S315080050A00392564A02EB4C1E002C4FD14FEA4C167F
S315080050B000209051CEF80400CEF80800CEF80C0077
S315080050C09EF8020040F010008EF802009EF80300D9
S315080050D040F030008EF8030021B9C1B241F0030157
S315080050E08EF8031000930E9B013B444A4FEA4C107E
S315080050F002EB4C11165A63F30E1616520A9B8B6076
S315080051000B9B4B60CB789DF83C2062F38303CB70F6
S31508005110012D36D0109B002B56D0374A4FEA0C117A
S3150800512002EB0C1310985050119A5A6000249C6098
S315080051305D7372466946604603F0F6FA204605B086
S31508005140F0BD0C9A002AA0D12D48F8E72B4F4FEA5C
S315080051504C1607EB4C120020B85150609060D06096
S31508005160907840F010009070D07840F00300D0702E
S315080051700029B7D107EB4C12C1B241F03001D1700A
S31508005180B0E70E460A7B42F001020A73D2B242F039
S3150800519002020A73CA68042161F39F02F26006F1EB
S315080051A0100796E80F0087E80F00F2696FF0030111
S315080051B061F39F02F2610C9B7361012CAAD10B9AD1
S315080051C0B2610C9A7260A5E7002DA6D10B4B03EBD2
S315080051D04C139A786FF304129A709EE70948AEE763
S315080051E00748ACE70648AAE70548A8E70448A6E73B
S315080051F00548A4E712520020FC290020FC280020BC
S31508005200018000F0028000F0078000F0134B1B7845
S31508005210FBB110B50446F0B122F05CFA0023072B67
S3150800522013D80F4A02EB0312127B0AB10133F6E7D1
S3150800523023600B4A190102EB031301241C73002493
S31508005240545022F042FA204602E022F03EFA05487F
S3150800525010BD054870470548FAE700BF12520020FE
S31508005260FC290020048000F0028000F0018000F094
S3150800527038B522F02FFA04460023072B06DC0C4A21
S3150800528002EB0312127B12B90133F6E7002222B1B0
S31508005290204622F01AFA074838BD03F0F1F900252E
S315080052A0054B1D70204622F010FA2846F4E700BF89
S315080052B0FC290020058000F0125200200F4B1B78B5
S315080052C0BBB110B50446072815D822F003FA0C4BD3
S315080052D003EB04131B7B1BB922F0F7F909480BE013
S315080052E0074B03EB041300241C7322F0EEF9204647
S315080052F002E005487047054810BD00BF125200205D
S31508005300FC290020068000F0028000F0018000F0F1
S3150800531000B583B0134B1B68019300238DF8043046
S3150800532022F0D8F9104B1B7833B90F4B01221A70AB
S3150800533022F0CBF9002309E022F0C7F90B480EE06A
S315080053400B4A02EB0312002111730133072BF7DD19
S3150800535008238DF8073001A803F0B6F9002003B03A
S315080053605DF804FBF491020812520020038000F055
S31508005370FC29002010B5104C2478BCB1072817DC8E
S315080053800E4C04EB0014247BA4B10C4C4FEA001E0F
S3150800539004EB001C44F80E30029BCCF804300024C1
S315080053A0CCF8084003F0C0F9204610BD0448FCE7D5
S315080053B00448FAE70448F8E712520020FC290020BE
S315080053C0028000F0018000F0078000F008B50A4B63
S315080053D01B785BB107280BD8084B03EB00131B7B24
S315080053E043B1002103F062F9002008BD0448FCE738
S315080053F00448FAE70448F8E712520020FC2900207E
S31508005400028000F0018000F0078000F008B50A4B22
S315080054101B785BB107280BD8084B03EB00131B7BE3
S3150800542043B1012103F042F9002008BD0448FCE716
S315080054300448FAE70448F8E712520020FC2900203D
S31508005440028000F0018000F0078000F0F8B5194BE3
S315080054501F6D5B6D1F4002D40125002402E0FEE7A4
S3150800546001346D00072C24D83D42F9D0124B1D6536
S315080054702301124AD358002BF2D002EB0416B16866
S315080054800131B16072682046984780F00100C0B2C9
S31508005490737B012BE4D10028E2D0094B03EB4413BC
S315080054A01A7B6FF341021A731A7F6FF341021A7758
S315080054B0D6E7F8BD0000045000200450FC2900205F
S315080054C0FC28002000B585B0FF238DF80C308DF838
S315080054D00D3002900F2809DC0091094B002202A921
S315080054E003A8FFF76DFC05B05DF804FB10380290C1
S315080054F00091034B002202A903A8FFF701FDF2E77A
S315080055007FE801082DE9F04F89B005460E46144696
